{
  "contractName": "AndPoK",
  "abi": [
    {
      "inputs": [],
      "payable": false,
      "stateMutability": "nonpayable",
      "type": "constructor"
    },
    {
      "constant": true,
      "inputs": [
        {
          "name": "secret",
          "type": "uint256"
        },
        {
          "name": "message",
          "type": "uint256"
        }
      ],
      "name": "prove",
      "outputs": [
        {
          "name": "A",
          "type": "uint256[2]"
        },
        {
          "name": "B",
          "type": "uint256[2]"
        },
        {
          "name": "M",
          "type": "uint256"
        },
        {
          "name": "T1",
          "type": "uint256[3]"
        },
        {
          "name": "T2",
          "type": "uint256[3]"
        },
        {
          "name": "c",
          "type": "uint256"
        },
        {
          "name": "s",
          "type": "uint256"
        }
      ],
      "payable": false,
      "stateMutability": "view",
      "type": "function"
    },
    {
      "constant": true,
      "inputs": [
        {
          "name": "A",
          "type": "uint256[2]"
        },
        {
          "name": "B",
          "type": "uint256[2]"
        },
        {
          "name": "message",
          "type": "uint256"
        },
        {
          "name": "T1",
          "type": "uint256[3]"
        },
        {
          "name": "T2",
          "type": "uint256[3]"
        },
        {
          "name": "s",
          "type": "uint256"
        }
      ],
      "name": "verifyProofs",
      "outputs": [
        {
          "name": "",
          "type": "bool"
        }
      ],
      "payable": false,
      "stateMutability": "view",
      "type": "function"
    },
    {
      "constant": true,
      "inputs": [
        {
          "name": "secret",
          "type": "uint256"
        },
        {
          "name": "message",
          "type": "uint256"
        }
      ],
      "name": "test",
      "outputs": [
        {
          "name": "result",
          "type": "bool"
        },
        {
          "name": "A",
          "type": "uint256[2]"
        },
        {
          "name": "B",
          "type": "uint256[2]"
        },
        {
          "name": "M",
          "type": "uint256"
        },
        {
          "name": "T1",
          "type": "uint256[3]"
        },
        {
          "name": "T2",
          "type": "uint256[3]"
        },
        {
          "name": "c",
          "type": "uint256"
        },
        {
          "name": "s",
          "type": "uint256"
        }
      ],
      "payable": false,
      "stateMutability": "view",
      "type": "function"
    },
    {
      "constant": true,
      "inputs": [
        {
          "name": "coe",
          "type": "uint256"
        }
      ],
      "name": "explainTransform",
      "outputs": [
        {
          "name": "mul",
          "type": "uint256[3]"
        },
        {
          "name": "afterTransform",
          "type": "uint256[3]"
        }
      ],
      "payable": false,
      "stateMutability": "view",
      "type": "function"
    }
  ],
  "bytecode": "0x608060405234801561001057600080fd5b507f79be667ef9dcbbac55a06295ce870b07029bfcdb2dce28d959f2815b16f8179860009081557f483ada7726a3c4655da4fbfc0e1108a8fd17b448a68554199c47d08ffb10d4b86001557fec70eda5abd3416f239ef65d4b288717c4cf7ba469776869f2aae2e00df74dca6002557fef7824ff7e7f248bf1c94f61c04a69c4d9db232c86d85478b97e87753114de2d600355611a379081906100b390396000f3006080604052600436106100615763ffffffff7c01000000000000000000000000000000000000000000000000000000006000350416632d3e27f78114610066578063a575cf5b14610155578063b64a624f146101d1578063eb8ac9211461029f575b600080fd5b34801561007257600080fd5b50610081600435602435610396565b6040518088600260200280838360005b838110156100a9578181015183820152602001610091565b5050505090500187600260200280838360005b838110156100d45781810151838201526020016100bc565b5050505090500186815260200185600360200280838360005b838110156101055781810151838201526020016100ed565b5050505090500184600360200280838360005b83811015610130578181015183820152602001610118565b5050505090500183815260200182815260200197505050505050505060405180910390f35b34801561016157600080fd5b5061016d6004356106dd565b6040518083606080838360005b8381101561019257818101518382015260200161017a565b5050505090500182600360200280838360005b838110156101bd5781810151838201526020016101a5565b505050509050019250505060405180910390f35b3480156101dd57600080fd5b5060408051808201825261028b913691600491604491908390600290839083908082843750506040805180820182529497969581810195945092506002915083908390808284375050604080516060818101909252949786359790969095608082019550935060200191506003908390839080828437505060408051606081810190925294979695818101959450925060039150839083908082843750939650509235935061076b92505050565b604080519115158252519081900360200190f35b3480156102ab57600080fd5b506102ba600435602435610904565b604080518915158152906020820190899080838360005b838110156102e95781810151838201526020016102d1565b5050505090500187600260200280838360005b838110156103145781810151838201526020016102fc565b5050505090500186815260200185600360200280838360005b8381101561034557818101518382015260200161032d565b5050505090500184600360200280838360005b83811015610370578181015183820152602001610358565b505050509050018381526020018281526020019850505050505050505060405180910390f35b61039e611963565b6103a6611963565b60006103b061197e565b6103b861197e565b6000806103c361197e565b6103cb61197e565b6040805180820191829052600091610404918e91849060029082845b8154815260200190600101908083116103e7575050505050610963565b9250610416836401000003d019610d9b565b826000602002015183600160200201518b6000602002018c600160200201919091525260408051808201909152610472908d906002808281806020028201918154815260200190600101908083116103e7575050505050610963565b9150610484826401000003d019610d9b565b8151602080840151908b015289526040805170014551231950b75fc4402da1732fc9bebe19918c918c918f91908190859080838360005b838110156104d35781810151838201526020016104bb565b5050505090500183600260200280838360005b838110156104fe5781810151838201526020016104e6565b5050505091909101928352505060405190819003602001902091505081151561052357fe5b60408051808201918290526000805482528f9c5093909206935061055e928492916002906001602085018083116103e7575050505050610963565b9650610570876401000003d019610d9b565b60408051808201918290526002805482526105a2928492919081906003602085018083116103e7575050505050610963565b95506105b4866401000003d019610d9b565b70014551231950b75fc4402da1732fc9bebe198a8a8d8a8a6040518086600260200280838360005b838110156105f45781810151838201526020016105dc565b5050505090500185600260200280838360005b8381101561061f578181015183820152602001610607565b5050505090500184815260200183600360200280838360005b83811015610650578181015183820152602001610638565b5050505090500182600360200280838360005b8381101561067b578181015183820152602001610663565b505050509050019550505050505060405180910390206001900481151561069e57fe5b06945070014551231950b75fc4402da1732fc9bebe198170014551231950b75fc4402da1732fc9bebe19878f0908935050505092959891949750929550565b6106e561197e565b6106ed61197e565b604080518082019182905260008054825261072092869291906002906001602085018083116103e7575050505050610963565b60408051808201918290526000805482529294506107549286926002906001602085018083116103e7575050505050610963565b9050610766816401000003d019610d9b565b915091565b60008070014551231950b75fc4402da1732fc9bebe1988888888886040518086600260200280838360005b838110156107ae578181015183820152602001610796565b5050505090500185600260200280838360005b838110156107d95781810151838201526020016107c1565b5050505090500184815260200183600360200280838360005b8381101561080a5781810151838201526020016107f2565b5050505090500182600360200280838360005b8381101561083557818101518382015260200161081d565b505050509050019550505050505060405180910390206001900481151561085857fe5b6040805180820191829052929091069250610898919060009060029082845b81548152602001906001019080831161087757505050505089878685610e07565b15156001146108aa57600091506108f9565b60408051808201918290526108e291600290819081845b8154815260200190600101908083116108c157505050505088868685610e07565b15156001146108f457600091506108f9565b600191505b509695505050505050565b600061090e611963565b610916611963565b600061092061197e565b61092861197e565b6000806109358a8a610396565b959c50939a50919850965094509250905061095487878787878661076b565b97509295985092959890939650565b61096b61197e565b600080600061097861199d565b61098061197e565b6109886119cc565b6401000003d0199550600080808b15156109a157610d8c565b6000604051985061020089016040525b8c156109e95760018d16156109d85750601f8c16808989015360206010821102818e03019c505b60028d049c506001880197506109b1565b50604080516060810182528c5181526020808e015190820152600191810191909152808752610a1790610ed0565b9450610a23858c610fef565b6020870152610a3a858760015b6020020151611231565b6040870152610a4b85876002610a30565b6060870152610a5c85876003610a30565b6080870152610a6d85876004610a30565b60a0870152610a7e85876005610a30565b60c0870152610a8f85876006610a30565b60e0870152602086015160400151845288801515610aa957fe5b8451604080890151015109602085015288801515610ac357fe5b602085015160608801516040015109604085015288801515610ae157fe5b60408086015160808901519091015109606085015288801515610b0057fe5b606085015160a08801516040015109608085015288801515610b1e57fe5b608085015160c0880151604001510960a085015288801515610b3c57fe5b60a085015160e0880151604001510960c08501819052610b5c908a611491565b60e0850181905261010085015288801515610b7357fe5b61010085015160a0860151096101e0850152600692505b60028310610c075788801515610b9c57fe5b610100850151876001860160088110610bb157fe5b6020020151604001510961010085015288801515610bcb57fe5b61010085015185600119860160108110610be157fe5b602002015109846008850160108110610bf657fe5b602002015260001990920191610b8a565b88801515610c1157fe5b610100850151604080890151015109610120850152600092505b6007831015610ca357610c98866001850160088110610c4657fe5b6020020151856009860160108110610c5a57fe5b60200201518b801515610c6957fe5b876009880160108110610c7857fe5b6020020151886009890160108110610c8c57fe5b6020020151098c61152f565b600190920191610c2b565b6000871115610d8c5760001987890181015197019660001a9150610cc68a61155f565b6010821115610d2a576002601f839003049050610d258a60408051908101604052808985600881101515610cf657fe5b6020908102919091015151825201898560088110610d1057fe5b6020020151600160200201518d039052611674565b610d87565b6000821115610d875760026000198301049050610d878a60408051908101604052808985600881101515610d5a57fe5b6020908102919091015151825201898560088110610d7457fe5b6020020151600160200201519052611674565b610ca3565b50505050505050505092915050565b600080610daf846002602002015184611491565b915082801515610dbb57fe5b828309905082801515610dca57fe5b8451829009845282801515610ddb57fe5b83801515610de557fe5b8284098560015b60200201510960208501525050600160409092019190915250565b6000610e1161197e565b610e1961197e565b610e2287611898565b1515610e315760009250610ec5565b610e3a866118a9565b1515610e495760009250610ec5565b610e59866401000003d019610d9b565b610e638589610963565b9150610e7886610e73868a610963565b611231565b9050610e8a826401000003d019610d9b565b610e9a816401000003d019610d9b565b81518151148015610eb2575060208083015190820151145b15610ec05760019250610ec5565b600092505b505095945050505050565b610ed861197e565b6401000003d0196000808080808088600260200201511515610ef957610fe3565b885160208a0151909650945086801515610f0f57fe5b858609935086801515610f1e57fe5b87801515610f2857fe5b858809600409925086801515610f3a57fe5b87801515610f4457fe5b878809600309915086801515610f5657fe5b87801515610f6057fe5b848508880388801515610f6f57fe5b84850908808952905086801515610f8257fe5b87801515610f8c57fe5b88801515610f9657fe5b868709600809880388801515610fa857fe5b89801515610fb257fe5b848b038708850908602089015286801515610fc957fe5b87801515610fd357fe5b60408b0151870960020960408901525b50505050505050919050565b610ff761197e565b6000611001611963565b6110096119ec565b6000808080808a60026020020151151561104557604080516060810182528b5181526020808d0151908201526001918101919091529850611223565b60208a01511515611058578a9850611223565b60408b01516401000003d01998508890800987528780151561107657fe5b875160408d015109602080890191909152604080516080810182528d5181528d830151928101929092528101898015156110ac57fe5b89518d51098152602001898015156110c057fe5b6020808b0151908e0151099052604081015181519197501415611111576060860151602087015114611102576000808c5260208c0181905260408c0152611223565b61110b8b610ed0565b50611223565b8780151561111b57fe5b86516040880151908a03900894508780151561113357fe5b60208701516060880151908a03900893508780151561114e57fe5b85860992508780151561115d57fe5b85840991508780151561116c57fe5b8289038980151561117957fe5b8687090890508780151561118957fe5b8880151561119357fe5b8980151561119d57fe5b885186900960020989038208808a529050878015156111b857fe5b888015156111c257fe5b828a038a8015156111cf57fe5b895187900908850960208a0152878015156111e657fe5b888015156111f057fe5b602088015184900989038a600160200201510860208a01528780151561121257fe5b60408c015186098960025b60200201525b505050505050505092915050565b61123961197e565b60006112436119ec565b61124b6119ec565b6000808080808a60026020020151151561126757899850611223565b60408a0151151561127a578a9850611223565b60408b01516401000003d01998508890800987528780151561129857fe5b875160408d0151096020880152878015156112af57fe5b60408b015180096040880152878015156112c557fe5b604080890151908c0151096060880152604080516080810190915280898015156112eb57fe5b60408a01518e510981526020018980151561130257fe5b60608a015160208f01510981526020018980151561131c57fe5b89518d510981526020018980151561133057fe5b6020808b0151908e015109905260408101518151919750141561137157606086015160208701511461136157611223565b61136a8b610ed0565b9850611223565b8780151561137b57fe5b86516040880151908a03900894508780151561139357fe5b60208701516060880151908a0390089350878015156113ae57fe5b8586099250878015156113bd57fe5b8584099150878015156113cc57fe5b828903898015156113d957fe5b868709089050878015156113e957fe5b888015156113f357fe5b898015156113fd57fe5b885186900960020989038208808a5290508780151561141857fe5b8880151561142257fe5b828a038a80151561142f57fe5b895187900908850960208a01528780151561144657fe5b8880151561145057fe5b602088015184900989038a600160200201510860208a01528780151561147257fe5b8880151561147c57fe5b6040808d0151908e015109860989600261121d565b6000808080808087158015906114a75750868814155b80156114b257508615155b15156114bd57600080fd5b868811156114d45786888115156114d057fe5b0697505b600193508692508791505b811561150a5781838115156114f057fe5b9495940485810290940393919283830290039190506114df565b6000851215611520578460000387039550611524565b8495505b505050505092915050565b8080151561153957fe5b845183900984528080151561154a57fe5b8180151561155457fe5b838509856001610dec565b6401000003d01960008080808080876002602002015115156115805761166a565b8751602089015190965094508680151561159657fe5b8586099350868015156115a557fe5b878015156115af57fe5b8588096004099250868015156115c157fe5b878015156115cb57fe5b8788096003099150868015156115dd57fe5b878015156115e757fe5b8485088803888015156115f657fe5b8485090880895290508680151561160957fe5b8780151561161357fe5b8880151561161d57fe5b86870960080988038880151561162f57fe5b8980151561163957fe5b848b03870885090860208901528680151561165057fe5b8780151561165a57fe5b60408a0151870960020960408901525b5050505050505050565b600061167e611963565b6116866119ec565b600080808080896001602002015115156116b85788518a526020808a0151908b015260018a60025b602002015261188c565b602089015115156116c85761188c565b60408a01516401000003d0199850889080098752878015156116e657fe5b875160408c015109602080890191909152604080516080810182528c5181528c8301519281019290925281018980151561171c57fe5b89518c510981526020018980151561173057fe5b6020808b0151908d015109905260408101518151919750141561177e576060860151602087015114611770576000808b5260208b018190528a60026116ae565b6117798a61155f565b61188c565b8780151561178857fe5b86516040880151908a0390089450878015156117a057fe5b60208701516060880151908a0390089350878015156117bb57fe5b8586099250878015156117ca57fe5b8584099150878015156117d957fe5b828903898015156117e657fe5b868709089050878015156117f657fe5b8880151561180057fe5b8980151561180a57fe5b885186900960020989038208808b5290508780151561182557fe5b8880151561182f57fe5b828a038a80151561183c57fe5b895187900908850960208b01528780151561185357fe5b8880151561185d57fe5b602088015184900989038b600160200201510860208b01528780151561187f57fe5b60408b0151860960408b01525b50505050505050505050565b60006118a3826118d1565b92915050565b60006118b3611963565b82518152602080840151908201526118ca816118d1565b9392505050565b60006401000003d01981808481602002015115806118ef5750845183145b806118fc57506020850151155b8061190a5750602085015183145b15611918576000935061195b565b8280151561192257fe5b6020860151800991508280151561193557fe5b60078480151561194157fe5b87518680151561194d57fe5b895180090908905080821493505b505050919050565b60408051808201825290600290829080388339509192915050565b6060604051908101604052806003906020820280388339509192915050565b610300604051908101604052806008905b6119b661197e565b8152602001906001900390816119ae5790505090565b610200604051908101604052806010906020820280388339509192915050565b60806040519081016040528060049060208202803883395091929150505600a165627a7a7230582007b8767937d831384d124787a9940a1db2a60fe583c36e4fb95611736f8ddf1d0029",
  "source": "pragma solidity ^0.4.7;\r\n\r\n/**\r\n * @title ECCMath_noconflict\r\n *\r\n * Functions for working with integers, curve-points, etc.\r\n *\r\n * @author Andreas Olofsson (androlo1980@gmail.com)\r\n */\r\nlibrary ECCMath_noconflict {\r\n    /// @dev Modular inverse of a (mod p) using euclid.\r\n    /// \"a\" and \"p\" must be co-prime.\r\n    /// @param a The number.\r\n    /// @param p The mmodulus.\r\n    /// @return x such that ax = 1 (mod p)\r\n    function invmod(uint a, uint p) internal constant returns (uint) {\r\n        require (a != 0 && a != p && p != 0);\r\n        if (a > p)\r\n            a = a % p;\r\n        int t1;\r\n        int t2 = 1;\r\n        uint r1 = p;\r\n        uint r2 = a;\r\n        uint q;\r\n        while (r2 != 0) {\r\n            q = r1 / r2;\r\n            (t1, t2, r1, r2) = (t2, t1 - int(q) * t2, r2, r1 - q * r2);\r\n        }\r\n        if (t1 < 0)\r\n            return (p - uint(-t1));\r\n        return uint(t1);\r\n    }\r\n\r\n    /// @dev Modular exponentiation, b^e % m\r\n    /// Basically the same as can be found here:\r\n    /// https://github.com/ethereum/serpent/blob/develop/examples/ecc/modexp.se\r\n    /// @param b The base.\r\n    /// @param e The exponent.\r\n    /// @param m The modulus.\r\n    /// @return x such that x = b**e (mod m)\r\n    function expmod(uint b, uint e, uint m) internal constant returns (uint r) {\r\n        if (b == 0)\r\n            return 0;\r\n        if (e == 0)\r\n            return 1;\r\n        require (m != 0);\r\n        r = 1;\r\n        uint bit = 2 ** 255;\r\n        assembly {\r\n            loop:\r\n            jumpi(end, iszero(bit))\r\n            r := mulmod(mulmod(r, r, m), exp(b, iszero(iszero(and(e, bit)))), m)\r\n            r := mulmod(mulmod(r, r, m), exp(b, iszero(iszero(and(e, div(bit, 2))))), m)\r\n            r := mulmod(mulmod(r, r, m), exp(b, iszero(iszero(and(e, div(bit, 4))))), m)\r\n            r := mulmod(mulmod(r, r, m), exp(b, iszero(iszero(and(e, div(bit, 8))))), m)\r\n            bit := div(bit, 16)\r\n            jump(loop)\r\n            end:\r\n        }\r\n    }\r\n\r\n    /// @dev Converts a point (Px, Py, Pz) expressed in Jacobian coordinates to (Px\", Py\", 1).\r\n    /// Mutates P.\r\n    /// @param P The point.\r\n    /// @param zInv The modular inverse of \"Pz\".\r\n    /// @param z2Inv The square of zInv\r\n    /// @param prime The prime modulus.\r\n    /// @return (Px\", Py\", 1)\r\n    function toZ1(uint[3] memory P, uint zInv, uint z2Inv, uint prime) internal constant {\r\n        P[0] = mulmod(P[0], z2Inv, prime);\r\n        P[1] = mulmod(P[1], mulmod(zInv, z2Inv, prime), prime);\r\n        P[2] = 1;\r\n    }\r\n\r\n    /// @dev See _toZ1(uint[3], uint, uint).\r\n    /// Warning: Computes a modular inverse.\r\n    /// @param PJ The point.\r\n    /// @param prime The prime modulus.\r\n    /// @return (Px\", Py\", 1)\r\n    function toZ1(uint[3] PJ, uint prime) internal constant {\r\n        uint zInv = invmod(PJ[2], prime);\r\n        uint zInv2 = mulmod(zInv, zInv, prime);\r\n        PJ[0] = mulmod(PJ[0], zInv2, prime);\r\n        PJ[1] = mulmod(PJ[1], mulmod(zInv, zInv2, prime), prime);\r\n        PJ[2] = 1;\r\n    }\r\n\r\n}\r\n\r\nlibrary Secp256k1_noconflict {\r\n\r\n    // TODO separate curve from crypto primitives?\r\n\r\n    // Field size\r\n    uint constant pp = 0xFFFFFFFFFFFFFFFFFFFFFFFFFFFFFFFFFFFFFFFFFFFFFFFFFFFFFFFEFFFFFC2F;\r\n\r\n    // Base point (generator) G\r\n    uint constant Gx = 0x79BE667EF9DCBBAC55A06295CE870B07029BFCDB2DCE28D959F2815B16F81798;\r\n    uint constant Gy = 0x483ADA7726A3C4655DA4FBFC0E1108A8FD17B448A68554199C47D08FFB10D4B8;\r\n\r\n    // Order of G\r\n    uint constant nn = 0xFFFFFFFFFFFFFFFFFFFFFFFFFFFFFFFEBAAEDCE6AF48A03BBFD25E8CD0364141;\r\n\r\n    // Cofactor\r\n    // uint constant hh = 1;\r\n\r\n    // Maximum value of s\r\n    uint constant lowSmax = 0x7FFFFFFFFFFFFFFFFFFFFFFFFFFFFFFF5D576E7357A4501DDFE92F46681B20A0;\r\n\r\n    // For later\r\n    // uint constant lambda = \"0x5363ad4cc05c30e0a5261c028812645a122e22ea20816678df02967c1b23bd72\";\r\n    // uint constant beta = \"0x7ae96a2b657c07106e64479eac3434e99cf0497512f58995c1396c28719501ee\";\r\n\r\n    /// @dev See Curve.onCurve\r\n    function onCurve(uint[2] P) internal constant returns (bool) {\r\n        uint p = pp;\r\n        if (0 == P[0] || P[0] == p || 0 == P[1] || P[1] == p)\r\n            return false;\r\n        uint LHS = mulmod(P[1], P[1], p);\r\n        uint RHS = addmod(mulmod(mulmod(P[0], P[0], p), P[0], p), 7, p);\r\n        return LHS == RHS;\r\n    }\r\n\r\n    /// @dev See Curve.isPubKey\r\n    function isPubKey(uint[2] memory P) internal constant returns (bool isPK) {\r\n        isPK = onCurve(P);\r\n    }\r\n\r\n    /// @dev See Curve.isPubKey\r\n    // TODO: We assume we are given affine co-ordinates for now\r\n    function isPubKey(uint[3] memory P) internal constant returns (bool isPK) {\r\n        uint[2] memory a_P;\r\n        a_P[0] = P[0];\r\n        a_P[1] = P[1];\r\n        isPK = onCurve(a_P);\r\n    }\r\n\r\n    /// @dev See Curve.validateSignature\r\n    function validateSignature(bytes32 message, uint[2] rs, uint[2] Q) internal constant returns (bool) {\r\n        uint n = nn;\r\n        uint p = pp;\r\n        if(rs[0] == 0 || rs[0] >= n || rs[1] == 0 || rs[1] > lowSmax)\r\n            return false;\r\n        if (!isPubKey(Q))\r\n            return false;\r\n\r\n        uint sInv = ECCMath_noconflict.invmod(rs[1], n);\r\n        uint[3] memory u1G = _mul(mulmod(uint(message), sInv, n), [Gx, Gy]);\r\n        uint[3] memory u2Q = _mul(mulmod(rs[0], sInv, n), Q);\r\n        uint[3] memory P = _add(u1G, u2Q);\r\n\r\n        if (P[2] == 0)\r\n            return false;\r\n\r\n        uint Px = ECCMath_noconflict.invmod(P[2], p); // need Px/Pz^2\r\n        Px = mulmod(P[0], mulmod(Px, Px, p), p);\r\n        return Px % n == rs[0];\r\n    }\r\n\r\n    /// @dev See Curve.compress\r\n    function compress(uint[2] P) internal constant returns (uint8 yBit, uint x) {\r\n        x = P[0];\r\n        yBit = P[1] & 1 == 1 ? 1 : 0;\r\n    }\r\n\r\n    /// @dev See Curve.decompress\r\n    function decompress(uint8 yBit, uint x) internal constant returns (uint[2] P) {\r\n        uint p = pp;\r\n        uint y2 = addmod(mulmod(x, mulmod(x, x, p), p), 7, p);\r\n        uint y_ = ECCMath_noconflict.expmod(y2, (p + 1) / 4, p);\r\n        uint cmp = yBit ^ y_ & 1;\r\n        P[0] = x;\r\n        P[1] = (cmp == 0) ? y_ : p - y_;\r\n    }\r\n\r\n    // Point addition, P + Q\r\n    // inData: Px, Py, Pz, Qx, Qy, Qz\r\n    // outData: Rx, Ry, Rz\r\n    function _add(uint[3] memory P, uint[3] memory Q) internal constant returns (uint[3] memory R) {\r\n        if(P[2] == 0)\r\n            return Q;\r\n        if(Q[2] == 0)\r\n            return P;\r\n        uint p = pp;\r\n        uint[4] memory zs; // Pz^2, Pz^3, Qz^2, Qz^3\r\n        zs[0] = mulmod(P[2], P[2], p);\r\n        zs[1] = mulmod(P[2], zs[0], p);\r\n        zs[2] = mulmod(Q[2], Q[2], p);\r\n        zs[3] = mulmod(Q[2], zs[2], p);\r\n        uint[4] memory us = [\r\n            mulmod(P[0], zs[2], p),\r\n            mulmod(P[1], zs[3], p),\r\n            mulmod(Q[0], zs[0], p),\r\n            mulmod(Q[1], zs[1], p)\r\n        ]; // Pu, Ps, Qu, Qs\r\n        if (us[0] == us[2]) {\r\n            if (us[1] != us[3])\r\n                return;\r\n            else {\r\n                return _double(P);\r\n            }\r\n        }\r\n        uint h = addmod(us[2], p - us[0], p);\r\n        uint r = addmod(us[3], p - us[1], p);\r\n        uint h2 = mulmod(h, h, p);\r\n        uint h3 = mulmod(h2, h, p);\r\n        uint Rx = addmod(mulmod(r, r, p), p - h3, p);\r\n        Rx = addmod(Rx, p - mulmod(2, mulmod(us[0], h2, p), p), p);\r\n        R[0] = Rx;\r\n        R[1] = mulmod(r, addmod(mulmod(us[0], h2, p), p - Rx, p), p);\r\n        R[1] = addmod(R[1], p - mulmod(us[1], h3, p), p);\r\n        R[2] = mulmod(h, mulmod(P[2], Q[2], p), p);\r\n    }\r\n\r\n    // Point addition, P + Q. P Jacobian, Q affine.\r\n    // inData: Px, Py, Pz, Qx, Qy\r\n    // outData: Rx, Ry, Rz\r\n    function _addMixed(uint[3] memory P, uint[2] memory Q) internal constant returns (uint[3] memory R) {\r\n        if(P[2] == 0)\r\n            return [Q[0], Q[1], 1];\r\n        if(Q[1] == 0)\r\n            return P;\r\n        uint p = pp;\r\n        uint[2] memory zs; // Pz^2, Pz^3, Qz^2, Qz^3\r\n        zs[0] = mulmod(P[2], P[2], p);\r\n        zs[1] = mulmod(P[2], zs[0], p);\r\n        uint[4] memory us = [\r\n            P[0],\r\n            P[1],\r\n            mulmod(Q[0], zs[0], p),\r\n            mulmod(Q[1], zs[1], p)\r\n        ]; // Pu, Ps, Qu, Qs\r\n        if (us[0] == us[2]) {\r\n            if (us[1] != us[3]) {\r\n                P[0] = 0;\r\n                P[1] = 0;\r\n                P[2] = 0;\r\n                return;\r\n            }\r\n            else {\r\n                _double(P);\r\n                return;\r\n            }\r\n        }\r\n        uint h = addmod(us[2], p - us[0], p);\r\n        uint r = addmod(us[3], p - us[1], p);\r\n        uint h2 = mulmod(h, h, p);\r\n        uint h3 = mulmod(h2, h, p);\r\n        uint Rx = addmod(mulmod(r, r, p), p - h3, p);\r\n        Rx = addmod(Rx, p - mulmod(2, mulmod(us[0], h2, p), p), p);\r\n        R[0] = Rx;\r\n        R[1] = mulmod(r, addmod(mulmod(us[0], h2, p), p - Rx, p), p);\r\n        R[1] = addmod(R[1], p - mulmod(us[1], h3, p), p);\r\n        R[2] = mulmod(h, P[2], p);\r\n    }\r\n\r\n    // Same as addMixed but params are different and mutates P.\r\n    function _addMixedM(uint[3] memory P, uint[2] memory Q) internal constant {\r\n        if(P[1] == 0) {\r\n            P[0] = Q[0];\r\n            P[1] = Q[1];\r\n            P[2] = 1;\r\n            return;\r\n        }\r\n        if(Q[1] == 0)\r\n            return;\r\n        uint p = pp;\r\n        uint[2] memory zs; // Pz^2, Pz^3, Qz^2, Qz^3\r\n        zs[0] = mulmod(P[2], P[2], p);\r\n        zs[1] = mulmod(P[2], zs[0], p);\r\n        uint[4] memory us = [\r\n            P[0],\r\n            P[1],\r\n            mulmod(Q[0], zs[0], p),\r\n            mulmod(Q[1], zs[1], p)\r\n        ]; // Pu, Ps, Qu, Qs\r\n        if (us[0] == us[2]) {\r\n            if (us[1] != us[3]) {\r\n                P[0] = 0;\r\n                P[1] = 0;\r\n                P[2] = 0;\r\n                return;\r\n            }\r\n            else {\r\n                _doubleM(P);\r\n                return;\r\n            }\r\n        }\r\n        uint h = addmod(us[2], p - us[0], p);\r\n        uint r = addmod(us[3], p - us[1], p);\r\n        uint h2 = mulmod(h, h, p);\r\n        uint h3 = mulmod(h2, h, p);\r\n        uint Rx = addmod(mulmod(r, r, p), p - h3, p);\r\n        Rx = addmod(Rx, p - mulmod(2, mulmod(us[0], h2, p), p), p);\r\n        P[0] = Rx;\r\n        P[1] = mulmod(r, addmod(mulmod(us[0], h2, p), p - Rx, p), p);\r\n        P[1] = addmod(P[1], p - mulmod(us[1], h3, p), p);\r\n        P[2] = mulmod(h, P[2], p);\r\n    }\r\n\r\n    // Point doubling, 2*P\r\n    // Params: Px, Py, Pz\r\n    // Not concerned about the 1 extra mulmod.\r\n    function _double(uint[3] memory P) internal constant returns (uint[3] memory Q) {\r\n        uint p = pp;\r\n        if (P[2] == 0)\r\n            return;\r\n        uint Px = P[0];\r\n        uint Py = P[1];\r\n        uint Py2 = mulmod(Py, Py, p);\r\n        uint s = mulmod(4, mulmod(Px, Py2, p), p);\r\n        uint m = mulmod(3, mulmod(Px, Px, p), p);\r\n        uint Qx = addmod(mulmod(m, m, p), p - addmod(s, s, p), p);\r\n        Q[0] = Qx;\r\n        Q[1] = addmod(mulmod(m, addmod(s, p - Qx, p), p), p - mulmod(8, mulmod(Py2, Py2, p), p), p);\r\n        Q[2] = mulmod(2, mulmod(Py, P[2], p), p);\r\n    }\r\n\r\n    // Same as double but mutates P and is internal only.\r\n    function _doubleM(uint[3] memory P) internal constant {\r\n        uint p = pp;\r\n        if (P[2] == 0)\r\n            return;\r\n        uint Px = P[0];\r\n        uint Py = P[1];\r\n        uint Py2 = mulmod(Py, Py, p);\r\n        uint s = mulmod(4, mulmod(Px, Py2, p), p);\r\n        uint m = mulmod(3, mulmod(Px, Px, p), p);\r\n        uint PxTemp = addmod(mulmod(m, m, p), p - addmod(s, s, p), p);\r\n        P[0] = PxTemp;\r\n        P[1] = addmod(mulmod(m, addmod(s, p - PxTemp, p), p), p - mulmod(8, mulmod(Py2, Py2, p), p), p);\r\n        P[2] = mulmod(2, mulmod(Py, P[2], p), p);\r\n    }\r\n\r\n    // Multiplication dP. P affine, wNAF: w=5\r\n    // Params: d, Px, Py\r\n    // Output: Jacobian Q\r\n    function _mul(uint d, uint[2] memory P) internal constant returns (uint[3] memory Q) {\r\n        uint p = pp;\r\n        if (d == 0) // TODO\r\n            return;\r\n        uint dwPtr; // points to array of NAF coefficients.\r\n        uint i;\r\n\r\n        // wNAF\r\n        assembly\r\n        {\r\n            let dm := 0\r\n            dwPtr := mload(0x40)\r\n            mstore(0x40, add(dwPtr, 512)) // Should lower this.\r\n            loop:\r\n            jumpi(loop_end, iszero(d))\r\n            jumpi(even, iszero(and(d, 1)))\r\n            dm := mod(d, 32)\r\n            mstore8(add(dwPtr, i), dm) // Don\"t store as signed - convert when reading.\r\n            d := add(sub(d, dm), mul(gt(dm, 16), 32))\r\n            even:\r\n            d := div(d, 2)\r\n            i := add(i, 1)\r\n            jump(loop)\r\n            loop_end:\r\n        }\r\n\r\n        // Pre calculation\r\n        uint[3][8] memory PREC; // P, 3P, 5P, 7P, 9P, 11P, 13P, 15P\r\n        PREC[0] = [P[0], P[1], 1];\r\n        uint[3] memory X = _double(PREC[0]);\r\n        PREC[1] = _addMixed(X, P);\r\n        PREC[2] = _add(X, PREC[1]);\r\n        PREC[3] = _add(X, PREC[2]);\r\n        PREC[4] = _add(X, PREC[3]);\r\n        PREC[5] = _add(X, PREC[4]);\r\n        PREC[6] = _add(X, PREC[5]);\r\n        PREC[7] = _add(X, PREC[6]);\r\n\r\n        uint[16] memory INV;\r\n        INV[0] = PREC[1][2];                            // a1\r\n        INV[1] = mulmod(PREC[2][2], INV[0], p);         // a2\r\n        INV[2] = mulmod(PREC[3][2], INV[1], p);         // a3\r\n        INV[3] = mulmod(PREC[4][2], INV[2], p);         // a4\r\n        INV[4] = mulmod(PREC[5][2], INV[3], p);         // a5\r\n        INV[5] = mulmod(PREC[6][2], INV[4], p);         // a6\r\n        INV[6] = mulmod(PREC[7][2], INV[5], p);         // a7\r\n\r\n        INV[7] = ECCMath_noconflict.invmod(INV[6], p);             // a7inv\r\n        INV[8] = INV[7];                                // aNinv (a7inv)\r\n\r\n        INV[15] = mulmod(INV[5], INV[8], p);            // z7inv\r\n        for(uint k = 6; k >= 2; k--) {                  // z6inv to z2inv\r\n            INV[8] = mulmod(PREC[k + 1][2], INV[8], p);\r\n            INV[8 + k] = mulmod(INV[k - 2], INV[8], p);\r\n        }\r\n        INV[9] = mulmod(PREC[2][2], INV[8], p);         // z1Inv\r\n        for(k = 0; k < 7; k++) {\r\n            ECCMath_noconflict.toZ1(PREC[k + 1], INV[k + 9], mulmod(INV[k + 9], INV[k + 9], p), p);\r\n        }\r\n\r\n        // Mult loop\r\n        while(i > 0) {\r\n            uint dj;\r\n            uint pIdx;\r\n            i--;\r\n            assembly {\r\n                dj := byte(0, mload(add(dwPtr, i)))\r\n            }\r\n            _doubleM(Q);\r\n            if (dj > 16) {\r\n                pIdx = (31 - dj) / 2; // These are the \"negative ones\", so invert y.\r\n                _addMixedM(Q, [PREC[pIdx][0], p - PREC[pIdx][1]]);\r\n            }\r\n            else if (dj > 0) {\r\n                pIdx = (dj - 1) / 2;\r\n                _addMixedM(Q, [PREC[pIdx][0], PREC[pIdx][1]]);\r\n            }\r\n        }\r\n    }\r\n\r\n}\r\n\r\n\r\ncontract AndPoK {\r\n    //Eason:  PK{(x):A = xG and B = xH}\r\n    /*Eason:  https://en.wikipedia.org/wiki/Jacobian_curve\r\n    use Jacobi  curve representation to speed up and be against side channel attack*/ \r\n    \r\n    // Modulus for public keys\r\n    // Eason: elliptic curve in Zp\r\n    uint constant p = 0xFFFFFFFFFFFFFFFFFFFFFFFFFFFFFFFFFFFFFFFFFFFFFFFFFFFFFFFEFFFFFC2F;\r\n\r\n    // Base point (generator) G\r\n    uint constant Gx = 0x79BE667EF9DCBBAC55A06295CE870B07029BFCDB2DCE28D959F2815B16F81798;\r\n    uint constant Gy = 0x483ADA7726A3C4655DA4FBFC0E1108A8FD17B448A68554199C47D08FFB10D4B8;\r\n\r\n    /**/// Base point (generator) G\r\n    uint constant Hx = 0xEC70EDA5ABD3416F239EF65D4B288717C4CF7BA469776869F2AAE2E00DF74DCA;\r\n    uint constant Hy = 0xEF7824FF7E7F248BF1C94F61C04A69C4D9DB232C86D85478B97E87753114DE2D;\r\n\r\n    /*Eason: oredr of elliptic curve\r\n    coefficient in Zq*/ \r\n    uint constant q = 0xFFFFFFFFFFFFFFFFFFFFFFFFFFFFFFFEBAAEDCE6AF48A03BBFD25E8CD0364141;\r\n    \r\n    uint[2] G;\r\n    uint[2] H;\r\n\r\n    function AndPoK() public{\r\n       G[0] = Gx;\r\n       G[1] = Gy;\r\n       H[0] = Hx;\r\n       H[1] = Hy;\r\n    }\r\n\r\n    /*\r\n    function testmul() public view{\r\n    Secp256k1_noconflict._mul(Hy, G);\r\n    }*/\r\n    //Eason:\r\n    function prove(uint secret, uint message) public view returns(uint[2] A,uint[2] B,uint M, uint[3] T1, uint[3] T2, uint c, uint s){\r\n        uint[3] memory secretG = Secp256k1_noconflict._mul(secret, G);\r\n        //Eason:  _mul: affine -> Jacobi\r\n        ECCMath_noconflict.toZ1(secretG,p);//Eason: transform Jacobi->affine\r\n        (A[0],A[1]) = (secretG[0],secretG[1]);\r\n        uint[3] memory secretH = Secp256k1_noconflict._mul(secret, H);\r\n        ECCMath_noconflict.toZ1(secretH,p);\r\n        (B[0],B[1]) = (secretH[0],secretH[1]);\r\n\r\n        uint t = uint(keccak256(A, B, message)) % q;//Prover chooses a random #\r\n        M = message;\r\n        T1 = Secp256k1_noconflict._mul(t, G);\r\n        ECCMath_noconflict.toZ1(T1,p);\r\n        T2 = Secp256k1_noconflict._mul(t, H);\r\n        ECCMath_noconflict.toZ1(T2,p);\r\n        c = uint(keccak256(A, B, message,T1,T2)) % q;//Verifier chooses a random #\r\n        s = addmod(mulmod(secret,c,q),t,q);\r\n    }\r\n\r\n    function verify(uint[2] generator,uint[2] A, uint[3] T, uint s, uint c) internal constant returns (bool) {\r\n    if (!Secp256k1_noconflict.isPubKey(A)) return false;\r\n    if (!Secp256k1_noconflict.isPubKey(T)) return false;\r\n    ECCMath_noconflict.toZ1(T, p);\r\n    uint[3] memory LHS = Secp256k1_noconflict._mul(s, generator);\r\n    uint[3] memory RHS = Secp256k1_noconflict._add(T,Secp256k1_noconflict._mul(c, A));\r\n    //_add: Jacobi -> Jacobi\r\n\r\n    // Convert to Affine Co-ordinates\r\n    ECCMath_noconflict.toZ1(LHS, p);\r\n    ECCMath_noconflict.toZ1(RHS, p);\r\n    \r\n    // Verify. Do they match?\r\n    if(RHS[0] == LHS[0] &&\r\n       RHS[1] == LHS[1]) {\r\n        return true;\r\n    } else {\r\n            return false;\r\n        }\r\n    }\r\n\r\n    /*function test1(uint[2] X) public pure returns(uint) {\r\n    return X[0];\r\n    }*/\r\n    \r\n    function verifyProofs(uint[2] memory A, uint[2] memory B, uint message, uint[3] T1, uint[3] T2, uint s) public view returns (bool) { \r\n\r\n    uint c = uint(keccak256(A, B, message,T1,T2)) % q;\r\n\r\n    if (verify(G, A, T1, s, c)!=true) return false;\r\n    if (verify(H, B, T2, s, c)!=true) return false;\r\n    return true;\r\n    }\r\n    \r\n    function test(uint secret, uint message) public view returns(bool result, uint[2] A, uint[2] B ,uint M, uint[3] T1, uint[3] T2, uint c, uint s){\r\n        (A,B,M,T1,T2,c,s)=prove(secret,message);\r\n        result=verifyProofs(A,B,M,T1,T2,s);\r\n    }\r\n\r\n    function explainTransform(uint coe) public view returns(uint[3] mul, uint[3] afterTransform){\r\n        mul = Secp256k1_noconflict._mul(coe,G);\r\n        afterTransform = Secp256k1_noconflict._mul(coe,G);\r\n        ECCMath_noconflict.toZ1(afterTransform,p);\r\n    }\r\n}\r\n",
  "sourcePath": "C:\\Users\\eason\\Documents\\GitHub\\SmartWerewolf\\contracts\\AndPoK.sol",
  "compiler": {
    "name": "solc",
    "version": "0.4.23+commit.124ca40d.Emscripten.clang"
  },
  "schemaVersion": "2.0.0",
  "updatedAt": "2018-05-21T10:35:14.091Z"
}