{
  "contractName": "OrPoK",
  "abi": [
    {
      "constant": true,
      "inputs": [
        {
          "name": "",
          "type": "uint256"
        },
        {
          "name": "",
          "type": "uint256"
        }
      ],
      "name": "problems",
      "outputs": [
        {
          "name": "",
          "type": "uint256"
        }
      ],
      "payable": false,
      "stateMutability": "view",
      "type": "function"
    },
    {
      "constant": true,
      "inputs": [
        {
          "name": "",
          "type": "uint256"
        }
      ],
      "name": "G",
      "outputs": [
        {
          "name": "",
          "type": "uint256"
        }
      ],
      "payable": false,
      "stateMutability": "view",
      "type": "function"
    },
    {
      "constant": true,
      "inputs": [
        {
          "name": "",
          "type": "uint256"
        }
      ],
      "name": "proofs",
      "outputs": [
        {
          "name": "message",
          "type": "uint256"
        },
        {
          "name": "c",
          "type": "uint256"
        },
        {
          "name": "s",
          "type": "uint256"
        }
      ],
      "payable": false,
      "stateMutability": "view",
      "type": "function"
    },
    {
      "constant": true,
      "inputs": [
        {
          "name": "",
          "type": "uint256"
        }
      ],
      "name": "H",
      "outputs": [
        {
          "name": "",
          "type": "uint256"
        }
      ],
      "payable": false,
      "stateMutability": "view",
      "type": "function"
    },
    {
      "constant": true,
      "inputs": [],
      "name": "q",
      "outputs": [
        {
          "name": "",
          "type": "uint256"
        }
      ],
      "payable": false,
      "stateMutability": "view",
      "type": "function"
    },
    {
      "inputs": [],
      "payable": false,
      "stateMutability": "nonpayable",
      "type": "constructor"
    },
    {
      "anonymous": false,
      "inputs": [
        {
          "indexed": false,
          "name": "pf",
          "type": "uint256"
        }
      ],
      "name": "Fail",
      "type": "event"
    },
    {
      "anonymous": false,
      "inputs": [
        {
          "indexed": false,
          "name": "pf",
          "type": "uint256"
        }
      ],
      "name": "Process",
      "type": "event"
    },
    {
      "anonymous": false,
      "inputs": [
        {
          "indexed": false,
          "name": "a",
          "type": "uint256"
        },
        {
          "indexed": false,
          "name": "b",
          "type": "uint256"
        }
      ],
      "name": "Check",
      "type": "event"
    },
    {
      "constant": false,
      "inputs": [
        {
          "name": "real",
          "type": "uint256"
        },
        {
          "name": "pokerKeys",
          "type": "uint256[]"
        }
      ],
      "name": "easySetProblems",
      "outputs": [],
      "payable": false,
      "stateMutability": "nonpayable",
      "type": "function"
    },
    {
      "constant": true,
      "inputs": [
        {
          "name": "i",
          "type": "uint256"
        }
      ],
      "name": "getProblems",
      "outputs": [
        {
          "name": "point",
          "type": "uint256[2]"
        }
      ],
      "payable": false,
      "stateMutability": "view",
      "type": "function"
    },
    {
      "constant": true,
      "inputs": [],
      "name": "getProblemsLength",
      "outputs": [
        {
          "name": "",
          "type": "uint256"
        }
      ],
      "payable": false,
      "stateMutability": "view",
      "type": "function"
    },
    {
      "constant": true,
      "inputs": [
        {
          "name": "pokerKey",
          "type": "uint256"
        },
        {
          "name": "werewolf",
          "type": "uint256[2]"
        },
        {
          "name": "liveHand",
          "type": "uint256[2]"
        },
        {
          "name": "victim",
          "type": "uint256"
        },
        {
          "name": "tReady",
          "type": "uint256"
        },
        {
          "name": "cReady",
          "type": "uint256"
        }
      ],
      "name": "createSchnorr",
      "outputs": [
        {
          "name": "g",
          "type": "uint256[2]"
        },
        {
          "name": "A",
          "type": "uint256[2]"
        },
        {
          "name": "message",
          "type": "uint256"
        },
        {
          "name": "T",
          "type": "uint256[3]"
        },
        {
          "name": "c",
          "type": "uint256"
        },
        {
          "name": "s",
          "type": "uint256"
        }
      ],
      "payable": false,
      "stateMutability": "view",
      "type": "function"
    },
    {
      "constant": true,
      "inputs": [
        {
          "name": "real",
          "type": "uint256"
        },
        {
          "name": "pokerKey",
          "type": "uint256"
        },
        {
          "name": "victim",
          "type": "uint256"
        },
        {
          "name": "tReady",
          "type": "uint256"
        },
        {
          "name": "cReady",
          "type": "uint256"
        }
      ],
      "name": "easyCreateSchnorr",
      "outputs": [
        {
          "name": "g",
          "type": "uint256[2]"
        },
        {
          "name": "A",
          "type": "uint256[2]"
        },
        {
          "name": "message",
          "type": "uint256"
        },
        {
          "name": "T",
          "type": "uint256[3]"
        },
        {
          "name": "c",
          "type": "uint256"
        },
        {
          "name": "s",
          "type": "uint256"
        }
      ],
      "payable": false,
      "stateMutability": "view",
      "type": "function"
    },
    {
      "constant": true,
      "inputs": [
        {
          "name": "werewolf",
          "type": "uint256[2]"
        },
        {
          "name": "liveHand",
          "type": "uint256[2]"
        },
        {
          "name": "victim",
          "type": "uint256"
        }
      ],
      "name": "forgeProof",
      "outputs": [
        {
          "name": "_H",
          "type": "uint256[2]"
        },
        {
          "name": "B",
          "type": "uint256[2]"
        },
        {
          "name": "message",
          "type": "uint256"
        },
        {
          "name": "T2",
          "type": "uint256[3]"
        },
        {
          "name": "c2",
          "type": "uint256"
        },
        {
          "name": "s2",
          "type": "uint256"
        }
      ],
      "payable": false,
      "stateMutability": "view",
      "type": "function"
    },
    {
      "constant": true,
      "inputs": [
        {
          "name": "i",
          "type": "uint256"
        },
        {
          "name": "victim",
          "type": "uint256"
        }
      ],
      "name": "easyForgeProof",
      "outputs": [
        {
          "name": "h",
          "type": "uint256[2]"
        },
        {
          "name": "B",
          "type": "uint256[2]"
        },
        {
          "name": "message",
          "type": "uint256"
        },
        {
          "name": "T2",
          "type": "uint256[3]"
        },
        {
          "name": "c2",
          "type": "uint256"
        },
        {
          "name": "s2",
          "type": "uint256"
        }
      ],
      "payable": false,
      "stateMutability": "view",
      "type": "function"
    },
    {
      "constant": true,
      "inputs": [
        {
          "name": "_G",
          "type": "uint256[2]"
        },
        {
          "name": "_problems",
          "type": "uint256[2][]"
        },
        {
          "name": "pokerKey",
          "type": "uint256"
        },
        {
          "name": "victim",
          "type": "uint256"
        }
      ],
      "name": "computeRealt",
      "outputs": [
        {
          "name": "realt",
          "type": "uint256"
        }
      ],
      "payable": false,
      "stateMutability": "view",
      "type": "function"
    },
    {
      "constant": true,
      "inputs": [
        {
          "name": "pokerKey",
          "type": "uint256"
        },
        {
          "name": "victim",
          "type": "uint256"
        },
        {
          "name": "real",
          "type": "uint256"
        }
      ],
      "name": "easyComputeRealt",
      "outputs": [
        {
          "name": "realt",
          "type": "uint256"
        }
      ],
      "payable": false,
      "stateMutability": "view",
      "type": "function"
    },
    {
      "constant": true,
      "inputs": [
        {
          "name": "realt",
          "type": "uint256"
        },
        {
          "name": "_G",
          "type": "uint256[2]"
        }
      ],
      "name": "computeTFrom",
      "outputs": [
        {
          "name": "realT",
          "type": "uint256[3]"
        }
      ],
      "payable": false,
      "stateMutability": "view",
      "type": "function"
    },
    {
      "constant": true,
      "inputs": [
        {
          "name": "realt",
          "type": "uint256"
        }
      ],
      "name": "easyComputeTFrom",
      "outputs": [
        {
          "name": "realT",
          "type": "uint256[3]"
        }
      ],
      "payable": false,
      "stateMutability": "view",
      "type": "function"
    },
    {
      "constant": true,
      "inputs": [
        {
          "name": "_G",
          "type": "uint256[2]"
        },
        {
          "name": "_problems",
          "type": "uint256[2][]"
        },
        {
          "name": "victim",
          "type": "uint256"
        },
        {
          "name": "Ts",
          "type": "uint256[3][]"
        }
      ],
      "name": "computeChallenge",
      "outputs": [
        {
          "name": "realChallenge",
          "type": "uint256"
        }
      ],
      "payable": false,
      "stateMutability": "view",
      "type": "function"
    },
    {
      "constant": true,
      "inputs": [
        {
          "name": "victim",
          "type": "uint256"
        },
        {
          "name": "Ts",
          "type": "uint256[3][]"
        }
      ],
      "name": "easyComputeChallenge",
      "outputs": [
        {
          "name": "realChallenge",
          "type": "uint256"
        }
      ],
      "payable": false,
      "stateMutability": "view",
      "type": "function"
    },
    {
      "constant": false,
      "inputs": [
        {
          "name": "pokerKey",
          "type": "uint256"
        },
        {
          "name": "werewolf",
          "type": "uint256[2]"
        },
        {
          "name": "liveHands",
          "type": "uint256[2][]"
        },
        {
          "name": "victim",
          "type": "uint256"
        },
        {
          "name": "real",
          "type": "uint256"
        }
      ],
      "name": "publishProofs",
      "outputs": [],
      "payable": false,
      "stateMutability": "nonpayable",
      "type": "function"
    },
    {
      "constant": false,
      "inputs": [
        {
          "name": "pokerKey",
          "type": "uint256"
        },
        {
          "name": "victim",
          "type": "uint256"
        },
        {
          "name": "real",
          "type": "uint256"
        }
      ],
      "name": "easyPublishProofs",
      "outputs": [],
      "payable": false,
      "stateMutability": "nonpayable",
      "type": "function"
    },
    {
      "constant": true,
      "inputs": [
        {
          "name": "pokerKey",
          "type": "uint256"
        },
        {
          "name": "victim",
          "type": "uint256"
        },
        {
          "name": "real",
          "type": "uint256"
        }
      ],
      "name": "createProofs",
      "outputs": [
        {
          "components": [
            {
              "name": "g",
              "type": "uint256[2]"
            },
            {
              "name": "A",
              "type": "uint256[2]"
            },
            {
              "name": "message",
              "type": "uint256"
            },
            {
              "name": "T",
              "type": "uint256[3]"
            },
            {
              "name": "c",
              "type": "uint256"
            },
            {
              "name": "s",
              "type": "uint256"
            }
          ],
          "name": "pfs",
          "type": "tuple[]"
        }
      ],
      "payable": false,
      "stateMutability": "view",
      "type": "function"
    },
    {
      "constant": true,
      "inputs": [
        {
          "name": "g",
          "type": "uint256[2]"
        },
        {
          "name": "A",
          "type": "uint256[2]"
        },
        {
          "name": "T",
          "type": "uint256[3]"
        },
        {
          "name": "c",
          "type": "uint256"
        },
        {
          "name": "s",
          "type": "uint256"
        }
      ],
      "name": "verifySchnorr",
      "outputs": [
        {
          "name": "result",
          "type": "bool"
        }
      ],
      "payable": false,
      "stateMutability": "view",
      "type": "function"
    },
    {
      "constant": false,
      "inputs": [],
      "name": "easyVerifyProofs",
      "outputs": [
        {
          "name": "result",
          "type": "bool"
        }
      ],
      "payable": false,
      "stateMutability": "nonpayable",
      "type": "function"
    },
    {
      "constant": true,
      "inputs": [
        {
          "name": "pokerKey",
          "type": "uint256"
        },
        {
          "name": "werewolf",
          "type": "uint256[2]"
        },
        {
          "name": "liveHand",
          "type": "uint256[2]"
        },
        {
          "name": "victim",
          "type": "uint256"
        }
      ],
      "name": "testSchnorr",
      "outputs": [
        {
          "name": "result",
          "type": "bool"
        },
        {
          "name": "_G",
          "type": "uint256[2]"
        },
        {
          "name": "A",
          "type": "uint256[2]"
        },
        {
          "name": "message",
          "type": "uint256"
        },
        {
          "name": "T",
          "type": "uint256[3]"
        },
        {
          "name": "c",
          "type": "uint256"
        },
        {
          "name": "s",
          "type": "uint256"
        }
      ],
      "payable": false,
      "stateMutability": "view",
      "type": "function"
    }
  ],
  "bytecode": "0x608060405234801561001057600080fd5b507f79be667ef9dcbbac55a06295ce870b07029bfcdb2dce28d959f2815b16f8179860009081557f483ada7726a3c4655da4fbfc0e1108a8fd17b448a68554199c47d08ffb10d4b86001557fec70eda5abd3416f239ef65d4b288717c4cf7ba469776869f2aae2e00df74dca6002557fef7824ff7e7f248bf1c94f61c04a69c4d9db232c86d85478b97e87753114de2d6003556143769081906100b390396000f30060806040526004361061013d5763ffffffff7c01000000000000000000000000000000000000000000000000000000006000350416630fe898c381146101425780632b0c1aba146101785780632cf969ed146101a55780634420a3f8146101d757806350a3f073146102045780635c332192146102195780635d09d2ad146102395780635d0c044c1461024e5780637cb63ec81461027b57806383242e901461029b578063839f6714146102c857806388f602a8146102e85780638dc095b4146103085780639ddaf5aa1461032a578063a2cf930814610359578063b733186514610379578063b77d126814610399578063bb314009146103b9578063c61a0e87146103d9578063cbc00c25146103f9578063cbcc2b9714610419578063d168b9dc14610439578063d4540ff71461046c578063fd3ab2821461048c575b600080fd5b34801561014e57600080fd5b5061016261015d366004613e96565b6104a1565b60405161016f9190614265565b60405180910390f35b34801561018457600080fd5b50610198610193366004613b85565b6104d3565b60405161016f91906141ec565b3480156101b157600080fd5b506101c56101c0366004613e96565b6105a6565b60405161016f96959493929190614181565b3480156101e357600080fd5b506101f76101f2366004613ec6565b610659565b60405161016f9190614162565b34801561021057600080fd5b50610198610ce2565b34801561022557600080fd5b506101c5610234366004613f09565b61112e565b34801561024557600080fd5b506101626111ea565b34801561025a57600080fd5b5061026e610269366004613c49565b6111f1565b60405161016f9190614173565b34801561028757600080fd5b50610162610296366004613c49565b611254565b3480156102a757600080fd5b506102bb6102b6366004613cc1565b611268565b60405161016f91906141de565b3480156102d457600080fd5b506101626102e3366004613c6f565b611292565b3480156102f457600080fd5b506102bb610303366004613c49565b611349565b34801561031457600080fd5b50610328610323366004613cf1565b611389565b005b34801561033657600080fd5b5061034a610345366004613c49565b6119f6565b60405161016f93929190614273565b34801561036557600080fd5b506101c5610374366004613bfc565b611a2a565b34801561038557600080fd5b50610162610394366004613b18565b611c11565b3480156103a557600080fd5b506101626103b4366004613a87565b611cde565b3480156103c557600080fd5b506101626103d4366004613c49565b611ddb565b3480156103e557600080fd5b506103286103f4366004613ec6565b611de7565b34801561040557600080fd5b50610328610414366004613e4e565b611ea7565b34801561042557600080fd5b50610162610434366004613ec6565b6120d6565b34801561044557600080fd5b50610459610454366004613d71565b612227565b60405161016f97969594939291906141fa565b34801561047857600080fd5b506101c5610487366004613dc6565b61236a565b34801561049857600080fd5b506101626125ec565b60048054839081106104af57fe5b9060005260206000209060020201816002811015156104ca57fe5b01549150829050565b60006104dd613528565b6104e5613528565b6104ee876125fe565b15156104fd576000925061059b565b61050686612609565b1515610515576000925061059b565b84158015610521575083155b1561052f576000925061059b565b610539848961262a565b915061054e86610549878a61262a565b612a62565b9050610560826401000003d019612cd2565b610570816401000003d019612cd2565b81518151148015610588575060208083015190820151145b15610596576001925061059b565b600092505b505095945050505050565b6105ae613547565b6105b6613547565b60006105c0613528565b6040805180820191829052600091829161064491839060029082845b8154815260200190600101908083116105dc57505050505060048a81548110151561060357fe5b600091825260209091206040805180820191829052926002908102909201919082845b81548152602001906001019080831161062657505050505089611a2a565b949d939c50919a509850965090945092505050565b6060600060606000610669613562565b6000610673613528565b600080600097506004805490506040519080825280602002602001820160405280156106b957816020015b6106a6613528565b81526020019060019003908161069e5790505b506004546040805182815260208084028201019091529198506000975080156106fc57816020015b6106e9613562565b8152602001906001900390816106e15790505b50985088600081518110151561070e57fe5b906020019060200201519450600095505b8986101561086f57888681518110151561073557fe5b602090810291909101015160408051808201918290529196506107c4919060009060029082845b81548152602001906001019080831161075c57505050505060048881548110151561078357fe5b600091825260209091206040805180820191829052926002908102909201919082845b8154815260200190600101908083116107a65750505050508d611a2a565b5050506040888101919091526020808901929092529187528151808301928390526000805482526108169391929091600291600190850180831161075c57505050505060048881548110151561078357fe5b60a08b015260808a015260608901525060008051602061431d833981519152915061083e9050565b8560800151890897508460600151878781518110151561085a57fe5b6020908102909101015260019095019461071f565b8960010195505b60045486101561098357888681518110151561088e57fe5b60209081029190910181015160408051808201918290526000805482529298506108d893909291600291600190850180831161075c57505050505060048881548110151561078357fe5b50505060408881019190915260208089019290925291875281518083019283905260008054825261092a9391929091600291600190850180831161075c57505050505060048881548110151561078357fe5b60a08b015260808a015260608901525060008051602061431d83398151915291506109529050565b8560800151890897508460600151878781518110151561096e57fe5b60209081029091010152600190950194610876565b888a81518110151561099157fe5b906020019060200201519450600060048c6040518084600280156109ca576020028201915b8154815260200190600101908083116109b6575b50508380548015610a1057604002820191906000526020600020905b604081019082905b8154815260200190600101908083116109ee57505090600201908083116109e6575b50508281526020019350505050604051809103902060019004935060008051602061431d833981519152848d6040518083815260200182815260200192505050604051809103902060019004811515610a6557fe5b6040805180820191829052929091069550610aa291869160009060029082845b815481526020019060010190808311610a8557505050505061262a565b9250610ab4836401000003d019612cd2565b82878b815181101515610ac357fe5b60209081029190910101526040805160008051602061431d833981519152916000916004918f918c91810185825b815481526020019060010190808311610af15750508480548015610b4a57604002820191906000526020600020905b604081019082905b815481526020019060010190808311610b285750509060020190808311610b20575b50508381526020018280516000925b81841015610b9b57602080850284010151606080838360005b83811015610b8a578181015183820152602001610b72565b505050509050019260010192610b59565b604051908190039020975050508615159450610bb8935050505057fe5b06915060008051602061431d8339815191528860008051602061431d8339815191520383086040805180820191829052919250610c64918e9160009060029082845b815481526020019060010190808311610bfa57505050505060048d815481101515610c2157fe5b600091825260209091206040805180820191829052926002908102909201919082845b815481526020019060010190808311610c445750505050508e888661236a565b50505060408089019190915260208801919091529086528051808201909152610cbd908d9060006002828282602002820191815481526020019060010190808311610bfa57505050505060048d815481101515610c2157fe5b60a08b015260808a015260609098019790975250989c9b505050505050505050505050565b600080606080610cf0613562565b6005546040805182815260208084028201019091526000955085918015610d3157816020015b610d1e613528565b815260200190600190039081610d165790505b506005546040805182815260208084028201019091529195508015610d7057816020015b610d5d613547565b815260200190600190039081610d555790505b509250600090505b600554811015610f28576005805482908110610d9057fe5b6000918252602090912060408051610100810190915291600a02018160c081018260028282826020028201915b815481526020019060010190808311610dbd57505050918352505060408051808201918290526020909201919060028481019182845b815481526020019060010190808311610df357505050918352505060048201546020820152604080516060810182529101906005830160038282826020028201915b815481526020019060010190808311610e355750505050508152602001600882015481526020016009820154815250509150610e8882600001518360200151846060015185608001518660a001516104d3565b1515610ece577f123de41493f6e442c2fdb676dd1c3d9f1e0a7b7531ca0cdb9f1026f7569e2bff81604051610ebd9190614265565b60405180910390a160009550611126565b60008051602061431d83398151915285836080015108945081602001518382815181101515610ef957fe5b6020908102909101015260608201518451859083908110610f1657fe5b60209081029091010152600101610d78565b600580546000908110610f3757fe5b6000918252602090912060408051610100810190915291600a02018160c081018260028282826020028201915b815481526020019060010190808311610f6457505050918352505060408051808201918290526020909201919060028481019182845b815481526020019060010190808311610f9a57505050918352505060048201546020820152604080516060810182529101906005830160038282826020028201915b815481526020019060010190808311610fdc575050505050815260200160088201548152602001600982015481525050915060008051602061431d8339815191528260000151848460400151876040518085600260200280838360005b83811015611051578181015183820152602001611039565b505050509050018480516000925b818410156110a157602080850284010151604080838360005b83811015611090578181015183820152602001611078565b50505050905001926001019261105f565b925050508381526020018280516000925b818410156110f457602080850284010151606080838360005b838110156110e35781810151838201526020016110cb565b5050505090500192600101926110b2565b604051908190039020975050508615159450611111935050505057fe5b0685146111215760009550611126565b600195505b505050505090565b611136613547565b61113e613547565b6000611148613528565b604080518082019182905260009182916111d1918c9190849060029082845b81548152602001906001019080831161116757505050505060048e81548110151561118e57fe5b600091825260209091206040805180820191829052926002908102909201919082845b8154815260200190600101908083116111b15750505050508c8c8c61236a565b9550955095509550955095509550955095509550955095565b6004545b90565b6111f9613547565b600454821061120457fe5b600480548390811061121257fe5b600091825260209091206040805180820191829052926002908102909201919082845b8154815260200190600101908083116112355750505050509050919050565b6000816002811061126157fe5b0154905081565b611270613528565b61127a838361262a565b905061128c816401000003d019612cd2565b92915050565b60408051808201918290526000916113429190839060029082845b8154815260200190600101908083116112ad5750505050506004805480602002602001604051908101604052809291908181526020016000905b828210156113375760008481526020902060408051808201918290529160028581029091019182845b815481526020019060010190808311611310575050505050815260200190600101906112e7565b505050508585611cde565b9392505050565b611351613528565b604080518082019182905261128c9184919060009060029082845b81548152602001906001019080831161136c575050505050611268565b60006060600080600061139a613528565b6000808a51891015156113ac57600080fd5b600097508a516040519080825280602002602001820160405280156113eb57816020015b6113d8613528565b8152602001906001900390816113d05790505b508b51909750600096506114006005826135ac565b5060058054600090811061141057fe5b90600052602060002090600a02019450600095505b88861015611580577f976cca7f4190c83b7db37d954c0a31f2e5c613820ab000a21d3b8e27044874408660405161145c9190614265565b60405180910390a1600580548790811061147257fe5b90600052602060002090600a020194506114a48c8c8881518110151561149457fe5b906020019060200201518c611a2a565b505050600488018190558760006114c160028084019086906135d8565b506114d09190508460026135d8565b505050506114e68c8c8881518110151561149457fe5b60098b0181905560088b018290559194509250905061150a60058901846003613616565b5060008051602061431d8339815191529250611524915050565b85600801548908604080516060810191829052919950600587019060039082845b815481526020019060010190808311611545575050505050878781518110151561156b57fe5b60209081029091010152600190950194611425565b8860010195505b8a518610156116d3577f976cca7f4190c83b7db37d954c0a31f2e5c613820ab000a21d3b8e2704487440866040516115bf9190614265565b60405180910390a160058054879081106115d557fe5b90600052602060002090600a020194506115f78c8c8881518110151561149457fe5b5050506004880181905587600061161460028084019086906135d8565b506116239190508460026135d8565b505050506116398c8c8881518110151561149457fe5b60098b0181905560088b018290559194509250905061165d60058901846003613616565b5060008051602061431d8339815191529250611677915050565b85600801548908604080516060810191829052919950600587019060039082845b81548152602001906001019080831161169857505050505087878151811015156116be57fe5b60209081029091010152600190950194611587565b7f976cca7f4190c83b7db37d954c0a31f2e5c613820ab000a21d3b8e2704487440896040516117029190614265565b60405180910390a1600580548a90811061171857fe5b90600052602060002090600a020194508b8b8b6040518084600260200280838360005b8381101561175357818101518382015260200161173b565b505050509050018380516000925b818410156117a357602080850284010151604080838360005b8381101561179257818101518382015260200161177a565b505050509050019260010192611761565b925050508281526020019350505050604051809103902060019004935060008051602061431d833981519152848e60405180838152602001828152602001925050506040518091039020600190048115156117fa57fe5b069350611807848d61262a565b9250611819836401000003d019612cd2565b82878a81518110151561182857fe5b9060200190602002018190525060008051602061431d8339815191528c8c8c8a6040518085600260200280838360005b83811015611870578181015183820152602001611858565b505050509050018480516000925b818410156118c057602080850284010151604080838360005b838110156118af578181015183820152602001611897565b50505050905001926001019261187e565b925050508381526020018280516000925b8184101561191357602080850284010151606080838360005b838110156119025781810151838201526020016118ea565b5050505090500192600101926118d1565b604051908190039020975050508615159450611930935050505057fe5b06915060008051602061431d8339815191528860008051602061431d833981519152038308905061197c8d8d8d8c81518110151561196a57fe5b906020019060200201518d888661236a565b5050506004880181905587600061199960028084019086906135d8565b506119a89190508460026135d8565b505050506119bf8d8d8d8c81518110151561196a57fe5b60098b0181905560088b01829055919450925090506119e360058901846003613616565b5050505050505050505050505050505050565b6005805482908110611a0457fe5b60009182526020909120600a909102016004810154600882015460099092015490925083565b611a32613547565b611a3a613547565b6000611a44613528565b600080611a4f613528565b611a57613528565b8a516020808d01518a8201529089528a518b820151918901919091528752604080517f010000000000000000000000000000000000000000000000000000000000000081528a975060008051602061431d833981519152916001918a918a919081850190849080838360005b83811015611adb578181015183820152602001611ac3565b50505050919091019283525050604051908190036020019020915050811515611b0057fe5b06935060008051602061431d83398151915260028888604051808460ff1660ff167f010000000000000000000000000000000000000000000000000000000000000002815260010183600260200280838360005b83811015611b6c578181015183820152602001611b54565b50505050919091019283525050604051908190036020019020915050811515611b9157fe5b069250611b9e838961262a565b9150611baa848861262a565b9050611bbc816401000003d019612cd2565b60408051606081018252825181526020808401516401000003d01903908201526001918101919091529450611bf18286612a62565b9450611c03856401000003d019612cd2565b505093975093979195509350565b60008484836040518084600260200280838360005b83811015611c3e578181015183820152602001611c26565b505050509050018380516000925b81841015611c8e57602080850284010151604080838360005b83811015611c7d578181015183820152602001611c65565b505050509050019260010192611c4c565b948552505060408051602094819003850181208082529481018a9052815190819003909101902092955060008051602061431d8339815191529450919250611cd4915050565b0695945050505050565b600060008051602061431d833981519152858585856040518085600260200280838360005b83811015611d1b578181015183820152602001611d03565b505050509050018480516000925b81841015611d6b57602080850284010151604080838360005b83811015611d5a578181015183820152602001611d42565b505050509050019260010192611d29565b925050508381526020018280516000925b81841015611dbe57602080850284010151606080838360005b83811015611dad578181015183820152602001611d95565b505050509050019260010192611d7c565b604051908190039020975050508615159450611cd4935050505057fe5b60028181811061126157fe5b6004541515611df257fe5b6040805180820191829052611ea29185919060009060029082845b815481526020019060010190808311611e0d5750505050506004805480602002602001604051908101604052809291908181526020016000905b82821015611e975760008481526020902060408051808201918290529160028581029091019182845b815481526020019060010190808311611e7057505050505081526020019060010190611e47565b505050508585611389565b505050565b6000611eb1613528565b611eb9613528565b8351611ec6600482613643565b50600092505b84831015611f8e57611f1f8484815181101515611ee557fe5b6020908102919091018101516040805180820191829052600280548252929390929182916003908501808311610a8557505050505061262a565b9150611f31826401000003d019612cd2565b815160208301516004805486908110611f4657fe5b600091825260208220600290910201016000600487815481101515611f6757fe5b60009182526020909120600290910201600101929092559190915550600190920191611ecc565b611fda8484815181101515611f9f57fe5b602090810291909101810151604080518082019182905260008054825292939092916002916001908501808311610a8557505050505061262a565b9050611fec816401000003d019612cd2565b80516020820151600480548690811061200157fe5b60009182526020822060029091020101600060048781548110151561202257fe5b600091825260209091206002909102016001019290925591909155506001850192505b6004548310156120cf576120608484815181101515611ee557fe5b9150612072826401000003d019612cd2565b81516020830151600480548690811061208757fe5b6000918252602082206002909102010160006004878154811015156120a857fe5b60009182526020909120600290910201600101929092559190915550600190920191612045565b5050505050565b60408051808201918290526000916121869190839060029082845b8154815260200190600101908083116120f15750505050506004805480602002602001604051908101604052809291908181526020016000905b8282101561217b5760008481526020902060408051808201918290529160028581029091019182845b8154815260200190600101908083116121545750505050508152602001906001019061212b565b505050508686611c11565b9050611342565b81548152602001906001019080831161218d57505083805480156121e657604002820191906000526020600020905b604081019082905b8154815260200190600101908083116121c457505090600201908083116121bc575b5050918252506040805191829003602090810183208352820188905280519182900301902060008051602061431d8339815191529006925050509392505050565b6000612231613547565b612239613547565b6000612243613528565b87516000908190158015612259575060208a0151155b801561226457508851155b801561227257506020890151155b156122d0576000805460015460208d01528b5260048054909190811061229457fe5b60009182526020822060029091020101546004805460009081106122b457fe5b600091825260209182902060016002909202010154908b015289525b8951158015906122e3575060208a015115155b80156122ef5750885115155b80156122fe5750602089015115155b151561230957600080fd5b8a156123325761231e8b8b8b8b60008061236a565b949a5092985090965094509250905061234d565b61233d8a8a8a611a2a565b949a509298509096509450925090505b61235a86868585856104d3565b9650949950949992975094509450565b612372613547565b61237a613547565b6000612384613528565b6000806000612391613528565b8c516020808f01518a8201529089528c518d8201519189019190915287528a95508d915060006123c1838a61262a565b91506123d3826401000003d019612cd2565b875182511415806123ec57506020808901519083015114155b15612415578151602080840151604080860151908a0152908801528652600094508493506125da565b8a1580159061242357508915155b1561244e575089612434818a61262a565b9550612446866401000003d019612cd2565b8994506125b4565b60008051602061431d8339815191528989896040518084600260200280838360005b83811015612488578181015183820152602001612470565b5050505090500183600260200280838360005b838110156124b357818101518382015260200161249b565b505050509190910192835250506040519081900360200190209150508115156124d857fe5b0690506124e5818a61262a565b95506124f7866401000003d019612cd2565b60008051602061431d833981519152898989896040518085600260200280838360005b8381101561253257818101518382015260200161251a565b5050505090500184600260200280838360005b8381101561255d578181015183820152602001612545565b5050505090500183815260200182600360200280838360005b8381101561258e578181015183820152602001612576565b505050509050019450505050506040518091039020600190048115156125b057fe5b0694505b60008051602061431d8339815191528160008051602061431d8339815191528786090893505b50505096509650965096509650969050565b60008051602061431d83398151915281565b600061128c82612d3e565b6000612613613547565b825181526020808401519082015261134281612d3e565b612632613528565b600080600061263f61366f565b612647613528565b61264f61369e565b6401000003d0199550600080808b151561266857612a53565b6000604051985061020089016040525b8c156126b05760018d161561269f5750601f8c16808989015360206010821102818e03019c505b60028d049c50600188019750612678565b50604080516060810182528c5181526020808e0151908201526001918101919091528087526126de90612dd0565b94506126ea858c612eef565b6020870152612701858760015b6020020151612a62565b6040870152612712858760026126f7565b6060870152612723858760036126f7565b6080870152612734858760046126f7565b60a0870152612745858760056126f7565b60c0870152612756858760066126f7565b60e087015260208601516040015184528880151561277057fe5b845160408089015101510960208501528880151561278a57fe5b6020850151606088015160400151096040850152888015156127a857fe5b604080860151608089015190910151096060850152888015156127c757fe5b606085015160a088015160400151096080850152888015156127e557fe5b608085015160c0880151604001510960a08501528880151561280357fe5b60a085015160e0880151604001510960c08501819052612823908a613121565b60e085018190526101008501528880151561283a57fe5b61010085015160a0860151096101e0850152600692505b600283106128ce578880151561286357fe5b61010085015187600186016008811061287857fe5b602002015160400151096101008501528880151561289257fe5b610100850151856001198601601081106128a857fe5b6020020151098460088501601081106128bd57fe5b602002015260001990920191612851565b888015156128d857fe5b610100850151604080890151015109610120850152600092505b600783101561296a5761295f86600185016008811061290d57fe5b602002015185600986016010811061292157fe5b60200201518b80151561293057fe5b87600988016010811061293f57fe5b602002015188600989016010811061295357fe5b6020020151098c6131bf565b6001909201916128f2565b6000871115612a535760001987890181015197019660001a915061298d8a6131ef565b60108211156129f1576002601f8390030490506129ec8a604080519081016040528089856008811015156129bd57fe5b60209081029190910151518252018985600881106129d757fe5b6020020151600160200201518d039052613304565b612a4e565b6000821115612a4e5760026000198301049050612a4e8a60408051908101604052808985600881101515612a2157fe5b6020908102919091015151825201898560088110612a3b57fe5b6020020151600160200201519052613304565b61296a565b50505050505050505092915050565b612a6a613528565b6000612a746136be565b612a7c6136be565b6000808080808a600260200201511515612a9857899850612cc4565b60408a01511515612aab578a9850612cc4565b60408b01516401000003d019985088908009875287801515612ac957fe5b875160408d015109602088015287801515612ae057fe5b60408b01518009604088015287801515612af657fe5b604080890151908c015109606088015260408051608081019091528089801515612b1c57fe5b60408a01518e5109815260200189801515612b3357fe5b60608a015160208f015109815260200189801515612b4d57fe5b89518d5109815260200189801515612b6157fe5b6020808b0151908e0151099052604081015181519197501415612ba2576060860151602087015114612b9257612cc4565b612b9b8b612dd0565b9850612cc4565b87801515612bac57fe5b86516040880151908a039008945087801515612bc457fe5b60208701516060880151908a039008935087801515612bdf57fe5b858609925087801515612bee57fe5b858409915087801515612bfd57fe5b82890389801515612c0a57fe5b86870908905087801515612c1a57fe5b88801515612c2457fe5b89801515612c2e57fe5b885186900960020989038208808a52905087801515612c4957fe5b88801515612c5357fe5b828a038a801515612c6057fe5b895187900908850960208a015287801515612c7757fe5b88801515612c8157fe5b602088015184900989038a600160200201510860208a015287801515612ca357fe5b88801515612cad57fe5b6040808d0151908e01510986098960025b60200201525b505050505050505092915050565b600080612ce6846002602002015184613121565b915082801515612cf257fe5b828309905082801515612d0157fe5b8451829009845282801515612d1257fe5b83801515612d1c57fe5b8284098560015b60200201510960208501525050600160409092019190915250565b60006401000003d0198180848160200201511580612d5c5750845183145b80612d6957506020850151155b80612d775750602085015183145b15612d855760009350612dc8565b82801515612d8f57fe5b60208601518009915082801515612da257fe5b600784801515612dae57fe5b875186801515612dba57fe5b895180090908905080821493505b505050919050565b612dd8613528565b6401000003d0196000808080808088600260200201511515612df957612ee3565b885160208a0151909650945086801515612e0f57fe5b858609935086801515612e1e57fe5b87801515612e2857fe5b858809600409925086801515612e3a57fe5b87801515612e4457fe5b878809600309915086801515612e5657fe5b87801515612e6057fe5b848508880388801515612e6f57fe5b84850908808952905086801515612e8257fe5b87801515612e8c57fe5b88801515612e9657fe5b868709600809880388801515612ea857fe5b89801515612eb257fe5b848b038708850908602089015286801515612ec957fe5b87801515612ed357fe5b60408b0151870960020960408901525b50505050505050919050565b612ef7613528565b6000612f01613547565b612f096136be565b6000808080808a600260200201511515612f4557604080516060810182528b5181526020808d0151908201526001918101919091529850612cc4565b60208a01511515612f58578a9850612cc4565b60408b01516401000003d019985088908009875287801515612f7657fe5b875160408d015109602080890191909152604080516080810182528d5181528d83015192810192909252810189801515612fac57fe5b89518d5109815260200189801515612fc057fe5b6020808b0151908e0151099052604081015181519197501415613011576060860151602087015114613002576000808c5260208c0181905260408c0152612cc4565b61300b8b612dd0565b50612cc4565b8780151561301b57fe5b86516040880151908a03900894508780151561303357fe5b60208701516060880151908a03900893508780151561304e57fe5b85860992508780151561305d57fe5b85840991508780151561306c57fe5b8289038980151561307957fe5b8687090890508780151561308957fe5b8880151561309357fe5b8980151561309d57fe5b885186900960020989038208808a529050878015156130b857fe5b888015156130c257fe5b828a038a8015156130cf57fe5b895187900908850960208a0152878015156130e657fe5b888015156130f057fe5b602088015184900989038a600160200201510860208a01528780151561311257fe5b60408c01518609896002612cbe565b6000808080808087158015906131375750868814155b801561314257508615155b151561314d57600080fd5b8688111561316457868881151561316057fe5b0697505b600193508692508791505b811561319a57818381151561318057fe5b94959404858102909403939192838302900391905061316f565b60008512156131b05784600003870395506131b4565b8495505b505050505092915050565b808015156131c957fe5b84518390098452808015156131da57fe5b818015156131e457fe5b838509856001612d23565b6401000003d0196000808080808087600260200201511515613210576132fa565b8751602089015190965094508680151561322657fe5b85860993508680151561323557fe5b8780151561323f57fe5b85880960040992508680151561325157fe5b8780151561325b57fe5b87880960030991508680151561326d57fe5b8780151561327757fe5b84850888038880151561328657fe5b8485090880895290508680151561329957fe5b878015156132a357fe5b888015156132ad57fe5b8687096008098803888015156132bf57fe5b898015156132c957fe5b848b0387088509086020890152868015156132e057fe5b878015156132ea57fe5b60408a0151870960020960408901525b5050505050505050565b600061330e613547565b6133166136be565b600080808080896001602002015115156133485788518a526020808a0151908b015260018a60025b602002015261351c565b602089015115156133585761351c565b60408a01516401000003d01998508890800987528780151561337657fe5b875160408c015109602080890191909152604080516080810182528c5181528c830151928101929092528101898015156133ac57fe5b89518c51098152602001898015156133c057fe5b6020808b0151908d015109905260408101518151919750141561340e576060860151602087015114613400576000808b5260208b018190528a600261333e565b6134098a6131ef565b61351c565b8780151561341857fe5b86516040880151908a03900894508780151561343057fe5b60208701516060880151908a03900893508780151561344b57fe5b85860992508780151561345a57fe5b85840991508780151561346957fe5b8289038980151561347657fe5b8687090890508780151561348657fe5b8880151561349057fe5b8980151561349a57fe5b885186900960020989038208808b529050878015156134b557fe5b888015156134bf57fe5b828a038a8015156134cc57fe5b895187900908850960208b0152878015156134e357fe5b888015156134ed57fe5b602088015184900989038b600160200201510860208b01528780151561350f57fe5b60408b0151860960408b01525b50505050505050505050565b6060604051908101604052806003906020820280388339509192915050565b60408051808201825290600290829080388339509192915050565b61014060405190810160405280613577613547565b8152602001613584613547565b815260200160008152602001613598613528565b815260200160008152602001600081525090565b815481835581811115611ea257600a0281600a028360005260206000209182019101611ea291906136dd565b8260028101928215613606579160200282015b828111156136065782518255916020019190600101906135eb565b50613612929150613734565b5090565b826003810192821561360657916020028201828111156136065782518255916020019190600101906135eb565b815481835581811115611ea257600202816002028360005260206000209182019101611ea2919061374e565b610300604051908101604052806008905b613688613528565b8152602001906001900390816136805790505090565b610200604051908101604052806010906020820280388339509192915050565b6080604051908101604052806004906020820280388339509192915050565b6111ee91905b808211156136125760006136f78282613771565b613705600283016000613771565b600482016000905560058201600061371d919061377f565b506000600882018190556009820155600a016136e3565b6111ee91905b80821115613612576000815560010161373a565b6111ee91905b808211156136125760006137688282613771565b50600201613754565b506000815560010160009055565b50600081556001016000815560010160009055565b6000601f820183136137a557600080fd5b81356137b86137b3826142c2565b61429b565b915081818352602084019350602081019050838560408402820111156137dd57600080fd5b60005b8381101561380b57816137f38882613887565b845250602090920191604091909101906001016137e0565b5050505092915050565b6000601f8201831361382657600080fd5b81356138346137b3826142c2565b9150818183526020840193506020810190508385606084028201111561385957600080fd5b60005b8381101561380b578161386f8882613949565b8452506020909201916060919091019060010161385c565b6000601f8201831361389857600080fd5b60026138a66137b3826142e3565b915081838560208402820111156138bc57600080fd5b60005b8381101561380b57816138d28882613a7b565b84525060209283019291909101906001016138bf565b6000601f820183136138f957600080fd5b60026139076137b3826142e3565b9150818385602084028201111561391d57600080fd5b60005b8381101561380b57816139338882613a7b565b8452506020928301929190910190600101613920565b6000601f8201831361395a57600080fd5b60036139686137b3826142e3565b9150818385602084028201111561397e57600080fd5b60005b8381101561380b57816139948882613a7b565b8452506020928301929190910190600101613981565b6000601f820183136139bb57600080fd5b60036139c96137b3826142e3565b915081838560208402820111156139df57600080fd5b60005b8381101561380b57816139f58882613a7b565b84525060209283019291909101906001016139e2565b6000601f82018313613a1c57600080fd5b8135613a2a6137b3826142c2565b91508181835260208401935060208101905083856020840282011115613a4f57600080fd5b60005b8381101561380b5781613a658882613a7b565b8452506020928301929190910190600101613a52565b600061134282356111ee565b60008060008060a08587031215613a9d57600080fd5b6000613aa987876138e8565b945050604085013567ffffffffffffffff811115613ac657600080fd5b613ad287828801613794565b9350506060613ae387828801613a7b565b925050608085013567ffffffffffffffff811115613b0057600080fd5b613b0c87828801613815565b91505092959194509250565b60008060008060a08587031215613b2e57600080fd5b6000613b3a87876138e8565b945050604085013567ffffffffffffffff811115613b5757600080fd5b613b6387828801613794565b9350506060613b7487828801613a7b565b9250506080613b0c87828801613a7b565b60008060008060006101208688031215613b9e57600080fd5b6000613baa88886138e8565b9550506040613bbb888289016138e8565b9450506080613bcc888289016139aa565b93505060e0613bdd88828901613a7b565b925050610100613bef88828901613a7b565b9150509295509295909350565b600080600060a08486031215613c1157600080fd5b6000613c1d86866138e8565b9350506040613c2e868287016138e8565b9250506080613c3f86828701613a7b565b9150509250925092565b600060208284031215613c5b57600080fd5b6000613c678484613a7b565b949350505050565b60008060408385031215613c8257600080fd5b6000613c8e8585613a7b565b925050602083013567ffffffffffffffff811115613cab57600080fd5b613cb785828601613815565b9150509250929050565b60008060608385031215613cd457600080fd5b6000613ce08585613a7b565b9250506020613cb7858286016138e8565b600080600080600060c08688031215613d0957600080fd5b6000613d158888613a7b565b9550506020613d26888289016138e8565b945050606086013567ffffffffffffffff811115613d4357600080fd5b613d4f88828901613794565b9350506080613d6088828901613a7b565b92505060a0613bef88828901613a7b565b60008060008060c08587031215613d8757600080fd5b6000613d938787613a7b565b9450506020613da4878288016138e8565b9350506060613db5878288016138e8565b92505060a0613b0c87828801613a7b565b6000806000806000806101008789031215613de057600080fd5b6000613dec8989613a7b565b9650506020613dfd89828a016138e8565b9550506060613e0e89828a016138e8565b94505060a0613e1f89828a01613a7b565b93505060c0613e3089828a01613a7b565b92505060e0613e4189828a01613a7b565b9150509295509295509295565b60008060408385031215613e6157600080fd5b6000613e6d8585613a7b565b925050602083013567ffffffffffffffff811115613e8a57600080fd5b613cb785828601613a0b565b60008060408385031215613ea957600080fd5b6000613eb58585613a7b565b9250506020613cb785828601613a7b565b600080600060608486031215613edb57600080fd5b6000613ee78686613a7b565b9350506020613ef886828701613a7b565b9250506040613c3f86828701613a7b565b600080600080600060a08688031215613f2157600080fd5b6000613f2d8888613a7b565b9550506020613f3e88828901613a7b565b9450506040613f4f88828901613a7b565b9350506060613f6088828901613a7b565b9250506080613bef88828901613a7b565b6000613f7c82614307565b808452602084019350613f8e83614301565b60005b82811015613fbf57613fa48683516140e0565b613fad82614301565b61014096909601959150600101613f91565b5093949350505050565b613fd28161430b565b613fdb826111ee565b60005b828110156120cf57613ff1858351614159565b613ffa82614301565b602095909501949150600101613fde565b6140148161430b565b61401d826111ee565b60005b828110156120cf57614033858351614159565b61403c82614301565b602095909501949150600101614020565b61405681614311565b61405f826111ee565b60005b828110156120cf57614075858351614159565b61407e82614301565b602095909501949150600101614062565b61409881614311565b6140a1826111ee565b60005b828110156120cf576140b7858351614159565b6140c082614301565b6020959095019491506001016140a4565b6140da81614317565b82525050565b80516101408301906140f2848261400b565b506020820151614105604085018261400b565b5060408201516141186080850182614159565b50606082015161412b60a085018261408f565b50608082015161413f610100850182614159565b5060a0820151614153610120850182614159565b50505050565b6140da816111ee565b602080825281016113428184613f71565b6040810161128c8284613fc9565b61014081016141908289613fc9565b61419d6040830188613fc9565b6141aa6080830187614159565b6141b760a083018661404d565b6141c5610100830185614159565b6141d3610120830184614159565b979650505050505050565b6060810161128c828461404d565b6020810161128c82846140d1565b6101608101614209828a6140d1565b6142166020830189613fc9565b6142236060830188613fc9565b61423060a0830187614159565b61423d60c083018661404d565b61424b610120830185614159565b614259610140830184614159565b98975050505050505050565b6020810161128c8284614159565b606081016142818286614159565b61428e6020830185614159565b613c676040830184614159565b60405181810167ffffffffffffffff811182821017156142ba57600080fd5b604052919050565b600067ffffffffffffffff8211156142d957600080fd5b5060209081020190565b600067ffffffffffffffff8211156142fa57600080fd5b5060200290565b60200190565b5190565b50600290565b50600390565b1515905600fffffffffffffffffffffffffffffffebaaedce6af48a03bbfd25e8cd0364141a265627a7a72305820d17c0dadd37f37b2ce35c5a26b896268262f6726abc0153d10cfd17d9bfdd69f6c6578706572696d656e74616cf50037",
  "source": "pragma solidity ^0.4.7;\r\npragma experimental ABIEncoderV2;\r\nimport \"./ECCMath_noconflict.sol\";\r\nimport \"./Secp256k1_noconflict.sol\";\r\n\r\ncontract OrPoK {\r\n    \r\n    uint constant p = 0xFFFFFFFFFFFFFFFFFFFFFFFFFFFFFFFFFFFFFFFFFFFFFFFFFFFFFFFEFFFFFC2F;\r\n\r\n    // Base point (generator) G\r\n    // Eason: represent werewolf\r\n    uint constant Gx =0x79BE667EF9DCBBAC55A06295CE870B07029BFCDB2DCE28D959F2815B16F81798;\r\n    uint constant Gy = 0x483ADA7726A3C4655DA4FBFC0E1108A8FD17B448A68554199C47D08FFB10D4B8;\r\n    uint constant Hx = 0xEC70EDA5ABD3416F239EF65D4B288717C4CF7BA469776869F2AAE2E00DF74DCA;\r\n    uint constant Hy = 0xEF7824FF7E7F248BF1C94F61C04A69C4D9DB232C86D85478B97E87753114DE2D;\r\n    \r\n\r\n    //Eason: oredr of elliptic curve\r\n    //coefficient in Zq \r\n    uint public constant q = 0xFFFFFFFFFFFFFFFFFFFFFFFFFFFFFFFEBAAEDCE6AF48A03BBFD25E8CD0364141;\r\n\r\n\r\n\r\n    uint[2] public G;\r\n    uint[2] public H;\r\n    \r\n    uint[2][] public problems;//ECDLP for G\r\n    PoK[] public proofs;\r\n    function OrPoK() public{\r\n        G[0] = Gx;\r\n        G[1] = Gy;\r\n        H[0] = Hx;\r\n        H[1] = Hy;\r\n    }\r\n\r\n    function easySetProblems(uint real, uint[] pokerKeys) public {\r\n        problems.length = pokerKeys.length;\r\n        for(uint i=0; i<real; i++){\r\n            uint[3] memory secretH = Secp256k1_noconflict._mul(pokerKeys[i], H);\r\n            ECCMath_noconflict.toZ1(secretH,p);\r\n            (problems[i][0],problems[i][1]) = (secretH[0],secretH[1]);\r\n        }\r\n        uint[3] memory secretG = Secp256k1_noconflict._mul(pokerKeys[i], G);\r\n        ECCMath_noconflict.toZ1(secretG,p);\r\n        (problems[i][0],problems[i][1]) = (secretG[0],secretG[1]);\r\n        for(i= real+1; i<problems.length; i++){\r\n            secretH = Secp256k1_noconflict._mul(pokerKeys[i], H);\r\n            ECCMath_noconflict.toZ1(secretH,p);\r\n            (problems[i][0],problems[i][1]) = (secretH[0],secretH[1]);\r\n        }      \r\n    }\r\n\r\n    function getProblems(uint i) public view returns(uint[2] point){\r\n        assert(i< problems.length);\r\n        return problems[i];\r\n    }//getter for outside world\r\n\r\n    function getProblemsLength() public view returns(uint){\r\n        \r\n        return problems.length;\r\n    }//getter for outside world\r\n\r\n    //input is \"t\", move t,c to easy version\r\n    function createSchnorr(uint pokerKey, uint[2] werewolf, uint[2] liveHand, uint victim, uint tReady,uint cReady) public view returns(uint[2] g, uint[2] A, uint message, uint[3] T, uint c, uint s){\r\n        //input: conditions \r\n        //output: conditions & PoK\r\n        uint secret = pokerKey;\r\n        (g[0],g[1]) = (werewolf[0],werewolf[1]);\r\n        (A[0],A[1]) = (liveHand[0],liveHand[1]);\r\n        message = victim;\r\n        \r\n        uint[3] memory secretG = Secp256k1_noconflict._mul(secret, g);\r\n        ECCMath_noconflict.toZ1(secretG,p);\r\n        if(secretG[0] != A[0] || secretG[1] != A[1]){\r\n            (T[0],T[1],T[2]) = (secretG[0], secretG[1], secretG[2]);\r\n            c = 0;\r\n            s = 0;\r\n            return;//require can be used off-chain \r\n        }\r\n        \r\n        uint t;\r\n        if(tReady != 0 && cReady != 0){\r\n            t = tReady;\r\n            T = Secp256k1_noconflict._mul(t, g);\r\n            ECCMath_noconflict.toZ1(T,p);\r\n            c = cReady;\r\n        }else{\r\n            t = uint(keccak256(g,A,message)) % q;//add index of proof?\r\n            //TODO: add some randomness\r\n            T = Secp256k1_noconflict._mul(t, g);\r\n            ECCMath_noconflict.toZ1(T,p);\r\n            c=uint(keccak256(g,A, message,T)) % q;\r\n        }\r\n        s = addmod(mulmod(secret,c,q),t,q);\r\n    }\r\n\r\n    function easyCreateSchnorr(uint real, uint pokerKey, uint victim, uint tReady, uint cReady) public view returns(uint[2] g, uint[2] A, uint message, uint[3] T, uint c, uint s){\r\n        \r\n        return createSchnorr(pokerKey, G, problems[ real ], victim, tReady, cReady);\r\n    }\r\n\r\n    \r\n    // m - 1 fake proof\r\n    function forgeProof(uint[2] werewolf, uint[2] liveHand, uint victim) public view returns(uint[2] _H, uint[2] B,uint message, uint[3] T2, uint c2, uint s2){\r\n        (_H[0],_H[1]) = (werewolf[0],werewolf[1]);\r\n        (B[0],B[1])=(liveHand[0],liveHand[1]);\r\n        message = victim;\r\n\r\n        c2 = uint(keccak256(uint8(1),B, message)) % q;//choose a random # by self\r\n        s2 = uint(keccak256(uint8(2),B, message)) % q;//choose a random # by self\r\n        uint[3] memory s2H = Secp256k1_noconflict._mul(s2, _H);\r\n        uint[3] memory c2B = Secp256k1_noconflict._mul(c2, B);\r\n        ECCMath_noconflict.toZ1(c2B,p);\r\n        //T2 = Secp256k1_noconflict._mul(q-1,[c2B[0],c2B[1]]);\r\n        T2 = [c2B[0],p-c2B[1],1];//negative in affine?\r\n        T2 = Secp256k1_noconflict._add(s2H, T2);//The negative in Jacobi coordinates?\r\n        ECCMath_noconflict.toZ1(T2,p);\r\n    }\r\n\r\n    function easyForgeProof(uint i,uint victim) public view returns(uint[2] h, uint[2] B,uint message, uint[3] T2, uint c2, uint s2){\r\n        return forgeProof(G, problems[i], victim);\r\n        //function forgeProof can't overloading. work around : rename \r\n    }\r\n\r\n    function computeRealt(uint[2] _G, uint[2][] _problems, uint pokerKey,  uint victim) public view returns(uint realt){\r\n        realt = uint(keccak256(_G, _problems, victim));\r\n        realt = uint(keccak256(realt, pokerKey)) % q;\r\n    }\r\n    //1 real proof\r\n    function easyComputeRealt(uint pokerKey,  uint victim, uint real) public view returns(uint realt){\r\n        return computeRealt(G, problems, pokerKey,  victim);\r\n        //i) choose t\r\n        realt = uint(keccak256(G, problems, victim));//need other T??\r\n        realt = uint(keccak256(realt, pokerKey)) % q;//avoid stack too deep\r\n        //add index of proof? pokerKey instead\r\n        //add pokerKey for randomnes\r\n    }\r\n\r\n    //1 real proof\r\n    function computeTFrom(uint realt, uint[2] _G) public view returns(uint[3] realT){\r\n        //ii) compute T\r\n        realT = Secp256k1_noconflict._mul(realt, _G);\r\n        ECCMath_noconflict.toZ1(realT,p);\r\n    }\r\n\r\n    function easyComputeTFrom(uint realt) public view returns(uint[3] realT){\r\n        //ii) compute T\r\n        return computeTFrom(realt, G);\r\n    }\r\n\r\n    function computeChallenge(uint[2] _G, uint[2][] _problems, uint victim,  uint[3][] Ts) public view returns(uint realChallenge){\r\n        //iii) compute c\r\n        realChallenge = uint(keccak256(_G, _problems, victim,Ts)) % q;\r\n\r\n    }\r\n\r\n    function easyComputeChallenge(uint victim,  uint[3][] Ts) public view returns(uint realChallenge){\r\n        return computeChallenge(G, problems, victim,  Ts);\r\n    }\r\n\r\n    \r\n    function publishProofs(uint pokerKey, uint[2] werewolf, uint[2][] liveHands, uint victim, uint real) public{\r\n        //input: conditions \r\n        //output: store conditions & PoK\r\n\r\n        require(real<liveHands.length);\r\n        \r\n        uint totalFakeC = 0;\r\n        uint[3][ ] memory T = new uint[3][](liveHands.length);\r\n\r\n        // m-1 \"fake\" proof\r\n        uint i=0;\r\n        proofs.length = liveHands.length;\r\n        PoK storage pf = proofs[0];\r\n\r\n        for( i=0; i<real; i++){\r\n            emit Process(i); \r\n            pf = proofs[i];\r\n            (pf.g, pf.A, pf.message,) = forgeProof(werewolf,liveHands[i],victim);\r\n            (, pf.T, pf.c, pf.s) = forgeProof(werewolf,liveHands[i],victim);\r\n            //Just avoid stack too deep\r\n            \r\n            \r\n            totalFakeC = addmod(totalFakeC, pf.c, q);\r\n            T[i] = pf.T;\r\n\r\n        }\r\n\r\n        for( i=real+1; i<liveHands.length; i++){\r\n            emit Process(i);\r\n            pf = proofs[i]; \r\n            (pf.g, pf.A, pf.message,) = forgeProof(werewolf,liveHands[i],victim);\r\n            (, pf.T, pf.c, pf.s) = forgeProof(werewolf,liveHands[i],victim);\r\n            //Just avoid stack too deep\r\n            totalFakeC = addmod(totalFakeC, pf.c, q);\r\n            T[i] = pf.T;\r\n        }\r\n        emit Process(real);\r\n        //1 real proof\r\n        pf = proofs[ real ];\r\n        \r\n        //i) choose t\r\n        uint realt = uint(keccak256(werewolf, liveHands, victim));\r\n        realt = uint(keccak256(realt, pokerKey)) % q;//avoid stack too deep\r\n        //add index of proof? pokerKey instead\r\n        //add pokerKey for randomness\r\n        \r\n        //ii) compute T\r\n        uint[3] memory realT = Secp256k1_noconflict._mul(realt, werewolf);\r\n        ECCMath_noconflict.toZ1(realT,p);\r\n        T[ real ] = realT;\r\n        \r\n        //iii) compute c\r\n        uint challenge = uint(keccak256(werewolf, liveHands, victim,T)) % q;\r\n        uint realc = addmod(challenge, q-totalFakeC, q);//submod, avoid rounding when negative\r\n        //iv) create proof\r\n        (pf.g, pf.A, pf.message,) = createSchnorr(pokerKey,werewolf,liveHands[real],victim, realt, realc);\r\n        (, pf.T, pf.c, pf.s) = createSchnorr(pokerKey,werewolf,liveHands[real],victim,realt,realc);\r\n    }\r\n\r\n    function easyPublishProofs(uint pokerKey, uint victim, uint real) public{\r\n        assert(problems.length != 0);\r\n        publishProofs(pokerKey, G, problems, victim, real);\r\n    }\r\n\r\n    function createProofs(uint pokerKey,  uint victim, uint real) public view returns(PoK[] pfs){//although we can use experimental abi in solidty. web3 may have not support it \r\n        //input: conditions \r\n        //output: store conditions & PoK\r\n        //uint[2] memory werewolf= [G[0],G[1]];\r\n        \r\n        //require(real<problems.length);\r\n        \r\n        uint totalFakeC = 0;\r\n        \r\n        uint[3][ ] memory T = new uint[3][](problems.length);\r\n\r\n        // m-1 \"fake\" proof\r\n        uint i=0;\r\n        pfs = new PoK[](problems.length);\r\n        PoK memory pf = pfs[0];\r\n\r\n        for( i=0; i<real; i++){\r\n            pf = pfs[i];\r\n            (pf.g, pf.A, pf.message,) = forgeProof(G,problems[i],victim);\r\n            (, pf.T, pf.c, pf.s) = forgeProof(G,problems[i],victim);\r\n            //Just avoid stack too deep\r\n            \r\n            \r\n            totalFakeC = addmod(totalFakeC, pf.c, q);\r\n            T[i] = pf.T;\r\n\r\n        }\r\n\r\n        for( i=real+1; i<problems.length; i++){\r\n            pf = pfs[i]; \r\n            (pf.g, pf.A, pf.message,) = forgeProof(G,problems[i],victim);\r\n            (, pf.T, pf.c, pf.s) = forgeProof(G,problems[i],victim);\r\n            //Just avoid stack too deep\r\n            totalFakeC = addmod(totalFakeC, pf.c, q);\r\n            T[i] = pf.T;\r\n        }\r\n        //1 real proof\r\n        pf = pfs[ real ];\r\n        \r\n        //i) choose t\r\n        uint realt = uint(keccak256(G, problems, victim));\r\n        realt = uint(keccak256(realt, pokerKey)) % q;//avoid stack too deep\r\n        //add index of proof? pokerKey instead\r\n        //add pokerKey for randomness\r\n        \r\n        //ii) compute T\r\n        uint[3] memory realT = Secp256k1_noconflict._mul(realt, G);\r\n        ECCMath_noconflict.toZ1(realT,p);\r\n        T[ real ] = realT;\r\n        \r\n        //iii) compute c\r\n        uint challenge = uint(keccak256(G, problems, victim,T)) % q;\r\n        uint realc = addmod(challenge, q-totalFakeC, q);//submod, avoid rounding when negative\r\n        //iv) create proof\r\n        (pf.g, pf.A, pf.message,) = createSchnorr(pokerKey,G,problems[real],victim, realt, realc);\r\n        (, pf.T, pf.c, pf.s) = createSchnorr(pokerKey,G,problems[real],victim,realt,realc);\r\n    }\r\n\r\n    /*function verifySchnorr(uint[2] g,uint[2] A, uint message, uint[3] T, uint c, uint s) public view returns (bool result) {\r\n        if (!Secp256k1_noconflict.isPubKey(A)) return false;\r\n        if (!Secp256k1_noconflict.isPubKey(T)) return false;\r\n        \r\n        //1 Check c   \r\n        if (c!=uint(keccak256(g,A, message,T)) % q) return false;//Check the message\r\n        \r\n        //2 Check equation\r\n        uint[3] memory LHS = Secp256k1_noconflict._mul(s, g);\r\n        uint[3] memory RHS = Secp256k1_noconflict._add(T,Secp256k1_noconflict._mul(c, A));\r\n        //_add: Jacobi -> Jacobi\r\n        // Convert to Affine Co-ordinates\r\n        ECCMath_noconflict.toZ1(LHS, p);\r\n        ECCMath_noconflict.toZ1(RHS, p);\r\n        // Verify. Do they match?\r\n        if(RHS[0] == LHS[0] &&\r\n           RHS[1] == LHS[1]) {\r\n            return true;\r\n        } else {\r\n                return false;\r\n            }\r\n    }*/\r\n\r\n    function verifySchnorr(uint[2] g,uint[2] A, /*uint message,*/ uint[3] T, uint c, uint s) public view returns (bool result) {\r\n        if (!Secp256k1_noconflict.isPubKey(A)) return false;\r\n        if (!Secp256k1_noconflict.isPubKey(T)) return false;\r\n        if(c ==0 && s==0) return false;//catch the error in createSchnorr\r\n        //1 Check c   \r\n        //if (c!=uint(keccak256(g,A, message,T)) % q) return false;//Check the message\r\n        \r\n        //2 Check equation\r\n        uint[3] memory LHS = Secp256k1_noconflict._mul(s, g);\r\n        uint[3] memory RHS = Secp256k1_noconflict._add(T,Secp256k1_noconflict._mul(c, A));\r\n        //_add: Jacobi -> Jacobi\r\n        // Convert to Affine Co-ordinates\r\n        ECCMath_noconflict.toZ1(LHS, p);\r\n        ECCMath_noconflict.toZ1(RHS, p);\r\n        // Verify. Do they match?\r\n        if(RHS[0] == LHS[0] &&\r\n           RHS[1] == LHS[1]) {\r\n            return true;\r\n        } else {\r\n                return false;\r\n            }\r\n    }\r\n\r\n    //Eason:check the proofs in the contract\r\n    function easyVerifyProofs() public returns (bool result) { \r\n\r\n        uint challenge = 0;\r\n        uint[3][ ] memory Ts = new uint[3][](proofs.length);\r\n        uint[2][ ] memory As = new uint[2][](proofs.length);\r\n        \r\n        PoK memory pf;\r\n        for(uint i=0; i<proofs.length; i++){\r\n            pf = proofs[i];\r\n            if(!verifySchnorr(pf.g, pf.A, /*pf.message,*/ pf.T, pf.c, pf.s)) {\r\n                emit Fail(i);\r\n                return false;\r\n            }\r\n\r\n            challenge = addmod(pf.c, challenge, q);\r\n            As[i] = pf.A;\r\n            Ts[i] = pf.T;\r\n        }\r\n        pf = proofs[0];\r\n        if (!(challenge == uint(keccak256(pf.g, As, pf.message, Ts)) % q)) return false;//Check the message\r\n        return true;\r\n    }\r\n    /*function test(uint pokerKey, uint victim) public view  returns(bool, uint, uint[2], uint[2], uint, uint[3], uint, uint){\r\n        bool result = verifyProofs(prove(pokerKey, G, [hand[0],hand[1]], victim));\r\n        \r\n        return (result,prove(pokerKey, G, [hand[0],hand[1]], victim)) ;\r\n    }*/\r\n\r\n    function testSchnorr(uint pokerKey, uint[2] werewolf, uint[2] liveHand, uint victim) public view returns(bool result, uint[2] _G, uint[2] A, uint message, uint[3] T, uint c, uint s){\r\n        //test \"real\" also \"fake\" proof\r\n        if(werewolf[0]==0 && werewolf[1]==0 && liveHand[0]==0 && liveHand[1]==0){\r\n            (werewolf[0],werewolf[1]) = (G[0],G[1]);\r\n            (liveHand[0],liveHand[1]) = (problems[0][0], problems[0][1]);\r\n        }\r\n        require(werewolf[0]!=0 && werewolf[1]!=0 && liveHand[0]!=0 && liveHand[1]!=0);\r\n        //message = victim;\r\n        if(pokerKey != 0){\r\n            //uint secret = pokerKey;\r\n            (_G, A, message,T,c,s) = createSchnorr(pokerKey, werewolf, liveHand, victim, 0 ,0 );\r\n        }else{\r\n            (_G, A, message,T,c,s) = forgeProof(werewolf, liveHand, victim);\r\n        }\r\n        result=verifySchnorr(_G, A, /*message,*/ T,c,s);\r\n    }\r\n\r\n    struct PoK{\r\n        uint[2] g; \r\n        uint[2] A; \r\n        uint message; \r\n        uint[3] T; \r\n        uint c; \r\n        uint s;\r\n    }\r\n    \r\n    event Fail(uint pf);\r\n    event Process(uint pf);\r\n    event Check(uint a,uint b);\r\n}\r\n",
  "sourcePath": "C:\\Users\\eason\\Documents\\GitHub\\SmartWerewolf\\contracts\\OrPoK.sol",
  "compiler": {
    "name": "solc",
    "version": "0.4.24+commit.e67f0147.Emscripten.clang"
  },
  "schemaVersion": "2.0.1",
  "updatedAt": "2019-03-16T12:02:33.659Z"
}