{
  "contractName": "OrPoK",
  "abi": [
    {
      "constant": true,
      "inputs": [
        {
          "name": "",
          "type": "uint256"
        },
        {
          "name": "",
          "type": "uint256"
        }
      ],
      "name": "problems",
      "outputs": [
        {
          "name": "",
          "type": "uint256"
        }
      ],
      "payable": false,
      "stateMutability": "view",
      "type": "function"
    },
    {
      "constant": true,
      "inputs": [
        {
          "name": "",
          "type": "uint256"
        }
      ],
      "name": "G",
      "outputs": [
        {
          "name": "",
          "type": "uint256"
        }
      ],
      "payable": false,
      "stateMutability": "view",
      "type": "function"
    },
    {
      "constant": true,
      "inputs": [
        {
          "name": "",
          "type": "uint256"
        }
      ],
      "name": "proofs",
      "outputs": [
        {
          "name": "message",
          "type": "uint256"
        },
        {
          "name": "c",
          "type": "uint256"
        },
        {
          "name": "s",
          "type": "uint256"
        }
      ],
      "payable": false,
      "stateMutability": "view",
      "type": "function"
    },
    {
      "constant": true,
      "inputs": [],
      "name": "q",
      "outputs": [
        {
          "name": "",
          "type": "uint256"
        }
      ],
      "payable": false,
      "stateMutability": "view",
      "type": "function"
    },
    {
      "inputs": [],
      "payable": false,
      "stateMutability": "nonpayable",
      "type": "constructor"
    },
    {
      "anonymous": false,
      "inputs": [
        {
          "indexed": false,
          "name": "pf",
          "type": "uint256"
        }
      ],
      "name": "Fail",
      "type": "event"
    },
    {
      "anonymous": false,
      "inputs": [
        {
          "indexed": false,
          "name": "pf",
          "type": "uint256"
        }
      ],
      "name": "Process",
      "type": "event"
    },
    {
      "constant": false,
      "inputs": [
        {
          "name": "pokerKeys",
          "type": "uint256[]"
        }
      ],
      "name": "setProblems",
      "outputs": [],
      "payable": false,
      "stateMutability": "nonpayable",
      "type": "function"
    },
    {
      "constant": true,
      "inputs": [
        {
          "name": "i",
          "type": "uint256"
        }
      ],
      "name": "getProblems",
      "outputs": [
        {
          "name": "point",
          "type": "uint256[2]"
        }
      ],
      "payable": false,
      "stateMutability": "view",
      "type": "function"
    },
    {
      "constant": true,
      "inputs": [],
      "name": "getProblemsLength",
      "outputs": [
        {
          "name": "",
          "type": "uint256"
        }
      ],
      "payable": false,
      "stateMutability": "view",
      "type": "function"
    },
    {
      "constant": true,
      "inputs": [
        {
          "name": "pokerKey",
          "type": "uint256"
        },
        {
          "name": "werewolf",
          "type": "uint256[2]"
        },
        {
          "name": "liveHand",
          "type": "uint256[2]"
        },
        {
          "name": "victim",
          "type": "uint256"
        },
        {
          "name": "tReady",
          "type": "uint256"
        },
        {
          "name": "cReady",
          "type": "uint256"
        }
      ],
      "name": "createSchnorr",
      "outputs": [
        {
          "name": "g",
          "type": "uint256[2]"
        },
        {
          "name": "A",
          "type": "uint256[2]"
        },
        {
          "name": "message",
          "type": "uint256"
        },
        {
          "name": "T",
          "type": "uint256[3]"
        },
        {
          "name": "c",
          "type": "uint256"
        },
        {
          "name": "s",
          "type": "uint256"
        }
      ],
      "payable": false,
      "stateMutability": "view",
      "type": "function"
    },
    {
      "constant": true,
      "inputs": [
        {
          "name": "real",
          "type": "uint256"
        },
        {
          "name": "pokerKey",
          "type": "uint256"
        },
        {
          "name": "victim",
          "type": "uint256"
        },
        {
          "name": "tReady",
          "type": "uint256"
        },
        {
          "name": "cReady",
          "type": "uint256"
        }
      ],
      "name": "easyCreateSchnorr",
      "outputs": [
        {
          "name": "g",
          "type": "uint256[2]"
        },
        {
          "name": "A",
          "type": "uint256[2]"
        },
        {
          "name": "message",
          "type": "uint256"
        },
        {
          "name": "T",
          "type": "uint256[3]"
        },
        {
          "name": "c",
          "type": "uint256"
        },
        {
          "name": "s",
          "type": "uint256"
        }
      ],
      "payable": false,
      "stateMutability": "view",
      "type": "function"
    },
    {
      "constant": true,
      "inputs": [
        {
          "name": "werewolf",
          "type": "uint256[2]"
        },
        {
          "name": "liveHand",
          "type": "uint256[2]"
        },
        {
          "name": "victim",
          "type": "uint256"
        }
      ],
      "name": "forgeProof",
      "outputs": [
        {
          "name": "H",
          "type": "uint256[2]"
        },
        {
          "name": "B",
          "type": "uint256[2]"
        },
        {
          "name": "message",
          "type": "uint256"
        },
        {
          "name": "T2",
          "type": "uint256[3]"
        },
        {
          "name": "c2",
          "type": "uint256"
        },
        {
          "name": "s2",
          "type": "uint256"
        }
      ],
      "payable": false,
      "stateMutability": "view",
      "type": "function"
    },
    {
      "constant": true,
      "inputs": [
        {
          "name": "i",
          "type": "uint256"
        },
        {
          "name": "victim",
          "type": "uint256"
        }
      ],
      "name": "easyForgeProof",
      "outputs": [
        {
          "name": "H",
          "type": "uint256[2]"
        },
        {
          "name": "B",
          "type": "uint256[2]"
        },
        {
          "name": "message",
          "type": "uint256"
        },
        {
          "name": "T2",
          "type": "uint256[3]"
        },
        {
          "name": "c2",
          "type": "uint256"
        },
        {
          "name": "s2",
          "type": "uint256"
        }
      ],
      "payable": false,
      "stateMutability": "view",
      "type": "function"
    },
    {
      "constant": true,
      "inputs": [
        {
          "name": "pokerKey",
          "type": "uint256"
        },
        {
          "name": "victim",
          "type": "uint256"
        },
        {
          "name": "real",
          "type": "uint256"
        }
      ],
      "name": "easyComputeRealt",
      "outputs": [
        {
          "name": "realt",
          "type": "uint256"
        }
      ],
      "payable": false,
      "stateMutability": "view",
      "type": "function"
    },
    {
      "constant": true,
      "inputs": [
        {
          "name": "realt",
          "type": "uint256"
        }
      ],
      "name": "computeTFrom",
      "outputs": [
        {
          "name": "realT",
          "type": "uint256[3]"
        }
      ],
      "payable": false,
      "stateMutability": "view",
      "type": "function"
    },
    {
      "constant": true,
      "inputs": [
        {
          "name": "victim",
          "type": "uint256"
        },
        {
          "name": "real",
          "type": "uint256"
        },
        {
          "name": "Ts",
          "type": "uint256[3][]"
        }
      ],
      "name": "easyComputeChallenge",
      "outputs": [
        {
          "name": "realChallenge",
          "type": "uint256"
        }
      ],
      "payable": false,
      "stateMutability": "view",
      "type": "function"
    },
    {
      "constant": false,
      "inputs": [
        {
          "name": "pokerKey",
          "type": "uint256"
        },
        {
          "name": "werewolf",
          "type": "uint256[2]"
        },
        {
          "name": "liveHands",
          "type": "uint256[2][]"
        },
        {
          "name": "victim",
          "type": "uint256"
        },
        {
          "name": "real",
          "type": "uint256"
        }
      ],
      "name": "publishProofs",
      "outputs": [],
      "payable": false,
      "stateMutability": "nonpayable",
      "type": "function"
    },
    {
      "constant": false,
      "inputs": [
        {
          "name": "pokerKey",
          "type": "uint256"
        },
        {
          "name": "victim",
          "type": "uint256"
        },
        {
          "name": "real",
          "type": "uint256"
        }
      ],
      "name": "easyPublishProofs",
      "outputs": [],
      "payable": false,
      "stateMutability": "nonpayable",
      "type": "function"
    },
    {
      "constant": false,
      "inputs": [
        {
          "name": "pokerKey",
          "type": "uint256"
        },
        {
          "name": "victim",
          "type": "uint256"
        },
        {
          "name": "real",
          "type": "uint256"
        }
      ],
      "name": "createProofs",
      "outputs": [
        {
          "components": [
            {
              "name": "g",
              "type": "uint256[2]"
            },
            {
              "name": "A",
              "type": "uint256[2]"
            },
            {
              "name": "message",
              "type": "uint256"
            },
            {
              "name": "T",
              "type": "uint256[3]"
            },
            {
              "name": "c",
              "type": "uint256"
            },
            {
              "name": "s",
              "type": "uint256"
            }
          ],
          "name": "pfs",
          "type": "tuple[]"
        }
      ],
      "payable": false,
      "stateMutability": "nonpayable",
      "type": "function"
    },
    {
      "constant": true,
      "inputs": [
        {
          "name": "g",
          "type": "uint256[2]"
        },
        {
          "name": "A",
          "type": "uint256[2]"
        },
        {
          "name": "T",
          "type": "uint256[3]"
        },
        {
          "name": "c",
          "type": "uint256"
        },
        {
          "name": "s",
          "type": "uint256"
        }
      ],
      "name": "verifySchnorr",
      "outputs": [
        {
          "name": "result",
          "type": "bool"
        }
      ],
      "payable": false,
      "stateMutability": "view",
      "type": "function"
    },
    {
      "constant": false,
      "inputs": [],
      "name": "easyVerifyProofs",
      "outputs": [
        {
          "name": "result",
          "type": "bool"
        }
      ],
      "payable": false,
      "stateMutability": "nonpayable",
      "type": "function"
    },
    {
      "constant": true,
      "inputs": [
        {
          "name": "pokerKey",
          "type": "uint256"
        },
        {
          "name": "werewolf",
          "type": "uint256[2]"
        },
        {
          "name": "liveHand",
          "type": "uint256[2]"
        },
        {
          "name": "victim",
          "type": "uint256"
        }
      ],
      "name": "testSchnorr",
      "outputs": [
        {
          "name": "result",
          "type": "bool"
        },
        {
          "name": "_G",
          "type": "uint256[2]"
        },
        {
          "name": "A",
          "type": "uint256[2]"
        },
        {
          "name": "message",
          "type": "uint256"
        },
        {
          "name": "T",
          "type": "uint256[3]"
        },
        {
          "name": "c",
          "type": "uint256"
        },
        {
          "name": "s",
          "type": "uint256"
        }
      ],
      "payable": false,
      "stateMutability": "view",
      "type": "function"
    }
  ],
  "bytecode": "0x6060604052341561000f57600080fd5b7f79be667ef9dcbbac55a06295ce870b07029bfcdb2dce28d959f2815b16f8179860008001557f483ada7726a3c4655da4fbfc0e1108a8fd17b448a68554199c47d08ffb10d4b8600060010155613ea88061006b6000396000f3006060604052600436106101115763ffffffff7c01000000000000000000000000000000000000000000000000000000006000350416630fe898c381146101165780632b0c1aba1461014a5780632cf969ed14610175578063361c5ed5146101a55780634420a3f8146101d057806346f97d98146101fb57806350a3f0731461021b5780635c3321921461022e5780635d09d2ad1461024c5780635d0c044c1461025f5780636565c67b1461028a5780637cb63ec8146102a85780638dc095b4146102c65780639ddaf5aa146102e4578063a2cf930814610311578063c61a0e871461032f578063cbcc2b971461034d578063d168b9dc1461036b578063d4540ff71461039c578063fd3ab282146103ba575b600080fd5b341561012157600080fd5b61013461012f366004613933565b6103cd565b6040516101419190613d6d565b60405180910390f35b341561015557600080fd5b6101686101633660046136ab565b6103ff565b6040516101419190613cf4565b341561018057600080fd5b61019361018e366004613933565b6104b8565b60405161014196959493929190613c89565b34156101b057600080fd5b6101c36101be3660046137ac565b610576565b6040516101419190613ce6565b34156101db57600080fd5b6101ee6101e93660046139c8565b6105d1565b6040516101419190613c6a565b341561020657600080fd5b61021961021436600461376f565b610cee565b005b341561022657600080fd5b610168610dd3565b341561023957600080fd5b610193610247366004613a0b565b611262565b341561025757600080fd5b610134611327565b341561026a57600080fd5b61027d6102783660046137ac565b61132e565b6040516101419190613c7b565b341561029557600080fd5b6101346102a336600461396d565b611398565b34156102b357600080fd5b6101346102c13660046137ac565b611488565b34156102d157600080fd5b6102196102df3660046137ca565b61149c565b34156102ef57600080fd5b6103026102fd3660046137ac565b611abd565b60405161014193929190613d7b565b341561031c57600080fd5b61019361032a366004613722565b611af1565b341561033a57600080fd5b6102196103483660046139c8565b611cd2565b341561035857600080fd5b6101346103663660046139c8565b611d9a565b341561037657600080fd5b61038961038436600461384a565b611e4d565b6040516101419796959493929190613d02565b34156103a757600080fd5b6101936103b53660046138ab565b611f8b565b34156103c557600080fd5b61013461221f565b60028054839081106103db57fe5b9060005260206000209060020201816002811015156103f657fe5b01549150829050565b6000610409613138565b610411613138565b61041a87612231565b151561042957600092506104ad565b61043286612242565b151561044157600092506104ad565b61044b848961226a565b91506104608661045b878a61226a565b612696565b9050610472826401000003d0196128ff565b610482816401000003d0196128ff565b8151815114801561049a575060208201516020820151145b156104a857600192506104ad565b600092505b505095945050505050565b6104c061315f565b6104c861315f565b60006104d2613138565b600080610561816002604080519081016040529190828260026020028201915b8154815260200190600101908083116104f257505050505060028a81548110151561051957fe5b90600052602060002090600202016002806020026040519081016040529190828260026020028201915b81548152602001906001019080831161054357505050505089611af1565b949d939c50919a509850965090945092505050565b61057e613138565b6105ba8260006002604080519081016040529190828260026020028201915b81548152602001906001019080831161059d57505050505061226a565b90506105cc816401000003d0196128ff565b919050565b6105d9613178565b60006105e3613178565b60006105ed61318a565b60006105f7613138565b60025460009081908a1061060a57600080fd5b6002546000985060405180591061061e5750595b90808252806020026020018201604052801561065457816020015b610641613138565b8152602001906001900390816106395790505b506002549097506000965060405180591061066c5750595b9080825280602002602001820160405280156106a257816020015b61068f61318a565b8152602001906001900390816106875790505b509850886000815181106106b257fe5b906020019060200201519450600095505b8986101561084457600080516020613e2f833981519152866040516106e89190613d6d565b60405180910390a18886815181106106fc57fe5b90602001906020020151945061079560006002604080519081016040529190828260026020028201915b81548152602001906001019080831161072657505050505060028881548110151561074d57fe5b90600052602060002090600202016002806020026040519081016040529190828260026020028201915b8154815260200190600101908083116107775750505050508d611af1565b50505060408089019190915260208801919091529086526107ed906000906002908051908101604090815283548252909291908301600183016020850180831161072657505050505060028881548110151561074d57fe5b60a08b015260808a0152606089015250600080516020613e4f83398151915291506108159050565b856080015189089750846060015187878151811061082f57fe5b602090810290910101526001909501946106c3565b8960010195505b60025486101561098157600080516020613e2f833981519152866040516108729190613d6d565b60405180910390a188868151811061088657fe5b9060200190602002015194506108d26000600260408051908101604090815283548252909291908301600183016020850180831161072657505050505060028881548110151561074d57fe5b505050604080890191909152602088019190915290865261092a906000906002908051908101604090815283548252909291908301600183016020850180831161072657505050505060028881548110151561074d57fe5b60a08b015260808a0152606089015250600080516020613e4f83398151915291506109529050565b856080015189089750846060015187878151811061096c57fe5b6020908102909101015260019095019461084b565b600080516020613e2f8339815191528a60405161099e9190613d6d565b60405180910390a1888a815181106109b257fe5b906020019060200201519450600060028c6040516040810184825b8154815260200190600101908083116109cd5750508380548015610a2657604002820191906000526020600020905b604081019082905b815481526020019060010190808311610a0457505090600201908083116109fc575b505082815260200193505050506040519081900390209350600080516020613e4f833981519152848d604051918252602082015260409081019051908190039020811515610a7057fe5b069350610aaa846000600260408051908101604090815283548252909291908301600183016020850180831161059d57505050505061226a565b9250610abc836401000003d0196128ff565b82878b81518110610ac957fe5b60209081029091010152600080516020613e4f833981519152600060028d8a6040516040810185825b815481526020019060010190808311610af25750508480548015610b4b57604002820191906000526020600020905b604081019082905b815481526020019060010190808311610b295750509060020190808311610b21575b50508381526020018280516000925b81841015610b9c57602080850284010151606080838360005b83811015610b8b578082015183820152602001610b73565b505050509050019260010192610b5a565b92505050945050505050604051908190039020811515610bb857fe5b069150600080516020613e4f83398151915288600080516020613e4f8339815191520383089050610c6f8c60006002604080519081016040529190828260026020028201915b815481526020019060010190808311610bfe57505050505060028d815481101515610c2557fe5b90600052602060002090600202016002806020026040519081016040529190828260026020028201915b815481526020019060010190808311610c4f5750505050508e8886611f8b565b5050506040808901919091526020880191909152908652610cc9908d9060009060029080519081016040908152835482529092919083016001830160208501808311610bfe57505050505060028d815481101515610c2557fe5b60a08b015260808a015260609098019790975250989c9b505050505050505050505050565b6000610cf8613138565b8251610d056002826131d4565b50600091505b600254821015610dce57610d61838381518110610d2457fe5b906020019060200201516000600260408051908101604090815283548252909291908301600183016020850180831161059d57505050505061226a565b9050610d73816401000003d0196128ff565b805160208201516002805485908110610d8857fe5b60009182526020822060028054928102909101929187908110610da757fe5b60009182526020909120600290910201600101929092559190915550600190910190610d0b565b505050565b600080610dde613178565b610de6613178565b610dee61318a565b600354600094508490604051805910610e045750595b908082528060200260200182016040528015610e3a57816020015b610e27613138565b815260200190600190039081610e1f5790505b50600354909450604051805910610e4e5750595b908082528060200260200182016040528015610e8457816020015b610e7161315f565b815260200190600190039081610e695790505b509250600090505b60035481101561104c576003805482908110610ea457fe5b90600052602060002090600a020160c06040519081016040529081600082016002806020026040519081016040529190828260026020028201915b815481526020019060010190808311610edf5750505050508152602001600282016002806020026040519081016040529190828260026020028201915b815481526020019060010190808311610f1c5750505050508152602001600482015481526020016005820160038060200260405190810160405291906060830182845b815481526020019060010190808311610f5f575050509183525050600882015460208201526009909101546040909101529150610fb082518360200151846060015185608001518660a001516103ff565b1515610ff6577f123de41493f6e442c2fdb676dd1c3d9f1e0a7b7531ca0cdb9f1026f7569e2bff81604051610fe59190613d6d565b60405180910390a16000955061125a565b600080516020613e4f833981519152858360800151089450816020015183828151811061101f57fe5b60209081029091010152606082015184828151811061103a57fe5b60209081029091010152600101610e8c565b60038054600090811061105b57fe5b90600052602060002090600a020160c06040519081016040529081600082016002806020026040519081016040529190828260026020028201915b8154815260200190600101908083116110965750505050508152602001600282016002806020026040519081016040529190828260026020028201915b8154815260200190600101908083116110d35750505050508152602001600482015481526020016005820160038060200260405190810160405291906060830182845b815481526020019060010190808311611116575050509183525050600882015460208201526009909101546040909101529150600080516020613e4f8339815191528251848460400151876040518085604080838360005b8381101561118657808201518382015260200161116e565b505050509050018480516000925b818410156111d657602080850284010151604080838360005b838110156111c55780820151838201526020016111ad565b505050509050019260010192611194565b925050508381526020018280516000925b8184101561122957602080850284010151606080838360005b83811015611218578082015183820152602001611200565b5050505090500192600101926111e7565b9250505094505050505060405190819003902081151561124557fe5b068514611255576000955061125a565b600195505b505050505090565b61126a61315f565b61127261315f565b600061127c613138565b60008061130e8a826002604080519081016040529190828260026020028201915b81548152602001906001019080831161129d57505050505060028e8154811015156112c457fe5b90600052602060002090600202016002806020026040519081016040529190828260026020028201915b8154815260200190600101908083116112ee5750505050508c8c8c611f8b565b9550955095509550955095509550955095509550955095565b6002545b90565b61133661315f565b600254821061134157fe5b600280548390811061134f57fe5b90600052602060002090600202016002806020026040519081016040529190828260026020028201915b8154815260200190600101908083116113795750505050509050919050565b6000600080516020613e4f8339815191526000600286856040516040810185825b8154815260200190600101908083116113b9575050848054801561141257604002820191906000526020600020905b604081019082905b8154815260200190600101908083116113f057505090600201908083116113e8575b50508381526020018280516000925b8184101561146357602080850284010151606080838360005b8381101561145257808201518382015260200161143a565b505050509050019260010192611421565b9250505094505050505060405190819003902081151561147f57fe5b06949350505050565b6000816002811061149557fe5b0154905081565b60006114a6613178565b60008060006114b3613138565b6000808a5189106114c357600080fd5b600097508a516040518059106114d65750595b90808252806020026020018201604052801561150c57816020015b6114f9613138565b8152602001906001900390816114f15790505b509650600095508a51611520600382613200565b5060038054600090811061153057fe5b90600052602060002090600a02019450600095505b8886101561168a57600080516020613e2f8339815191528660405161156a9190613d6d565b60405180910390a1600380548790811061158057fe5b90600052602060002090600a020194506115b08c8c88815181106115a057fe5b906020019060200201518c611af1565b505050600488018190558760006115cd600280840190869061322c565b506115dc91905084600261322c565b505050506115f08c8c88815181106115a057fe5b60098b0181905560088b01829055919450925090506116146005890184600361326a565b50600080516020613e4f833981519152925061162e915050565b856008015489089750600585016003606060405190810160405291906060830182845b81548152602001906001019080831161165157505050505087878151811061167557fe5b60209081029091010152600190950194611545565b8860010195505b8a518610156117c757600080516020613e2f833981519152866040516116b79190613d6d565b60405180910390a160038054879081106116cd57fe5b90600052602060002090600a020194506116ed8c8c88815181106115a057fe5b5050506004880181905587600061170a600280840190869061322c565b5061171991905084600261322c565b5050505061172d8c8c88815181106115a057fe5b60098b0181905560088b01829055919450925090506117516005890184600361326a565b50600080516020613e4f833981519152925061176b915050565b856008015489089750600585016003606060405190810160405291906060830182845b81548152602001906001019080831161178e5750505050508787815181106117b257fe5b60209081029091010152600190950194611691565b600080516020613e2f833981519152896040516117e49190613d6d565b60405180910390a1600380548a9081106117fa57fe5b90600052602060002090600a020194508b8b8b6040518084604080838360005b8381101561183257808201518382015260200161181a565b505050509050018380516000925b8184101561188257602080850284010151604080838360005b83811015611871578082015183820152602001611859565b505050509050019260010192611840565b9250505082815260200193505050506040519081900390209350600080516020613e4f833981519152848e6040519182526020820152604090810190519081900390208115156118ce57fe5b0693506118db848d61226a565b92506118ed836401000003d0196128ff565b82878a815181106118fa57fe5b60209081029091010152600080516020613e4f8339815191528c8c8c8a6040518085604080838360005b8381101561193c578082015183820152602001611924565b505050509050018480516000925b8184101561198c57602080850284010151604080838360005b8381101561197b578082015183820152602001611963565b50505050905001926001019261194a565b925050508381526020018280516000925b818410156119df57602080850284010151606080838360005b838110156119ce5780820151838201526020016119b6565b50505050905001926001019261199d565b925050509450505050506040519081900390208115156119fb57fe5b069150600080516020613e4f83398151915288600080516020613e4f8339815191520383089050611a458d8d8d8c81518110611a3357fe5b906020019060200201518d8886611f8b565b50505060048801819055876000611a62600280840190869061322c565b50611a7191905084600261322c565b50505050611a868d8d8d8c81518110611a3357fe5b60098b0181905560088b0182905591945092509050611aaa6005890184600361326a565b5050505050505050505050505050505050565b6003805482908110611acb57fe5b60009182526020909120600a909102016004810154600882015460099092015490925083565b611af961315f565b611b0161315f565b6000611b0b613138565b600080611b16613138565b611b1e613138565b8a5160208c015160208a01528852895160208b015160208901528752889550600080516020613e4f833981519152600188886040517f010000000000000000000000000000000000000000000000000000000000000060ff85160281526001810183604080838360005b83811015611ba0578082015183820152602001611b88565b505050509050018281526020019350505050604051908190039020811515611bc457fe5b069350600080516020613e4f833981519152600288886040517f010000000000000000000000000000000000000000000000000000000000000060ff85160281526001810183604080838360005b83811015611c2a578082015183820152602001611c12565b505050509050018281526020019350505050604051908190039020811515611c4e57fe5b069250611c5b838961226a565b9150611c67848861226a565b9050611c79816401000003d0196128ff565b6060604051908101604052808251815260200182600160200201516401000003d01903815260200160018152509450611cb28286612696565b9450611cc4856401000003d0196128ff565b505093975093979195509350565b6002541515611cdd57fe5b610dce8360006002604080519081016040529190828260026020028201915b815481526020019060010190808311611cfc575050505050600280548060200260200160405190810160405281815291906000602084015b82821015611d8f57838290600052602060002090600202016002806020026040519081016040529190828260026020028201915b815481526020019060010190808311611d6857505050505081526020019060010190611d34565b50505050858561149c565b6000806002846040516040810184825b815481526020019060010190808311611daa5750508380548015611e0357604002820191906000526020600020905b604081019082905b815481526020019060010190808311611de15750509060020190808311611dd9575b505082815260200193505050506040519081900390209050600080516020613e4f833981519152818560405191825260208201526040908101905190819003902081151561147f57fe5b6000611e5761315f565b611e5f61315f565b6000611e69613138565b6000808951158015611e7d575060208a0151155b8015611e8857508851155b8015611e9657506020890151155b15611ef1576000805460015460208d01528b52600280549091908110611eb857fe5b6000918252602082206002918202015481549092908110611ed557fe5b600091825260209182902060016002909202010154908b015289525b895115801590611f04575060208a015115155b8015611f105750885115155b8015611f1f5750602089015115155b1515611f2a57600080fd5b8a15611f5357611f3f8b8b8b8b600080611f8b565b949a50929850909650945092509050611f6e565b611f5e8a8a8a611af1565b949a509298509096509450925090505b611f7b86868585856103ff565b9650949950949992975094509450565b611f9361315f565b611f9b61315f565b6000611fa5613138565b6000806000611fb2613138565b8d915060008d5160208f015160208b015289528c5160208e015160208a015288528b9650611fe0838a61226a565b9150611ff2826401000003d0196128ff565b8751825114801561200a575060208801516020830151145b151561201557600080fd5b8a1580159061202357508915155b1561207b575089612061816000600260408051908101604090815283548252909291908301600183016020850180831161059d57505050505061226a565b9550612073866401000003d0196128ff565b8994506121e8565b600080516020613e4f833981519152600089896040516040810184825b8154815260200190600101908083116120985750849050604080838360005b838110156120cf5780820151838201526020016120b7565b5050505090500182815260200193505050506040519081900390208115156120f357fe5b06905061212d816000600260408051908101604090815283548252909291908301600183016020850180831161059d57505050505061226a565b955061213f866401000003d0196128ff565b600080516020613e4f83398151915260008989896040516040810185825b81548152602001906001019080831161215d5750859050604080838360005b8381101561219457808201518382015260200161217c565b5050505090500183815260200182600360200280838360005b838110156121c55780820151838201526020016121ad565b505050509050019450505050506040519081900390208115156121e457fe5b0694505b600080516020613e4f83398151915281600080516020613e4f83398151915287860908935050505096509650965096509650969050565b600080516020613e4f83398151915281565b600061223c82612967565b92915050565b600061224c61315f565b825181526020830151602082015261226381612967565b9392505050565b612272613138565b600080600061227f613297565b612287613138565b61228f6132c5565b6401000003d0199550600080808b15156122a857612687565b6000604051985061020089016040525b8c156122f05760018d16156122df5750601f8c16808989015360206010821102818e03019c505b60028d049c506001880197506122b8565b506060604051908101604052808c5181526020018c6001602002015181526001602090910152865261232286516129f9565b945061232e858c612b14565b6020870152612345858760015b6020020151612696565b60408701526123568587600261233b565b60608701526123678587600361233b565b60808701526123788587600461233b565b60a08701526123898587600561233b565b60c087015261239a8587600661233b565b60e08701526020860151604001518452888015156123b457fe5b8451604088015160400151096020850152888015156123cf57fe5b6020850151606088015160400151096040850152888015156123ed57fe5b60408501516080880151604001510960608501528880151561240b57fe5b606085015160a0880151604001510960808501528880151561242957fe5b608085015160c0880151604001510960a08501528880151561244757fe5b60a085015160e0880151604001510960c0850190815261246890518a612d40565b60e08501908152516101008501528880151561248057fe5b61010085015160a0860151096101e0850152600692505b6002831061251457888015156124a957fe5b6101008501518760018601600881106124be57fe5b60200201516040015109610100850152888015156124d857fe5b610100850151856001198601601081106124ee57fe5b60200201510984600885016010811061250357fe5b602002015260001990920191612497565b8880151561251e57fe5b61010085015160408801516040015109610120850152600092505b60078310156125b1576125a686600185016008811061255457fe5b602002015185600986016010811061256857fe5b60200201518b80151561257757fe5b87600988016010811061258657fe5b602002015188600989016010811061259a57fe5b6020020151098c612dde565b600190920191612539565b600087111561268757600019808801978901015160001a91506125d38a612e0d565b601082111561262e57506002601f829003046126298a604080519081016040528089856008811061260057fe5b602002015151815260200189856008811061261757fe5b6020020151602001518d039052612f1e565b612682565b6000821115612682575060026000198201046126828a604080519081016040528089856008811061265b57fe5b602002015151815260200189856008811061267257fe5b6020020151602001519052612f1e565b6125b1565b50505050505050505092915050565b61269e613138565b60006126a86132e0565b6126b06132e0565b60008080808060408b015115156126c9578998506128f1565b60408a015115156126dc578a98506128f1565b6401000003d01997508760408c015160408d0151098752878015156126fd57fe5b875160408d01510960208801528780151561271457fe5b60408b015160408c01510960408801528780151561272e57fe5b604088015160408c01510960608801526080604051908101604052808980151561275457fe5b60408a01518e510981526020018980151561276b57fe5b60608a015160208f01510981526020018980151561278557fe5b89518d510981526020018980151561279957fe5b60208a015160208e015109905295506040860151865114156127d95760608601516020870151146127c9576128f1565b6127d28b6129f9565b98506128f1565b878015156127e357fe5b865189036040880151089450878015156127f957fe5b6020870151890360608801510893508780151561281257fe5b85860992508780151561282157fe5b85840991508780151561283057fe5b8289038980151561283d57fe5b8687090890508780151561284d57fe5b8880151561285757fe5b8980151561286157fe5b8589510960020989038208808a5290508780151561287b57fe5b8880151561288557fe5b828a038a80151561289257fe5b868a510908850960208a0152878015156128a857fe5b888015156128b257fe5b83602089015109890360208b01510860208a0152878015156128d057fe5b888015156128da57fe5b60408c015160408e01510986098960025b60200201525b505050505050505092915050565b600080612910604085015184612d40565b91508280151561291c57fe5b82830990508280151561292b57fe5b8185510984528280151561293b57fe5b8380151561294557fe5b8284098560015b60200201510960208501525050600160409092019190915250565b60006401000003d0198180845115806129805750828551145b8061298d57506020850151155b8061299b5750826020860151145b156129a957600093506129f1565b828015156129b357fe5b60208601516020870151099150828015156129ca57fe5b6007848015156129d657fe5b8751868015156129e257fe5b89518a51090908905080821493505b505050919050565b612a01613138565b6401000003d0196000808080808060408901511515612a1f57612b08565b885195506020890151945086801515612a3457fe5b858609935086801515612a4357fe5b87801515612a4d57fe5b858809600409925086801515612a5f57fe5b87801515612a6957fe5b878809600309915086801515612a7b57fe5b87801515612a8557fe5b848508880388801515612a9457fe5b84850908808952905086801515612aa757fe5b87801515612ab157fe5b88801515612abb57fe5b868709600809880388801515612acd57fe5b89801515612ad757fe5b848b038708850908602089015286801515612aee57fe5b87801515612af857fe5b60408b0151870960020960408901525b50505050505050919050565b612b1c613138565b6000612b2661315f565b612b2e6132e0565b60008080808060408b01511515612b6b576060604051908101604052808b5181526020018b600160200201518152602001600181525098506128f1565b60208a01511515612b7e578a98506128f1565b6401000003d01997508760408c015160408d015109875287801515612b9f57fe5b875160408d01510960208801526080604051908101604052808c5181526020018c60016020020151815260200189801515612bd657fe5b89518d5109815260200189801515612bea57fe5b60208a015160208e01510990529550604086015186511415612c3a576060860151602087015114612c2b576000808c5260208c0181905260408c01526128f1565b612c348b6129f9565b506128f1565b87801515612c4457fe5b86518903604088015108945087801515612c5a57fe5b60208701518903606088015108935087801515612c7357fe5b858609925087801515612c8257fe5b858409915087801515612c9157fe5b82890389801515612c9e57fe5b86870908905087801515612cae57fe5b88801515612cb857fe5b89801515612cc257fe5b8589510960020989038208808a52905087801515612cdc57fe5b88801515612ce657fe5b828a038a801515612cf357fe5b868a510908850960208a015287801515612d0957fe5b88801515612d1357fe5b83602089015109890360208b01510860208a015287801515612d3157fe5b60408c015186098960026128eb565b600080808080808715801590612d565750868814155b8015612d6157508615155b1515612d6c57600080fd5b86881115612d83578688811515612d7f57fe5b0697505b600193508692508791505b8115612db9578183811515612d9f57fe5b949594048581029094039391928383029003919050612d8e565b6000851215612dcf578460000387039550612dd3565b8495505b505050505092915050565b80801515612de857fe5b82855109845280801515612df857fe5b81801515612e0257fe5b83850985600161294c565b6401000003d0196000808080808060408801511515612e2b57612f14565b875195506020880151945086801515612e4057fe5b858609935086801515612e4f57fe5b87801515612e5957fe5b858809600409925086801515612e6b57fe5b87801515612e7557fe5b878809600309915086801515612e8757fe5b87801515612e9157fe5b848508880388801515612ea057fe5b84850908808952905086801515612eb357fe5b87801515612ebd57fe5b88801515612ec757fe5b868709600809880388801515612ed957fe5b89801515612ee357fe5b848b038708850908602089015286801515612efa57fe5b87801515612f0457fe5b60408a0151870960020960408901525b5050505050505050565b6000612f2861315f565b612f306132e0565b60008080808060208a01511515612f5f5788518a52602089015160208b015260018a60025b602002015261312c565b60208901511515612f6f5761312c565b6401000003d01997508760408b015160408c015109875287801515612f9057fe5b875160408c01510960208801526080604051908101604052808b5181526020018b60016020020151815260200189801515612fc757fe5b89518c5109815260200189801515612fdb57fe5b60208a015160208d0151099052955060408601518651141561302857606086015160208701511461301a576000808b5260208b018190528a6002612f55565b6130238a612e0d565b61312c565b8780151561303257fe5b8651890360408801510894508780151561304857fe5b6020870151890360608801510893508780151561306157fe5b85860992508780151561307057fe5b85840991508780151561307f57fe5b8289038980151561308c57fe5b8687090890508780151561309c57fe5b888015156130a657fe5b898015156130b057fe5b8589510960020989038208808b529050878015156130ca57fe5b888015156130d457fe5b828a038a8015156130e157fe5b868a510908850960208b0152878015156130f757fe5b8880151561310157fe5b83602089015109890360208c01510860208b01528780151561311f57fe5b60408b0151860960408b01525b50505050505050505050565b60606040519081016040526003815b60008152602001906001900390816131475790505090565b6040805190810160405260008152600160208201613147565b60206040519081016040526000815290565b6101406040519081016040528061319f61315f565b81526020016131ac61315f565b8152602001600081526020016131c0613138565b815260200160008152602001600081525090565b815481835581811511610dce57600202816002028360005260206000209182019101610dce91906132fa565b815481835581811511610dce57600a0281600a028360005260206000209182019101610dce919061331d565b826002810192821561325a579160200282015b8281111561325a57825182559160200191906001019061323f565b50613266929150613374565b5090565b826003810192821561325a579160200282018281111561325a57825182559160200191906001019061323f565b6103006040519081016040526008815b6132af613138565b8152602001906001900390816132a75790505090565b61020060405190810160405260008152600f60208201613147565b608060405190810160405260008152600360208201613147565b61132b91905b80821115613266576000613314828261338e565b50600201613300565b61132b91905b80821115613266576000613337828261338e565b61334560028301600061338e565b600482016000905560058201600061335d919061339c565b506000600882018190556009820155600a01613323565b61132b91905b80821115613266576000815560010161337a565b506000815560010160009055565b50600081556001016000815560010160009055565b6000601f82018390126133c357600080fd5b81356133d66133d182613dce565b613da3565b915081818352602084019350602081019050838560408402820111156133fb57600080fd5b60005b83811015613429578161341188826134a6565b845250602090920191604091909101906001016133fe565b5050505092915050565b6000601f820183901261344557600080fd5b81356134536133d182613dce565b9150818183526020840193506020810190508385606084028201111561347857600080fd5b60005b83811015613429578161348e888261356a565b8452506020909201916060919091019060010161347b565b6000601f82018390126134b857600080fd5b60026134c66133d182613def565b915081838560208402820111156134dc57600080fd5b60005b8381101561342957816134f2888261369f565b84525060209283019291909101906001016134df565b6000601f820183901261351a57600080fd5b60026135286133d182613def565b9150818385602084028201111561353e57600080fd5b60005b838110156134295781613554888261369f565b8452506020928301929190910190600101613541565b6000601f820183901261357c57600080fd5b600361358a6133d182613def565b915081838560208402820111156135a057600080fd5b60005b8381101561342957816135b6888261369f565b84525060209283019291909101906001016135a3565b6000601f82018390126135de57600080fd5b60036135ec6133d182613def565b9150818385602084028201111561360257600080fd5b60005b838110156134295781613618888261369f565b8452506020928301929190910190600101613605565b6000601f820183901261364057600080fd5b813561364e6133d182613dce565b9150818183526020840193506020810190508385602084028201111561367357600080fd5b60005b838110156134295781613689888261369f565b8452506020928301929190910190600101613676565b6000612263823561132b565b600080600080600061012086880312156136c457600080fd5b60006136d08888613508565b95505060406136e188828901613508565b94505060806136f2888289016135cc565b93505060e06137038882890161369f565b9250506101006137158882890161369f565b9150509295509295909350565b600080600060a0848603121561373757600080fd5b60006137438686613508565b935050604061375486828701613508565b92505060806137658682870161369f565b9150509250925092565b60006020828403121561378157600080fd5b813567ffffffffffffffff81111561379857600080fd5b6137a48482850161362e565b949350505050565b6000602082840312156137be57600080fd5b60006137a4848461369f565b600080600080600060c086880312156137e257600080fd5b60006137ee888861369f565b95505060206137ff88828901613508565b945050606086013567ffffffffffffffff81111561381c57600080fd5b613828888289016133b1565b93505060806138398882890161369f565b92505060a06137158882890161369f565b60008060008060c0858703121561386057600080fd5b600061386c878761369f565b945050602061387d87828801613508565b935050606061388e87828801613508565b92505060a061389f8782880161369f565b91505092959194509250565b60008060008060008061010087890312156138c557600080fd5b60006138d1898961369f565b96505060206138e289828a01613508565b95505060606138f389828a01613508565b94505060a061390489828a0161369f565b93505060c061391589828a0161369f565b92505060e061392689828a0161369f565b9150509295509295509295565b6000806040838503121561394657600080fd5b6000613952858561369f565b92505060206139638582860161369f565b9150509250929050565b60008060006060848603121561398257600080fd5b600061398e868661369f565b935050602061399f8682870161369f565b925050604084013567ffffffffffffffff8111156139bc57600080fd5b61376586828701613433565b6000806000606084860312156139dd57600080fd5b60006139e9868661369f565b93505060206139fa8682870161369f565b92505060406137658682870161369f565b600080600080600060a08688031215613a2357600080fd5b6000613a2f888861369f565b9550506020613a408882890161369f565b9450506040613a518882890161369f565b9350506060613a628882890161369f565b92505060806137158882890161369f565b6000613a7e82613e13565b808452602084019350613a9083613e0d565b60005b82811015613ac157613aa6868351613be9565b613aaf82613e0d565b61014096909601959150600101613a93565b5093949350505050565b613ad481613e1d565b613add8261132b565b60005b82811015613b0d57613af3858351613c61565b613afc82613e0d565b602095909501949150600101613ae0565b5050505050565b613b1d81613e1d565b613b268261132b565b60005b82811015613b0d57613b3c858351613c61565b613b4582613e0d565b602095909501949150600101613b29565b613b5f81613e23565b613b688261132b565b60005b82811015613b0d57613b7e858351613c61565b613b8782613e0d565b602095909501949150600101613b6b565b613ba181613e23565b613baa8261132b565b60005b82811015613b0d57613bc0858351613c61565b613bc982613e0d565b602095909501949150600101613bad565b613be381613e29565b82525050565b61014082018151613bfa8482613b14565b506020820151613c0d6040850182613b14565b506040820151613c206080850182613c61565b506060820151613c3360a0850182613b98565b506080820151613c47610100850182613c61565b5060a0820151613c5b610120850182613c61565b50505050565b613be38161132b565b602080825281016122638184613a73565b6040810161223c8284613acb565b6101408101613c988289613acb565b613ca56040830188613acb565b613cb26080830187613c61565b613cbf60a0830186613b56565b613ccd610100830185613c61565b613cdb610120830184613c61565b979650505050505050565b6060810161223c8284613b56565b6020810161223c8284613bda565b6101608101613d11828a613bda565b613d1e6020830189613acb565b613d2b6060830188613acb565b613d3860a0830187613c61565b613d4560c0830186613b56565b613d53610120830185613c61565b613d61610140830184613c61565b98975050505050505050565b6020810161223c8284613c61565b60608101613d898286613c61565b613d966020830185613c61565b6137a46040830184613c61565b6000604051905081810181811067ffffffffffffffff82111715613dc657600080fd5b604052919050565b600067ffffffffffffffff821115613de557600080fd5b5060209081020190565b600067ffffffffffffffff821115613e0657600080fd5b5060200290565b60200190565b6000815192915050565b50600290565b50600390565b1515905600976cca7f4190c83b7db37d954c0a31f2e5c613820ab000a21d3b8e2704487440fffffffffffffffffffffffffffffffebaaedce6af48a03bbfd25e8cd0364141a265627a7a72305820011148fe7de177af404bbf889d507e14817a45c2e130971ead4dc4a6eded8dc96c6578706572696d656e74616cf50037",
  "source": "pragma solidity ^0.4.7;\r\npragma experimental ABIEncoderV2;\r\nimport \"./ECCMath_noconflict.sol\";\r\nimport \"./Secp256k1_noconflict.sol\";\r\n\r\ncontract OrPoK {\r\n    //Eason:  PK{(x):A = xG and B = xH}\r\n    //Eason:  https://en.wikipedia.org/wiki/Jacobian_curve\r\n    //use Jacobi  curve representation to speed up and be against side channel attack \r\n    \r\n    // Modulus for public keys\r\n    // Eason: elliptic curve in Zp\r\n    \r\n    //debug parameters\r\n    uint constant p = 0xFFFFFFFFFFFFFFFFFFFFFFFFFFFFFFFFFFFFFFFFFFFFFFFFFFFFFFFEFFFFFC2F;\r\n    //uint constant p = 97;\r\n\r\n    // Base point (generator) G\r\n    // Eason: represent werewolf\r\n    uint constant Gx =0x79BE667EF9DCBBAC55A06295CE870B07029BFCDB2DCE28D959F2815B16F81798;\r\n    uint constant Gy = 0x483ADA7726A3C4655DA4FBFC0E1108A8FD17B448A68554199C47D08FFB10D4B8;\r\n    //0,7\r\n    /*// Base point (generator) G\r\n    uint constant Hx = 0xEC70EDA5ABD3416F239EF65D4B288717C4CF7BA469776869F2AAE2E00DF74DCA;\r\n    uint constant Hy = 0xEF7824FF7E7F248BF1C94F61C04A69C4D9DB232C86D85478B97E87753114DE2D;*/\r\n    //Eason: oredr of elliptic curve\r\n    //coefficient in Zq \r\n    \r\n\r\n    uint public constant q = 0xFFFFFFFFFFFFFFFFFFFFFFFFFFFFFFFEBAAEDCE6AF48A03BBFD25E8CD0364141;\r\n\r\n\r\n\r\n    uint[2] public G;\r\n    //uint[2] H;\r\n    \r\n    //uint[2] public defaultHand;\r\n    uint[2][] public problems;//ECDLP for G\r\n    //TODO : store the base\r\n    PoK[] public proofs;\r\n    //TODO BetaPoK public test;\r\n    function OrPoK() public{\r\n        G[0] = Gx;\r\n        G[1] = Gy;\r\n        \r\n        //H[0] = Hx;\r\n        //H[1] = Hy;\r\n    }\r\n\r\n    /*function publishECDLP(uint pokerKey) public {\r\n        uint[3] memory secretG = Secp256k1_noconflict._mul(pokerKey, G);\r\n        ECCMath_noconflict.toZ1(secretG,p);//Eason: transform Jacobi->affine\r\n        (liveHand[0],liveHand[1]) = (secretG[0],secretG[1]);\r\n    }*/\r\n\r\n    function setProblems(uint[] pokerKeys) public {\r\n        problems.length = pokerKeys.length;\r\n        for(uint i=0; i<problems.length; i++){\r\n            uint[3] memory secretG = Secp256k1_noconflict._mul(pokerKeys[i], G);\r\n            ECCMath_noconflict.toZ1(secretG,p);\r\n            (problems[i][0],problems[i][1]) = (secretG[0],secretG[1]);\r\n        }   \r\n    }\r\n\r\n    function getProblems(uint i) public view returns(uint[2] point){\r\n        assert(i< problems.length);\r\n        return problems[i];\r\n    }//getter for outside world\r\n\r\n    function getProblemsLength() public view returns(uint){\r\n        \r\n        return problems.length;\r\n    }//getter for outside world\r\n\r\n    //input is \"t\", move t,c to easy version\r\n    function createSchnorr(uint pokerKey, uint[2] werewolf, uint[2] liveHand, uint victim, uint tReady,uint cReady) public view returns(uint[2] g, uint[2] A, uint message, uint[3] T, uint c, uint s){\r\n        //input: conditions \r\n        //output: conditions & PoK\r\n        uint secret = pokerKey;\r\n        (g[0],g[1]) = (werewolf[0],werewolf[1]);\r\n        (A[0],A[1]) = (liveHand[0],liveHand[1]);\r\n        message = victim;\r\n        \r\n        uint[3] memory secretG = Secp256k1_noconflict._mul(secret, g);\r\n        ECCMath_noconflict.toZ1(secretG,p);\r\n        require(secretG[0] == A[0] && secretG[1] == A[1]);\r\n        \r\n        uint t;\r\n        if(tReady != 0 && cReady != 0){\r\n            t = tReady;\r\n            T = Secp256k1_noconflict._mul(t, G);\r\n            ECCMath_noconflict.toZ1(T,p);\r\n            c = cReady;\r\n        }else{\r\n            t = uint(keccak256(G,A,message)) % q;//add index of proof?\r\n            //TODO: add some randomness\r\n            T = Secp256k1_noconflict._mul(t, G);\r\n            ECCMath_noconflict.toZ1(T,p);\r\n            c=uint(keccak256(G,A, message,T)) % q;\r\n        }\r\n        s = addmod(mulmod(secret,c,q),t,q);\r\n    }\r\n\r\n    function easyCreateSchnorr(uint real, uint pokerKey, uint victim, uint tReady, uint cReady) public view returns(uint[2] g, uint[2] A, uint message, uint[3] T, uint c, uint s){\r\n        \r\n        return createSchnorr(pokerKey, G, problems[ real ], victim, tReady, cReady);\r\n    }\r\n\r\n    \r\n    // m - 1 fake proof\r\n    function forgeProof(uint[2] werewolf, uint[2] liveHand, uint victim) public view returns(uint[2] H, uint[2] B,uint message, uint[3] T2, uint c2, uint s2){\r\n        (H[0],H[1]) = (werewolf[0],werewolf[1]);\r\n        (B[0],B[1])=(liveHand[0],liveHand[1]);\r\n        message = victim;\r\n\r\n        c2 = uint(keccak256(uint8(1),B, message)) % q;//choose a random # by self\r\n        s2 = uint(keccak256(uint8(2),B, message)) % q;//choose a random # by self\r\n        uint[3] memory s2H = Secp256k1_noconflict._mul(s2, H);\r\n        uint[3] memory c2B = Secp256k1_noconflict._mul(c2, B);\r\n        ECCMath_noconflict.toZ1(c2B,p);\r\n        //T2 = Secp256k1_noconflict._mul(q-1,[c2B[0],c2B[1]]);\r\n        T2 = [c2B[0],p-c2B[1],1];//negative in affine?\r\n        T2 = Secp256k1_noconflict._add(s2H, T2);//The negative in Jacobi coordinates?\r\n        ECCMath_noconflict.toZ1(T2,p);\r\n    }\r\n\r\n    function easyForgeProof(uint i,uint victim) public view returns(uint[2] H, uint[2] B,uint message, uint[3] T2, uint c2, uint s2){\r\n        return forgeProof(G, problems[i], victim);\r\n        //function forgeProof can't overloading. work around : rename \r\n    }\r\n/*\r\n    //can be ommited?\r\n    //1 real proof\r\n    function easyComputeT(uint pokerKey,  uint victim, uint real) public view returns(uint[3] realT){\r\n        //i) choose t\r\n        uint realt = uint(keccak256(G, problems, victim));//need other T??\r\n        realt = uint(keccak256(realt, pokerKey)) % q;//avoid stack too deep\r\n        //add index of proof? pokerKey instead\r\n        //add pokerKey for randomnes\r\n        //ii) compute T\r\n        realT = Secp256k1_noconflict._mul(realt, G);\r\n        ECCMath_noconflict.toZ1(realT,p);\r\n    }\r\n*/\r\n    //1 real proof\r\n    function easyComputeRealt(uint pokerKey,  uint victim, uint real) public view returns(uint realt){\r\n        //i) choose t\r\n        realt = uint(keccak256(G, problems, victim));//need other T??\r\n        realt = uint(keccak256(realt, pokerKey)) % q;//avoid stack too deep\r\n        //add index of proof? pokerKey instead\r\n        //add pokerKey for randomnes\r\n    }\r\n\r\n    //1 real proof\r\n    function computeTFrom(uint realt) public view returns(uint[3] realT){\r\n        //ii) compute T\r\n        realT = Secp256k1_noconflict._mul(realt, G);\r\n        ECCMath_noconflict.toZ1(realT,p);\r\n    }\r\n\r\n    function easyComputeChallenge(uint victim, uint real, uint[3][] Ts) public view returns(uint realChallenge){\r\n        //iii) compute c\r\n        realChallenge = uint(keccak256(G, problems, victim,Ts)) % q;\r\n        //realChallenge = addmod(realChallenge, q-totalFakeC, q);//submod, avoid rounding when negative\r\n    }\r\n\r\n    \r\n    function publishProofs(uint pokerKey, uint[2] werewolf, uint[2][] liveHands, uint victim, uint real) public{\r\n        //input: conditions \r\n        //output: store conditions & PoK\r\n\r\n        require(real<liveHands.length);\r\n        \r\n        uint totalFakeC = 0;\r\n        uint[3][ ] memory T = new uint[3][](liveHands.length);\r\n\r\n        // m-1 \"fake\" proof\r\n        uint i=0;\r\n        proofs.length = liveHands.length;\r\n        PoK storage pf = proofs[0];\r\n\r\n        for( i=0; i<real; i++){\r\n            emit Process(i); \r\n            pf = proofs[i];\r\n            (pf.g, pf.A, pf.message,) = forgeProof(werewolf,liveHands[i],victim);\r\n            (, pf.T, pf.c, pf.s) = forgeProof(werewolf,liveHands[i],victim);\r\n            //Just avoid stack too deep\r\n            \r\n            \r\n            totalFakeC = addmod(totalFakeC, pf.c, q);\r\n            T[i] = pf.T;\r\n\r\n        }\r\n\r\n        for( i=real+1; i<liveHands.length; i++){\r\n            emit Process(i);\r\n            pf = proofs[i]; \r\n            (pf.g, pf.A, pf.message,) = forgeProof(werewolf,liveHands[i],victim);\r\n            (, pf.T, pf.c, pf.s) = forgeProof(werewolf,liveHands[i],victim);\r\n            //Just avoid stack too deep\r\n            totalFakeC = addmod(totalFakeC, pf.c, q);\r\n            T[i] = pf.T;\r\n        }\r\n        emit Process(real);\r\n        //1 real proof\r\n        pf = proofs[ real ];\r\n        \r\n        //i) choose t\r\n        uint realt = uint(keccak256(werewolf, liveHands, victim));\r\n        realt = uint(keccak256(realt, pokerKey)) % q;//avoid stack too deep\r\n        //add index of proof? pokerKey instead\r\n        //add pokerKey for randomness\r\n        \r\n        //ii) compute T\r\n        uint[3] memory realT = Secp256k1_noconflict._mul(realt, werewolf);\r\n        ECCMath_noconflict.toZ1(realT,p);\r\n        T[ real ] = realT;\r\n        \r\n        //iii) compute c\r\n        uint challenge = uint(keccak256(werewolf, liveHands, victim,T)) % q;\r\n        uint realc = addmod(challenge, q-totalFakeC, q);//submod, avoid rounding when negative\r\n        //iv) create proof\r\n        (pf.g, pf.A, pf.message,) = createSchnorr(pokerKey,werewolf,liveHands[real],victim, realt, realc);\r\n        (, pf.T, pf.c, pf.s) = createSchnorr(pokerKey,werewolf,liveHands[real],victim,realt,realc);\r\n    }\r\n\r\n    function easyPublishProofs(uint pokerKey, uint victim, uint real) public{\r\n        assert(problems.length != 0);\r\n        publishProofs(pokerKey, G, problems, victim, real);\r\n    }\r\n\r\n    function createProofs(uint pokerKey,  uint victim, uint real) public returns(PoK[] pfs){\r\n        //input: conditions \r\n        //output: store conditions & PoK\r\n        //uint[2] memory werewolf= [G[0],G[1]];\r\n        require(real<problems.length);\r\n        \r\n        uint totalFakeC = 0;\r\n        uint[3][ ] memory T = new uint[3][](problems.length);\r\n\r\n        // m-1 \"fake\" proof\r\n        uint i=0;\r\n        pfs = new PoK[](problems.length);\r\n        PoK memory pf = pfs[0];\r\n\r\n        for( i=0; i<real; i++){\r\n            emit Process(i); \r\n            pf = pfs[i];\r\n            (pf.g, pf.A, pf.message,) = forgeProof(G,problems[i],victim);\r\n            (, pf.T, pf.c, pf.s) = forgeProof(G,problems[i],victim);\r\n            //Just avoid stack too deep\r\n            \r\n            \r\n            totalFakeC = addmod(totalFakeC, pf.c, q);\r\n            T[i] = pf.T;\r\n\r\n        }\r\n\r\n        for( i=real+1; i<problems.length; i++){\r\n            emit Process(i);\r\n            pf = pfs[i]; \r\n            (pf.g, pf.A, pf.message,) = forgeProof(G,problems[i],victim);\r\n            (, pf.T, pf.c, pf.s) = forgeProof(G,problems[i],victim);\r\n            //Just avoid stack too deep\r\n            totalFakeC = addmod(totalFakeC, pf.c, q);\r\n            T[i] = pf.T;\r\n        }\r\n        emit Process(real);\r\n        //1 real proof\r\n        pf = pfs[ real ];\r\n        \r\n        //i) choose t\r\n        uint realt = uint(keccak256(G, problems, victim));\r\n        realt = uint(keccak256(realt, pokerKey)) % q;//avoid stack too deep\r\n        //add index of proof? pokerKey instead\r\n        //add pokerKey for randomness\r\n        \r\n        //ii) compute T\r\n        uint[3] memory realT = Secp256k1_noconflict._mul(realt, G);\r\n        ECCMath_noconflict.toZ1(realT,p);\r\n        T[ real ] = realT;\r\n        \r\n        //iii) compute c\r\n        uint challenge = uint(keccak256(G, problems, victim,T)) % q;\r\n        uint realc = addmod(challenge, q-totalFakeC, q);//submod, avoid rounding when negative\r\n        //iv) create proof\r\n        (pf.g, pf.A, pf.message,) = createSchnorr(pokerKey,G,problems[real],victim, realt, realc);\r\n        (, pf.T, pf.c, pf.s) = createSchnorr(pokerKey,G,problems[real],victim,realt,realc);\r\n    }\r\n\r\n    /*function verifySchnorr(uint[2] g,uint[2] A, uint message, uint[3] T, uint c, uint s) public view returns (bool result) {\r\n        if (!Secp256k1_noconflict.isPubKey(A)) return false;\r\n        if (!Secp256k1_noconflict.isPubKey(T)) return false;\r\n        \r\n        //1 Check c   \r\n        if (c!=uint(keccak256(g,A, message,T)) % q) return false;//Check the message\r\n        \r\n        //2 Check equation\r\n        uint[3] memory LHS = Secp256k1_noconflict._mul(s, g);\r\n        uint[3] memory RHS = Secp256k1_noconflict._add(T,Secp256k1_noconflict._mul(c, A));\r\n        //_add: Jacobi -> Jacobi\r\n        // Convert to Affine Co-ordinates\r\n        ECCMath_noconflict.toZ1(LHS, p);\r\n        ECCMath_noconflict.toZ1(RHS, p);\r\n        // Verify. Do they match?\r\n        if(RHS[0] == LHS[0] &&\r\n           RHS[1] == LHS[1]) {\r\n            return true;\r\n        } else {\r\n                return false;\r\n            }\r\n    }*/\r\n\r\n    function verifySchnorr(uint[2] g,uint[2] A, /*uint message,*/ uint[3] T, uint c, uint s) public view returns (bool result) {\r\n        if (!Secp256k1_noconflict.isPubKey(A)) return false;\r\n        if (!Secp256k1_noconflict.isPubKey(T)) return false;\r\n        //1 Check c   \r\n        //if (c!=uint(keccak256(g,A, message,T)) % q) return false;//Check the message\r\n        \r\n        //2 Check equation\r\n        uint[3] memory LHS = Secp256k1_noconflict._mul(s, g);\r\n        uint[3] memory RHS = Secp256k1_noconflict._add(T,Secp256k1_noconflict._mul(c, A));\r\n        //_add: Jacobi -> Jacobi\r\n        // Convert to Affine Co-ordinates\r\n        ECCMath_noconflict.toZ1(LHS, p);\r\n        ECCMath_noconflict.toZ1(RHS, p);\r\n        // Verify. Do they match?\r\n        if(RHS[0] == LHS[0] &&\r\n           RHS[1] == LHS[1]) {\r\n            return true;\r\n        } else {\r\n                return false;\r\n            }\r\n    }\r\n\r\n    //Eason:check the proofs in the contract\r\n    function easyVerifyProofs() public returns (bool result) { \r\n\r\n        uint challenge = 0;\r\n        uint[3][ ] memory Ts = new uint[3][](proofs.length);\r\n        uint[2][ ] memory As = new uint[2][](proofs.length);\r\n        \r\n        PoK memory pf;\r\n        for(uint i=0; i<proofs.length; i++){\r\n            pf = proofs[i];\r\n            if(!verifySchnorr(pf.g, pf.A, /*pf.message,*/ pf.T, pf.c, pf.s)) {\r\n                emit Fail(i);\r\n                return false;\r\n            }\r\n\r\n            challenge = addmod(pf.c, challenge, q);\r\n            As[i] = pf.A;\r\n            Ts[i] = pf.T;\r\n        }\r\n        pf = proofs[0];\r\n        if (!(challenge == uint(keccak256(pf.g, As, pf.message, Ts)) % q)) return false;//Check the message\r\n        return true;\r\n    }\r\n    /*function test(uint pokerKey, uint victim) public view  returns(bool, uint, uint[2], uint[2], uint, uint[3], uint, uint){\r\n        bool result = verifyProofs(prove(pokerKey, G, [hand[0],hand[1]], victim));\r\n        \r\n        return (result,prove(pokerKey, G, [hand[0],hand[1]], victim)) ;\r\n    }*/\r\n\r\n    function testSchnorr(uint pokerKey, uint[2] werewolf, uint[2] liveHand, uint victim) public view returns(bool result, uint[2] _G, uint[2] A, uint message, uint[3] T, uint c, uint s){\r\n        //test \"real\" also \"fake\" proof\r\n        if(werewolf[0]==0 && werewolf[1]==0 && liveHand[0]==0 && liveHand[1]==0){\r\n            (werewolf[0],werewolf[1]) = (G[0],G[1]);\r\n            (liveHand[0],liveHand[1]) = (problems[0][0], problems[0][1]);\r\n        }\r\n        require(werewolf[0]!=0 && werewolf[1]!=0 && liveHand[0]!=0 && liveHand[1]!=0);\r\n        //message = victim;\r\n        if(pokerKey != 0){\r\n            //uint secret = pokerKey;\r\n            (_G, A, message,T,c,s) = createSchnorr(pokerKey, werewolf, liveHand, victim, 0 ,0 );\r\n        }else{\r\n            (_G, A, message,T,c,s) = forgeProof(werewolf, liveHand, victim);\r\n        }\r\n        result=verifySchnorr(_G, A, /*message,*/ T,c,s);\r\n    }\r\n\r\n    struct PoK{\r\n        uint[2] g; \r\n        uint[2] A; \r\n        uint message; \r\n        uint[3] T; \r\n        uint c; \r\n        uint s;\r\n    }\r\n    \r\n    event Fail(uint pf);\r\n    event Process(uint pf);\r\n    //event parameter needs a name @@\r\n    //https://github.com/trufflesuite/truffle/issues/494\r\n\r\n    /* TODO\r\n    struct BetaPoK{\r\n        Problem problem; \r\n        //uint[2] g; \r\n        //uint[2] A; \r\n        uint message; \r\n        Signature signature;\r\n        //uint[3] T; \r\n        //uint c; \r\n        //uint s;\r\n    }\r\n\r\n    struct Problem{\r\n        uint[2] g; \r\n        uint[2] A;\r\n    }\r\n\r\n    struct Signature{\r\n        uint[3] T; \r\n        uint c; \r\n        uint s;\r\n    }*/\r\n}\r\n",
  "sourcePath": "C:\\Users\\eason\\Documents\\GitHub\\SmartWerewolf\\contracts\\OrPoK.sol",
  "compiler": {
    "name": "solc",
    "version": "0.4.21+commit.dfe3193c.Emscripten.clang"
  },
  "schemaVersion": "2.0.0",
  "updatedAt": "2018-04-15T21:11:30.361Z"
}