{
  "contractName": "OrPoK",
  "abi": [
    {
      "constant": true,
      "inputs": [
        {
          "name": "",
          "type": "uint256"
        },
        {
          "name": "",
          "type": "uint256"
        }
      ],
      "name": "problems",
      "outputs": [
        {
          "name": "",
          "type": "uint256"
        }
      ],
      "payable": false,
      "stateMutability": "view",
      "type": "function"
    },
    {
      "constant": true,
      "inputs": [
        {
          "name": "",
          "type": "uint256"
        }
      ],
      "name": "G",
      "outputs": [
        {
          "name": "",
          "type": "uint256"
        }
      ],
      "payable": false,
      "stateMutability": "view",
      "type": "function"
    },
    {
      "constant": true,
      "inputs": [
        {
          "name": "",
          "type": "uint256"
        }
      ],
      "name": "proofs",
      "outputs": [
        {
          "name": "message",
          "type": "uint256"
        },
        {
          "name": "c",
          "type": "uint256"
        },
        {
          "name": "s",
          "type": "uint256"
        }
      ],
      "payable": false,
      "stateMutability": "view",
      "type": "function"
    },
    {
      "constant": true,
      "inputs": [
        {
          "name": "",
          "type": "uint256"
        }
      ],
      "name": "H",
      "outputs": [
        {
          "name": "",
          "type": "uint256"
        }
      ],
      "payable": false,
      "stateMutability": "view",
      "type": "function"
    },
    {
      "constant": true,
      "inputs": [],
      "name": "q",
      "outputs": [
        {
          "name": "",
          "type": "uint256"
        }
      ],
      "payable": false,
      "stateMutability": "view",
      "type": "function"
    },
    {
      "inputs": [],
      "payable": false,
      "stateMutability": "nonpayable",
      "type": "constructor"
    },
    {
      "anonymous": false,
      "inputs": [
        {
          "indexed": false,
          "name": "pf",
          "type": "uint256"
        }
      ],
      "name": "Fail",
      "type": "event"
    },
    {
      "anonymous": false,
      "inputs": [
        {
          "indexed": false,
          "name": "pf",
          "type": "uint256"
        }
      ],
      "name": "Process",
      "type": "event"
    },
    {
      "constant": false,
      "inputs": [
        {
          "name": "real",
          "type": "uint256"
        },
        {
          "name": "pokerKeys",
          "type": "uint256[]"
        }
      ],
      "name": "easySetProblems",
      "outputs": [],
      "payable": false,
      "stateMutability": "nonpayable",
      "type": "function"
    },
    {
      "constant": true,
      "inputs": [
        {
          "name": "i",
          "type": "uint256"
        }
      ],
      "name": "getProblems",
      "outputs": [
        {
          "name": "point",
          "type": "uint256[2]"
        }
      ],
      "payable": false,
      "stateMutability": "view",
      "type": "function"
    },
    {
      "constant": true,
      "inputs": [],
      "name": "getProblemsLength",
      "outputs": [
        {
          "name": "",
          "type": "uint256"
        }
      ],
      "payable": false,
      "stateMutability": "view",
      "type": "function"
    },
    {
      "constant": true,
      "inputs": [
        {
          "name": "pokerKey",
          "type": "uint256"
        },
        {
          "name": "werewolf",
          "type": "uint256[2]"
        },
        {
          "name": "liveHand",
          "type": "uint256[2]"
        },
        {
          "name": "victim",
          "type": "uint256"
        },
        {
          "name": "tReady",
          "type": "uint256"
        },
        {
          "name": "cReady",
          "type": "uint256"
        }
      ],
      "name": "createSchnorr",
      "outputs": [
        {
          "name": "g",
          "type": "uint256[2]"
        },
        {
          "name": "A",
          "type": "uint256[2]"
        },
        {
          "name": "message",
          "type": "uint256"
        },
        {
          "name": "T",
          "type": "uint256[3]"
        },
        {
          "name": "c",
          "type": "uint256"
        },
        {
          "name": "s",
          "type": "uint256"
        }
      ],
      "payable": false,
      "stateMutability": "view",
      "type": "function"
    },
    {
      "constant": true,
      "inputs": [
        {
          "name": "real",
          "type": "uint256"
        },
        {
          "name": "pokerKey",
          "type": "uint256"
        },
        {
          "name": "victim",
          "type": "uint256"
        },
        {
          "name": "tReady",
          "type": "uint256"
        },
        {
          "name": "cReady",
          "type": "uint256"
        }
      ],
      "name": "easyCreateSchnorr",
      "outputs": [
        {
          "name": "g",
          "type": "uint256[2]"
        },
        {
          "name": "A",
          "type": "uint256[2]"
        },
        {
          "name": "message",
          "type": "uint256"
        },
        {
          "name": "T",
          "type": "uint256[3]"
        },
        {
          "name": "c",
          "type": "uint256"
        },
        {
          "name": "s",
          "type": "uint256"
        }
      ],
      "payable": false,
      "stateMutability": "view",
      "type": "function"
    },
    {
      "constant": true,
      "inputs": [
        {
          "name": "werewolf",
          "type": "uint256[2]"
        },
        {
          "name": "liveHand",
          "type": "uint256[2]"
        },
        {
          "name": "victim",
          "type": "uint256"
        }
      ],
      "name": "forgeProof",
      "outputs": [
        {
          "name": "_H",
          "type": "uint256[2]"
        },
        {
          "name": "B",
          "type": "uint256[2]"
        },
        {
          "name": "message",
          "type": "uint256"
        },
        {
          "name": "T2",
          "type": "uint256[3]"
        },
        {
          "name": "c2",
          "type": "uint256"
        },
        {
          "name": "s2",
          "type": "uint256"
        }
      ],
      "payable": false,
      "stateMutability": "view",
      "type": "function"
    },
    {
      "constant": true,
      "inputs": [
        {
          "name": "i",
          "type": "uint256"
        },
        {
          "name": "victim",
          "type": "uint256"
        }
      ],
      "name": "easyForgeProof",
      "outputs": [
        {
          "name": "h",
          "type": "uint256[2]"
        },
        {
          "name": "B",
          "type": "uint256[2]"
        },
        {
          "name": "message",
          "type": "uint256"
        },
        {
          "name": "T2",
          "type": "uint256[3]"
        },
        {
          "name": "c2",
          "type": "uint256"
        },
        {
          "name": "s2",
          "type": "uint256"
        }
      ],
      "payable": false,
      "stateMutability": "view",
      "type": "function"
    },
    {
      "constant": true,
      "inputs": [
        {
          "name": "_G",
          "type": "uint256[2]"
        },
        {
          "name": "_problems",
          "type": "uint256[2][]"
        },
        {
          "name": "pokerKey",
          "type": "uint256"
        },
        {
          "name": "victim",
          "type": "uint256"
        }
      ],
      "name": "computeRealt",
      "outputs": [
        {
          "name": "realt",
          "type": "uint256"
        }
      ],
      "payable": false,
      "stateMutability": "view",
      "type": "function"
    },
    {
      "constant": true,
      "inputs": [
        {
          "name": "pokerKey",
          "type": "uint256"
        },
        {
          "name": "victim",
          "type": "uint256"
        },
        {
          "name": "real",
          "type": "uint256"
        }
      ],
      "name": "easyComputeRealt",
      "outputs": [
        {
          "name": "realt",
          "type": "uint256"
        }
      ],
      "payable": false,
      "stateMutability": "view",
      "type": "function"
    },
    {
      "constant": true,
      "inputs": [
        {
          "name": "realt",
          "type": "uint256"
        },
        {
          "name": "_G",
          "type": "uint256[2]"
        }
      ],
      "name": "computeTFrom",
      "outputs": [
        {
          "name": "realT",
          "type": "uint256[3]"
        }
      ],
      "payable": false,
      "stateMutability": "view",
      "type": "function"
    },
    {
      "constant": true,
      "inputs": [
        {
          "name": "realt",
          "type": "uint256"
        }
      ],
      "name": "easyComputeTFrom",
      "outputs": [
        {
          "name": "realT",
          "type": "uint256[3]"
        }
      ],
      "payable": false,
      "stateMutability": "view",
      "type": "function"
    },
    {
      "constant": true,
      "inputs": [
        {
          "name": "_G",
          "type": "uint256[2]"
        },
        {
          "name": "_problems",
          "type": "uint256[2][]"
        },
        {
          "name": "victim",
          "type": "uint256"
        },
        {
          "name": "real",
          "type": "uint256"
        },
        {
          "name": "Ts",
          "type": "uint256[3][]"
        }
      ],
      "name": "computeChallenge",
      "outputs": [
        {
          "name": "realChallenge",
          "type": "uint256"
        }
      ],
      "payable": false,
      "stateMutability": "view",
      "type": "function"
    },
    {
      "constant": true,
      "inputs": [
        {
          "name": "victim",
          "type": "uint256"
        },
        {
          "name": "real",
          "type": "uint256"
        },
        {
          "name": "Ts",
          "type": "uint256[3][]"
        }
      ],
      "name": "easyComputeChallenge",
      "outputs": [
        {
          "name": "realChallenge",
          "type": "uint256"
        }
      ],
      "payable": false,
      "stateMutability": "view",
      "type": "function"
    },
    {
      "constant": false,
      "inputs": [
        {
          "name": "pokerKey",
          "type": "uint256"
        },
        {
          "name": "werewolf",
          "type": "uint256[2]"
        },
        {
          "name": "liveHands",
          "type": "uint256[2][]"
        },
        {
          "name": "victim",
          "type": "uint256"
        },
        {
          "name": "real",
          "type": "uint256"
        }
      ],
      "name": "publishProofs",
      "outputs": [],
      "payable": false,
      "stateMutability": "nonpayable",
      "type": "function"
    },
    {
      "constant": false,
      "inputs": [
        {
          "name": "pokerKey",
          "type": "uint256"
        },
        {
          "name": "victim",
          "type": "uint256"
        },
        {
          "name": "real",
          "type": "uint256"
        }
      ],
      "name": "easyPublishProofs",
      "outputs": [],
      "payable": false,
      "stateMutability": "nonpayable",
      "type": "function"
    },
    {
      "constant": true,
      "inputs": [
        {
          "name": "pokerKey",
          "type": "uint256"
        },
        {
          "name": "victim",
          "type": "uint256"
        },
        {
          "name": "real",
          "type": "uint256"
        }
      ],
      "name": "createProofs",
      "outputs": [
        {
          "components": [
            {
              "name": "g",
              "type": "uint256[2]"
            },
            {
              "name": "A",
              "type": "uint256[2]"
            },
            {
              "name": "message",
              "type": "uint256"
            },
            {
              "name": "T",
              "type": "uint256[3]"
            },
            {
              "name": "c",
              "type": "uint256"
            },
            {
              "name": "s",
              "type": "uint256"
            }
          ],
          "name": "pfs",
          "type": "tuple[]"
        }
      ],
      "payable": false,
      "stateMutability": "view",
      "type": "function"
    },
    {
      "constant": true,
      "inputs": [
        {
          "name": "g",
          "type": "uint256[2]"
        },
        {
          "name": "A",
          "type": "uint256[2]"
        },
        {
          "name": "T",
          "type": "uint256[3]"
        },
        {
          "name": "c",
          "type": "uint256"
        },
        {
          "name": "s",
          "type": "uint256"
        }
      ],
      "name": "verifySchnorr",
      "outputs": [
        {
          "name": "result",
          "type": "bool"
        }
      ],
      "payable": false,
      "stateMutability": "view",
      "type": "function"
    },
    {
      "constant": false,
      "inputs": [],
      "name": "easyVerifyProofs",
      "outputs": [
        {
          "name": "result",
          "type": "bool"
        }
      ],
      "payable": false,
      "stateMutability": "nonpayable",
      "type": "function"
    },
    {
      "constant": true,
      "inputs": [
        {
          "name": "pokerKey",
          "type": "uint256"
        },
        {
          "name": "werewolf",
          "type": "uint256[2]"
        },
        {
          "name": "liveHand",
          "type": "uint256[2]"
        },
        {
          "name": "victim",
          "type": "uint256"
        }
      ],
      "name": "testSchnorr",
      "outputs": [
        {
          "name": "result",
          "type": "bool"
        },
        {
          "name": "_G",
          "type": "uint256[2]"
        },
        {
          "name": "A",
          "type": "uint256[2]"
        },
        {
          "name": "message",
          "type": "uint256"
        },
        {
          "name": "T",
          "type": "uint256[3]"
        },
        {
          "name": "c",
          "type": "uint256"
        },
        {
          "name": "s",
          "type": "uint256"
        }
      ],
      "payable": false,
      "stateMutability": "view",
      "type": "function"
    }
  ],
  "bytecode": "0x6060604052341561000f57600080fd5b7f79be667ef9dcbbac55a06295ce870b07029bfcdb2dce28d959f2815b16f8179860009081557f483ada7726a3c4655da4fbfc0e1108a8fd17b448a68554199c47d08ffb10d4b86001557fec70eda5abd3416f239ef65d4b288717c4cf7ba469776869f2aae2e00df74dca6002557fef7824ff7e7f248bf1c94f61c04a69c4d9db232c86d85478b97e87753114de2d6003556143f99081906100b190396000f30060606040526004361061013d5763ffffffff7c01000000000000000000000000000000000000000000000000000000006000350416630fe898c381146101425780632b0c1aba146101765780632cf969ed146101a15780634420a3f8146101d157806350a3f073146101fc5780635c3321921461020f5780635d09d2ad1461022d5780635d0c044c146102405780636565c67b1461026b5780637cb63ec81461028957806383242e90146102a757806388f602a8146102d25780638dc095b4146102f05780639ddaf5aa14610310578063a2cf93081461033d578063b73318651461035b578063bb31400914610379578063c61a0e8714610397578063cbc00c25146103b5578063cbcc2b97146103d3578063d168b9dc146103f1578063d4540ff714610422578063d554042d14610440578063fd3ab2821461045e575b600080fd5b341561014d57600080fd5b61016061015b366004613eb5565b610471565b60405161016d91906142de565b60405180910390f35b341561018157600080fd5b61019461018f366004613bf9565b6104a3565b60405161016d9190614265565b34156101ac57600080fd5b6101bf6101ba366004613eb5565b61055c565b60405161016d969594939291906141fa565b34156101dc57600080fd5b6101ef6101ea366004613f40565b61061a565b60405161016d91906141db565b341561020757600080fd5b610194610cbe565b341561021a57600080fd5b6101bf610228366004613f83565b61114d565b341561023857600080fd5b610160611212565b341561024b57600080fd5b61025e610259366004613cb0565b611219565b60405161016d91906141ec565b341561027657600080fd5b610160610284366004613ee5565b611283565b341561029457600080fd5b6101606102a2366004613cb0565b61134b565b34156102b257600080fd5b6102c56102c0366004613cd6565b61135f565b60405161016d9190614257565b34156102dd57600080fd5b6102c56102eb366004613cb0565b611389565b34156102fb57600080fd5b61030e610309366004613d10565b6113cd565b005b341561031b57600080fd5b61032e610329366004613cb0565b611a24565b60405161016d939291906142ec565b341561034857600080fd5b6101bf610356366004613c63565b611a58565b341561036657600080fd5b610160610374366004613adb565b611c39565b341561038457600080fd5b610160610392366004613cb0565b611d09565b34156103a257600080fd5b61030e6103b0366004613f40565b611d15565b34156103c057600080fd5b61030e6103ce366004613e6d565b611de2565b34156103de57600080fd5b6101606103ec366004613f40565b612012565b34156103fc57600080fd5b61040f61040a366004613d90565b612182565b60405161016d9796959493929190614273565b341561042d57600080fd5b6101bf61043b366004613de5565b6122c4565b341561044b57600080fd5b610160610459366004613b54565b612558565b341561046957600080fd5b61016061265c565b600480548390811061047f57fe5b90600052602060002090600202018160028110151561049a57fe5b01549150829050565b60006104ad613568565b6104b5613568565b6104be8761266e565b15156104cd5760009250610551565b6104d686612679565b15156104e55760009250610551565b6104ef848961269a565b9150610504866104ff878a61269a565b612ac6565b9050610516826401000003d019612d2f565b610526816401000003d019612d2f565b8151815114801561053e575060208201516020820151145b1561054c5760019250610551565b600092505b505095945050505050565b61056461358f565b61056c61358f565b6000610576613568565b600080610605816002604080519081016040529190828260026020028201915b81548152602001906001019080831161059657505050505060048a8154811015156105bd57fe5b90600052602060002090600202016002806020026040519081016040529190828260026020028201915b8154815260200190600101908083116105e757505050505089611a58565b949d939c50919a509850965090945092505050565b6106226135a8565b600061062c6135a8565b60006106366135ba565b6000610640613568565b60045460009650869081906040518059106106585750595b90808252806020026020018201604052801561068e57816020015b61067b613568565b8152602001906001900390816106735790505b50600454909750600096506040518059106106a65750595b9080825280602002602001820160405280156106dc57816020015b6106c96135ba565b8152602001906001900390816106c15790505b509850886000815181106106ec57fe5b906020019060200201519450600095505b898610156108595788868151811061071157fe5b9060200190602002015194506107aa60006002604080519081016040529190828260026020028201915b81548152602001906001019080831161073b57505050505060048881548110151561076257fe5b90600052602060002090600202016002806020026040519081016040529190828260026020028201915b81548152602001906001019080831161078c5750505050508d611a58565b5050506040808901919091526020880191909152908652610802906000906002908051908101604090815283548252909291908301600183016020850180831161073b57505050505060048881548110151561076257fe5b60a08b015260808a01526060890152506000805160206143a0833981519152915061082a9050565b856080015189089750846060015187878151811061084457fe5b602090810290910101526001909501946106fd565b8960010195505b6004548610156109715788868151811061087657fe5b9060200190602002015194506108c26000600260408051908101604090815283548252909291908301600183016020850180831161073b57505050505060048881548110151561076257fe5b505050604080890191909152602088019190915290865261091a906000906002908051908101604090815283548252909291908301600183016020850180831161073b57505050505060048881548110151561076257fe5b60a08b015260808a01526060890152506000805160206143a083398151915291506109429050565b856080015189089750846060015187878151811061095c57fe5b60209081029091010152600190950194610860565b888a8151811061097d57fe5b906020019060200201519450600060048c6040516040810184825b81548152602001906001019080831161099857505083805480156109f157604002820191906000526020600020905b604081019082905b8154815260200190600101908083116109cf57505090600201908083116109c7575b5050828152602001935050505060405190819003902093506000805160206143a0833981519152848d604051918252602082015260409081019051908190039020811515610a3b57fe5b069350610a7a8460006002604080519081016040529190828260026020028201915b815481526020019060010190808311610a5d57505050505061269a565b9250610a8c836401000003d019612d2f565b82878b81518110610a9957fe5b602090810290910101526000805160206143a0833981519152600060048d8a6040516040810185825b815481526020019060010190808311610ac25750508480548015610b1b57604002820191906000526020600020905b604081019082905b815481526020019060010190808311610af95750509060020190808311610af1575b50508381526020018280516000925b81841015610b6c57602080850284010151606080838360005b83811015610b5b578082015183820152602001610b43565b505050509050019260010192610b2a565b92505050945050505050604051908190039020811515610b8857fe5b0691506000805160206143a0833981519152886000805160206143a08339815191520383089050610c3f8c60006002604080519081016040529190828260026020028201915b815481526020019060010190808311610bce57505050505060048d815481101515610bf557fe5b90600052602060002090600202016002806020026040519081016040529190828260026020028201915b815481526020019060010190808311610c1f5750505050508e88866122c4565b5050506040808901919091526020880191909152908652610c99908d9060009060029080519081016040908152835482529092919083016001830160208501808311610bce57505050505060048d815481101515610bf557fe5b60a08b015260808a015260609098019790975250989c9b505050505050505050505050565b600080610cc96135a8565b610cd16135a8565b610cd96135ba565b600554600094508490604051805910610cef5750595b908082528060200260200182016040528015610d2557816020015b610d12613568565b815260200190600190039081610d0a5790505b50600554909450604051805910610d395750595b908082528060200260200182016040528015610d6f57816020015b610d5c61358f565b815260200190600190039081610d545790505b509250600090505b600554811015610f37576005805482908110610d8f57fe5b90600052602060002090600a020160c06040519081016040529081600082016002806020026040519081016040529190828260026020028201915b815481526020019060010190808311610dca5750505050508152602001600282016002806020026040519081016040529190828260026020028201915b815481526020019060010190808311610e075750505050508152602001600482015481526020016005820160038060200260405190810160405291906060830182845b815481526020019060010190808311610e4a575050509183525050600882015460208201526009909101546040909101529150610e9b82518360200151846060015185608001518660a001516104a3565b1515610ee1577f123de41493f6e442c2fdb676dd1c3d9f1e0a7b7531ca0cdb9f1026f7569e2bff81604051610ed091906142de565b60405180910390a160009550611145565b6000805160206143a08339815191528583608001510894508160200151838281518110610f0a57fe5b602090810290910101526060820151848281518110610f2557fe5b60209081029091010152600101610d77565b600580546000908110610f4657fe5b90600052602060002090600a020160c06040519081016040529081600082016002806020026040519081016040529190828260026020028201915b815481526020019060010190808311610f815750505050508152602001600282016002806020026040519081016040529190828260026020028201915b815481526020019060010190808311610fbe5750505050508152602001600482015481526020016005820160038060200260405190810160405291906060830182845b8154815260200190600101908083116110015750505091835250506008820154602082015260099091015460409091015291506000805160206143a08339815191528251848460400151876040518085604080838360005b83811015611071578082015183820152602001611059565b505050509050018480516000925b818410156110c157602080850284010151604080838360005b838110156110b0578082015183820152602001611098565b50505050905001926001019261107f565b925050508381526020018280516000925b8184101561111457602080850284010151606080838360005b838110156111035780820151838201526020016110eb565b5050505090500192600101926110d2565b9250505094505050505060405190819003902081151561113057fe5b0685146111405760009550611145565b600195505b505050505090565b61115561358f565b61115d61358f565b6000611167613568565b6000806111f98a826002604080519081016040529190828260026020028201915b81548152602001906001019080831161118857505050505060048e8154811015156111af57fe5b90600052602060002090600202016002806020026040519081016040529190828260026020028201915b8154815260200190600101908083116111d95750505050508c8c8c6122c4565b9550955095509550955095509550955095509550955095565b6004545b90565b61122161358f565b600454821061122c57fe5b600480548390811061123a57fe5b90600052602060002090600202016002806020026040519081016040529190828260026020028201915b8154815260200190600101908083116112645750505050509050919050565b6000611341816002604080519081016040529190828260026020028201915b8154815260200190600101908083116112a2575050505050600480548060200260200160405190810160405281815291906000602084015b8282101561133557838290600052602060002090600202016002806020026040519081016040529190828260026020028201915b81548152602001906001019080831161130e575050505050815260200190600101906112da565b50505050868686612558565b90505b9392505050565b6000816002811061135857fe5b0154905081565b611367613568565b611371838361269a565b9050611383816401000003d019612d2f565b92915050565b611391613568565b6113838260006002604080519081016040529190828260026020028201915b8154815260200190600101908083116113b057505050505061135f565b60006113d76135a8565b60008060006113e4613568565b6000808a5189106113f457600080fd5b600097508a516040518059106114075750595b90808252806020026020018201604052801561143d57816020015b61142a613568565b8152602001906001900390816114225790505b509650600095508a51611451600582613604565b5060058054600090811061146157fe5b90600052602060002090600a02019450600095505b888610156115cd577f976cca7f4190c83b7db37d954c0a31f2e5c613820ab000a21d3b8e2704487440866040516114ad91906142de565b60405180910390a160058054879081106114c357fe5b90600052602060002090600a020194506114f38c8c88815181106114e357fe5b906020019060200201518c611a58565b505050600488018190558760006115106002808401908690613630565b5061151f919050846002613630565b505050506115338c8c88815181106114e357fe5b60098b0181905560088b01829055919450925090506115576005890184600361366e565b506000805160206143a08339815191529250611571915050565b856008015489089750600585016003606060405190810160405291906060830182845b8154815260200190600101908083116115945750505050508787815181106115b857fe5b60209081029091010152600190950194611476565b8860010195505b8a5186101561171c577f976cca7f4190c83b7db37d954c0a31f2e5c613820ab000a21d3b8e27044874408660405161160c91906142de565b60405180910390a1600580548790811061162257fe5b90600052602060002090600a020194506116428c8c88815181106114e357fe5b5050506004880181905587600061165f6002808401908690613630565b5061166e919050846002613630565b505050506116828c8c88815181106114e357fe5b60098b0181905560088b01829055919450925090506116a66005890184600361366e565b506000805160206143a083398151915292506116c0915050565b856008015489089750600585016003606060405190810160405291906060830182845b8154815260200190600101908083116116e357505050505087878151811061170757fe5b602090810290910101526001909501946115d4565b7f976cca7f4190c83b7db37d954c0a31f2e5c613820ab000a21d3b8e27044874408960405161174b91906142de565b60405180910390a1600580548a90811061176157fe5b90600052602060002090600a020194508b8b8b6040518084604080838360005b83811015611799578082015183820152602001611781565b505050509050018380516000925b818410156117e957602080850284010151604080838360005b838110156117d85780820151838201526020016117c0565b5050505090500192600101926117a7565b92505050828152602001935050505060405190819003902093506000805160206143a0833981519152848e60405191825260208201526040908101905190819003902081151561183557fe5b069350611842848d61269a565b9250611854836401000003d019612d2f565b82878a8151811061186157fe5b602090810290910101526000805160206143a08339815191528c8c8c8a6040518085604080838360005b838110156118a357808201518382015260200161188b565b505050509050018480516000925b818410156118f357602080850284010151604080838360005b838110156118e25780820151838201526020016118ca565b5050505090500192600101926118b1565b925050508381526020018280516000925b8184101561194657602080850284010151606080838360005b8381101561193557808201518382015260200161191d565b505050509050019260010192611904565b9250505094505050505060405190819003902081151561196257fe5b0691506000805160206143a0833981519152886000805160206143a083398151915203830890506119ac8d8d8d8c8151811061199a57fe5b906020019060200201518d88866122c4565b505050600488018190558760006119c96002808401908690613630565b506119d8919050846002613630565b505050506119ed8d8d8d8c8151811061199a57fe5b60098b0181905560088b0182905591945092509050611a116005890184600361366e565b5050505050505050505050505050505050565b6005805482908110611a3257fe5b60009182526020909120600a909102016004810154600882015460099092015490925083565b611a6061358f565b611a6861358f565b6000611a72613568565b600080611a7d613568565b611a85613568565b8a5160208c015160208a01528852895160208b0151602089015287528895506000805160206143a0833981519152600188886040517f010000000000000000000000000000000000000000000000000000000000000060ff85160281526001810183604080838360005b83811015611b07578082015183820152602001611aef565b505050509050018281526020019350505050604051908190039020811515611b2b57fe5b0693506000805160206143a0833981519152600288886040517f010000000000000000000000000000000000000000000000000000000000000060ff85160281526001810183604080838360005b83811015611b91578082015183820152602001611b79565b505050509050018281526020019350505050604051908190039020811515611bb557fe5b069250611bc2838961269a565b9150611bce848861269a565b9050611be0816401000003d019612d2f565b6060604051908101604052808251815260200182600160200201516401000003d01903815260200160018152509450611c198286612ac6565b9450611c2b856401000003d019612d2f565b505093975093979195509350565b60008484836040518084604080838360005b83811015611c63578082015183820152602001611c4b565b505050509050018380516000925b81841015611cb357602080850284010151604080838360005b83811015611ca2578082015183820152602001611c8a565b505050509050019260010192611c71565b92505050828152602001935050505060405190819003902090506000805160206143a08339815191528184604051918252602082015260409081019051908190039020811515611cff57fe5b0695945050505050565b60028181811061135857fe5b6004541515611d2057fe5b611ddd8360006002604080519081016040529190828260026020028201915b815481526020019060010190808311611d3f575050505050600480548060200260200160405190810160405281815291906000602084015b82821015611dd257838290600052602060002090600202016002806020026040519081016040529190828260026020028201915b815481526020019060010190808311611dab57505050505081526020019060010190611d77565b5050505085856113cd565b505050565b6000611dec613568565b611df4613568565b8351611e0160048261369b565b50600092505b84831015611eca57611e5a848481518110611e1e57fe5b90602001906020020151600280604080519081016040908152835482529092919083016001830160208501808311610a5d57505050505061269a565b9150611e6c826401000003d019612d2f565b815160208301516004805486908110611e8157fe5b60009182526020822060029091020190016000600487815481101515611ea357fe5b60009182526020909120600290910201600101929092559190915550600190920191611e07565b611f16848481518110611ed957fe5b9060200190602002015160006002604080519081016040908152835482529092919083016001830160208501808311610a5d57505050505061269a565b9050611f28816401000003d019612d2f565b805160208201516004805486908110611f3d57fe5b60009182526020822060029091020190016000600487815481101515611f5f57fe5b600091825260209091206002909102016001019290925591909155506001850192505b60045483101561200b57611f9b848481518110611e1e57fe5b9150611fad826401000003d019612d2f565b815160208301516004805486908110611fc257fe5b60009182526020822060029091020190016000600487815481101515611fe457fe5b60009182526020909120600290910201600101929092559190915550600190920191611f82565b5050505050565b60006120cf816002604080519081016040529190828260026020028201915b815481526020019060010190808311612031575050505050600480548060200260200160405190810160405281815291906000602084015b828210156120c457838290600052602060002090600202016002806020026040519081016040529190828260026020028201915b81548152602001906001019080831161209d57505050505081526020019060010190612069565b505050508686611c39565b9050611344565b8154815260200190600101908083116120d6575050838054801561212f57604002820191906000526020600020905b604081019082905b81548152602001906001019080831161210d5750509060020190808311612105575b5050828152602001935050505060405190819003902090506000805160206143a0833981519152818560405191825260208201526040908101905190819003902081151561217957fe5b06949350505050565b600061218c61358f565b61219461358f565b600061219e613568565b60008089511580156121b2575060208a0151155b80156121bd57508851155b80156121cb57506020890151155b1561222a576000805460015460208d01528b526004805490919081106121ed57fe5b60009182526020822060029091020190015460048054600090811061220e57fe5b600091825260209182902060016002909202010154908b015289525b89511580159061223d575060208a015115155b80156122495750885115155b80156122585750602089015115155b151561226357600080fd5b8a1561228c576122788b8b8b8b6000806122c4565b949a509298509096509450925090506122a7565b6122978a8a8a611a58565b949a509298509096509450925090505b6122b486868585856104a3565b9650949950949992975094509450565b6122cc61358f565b6122d461358f565b60006122de613568565b60008060006122eb613568565b8d915060008d5160208f015160208b015289528c5160208e015160208a015288528b9650612319838a61269a565b915061232b826401000003d019612d2f565b87518251148015612343575060208801516020830151145b151561234e57600080fd5b8a1580159061235c57508915155b156123b457508961239a8160006002604080519081016040908152835482529092919083016001830160208501808311610a5d57505050505061269a565b95506123ac866401000003d019612d2f565b899450612521565b6000805160206143a0833981519152600089896040516040810184825b8154815260200190600101908083116123d15750849050604080838360005b838110156124085780820151838201526020016123f0565b50505050905001828152602001935050505060405190819003902081151561242c57fe5b0690506124668160006002604080519081016040908152835482529092919083016001830160208501808311610a5d57505050505061269a565b9550612478866401000003d019612d2f565b6000805160206143a083398151915260008989896040516040810185825b8154815260200190600101908083116124965750859050604080838360005b838110156124cd5780820151838201526020016124b5565b5050505090500183815260200182600360200280838360005b838110156124fe5780820151838201526020016124e6565b5050505090500194505050505060405190819003902081151561251d57fe5b0694505b6000805160206143a0833981519152816000805160206143a083398151915287860908935050505096509650965096509650969050565b60006000805160206143a0833981519152868686856040518085604080838360005b8381101561259257808201518382015260200161257a565b505050509050018480516000925b818410156125e257602080850284010151604080838360005b838110156125d15780820151838201526020016125b9565b5050505090500192600101926125a0565b925050508381526020018280516000925b8184101561263557602080850284010151606080838360005b8381101561262457808201518382015260200161260c565b5050505090500192600101926125f3565b9250505094505050505060405190819003902081151561265157fe5b069695505050505050565b6000805160206143a083398151915281565b600061138382612d97565b600061268361358f565b825181526020830151602082015261134481612d97565b6126a2613568565b60008060006126af6136c7565b6126b7613568565b6126bf6136f5565b6401000003d0199550600080808b15156126d857612ab7565b6000604051985061020089016040525b8c156127205760018d161561270f5750601f8c16808989015360206010821102818e03019c505b60028d049c506001880197506126e8565b506060604051908101604052808c5181526020018c600160200201518152600160209091015286526127528651612e29565b945061275e858c612f44565b6020870152612775858760015b6020020151612ac6565b60408701526127868587600261276b565b60608701526127978587600361276b565b60808701526127a88587600461276b565b60a08701526127b98587600561276b565b60c08701526127ca8587600661276b565b60e08701526020860151604001518452888015156127e457fe5b8451604088015160400151096020850152888015156127ff57fe5b60208501516060880151604001510960408501528880151561281d57fe5b60408501516080880151604001510960608501528880151561283b57fe5b606085015160a0880151604001510960808501528880151561285957fe5b608085015160c0880151604001510960a08501528880151561287757fe5b60a085015160e0880151604001510960c0850190815261289890518a613170565b60e0850190815251610100850152888015156128b057fe5b61010085015160a0860151096101e0850152600692505b6002831061294457888015156128d957fe5b6101008501518760018601600881106128ee57fe5b602002015160400151096101008501528880151561290857fe5b6101008501518560011986016010811061291e57fe5b60200201510984600885016010811061293357fe5b6020020152600019909201916128c7565b8880151561294e57fe5b61010085015160408801516040015109610120850152600092505b60078310156129e1576129d686600185016008811061298457fe5b602002015185600986016010811061299857fe5b60200201518b8015156129a757fe5b8760098801601081106129b657fe5b60200201518860098901601081106129ca57fe5b6020020151098c61320e565b600190920191612969565b6000871115612ab757600019808801978901015160001a9150612a038a61323d565b6010821115612a5e57506002601f82900304612a598a6040805190810160405280898560088110612a3057fe5b6020020151518152602001898560088110612a4757fe5b6020020151602001518d03905261334e565b612ab2565b6000821115612ab257506002600019820104612ab28a6040805190810160405280898560088110612a8b57fe5b6020020151518152602001898560088110612aa257fe5b602002015160200151905261334e565b6129e1565b50505050505050505092915050565b612ace613568565b6000612ad8613710565b612ae0613710565b60008080808060408b01511515612af957899850612d21565b60408a01511515612b0c578a9850612d21565b6401000003d01997508760408c015160408d015109875287801515612b2d57fe5b875160408d015109602088015287801515612b4457fe5b60408b015160408c015109604088015287801515612b5e57fe5b604088015160408c015109606088015260806040519081016040528089801515612b8457fe5b60408a01518e5109815260200189801515612b9b57fe5b60608a015160208f015109815260200189801515612bb557fe5b89518d5109815260200189801515612bc957fe5b60208a015160208e01510990529550604086015186511415612c09576060860151602087015114612bf957612d21565b612c028b612e29565b9850612d21565b87801515612c1357fe5b86518903604088015108945087801515612c2957fe5b60208701518903606088015108935087801515612c4257fe5b858609925087801515612c5157fe5b858409915087801515612c6057fe5b82890389801515612c6d57fe5b86870908905087801515612c7d57fe5b88801515612c8757fe5b89801515612c9157fe5b8589510960020989038208808a52905087801515612cab57fe5b88801515612cb557fe5b828a038a801515612cc257fe5b868a510908850960208a015287801515612cd857fe5b88801515612ce257fe5b83602089015109890360208b01510860208a015287801515612d0057fe5b88801515612d0a57fe5b60408c015160408e01510986098960025b60200201525b505050505050505092915050565b600080612d40604085015184613170565b915082801515612d4c57fe5b828309905082801515612d5b57fe5b81855109845282801515612d6b57fe5b83801515612d7557fe5b8284098560015b60200201510960208501525050600160409092019190915250565b60006401000003d019818084511580612db05750828551145b80612dbd57506020850151155b80612dcb5750826020860151145b15612dd95760009350612e21565b82801515612de357fe5b6020860151602087015109915082801515612dfa57fe5b600784801515612e0657fe5b875186801515612e1257fe5b89518a51090908905080821493505b505050919050565b612e31613568565b6401000003d0196000808080808060408901511515612e4f57612f38565b885195506020890151945086801515612e6457fe5b858609935086801515612e7357fe5b87801515612e7d57fe5b858809600409925086801515612e8f57fe5b87801515612e9957fe5b878809600309915086801515612eab57fe5b87801515612eb557fe5b848508880388801515612ec457fe5b84850908808952905086801515612ed757fe5b87801515612ee157fe5b88801515612eeb57fe5b868709600809880388801515612efd57fe5b89801515612f0757fe5b848b038708850908602089015286801515612f1e57fe5b87801515612f2857fe5b60408b0151870960020960408901525b50505050505050919050565b612f4c613568565b6000612f5661358f565b612f5e613710565b60008080808060408b01511515612f9b576060604051908101604052808b5181526020018b60016020020151815260200160018152509850612d21565b60208a01511515612fae578a9850612d21565b6401000003d01997508760408c015160408d015109875287801515612fcf57fe5b875160408d01510960208801526080604051908101604052808c5181526020018c6001602002015181526020018980151561300657fe5b89518d510981526020018980151561301a57fe5b60208a015160208e0151099052955060408601518651141561306a57606086015160208701511461305b576000808c5260208c0181905260408c0152612d21565b6130648b612e29565b50612d21565b8780151561307457fe5b8651890360408801510894508780151561308a57fe5b602087015189036060880151089350878015156130a357fe5b8586099250878015156130b257fe5b8584099150878015156130c157fe5b828903898015156130ce57fe5b868709089050878015156130de57fe5b888015156130e857fe5b898015156130f257fe5b8589510960020989038208808a5290508780151561310c57fe5b8880151561311657fe5b828a038a80151561312357fe5b868a510908850960208a01528780151561313957fe5b8880151561314357fe5b83602089015109890360208b01510860208a01528780151561316157fe5b60408c01518609896002612d1b565b6000808080808087158015906131865750868814155b801561319157508615155b151561319c57600080fd5b868811156131b35786888115156131af57fe5b0697505b600193508692508791505b81156131e95781838115156131cf57fe5b9495940485810290940393919283830290039190506131be565b60008512156131ff578460000387039550613203565b8495505b505050505092915050565b8080151561321857fe5b8285510984528080151561322857fe5b8180151561323257fe5b838509856001612d7c565b6401000003d019600080808080806040880151151561325b57613344565b87519550602088015194508680151561327057fe5b85860993508680151561327f57fe5b8780151561328957fe5b85880960040992508680151561329b57fe5b878015156132a557fe5b8788096003099150868015156132b757fe5b878015156132c157fe5b8485088803888015156132d057fe5b848509088089529050868015156132e357fe5b878015156132ed57fe5b888015156132f757fe5b86870960080988038880151561330957fe5b8980151561331357fe5b848b03870885090860208901528680151561332a57fe5b8780151561333457fe5b60408a0151870960020960408901525b5050505050505050565b600061335861358f565b613360613710565b60008080808060208a0151151561338f5788518a52602089015160208b015260018a60025b602002015261355c565b6020890151151561339f5761355c565b6401000003d01997508760408b015160408c0151098752878015156133c057fe5b875160408c01510960208801526080604051908101604052808b5181526020018b600160200201518152602001898015156133f757fe5b89518c510981526020018980151561340b57fe5b60208a015160208d0151099052955060408601518651141561345857606086015160208701511461344a576000808b5260208b018190528a6002613385565b6134538a61323d565b61355c565b8780151561346257fe5b8651890360408801510894508780151561347857fe5b6020870151890360608801510893508780151561349157fe5b8586099250878015156134a057fe5b8584099150878015156134af57fe5b828903898015156134bc57fe5b868709089050878015156134cc57fe5b888015156134d657fe5b898015156134e057fe5b8589510960020989038208808b529050878015156134fa57fe5b8880151561350457fe5b828a038a80151561351157fe5b868a510908850960208b01528780151561352757fe5b8880151561353157fe5b83602089015109890360208c01510860208b01528780151561354f57fe5b60408b0151860960408b01525b50505050505050505050565b60606040519081016040526003815b60008152602001906001900390816135775790505090565b6040805190810160405260008152600160208201613577565b60206040519081016040526000815290565b610140604051908101604052806135cf61358f565b81526020016135dc61358f565b8152602001600081526020016135f0613568565b815260200160008152602001600081525090565b815481835581811511611ddd57600a0281600a028360005260206000209182019101611ddd919061372a565b826002810192821561365e579160200282015b8281111561365e578251825591602001919060010190613643565b5061366a929150613781565b5090565b826003810192821561365e579160200282018281111561365e578251825591602001919060010190613643565b815481835581811511611ddd57600202816002028360005260206000209182019101611ddd919061379b565b6103006040519081016040526008815b6136df613568565b8152602001906001900390816136d75790505090565b61020060405190810160405260008152600f60208201613577565b608060405190810160405260008152600360208201613577565b61121691905b8082111561366a57600061374482826137be565b6137526002830160006137be565b600482016000905560058201600061376a91906137cc565b506000600882018190556009820155600a01613730565b61121691905b8082111561366a5760008155600101613787565b61121691905b8082111561366a5760006137b582826137be565b506002016137a1565b506000815560010160009055565b50600081556001016000815560010160009055565b6000601f82018390126137f357600080fd5b81356138066138018261433f565b614314565b9150818183526020840193506020810190508385604084028201111561382b57600080fd5b60005b83811015613859578161384188826138d6565b8452506020909201916040919091019060010161382e565b5050505092915050565b6000601f820183901261387557600080fd5b81356138836138018261433f565b915081818352602084019350602081019050838560608402820111156138a857600080fd5b60005b8381101561385957816138be888261399a565b845250602090920191606091909101906001016138ab565b6000601f82018390126138e857600080fd5b60026138f661380182614360565b9150818385602084028201111561390c57600080fd5b60005b8381101561385957816139228882613acf565b845250602092830192919091019060010161390f565b6000601f820183901261394a57600080fd5b600261395861380182614360565b9150818385602084028201111561396e57600080fd5b60005b8381101561385957816139848882613acf565b8452506020928301929190910190600101613971565b6000601f82018390126139ac57600080fd5b60036139ba61380182614360565b915081838560208402820111156139d057600080fd5b60005b8381101561385957816139e68882613acf565b84525060209283019291909101906001016139d3565b6000601f8201839012613a0e57600080fd5b6003613a1c61380182614360565b91508183856020840282011115613a3257600080fd5b60005b838110156138595781613a488882613acf565b8452506020928301929190910190600101613a35565b6000601f8201839012613a7057600080fd5b8135613a7e6138018261433f565b91508181835260208401935060208101905083856020840282011115613aa357600080fd5b60005b838110156138595781613ab98882613acf565b8452506020928301929190910190600101613aa6565b60006113448235611216565b60008060008060a08587031215613af157600080fd5b6000613afd8787613938565b945050604085013567ffffffffffffffff811115613b1a57600080fd5b613b26878288016137e1565b9350506060613b3787828801613acf565b9250506080613b4887828801613acf565b91505092959194509250565b600080600080600060c08688031215613b6c57600080fd5b6000613b788888613938565b955050604086013567ffffffffffffffff811115613b9557600080fd5b613ba1888289016137e1565b9450506060613bb288828901613acf565b9350506080613bc388828901613acf565b92505060a086013567ffffffffffffffff811115613be057600080fd5b613bec88828901613863565b9150509295509295909350565b60008060008060006101208688031215613c1257600080fd5b6000613c1e8888613938565b9550506040613c2f88828901613938565b9450506080613c40888289016139fc565b93505060e0613c5188828901613acf565b925050610100613bec88828901613acf565b600080600060a08486031215613c7857600080fd5b6000613c848686613938565b9350506040613c9586828701613938565b9250506080613ca686828701613acf565b9150509250925092565b600060208284031215613cc257600080fd5b6000613cce8484613acf565b949350505050565b60008060608385031215613ce957600080fd5b6000613cf58585613acf565b9250506020613d0685828601613938565b9150509250929050565b600080600080600060c08688031215613d2857600080fd5b6000613d348888613acf565b9550506020613d4588828901613938565b945050606086013567ffffffffffffffff811115613d6257600080fd5b613d6e888289016137e1565b9350506080613d7f88828901613acf565b92505060a0613bec88828901613acf565b60008060008060c08587031215613da657600080fd5b6000613db28787613acf565b9450506020613dc387828801613938565b9350506060613dd487828801613938565b92505060a0613b4887828801613acf565b6000806000806000806101008789031215613dff57600080fd5b6000613e0b8989613acf565b9650506020613e1c89828a01613938565b9550506060613e2d89828a01613938565b94505060a0613e3e89828a01613acf565b93505060c0613e4f89828a01613acf565b92505060e0613e6089828a01613acf565b9150509295509295509295565b60008060408385031215613e8057600080fd5b6000613e8c8585613acf565b925050602083013567ffffffffffffffff811115613ea957600080fd5b613d0685828601613a5e565b60008060408385031215613ec857600080fd5b6000613ed48585613acf565b9250506020613d0685828601613acf565b600080600060608486031215613efa57600080fd5b6000613f068686613acf565b9350506020613f1786828701613acf565b925050604084013567ffffffffffffffff811115613f3457600080fd5b613ca686828701613863565b600080600060608486031215613f5557600080fd5b6000613f618686613acf565b9350506020613f7286828701613acf565b9250506040613ca686828701613acf565b600080600080600060a08688031215613f9b57600080fd5b6000613fa78888613acf565b9550506020613fb888828901613acf565b9450506040613fc988828901613acf565b9350506060613fda88828901613acf565b9250506080613bec88828901613acf565b6000613ff682614384565b8084526020840193506140088361437e565b60005b828110156140395761401e86835161415a565b6140278261437e565b6101409690960195915060010161400b565b5093949350505050565b61404c8161438e565b61405582611216565b60005b8281101561200b5761406b8583516141d2565b6140748261437e565b602095909501949150600101614058565b61408e8161438e565b61409782611216565b60005b8281101561200b576140ad8583516141d2565b6140b68261437e565b60209590950194915060010161409a565b6140d081614394565b6140d982611216565b60005b8281101561200b576140ef8583516141d2565b6140f88261437e565b6020959095019491506001016140dc565b61411281614394565b61411b82611216565b60005b8281101561200b576141318583516141d2565b61413a8261437e565b60209590950194915060010161411e565b6141548161439a565b82525050565b6101408201815161416b8482614085565b50602082015161417e6040850182614085565b50604082015161419160808501826141d2565b5060608201516141a460a0850182614109565b5060808201516141b86101008501826141d2565b5060a08201516141cc6101208501826141d2565b50505050565b61415481611216565b602080825281016113448184613feb565b604081016113838284614043565b61014081016142098289614043565b6142166040830188614043565b61422360808301876141d2565b61423060a08301866140c7565b61423e6101008301856141d2565b61424c6101208301846141d2565b979650505050505050565b6060810161138382846140c7565b60208101611383828461414b565b6101608101614282828a61414b565b61428f6020830189614043565b61429c6060830188614043565b6142a960a08301876141d2565b6142b660c08301866140c7565b6142c46101208301856141d2565b6142d26101408301846141d2565b98975050505050505050565b6020810161138382846141d2565b606081016142fa82866141d2565b61430760208301856141d2565b613cce60408301846141d2565b6000604051905081810181811067ffffffffffffffff8211171561433757600080fd5b604052919050565b600067ffffffffffffffff82111561435657600080fd5b5060209081020190565b600067ffffffffffffffff82111561437757600080fd5b5060200290565b60200190565b6000815192915050565b50600290565b50600390565b1515905600fffffffffffffffffffffffffffffffebaaedce6af48a03bbfd25e8cd0364141a265627a7a72305820123f9db8704cc93b91d5ac9b2343646e06a9d70262d983752869a59f954773fd6c6578706572696d656e74616cf50037",
  "source": "pragma solidity ^0.4.7;\r\npragma experimental ABIEncoderV2;\r\nimport \"./ECCMath_noconflict.sol\";\r\nimport \"./Secp256k1_noconflict.sol\";\r\n\r\ncontract OrPoK {\r\n    \r\n    uint constant p = 0xFFFFFFFFFFFFFFFFFFFFFFFFFFFFFFFFFFFFFFFFFFFFFFFFFFFFFFFEFFFFFC2F;\r\n\r\n    // Base point (generator) G\r\n    // Eason: represent werewolf\r\n    uint constant Gx =0x79BE667EF9DCBBAC55A06295CE870B07029BFCDB2DCE28D959F2815B16F81798;\r\n    uint constant Gy = 0x483ADA7726A3C4655DA4FBFC0E1108A8FD17B448A68554199C47D08FFB10D4B8;\r\n    uint constant Hx = 0xEC70EDA5ABD3416F239EF65D4B288717C4CF7BA469776869F2AAE2E00DF74DCA;\r\n    uint constant Hy = 0xEF7824FF7E7F248BF1C94F61C04A69C4D9DB232C86D85478B97E87753114DE2D;\r\n    \r\n\r\n    //Eason: oredr of elliptic curve\r\n    //coefficient in Zq \r\n    uint public constant q = 0xFFFFFFFFFFFFFFFFFFFFFFFFFFFFFFFEBAAEDCE6AF48A03BBFD25E8CD0364141;\r\n\r\n\r\n\r\n    uint[2] public G;\r\n    uint[2] public H;\r\n    \r\n    uint[2][] public problems;//ECDLP for G\r\n    PoK[] public proofs;\r\n    function OrPoK() public{\r\n        G[0] = Gx;\r\n        G[1] = Gy;\r\n        H[0] = Hx;\r\n        H[1] = Hy;\r\n    }\r\n\r\n    function easySetProblems(uint real, uint[] pokerKeys) public {\r\n        problems.length = pokerKeys.length;\r\n        for(uint i=0; i<real; i++){\r\n            uint[3] memory secretH = Secp256k1_noconflict._mul(pokerKeys[i], H);\r\n            ECCMath_noconflict.toZ1(secretH,p);\r\n            (problems[i][0],problems[i][1]) = (secretH[0],secretH[1]);\r\n        }\r\n        uint[3] memory secretG = Secp256k1_noconflict._mul(pokerKeys[i], G);\r\n        ECCMath_noconflict.toZ1(secretG,p);\r\n        (problems[i][0],problems[i][1]) = (secretG[0],secretG[1]);\r\n        for(i= real+1; i<problems.length; i++){\r\n            secretH = Secp256k1_noconflict._mul(pokerKeys[i], H);\r\n            ECCMath_noconflict.toZ1(secretH,p);\r\n            (problems[i][0],problems[i][1]) = (secretH[0],secretH[1]);\r\n        }      \r\n    }\r\n\r\n    function getProblems(uint i) public view returns(uint[2] point){\r\n        assert(i< problems.length);\r\n        return problems[i];\r\n    }//getter for outside world\r\n\r\n    function getProblemsLength() public view returns(uint){\r\n        \r\n        return problems.length;\r\n    }//getter for outside world\r\n\r\n    //input is \"t\", move t,c to easy version\r\n    function createSchnorr(uint pokerKey, uint[2] werewolf, uint[2] liveHand, uint victim, uint tReady,uint cReady) public view returns(uint[2] g, uint[2] A, uint message, uint[3] T, uint c, uint s){\r\n        //input: conditions \r\n        //output: conditions & PoK\r\n        uint secret = pokerKey;\r\n        (g[0],g[1]) = (werewolf[0],werewolf[1]);\r\n        (A[0],A[1]) = (liveHand[0],liveHand[1]);\r\n        message = victim;\r\n        \r\n        uint[3] memory secretG = Secp256k1_noconflict._mul(secret, g);\r\n        ECCMath_noconflict.toZ1(secretG,p);\r\n        require(secretG[0] == A[0] && secretG[1] == A[1]);\r\n        \r\n        uint t;\r\n        if(tReady != 0 && cReady != 0){\r\n            t = tReady;\r\n            T = Secp256k1_noconflict._mul(t, G);\r\n            ECCMath_noconflict.toZ1(T,p);\r\n            c = cReady;\r\n        }else{\r\n            t = uint(keccak256(G,A,message)) % q;//add index of proof?\r\n            //TODO: add some randomness\r\n            T = Secp256k1_noconflict._mul(t, G);\r\n            ECCMath_noconflict.toZ1(T,p);\r\n            c=uint(keccak256(G,A, message,T)) % q;\r\n        }\r\n        s = addmod(mulmod(secret,c,q),t,q);\r\n    }\r\n\r\n    function easyCreateSchnorr(uint real, uint pokerKey, uint victim, uint tReady, uint cReady) public view returns(uint[2] g, uint[2] A, uint message, uint[3] T, uint c, uint s){\r\n        \r\n        return createSchnorr(pokerKey, G, problems[ real ], victim, tReady, cReady);\r\n    }\r\n\r\n    \r\n    // m - 1 fake proof\r\n    function forgeProof(uint[2] werewolf, uint[2] liveHand, uint victim) public view returns(uint[2] _H, uint[2] B,uint message, uint[3] T2, uint c2, uint s2){\r\n        (_H[0],_H[1]) = (werewolf[0],werewolf[1]);\r\n        (B[0],B[1])=(liveHand[0],liveHand[1]);\r\n        message = victim;\r\n\r\n        c2 = uint(keccak256(uint8(1),B, message)) % q;//choose a random # by self\r\n        s2 = uint(keccak256(uint8(2),B, message)) % q;//choose a random # by self\r\n        uint[3] memory s2H = Secp256k1_noconflict._mul(s2, _H);\r\n        uint[3] memory c2B = Secp256k1_noconflict._mul(c2, B);\r\n        ECCMath_noconflict.toZ1(c2B,p);\r\n        //T2 = Secp256k1_noconflict._mul(q-1,[c2B[0],c2B[1]]);\r\n        T2 = [c2B[0],p-c2B[1],1];//negative in affine?\r\n        T2 = Secp256k1_noconflict._add(s2H, T2);//The negative in Jacobi coordinates?\r\n        ECCMath_noconflict.toZ1(T2,p);\r\n    }\r\n\r\n    function easyForgeProof(uint i,uint victim) public view returns(uint[2] h, uint[2] B,uint message, uint[3] T2, uint c2, uint s2){\r\n        return forgeProof(G, problems[i], victim);\r\n        //function forgeProof can't overloading. work around : rename \r\n    }\r\n/*\r\n    //can be ommited?\r\n    //1 real proof\r\n    function easyComputeT(uint pokerKey,  uint victim, uint real) public view returns(uint[3] realT){\r\n        //i) choose t\r\n        uint realt = uint(keccak256(G, problems, victim));//need other T??\r\n        realt = uint(keccak256(realt, pokerKey)) % q;//avoid stack too deep\r\n        //add index of proof? pokerKey instead\r\n        //add pokerKey for randomnes\r\n        //ii) compute T\r\n        realT = Secp256k1_noconflict._mul(realt, G);\r\n        ECCMath_noconflict.toZ1(realT,p);\r\n    }\r\n*/\r\n    function computeRealt(uint[2] _G, uint[2][] _problems, uint pokerKey,  uint victim)public view returns(uint realt){\r\n        realt = uint(keccak256(_G, _problems, victim));\r\n        realt = uint(keccak256(realt, pokerKey)) % q;\r\n    }\r\n    //1 real proof\r\n    function easyComputeRealt(uint pokerKey,  uint victim, uint real) public view returns(uint realt){\r\n        return computeRealt(G, problems, pokerKey,  victim);\r\n        //i) choose t\r\n        realt = uint(keccak256(G, problems, victim));//need other T??\r\n        realt = uint(keccak256(realt, pokerKey)) % q;//avoid stack too deep\r\n        //add index of proof? pokerKey instead\r\n        //add pokerKey for randomnes\r\n    }\r\n\r\n    //1 real proof\r\n    function computeTFrom(uint realt, uint[2] _G) public view returns(uint[3] realT){\r\n        //ii) compute T\r\n        realT = Secp256k1_noconflict._mul(realt, _G);\r\n        ECCMath_noconflict.toZ1(realT,p);\r\n    }\r\n\r\n    function easyComputeTFrom(uint realt) public view returns(uint[3] realT){\r\n        //ii) compute T\r\n        return computeTFrom(realt, G);\r\n    }\r\n\r\n    function computeChallenge(uint[2] _G, uint[2][] _problems, uint victim, uint real, uint[3][] Ts) public view returns(uint realChallenge){\r\n        //iii) compute c\r\n        realChallenge = uint(keccak256(_G, _problems, victim,Ts)) % q;\r\n        //realChallenge = addmod(realChallenge, q-totalFakeC, q);//submod, avoid rounding when negative\r\n    }\r\n\r\n    function easyComputeChallenge(uint victim, uint real, uint[3][] Ts) public view returns(uint realChallenge){\r\n        return computeChallenge(G, problems, victim, real, Ts);\r\n    }\r\n\r\n    \r\n    function publishProofs(uint pokerKey, uint[2] werewolf, uint[2][] liveHands, uint victim, uint real) public{\r\n        //input: conditions \r\n        //output: store conditions & PoK\r\n\r\n        require(real<liveHands.length);\r\n        \r\n        uint totalFakeC = 0;\r\n        uint[3][ ] memory T = new uint[3][](liveHands.length);\r\n\r\n        // m-1 \"fake\" proof\r\n        uint i=0;\r\n        proofs.length = liveHands.length;\r\n        PoK storage pf = proofs[0];\r\n\r\n        for( i=0; i<real; i++){\r\n            emit Process(i); \r\n            pf = proofs[i];\r\n            (pf.g, pf.A, pf.message,) = forgeProof(werewolf,liveHands[i],victim);\r\n            (, pf.T, pf.c, pf.s) = forgeProof(werewolf,liveHands[i],victim);\r\n            //Just avoid stack too deep\r\n            \r\n            \r\n            totalFakeC = addmod(totalFakeC, pf.c, q);\r\n            T[i] = pf.T;\r\n\r\n        }\r\n\r\n        for( i=real+1; i<liveHands.length; i++){\r\n            emit Process(i);\r\n            pf = proofs[i]; \r\n            (pf.g, pf.A, pf.message,) = forgeProof(werewolf,liveHands[i],victim);\r\n            (, pf.T, pf.c, pf.s) = forgeProof(werewolf,liveHands[i],victim);\r\n            //Just avoid stack too deep\r\n            totalFakeC = addmod(totalFakeC, pf.c, q);\r\n            T[i] = pf.T;\r\n        }\r\n        emit Process(real);\r\n        //1 real proof\r\n        pf = proofs[ real ];\r\n        \r\n        //i) choose t\r\n        uint realt = uint(keccak256(werewolf, liveHands, victim));\r\n        realt = uint(keccak256(realt, pokerKey)) % q;//avoid stack too deep\r\n        //add index of proof? pokerKey instead\r\n        //add pokerKey for randomness\r\n        \r\n        //ii) compute T\r\n        uint[3] memory realT = Secp256k1_noconflict._mul(realt, werewolf);\r\n        ECCMath_noconflict.toZ1(realT,p);\r\n        T[ real ] = realT;\r\n        \r\n        //iii) compute c\r\n        uint challenge = uint(keccak256(werewolf, liveHands, victim,T)) % q;\r\n        uint realc = addmod(challenge, q-totalFakeC, q);//submod, avoid rounding when negative\r\n        //iv) create proof\r\n        (pf.g, pf.A, pf.message,) = createSchnorr(pokerKey,werewolf,liveHands[real],victim, realt, realc);\r\n        (, pf.T, pf.c, pf.s) = createSchnorr(pokerKey,werewolf,liveHands[real],victim,realt,realc);\r\n    }\r\n\r\n    function easyPublishProofs(uint pokerKey, uint victim, uint real) public{\r\n        assert(problems.length != 0);\r\n        publishProofs(pokerKey, G, problems, victim, real);\r\n    }\r\n\r\n    function createProofs(uint pokerKey,  uint victim, uint real) public view returns(PoK[] pfs){//although we can use experimental abi in solidty. web3 may have not support it \r\n        //input: conditions \r\n        //output: store conditions & PoK\r\n        //uint[2] memory werewolf= [G[0],G[1]];\r\n        \r\n        //require(real<problems.length);\r\n        \r\n        uint totalFakeC = 0;\r\n        \r\n        uint[3][ ] memory T = new uint[3][](problems.length);\r\n\r\n        // m-1 \"fake\" proof\r\n        uint i=0;\r\n        pfs = new PoK[](problems.length);\r\n        PoK memory pf = pfs[0];\r\n\r\n        for( i=0; i<real; i++){\r\n            pf = pfs[i];\r\n            (pf.g, pf.A, pf.message,) = forgeProof(G,problems[i],victim);\r\n            (, pf.T, pf.c, pf.s) = forgeProof(G,problems[i],victim);\r\n            //Just avoid stack too deep\r\n            \r\n            \r\n            totalFakeC = addmod(totalFakeC, pf.c, q);\r\n            T[i] = pf.T;\r\n\r\n        }\r\n\r\n        for( i=real+1; i<problems.length; i++){\r\n            pf = pfs[i]; \r\n            (pf.g, pf.A, pf.message,) = forgeProof(G,problems[i],victim);\r\n            (, pf.T, pf.c, pf.s) = forgeProof(G,problems[i],victim);\r\n            //Just avoid stack too deep\r\n            totalFakeC = addmod(totalFakeC, pf.c, q);\r\n            T[i] = pf.T;\r\n        }\r\n        //1 real proof\r\n        pf = pfs[ real ];\r\n        \r\n        //i) choose t\r\n        uint realt = uint(keccak256(G, problems, victim));\r\n        realt = uint(keccak256(realt, pokerKey)) % q;//avoid stack too deep\r\n        //add index of proof? pokerKey instead\r\n        //add pokerKey for randomness\r\n        \r\n        //ii) compute T\r\n        uint[3] memory realT = Secp256k1_noconflict._mul(realt, G);\r\n        ECCMath_noconflict.toZ1(realT,p);\r\n        T[ real ] = realT;\r\n        \r\n        //iii) compute c\r\n        uint challenge = uint(keccak256(G, problems, victim,T)) % q;\r\n        uint realc = addmod(challenge, q-totalFakeC, q);//submod, avoid rounding when negative\r\n        //iv) create proof\r\n        (pf.g, pf.A, pf.message,) = createSchnorr(pokerKey,G,problems[real],victim, realt, realc);\r\n        (, pf.T, pf.c, pf.s) = createSchnorr(pokerKey,G,problems[real],victim,realt,realc);\r\n    }\r\n\r\n    /*function verifySchnorr(uint[2] g,uint[2] A, uint message, uint[3] T, uint c, uint s) public view returns (bool result) {\r\n        if (!Secp256k1_noconflict.isPubKey(A)) return false;\r\n        if (!Secp256k1_noconflict.isPubKey(T)) return false;\r\n        \r\n        //1 Check c   \r\n        if (c!=uint(keccak256(g,A, message,T)) % q) return false;//Check the message\r\n        \r\n        //2 Check equation\r\n        uint[3] memory LHS = Secp256k1_noconflict._mul(s, g);\r\n        uint[3] memory RHS = Secp256k1_noconflict._add(T,Secp256k1_noconflict._mul(c, A));\r\n        //_add: Jacobi -> Jacobi\r\n        // Convert to Affine Co-ordinates\r\n        ECCMath_noconflict.toZ1(LHS, p);\r\n        ECCMath_noconflict.toZ1(RHS, p);\r\n        // Verify. Do they match?\r\n        if(RHS[0] == LHS[0] &&\r\n           RHS[1] == LHS[1]) {\r\n            return true;\r\n        } else {\r\n                return false;\r\n            }\r\n    }*/\r\n\r\n    function verifySchnorr(uint[2] g,uint[2] A, /*uint message,*/ uint[3] T, uint c, uint s) public view returns (bool result) {\r\n        if (!Secp256k1_noconflict.isPubKey(A)) return false;\r\n        if (!Secp256k1_noconflict.isPubKey(T)) return false;\r\n        //1 Check c   \r\n        //if (c!=uint(keccak256(g,A, message,T)) % q) return false;//Check the message\r\n        \r\n        //2 Check equation\r\n        uint[3] memory LHS = Secp256k1_noconflict._mul(s, g);\r\n        uint[3] memory RHS = Secp256k1_noconflict._add(T,Secp256k1_noconflict._mul(c, A));\r\n        //_add: Jacobi -> Jacobi\r\n        // Convert to Affine Co-ordinates\r\n        ECCMath_noconflict.toZ1(LHS, p);\r\n        ECCMath_noconflict.toZ1(RHS, p);\r\n        // Verify. Do they match?\r\n        if(RHS[0] == LHS[0] &&\r\n           RHS[1] == LHS[1]) {\r\n            return true;\r\n        } else {\r\n                return false;\r\n            }\r\n    }\r\n\r\n    //Eason:check the proofs in the contract\r\n    function easyVerifyProofs() public returns (bool result) { \r\n\r\n        uint challenge = 0;\r\n        uint[3][ ] memory Ts = new uint[3][](proofs.length);\r\n        uint[2][ ] memory As = new uint[2][](proofs.length);\r\n        \r\n        PoK memory pf;\r\n        for(uint i=0; i<proofs.length; i++){\r\n            pf = proofs[i];\r\n            if(!verifySchnorr(pf.g, pf.A, /*pf.message,*/ pf.T, pf.c, pf.s)) {\r\n                emit Fail(i);\r\n                return false;\r\n            }\r\n\r\n            challenge = addmod(pf.c, challenge, q);\r\n            As[i] = pf.A;\r\n            Ts[i] = pf.T;\r\n        }\r\n        pf = proofs[0];\r\n        if (!(challenge == uint(keccak256(pf.g, As, pf.message, Ts)) % q)) return false;//Check the message\r\n        return true;\r\n    }\r\n    /*function test(uint pokerKey, uint victim) public view  returns(bool, uint, uint[2], uint[2], uint, uint[3], uint, uint){\r\n        bool result = verifyProofs(prove(pokerKey, G, [hand[0],hand[1]], victim));\r\n        \r\n        return (result,prove(pokerKey, G, [hand[0],hand[1]], victim)) ;\r\n    }*/\r\n\r\n    function testSchnorr(uint pokerKey, uint[2] werewolf, uint[2] liveHand, uint victim) public view returns(bool result, uint[2] _G, uint[2] A, uint message, uint[3] T, uint c, uint s){\r\n        //test \"real\" also \"fake\" proof\r\n        if(werewolf[0]==0 && werewolf[1]==0 && liveHand[0]==0 && liveHand[1]==0){\r\n            (werewolf[0],werewolf[1]) = (G[0],G[1]);\r\n            (liveHand[0],liveHand[1]) = (problems[0][0], problems[0][1]);\r\n        }\r\n        require(werewolf[0]!=0 && werewolf[1]!=0 && liveHand[0]!=0 && liveHand[1]!=0);\r\n        //message = victim;\r\n        if(pokerKey != 0){\r\n            //uint secret = pokerKey;\r\n            (_G, A, message,T,c,s) = createSchnorr(pokerKey, werewolf, liveHand, victim, 0 ,0 );\r\n        }else{\r\n            (_G, A, message,T,c,s) = forgeProof(werewolf, liveHand, victim);\r\n        }\r\n        result=verifySchnorr(_G, A, /*message,*/ T,c,s);\r\n    }\r\n\r\n    struct PoK{\r\n        uint[2] g; \r\n        uint[2] A; \r\n        uint message; \r\n        uint[3] T; \r\n        uint c; \r\n        uint s;\r\n    }\r\n    \r\n    event Fail(uint pf);\r\n    event Process(uint pf);\r\n    //event parameter needs a name @@\r\n    //https://github.com/trufflesuite/truffle/issues/494\r\n\r\n    /* TODO\r\n    struct BetaPoK{\r\n        Problem problem; \r\n        //uint[2] g; \r\n        //uint[2] A; \r\n        uint message; \r\n        Signature signature;\r\n        //uint[3] T; \r\n        //uint c; \r\n        //uint s;\r\n    }\r\n\r\n    struct Problem{\r\n        uint[2] g; \r\n        uint[2] A;\r\n    }\r\n\r\n    struct Signature{\r\n        uint[3] T; \r\n        uint c; \r\n        uint s;\r\n    }*/\r\n}\r\n",
  "sourcePath": "C:\\Users\\eason\\Documents\\GitHub\\SmartWerewolf\\contracts\\OrPoK.sol",
  "compiler": {
    "name": "solc",
    "version": "0.4.21+commit.dfe3193c.Emscripten.clang"
  },
  "schemaVersion": "2.0.0",
  "updatedAt": "2018-04-29T23:34:14.924Z"
}