{
  "contractName": "OrPoK",
  "abi": [
    {
      "constant": true,
      "inputs": [
        {
          "name": "",
          "type": "uint256"
        },
        {
          "name": "",
          "type": "uint256"
        }
      ],
      "name": "problems",
      "outputs": [
        {
          "name": "",
          "type": "uint256"
        }
      ],
      "payable": false,
      "stateMutability": "view",
      "type": "function"
    },
    {
      "constant": true,
      "inputs": [
        {
          "name": "",
          "type": "uint256"
        }
      ],
      "name": "G",
      "outputs": [
        {
          "name": "",
          "type": "uint256"
        }
      ],
      "payable": false,
      "stateMutability": "view",
      "type": "function"
    },
    {
      "constant": true,
      "inputs": [
        {
          "name": "",
          "type": "uint256"
        }
      ],
      "name": "proofs",
      "outputs": [
        {
          "name": "message",
          "type": "uint256"
        },
        {
          "name": "c",
          "type": "uint256"
        },
        {
          "name": "s",
          "type": "uint256"
        }
      ],
      "payable": false,
      "stateMutability": "view",
      "type": "function"
    },
    {
      "constant": true,
      "inputs": [
        {
          "name": "",
          "type": "uint256"
        }
      ],
      "name": "H",
      "outputs": [
        {
          "name": "",
          "type": "uint256"
        }
      ],
      "payable": false,
      "stateMutability": "view",
      "type": "function"
    },
    {
      "constant": true,
      "inputs": [],
      "name": "q",
      "outputs": [
        {
          "name": "",
          "type": "uint256"
        }
      ],
      "payable": false,
      "stateMutability": "view",
      "type": "function"
    },
    {
      "inputs": [],
      "payable": false,
      "stateMutability": "nonpayable",
      "type": "constructor"
    },
    {
      "anonymous": false,
      "inputs": [
        {
          "indexed": false,
          "name": "pf",
          "type": "uint256"
        }
      ],
      "name": "Fail",
      "type": "event"
    },
    {
      "anonymous": false,
      "inputs": [
        {
          "indexed": false,
          "name": "pf",
          "type": "uint256"
        }
      ],
      "name": "Process",
      "type": "event"
    },
    {
      "anonymous": false,
      "inputs": [
        {
          "indexed": false,
          "name": "a",
          "type": "uint256"
        },
        {
          "indexed": false,
          "name": "b",
          "type": "uint256"
        }
      ],
      "name": "Check",
      "type": "event"
    },
    {
      "constant": false,
      "inputs": [
        {
          "name": "real",
          "type": "uint256"
        },
        {
          "name": "pokerKeys",
          "type": "uint256[]"
        }
      ],
      "name": "easySetProblems",
      "outputs": [],
      "payable": false,
      "stateMutability": "nonpayable",
      "type": "function"
    },
    {
      "constant": true,
      "inputs": [
        {
          "name": "i",
          "type": "uint256"
        }
      ],
      "name": "getProblems",
      "outputs": [
        {
          "name": "point",
          "type": "uint256[2]"
        }
      ],
      "payable": false,
      "stateMutability": "view",
      "type": "function"
    },
    {
      "constant": true,
      "inputs": [],
      "name": "getProblemsLength",
      "outputs": [
        {
          "name": "",
          "type": "uint256"
        }
      ],
      "payable": false,
      "stateMutability": "view",
      "type": "function"
    },
    {
      "constant": true,
      "inputs": [
        {
          "name": "pokerKey",
          "type": "uint256"
        },
        {
          "name": "werewolf",
          "type": "uint256[2]"
        },
        {
          "name": "liveHand",
          "type": "uint256[2]"
        },
        {
          "name": "victim",
          "type": "uint256"
        },
        {
          "name": "tReady",
          "type": "uint256"
        },
        {
          "name": "cReady",
          "type": "uint256"
        }
      ],
      "name": "createSchnorr",
      "outputs": [
        {
          "name": "g",
          "type": "uint256[2]"
        },
        {
          "name": "A",
          "type": "uint256[2]"
        },
        {
          "name": "message",
          "type": "uint256"
        },
        {
          "name": "T",
          "type": "uint256[3]"
        },
        {
          "name": "c",
          "type": "uint256"
        },
        {
          "name": "s",
          "type": "uint256"
        }
      ],
      "payable": false,
      "stateMutability": "view",
      "type": "function"
    },
    {
      "constant": true,
      "inputs": [
        {
          "name": "real",
          "type": "uint256"
        },
        {
          "name": "pokerKey",
          "type": "uint256"
        },
        {
          "name": "victim",
          "type": "uint256"
        },
        {
          "name": "tReady",
          "type": "uint256"
        },
        {
          "name": "cReady",
          "type": "uint256"
        }
      ],
      "name": "easyCreateSchnorr",
      "outputs": [
        {
          "name": "g",
          "type": "uint256[2]"
        },
        {
          "name": "A",
          "type": "uint256[2]"
        },
        {
          "name": "message",
          "type": "uint256"
        },
        {
          "name": "T",
          "type": "uint256[3]"
        },
        {
          "name": "c",
          "type": "uint256"
        },
        {
          "name": "s",
          "type": "uint256"
        }
      ],
      "payable": false,
      "stateMutability": "view",
      "type": "function"
    },
    {
      "constant": true,
      "inputs": [
        {
          "name": "werewolf",
          "type": "uint256[2]"
        },
        {
          "name": "liveHand",
          "type": "uint256[2]"
        },
        {
          "name": "victim",
          "type": "uint256"
        }
      ],
      "name": "forgeProof",
      "outputs": [
        {
          "name": "_H",
          "type": "uint256[2]"
        },
        {
          "name": "B",
          "type": "uint256[2]"
        },
        {
          "name": "message",
          "type": "uint256"
        },
        {
          "name": "T2",
          "type": "uint256[3]"
        },
        {
          "name": "c2",
          "type": "uint256"
        },
        {
          "name": "s2",
          "type": "uint256"
        }
      ],
      "payable": false,
      "stateMutability": "view",
      "type": "function"
    },
    {
      "constant": true,
      "inputs": [
        {
          "name": "i",
          "type": "uint256"
        },
        {
          "name": "victim",
          "type": "uint256"
        }
      ],
      "name": "easyForgeProof",
      "outputs": [
        {
          "name": "h",
          "type": "uint256[2]"
        },
        {
          "name": "B",
          "type": "uint256[2]"
        },
        {
          "name": "message",
          "type": "uint256"
        },
        {
          "name": "T2",
          "type": "uint256[3]"
        },
        {
          "name": "c2",
          "type": "uint256"
        },
        {
          "name": "s2",
          "type": "uint256"
        }
      ],
      "payable": false,
      "stateMutability": "view",
      "type": "function"
    },
    {
      "constant": true,
      "inputs": [
        {
          "name": "_G",
          "type": "uint256[2]"
        },
        {
          "name": "_problems",
          "type": "uint256[2][]"
        },
        {
          "name": "pokerKey",
          "type": "uint256"
        },
        {
          "name": "victim",
          "type": "uint256"
        }
      ],
      "name": "computeRealt",
      "outputs": [
        {
          "name": "realt",
          "type": "uint256"
        }
      ],
      "payable": false,
      "stateMutability": "view",
      "type": "function"
    },
    {
      "constant": true,
      "inputs": [
        {
          "name": "pokerKey",
          "type": "uint256"
        },
        {
          "name": "victim",
          "type": "uint256"
        },
        {
          "name": "real",
          "type": "uint256"
        }
      ],
      "name": "easyComputeRealt",
      "outputs": [
        {
          "name": "realt",
          "type": "uint256"
        }
      ],
      "payable": false,
      "stateMutability": "view",
      "type": "function"
    },
    {
      "constant": true,
      "inputs": [
        {
          "name": "realt",
          "type": "uint256"
        },
        {
          "name": "_G",
          "type": "uint256[2]"
        }
      ],
      "name": "computeTFrom",
      "outputs": [
        {
          "name": "realT",
          "type": "uint256[3]"
        }
      ],
      "payable": false,
      "stateMutability": "view",
      "type": "function"
    },
    {
      "constant": true,
      "inputs": [
        {
          "name": "realt",
          "type": "uint256"
        }
      ],
      "name": "easyComputeTFrom",
      "outputs": [
        {
          "name": "realT",
          "type": "uint256[3]"
        }
      ],
      "payable": false,
      "stateMutability": "view",
      "type": "function"
    },
    {
      "constant": true,
      "inputs": [
        {
          "name": "_G",
          "type": "uint256[2]"
        },
        {
          "name": "_problems",
          "type": "uint256[2][]"
        },
        {
          "name": "victim",
          "type": "uint256"
        },
        {
          "name": "Ts",
          "type": "uint256[3][]"
        }
      ],
      "name": "computeChallenge",
      "outputs": [
        {
          "name": "realChallenge",
          "type": "uint256"
        }
      ],
      "payable": false,
      "stateMutability": "view",
      "type": "function"
    },
    {
      "constant": true,
      "inputs": [
        {
          "name": "victim",
          "type": "uint256"
        },
        {
          "name": "Ts",
          "type": "uint256[3][]"
        }
      ],
      "name": "easyComputeChallenge",
      "outputs": [
        {
          "name": "realChallenge",
          "type": "uint256"
        }
      ],
      "payable": false,
      "stateMutability": "view",
      "type": "function"
    },
    {
      "constant": false,
      "inputs": [
        {
          "name": "pokerKey",
          "type": "uint256"
        },
        {
          "name": "werewolf",
          "type": "uint256[2]"
        },
        {
          "name": "liveHands",
          "type": "uint256[2][]"
        },
        {
          "name": "victim",
          "type": "uint256"
        },
        {
          "name": "real",
          "type": "uint256"
        }
      ],
      "name": "publishProofs",
      "outputs": [],
      "payable": false,
      "stateMutability": "nonpayable",
      "type": "function"
    },
    {
      "constant": false,
      "inputs": [
        {
          "name": "pokerKey",
          "type": "uint256"
        },
        {
          "name": "victim",
          "type": "uint256"
        },
        {
          "name": "real",
          "type": "uint256"
        }
      ],
      "name": "easyPublishProofs",
      "outputs": [],
      "payable": false,
      "stateMutability": "nonpayable",
      "type": "function"
    },
    {
      "constant": true,
      "inputs": [
        {
          "name": "pokerKey",
          "type": "uint256"
        },
        {
          "name": "victim",
          "type": "uint256"
        },
        {
          "name": "real",
          "type": "uint256"
        }
      ],
      "name": "createProofs",
      "outputs": [
        {
          "components": [
            {
              "name": "g",
              "type": "uint256[2]"
            },
            {
              "name": "A",
              "type": "uint256[2]"
            },
            {
              "name": "message",
              "type": "uint256"
            },
            {
              "name": "T",
              "type": "uint256[3]"
            },
            {
              "name": "c",
              "type": "uint256"
            },
            {
              "name": "s",
              "type": "uint256"
            }
          ],
          "name": "pfs",
          "type": "tuple[]"
        }
      ],
      "payable": false,
      "stateMutability": "view",
      "type": "function"
    },
    {
      "constant": true,
      "inputs": [
        {
          "name": "g",
          "type": "uint256[2]"
        },
        {
          "name": "A",
          "type": "uint256[2]"
        },
        {
          "name": "T",
          "type": "uint256[3]"
        },
        {
          "name": "c",
          "type": "uint256"
        },
        {
          "name": "s",
          "type": "uint256"
        }
      ],
      "name": "verifySchnorr",
      "outputs": [
        {
          "name": "result",
          "type": "bool"
        }
      ],
      "payable": false,
      "stateMutability": "view",
      "type": "function"
    },
    {
      "constant": false,
      "inputs": [],
      "name": "easyVerifyProofs",
      "outputs": [
        {
          "name": "result",
          "type": "bool"
        }
      ],
      "payable": false,
      "stateMutability": "nonpayable",
      "type": "function"
    },
    {
      "constant": true,
      "inputs": [
        {
          "name": "pokerKey",
          "type": "uint256"
        },
        {
          "name": "werewolf",
          "type": "uint256[2]"
        },
        {
          "name": "liveHand",
          "type": "uint256[2]"
        },
        {
          "name": "victim",
          "type": "uint256"
        }
      ],
      "name": "testSchnorr",
      "outputs": [
        {
          "name": "result",
          "type": "bool"
        },
        {
          "name": "_G",
          "type": "uint256[2]"
        },
        {
          "name": "A",
          "type": "uint256[2]"
        },
        {
          "name": "message",
          "type": "uint256"
        },
        {
          "name": "T",
          "type": "uint256[3]"
        },
        {
          "name": "c",
          "type": "uint256"
        },
        {
          "name": "s",
          "type": "uint256"
        }
      ],
      "payable": false,
      "stateMutability": "view",
      "type": "function"
    }
  ],
  "bytecode": "0x6060604052341561000f57600080fd5b7f79be667ef9dcbbac55a06295ce870b07029bfcdb2dce28d959f2815b16f8179860009081557f483ada7726a3c4655da4fbfc0e1108a8fd17b448a68554199c47d08ffb10d4b86001557fec70eda5abd3416f239ef65d4b288717c4cf7ba469776869f2aae2e00df74dca6002557fef7824ff7e7f248bf1c94f61c04a69c4d9db232c86d85478b97e87753114de2d6003556143869081906100b190396000f30060606040526004361061013d5763ffffffff7c01000000000000000000000000000000000000000000000000000000006000350416630fe898c381146101425780632b0c1aba146101765780632cf969ed146101a15780634420a3f8146101d157806350a3f073146101fc5780635c3321921461020f5780635d09d2ad1461022d5780635d0c044c146102405780637cb63ec81461026b57806383242e9014610289578063839f6714146102b457806388f602a8146102d25780638dc095b4146102f05780639ddaf5aa14610310578063a2cf93081461033d578063b73318651461035b578063b77d126814610379578063bb31400914610397578063c61a0e87146103b5578063cbc00c25146103d3578063cbcc2b97146103f1578063d168b9dc1461040f578063d4540ff714610440578063fd3ab2821461045e575b600080fd5b341561014d57600080fd5b61016061015b366004613e9d565b610471565b60405161016d919061426b565b60405180910390f35b341561018157600080fd5b61019461018f366004613b8c565b6104a3565b60405161016d91906141f2565b34156101ac57600080fd5b6101bf6101ba366004613e9d565b61055c565b60405161016d96959493929190614187565b34156101dc57600080fd5b6101ef6101ea366004613ecd565b61061a565b60405161016d9190614168565b341561020757600080fd5b610194610cbe565b341561021a57600080fd5b6101bf610228366004613f10565b61114d565b341561023857600080fd5b610160611212565b341561024b57600080fd5b61025e610259366004613c50565b611219565b60405161016d9190614179565b341561027657600080fd5b610160610284366004613c50565b611283565b341561029457600080fd5b6102a76102a2366004613cc8565b611297565b60405161016d91906141e4565b34156102bf57600080fd5b6101606102cd366004613c76565b6112c1565b34156102dd57600080fd5b6102a76102eb366004613c50565b611385565b34156102fb57600080fd5b61030e610309366004613cf8565b6113c9565b005b341561031b57600080fd5b61032e610329366004613c50565b611a20565b60405161016d93929190614279565b341561034857600080fd5b6101bf610356366004613c03565b611a54565b341561036657600080fd5b610160610374366004613b1f565b611c35565b341561038457600080fd5b610160610392366004613a8e565b611d05565b34156103a257600080fd5b6101606103b0366004613c50565b611dfe565b34156103c057600080fd5b61030e6103ce366004613ecd565b611e0a565b34156103de57600080fd5b61030e6103ec366004613e55565b611ed7565b34156103fc57600080fd5b61016061040a366004613ecd565b612107565b341561041a57600080fd5b61042d610428366004613d78565b612277565b60405161016d9796959493929190614200565b341561044b57600080fd5b6101bf610459366004613dcd565b6123b9565b341561046957600080fd5b61016061260f565b600480548390811061047f57fe5b90600052602060002090600202018160028110151561049a57fe5b01549150829050565b60006104ad61351b565b6104b561351b565b6104be87612621565b15156104cd5760009250610551565b6104d68661262c565b15156104e55760009250610551565b6104ef848961264d565b9150610504866104ff878a61264d565b612a79565b9050610516826401000003d019612ce2565b610526816401000003d019612ce2565b8151815114801561053e575060208201516020820151145b1561054c5760019250610551565b600092505b505095945050505050565b610564613542565b61056c613542565b600061057661351b565b600080610605816002604080519081016040529190828260026020028201915b81548152602001906001019080831161059657505050505060048a8154811015156105bd57fe5b90600052602060002090600202016002806020026040519081016040529190828260026020028201915b8154815260200190600101908083116105e757505050505089611a54565b949d939c50919a509850965090945092505050565b61062261355b565b600061062c61355b565b600061063661356d565b600061064061351b565b60045460009650869081906040518059106106585750595b90808252806020026020018201604052801561068e57816020015b61067b61351b565b8152602001906001900390816106735790505b50600454909750600096506040518059106106a65750595b9080825280602002602001820160405280156106dc57816020015b6106c961356d565b8152602001906001900390816106c15790505b509850886000815181106106ec57fe5b906020019060200201519450600095505b898610156108595788868151811061071157fe5b9060200190602002015194506107aa60006002604080519081016040529190828260026020028201915b81548152602001906001019080831161073b57505050505060048881548110151561076257fe5b90600052602060002090600202016002806020026040519081016040529190828260026020028201915b81548152602001906001019080831161078c5750505050508d611a54565b5050506040808901919091526020880191909152908652610802906000906002908051908101604090815283548252909291908301600183016020850180831161073b57505050505060048881548110151561076257fe5b60a08b015260808a015260608901525060008051602061432d833981519152915061082a9050565b856080015189089750846060015187878151811061084457fe5b602090810290910101526001909501946106fd565b8960010195505b6004548610156109715788868151811061087657fe5b9060200190602002015194506108c26000600260408051908101604090815283548252909291908301600183016020850180831161073b57505050505060048881548110151561076257fe5b505050604080890191909152602088019190915290865261091a906000906002908051908101604090815283548252909291908301600183016020850180831161073b57505050505060048881548110151561076257fe5b60a08b015260808a015260608901525060008051602061432d83398151915291506109429050565b856080015189089750846060015187878151811061095c57fe5b60209081029091010152600190950194610860565b888a8151811061097d57fe5b906020019060200201519450600060048c6040516040810184825b81548152602001906001019080831161099857505083805480156109f157604002820191906000526020600020905b604081019082905b8154815260200190600101908083116109cf57505090600201908083116109c7575b50508281526020019350505050604051908190039020935060008051602061432d833981519152848d604051918252602082015260409081019051908190039020811515610a3b57fe5b069350610a7a8460006002604080519081016040529190828260026020028201915b815481526020019060010190808311610a5d57505050505061264d565b9250610a8c836401000003d019612ce2565b82878b81518110610a9957fe5b6020908102909101015260008051602061432d833981519152600060048d8a6040516040810185825b815481526020019060010190808311610ac25750508480548015610b1b57604002820191906000526020600020905b604081019082905b815481526020019060010190808311610af95750509060020190808311610af1575b50508381526020018280516000925b81841015610b6c57602080850284010151606080838360005b83811015610b5b578082015183820152602001610b43565b505050509050019260010192610b2a565b92505050945050505050604051908190039020811515610b8857fe5b06915060008051602061432d8339815191528860008051602061432d8339815191520383089050610c3f8c60006002604080519081016040529190828260026020028201915b815481526020019060010190808311610bce57505050505060048d815481101515610bf557fe5b90600052602060002090600202016002806020026040519081016040529190828260026020028201915b815481526020019060010190808311610c1f5750505050508e88866123b9565b5050506040808901919091526020880191909152908652610c99908d9060009060029080519081016040908152835482529092919083016001830160208501808311610bce57505050505060048d815481101515610bf557fe5b60a08b015260808a015260609098019790975250989c9b505050505050505050505050565b600080610cc961355b565b610cd161355b565b610cd961356d565b600554600094508490604051805910610cef5750595b908082528060200260200182016040528015610d2557816020015b610d1261351b565b815260200190600190039081610d0a5790505b50600554909450604051805910610d395750595b908082528060200260200182016040528015610d6f57816020015b610d5c613542565b815260200190600190039081610d545790505b509250600090505b600554811015610f37576005805482908110610d8f57fe5b90600052602060002090600a020160c06040519081016040529081600082016002806020026040519081016040529190828260026020028201915b815481526020019060010190808311610dca5750505050508152602001600282016002806020026040519081016040529190828260026020028201915b815481526020019060010190808311610e075750505050508152602001600482015481526020016005820160038060200260405190810160405291906060830182845b815481526020019060010190808311610e4a575050509183525050600882015460208201526009909101546040909101529150610e9b82518360200151846060015185608001518660a001516104a3565b1515610ee1577f123de41493f6e442c2fdb676dd1c3d9f1e0a7b7531ca0cdb9f1026f7569e2bff81604051610ed0919061426b565b60405180910390a160009550611145565b60008051602061432d8339815191528583608001510894508160200151838281518110610f0a57fe5b602090810290910101526060820151848281518110610f2557fe5b60209081029091010152600101610d77565b600580546000908110610f4657fe5b90600052602060002090600a020160c06040519081016040529081600082016002806020026040519081016040529190828260026020028201915b815481526020019060010190808311610f815750505050508152602001600282016002806020026040519081016040529190828260026020028201915b815481526020019060010190808311610fbe5750505050508152602001600482015481526020016005820160038060200260405190810160405291906060830182845b81548152602001906001019080831161100157505050918352505060088201546020820152600990910154604090910152915060008051602061432d8339815191528251848460400151876040518085604080838360005b83811015611071578082015183820152602001611059565b505050509050018480516000925b818410156110c157602080850284010151604080838360005b838110156110b0578082015183820152602001611098565b50505050905001926001019261107f565b925050508381526020018280516000925b8184101561111457602080850284010151606080838360005b838110156111035780820151838201526020016110eb565b5050505090500192600101926110d2565b9250505094505050505060405190819003902081151561113057fe5b0685146111405760009550611145565b600195505b505050505090565b611155613542565b61115d613542565b600061116761351b565b6000806111f98a826002604080519081016040529190828260026020028201915b81548152602001906001019080831161118857505050505060048e8154811015156111af57fe5b90600052602060002090600202016002806020026040519081016040529190828260026020028201915b8154815260200190600101908083116111d95750505050508c8c8c6123b9565b9550955095509550955095509550955095509550955095565b6004545b90565b611221613542565b600454821061122c57fe5b600480548390811061123a57fe5b90600052602060002090600202016002806020026040519081016040529190828260026020028201915b8154815260200190600101908083116112645750505050509050919050565b6000816002811061129057fe5b0154905081565b61129f61351b565b6112a9838361264d565b90506112bb816401000003d019612ce2565b92915050565b600061137e816002604080519081016040529190828260026020028201915b8154815260200190600101908083116112e0575050505050600480548060200260200160405190810160405281815291906000602084015b8282101561137357838290600052602060002090600202016002806020026040519081016040529190828260026020028201915b81548152602001906001019080831161134c57505050505081526020019060010190611318565b505050508585611d05565b9392505050565b61138d61351b565b6112bb8260006002604080519081016040529190828260026020028201915b8154815260200190600101908083116113ac575050505050611297565b60006113d361355b565b60008060006113e061351b565b6000808a5189106113f057600080fd5b600097508a516040518059106114035750595b90808252806020026020018201604052801561143957816020015b61142661351b565b81526020019060019003908161141e5790505b509650600095508a5161144d6005826135b7565b5060058054600090811061145d57fe5b90600052602060002090600a02019450600095505b888610156115c9577f976cca7f4190c83b7db37d954c0a31f2e5c613820ab000a21d3b8e2704487440866040516114a9919061426b565b60405180910390a160058054879081106114bf57fe5b90600052602060002090600a020194506114ef8c8c88815181106114df57fe5b906020019060200201518c611a54565b5050506004880181905587600061150c60028084019086906135e3565b5061151b9190508460026135e3565b5050505061152f8c8c88815181106114df57fe5b60098b0181905560088b018290559194509250905061155360058901846003613621565b5060008051602061432d833981519152925061156d915050565b856008015489089750600585016003606060405190810160405291906060830182845b8154815260200190600101908083116115905750505050508787815181106115b457fe5b60209081029091010152600190950194611472565b8860010195505b8a51861015611718577f976cca7f4190c83b7db37d954c0a31f2e5c613820ab000a21d3b8e270448744086604051611608919061426b565b60405180910390a1600580548790811061161e57fe5b90600052602060002090600a0201945061163e8c8c88815181106114df57fe5b5050506004880181905587600061165b60028084019086906135e3565b5061166a9190508460026135e3565b5050505061167e8c8c88815181106114df57fe5b60098b0181905560088b01829055919450925090506116a260058901846003613621565b5060008051602061432d83398151915292506116bc915050565b856008015489089750600585016003606060405190810160405291906060830182845b8154815260200190600101908083116116df57505050505087878151811061170357fe5b602090810290910101526001909501946115d0565b7f976cca7f4190c83b7db37d954c0a31f2e5c613820ab000a21d3b8e270448744089604051611747919061426b565b60405180910390a1600580548a90811061175d57fe5b90600052602060002090600a020194508b8b8b6040518084604080838360005b8381101561179557808201518382015260200161177d565b505050509050018380516000925b818410156117e557602080850284010151604080838360005b838110156117d45780820151838201526020016117bc565b5050505090500192600101926117a3565b925050508281526020019350505050604051908190039020935060008051602061432d833981519152848e60405191825260208201526040908101905190819003902081151561183157fe5b06935061183e848d61264d565b9250611850836401000003d019612ce2565b82878a8151811061185d57fe5b6020908102909101015260008051602061432d8339815191528c8c8c8a6040518085604080838360005b8381101561189f578082015183820152602001611887565b505050509050018480516000925b818410156118ef57602080850284010151604080838360005b838110156118de5780820151838201526020016118c6565b5050505090500192600101926118ad565b925050508381526020018280516000925b8184101561194257602080850284010151606080838360005b83811015611931578082015183820152602001611919565b505050509050019260010192611900565b9250505094505050505060405190819003902081151561195e57fe5b06915060008051602061432d8339815191528860008051602061432d83398151915203830890506119a88d8d8d8c8151811061199657fe5b906020019060200201518d88866123b9565b505050600488018190558760006119c560028084019086906135e3565b506119d49190508460026135e3565b505050506119e98d8d8d8c8151811061199657fe5b60098b0181905560088b0182905591945092509050611a0d60058901846003613621565b5050505050505050505050505050505050565b6005805482908110611a2e57fe5b60009182526020909120600a909102016004810154600882015460099092015490925083565b611a5c613542565b611a64613542565b6000611a6e61351b565b600080611a7961351b565b611a8161351b565b8a5160208c015160208a01528852895160208b01516020890152875288955060008051602061432d833981519152600188886040517f010000000000000000000000000000000000000000000000000000000000000060ff85160281526001810183604080838360005b83811015611b03578082015183820152602001611aeb565b505050509050018281526020019350505050604051908190039020811515611b2757fe5b06935060008051602061432d833981519152600288886040517f010000000000000000000000000000000000000000000000000000000000000060ff85160281526001810183604080838360005b83811015611b8d578082015183820152602001611b75565b505050509050018281526020019350505050604051908190039020811515611bb157fe5b069250611bbe838961264d565b9150611bca848861264d565b9050611bdc816401000003d019612ce2565b6060604051908101604052808251815260200182600160200201516401000003d01903815260200160018152509450611c158286612a79565b9450611c27856401000003d019612ce2565b505093975093979195509350565b60008484836040518084604080838360005b83811015611c5f578082015183820152602001611c47565b505050509050018380516000925b81841015611caf57602080850284010151604080838360005b83811015611c9e578082015183820152602001611c86565b505050509050019260010192611c6d565b925050508281526020019350505050604051908190039020905060008051602061432d8339815191528184604051918252602082015260409081019051908190039020811515611cfb57fe5b0695945050505050565b600060008051602061432d833981519152858585856040518085604080838360005b83811015611d3f578082015183820152602001611d27565b505050509050018480516000925b81841015611d8f57602080850284010151604080838360005b83811015611d7e578082015183820152602001611d66565b505050509050019260010192611d4d565b925050508381526020018280516000925b81841015611de257602080850284010151606080838360005b83811015611dd1578082015183820152602001611db9565b505050509050019260010192611da0565b92505050945050505050604051908190039020811515611cfb57fe5b60028181811061129057fe5b6004541515611e1557fe5b611ed28360006002604080519081016040529190828260026020028201915b815481526020019060010190808311611e34575050505050600480548060200260200160405190810160405281815291906000602084015b82821015611ec757838290600052602060002090600202016002806020026040519081016040529190828260026020028201915b815481526020019060010190808311611ea057505050505081526020019060010190611e6c565b5050505085856113c9565b505050565b6000611ee161351b565b611ee961351b565b8351611ef660048261364e565b50600092505b84831015611fbf57611f4f848481518110611f1357fe5b90602001906020020151600280604080519081016040908152835482529092919083016001830160208501808311610a5d57505050505061264d565b9150611f61826401000003d019612ce2565b815160208301516004805486908110611f7657fe5b60009182526020822060029091020190016000600487815481101515611f9857fe5b60009182526020909120600290910201600101929092559190915550600190920191611efc565b61200b848481518110611fce57fe5b9060200190602002015160006002604080519081016040908152835482529092919083016001830160208501808311610a5d57505050505061264d565b905061201d816401000003d019612ce2565b80516020820151600480548690811061203257fe5b6000918252602082206002909102019001600060048781548110151561205457fe5b600091825260209091206002909102016001019290925591909155506001850192505b60045483101561210057612090848481518110611f1357fe5b91506120a2826401000003d019612ce2565b8151602083015160048054869081106120b757fe5b600091825260208220600290910201900160006004878154811015156120d957fe5b60009182526020909120600290910201600101929092559190915550600190920191612077565b5050505050565b60006121c4816002604080519081016040529190828260026020028201915b815481526020019060010190808311612126575050505050600480548060200260200160405190810160405281815291906000602084015b828210156121b957838290600052602060002090600202016002806020026040519081016040529190828260026020028201915b8154815260200190600101908083116121925750505050508152602001906001019061215e565b505050508686611c35565b905061137e565b8154815260200190600101908083116121cb575050838054801561222457604002820191906000526020600020905b604081019082905b81548152602001906001019080831161220257505090600201908083116121fa575b50508281526020019350505050604051908190039020905060008051602061432d833981519152818560405191825260208201526040908101905190819003902081151561226e57fe5b06949350505050565b6000612281613542565b612289613542565b600061229361351b565b60008089511580156122a7575060208a0151155b80156122b257508851155b80156122c057506020890151155b1561231f576000805460015460208d01528b526004805490919081106122e257fe5b60009182526020822060029091020190015460048054600090811061230357fe5b600091825260209182902060016002909202010154908b015289525b895115801590612332575060208a015115155b801561233e5750885115155b801561234d5750602089015115155b151561235857600080fd5b8a156123815761236d8b8b8b8b6000806123b9565b949a5092985090965094509250905061239c565b61238c8a8a8a611a54565b949a509298509096509450925090505b6123a986868585856104a3565b9650949950949992975094509450565b6123c1613542565b6123c9613542565b60006123d361351b565b60008060006123e061351b565b8d915060008d5160208f015160208b015289528c5160208e015160208a015288528b965061240e838a61264d565b9150612420826401000003d019612ce2565b87518251148015612438575060208801516020830151145b151561244357600080fd5b8a1580159061245157508915155b1561247c575089612462818a61264d565b9550612474866401000003d019612ce2565b8994506125d8565b60008051602061432d8339815191528989896040518084604080838360005b838110156124b357808201518382015260200161249b565b5050505090500183600260200280838360005b838110156124de5780820151838201526020016124c6565b50505050905001828152602001935050505060405190819003902081151561250257fe5b06905061250f818a61264d565b9550612521866401000003d019612ce2565b60008051602061432d833981519152898989896040518085604080838360005b83811015612559578082015183820152602001612541565b5050505090500184600260200280838360005b8381101561258457808201518382015260200161256c565b5050505090500183815260200182600360200280838360005b838110156125b557808201518382015260200161259d565b505050509050019450505050506040519081900390208115156125d457fe5b0694505b60008051602061432d8339815191528160008051602061432d83398151915287860908935050505096509650965096509650969050565b60008051602061432d83398151915281565b60006112bb82612d4a565b6000612636613542565b825181526020830151602082015261137e81612d4a565b61265561351b565b600080600061266261367a565b61266a61351b565b6126726136a8565b6401000003d0199550600080808b151561268b57612a6a565b6000604051985061020089016040525b8c156126d35760018d16156126c25750601f8c16808989015360206010821102818e03019c505b60028d049c5060018801975061269b565b506060604051908101604052808c5181526020018c600160200201518152600160209091015286526127058651612ddc565b9450612711858c612ef7565b6020870152612728858760015b6020020151612a79565b60408701526127398587600261271e565b606087015261274a8587600361271e565b608087015261275b8587600461271e565b60a087015261276c8587600561271e565b60c087015261277d8587600661271e565b60e087015260208601516040015184528880151561279757fe5b8451604088015160400151096020850152888015156127b257fe5b6020850151606088015160400151096040850152888015156127d057fe5b6040850151608088015160400151096060850152888015156127ee57fe5b606085015160a0880151604001510960808501528880151561280c57fe5b608085015160c0880151604001510960a08501528880151561282a57fe5b60a085015160e0880151604001510960c0850190815261284b90518a613123565b60e08501908152516101008501528880151561286357fe5b61010085015160a0860151096101e0850152600692505b600283106128f7578880151561288c57fe5b6101008501518760018601600881106128a157fe5b60200201516040015109610100850152888015156128bb57fe5b610100850151856001198601601081106128d157fe5b6020020151098460088501601081106128e657fe5b60200201526000199092019161287a565b8880151561290157fe5b61010085015160408801516040015109610120850152600092505b60078310156129945761298986600185016008811061293757fe5b602002015185600986016010811061294b57fe5b60200201518b80151561295a57fe5b87600988016010811061296957fe5b602002015188600989016010811061297d57fe5b6020020151098c6131c1565b60019092019161291c565b6000871115612a6a57600019808801978901015160001a91506129b68a6131f0565b6010821115612a1157506002601f82900304612a0c8a60408051908101604052808985600881106129e357fe5b60200201515181526020018985600881106129fa57fe5b6020020151602001518d039052613301565b612a65565b6000821115612a6557506002600019820104612a658a6040805190810160405280898560088110612a3e57fe5b6020020151518152602001898560088110612a5557fe5b6020020151602001519052613301565b612994565b50505050505050505092915050565b612a8161351b565b6000612a8b6136c3565b612a936136c3565b60008080808060408b01511515612aac57899850612cd4565b60408a01511515612abf578a9850612cd4565b6401000003d01997508760408c015160408d015109875287801515612ae057fe5b875160408d015109602088015287801515612af757fe5b60408b015160408c015109604088015287801515612b1157fe5b604088015160408c015109606088015260806040519081016040528089801515612b3757fe5b60408a01518e5109815260200189801515612b4e57fe5b60608a015160208f015109815260200189801515612b6857fe5b89518d5109815260200189801515612b7c57fe5b60208a015160208e01510990529550604086015186511415612bbc576060860151602087015114612bac57612cd4565b612bb58b612ddc565b9850612cd4565b87801515612bc657fe5b86518903604088015108945087801515612bdc57fe5b60208701518903606088015108935087801515612bf557fe5b858609925087801515612c0457fe5b858409915087801515612c1357fe5b82890389801515612c2057fe5b86870908905087801515612c3057fe5b88801515612c3a57fe5b89801515612c4457fe5b8589510960020989038208808a52905087801515612c5e57fe5b88801515612c6857fe5b828a038a801515612c7557fe5b868a510908850960208a015287801515612c8b57fe5b88801515612c9557fe5b83602089015109890360208b01510860208a015287801515612cb357fe5b88801515612cbd57fe5b60408c015160408e01510986098960025b60200201525b505050505050505092915050565b600080612cf3604085015184613123565b915082801515612cff57fe5b828309905082801515612d0e57fe5b81855109845282801515612d1e57fe5b83801515612d2857fe5b8284098560015b60200201510960208501525050600160409092019190915250565b60006401000003d019818084511580612d635750828551145b80612d7057506020850151155b80612d7e5750826020860151145b15612d8c5760009350612dd4565b82801515612d9657fe5b6020860151602087015109915082801515612dad57fe5b600784801515612db957fe5b875186801515612dc557fe5b89518a51090908905080821493505b505050919050565b612de461351b565b6401000003d0196000808080808060408901511515612e0257612eeb565b885195506020890151945086801515612e1757fe5b858609935086801515612e2657fe5b87801515612e3057fe5b858809600409925086801515612e4257fe5b87801515612e4c57fe5b878809600309915086801515612e5e57fe5b87801515612e6857fe5b848508880388801515612e7757fe5b84850908808952905086801515612e8a57fe5b87801515612e9457fe5b88801515612e9e57fe5b868709600809880388801515612eb057fe5b89801515612eba57fe5b848b038708850908602089015286801515612ed157fe5b87801515612edb57fe5b60408b0151870960020960408901525b50505050505050919050565b612eff61351b565b6000612f09613542565b612f116136c3565b60008080808060408b01511515612f4e576060604051908101604052808b5181526020018b60016020020151815260200160018152509850612cd4565b60208a01511515612f61578a9850612cd4565b6401000003d01997508760408c015160408d015109875287801515612f8257fe5b875160408d01510960208801526080604051908101604052808c5181526020018c60016020020151815260200189801515612fb957fe5b89518d5109815260200189801515612fcd57fe5b60208a015160208e0151099052955060408601518651141561301d57606086015160208701511461300e576000808c5260208c0181905260408c0152612cd4565b6130178b612ddc565b50612cd4565b8780151561302757fe5b8651890360408801510894508780151561303d57fe5b6020870151890360608801510893508780151561305657fe5b85860992508780151561306557fe5b85840991508780151561307457fe5b8289038980151561308157fe5b8687090890508780151561309157fe5b8880151561309b57fe5b898015156130a557fe5b8589510960020989038208808a529050878015156130bf57fe5b888015156130c957fe5b828a038a8015156130d657fe5b868a510908850960208a0152878015156130ec57fe5b888015156130f657fe5b83602089015109890360208b01510860208a01528780151561311457fe5b60408c01518609896002612cce565b6000808080808087158015906131395750868814155b801561314457508615155b151561314f57600080fd5b8688111561316657868881151561316257fe5b0697505b600193508692508791505b811561319c57818381151561318257fe5b949594048581029094039391928383029003919050613171565b60008512156131b25784600003870395506131b6565b8495505b505050505092915050565b808015156131cb57fe5b828551098452808015156131db57fe5b818015156131e557fe5b838509856001612d2f565b6401000003d019600080808080806040880151151561320e576132f7565b87519550602088015194508680151561322357fe5b85860993508680151561323257fe5b8780151561323c57fe5b85880960040992508680151561324e57fe5b8780151561325857fe5b87880960030991508680151561326a57fe5b8780151561327457fe5b84850888038880151561328357fe5b8485090880895290508680151561329657fe5b878015156132a057fe5b888015156132aa57fe5b8687096008098803888015156132bc57fe5b898015156132c657fe5b848b0387088509086020890152868015156132dd57fe5b878015156132e757fe5b60408a0151870960020960408901525b5050505050505050565b600061330b613542565b6133136136c3565b60008080808060208a015115156133425788518a52602089015160208b015260018a60025b602002015261350f565b602089015115156133525761350f565b6401000003d01997508760408b015160408c01510987528780151561337357fe5b875160408c01510960208801526080604051908101604052808b5181526020018b600160200201518152602001898015156133aa57fe5b89518c51098152602001898015156133be57fe5b60208a015160208d0151099052955060408601518651141561340b5760608601516020870151146133fd576000808b5260208b018190528a6002613338565b6134068a6131f0565b61350f565b8780151561341557fe5b8651890360408801510894508780151561342b57fe5b6020870151890360608801510893508780151561344457fe5b85860992508780151561345357fe5b85840991508780151561346257fe5b8289038980151561346f57fe5b8687090890508780151561347f57fe5b8880151561348957fe5b8980151561349357fe5b8589510960020989038208808b529050878015156134ad57fe5b888015156134b757fe5b828a038a8015156134c457fe5b868a510908850960208b0152878015156134da57fe5b888015156134e457fe5b83602089015109890360208c01510860208b01528780151561350257fe5b60408b0151860960408b01525b50505050505050505050565b60606040519081016040526003815b600081526020019060019003908161352a5790505090565b604080519081016040526000815260016020820161352a565b60206040519081016040526000815290565b61014060405190810160405280613582613542565b815260200161358f613542565b8152602001600081526020016135a361351b565b815260200160008152602001600081525090565b815481835581811511611ed257600a0281600a028360005260206000209182019101611ed291906136dd565b8260028101928215613611579160200282015b828111156136115782518255916020019190600101906135f6565b5061361d929150613734565b5090565b826003810192821561361157916020028201828111156136115782518255916020019190600101906135f6565b815481835581811511611ed257600202816002028360005260206000209182019101611ed2919061374e565b6103006040519081016040526008815b61369261351b565b81526020019060019003908161368a5790505090565b61020060405190810160405260008152600f6020820161352a565b60806040519081016040526000815260036020820161352a565b61121691905b8082111561361d5760006136f78282613771565b613705600283016000613771565b600482016000905560058201600061371d919061377f565b506000600882018190556009820155600a016136e3565b61121691905b8082111561361d576000815560010161373a565b61121691905b8082111561361d5760006137688282613771565b50600201613754565b506000815560010160009055565b50600081556001016000815560010160009055565b6000601f82018390126137a657600080fd5b81356137b96137b4826142cc565b6142a1565b915081818352602084019350602081019050838560408402820111156137de57600080fd5b60005b8381101561380c57816137f48882613889565b845250602090920191604091909101906001016137e1565b5050505092915050565b6000601f820183901261382857600080fd5b81356138366137b4826142cc565b9150818183526020840193506020810190508385606084028201111561385b57600080fd5b60005b8381101561380c5781613871888261394d565b8452506020909201916060919091019060010161385e565b6000601f820183901261389b57600080fd5b60026138a96137b4826142ed565b915081838560208402820111156138bf57600080fd5b60005b8381101561380c57816138d58882613a82565b84525060209283019291909101906001016138c2565b6000601f82018390126138fd57600080fd5b600261390b6137b4826142ed565b9150818385602084028201111561392157600080fd5b60005b8381101561380c57816139378882613a82565b8452506020928301929190910190600101613924565b6000601f820183901261395f57600080fd5b600361396d6137b4826142ed565b9150818385602084028201111561398357600080fd5b60005b8381101561380c57816139998882613a82565b8452506020928301929190910190600101613986565b6000601f82018390126139c157600080fd5b60036139cf6137b4826142ed565b915081838560208402820111156139e557600080fd5b60005b8381101561380c57816139fb8882613a82565b84525060209283019291909101906001016139e8565b6000601f8201839012613a2357600080fd5b8135613a316137b4826142cc565b91508181835260208401935060208101905083856020840282011115613a5657600080fd5b60005b8381101561380c5781613a6c8882613a82565b8452506020928301929190910190600101613a59565b600061137e8235611216565b60008060008060a08587031215613aa457600080fd5b6000613ab087876138eb565b945050604085013567ffffffffffffffff811115613acd57600080fd5b613ad987828801613794565b9350506060613aea87828801613a82565b925050608085013567ffffffffffffffff811115613b0757600080fd5b613b1387828801613816565b91505092959194509250565b60008060008060a08587031215613b3557600080fd5b6000613b4187876138eb565b945050604085013567ffffffffffffffff811115613b5e57600080fd5b613b6a87828801613794565b9350506060613b7b87828801613a82565b9250506080613b1387828801613a82565b60008060008060006101208688031215613ba557600080fd5b6000613bb188886138eb565b9550506040613bc2888289016138eb565b9450506080613bd3888289016139af565b93505060e0613be488828901613a82565b925050610100613bf688828901613a82565b9150509295509295909350565b600080600060a08486031215613c1857600080fd5b6000613c2486866138eb565b9350506040613c35868287016138eb565b9250506080613c4686828701613a82565b9150509250925092565b600060208284031215613c6257600080fd5b6000613c6e8484613a82565b949350505050565b60008060408385031215613c8957600080fd5b6000613c958585613a82565b925050602083013567ffffffffffffffff811115613cb257600080fd5b613cbe85828601613816565b9150509250929050565b60008060608385031215613cdb57600080fd5b6000613ce78585613a82565b9250506020613cbe858286016138eb565b600080600080600060c08688031215613d1057600080fd5b6000613d1c8888613a82565b9550506020613d2d888289016138eb565b945050606086013567ffffffffffffffff811115613d4a57600080fd5b613d5688828901613794565b9350506080613d6788828901613a82565b92505060a0613bf688828901613a82565b60008060008060c08587031215613d8e57600080fd5b6000613d9a8787613a82565b9450506020613dab878288016138eb565b9350506060613dbc878288016138eb565b92505060a0613b1387828801613a82565b6000806000806000806101008789031215613de757600080fd5b6000613df38989613a82565b9650506020613e0489828a016138eb565b9550506060613e1589828a016138eb565b94505060a0613e2689828a01613a82565b93505060c0613e3789828a01613a82565b92505060e0613e4889828a01613a82565b9150509295509295509295565b60008060408385031215613e6857600080fd5b6000613e748585613a82565b925050602083013567ffffffffffffffff811115613e9157600080fd5b613cbe85828601613a11565b60008060408385031215613eb057600080fd5b6000613ebc8585613a82565b9250506020613cbe85828601613a82565b600080600060608486031215613ee257600080fd5b6000613eee8686613a82565b9350506020613eff86828701613a82565b9250506040613c4686828701613a82565b600080600080600060a08688031215613f2857600080fd5b6000613f348888613a82565b9550506020613f4588828901613a82565b9450506040613f5688828901613a82565b9350506060613f6788828901613a82565b9250506080613bf688828901613a82565b6000613f8382614311565b808452602084019350613f958361430b565b60005b82811015613fc657613fab8683516140e7565b613fb48261430b565b61014096909601959150600101613f98565b5093949350505050565b613fd98161431b565b613fe282611216565b60005b8281101561210057613ff885835161415f565b6140018261430b565b602095909501949150600101613fe5565b61401b8161431b565b61402482611216565b60005b828110156121005761403a85835161415f565b6140438261430b565b602095909501949150600101614027565b61405d81614321565b61406682611216565b60005b828110156121005761407c85835161415f565b6140858261430b565b602095909501949150600101614069565b61409f81614321565b6140a882611216565b60005b82811015612100576140be85835161415f565b6140c78261430b565b6020959095019491506001016140ab565b6140e181614327565b82525050565b610140820181516140f88482614012565b50602082015161410b6040850182614012565b50604082015161411e608085018261415f565b50606082015161413160a0850182614096565b50608082015161414561010085018261415f565b5060a082015161415961012085018261415f565b50505050565b6140e181611216565b6020808252810161137e8184613f78565b604081016112bb8284613fd0565b61014081016141968289613fd0565b6141a36040830188613fd0565b6141b0608083018761415f565b6141bd60a0830186614054565b6141cb61010083018561415f565b6141d961012083018461415f565b979650505050505050565b606081016112bb8284614054565b602081016112bb82846140d8565b610160810161420f828a6140d8565b61421c6020830189613fd0565b6142296060830188613fd0565b61423660a083018761415f565b61424360c0830186614054565b61425161012083018561415f565b61425f61014083018461415f565b98975050505050505050565b602081016112bb828461415f565b60608101614287828661415f565b614294602083018561415f565b613c6e604083018461415f565b6000604051905081810181811067ffffffffffffffff821117156142c457600080fd5b604052919050565b600067ffffffffffffffff8211156142e357600080fd5b5060209081020190565b600067ffffffffffffffff82111561430457600080fd5b5060200290565b60200190565b6000815192915050565b50600290565b50600390565b1515905600fffffffffffffffffffffffffffffffebaaedce6af48a03bbfd25e8cd0364141a265627a7a7230582023b18640fc25ddcc1d263e8d2f9207eca0b56cbd5a1ed456bc63fcc5b75525ae6c6578706572696d656e74616cf50037",
  "source": "pragma solidity ^0.4.7;\r\npragma experimental ABIEncoderV2;\r\nimport \"./ECCMath_noconflict.sol\";\r\nimport \"./Secp256k1_noconflict.sol\";\r\n\r\ncontract OrPoK {\r\n    \r\n    uint constant p = 0xFFFFFFFFFFFFFFFFFFFFFFFFFFFFFFFFFFFFFFFFFFFFFFFFFFFFFFFEFFFFFC2F;\r\n\r\n    // Base point (generator) G\r\n    // Eason: represent werewolf\r\n    uint constant Gx =0x79BE667EF9DCBBAC55A06295CE870B07029BFCDB2DCE28D959F2815B16F81798;\r\n    uint constant Gy = 0x483ADA7726A3C4655DA4FBFC0E1108A8FD17B448A68554199C47D08FFB10D4B8;\r\n    uint constant Hx = 0xEC70EDA5ABD3416F239EF65D4B288717C4CF7BA469776869F2AAE2E00DF74DCA;\r\n    uint constant Hy = 0xEF7824FF7E7F248BF1C94F61C04A69C4D9DB232C86D85478B97E87753114DE2D;\r\n    \r\n\r\n    //Eason: oredr of elliptic curve\r\n    //coefficient in Zq \r\n    uint public constant q = 0xFFFFFFFFFFFFFFFFFFFFFFFFFFFFFFFEBAAEDCE6AF48A03BBFD25E8CD0364141;\r\n\r\n\r\n\r\n    uint[2] public G;\r\n    uint[2] public H;\r\n    \r\n    uint[2][] public problems;//ECDLP for G\r\n    PoK[] public proofs;\r\n    function OrPoK() public{\r\n        G[0] = Gx;\r\n        G[1] = Gy;\r\n        H[0] = Hx;\r\n        H[1] = Hy;\r\n    }\r\n\r\n    function easySetProblems(uint real, uint[] pokerKeys) public {\r\n        problems.length = pokerKeys.length;\r\n        for(uint i=0; i<real; i++){\r\n            uint[3] memory secretH = Secp256k1_noconflict._mul(pokerKeys[i], H);\r\n            ECCMath_noconflict.toZ1(secretH,p);\r\n            (problems[i][0],problems[i][1]) = (secretH[0],secretH[1]);\r\n        }\r\n        uint[3] memory secretG = Secp256k1_noconflict._mul(pokerKeys[i], G);\r\n        ECCMath_noconflict.toZ1(secretG,p);\r\n        (problems[i][0],problems[i][1]) = (secretG[0],secretG[1]);\r\n        for(i= real+1; i<problems.length; i++){\r\n            secretH = Secp256k1_noconflict._mul(pokerKeys[i], H);\r\n            ECCMath_noconflict.toZ1(secretH,p);\r\n            (problems[i][0],problems[i][1]) = (secretH[0],secretH[1]);\r\n        }      \r\n    }\r\n\r\n    function getProblems(uint i) public view returns(uint[2] point){\r\n        assert(i< problems.length);\r\n        return problems[i];\r\n    }//getter for outside world\r\n\r\n    function getProblemsLength() public view returns(uint){\r\n        \r\n        return problems.length;\r\n    }//getter for outside world\r\n\r\n    //input is \"t\", move t,c to easy version\r\n    function createSchnorr(uint pokerKey, uint[2] werewolf, uint[2] liveHand, uint victim, uint tReady,uint cReady) public view returns(uint[2] g, uint[2] A, uint message, uint[3] T, uint c, uint s){\r\n        //input: conditions \r\n        //output: conditions & PoK\r\n        uint secret = pokerKey;\r\n        (g[0],g[1]) = (werewolf[0],werewolf[1]);\r\n        (A[0],A[1]) = (liveHand[0],liveHand[1]);\r\n        message = victim;\r\n        \r\n        uint[3] memory secretG = Secp256k1_noconflict._mul(secret, g);\r\n        ECCMath_noconflict.toZ1(secretG,p);\r\n        require(secretG[0] == A[0] && secretG[1] == A[1]);//require can be used off-chain \r\n        \r\n        uint t;\r\n        if(tReady != 0 && cReady != 0){\r\n            t = tReady;\r\n            T = Secp256k1_noconflict._mul(t, g);\r\n            ECCMath_noconflict.toZ1(T,p);\r\n            c = cReady;\r\n        }else{\r\n            t = uint(keccak256(g,A,message)) % q;//add index of proof?\r\n            //TODO: add some randomness\r\n            T = Secp256k1_noconflict._mul(t, g);\r\n            ECCMath_noconflict.toZ1(T,p);\r\n            c=uint(keccak256(g,A, message,T)) % q;\r\n        }\r\n        s = addmod(mulmod(secret,c,q),t,q);\r\n    }\r\n\r\n    function easyCreateSchnorr(uint real, uint pokerKey, uint victim, uint tReady, uint cReady) public view returns(uint[2] g, uint[2] A, uint message, uint[3] T, uint c, uint s){\r\n        \r\n        return createSchnorr(pokerKey, G, problems[ real ], victim, tReady, cReady);\r\n    }\r\n\r\n    \r\n    // m - 1 fake proof\r\n    function forgeProof(uint[2] werewolf, uint[2] liveHand, uint victim) public view returns(uint[2] _H, uint[2] B,uint message, uint[3] T2, uint c2, uint s2){\r\n        (_H[0],_H[1]) = (werewolf[0],werewolf[1]);\r\n        (B[0],B[1])=(liveHand[0],liveHand[1]);\r\n        message = victim;\r\n\r\n        c2 = uint(keccak256(uint8(1),B, message)) % q;//choose a random # by self\r\n        s2 = uint(keccak256(uint8(2),B, message)) % q;//choose a random # by self\r\n        uint[3] memory s2H = Secp256k1_noconflict._mul(s2, _H);\r\n        uint[3] memory c2B = Secp256k1_noconflict._mul(c2, B);\r\n        ECCMath_noconflict.toZ1(c2B,p);\r\n        //T2 = Secp256k1_noconflict._mul(q-1,[c2B[0],c2B[1]]);\r\n        T2 = [c2B[0],p-c2B[1],1];//negative in affine?\r\n        T2 = Secp256k1_noconflict._add(s2H, T2);//The negative in Jacobi coordinates?\r\n        ECCMath_noconflict.toZ1(T2,p);\r\n    }\r\n\r\n    function easyForgeProof(uint i,uint victim) public view returns(uint[2] h, uint[2] B,uint message, uint[3] T2, uint c2, uint s2){\r\n        return forgeProof(G, problems[i], victim);\r\n        //function forgeProof can't overloading. work around : rename \r\n    }\r\n\r\n    function computeRealt(uint[2] _G, uint[2][] _problems, uint pokerKey,  uint victim) public view returns(uint realt){\r\n        realt = uint(keccak256(_G, _problems, victim));\r\n        realt = uint(keccak256(realt, pokerKey)) % q;\r\n    }\r\n    //1 real proof\r\n    function easyComputeRealt(uint pokerKey,  uint victim, uint real) public view returns(uint realt){\r\n        return computeRealt(G, problems, pokerKey,  victim);\r\n        //i) choose t\r\n        realt = uint(keccak256(G, problems, victim));//need other T??\r\n        realt = uint(keccak256(realt, pokerKey)) % q;//avoid stack too deep\r\n        //add index of proof? pokerKey instead\r\n        //add pokerKey for randomnes\r\n    }\r\n\r\n    //1 real proof\r\n    function computeTFrom(uint realt, uint[2] _G) public view returns(uint[3] realT){\r\n        //ii) compute T\r\n        realT = Secp256k1_noconflict._mul(realt, _G);\r\n        ECCMath_noconflict.toZ1(realT,p);\r\n    }\r\n\r\n    function easyComputeTFrom(uint realt) public view returns(uint[3] realT){\r\n        //ii) compute T\r\n        return computeTFrom(realt, G);\r\n    }\r\n\r\n    function computeChallenge(uint[2] _G, uint[2][] _problems, uint victim,  uint[3][] Ts) public view returns(uint realChallenge){\r\n        //iii) compute c\r\n        realChallenge = uint(keccak256(_G, _problems, victim,Ts)) % q;\r\n\r\n    }\r\n\r\n    function easyComputeChallenge(uint victim,  uint[3][] Ts) public view returns(uint realChallenge){\r\n        return computeChallenge(G, problems, victim,  Ts);\r\n    }\r\n\r\n    \r\n    function publishProofs(uint pokerKey, uint[2] werewolf, uint[2][] liveHands, uint victim, uint real) public{\r\n        //input: conditions \r\n        //output: store conditions & PoK\r\n\r\n        require(real<liveHands.length);\r\n        \r\n        uint totalFakeC = 0;\r\n        uint[3][ ] memory T = new uint[3][](liveHands.length);\r\n\r\n        // m-1 \"fake\" proof\r\n        uint i=0;\r\n        proofs.length = liveHands.length;\r\n        PoK storage pf = proofs[0];\r\n\r\n        for( i=0; i<real; i++){\r\n            emit Process(i); \r\n            pf = proofs[i];\r\n            (pf.g, pf.A, pf.message,) = forgeProof(werewolf,liveHands[i],victim);\r\n            (, pf.T, pf.c, pf.s) = forgeProof(werewolf,liveHands[i],victim);\r\n            //Just avoid stack too deep\r\n            \r\n            \r\n            totalFakeC = addmod(totalFakeC, pf.c, q);\r\n            T[i] = pf.T;\r\n\r\n        }\r\n\r\n        for( i=real+1; i<liveHands.length; i++){\r\n            emit Process(i);\r\n            pf = proofs[i]; \r\n            (pf.g, pf.A, pf.message,) = forgeProof(werewolf,liveHands[i],victim);\r\n            (, pf.T, pf.c, pf.s) = forgeProof(werewolf,liveHands[i],victim);\r\n            //Just avoid stack too deep\r\n            totalFakeC = addmod(totalFakeC, pf.c, q);\r\n            T[i] = pf.T;\r\n        }\r\n        emit Process(real);\r\n        //1 real proof\r\n        pf = proofs[ real ];\r\n        \r\n        //i) choose t\r\n        uint realt = uint(keccak256(werewolf, liveHands, victim));\r\n        realt = uint(keccak256(realt, pokerKey)) % q;//avoid stack too deep\r\n        //add index of proof? pokerKey instead\r\n        //add pokerKey for randomness\r\n        \r\n        //ii) compute T\r\n        uint[3] memory realT = Secp256k1_noconflict._mul(realt, werewolf);\r\n        ECCMath_noconflict.toZ1(realT,p);\r\n        T[ real ] = realT;\r\n        \r\n        //iii) compute c\r\n        uint challenge = uint(keccak256(werewolf, liveHands, victim,T)) % q;\r\n        uint realc = addmod(challenge, q-totalFakeC, q);//submod, avoid rounding when negative\r\n        //iv) create proof\r\n        (pf.g, pf.A, pf.message,) = createSchnorr(pokerKey,werewolf,liveHands[real],victim, realt, realc);\r\n        (, pf.T, pf.c, pf.s) = createSchnorr(pokerKey,werewolf,liveHands[real],victim,realt,realc);\r\n    }\r\n\r\n    function easyPublishProofs(uint pokerKey, uint victim, uint real) public{\r\n        assert(problems.length != 0);\r\n        publishProofs(pokerKey, G, problems, victim, real);\r\n    }\r\n\r\n    function createProofs(uint pokerKey,  uint victim, uint real) public view returns(PoK[] pfs){//although we can use experimental abi in solidty. web3 may have not support it \r\n        //input: conditions \r\n        //output: store conditions & PoK\r\n        //uint[2] memory werewolf= [G[0],G[1]];\r\n        \r\n        //require(real<problems.length);\r\n        \r\n        uint totalFakeC = 0;\r\n        \r\n        uint[3][ ] memory T = new uint[3][](problems.length);\r\n\r\n        // m-1 \"fake\" proof\r\n        uint i=0;\r\n        pfs = new PoK[](problems.length);\r\n        PoK memory pf = pfs[0];\r\n\r\n        for( i=0; i<real; i++){\r\n            pf = pfs[i];\r\n            (pf.g, pf.A, pf.message,) = forgeProof(G,problems[i],victim);\r\n            (, pf.T, pf.c, pf.s) = forgeProof(G,problems[i],victim);\r\n            //Just avoid stack too deep\r\n            \r\n            \r\n            totalFakeC = addmod(totalFakeC, pf.c, q);\r\n            T[i] = pf.T;\r\n\r\n        }\r\n\r\n        for( i=real+1; i<problems.length; i++){\r\n            pf = pfs[i]; \r\n            (pf.g, pf.A, pf.message,) = forgeProof(G,problems[i],victim);\r\n            (, pf.T, pf.c, pf.s) = forgeProof(G,problems[i],victim);\r\n            //Just avoid stack too deep\r\n            totalFakeC = addmod(totalFakeC, pf.c, q);\r\n            T[i] = pf.T;\r\n        }\r\n        //1 real proof\r\n        pf = pfs[ real ];\r\n        \r\n        //i) choose t\r\n        uint realt = uint(keccak256(G, problems, victim));\r\n        realt = uint(keccak256(realt, pokerKey)) % q;//avoid stack too deep\r\n        //add index of proof? pokerKey instead\r\n        //add pokerKey for randomness\r\n        \r\n        //ii) compute T\r\n        uint[3] memory realT = Secp256k1_noconflict._mul(realt, G);\r\n        ECCMath_noconflict.toZ1(realT,p);\r\n        T[ real ] = realT;\r\n        \r\n        //iii) compute c\r\n        uint challenge = uint(keccak256(G, problems, victim,T)) % q;\r\n        uint realc = addmod(challenge, q-totalFakeC, q);//submod, avoid rounding when negative\r\n        //iv) create proof\r\n        (pf.g, pf.A, pf.message,) = createSchnorr(pokerKey,G,problems[real],victim, realt, realc);\r\n        (, pf.T, pf.c, pf.s) = createSchnorr(pokerKey,G,problems[real],victim,realt,realc);\r\n    }\r\n\r\n    /*function verifySchnorr(uint[2] g,uint[2] A, uint message, uint[3] T, uint c, uint s) public view returns (bool result) {\r\n        if (!Secp256k1_noconflict.isPubKey(A)) return false;\r\n        if (!Secp256k1_noconflict.isPubKey(T)) return false;\r\n        \r\n        //1 Check c   \r\n        if (c!=uint(keccak256(g,A, message,T)) % q) return false;//Check the message\r\n        \r\n        //2 Check equation\r\n        uint[3] memory LHS = Secp256k1_noconflict._mul(s, g);\r\n        uint[3] memory RHS = Secp256k1_noconflict._add(T,Secp256k1_noconflict._mul(c, A));\r\n        //_add: Jacobi -> Jacobi\r\n        // Convert to Affine Co-ordinates\r\n        ECCMath_noconflict.toZ1(LHS, p);\r\n        ECCMath_noconflict.toZ1(RHS, p);\r\n        // Verify. Do they match?\r\n        if(RHS[0] == LHS[0] &&\r\n           RHS[1] == LHS[1]) {\r\n            return true;\r\n        } else {\r\n                return false;\r\n            }\r\n    }*/\r\n\r\n    function verifySchnorr(uint[2] g,uint[2] A, /*uint message,*/ uint[3] T, uint c, uint s) public view returns (bool result) {\r\n        if (!Secp256k1_noconflict.isPubKey(A)) return false;\r\n        if (!Secp256k1_noconflict.isPubKey(T)) return false;\r\n        //1 Check c   \r\n        //if (c!=uint(keccak256(g,A, message,T)) % q) return false;//Check the message\r\n        \r\n        //2 Check equation\r\n        uint[3] memory LHS = Secp256k1_noconflict._mul(s, g);\r\n        uint[3] memory RHS = Secp256k1_noconflict._add(T,Secp256k1_noconflict._mul(c, A));\r\n        //_add: Jacobi -> Jacobi\r\n        // Convert to Affine Co-ordinates\r\n        ECCMath_noconflict.toZ1(LHS, p);\r\n        ECCMath_noconflict.toZ1(RHS, p);\r\n        // Verify. Do they match?\r\n        if(RHS[0] == LHS[0] &&\r\n           RHS[1] == LHS[1]) {\r\n            return true;\r\n        } else {\r\n                return false;\r\n            }\r\n    }\r\n\r\n    //Eason:check the proofs in the contract\r\n    function easyVerifyProofs() public returns (bool result) { \r\n\r\n        uint challenge = 0;\r\n        uint[3][ ] memory Ts = new uint[3][](proofs.length);\r\n        uint[2][ ] memory As = new uint[2][](proofs.length);\r\n        \r\n        PoK memory pf;\r\n        for(uint i=0; i<proofs.length; i++){\r\n            pf = proofs[i];\r\n            if(!verifySchnorr(pf.g, pf.A, /*pf.message,*/ pf.T, pf.c, pf.s)) {\r\n                emit Fail(i);\r\n                return false;\r\n            }\r\n\r\n            challenge = addmod(pf.c, challenge, q);\r\n            As[i] = pf.A;\r\n            Ts[i] = pf.T;\r\n        }\r\n        pf = proofs[0];\r\n        if (!(challenge == uint(keccak256(pf.g, As, pf.message, Ts)) % q)) return false;//Check the message\r\n        return true;\r\n    }\r\n    /*function test(uint pokerKey, uint victim) public view  returns(bool, uint, uint[2], uint[2], uint, uint[3], uint, uint){\r\n        bool result = verifyProofs(prove(pokerKey, G, [hand[0],hand[1]], victim));\r\n        \r\n        return (result,prove(pokerKey, G, [hand[0],hand[1]], victim)) ;\r\n    }*/\r\n\r\n    function testSchnorr(uint pokerKey, uint[2] werewolf, uint[2] liveHand, uint victim) public view returns(bool result, uint[2] _G, uint[2] A, uint message, uint[3] T, uint c, uint s){\r\n        //test \"real\" also \"fake\" proof\r\n        if(werewolf[0]==0 && werewolf[1]==0 && liveHand[0]==0 && liveHand[1]==0){\r\n            (werewolf[0],werewolf[1]) = (G[0],G[1]);\r\n            (liveHand[0],liveHand[1]) = (problems[0][0], problems[0][1]);\r\n        }\r\n        require(werewolf[0]!=0 && werewolf[1]!=0 && liveHand[0]!=0 && liveHand[1]!=0);\r\n        //message = victim;\r\n        if(pokerKey != 0){\r\n            //uint secret = pokerKey;\r\n            (_G, A, message,T,c,s) = createSchnorr(pokerKey, werewolf, liveHand, victim, 0 ,0 );\r\n        }else{\r\n            (_G, A, message,T,c,s) = forgeProof(werewolf, liveHand, victim);\r\n        }\r\n        result=verifySchnorr(_G, A, /*message,*/ T,c,s);\r\n    }\r\n\r\n    struct PoK{\r\n        uint[2] g; \r\n        uint[2] A; \r\n        uint message; \r\n        uint[3] T; \r\n        uint c; \r\n        uint s;\r\n    }\r\n    \r\n    event Fail(uint pf);\r\n    event Process(uint pf);\r\n    event Check(uint a,uint b);\r\n}\r\n",
  "sourcePath": "C:\\Users\\eason\\Documents\\GitHub\\SmartWerewolf\\contracts\\OrPoK.sol",
  "compiler": {
    "name": "solc",
    "version": "0.4.21+commit.dfe3193c.Emscripten.clang"
  },
  "schemaVersion": "2.0.0",
  "updatedAt": "2018-05-04T16:26:55.614Z"
}