{
  "contractName": "SmartWerewolf",
  "abi": [
    {
      "constant": true,
      "inputs": [],
      "name": "n",
      "outputs": [
        {
          "name": "",
          "type": "uint256"
        }
      ],
      "payable": false,
      "stateMutability": "view",
      "type": "function"
    },
    {
      "constant": true,
      "inputs": [
        {
          "name": "",
          "type": "address"
        }
      ],
      "name": "playerNumOf",
      "outputs": [
        {
          "name": "",
          "type": "uint256"
        }
      ],
      "payable": false,
      "stateMutability": "view",
      "type": "function"
    },
    {
      "constant": true,
      "inputs": [
        {
          "name": "",
          "type": "address"
        }
      ],
      "name": "theLivingNumOf",
      "outputs": [
        {
          "name": "",
          "type": "uint256"
        }
      ],
      "payable": false,
      "stateMutability": "view",
      "type": "function"
    },
    {
      "constant": true,
      "inputs": [
        {
          "name": "",
          "type": "uint256"
        },
        {
          "name": "",
          "type": "uint256"
        }
      ],
      "name": "deck",
      "outputs": [
        {
          "name": "",
          "type": "uint256"
        }
      ],
      "payable": false,
      "stateMutability": "view",
      "type": "function"
    },
    {
      "constant": true,
      "inputs": [
        {
          "name": "",
          "type": "uint256"
        }
      ],
      "name": "livingPlayers",
      "outputs": [
        {
          "name": "",
          "type": "address"
        }
      ],
      "payable": false,
      "stateMutability": "view",
      "type": "function"
    },
    {
      "constant": true,
      "inputs": [],
      "name": "winner",
      "outputs": [
        {
          "name": "",
          "type": "string"
        }
      ],
      "payable": false,
      "stateMutability": "view",
      "type": "function"
    },
    {
      "constant": true,
      "inputs": [
        {
          "name": "",
          "type": "uint256"
        }
      ],
      "name": "living",
      "outputs": [
        {
          "name": "",
          "type": "uint256"
        }
      ],
      "payable": false,
      "stateMutability": "view",
      "type": "function"
    },
    {
      "constant": true,
      "inputs": [
        {
          "name": "",
          "type": "uint256"
        }
      ],
      "name": "players",
      "outputs": [
        {
          "name": "name",
          "type": "address"
        },
        {
          "name": "live",
          "type": "bool"
        },
        {
          "name": "role",
          "type": "uint8"
        },
        {
          "name": "pokerKey",
          "type": "uint256"
        }
      ],
      "payable": false,
      "stateMutability": "view",
      "type": "function"
    },
    {
      "constant": true,
      "inputs": [
        {
          "name": "",
          "type": "address"
        }
      ],
      "name": "deposits",
      "outputs": [
        {
          "name": "",
          "type": "uint256"
        }
      ],
      "payable": false,
      "stateMutability": "view",
      "type": "function"
    },
    {
      "constant": true,
      "inputs": [],
      "name": "q",
      "outputs": [
        {
          "name": "",
          "type": "uint256"
        }
      ],
      "payable": false,
      "stateMutability": "view",
      "type": "function"
    },
    {
      "inputs": [
        {
          "name": "addressPoK",
          "type": "address"
        }
      ],
      "payable": false,
      "stateMutability": "nonpayable",
      "type": "constructor"
    },
    {
      "anonymous": false,
      "inputs": [
        {
          "indexed": false,
          "name": "i",
          "type": "uint256"
        }
      ],
      "name": "debug",
      "type": "event"
    },
    {
      "anonymous": false,
      "inputs": [
        {
          "indexed": false,
          "name": "outPlayerNum",
          "type": "uint256"
        },
        {
          "indexed": false,
          "name": "outPlayerName",
          "type": "address"
        },
        {
          "indexed": false,
          "name": "outPlayerLive",
          "type": "bool"
        },
        {
          "indexed": false,
          "name": "outPlayerHand",
          "type": "uint256[2]"
        },
        {
          "indexed": false,
          "name": "outPlayerRole",
          "type": "uint8"
        },
        {
          "indexed": false,
          "name": "outPlayerKey",
          "type": "uint256"
        },
        {
          "indexed": false,
          "name": "outLivingNum",
          "type": "uint256"
        },
        {
          "indexed": false,
          "name": "outLivingPlayer",
          "type": "address"
        }
      ],
      "name": "JoinPlayer",
      "type": "event"
    },
    {
      "constant": false,
      "inputs": [
        {
          "name": "_players",
          "type": "address[]"
        }
      ],
      "name": "engagement",
      "outputs": [],
      "payable": false,
      "stateMutability": "nonpayable",
      "type": "function"
    },
    {
      "constant": false,
      "inputs": [
        {
          "name": "player",
          "type": "address"
        }
      ],
      "name": "depositGame",
      "outputs": [],
      "payable": true,
      "stateMutability": "payable",
      "type": "function"
    },
    {
      "constant": false,
      "inputs": [
        {
          "name": "inPlayer",
          "type": "address"
        }
      ],
      "name": "engagePlayer",
      "outputs": [],
      "payable": false,
      "stateMutability": "nonpayable",
      "type": "function"
    },
    {
      "constant": false,
      "inputs": [],
      "name": "createCards",
      "outputs": [],
      "payable": false,
      "stateMutability": "nonpayable",
      "type": "function"
    },
    {
      "constant": false,
      "inputs": [
        {
          "name": "i",
          "type": "uint256"
        },
        {
          "name": "pokerKey",
          "type": "uint256"
        }
      ],
      "name": "shuffleCardBy",
      "outputs": [],
      "payable": false,
      "stateMutability": "nonpayable",
      "type": "function"
    },
    {
      "constant": false,
      "inputs": [],
      "name": "shuffleCards",
      "outputs": [],
      "payable": false,
      "stateMutability": "nonpayable",
      "type": "function"
    },
    {
      "constant": false,
      "inputs": [],
      "name": "dealCards",
      "outputs": [],
      "payable": false,
      "stateMutability": "nonpayable",
      "type": "function"
    },
    {
      "constant": true,
      "inputs": [
        {
          "name": "i",
          "type": "uint256"
        }
      ],
      "name": "dealCardTo",
      "outputs": [
        {
          "name": "hand",
          "type": "uint256[2]"
        }
      ],
      "payable": false,
      "stateMutability": "view",
      "type": "function"
    },
    {
      "constant": false,
      "inputs": [
        {
          "name": "victimName",
          "type": "address"
        },
        {
          "name": "proofCanKill",
          "type": "uint256"
        }
      ],
      "name": "nightKill",
      "outputs": [],
      "payable": false,
      "stateMutability": "nonpayable",
      "type": "function"
    },
    {
      "constant": false,
      "inputs": [
        {
          "name": "name",
          "type": "address"
        }
      ],
      "name": "dayVoting",
      "outputs": [],
      "payable": false,
      "stateMutability": "nonpayable",
      "type": "function"
    },
    {
      "constant": false,
      "inputs": [
        {
          "name": "_role",
          "type": "uint8"
        },
        {
          "name": "_pokerKey",
          "type": "uint256"
        }
      ],
      "name": "openRole",
      "outputs": [],
      "payable": false,
      "stateMutability": "nonpayable",
      "type": "function"
    },
    {
      "constant": true,
      "inputs": [
        {
          "name": "card",
          "type": "uint256[2]"
        }
      ],
      "name": "roleOf",
      "outputs": [
        {
          "name": "",
          "type": "uint256"
        }
      ],
      "payable": false,
      "stateMutability": "view",
      "type": "function"
    },
    {
      "constant": true,
      "inputs": [
        {
          "name": "",
          "type": "bytes32"
        }
      ],
      "name": "roleOf",
      "outputs": [
        {
          "name": "",
          "type": "uint256"
        }
      ],
      "payable": false,
      "stateMutability": "view",
      "type": "function"
    },
    {
      "constant": true,
      "inputs": [],
      "name": "cardOrder",
      "outputs": [
        {
          "name": "",
          "type": "uint256"
        }
      ],
      "payable": false,
      "stateMutability": "pure",
      "type": "function"
    },
    {
      "constant": true,
      "inputs": [
        {
          "name": "name",
          "type": "address"
        }
      ],
      "name": "getHandOf",
      "outputs": [
        {
          "name": "hand",
          "type": "uint256[2]"
        }
      ],
      "payable": false,
      "stateMutability": "view",
      "type": "function"
    },
    {
      "constant": true,
      "inputs": [],
      "name": "numSurvive",
      "outputs": [
        {
          "name": "",
          "type": "uint256"
        }
      ],
      "payable": false,
      "stateMutability": "view",
      "type": "function"
    },
    {
      "constant": true,
      "inputs": [
        {
          "name": "framedHand",
          "type": "uint256[2]"
        },
        {
          "name": "_werewolfCard",
          "type": "uint256[2]"
        },
        {
          "name": "victim",
          "type": "uint256"
        }
      ],
      "name": "werewolfFrameKilling",
      "outputs": [
        {
          "name": "__werewolfCard",
          "type": "uint256[2]"
        },
        {
          "name": "_framedHand",
          "type": "uint256[2]"
        },
        {
          "name": "_victim",
          "type": "uint256"
        },
        {
          "name": "T",
          "type": "uint256[3]"
        },
        {
          "name": "c",
          "type": "uint256"
        },
        {
          "name": "s",
          "type": "uint256"
        }
      ],
      "payable": false,
      "stateMutability": "view",
      "type": "function"
    },
    {
      "constant": true,
      "inputs": [],
      "name": "werewolfCard",
      "outputs": [
        {
          "name": "cardX",
          "type": "uint256"
        },
        {
          "name": "cardY",
          "type": "uint256"
        }
      ],
      "payable": false,
      "stateMutability": "view",
      "type": "function"
    },
    {
      "constant": true,
      "inputs": [
        {
          "name": "pokerKey",
          "type": "uint256"
        },
        {
          "name": "hands",
          "type": "uint256[2][]"
        },
        {
          "name": "_werewolfCard",
          "type": "uint256[2]"
        },
        {
          "name": "victim",
          "type": "uint256"
        }
      ],
      "name": "werewolfChooset",
      "outputs": [
        {
          "name": "realt",
          "type": "uint256"
        }
      ],
      "payable": false,
      "stateMutability": "view",
      "type": "function"
    },
    {
      "constant": true,
      "inputs": [
        {
          "name": "realt",
          "type": "uint256"
        },
        {
          "name": "_werewolfCard",
          "type": "uint256[2]"
        }
      ],
      "name": "werewolfComputeT",
      "outputs": [
        {
          "name": "realT",
          "type": "uint256[3]"
        }
      ],
      "payable": false,
      "stateMutability": "view",
      "type": "function"
    },
    {
      "constant": true,
      "inputs": [
        {
          "name": "_werewolfCard",
          "type": "uint256[2]"
        },
        {
          "name": "_hands",
          "type": "uint256[2][]"
        },
        {
          "name": "victim",
          "type": "uint256"
        },
        {
          "name": "Ts",
          "type": "uint256[3][]"
        }
      ],
      "name": "computeChallenge",
      "outputs": [
        {
          "name": "realChallenge",
          "type": "uint256"
        }
      ],
      "payable": false,
      "stateMutability": "view",
      "type": "function"
    },
    {
      "constant": true,
      "inputs": [
        {
          "name": "pokerKey",
          "type": "uint256"
        },
        {
          "name": "_werewolfCard",
          "type": "uint256[2]"
        },
        {
          "name": "hand",
          "type": "uint256[2]"
        },
        {
          "name": "victim",
          "type": "uint256"
        },
        {
          "name": "tReady",
          "type": "uint256"
        },
        {
          "name": "cReady",
          "type": "uint256"
        }
      ],
      "name": "werewolfProve",
      "outputs": [
        {
          "name": "__werewolfCard",
          "type": "uint256[2]"
        },
        {
          "name": "_hand",
          "type": "uint256[2]"
        },
        {
          "name": "_victim",
          "type": "uint256"
        },
        {
          "name": "T",
          "type": "uint256[3]"
        },
        {
          "name": "c",
          "type": "uint256"
        },
        {
          "name": "s",
          "type": "uint256"
        }
      ],
      "payable": false,
      "stateMutability": "view",
      "type": "function"
    },
    {
      "constant": true,
      "inputs": [
        {
          "name": "_werewolfCard",
          "type": "uint256[2]"
        },
        {
          "name": "hand",
          "type": "uint256[2]"
        },
        {
          "name": "T",
          "type": "uint256[3]"
        },
        {
          "name": "c",
          "type": "uint256"
        },
        {
          "name": "s",
          "type": "uint256"
        }
      ],
      "name": "verifyWerewolfProof",
      "outputs": [
        {
          "name": "result",
          "type": "bool"
        }
      ],
      "payable": false,
      "stateMutability": "view",
      "type": "function"
    },
    {
      "constant": true,
      "inputs": [
        {
          "name": "me",
          "type": "uint256"
        },
        {
          "name": "pokerKey",
          "type": "uint256"
        },
        {
          "name": "i",
          "type": "uint256"
        },
        {
          "name": "cipherCard",
          "type": "uint256[2]"
        }
      ],
      "name": "helpDecryptRole",
      "outputs": [
        {
          "name": "decryptCard",
          "type": "uint256[2]"
        }
      ],
      "payable": false,
      "stateMutability": "view",
      "type": "function"
    },
    {
      "constant": true,
      "inputs": [
        {
          "name": "s",
          "type": "uint256"
        },
        {
          "name": "point",
          "type": "uint256[2]"
        }
      ],
      "name": "multiply",
      "outputs": [
        {
          "name": "",
          "type": "uint256"
        },
        {
          "name": "",
          "type": "uint256"
        }
      ],
      "payable": false,
      "stateMutability": "view",
      "type": "function"
    }
  ],
  "bytecode": "0x6060604052341561000f57600080fd5b6040516020806137018339810160405280805160008054600160a060020a031916600160a060020a0383161781559092507f79be667ef9dcbbac55a06295ce870b07029bfcdb2dce28d959f2815b16f81798915060059001557f483ada7726a3c4655da4fbfc0e1108a8fd17b448a68554199c47d08ffb10d4b8600560010155506136628061009f6000396000f30060606040526004361061019d5763ffffffff60e060020a600035041663076d968081146101a257806307f7470b146101f35780630bcb73fb1461029e5780630cbee0e3146102bd57806314a9a121146103cc5780632e52d60614610424578063313ffac1146104495780633e5a438d14610470578063474ab93c146104e95780634ef3ea74146105025780634fb793dc1461052157806352f9aaea1461055d57806354054cd5146105b4578063568bd63e146105d357806358801f17146105e65780635c56e508146105f95780636e6ac9c61461060c5780638c785f88146106225780639a01967814610635578063a4f195aa14610657578063ab27783314610673578063acb2c01a14610691578063b77d1268146106a4578063c0cb6b24146107cc578063c52e3e4a14610826578063d34544cd1461083c578063d6ffa29a14610855578063d95583dc14610868578063d9e0bf4e1461087c578063dfbf53ae146108ae578063eb28808114610938578063f6ac71cd1461094e578063f71d96cb1461096d578063fc7e286d146109c7578063fd3ab282146109e6575b600080fd5b34156101ad57600080fd5b6101f160046024813581810190830135806020818102016040519081016040528093929190818152602001838360200280828437509496506109f995505050505050565b005b34156101fe57600080fd5b61028a600460448160026040805190810160405280929190826002602002808284378201915050505050919080604001906002806020026040519081016040528092919082600260200280828437820191505050505091908060600190600380602002604051908101604052919082826060808284375093955050833593602001359250610ce6915050565b604051901515815260200160405180910390f35b34156102a957600080fd5b6101f1600160a060020a0360043516610ddd565b34156102c857600080fd5b610327600460448160026040805190810160405280929190826002602002808284378201915050505050919080604001906002806020026040519081016040528092919082600260200280828437509395505092359250611132915050565b6040518087604080838360005b8381101561034c578082015183820152602001610334565b5050505090500186600260200280838360005b8381101561037757808201518382015260200161035f565b5050505090500185815260200184600360200280838360005b838110156103a8578082015183820152602001610390565b50505050905001838152602001828152602001965050505050505060405180910390f35b34156103d757600080fd5b61040c60048035906064602460026040805190810160405280929190826002602002808284375093955061123c945050505050565b60405191825260208201526040908101905180910390f35b341561042f57600080fd5b610437611276565b60405190815260200160405180910390f35b341561045457600080fd5b610437600480359060248035908101910135604460843561127c565b341561047b57600080fd5b610327600480359060646024600260408051908101604052809291908260026020028082843782019150505050509190806040019060028060200260405190810160405280929190826002602002808284375093955050833593602081013593506040013591506113029050565b34156104f457600080fd5b6101f1600435602435611429565b341561050d57600080fd5b610437600160a060020a03600435166114ea565b341561052c57600080fd5b61043760046044816002604080519081016040528092919082600260200280828437509395506114fc945050505050565b341561056857600080fd5b61057c600160a060020a0360043516611552565b6040518082604080838360005b838110156105a1578082015183820152602001610589565b5050505090500191505060405180910390f35b34156105bf57600080fd5b610437600160a060020a03600435166115c5565b34156105de57600080fd5b61040c6115d7565b34156105f157600080fd5b6101f1611628565b341561060457600080fd5b6101f16117e7565b341561061757600080fd5b610437600435611a77565b341561062d57600080fd5b610437611a89565b341561064057600080fd5b6101f1600160a060020a0360043516602435611aa0565b341561066257600080fd5b6101f160ff60043516602435611ba3565b341561067e57600080fd5b61057c6004356024356044356064611dac565b341561069c57600080fd5b610437611e2a565b34156106af57600080fd5b610437600460448160026040805190810160405280929190826002602002808284375093959460208082019550903586018082019450359250829150818102016040519081016040528181529291906000602085015b82821015610744576040808302860190600290805190810160405280929190826002602002808284375050509183525050600190910190602001610705565b505050505091908035906020019091908035906020019082018035906020019080806020026020016040519081016040528181529291906000602085015b828210156107be576060808302860190600390604051908101604052919082826060808284375050509183525050600190910190602001610782565b505050505091905050611e34565b34156107d757600080fd5b61080c600480359060646024600260408051908101604052809291908260026020028082843750939550611f8e945050505050565b604051808260608083836000815183820152602001610589565b341561083157600080fd5b61057c60043561202c565b341561084757600080fd5b610437600435602435612082565b341561086057600080fd5b6101f16120b4565b6101f1600160a060020a0360043516612164565b341561088757600080fd5b610892600435612180565b604051600160a060020a03909116815260200160405180910390f35b34156108b957600080fd5b6108c16121a8565b60405160208082528190810183818151815260200191508051906020019080838360005b838110156108fd5780820151838201526020016108e5565b50505050905090810190601f16801561092a5780820380516001836020036101000a031916815260200191505b509250505060405180910390f35b341561094357600080fd5b610437600435612246565b341561095957600080fd5b6101f1600160a060020a0360043516612258565b341561097857600080fd5b610983600435612261565b604051600160a060020a03851681528315156020820152604081018360038111156109aa57fe5b60ff16815260200182815260200194505050505060405180910390f35b34156109d257600080fd5b610437600160a060020a03600435166122ab565b34156109f157600080fd5b6104376122bd565b6000600682511015610a0a57600080fd5b81516004819055600190810190610a219082613397565b50600190505b6004548111610b9b5760a060405190810160405280836001840381518110610a4b57fe5b90602001906020020151600160a060020a031681526020016001151581526020016040805190810160405260008082526020808301829052918352910190815260006020909101526001805483908110610aa157fe5b90600052602060002090600502016000820151815473ffffffffffffffffffffffffffffffffffffffff1916600160a060020a03919091161781556020820151815490151560a060020a0274ff0000000000000000000000000000000000000000199091161781556040820151610b1e90600183019060026133c3565b5060608201518160030160006101000a81548160ff02191690836003811115610b4357fe5b0217905550608082015181600401559050508060076000600184815481101515610b6957fe5b60009182526020808320600590920290910154600160a060020a03168352820192909252604001902055600101610a27565b600a60205260027fbbc70db1b6c7afd11e79c0fb0051300458f1a3acb8ee9789d9b6b26c61ad9bc75560017fbff4442b8ed600beeb8e26b1279a0f0d14c6edfaec26d968ee13c86f7d4c2ba8819055600454600360005260021981017fa856840544dc26124927add067d799967eac11be13e14d82cc281ea46fa397595501610c25600b82613401565b50600190505b6004548111610ce2576001805482908110610c4257fe5b6000918252602090912060059091020154600b8054600160a060020a039092169183908110610c6d57fe5b906000526020600020900160006101000a815481600160a060020a030219169083600160a060020a0316021790555080600c6000600184815481101515610cb057fe5b60009182526020808320600590920290910154600160a060020a03168352820192909252604001902055600101610c2b565b5050565b60008054600160a060020a0316632b0c1aba878787878760405160e060020a63ffffffff88160281526004018086604080838360005b83811015610d34578082015183820152602001610d1c565b5050505090500185600260200280838360005b83811015610d5f578082015183820152602001610d47565b5050505090500184600360200280838360005b83811015610d8a578082015183820152602001610d72565b5050505090500183815260200182815260200195505050505050602060405180830381600087803b1515610dbd57600080fd5b5af11515610dca57600080fd5b5050506040518051979650505050505050565b600160a060020a0381166000908152600960205260408120546064901015610e0457600080fd5b6001541515610e1b576001610e198180613397565b505b60018054808201610e2c8382613397565b9160005260206000209060050201600060a06040519081016040528086600160a060020a031681526020016001151581526020016040805190810160405260008082526020808301829052918352910190815260006020909101529190508151815473ffffffffffffffffffffffffffffffffffffffff1916600160a060020a03919091161781556020820151815490151560a060020a0274ff0000000000000000000000000000000000000000199091161781556040820151610ef690600183019060026133c3565b5060608201518160030160006101000a81548160ff02191690836003811115610f1b57fe5b02179055506080820151600490910155505060018054600160a060020a03841660009081526007602052604090206000199091019081905581549092507fd5762db223fce5a6c9ae7f92059eebe5a6fb63799dbe07545f26d41efbf3be7891839182908110610f8657fe5b600091825260209091206005909102015460018054600160a060020a039092169185908110610fb157fe5b600091825260209091206005909102015460a060020a900460ff166040805190810160405280600187815481101515610fe657fe5b600091825260208220600160059092020101900154815260200160018781548110151561100f57fe5b60009182526020909120600260059092020101549052600180548790811061103357fe5b60009182526020909120600360059092020101546001805460ff909216918890811061105b57fe5b9060005260206000209060050201600401548760018981548110151561107d57fe5b6000918252602090912060059091020154600160a060020a0316604051888152600160a060020a03881660208201528615156040808301919091526060820190879080838360005b838110156110dd5780820151838201526020016110c5565b505050509050018560038111156110f057fe5b60ff16815260200184815260200183815260200182600160a060020a0316600160a060020a031681526020019850505050505050505060405180910390a15050565b61113a613425565b611142613425565b600061114c61344b565b600080548190600160a060020a031663a2cf9308898b8a60405160e060020a63ffffffff86160281526004018084604080838360005b8381101561119a578082015183820152602001611182565b5050505090500183600260200280838360005b838110156111c55780820151838201526020016111ad565b50505050905001828152602001935050505061014060405180830381600087803b15156111f157600080fd5b5af115156111fe57600080fd5b50505060405180604001806040018051906020018060600180519060200180516020909101604052949e939d50919b50995097509095509350505050565b60008061124761344b565b61125185856122d3565b9050611263816401000003d0196126ff565b8051602082015192509250509250929050565b60045481565b60008054600160a060020a031663b73318658487878a8760405160e060020a63ffffffff88160281526004018086604080828437820191505080602001848152602001838152602001828103825286868281815260200192506040028082843782019150509650505050505050602060405180830381600087803b1515610dbd57600080fd5b61130a613425565b611312613425565b600061131c61344b565b600080548190600160a060020a031663d4540ff78d8d8d8d8d8d60405160e060020a63ffffffff8916028152600481018781529060240186604080838360005b8381101561137457808201518382015260200161135c565b5050505090500185600260200280838360005b8381101561139f578082015183820152602001611387565b50505050905001848152602001838152602001828152602001965050505050505061014060405180830381600087803b15156113da57600080fd5b5af115156113e757600080fd5b50505060405180604001806040018051906020018060600180519060200180519060200160405295509550955095509550955096509650965096509650969050565b8060005b60045481116114e4576114908260038381548110151561144957fe5b90600052602060002090600202016002806020026040519081016040529190828260026020028201915b81548152602001906001019080831161147357505050505061123c565b600380548490811061149e57fe5b600091825260208220600290910201900160006003858154811015156114c057fe5b6000918252602090912060029091020160010192909255919091555060010161142d565b50505050565b60076020526000908152604090205481565b600060086000836040518082604080838360005b83811015611528578082015183820152602001611510565b50505050905001915050604051908190039020815260208101919091526040016000205492915050565b61155a613425565b600160a060020a038216600090815260076020526040902054600180548290811061158157fe5b60009182526020822060016005909202010190015460018054839081106115a457fe5b60009182526020918290206002600590920201015490840152825250919050565b600c6020526000908152604090205481565b600080600360018154811015156115ea57fe5b60009182526020822060029091020190015460038054600190811061160b57fe5b600091825260209091206002909102016001015490939092509050565b600080611633613425565b6177179250600091505b60045482116116b0576116598360038481548110151561144957fe5b600380548590811061166757fe5b6000918252602082206002909102019001600060038681548110151561168957fe5b6000918252602090912060029091020160010192909255919091555060019091019061163d565b6003805460029081106116bf57fe5b6000918252602082206002909102019001546003805460029081106116e057fe5b60009182526020918290206001600290920201015490830152815260038054600590811061170a57fe5b60009182526020822060029091020190015460038054600590811061172b57fe5b600091825260209091206002909102016001015460038054600290811061174e57fe5b600091825260208220600290910201900160006003600281548110151561177157fe5b60009182526020909120600160029092020101929092559190915550805160208201516003805460059081106117a357fe5b60009182526020822060029091020190016000600360058154811015156117c657fe5b60009182526020909120600290910201600101929092559190915550505050565b6000806004546001016003816117fd9190613465565b611808600282613401565b50600091505b600454821161182b5761182082612767565b60019091019061180e565b600091505b60045482116118e15761188a60028381548110151561184b57fe5b6000918252602090912001546005600260408051908101604090815283548252909291908301600183016020850180831161147357505050505061123c565b600380548590811061189857fe5b600091825260208220600290910201900160006003868154811015156118ba57fe5b60009182526020909120600290910201600101929092559190915550600190910190611830565b61193d600360008154811015156118f457fe5b90600052602060002090600202016002806020026040519081016040529190828260026020028201915b81548152602001906001019080831161191e575050505050600061279d565b6119996003600181548110151561195057fe5b90600052602060002090600202016002806020026040519081016040529190828260026020028201915b81548152602001906001019080831161197a575050505050600161279d565b6119ac6003600281548110151561195057fe5b611a076003808154811015156119be57fe5b90600052602060002090600202016002806020026040519081016040529190828260026020028201915b8154815260200190600101908083116119e8575050505050600261279d565b5060045b6004548111610ce257611a6f600382815481101515611a2657fe5b90600052602060002090600202016002806020026040519081016040529190828260026020028201915b815481526020019060010190808311611a50575050505050600361279d565b600101611a0b565b60086020526000908152604090205481565b70014551231950b75fc4402da1732fc9bebe195b90565b6000611aaa613491565b600160a060020a038416600090815260076020526040902054600180549193509083908110611ad557fe5b906000526020600020906005020160a060405190810160409081528254600160a060020a038116835260a060020a900460ff161515602083015290919080830190600183019060029080519081016040529190828260026020028201915b815481526020019060010190808311611b3357505050918352505060038281015460209092019160ff1690811115611b6757fe5b6003811115611b7257fe5b81526020016004820154815250509050611b8c83826127fb565b1515600114611b9a57600080fd5b6114e48461281a565b6000611baf838361298d565b1515600114611bbd57600080fd5b50600160a060020a0333166000908152600760205260409020546001805484919083908110611be857fe5b906000526020600020906005020160030160006101000a81548160ff02191690836003811115611c1457fe5b021790555081600182815481101515611c2957fe5b906000526020600020906005020160040181905550600a6000846003811115611c4e57fe5b815260208082019290925260400160009081208054600019019055600a9091527fa856840544dc26124927add067d799967eac11be13e14d82cc281ea46fa39759547fbff4442b8ed600beeb8e26b1279a0f0d14c6edfaec26d968ee13c86f7d4c2ba85460019092527fbbc70db1b6c7afd11e79c0fb0051300458f1a3acb8ee9789d9b6b26c61ad9bc75491011415611d2e5760408051908101604052600a81527f57657265776f6c766573000000000000000000000000000000000000000000006020820152600d908051611d289291602001906134c6565b50611da7565b6001600052600a6020527fbbc70db1b6c7afd11e79c0fb0051300458f1a3acb8ee9789d9b6b26c61ad9bc7541515611da75760408051908101604052600681527f48756d616e7300000000000000000000000000000000000000000000000000006020820152600d9080516114e49291602001906134c6565b505050565b611db4613425565b600083861415611dd1576020808401359083015282358252611e21565b611ded8570014551231950b75fc4402da1732fc9bebe196129af565b9050611e19818460026040805190810160405280929190826002602002808284375061123c9350505050565b602084015282525b50949350505050565b600b546000190190565b60008054600160a060020a031663b77d12688686868660405160e060020a63ffffffff87160281526004018085604080838360005b83811015611e81578082015183820152602001611e69565b5050505090500180602001848152602001806020018381038352868181518152602001915080516000925b81841015611eee57602080850284010151604080838360005b83811015611edd578082015183820152602001611ec5565b505050509050019260010192611eac565b925050508381038252848181518152602001915080516000925b81841015611f4a57602080850284010151606080838360005b83811015611f39578082015183820152602001611f21565b505050509050019260010192611f08565b925050509650505050505050602060405180830381600087803b1515611f6f57600080fd5b5af11515611f7c57600080fd5b50505060405180519695505050505050565b611f9661344b565b600054600160a060020a03166383242e90848460405160e060020a63ffffffff8516028152600481018381529060240182604080838360005b83811015611fe7578082015183820152602001611fcf565b5050505090500192505050606060405180830381600087803b151561200b57600080fd5b5af1151561201857600080fd5b505050604051606081016040529392505050565b612034613425565b600380548390811061204257fe5b600091825260208220600290910201900154600380548490811061206257fe5b600091825260209182902060016002909202010154908301528152919050565b600380548390811061209057fe5b9060005260206000209060020201816002811015156120ab57fe5b01549150829050565b60015b60045481116121595760038054829081106120ce57fe5b60009182526020822060029091020190015460038054839081106120ee57fe5b6000918252602090912060029091020160010154600180548490811061211057fe5b6000918252602082206001600590920201019001600060018581548110151561213557fe5b600091825260209091206002600590920201019290925591909155506001016120b7565b612161612a4d565b50565b600160a060020a03166000908152600960205260409020349055565b600b80548290811061218e57fe5b600091825260209091200154600160a060020a0316905081565b600d8054600181600116156101000203166002900480601f01602080910402602001604051908101604052809291908181526020018280546001816001161561010002031660029004801561223e5780601f106122135761010080835404028352916020019161223e565b820191906000526020600020905b81548152906001019060200180831161222157829003601f168201915b505050505081565b600a6020526000908152604090205481565b6121618161281a565b600180548290811061226f57fe5b6000918252602090912060059091020180546003820154600490920154600160a060020a038216935060a060020a90910460ff90811692169084565b60096020526000908152604090205481565b70014551231950b75fc4402da1732fc9bebe1981565b6122db61344b565b60008060006122e8613533565b6122f061344b565b6122f8613561565b6401000003d0199550600080808b1515612311576126f0565b6000604051985061020089016040525b8c156123595760018d16156123485750601f8c16808989015360206010821102818e03019c505b60028d049c50600188019750612321565b506060604051908101604052808c5181526020018c6001602002015181526001602090910152865261238b8651612a8d565b9450612397858c612ba8565b60208701526123ae858760015b6020020151612de4565b60408701526123bf858760026123a4565b60608701526123d0858760036123a4565b60808701526123e1858760046123a4565b60a08701526123f2858760056123a4565b60c0870152612403858760066123a4565b60e087015260208601516040015184528880151561241d57fe5b84516040880151604001510960208501528880151561243857fe5b60208501516060880151604001510960408501528880151561245657fe5b60408501516080880151604001510960608501528880151561247457fe5b606085015160a0880151604001510960808501528880151561249257fe5b608085015160c0880151604001510960a0850152888015156124b057fe5b60a085015160e0880151604001510960c085019081526124d190518a6129af565b60e0850190815251610100850152888015156124e957fe5b61010085015160a0860151096101e0850152600692505b6002831061257d578880151561251257fe5b61010085015187600186016008811061252757fe5b602002015160400151096101008501528880151561254157fe5b6101008501518560011986016010811061255757fe5b60200201510984600885016010811061256c57fe5b602002015260001990920191612500565b8880151561258757fe5b61010085015160408801516040015109610120850152600092505b600783101561261a5761260f8660018501600881106125bd57fe5b60200201518560098601601081106125d157fe5b60200201518b8015156125e057fe5b8760098801601081106125ef57fe5b602002015188600989016010811061260357fe5b6020020151098c61303d565b6001909201916125a2565b60008711156126f057600019808801978901015160001a915061263c8a61306c565b601082111561269757506002601f829003046126928a604080519081016040528089856008811061266957fe5b602002015151815260200189856008811061268057fe5b6020020151602001518d03905261317d565b6126eb565b60008211156126eb575060026000198201046126eb8a60408051908101604052808985600881106126c457fe5b60200201515181526020018985600881106126db57fe5b602002015160200151905261317d565b61261a565b50505050505050505092915050565b6000806127106040850151846129af565b91508280151561271c57fe5b82830990508280151561272b57fe5b8185510984528280151561273b57fe5b8380151561274557fe5b8284098560015b60200201510960208501525050600160409092019190915250565b70014551231950b75fc4402da1732fc9bebe19607b82010660028281548110151561278e57fe5b60009182526020909120015550565b8060038111156127a957fe5b60086000846040518082604080838360005b838110156127d35780820151838201526020016127bb565b5050505090500191505060405190819003902081526020810191909152604001600020555050565b600082607b1480156128135750816020015115156001145b9392505050565b600160a060020a03811660009081526007602052604081205460018054919291829182918590811061284857fe5b600091825260208083206005909202909101805493151560a060020a0274ff00000000000000000000000000000000000000001990941693909317909255600160a060020a0386168152600c909152604090205491508190505b600b5460011901811161295c57600b8054600183019081106128c057fe5b600091825260209091200154600b8054600160a060020a0390921691839081106128e657fe5b906000526020600020900160006101000a815481600160a060020a030219169083600160a060020a03160217905550600c6000600b8381548110151561292857fe5b6000918252602080832090910154600160a060020a03168352820192909252604001902080546000190190556001016128a2565b600b80549061296f906000198301613401565b50505050600160a060020a03166000908152600c6020526040812055565b60008083600381111561299c57fe5b141580156128135750506101c814919050565b6000808080808087158015906129c55750868814155b80156129d057508615155b15156129db57600080fd5b868811156129f25786888115156129ee57fe5b0697505b600193508692508791505b8115612a28578183811515612a0e57fe5b9495940485810290940393919283830290039190506129fd565b6000851215612a3e578460000387039550612a42565b8495505b505050505092915050565b600160005b6004548211610ce2576001805483908110612a6957fe5b60009182526020909120600160059092020181018054820181559201919050612a52565b612a9561344b565b6401000003d0196000808080808060408901511515612ab357612b9c565b885195506020890151945086801515612ac857fe5b858609935086801515612ad757fe5b87801515612ae157fe5b858809600409925086801515612af357fe5b87801515612afd57fe5b878809600309915086801515612b0f57fe5b87801515612b1957fe5b848508880388801515612b2857fe5b84850908808952905086801515612b3b57fe5b87801515612b4557fe5b88801515612b4f57fe5b868709600809880388801515612b6157fe5b89801515612b6b57fe5b848b038708850908602089015286801515612b8257fe5b87801515612b8c57fe5b60408b0151870960020960408901525b50505050505050919050565b612bb061344b565b6000612bba613425565b612bc261357c565b60008080808060408b01511515612bff576060604051908101604052808b5181526020018b60016020020151815260200160018152509850612dd6565b60208a01511515612c12578a9850612dd6565b6401000003d01997508760408c015160408d015109875287801515612c3357fe5b875160408d01510960208801526080604051908101604052808c5181526020018c60016020020151815260200189801515612c6a57fe5b89518d5109815260200189801515612c7e57fe5b60208a015160208e01510990529550604086015186511415612cce576060860151602087015114612cbf576000808c5260208c0181905260408c0152612dd6565b612cc88b612a8d565b50612dd6565b87801515612cd857fe5b86518903604088015108945087801515612cee57fe5b60208701518903606088015108935087801515612d0757fe5b858609925087801515612d1657fe5b858409915087801515612d2557fe5b82890389801515612d3257fe5b86870908905087801515612d4257fe5b88801515612d4c57fe5b89801515612d5657fe5b8589510960020989038208808a52905087801515612d7057fe5b88801515612d7a57fe5b828a038a801515612d8757fe5b868a510908850960208a015287801515612d9d57fe5b88801515612da757fe5b83602089015109890360208b01510860208a015287801515612dc557fe5b60408c015186098960025b60200201525b505050505050505092915050565b612dec61344b565b6000612df661357c565b612dfe61357c565b60008080808060408b01511515612e1757899850612dd6565b60408a01511515612e2a578a9850612dd6565b6401000003d01997508760408c015160408d015109875287801515612e4b57fe5b875160408d015109602088015287801515612e6257fe5b60408b015160408c015109604088015287801515612e7c57fe5b604088015160408c015109606088015260806040519081016040528089801515612ea257fe5b60408a01518e5109815260200189801515612eb957fe5b60608a015160208f015109815260200189801515612ed357fe5b89518d5109815260200189801515612ee757fe5b60208a015160208e01510990529550604086015186511415612f27576060860151602087015114612f1757612dd6565b612f208b612a8d565b9850612dd6565b87801515612f3157fe5b86518903604088015108945087801515612f4757fe5b60208701518903606088015108935087801515612f6057fe5b858609925087801515612f6f57fe5b858409915087801515612f7e57fe5b82890389801515612f8b57fe5b86870908905087801515612f9b57fe5b88801515612fa557fe5b89801515612faf57fe5b8589510960020989038208808a52905087801515612fc957fe5b88801515612fd357fe5b828a038a801515612fe057fe5b868a510908850960208a015287801515612ff657fe5b8880151561300057fe5b83602089015109890360208b01510860208a01528780151561301e57fe5b8880151561302857fe5b60408c015160408e0151098609896002612dd0565b8080151561304757fe5b8285510984528080151561305757fe5b8180151561306157fe5b83850985600161274c565b6401000003d019600080808080806040880151151561308a57613173565b87519550602088015194508680151561309f57fe5b8586099350868015156130ae57fe5b878015156130b857fe5b8588096004099250868015156130ca57fe5b878015156130d457fe5b8788096003099150868015156130e657fe5b878015156130f057fe5b8485088803888015156130ff57fe5b8485090880895290508680151561311257fe5b8780151561311c57fe5b8880151561312657fe5b86870960080988038880151561313857fe5b8980151561314257fe5b848b03870885090860208901528680151561315957fe5b8780151561316357fe5b60408a0151870960020960408901525b5050505050505050565b6000613187613425565b61318f61357c565b60008080808060208a015115156131be5788518a52602089015160208b015260018a60025b602002015261338b565b602089015115156131ce5761338b565b6401000003d01997508760408b015160408c0151098752878015156131ef57fe5b875160408c01510960208801526080604051908101604052808b5181526020018b6001602002015181526020018980151561322657fe5b89518c510981526020018980151561323a57fe5b60208a015160208d01510990529550604086015186511415613287576060860151602087015114613279576000808b5260208b018190528a60026131b4565b6132828a61306c565b61338b565b8780151561329157fe5b865189036040880151089450878015156132a757fe5b602087015189036060880151089350878015156132c057fe5b8586099250878015156132cf57fe5b8584099150878015156132de57fe5b828903898015156132eb57fe5b868709089050878015156132fb57fe5b8880151561330557fe5b8980151561330f57fe5b8589510960020989038208808b5290508780151561332957fe5b8880151561333357fe5b828a038a80151561334057fe5b868a510908850960208b01528780151561335657fe5b8880151561336057fe5b83602089015109890360208c01510860208b01528780151561337e57fe5b60408b0151860960408b01525b50505050505050505050565b815481835581811511611da757600502816005028360005260206000209182019101611da79190613596565b82600281019282156133f1579160200282015b828111156133f15782518255916020019190600101906133d6565b506133fd9291506135eb565b5090565b815481835581811511611da757600083815260209020611da79181019083016135eb565b604080519081016040526002815b60008152602001906001900390816134335790505090565b606060405190810160405260008152600260208201613433565b815481835581811511611da757600202816002028360005260206000209182019101611da79190613605565b60c060405190810160409081526000808352602083015281016134b2613425565b815260200160008152602001600081525090565b828054600181600116156101000203166002900490600052602060002090601f016020900481019282601f1061350757805160ff19168380011785556133f1565b828001600101855582156133f157918201828111156133f15782518255916020019190600101906133d6565b6103006040519081016040526008815b61354b61344b565b8152602001906001900390816135435790505090565b61020060405190810160405260008152600f60208201613433565b608060405190810160405260008152600360208201613433565b611a9d91905b808211156133fd57805474ffffffffffffffffffffffffffffffffffffffffff1916815560006135cf6001830182613628565b5060038101805460ff191690556000600482015560050161359c565b611a9d91905b808211156133fd57600081556001016135f1565b611a9d91905b808211156133fd57600061361f8282613628565b5060020161360b565b5060008155600101600090555600a165627a7a72305820dc0166f43f3ad2fa9edb6f7724ec6554b56fd31923395d3b253fd475b49afcbb0029",
  "source": "pragma solidity ^0.4.7;\r\nimport \"./OrPoK.sol\";\r\n\r\ncontract SmartWerewolf {\r\n    //parameters using bitcoin's curve (fixed for every game)\r\n    uint constant p = 0xFFFFFFFFFFFFFFFFFFFFFFFFFFFFFFFFFFFFFFFFFFFFFFFFFFFFFFFEFFFFFC2F;\r\n    uint constant Gx =0x79BE667EF9DCBBAC55A06295CE870B07029BFCDB2DCE28D959F2815B16F81798;\r\n    uint constant Gy = 0x483ADA7726A3C4655DA4FBFC0E1108A8FD17B448A68554199C47D08FFB10D4B8;\r\n    uint public constant q = 0xFFFFFFFFFFFFFFFFFFFFFFFFFFFFFFFEBAAEDCE6AF48A03BBFD25E8CD0364141;\r\n    OrPoK processPoK; \r\n\r\n    //bullet broad (fixed during 1 game)\r\n    Player[] public players;\r\n    uint[] MPC;\r\n    uint[2][] public deck;\r\n    uint public n;\r\n    uint[2] G;\r\n    mapping (address => uint) public playerNumOf;\r\n    mapping(bytes32 => uint) public roleOf;\r\n    mapping(address => uint) public deposits;\r\n    \r\n    //up-to-date report (change in game)\r\n    mapping(uint => uint) public living;\r\n    address[] public livingPlayers;\r\n    mapping(address => uint) public theLivingNumOf;\r\n    string public winner;\r\n    \r\n    function SmartWerewolf(address addressPoK) public {\r\n        processPoK = OrPoK(addressPoK);\r\n        G[0] = Gx;\r\n        G[1] = Gy;\r\n    }\r\n\r\n    //1. \r\n    function engagement(address[] _players) public {\r\n        require(_players.length >= 6);\r\n        n = _players.length;\r\n        players.length = 1+ n;\r\n        uint i;\r\n        for (i = 1; i <= n; i++) {\r\n            players[i] = Player\r\n            (\r\n                {\r\n                    name: _players[ i-1 ],  \r\n                    live: true, \r\n                    hand: [uint(0),0], \r\n                    role: RoleTypes.Unseen,\r\n                    pokerKey: 0\r\n                }\r\n           ); \r\n        playerNumOf[players[i].name] = i;\r\n        }\r\n        \r\n        living[uint(RoleTypes.Werewolf)]=2;\r\n        living[uint(RoleTypes.Seer)]=1;\r\n        living[uint(RoleTypes.Villager)]=n-3;\r\n\r\n        livingPlayers.length=n+1;\r\n        for(i=1;i<=n;i++){\r\n            livingPlayers[i]=players[i].name;\r\n            theLivingNumOf[players[i].name]=i;\r\n        }\r\n    }\r\n\r\n    function depositGame(address player) external payable {\r\n        deposits[ player ] = msg.value;\r\n    }\r\n\r\n    /*function offChainEngage(address[] inPlayers) \r\n        public \r\n        returns(\r\n            uint nOut,\r\n            Player[] outPlayers,\r\n            uint[4] outLiving,\r\n            address[] outLivingPlayers\r\n        )\r\n    {\r\n        require(inPlayers.length >= 6);\r\n        uint i;\r\n        for(i = 0; i<inPlayers.length; i++){\r\n            address p = inPlayers[i];\r\n            require(deposits[p]>=100);\r\n        }\r\n\r\n        n = inPlayers.length;\r\n        nOut = n; \r\n\r\n        players.length = 1+n;\r\n        outPlayers = new Player[](1+nOut);\r\n\r\n        for (i = 1; i <= n; i++) {\r\n            players[i] = Player\r\n            (\r\n                {\r\n                    name: inPlayers[ i-1 ],  \r\n                    live: true, \r\n                    hand: [uint(0),0], \r\n                    role: RoleTypes.Unseen,\r\n                    pokerKey: 0\r\n                }\r\n            );\r\n            outPlayers[i] = Player(players[i].name, players[i].live, [uint((players[i].hand)[0]),(players[i].hand)[1]], players[i].role, players[i].pokerKey);\r\n        \r\n        }\r\n        \r\n        outLiving[uint(RoleTypes.Werewolf)]=2;\r\n        outLiving[uint(RoleTypes.Seer)]=1;\r\n        outLiving[uint(RoleTypes.Villager)]=nOut-3;\r\n\r\n        outLivingPlayers = new address[](nOut+1);\r\n        for(i=1;i<=nOut;i++){\r\n            outLivingPlayers[i]=players[i].name;\r\n            //theLivingNumOf[players[i].name]=i;//how to output map?\r\n        }\r\n    }\r\n    \r\n    function setPlayerIndex() public {\r\n        uint i;\r\n        for(i=1; i<=n; i++)\r\n        playerNumOf[players[i].name] = i;//how to output map?\r\n\r\n    }\r\n    */\r\n    function engagePlayer(address inPlayer) \r\n        public \r\n    {\r\n        require(deposits[inPlayer]>=100);\r\n        if(players.length == 0)\r\n            players.length=1;\r\n        players.push(Player({name: inPlayer, live: true, hand: [uint(0),0], role: RoleTypes.Unseen, pokerKey: 0}));\r\n        playerNumOf[inPlayer] = players.length - 1;\r\n        uint i = playerNumOf[inPlayer];\r\n\r\n        emit JoinPlayer(\r\n            i, \r\n            players[i].name, \r\n            players[i].live, \r\n            [uint((players[i].hand)[0]),(players[i].hand)[1]], \r\n            players[i].role, \r\n            players[i].pokerKey,\r\n            i,\r\n            players[i].name\r\n        );\r\n    }\r\n\r\n    //2-1 \r\n    //(a)    \r\n    function createCards() public {   \r\n        MPC.length = deck.length = 1+n;\r\n        for(uint i=0; i <= n; i++ ){\r\n            prepareDeck(i);\r\n        }\r\n        for(i=0; i<=n; i++){\r\n            (deck[i][0], deck[i][1]) = multiply(MPC[i], G);\r\n        }\r\n        generateMap(deck[0], RoleTypes.Unseen);\r\n        generateMap(deck[1], RoleTypes.Werewolf);\r\n        generateMap(deck[2], RoleTypes.Werewolf);\r\n        generateMap(deck[3], RoleTypes.Seer);\r\n        for (uint j = 4; j <= n; j++) {\r\n            generateMap(deck[j], RoleTypes.Villager);\r\n        }\r\n    }\r\n    function shuffleCardBy(uint i, uint pokerKey) external{\r\n        //encrypt each card\r\n        uint printBack = pokerKey; \r\n        for(uint k=0; k<=n; k++){\r\n            (deck[k][0], deck[k][1]) = multiply(printBack, deck[k]);\r\n        }\r\n        //any shuffle\r\n        /*uint[2] memory tmp;\r\n        uint j = ((i+3)-1) % n + 1;\r\n        (tmp[0], tmp[1]) = (deck[j][0], deck[j][1]);\r\n        (deck[j][0], deck[j][1]) = (deck[i][0], deck[i][1]);\r\n        (deck[i][0], deck[i][1]) = (tmp[0], tmp[1]);*/\r\n    }\r\n    //TODO:(b)  \r\n    function shuffleCards() public {\r\n        uint printBack = 0x7717; \r\n        for(uint i=0; i<=n; i++){\r\n            (deck[i][0], deck[i][1]) = multiply(printBack, deck[i]);\r\n        }\r\n        uint[2] memory tmp;\r\n        (tmp[0], tmp[1]) = (deck[2][0], deck[2][1]);\r\n        (deck[2][0], deck[2][1]) = (deck[5][0], deck[5][1]);\r\n        (deck[5][0], deck[5][1]) = (tmp[0], tmp[1]);\r\n    } \r\n\r\n    //TODO: 2-2.  \r\n    function dealCards() public {\r\n        for(uint i=1; i<=n; i++){\r\n            (players[i].hand[0], players[i].hand[1])  \r\n            = (deck[i][0], deck[i][1]);\r\n        }\r\n        helpDecryptRole();\r\n    }\r\n\r\n    function dealCardTo(uint i) external view returns(uint[2] hand){\r\n        (hand[0],hand[1])=(deck[i][0], deck[i][1]);\r\n    }\r\n\r\n    function nightKill(address victimName, uint proofCanKill) public {\r\n        uint v = playerNumOf[victimName];\r\n        Player memory victim = players[v];\r\n        require (verify(proofCanKill, victim)==true);\r\n        killed(victimName);\r\n    }\r\n    \r\n    function dayVoting(address name) public {\r\n        \r\n        killed(name);\r\n\r\n    }\r\n\r\n    function openRole(RoleTypes _role, uint _pokerKey) public {\r\n        require(verifyRole(_role, _pokerKey)==true);\r\n        uint i = playerNumOf[msg.sender];\r\n        players[i].role = _role;\r\n        players[i].pokerKey=_pokerKey;\r\n        \r\n        living[uint(_role)]--;\r\n\r\n        if(living[uint(RoleTypes.Werewolf)]==living[uint(RoleTypes.Seer)]+living[uint(RoleTypes.Villager)]){\r\n            winner = \"Werewolves\";\r\n        }\r\n        else if(living[uint(RoleTypes.Werewolf)]==0){\r\n            winner = \"Humans\";\r\n        }\r\n    }\r\n\r\n    function roleOf(uint[2] card) public view returns(uint) {return roleOf[keccak256(card)];}\r\n    function cardOrder() public pure returns(uint) {return q;}\r\n    function getHandOf(address name) public view returns(uint[2] hand){\r\n        uint i = playerNumOf[name];\r\n        (hand[0] ,hand[1]) = ((players[i].hand)[0], (players[i].hand)[1]);\r\n    }\r\n\r\n    function numSurvive() public view returns(uint) {return livingPlayers.length-1;}\r\n\r\n    function werewolfFrameKilling(uint[2] framedHand, uint[2] _werewolfCard,  uint victim) public view returns(uint[2] __werewolfCard, uint[2] _framedHand, uint _victim, uint[3] T, uint c, uint s){\r\n        return processPoK.forgeProof(_werewolfCard, framedHand, victim);\r\n    }\r\n\r\n    function werewolfCard() external view returns(uint cardX,uint cardY){\r\n        (cardX, cardY) = (deck[1][0], deck[1][1]);\r\n    }\r\n    \r\n    function werewolfChooset(uint pokerKey, uint[2][] hands, uint[2] _werewolfCard, uint victim ) external view returns(uint realt){\r\n\r\n        return processPoK.computeRealt(_werewolfCard, hands, pokerKey, victim);\r\n    }\r\n\r\n    function werewolfComputeT(uint realt, uint[2] _werewolfCard) public view returns(uint[3] realT){\r\n        return processPoK.computeTFrom(realt, _werewolfCard);\r\n    }\r\n\r\n    function computeChallenge(uint[2] _werewolfCard, uint[2][] _hands, uint victim, uint[3][] Ts) public view returns(uint realChallenge){\r\n        return processPoK.computeChallenge(_werewolfCard, _hands, victim, Ts);\r\n    }\r\n\r\n    function werewolfProve(uint pokerKey, uint[2] _werewolfCard, uint[2] hand, uint victim, uint tReady,uint cReady) public view returns(uint[2] __werewolfCard, uint[2] _hand, uint _victim, uint[3] T, uint c, uint s){\r\n        return processPoK.createSchnorr(pokerKey, _werewolfCard, hand, victim, tReady, cReady);\r\n    }\r\n\r\n    function verifyWerewolfProof(uint[2] _werewolfCard, uint[2] hand,  uint[3] T, uint c, uint s) public view returns (bool result){\r\n        return processPoK.verifySchnorr(_werewolfCard, hand, T, c, s);\r\n    }\r\n\r\n    function prepareDeck(uint i) internal {\r\n        \r\n        MPC[ i ] = (i+123) % q;\r\n        //avoid use 0. function toZ1 revert at point at infinity\r\n    \r\n    }\r\n    \r\n    function helpDecryptRole() internal {\r\n        for(uint i=1; i<=n; i++){\r\n        \tuint[2] storage hand = players[i].hand;\r\n        \thand[0] ++;\r\n        } \r\n    }\r\n\r\n    function helpDecryptRole(uint me, uint pokerKey, uint i, uint[2] cipherCard) external view returns (uint[2] decryptCard){\r\n        if(me == i){\r\n            (decryptCard[0], decryptCard[1]) = (cipherCard[0], cipherCard[1]);\r\n        }else{\r\n            uint keyInverse = ECCMath_noconflict.invmod(pokerKey, q);\r\n            (decryptCard[0],decryptCard[1]) = multiply(keyInverse, cipherCard);\r\n        }\r\n       \r\n    }\r\n\r\n    function killed(address player) internal{\r\n        uint i = playerNumOf[player];\r\n        players[i].live=false;\r\n        uint j= theLivingNumOf[player];\r\n        \r\n        for(uint k=j; k<= livingPlayers.length-2 ; k++){\r\n            livingPlayers[k] = livingPlayers[k+1];\r\n            theLivingNumOf[livingPlayers[k]]--;\r\n        }\r\n        livingPlayers.length--;\r\n        theLivingNumOf[player]=0;\r\n    }\r\n\r\n\r\n    function multiply(uint s, uint[2] point) public view returns(uint ,uint){\r\n        uint[3] memory result = Secp256k1_noconflict._mul(s, point);\r\n        ECCMath_noconflict.toZ1(result, p);\r\n        return (result[0],result[1]);\r\n    }\r\n\r\n    function generateMap(uint[2] card, RoleTypes role) internal {\r\n        \r\n        roleOf[keccak256(card)] = uint(role);\r\n    \r\n    }\r\n\r\n    function verifyRole(RoleTypes _role, uint _pokerKey) pure internal returns(bool){\r\n        \r\n        return (_role!=RoleTypes.Unseen && _pokerKey==456);\r\n    \r\n    }\r\n    \r\n    function verify(uint proofCanKill, Player victim) pure internal returns(bool){\r\n        \r\n        return proofCanKill == 123 && victim.live == true;\r\n    }\r\n    \r\n    enum RoleTypes{Unseen, Werewolf, Seer, Villager}\r\n    \r\n    struct Player{\r\n        address name;\r\n        bool live;\r\n        uint[2] hand;\r\n        RoleTypes role;\r\n        uint pokerKey;\r\n    }\r\n\r\n   struct KillConditions{\r\n        uint iAmWerewolf;\r\n        uint iAmLive;\r\n        uint victimLive;\r\n    }\r\n   \r\n    event debug(uint i);\r\n    event JoinPlayer(\r\n        uint outPlayerNum,\r\n        address outPlayerName,\r\n        bool outPlayerLive,\r\n        uint[2] outPlayerHand,\r\n        RoleTypes outPlayerRole,\r\n        uint outPlayerKey,\r\n        uint outLivingNum,\r\n        address outLivingPlayer\r\n    );\r\n}",
  "sourcePath": "C:\\Users\\eason\\Documents\\GitHub\\SmartWerewolf\\contracts\\SmartWerewolf.sol",
  "compiler": {
    "name": "solc",
    "version": "0.4.21+commit.dfe3193c.Emscripten.clang"
  },
  "schemaVersion": "2.0.0",
  "updatedAt": "2018-05-07T22:17:08.640Z"
}