{
  "contractName": "SmartWerewolf",
  "abi": [
    {
      "constant": true,
      "inputs": [],
      "name": "n",
      "outputs": [
        {
          "name": "",
          "type": "uint256"
        }
      ],
      "payable": false,
      "stateMutability": "view",
      "type": "function"
    },
    {
      "constant": true,
      "inputs": [
        {
          "name": "",
          "type": "address"
        }
      ],
      "name": "playerNumOf",
      "outputs": [
        {
          "name": "",
          "type": "uint256"
        }
      ],
      "payable": false,
      "stateMutability": "view",
      "type": "function"
    },
    {
      "constant": true,
      "inputs": [
        {
          "name": "",
          "type": "address"
        }
      ],
      "name": "theLivingNumOf",
      "outputs": [
        {
          "name": "",
          "type": "uint256"
        }
      ],
      "payable": false,
      "stateMutability": "view",
      "type": "function"
    },
    {
      "constant": true,
      "inputs": [
        {
          "name": "",
          "type": "uint256"
        }
      ],
      "name": "deck",
      "outputs": [
        {
          "name": "",
          "type": "uint256"
        }
      ],
      "payable": false,
      "stateMutability": "view",
      "type": "function"
    },
    {
      "constant": true,
      "inputs": [
        {
          "name": "",
          "type": "uint256"
        }
      ],
      "name": "roleOf",
      "outputs": [
        {
          "name": "",
          "type": "uint256"
        }
      ],
      "payable": false,
      "stateMutability": "view",
      "type": "function"
    },
    {
      "constant": true,
      "inputs": [
        {
          "name": "",
          "type": "uint256"
        }
      ],
      "name": "livingPlayers",
      "outputs": [
        {
          "name": "",
          "type": "address"
        }
      ],
      "payable": false,
      "stateMutability": "view",
      "type": "function"
    },
    {
      "constant": true,
      "inputs": [],
      "name": "winner",
      "outputs": [
        {
          "name": "",
          "type": "string"
        }
      ],
      "payable": false,
      "stateMutability": "view",
      "type": "function"
    },
    {
      "constant": true,
      "inputs": [
        {
          "name": "",
          "type": "uint256"
        }
      ],
      "name": "living",
      "outputs": [
        {
          "name": "",
          "type": "uint256"
        }
      ],
      "payable": false,
      "stateMutability": "view",
      "type": "function"
    },
    {
      "constant": true,
      "inputs": [
        {
          "name": "",
          "type": "uint256"
        }
      ],
      "name": "players",
      "outputs": [
        {
          "name": "name",
          "type": "address"
        },
        {
          "name": "live",
          "type": "bool"
        },
        {
          "name": "hand",
          "type": "uint256"
        },
        {
          "name": "role",
          "type": "uint8"
        },
        {
          "name": "pokerKey",
          "type": "uint256"
        }
      ],
      "payable": false,
      "stateMutability": "view",
      "type": "function"
    },
    {
      "anonymous": false,
      "inputs": [
        {
          "indexed": false,
          "name": "numPlayers",
          "type": "uint256"
        }
      ],
      "name": "PlayerReady",
      "type": "event"
    },
    {
      "anonymous": false,
      "inputs": [
        {
          "indexed": false,
          "name": "livingHand",
          "type": "uint256[]"
        }
      ],
      "name": "ShowHand",
      "type": "event"
    },
    {
      "constant": false,
      "inputs": [
        {
          "name": "_players",
          "type": "address[]"
        }
      ],
      "name": "engagement",
      "outputs": [],
      "payable": false,
      "stateMutability": "nonpayable",
      "type": "function"
    },
    {
      "constant": false,
      "inputs": [],
      "name": "createCards",
      "outputs": [],
      "payable": false,
      "stateMutability": "nonpayable",
      "type": "function"
    },
    {
      "constant": false,
      "inputs": [],
      "name": "shuffleCards",
      "outputs": [],
      "payable": false,
      "stateMutability": "nonpayable",
      "type": "function"
    },
    {
      "constant": false,
      "inputs": [],
      "name": "dealCards",
      "outputs": [],
      "payable": false,
      "stateMutability": "nonpayable",
      "type": "function"
    },
    {
      "constant": false,
      "inputs": [
        {
          "name": "victimName",
          "type": "address"
        },
        {
          "name": "proofCanKill",
          "type": "uint256"
        }
      ],
      "name": "nightKill",
      "outputs": [],
      "payable": false,
      "stateMutability": "nonpayable",
      "type": "function"
    },
    {
      "constant": false,
      "inputs": [
        {
          "name": "name",
          "type": "address"
        }
      ],
      "name": "dayVoting",
      "outputs": [],
      "payable": false,
      "stateMutability": "nonpayable",
      "type": "function"
    },
    {
      "constant": false,
      "inputs": [
        {
          "name": "_role",
          "type": "uint8"
        },
        {
          "name": "_pokerKey",
          "type": "uint256"
        }
      ],
      "name": "openRole",
      "outputs": [],
      "payable": false,
      "stateMutability": "nonpayable",
      "type": "function"
    },
    {
      "constant": true,
      "inputs": [
        {
          "name": "secret",
          "type": "uint256"
        },
        {
          "name": "message",
          "type": "uint256"
        }
      ],
      "name": "createProof",
      "outputs": [
        {
          "name": "out_pubkey",
          "type": "uint256[2]"
        },
        {
          "name": "out_s",
          "type": "uint256"
        },
        {
          "name": "out_e",
          "type": "uint256"
        }
      ],
      "payable": false,
      "stateMutability": "view",
      "type": "function"
    },
    {
      "constant": true,
      "inputs": [
        {
          "name": "pubkey",
          "type": "uint256[2]"
        },
        {
          "name": "message",
          "type": "uint256"
        },
        {
          "name": "s",
          "type": "uint256"
        },
        {
          "name": "e",
          "type": "uint256"
        }
      ],
      "name": "verifyProof",
      "outputs": [
        {
          "name": "",
          "type": "bool"
        }
      ],
      "payable": false,
      "stateMutability": "view",
      "type": "function"
    },
    {
      "constant": true,
      "inputs": [],
      "name": "numSurvive",
      "outputs": [
        {
          "name": "",
          "type": "uint256"
        }
      ],
      "payable": false,
      "stateMutability": "view",
      "type": "function"
    }
  ],
  "bytecode": "0x6060604052600d600455610123600555341561001a57600080fd5b611e93806100296000396000f300606060405260043610610107576000357c0100000000000000000000000000000000000000000000000000000000900463ffffffff168063076d96801461010c5780632e52d606146101665780634ef3ea741461018f57806354054cd5146101dc57806358801f17146102295780635c56e5081461023e57806362d1ae9b1461025357806365b1dafa146102c957806372b1d8cf146103005780639a01967814610337578063a4f195aa14610379578063acb2c01a146103a8578063d647cb9a146103d1578063d6ffa29a1461044a578063d9e0bf4e1461045f578063dfbf53ae146104c2578063eb28808114610550578063f6ac71cd14610587578063f71d96cb146105c0575b600080fd5b341561011757600080fd5b610164600480803590602001908201803590602001908080602002602001604051908101604052809392919081815260200183836020028082843782019150505050505091905050610651565b005b341561017157600080fd5b610179610a48565b6040518082815260200191505060405180910390f35b341561019a57600080fd5b6101c6600480803573ffffffffffffffffffffffffffffffffffffffff16906020019091905050610a4e565b6040518082815260200191505060405180910390f35b34156101e757600080fd5b610213600480803573ffffffffffffffffffffffffffffffffffffffff16906020019091905050610a66565b6040518082815260200191505060405180910390f35b341561023457600080fd5b61023c610a7e565b005b341561024957600080fd5b610251610b5c565b005b341561025e57600080fd5b61027d6004808035906020019091908035906020019091905050610e36565b6040518084600260200280838360005b838110156102a857808201518184015260208101905061028d565b50505050905001838152602001828152602001935050505060405180910390f35b34156102d457600080fd5b6102ea6004808035906020019091905050610e58565b6040518082815260200191505060405180910390f35b341561030b57600080fd5b6103216004808035906020019091905050610e7c565b6040518082815260200191505060405180910390f35b341561034257600080fd5b610377600480803573ffffffffffffffffffffffffffffffffffffffff16906020019091908035906020019091905050610e94565b005b341561038457600080fd5b6103a6600480803560ff16906020019091908035906020019091905050610fe8565b005b34156103b357600080fd5b6103bb61120f565b6040518082815260200191505060405180910390f35b34156103dc57600080fd5b6104306004808060400190600280602002604051908101604052809291908260026020028082843782019150505050509190803590602001909190803590602001909190803590602001909190505061121f565b604051808215151515815260200191505060405180910390f35b341561045557600080fd5b61045d611237565b005b341561046a57600080fd5b61048060048080359060200190919050506112a0565b604051808273ffffffffffffffffffffffffffffffffffffffff1673ffffffffffffffffffffffffffffffffffffffff16815260200191505060405180910390f35b34156104cd57600080fd5b6104d56112df565b6040518080602001828103825283818151815260200191508051906020019080838360005b838110156105155780820151818401526020810190506104fa565b50505050905090810190601f1680156105425780820380516001836020036101000a031916815260200191505b509250505060405180910390f35b341561055b57600080fd5b610571600480803590602001909190505061137d565b6040518082815260200191505060405180910390f35b341561059257600080fd5b6105be600480803573ffffffffffffffffffffffffffffffffffffffff16906020019091905050611395565b005b34156105cb57600080fd5b6105e160048080359060200190919050506113a1565b604051808673ffffffffffffffffffffffffffffffffffffffff1673ffffffffffffffffffffffffffffffffffffffff1681526020018515151515815260200184815260200183600381111561063357fe5b60ff1681526020018281526020019550505050505060405180910390f35b6000600682511015151561066457600080fd5b815160038190555060035460010160008161067f9190611bd6565b50600190505b6003548111151561084d5760a06040519081016040528083600184038151811015156106ad57fe5b9060200190602002015173ffffffffffffffffffffffffffffffffffffffff16815260200160011515815260200160008152602001600060038111156106ef57fe5b8152602001600081525060008281548110151561070857fe5b906000526020600020906004020160008201518160000160006101000a81548173ffffffffffffffffffffffffffffffffffffffff021916908373ffffffffffffffffffffffffffffffffffffffff16021790555060208201518160000160146101000a81548160ff0219169083151502179055506040820151816001015560608201518160020160006101000a81548160ff021916908360038111156107ab57fe5b021790555060808201518160030155905050806006600080848154811015156107d057fe5b906000526020600020906004020160000160009054906101000a900473ffffffffffffffffffffffffffffffffffffffff1673ffffffffffffffffffffffffffffffffffffffff1673ffffffffffffffffffffffffffffffffffffffff168152602001908152602001600020819055508080600101915050610685565b6002600860006001600381111561086057fe5b8152602001908152602001600020819055506001600860006002600381111561088557fe5b8152602001908152602001600020819055506003805403600860006003808111156108ac57fe5b8152602001908152602001600020819055506001600354016009816108d19190611c08565b50600190505b60035481111515610a0b576000818154811015156108f157fe5b906000526020600020906004020160000160009054906101000a900473ffffffffffffffffffffffffffffffffffffffff1660098281548110151561093257fe5b906000526020600020900160006101000a81548173ffffffffffffffffffffffffffffffffffffffff021916908373ffffffffffffffffffffffffffffffffffffffff16021790555080600a6000808481548110151561098e57fe5b906000526020600020906004020160000160009054906101000a900473ffffffffffffffffffffffffffffffffffffffff1673ffffffffffffffffffffffffffffffffffffffff1673ffffffffffffffffffffffffffffffffffffffff1681526020019081526020016000208190555080806001019150506108d7565b7f0475fa33e711a0d11030b454020a5f7c806520bdc5d7a1fcb9accde610a00f246003546040518082815260200191505060405180910390a15050565b60035481565b60066020528060005260406000206000915090505481565b600a6020528060005260406000206000915090505481565b60008060006107779250600091505b60035482111515610ae05782600283815481101515610aa857fe5b9060005260206000209001540a600283815481101515610ac457fe5b9060005260206000209001819055508180600101925050610a8d565b600280815481101515610aef57fe5b906000526020600020900154905060026005815481101515610b0d57fe5b906000526020600020900154600280815481101515610b2857fe5b9060005260206000209001819055508060026005815481101515610b4857fe5b906000526020600020900181905550505050565b600080600354600101600281610b729190611c34565b600181610b7f9190611c34565b50600091505b60035482111515610ba657610b9982611420565b8180600101925050610b85565b60016000815481101515610bb657fe5b9060005260206000209001546005540a60026000815481101515610bd657fe5b90600052602060002090018190555060006003811115610bf257fe5b6007600060026000815481101515610c0657fe5b906000526020600020900154815260200190815260200160002081905550600180815481101515610c3357fe5b9060005260206000209001546005540a60026001815481101515610c5357fe5b90600052602060002090018190555060016003811115610c6f57fe5b6007600060026001815481101515610c8357fe5b90600052602060002090015481526020019081526020016000208190555060016002815481101515610cb157fe5b9060005260206000209001546005540a600280815481101515610cd057fe5b90600052602060002090018190555060016003811115610cec57fe5b60076000600280815481101515610cff57fe5b90600052602060002090015481526020019081526020016000208190555060016003815481101515610d2d57fe5b9060005260206000209001546005540a60026003815481101515610d4d57fe5b90600052602060002090018190555060026003811115610d6957fe5b6007600060026003815481101515610d7d57fe5b906000526020600020900154815260200190815260200160002081905550600490505b60035481111515610e3257600181815481101515610dba57fe5b9060005260206000209001546005540a600282815481101515610dd957fe5b906000526020600020900181905550600380811115610df457fe5b60076000600284815481101515610e0757fe5b9060005260206000209001548152602001908152602001600020819055508080600101915050610da0565b5050565b610e3e611c60565b600080610e4b8585611442565b9250925092509250925092565b600281815481101515610e6757fe5b90600052602060002090016000915090505481565b60076020528060005260406000206000915090505481565b6000610e9e611c87565b600660008573ffffffffffffffffffffffffffffffffffffffff1673ffffffffffffffffffffffffffffffffffffffff168152602001908152602001600020549150600082815481101515610eef57fe5b906000526020600020906004020160a060405190810160405290816000820160009054906101000a900473ffffffffffffffffffffffffffffffffffffffff1673ffffffffffffffffffffffffffffffffffffffff1673ffffffffffffffffffffffffffffffffffffffff1681526020016000820160149054906101000a900460ff16151515158152602001600182015481526020016002820160009054906101000a900460ff166003811115610fa257fe5b6003811115610fad57fe5b8152602001600382015481525050905060011515610fcb848361159a565b1515141515610fd957600080fd5b610fe2846115bc565b50505050565b600060011515610ff88484611820565b151514151561100657600080fd5b600660003373ffffffffffffffffffffffffffffffffffffffff1673ffffffffffffffffffffffffffffffffffffffff1681526020019081526020016000205490508260008281548110151561105857fe5b906000526020600020906004020160020160006101000a81548160ff0219169083600381111561108457fe5b02179055508160008281548110151561109957fe5b906000526020600020906004020160030181905550600860008460038111156110be57fe5b81526020019081526020016000206000815480929190600190039190505550600860006003808111156110ed57fe5b815260200190815260200160002054600860006002600381111561110d57fe5b81526020019081526020016000205401600860006001600381111561112e57fe5b8152602001908152602001600020541415611194576040805190810160405280600a81526020017f57657265776f6c76657300000000000000000000000000000000000000000000815250600b908051906020019061118e929190611cda565b5061120a565b600060086000600160038111156111a757fe5b8152602001908152602001600020541415611209576040805190810160405280600681526020017f48756d616e730000000000000000000000000000000000000000000000000000815250600b9080519060200190611207929190611cda565b505b5b505050565b6000600160098054905003905090565b600061122d85858585611851565b9050949350505050565b6000600190505b600354811115156112955760028181548110151561125857fe5b90600052602060002090015460008281548110151561127357fe5b906000526020600020906004020160010181905550808060010191505061123e565b61129d61186b565b50565b6009818154811015156112af57fe5b90600052602060002090016000915054906101000a900473ffffffffffffffffffffffffffffffffffffffff1681565b600b8054600181600116156101000203166002900480601f0160208091040260200160405190810160405280929190818152602001828054600181600116156101000203166002900480156113755780601f1061134a57610100808354040283529160200191611375565b820191906000526020600020905b81548152906001019060200180831161135857829003601f168201915b505050505081565b60086020528060005260406000206000915090505481565b61139e816115bc565b50565b6000818154811015156113b057fe5b90600052602060002090600402016000915090508060000160009054906101000a900473ffffffffffffffffffffffffffffffffffffffff16908060000160149054906101000a900460ff16908060010154908060020160009054906101000a900460ff16908060030154905085565b8060018281548110151561143057fe5b90600052602060002090018190555050565b61144a611c60565b600080611455611d5a565b600061145f611d5a565b61148261146a6118bd565b6114726118e1565b8a81151561147c57fe5b06611909565b9250826000015186600060028110151561149857fe5b60200201818152505082602001518660016002811015156114b557fe5b6020020181815250506114c66118e1565b878960405180838152602001828152602001925050506040518091039020600190048115156114f157fe5b0691506115056114ff6118bd565b83611909565b905085600060028110151561151657fe5b602002015186600160028110151561152a57fe5b6020020151826000015183602001518a6040518086815260200185815260200184815260200183815260200182815260200195505050505050604051809103902060019004935061158e8261157d6118e1565b80151561158657fe5b868b096119a3565b94505050509250925092565b6000607b831480156115b457506001151582602001511515145b905092915050565b6000806000600660008573ffffffffffffffffffffffffffffffffffffffff1673ffffffffffffffffffffffffffffffffffffffff1681526020019081526020016000205492506000808481548110151561161357fe5b906000526020600020906004020160000160146101000a81548160ff021916908315150217905550600a60008573ffffffffffffffffffffffffffffffffffffffff1673ffffffffffffffffffffffffffffffffffffffff1681526020019081526020016000205491508190505b600260098054905003811115156117bf576009600182018154811015156116a457fe5b906000526020600020900160009054906101000a900473ffffffffffffffffffffffffffffffffffffffff166009828154811015156116df57fe5b906000526020600020900160006101000a81548173ffffffffffffffffffffffffffffffffffffffff021916908373ffffffffffffffffffffffffffffffffffffffff160217905550600a600060098381548110151561173b57fe5b906000526020600020900160009054906101000a900473ffffffffffffffffffffffffffffffffffffffff1673ffffffffffffffffffffffffffffffffffffffff1673ffffffffffffffffffffffffffffffffffffffff16815260200190815260200160002060008154809291906001900391905055508080600101915050611681565b60098054809190600190036117d49190611c08565b506000600a60008673ffffffffffffffffffffffffffffffffffffffff1673ffffffffffffffffffffffffffffffffffffffff1681526020019081526020016000208190555050505050565b600080600381111561182e57fe5b83600381111561183a57fe5b1415801561184957506101c882145b905092915050565b600061185f85858585611a15565b82149050949350505050565b6000600190505b600354811115156118ba5760008181548110151561188c57fe5b9060005260206000209060040201600101600081548092919060010191905055508080600101915050611872565b50565b6118c5611d5a565b6040805190810160405280600181526020016002815250905090565b60007f30644e72e131a029b85045b68181585d2833e84879b9709143e1f593f0000001905090565b611911611d5a565b611919611d74565b6000846000015182600060038110151561192f57fe5b602002018181525050846020015182600160038110151561194c57fe5b6020020181815250508382600260038110151561196557fe5b60200201818152505060608360808460076107d05a03fa9050806000811461198c5761198e565bfe5b5080151561199b57600080fd5b505092915050565b600080828411156119b6578390506119dc565b7f30644e72e131a029b85045b68181585d2833e84879b9709143e1f593f0000001840190505b7f30644e72e131a029b85045b68181585d2833e84879b9709143e1f593f0000001801515611a0657fe5b60008483030891505092915050565b6000611a1f611d5a565b611a27611d5a565b611a2f611d5a565b611a52611a3a6118bd565b611a426118e1565b88811515611a4c57fe5b06611909565b92506040805190810160405280896000600281101515611a6e57fe5b60200201518152602001896001600281101515611a8757fe5b60200201518152509150611aa483611a9f8488611909565b611b1b565b9050876000600281101515611ab557fe5b6020020151886001600281101515611ac957fe5b6020020151826000015183602001518a60405180868152602001858152602001848152602001838152602001828152602001955050505050506040518091039020600190049350505050949350505050565b611b23611d5a565b611b2b611d9c565b60008460000151826000600481101515611b4157fe5b6020020181815250508460200151826001600481101515611b5e57fe5b6020020181815250508360000151826002600481101515611b7b57fe5b6020020181815250508360200151826003600481101515611b9857fe5b60200201818152505060608360c08460066107d05a03fa90508060008114611bbf57611bc1565bfe5b50801515611bce57600080fd5b505092915050565b815481835581811511611c0357600402816004028360005260206000209182019101611c029190611dc4565b5b505050565b815481835581811511611c2f57818360005260206000209182019101611c2e9190611e42565b5b505050565b815481835581811511611c5b57818360005260206000209182019101611c5a9190611e42565b5b505050565b60408051908101604052806002905b6000815260200190600190039081611c6f5790505090565b60a060405190810160405280600073ffffffffffffffffffffffffffffffffffffffff1681526020016000151581526020016000815260200160006003811115611ccd57fe5b8152602001600081525090565b828054600181600116156101000203166002900490600052602060002090601f016020900481019282601f10611d1b57805160ff1916838001178555611d49565b82800160010185558215611d49579182015b82811115611d48578251825591602001919060010190611d2d565b5b509050611d569190611e42565b5090565b604080519081016040528060008152602001600081525090565b6060604051908101604052806003905b6000815260200190600190039081611d845790505090565b6080604051908101604052806004905b6000815260200190600190039081611dac5790505090565b611e3f91905b80821115611e3b57600080820160006101000a81549073ffffffffffffffffffffffffffffffffffffffff02191690556000820160146101000a81549060ff021916905560018201600090556002820160006101000a81549060ff0219169055600382016000905550600401611dca565b5090565b90565b611e6491905b80821115611e60576000816000905550600101611e48565b5090565b905600a165627a7a72305820cc363d557d9772446e7f1f6c5e5948408cc54b39476044390a521d796456f9330029",
  "source": "pragma solidity ^0.4.19;\r\n//pragma experimental ABIEncoderV2;\r\nimport \"./CDSProtocol.sol\";\r\ncontract SmartWerewolf {//沒有constructor\r\n    //bullet broad\r\n    Player[] public players;\r\n    uint[] MPC;\r\n    uint[] public deck;\r\n    uint public n;\r\n    uint p = 13;// TODO: mental poker用的group\r\n    uint G = 0x123;// TODO: generator\r\n    mapping (address => uint) public playerNumOf;\r\n    mapping(uint => uint) public roleOf;// 每個腳色的牌長哪樣, 固定的對照表\r\n    \r\n    //up-to-date report\r\n    mapping(uint => uint) public living;//up-to-date report of (# of each role type)\r\n    address[] public livingPlayers;\r\n    mapping(address => uint) public theLivingNumOf;\r\n    string public winner;\r\n    //副詞之後放 \r\n    //Time gameClock;\r\n    \r\n    /*1. 集合玩家*/\r\n    function engagement(address[] _players) public {//oracle幫玩家登錄\r\n    //internal | external , 一定要寫 , public 是 default\r\n        require(_players.length >= 6);//規則是至少6人(uninform majaroty v.s. informed minorty)\r\n        n = _players.length;\r\n        players.length = 1+ n;//常常注意array的長度\r\n        uint i;\r\n        for (i = 1; i <= n; i++) {\r\n            players[i] = Player\r\n            (\r\n                {\r\n                    name: _players[ i-1 ],  \r\n                    live: true, \r\n                    hand: 0, \r\n                    role: RoleTypes.Unseen,//記得加enum的type\r\n                    pokerKey: 0\r\n                }\r\n           ); \r\n        //從1開始編號\r\n        playerNumOf[players[i].name] = i;\r\n        /* 備用: players.push(_players[i]);\r\n        \r\n        live[ _players[i] ] = true;*/\r\n            //event之後再加 emit JoinGame(i+1, players[i+1].name);\r\n        }\r\n        \r\n        living[uint(RoleTypes.Werewolf)]=2;\r\n        living[uint(RoleTypes.Seer)]=1;\r\n        living[uint(RoleTypes.Villager)]=n-3;\r\n\r\n        livingPlayers.length=n+1;\r\n        for(i=1;i<=n;i++){\r\n            livingPlayers[i]=players[i].name;\r\n            theLivingNumOf[players[i].name]=i;\r\n        }\r\n        PlayerReady(n/*, _players*/);\r\n        //event之後再加 emit PlayerReady(n/*, _players*/);\r\n    }\r\n    \r\n    /*2-1 印製牌*/\r\n    /*(a) 印牌面*/   \r\n    function createCards() public {\r\n        MPC.length = deck.length = 1+n;\r\n        for(uint i=0; i <= n; i++ ){\r\n            prepareDeck(i);// TODO: need to be implemented\r\n        }\r\n        //以下這種寫法要小心deck長度不夠的情況(前面require有規定了玩家的數量)\r\n        deck[0] = G**MPC[ 0 ];\r\n        roleOf[deck[0]]=uint(RoleTypes.Unseen);//只是方便, 應該是本來的Ambitious card\r\n        \r\n        deck[1] = G**MPC[ 1 ];\r\n        roleOf[deck[1]]=uint(RoleTypes.Werewolf);\r\n        \r\n        deck[2] = G**MPC[ 2 ];\r\n        roleOf[deck[2]]=uint(RoleTypes.Werewolf);\r\n        \r\n        deck[3] = G**MPC[ 3 ];\r\n        roleOf[deck[3]]=uint(RoleTypes.Seer);\r\n        \r\n        for (uint j = 4; j <= n; j++) {\r\n            deck[ j ] = G**MPC[j];\r\n            roleOf[deck[j]]=uint(RoleTypes.Villager);\r\n        }\r\n        // TODO: 腳色應該獨立出來, 放在合約裡( mapping )。 modifier 檢查腳色是不是事先規定好的\r\n        //event之後再加 emit CardReady(2, 1, n-3);  \r\n        \r\n    }\r\n    \r\n    /* TODO:(b)洗牌、印製牌背 */   \r\n    function shuffleCards() public {// TODO: need to be implemented\r\n        uint printBack = 0x777; //用來代表所有人key的乘積\r\n        for(uint i=0; i<=n; i++){//模擬加密\r\n            deck[i] = deck[i]** printBack;\r\n        }\r\n\r\n        //模擬permutation\r\n        //\r\n        uint tmp = deck[2];//不是complex types的會在stack裡\r\n        deck[2] = deck[5];\r\n        deck[5] = tmp;\r\n        //event之後再加 emit CardShuffled();\r\n    } \r\n\r\n    /* TODO: 2-2. 發牌 */\r\n    //目前是照順序發\r\n    //TODO: need to be implemented\r\n    function dealCards() public {\r\n        for(uint i=1; i<=n; i++){\r\n            players[i].hand = deck[i];//可能有一邊有點多餘\r\n            /*TODO: 這種寫法牌會被看光, 改成\r\n            mapping(uint => CardTypes) roleOf;// 每個腳色的牌長哪樣, 固定的對照表\r\n            uint[] deck;// 牌現在的狀態, 可能是面朝上或朝下\r\n            function faceDown(uint[] storage deck){//passed by reference\r\n\r\n            }\r\n            function shuffle(uint[] storage deck){\r\n\r\n            }*/ \r\n        }\r\n        helpDecryptRole();//TODO: need to be implemented\r\n        \r\n        //event之後再加 emit GameReady();\r\n        //gameClock.phase=GameIs.Ready;\r\n        //itsNight();\r\n    }\r\n\r\n    function nightKill(address victimName, uint proofCanKill) public {\r\n        //理想: 殺人(不公布死者) -->(進入白天) 公開死者 --> 人死亡\r\n        //殺人、人死亡、公布死者\r\n        //簡化的版本\r\n        //完整的版本死者應該要先commit再open\r\n\r\n        //parity 無法換行\r\n        //werewolf丟給一個oracle, 由oracle發布交易?\r\n        uint v = playerNumOf[victimName];//mapping element can't move to memory???\r\n        Player memory victim = players[v];\r\n        require (verify(proofCanKill, victim)==true);//Contract( or moderator) verify proof automatically\r\n        //加入死亡的名單?\r\n        //event之後再加 emit NightEnd(\"Werewolves, close your eyes.\");\r\n        //itsDay(victimName);\r\n        killed(victimName);\r\n    }\r\n    \r\n    function dayVoting(address name) public {\r\n        killed(name);\r\n    }\r\n\r\n    function openRole(RoleTypes _role, uint _pokerKey) public {//活人不能公布身分(O)\r\n        //死人可以重複公開身分，需要額外的state來防止，不過沒差\r\n        //Card Opening by ZKP or 直接公布鑰匙(殺手遊戲似乎可以, 因為一人只有一張)\r\n        require(verifyRole(_role, _pokerKey)==true);//Contract( or moderator) verify automatically\r\n        uint i = playerNumOf[msg.sender];\r\n        players[i].role = _role;\r\n        players[i].pokerKey=_pokerKey;//公開自己的key會影響其他人的隱私嗎?\r\n        \r\n        living[uint(_role)]--;\r\n\r\n        if(living[uint(RoleTypes.Werewolf)]==living[uint(RoleTypes.Seer)]+living[uint(RoleTypes.Villager)]){\r\n            winner = \"Werewolves\";\r\n        }\r\n        else if(living[uint(RoleTypes.Werewolf)]==0){\r\n            winner = \"Humans\";\r\n        }\r\n        \r\n        /*\r\n        if(gameClock.phase==GameIs.CheckingDayDead){\r\n            gameClock.phase=GameIs.Day;\r\n            itsNight();\r\n        }\r\n        else if(gameClock.phase == GameIs.CheckingNightDead){\r\n            gameClock.phase=GameIs.Day;\r\n        }\r\n        */\r\n    }\r\n\r\n    function prepareDeck(uint i) internal {// TODO: need to be implemented\r\n        //assert( MPC.length >= 1+i );\r\n        MPC[ i ] = i ;\r\n    }\r\n    \r\n    function helpDecryptRole() internal {\r\n        for(uint i=1; i<=n; i++)\r\n        players[i].hand++;//TODO: need to be implemented\r\n        //++模擬解密的動作\r\n        //解密到剩最後一層當手牌\r\n    }\r\n    \r\n\r\n    function createProof( uint256 secret, uint256 message )\r\n        constant\r\n        returns (uint256[2] out_pubkey, uint256 out_s, uint256 out_e)\r\n    {\r\n        return CDSProtocol.CreateProof(secret,message);\r\n    }\r\n\r\n    function verifyProof( uint256[2] pubkey, uint256 message, uint256 s, uint256 e )\r\n        constant\r\n        returns (bool)\r\n    {\r\n        return CDSProtocol.VerifyProof(pubkey, message, s, e);\r\n    }\r\n    /*function collectHand() view returns(uint256[MAX_PLAYERS]) {\r\n        uint256[MAX_PLAYERS] hands;\r\n        for(uint i=1; i<=n; i++){\r\n            if(players[i].live==true){\r\n                hands[i]=players[i].hand;\r\n            }\r\n        }\r\n        //ShowHand(hands);\r\n        return hands;\r\n    }*/\r\n    \r\n    /*function collectHand() view returns(uint[MAX_PLAYERS]) {\r\n        uint256[MAX_PLAYERS] hands=[uint(1),2,3];//can't assign memory to storage reference\r\n        \r\n        return hands;\r\n    }*/\r\n\r\n    /*function collectHand() view returns(uint256[]) {\r\n        uint256[] hands;\r\n        //http://solidity.readthedocs.io/en/v0.3.1/frequently-asked-questions.html\r\n        //https://ethereum.stackexchange.com/questions/4467/initialising-structs-to-storage-variables\r\n        //Uninitialized storage pointer causes terrible errors\r\n        //storage reference can only be created from state\r\n        for(uint i=1; i<=n; i++){\r\n            if(players[i].live==true){\r\n                hands.push(n+100*i);\r\n\r\n            }\r\n            ShowHand(hands);\r\n        }\r\n        return hands;\r\n    }*/\r\n\r\n    /*function collectHand() public view returns(uint256[]) {\r\n        uint[] memory hands= new uint[](n+1);\r\n        //memory: dynamic array(decide length runtime), fixed length\r\n        //stroage: can change length\r\n        //https://solidity.readthedocs.io/en/develop/types.html#allocating-memory-arrays\r\n        for(uint i=1; i<=n; i++){\r\n            if(players[i].live==true){\r\n                hands[];\r\n\r\n            }\r\n            ShowHand(hands);\r\n        }\r\n        return hands;\r\n    }*/\r\n    /*function collectStatements()public view returns(KillConditions){\r\n        //TODO: need to be implemented. 只是示意\r\n        KillConditions memory statements;//放memory會有問題嗎?\r\n        statements.iAmWerewolf = 1;//TODO: some encoding of states\r\n        //出示狼人牌(不用證明他是誰?或許要證明他是玩家,先不考慮)\r\n        statements.iAmLive=1;//TODO: some encoding of states\r\n        statements.victimLive=1;//TODO: some encoding of states\r\n        //我們是玩家,我們都活著\r\n        return statements;\r\n    }*/\r\n\r\n    /*function encodeProof(KillConditions statements)public view returns(uint){\r\n        //uint code = 0x144;\r\n        return 0x144;//TODO: need to be implemented. 只是示意, 假設證明\r\n        //assume proof is uint256 !!!\r\n    }*/\r\n\r\n    function verify(uint proofCanKill, Player victim) pure internal returns(bool){\r\n        \r\n        return proofCanKill == 123 && victim.live == true;//TODO: need to be implemented. 只是示意, 假設證明\r\n    }\r\n\r\n\r\n    //function itsNight() internal{\r\n        //event之後再加 emit NightComming(\"Close your eyes!\",\r\n            //\"Werewolves, open your eyes\",\r\n            //\"Werewolves, pick someone to kill!\");\r\n        //gameClock.day++;\r\n        //gameClock.phase = GameIs.Night;\r\n    //}\r\n    \r\n    //function itsDay(address victimName) internal{\r\n        //event之後再加 emit DayComming(\"Everybody open your eyes; it's daytime!\");    \r\n        //gameClock.day++;\r\n        //gameClock.phase = GameIs.Day;\r\n        //killedWhen(GameIs.Night, victimName);\r\n        //event之後再加 emit SentenceToDeath(\"And you have been torn apart by werewolves!\", victimName);\r\n        //先殺再公告, 避免在看到event之後搶先發言\r\n    //}\r\n\r\n    function killed(/*GameIs t,*/ address player) internal{\r\n        uint i = playerNumOf[player];\r\n        players[i].live=false;//禁言\r\n        uint j= theLivingNumOf[player];\r\n        \r\n        for(uint k=j; k<= livingPlayers.length-2 ; k++){\r\n            livingPlayers[k] = livingPlayers[k+1];\r\n            theLivingNumOf[livingPlayers[k]]--;\r\n            \r\n        }\r\n        livingPlayers.length--;//automatically delete the last element\r\n        theLivingNumOf[player]=0;\r\n        /*\r\n        if(t==Night){\r\n            gameClock.phase = GameIs.CheckingNightDead;//等他公布身分\r\n        }\r\n        else if(t==Day){\r\n            gameClock.phase = GameIs.CheckingDayDead;\r\n        }\r\n        */\r\n        //else 違反規則如何?\r\n        /*not open:罰錢 open:遊戲繼續*/\r\n    }\r\n\r\n    function verifyRole(RoleTypes _role, uint _pokerKey) pure internal returns(bool){\r\n        return (_role!=RoleTypes.Unseen && _pokerKey==456);//TODO: need to be implemented. 只是示意, 假設證明\r\n    }\r\n    \r\n    /* off-chain?\r\n    function TalkingAndVoting() view{\r\n\r\n    }\r\n    */\r\n    function numSurvive() view returns(uint){\r\n        return livingPlayers.length-1;\r\n    }\r\n    //enum GameIs{NotReady, Ready, Night, Day}\r\n    enum RoleTypes{/*AmbitiousCard*/Unseen, Werewolf, Seer, Villager}\r\n    //enum PlayersAre{CheckingTheDead, DiscussingAndVoting/*...*/}\r\n    //不要分號\r\n    struct Player{\r\n        address name;\r\n        bool live;\r\n        //備用:uint pokerKey;\r\n        uint hand;\r\n        RoleTypes role;\r\n        uint pokerKey;\r\n    }\r\n\r\n    /*struct Card{\r\n        uint face;//牌面\r\n        uint back;//牌背\r\n        //多餘? CardTypes role;\r\n    }*/\r\n    \r\n   struct KillConditions{//規定只有某個狼人能殺人\r\n        uint iAmWerewolf;\r\n        //statement1\r\n        //players[i].hand = cardWerewolf1 ** players[i].pokerKey\r\n        //private input: hand, pokerKey\r\n        //hand --> 匿名的需求\r\n        //cardWerewolf1 --> constant\r\n        // (h) = C1 ** (k) 證明某人是某人的離散對數\r\n        //把h當公鑰, k當私鑰, Schnorr signature\r\n        \r\n        uint iAmLive;\r\n        //statement2\r\n        //(address) = livePerson1 or livePerson2 or ...\r\n        // (i) = L1 or L2 or ... \r\n        //可以用playerNum\r\n        \r\n        //statement3\r\n        //hand 要跟 address 或 i 對應\r\n        //合一個ZKP, 同樣的input對好幾個output?\r\n        \r\n        uint victimLive;\r\n        //v = L1 or L2\r\n        //在簡化的版本這個condition，verifier可以自己檢查\r\n    }\r\n    //ZKP( (i), (h), (k), ContractState )\r\n    //1 (h) = C1 ** (k) or ..\r\n    //2 (i) = L1 or ...       --> Ok\r\n    //3 (h) is someone's hand --> Ok\r\n    //4 private input 合法\r\n    //需要or and power\r\n    //比對zerocash\r\n    //可以總結簡單的算式\r\n    //\r\n    //C ** (k) = h1 or c ** (k) = h2 or ...\r\n    //\r\n    //1. 用以下的協議證明(interactive)\r\n    //教學\r\n    //https://www.cs.jhu.edu/~susan/600.641/scribes/lecture10.pdf\r\n    //    3.3 protol ramer, Damg ̊ard and Schoenmaker\r\n    //論文( 可以cite它 )\r\n    //https://www.win.tue.nl/~berry/papers/crypto94.pdf\r\n    //(introduction介紹了甚麼是public coin的protocol, 注意第5章的應用)\r\n    //\r\n    //2. 加上Fiat-Shamir transform(轉成non-interactive)\r\n    //參考\r\n    //https://en.wikipedia.org/wiki/Fiat%E2%80%93Shamir_heuristic\r\n    //只要是public coin (verifier的chanllege是uniformly random) 的interactive proof都可以用這個方式轉換\r\n    //在radom oracle model(承認存在random oracle)，底下是安全的\r\n    //這個方法來自以下的論文( 可以cite它 )\r\n    //Amos Fiat and Adi Shamir: How to Prove Yourself: Practical Solutions to Identification and Signature Problems. CRYPTO 1986: pp. 186-194\r\n    //(當初比較像跟rsa或因數分解有關, 可能大家推廣到不同的協議上, 感覺上像大家公認的一個做法)\r\n    //\r\n    //https://en.wikipedia.org/wiki/Proof_of_knowledge\r\n    //\r\n    //instant-poker\r\n    //https://github.com/amiller/instant-poker/blob/master/test_zkproof.py\r\n    //有cite一篇\r\n    //https://link.springer.com/chapter/10.1007/978-3-540-40974-8_29\r\n    //考慮到更多的card operation, test_zkproof是實作裡面的舉的例子\r\n    //fast mental poker protocol也是改這篇的協議\r\n    //\r\n    //https://www.cryptologie.net/article/193/schnorrs-signature-and-non-interactive-protocols/\r\n    //有講到transcript的觀念\r\n    //\r\n    //DDH assumption \r\n    //參考Dan Boneh. The decision diffiee-hellman problem. Lecture Notes in Computer Science,\r\n    //1423:48-63, 1998\r\n    //由破解diffie hellman key exchange來, 也就是computational Diffie-Hellman assumption\r\n    //DDH assumption難度>CDH\r\n    //\r\n    //DDH problem(如果好解, 表示DDH assumption很難達成)\r\n    //https://crypto.stackexchange.com/questions/5254/explanation-of-the-decision-diffie-hellman-ddh-problem\r\n    //\r\n    //zcash原本用的曲線是bn128，參考\r\n    //https://medium.com/@_garethtdavies/why-zcash-is-set-to-shine-in-2018-2e8c388f35fd\r\n    //可能就是altbn128\r\n    //https://eprint.iacr.org/2016/1102.pdf\r\n    //https://github.com/HarryR/solcrypto/blob/master/contracts/altbn128.sol\r\n    //https://eprint.iacr.org/2005/133.pdf(怎麼建適合pairing的曲線)\r\n    //\r\n    //EASY DECISION-DIFFIE-HELLMAN GROUP(https://eprint.iacr.org/2004/070.pdf)\r\n    //用pairing解DDH。pairing需要embedding degree小的曲線, \r\n    //a fast mental poker可能因為這樣, 所以要求embedding degree大的曲線\r\n    //\r\n    //secp256k1不適合pairing\r\n    //https://safecurves.cr.yp.to/transfer.html\r\n    //https://groups.google.com/forum/#!topic/pbc-devel/DvDvziTTwFk\r\n    //secp256k1 參考https://github.com/amiller/instant-poker/blob/master/test_zkproof.py\r\n\r\n\r\n\r\n\r\n    /*先不要有絕對時間，假設大家會自己做\r\n    struct Time{\r\n        GameIs phase;//day or night?\r\n        uint day;//what day?\r\n        PlayersAre playerEvent;\r\n    }*/\r\n\r\n    //副詞最後再放\r\n    //event StartGame(uint numPlayers);\r\n    //event JoinGame(uint playerNum, address name);\r\n    event PlayerReady(uint numPlayers/*, address[] players*/);\r\n    //event CardReady(uint numWerewolves, uint numSeer, uint numVillagers);\r\n    //event CardShuffled();\r\n    //event GameReady();\r\n    //event NightComming(string moderatorSays,string moderatorSays_,string moderatorSays__);\r\n    //event NightEnd(string moderatorSay);\r\n    //event DayComming(string moderatorSays);\r\n    //event SentenceToDeath(string moderatorSays,address moderatorIndicates);\r\n    event ShowHand(uint256[] livingHand);\r\n    /*modifier before(uint T){\r\n        require(T>0 && block.number<T);\r\n        _;\r\n    }\r\n\r\n    modifier after(uint T){\r\n        require(T>0 && block.number>T);\r\n        _;\r\n    }*/\r\n    //modifier onlyPlayers and 保證遊戲依序執行\r\n    \r\n    /* 形容詞最後在放 modifier afterPlayerReady{\r\n        assert(n >= 6\r\n            && players.length >= 1+n);\r\n        _; \r\n    }\r\n\r\n    modifier afterCardReady{\r\n        assert(n >= 6\r\n            && deck.length >= 1+n);\r\n        _; \r\n    }\r\n\r\n    modifier afterDay{\r\n        assert((gameClock.day==0 && gameClock.phase==GameIs.Ready)||\r\n            (gameClock.day>0 && gameClock.phase==GameIs.Day));\r\n        _; \r\n    }\r\n\r\n    modifier onlyNight{\r\n        assert(gameClock.day>0 && gameClock.phase==GameIs.Night);\r\n        _;\r\n    }\r\n    \r\n    modifier afterNight{\r\n        assert((gameClock.day>0 && gameClock.phase==GameIs.Night));\r\n        _; \r\n    }\r\n\r\n    modifier onlyDay{\r\n        assert(gameClock.day>0 && gameClock.phase==GameIs.Day);\r\n        _;\r\n    }\r\n    \r\n    modifier onlyKilled{\r\n        assert(gameClock.day>0 && \r\n            (gameClock.phase==GameIs.CheckingNightDead|| gameClock.phase==GameIs.CheckingDayDead) && \r\n            players[playerNumOf[msg.sender]].live == false &&\r\n            players[playerNumOf[msg.sender]].role == Unseen &&\r\n            players[playerNumOf[msg.sender]].pokerKey == 0\r\n        );\r\n        _;\r\n    } */\r\n\r\n}",
  "sourcePath": "C:\\Users\\eason\\Documents\\GitHub\\SmartWerewolf\\contracts\\SmartWerewolf.sol",
  "compiler": {
    "name": "solc",
    "version": "0.4.21+commit.dfe3193c.Emscripten.clang"
  },
  "schemaVersion": "2.0.0",
  "updatedAt": "2018-04-09T17:25:32.230Z"
}