{
  "contractName": "SmartWerewolf",
  "abi": [
    {
      "constant": true,
      "inputs": [],
      "name": "n",
      "outputs": [
        {
          "name": "",
          "type": "uint256"
        }
      ],
      "payable": false,
      "stateMutability": "view",
      "type": "function"
    },
    {
      "constant": true,
      "inputs": [
        {
          "name": "",
          "type": "address"
        }
      ],
      "name": "playerNumOf",
      "outputs": [
        {
          "name": "",
          "type": "uint256"
        }
      ],
      "payable": false,
      "stateMutability": "view",
      "type": "function"
    },
    {
      "constant": true,
      "inputs": [
        {
          "name": "",
          "type": "address"
        }
      ],
      "name": "theLivingNumOf",
      "outputs": [
        {
          "name": "",
          "type": "uint256"
        }
      ],
      "payable": false,
      "stateMutability": "view",
      "type": "function"
    },
    {
      "constant": true,
      "inputs": [
        {
          "name": "",
          "type": "uint256"
        },
        {
          "name": "",
          "type": "uint256"
        }
      ],
      "name": "deck",
      "outputs": [
        {
          "name": "",
          "type": "uint256"
        }
      ],
      "payable": false,
      "stateMutability": "view",
      "type": "function"
    },
    {
      "constant": true,
      "inputs": [
        {
          "name": "",
          "type": "uint256"
        }
      ],
      "name": "livingPlayers",
      "outputs": [
        {
          "name": "",
          "type": "address"
        }
      ],
      "payable": false,
      "stateMutability": "view",
      "type": "function"
    },
    {
      "constant": true,
      "inputs": [],
      "name": "winner",
      "outputs": [
        {
          "name": "",
          "type": "string"
        }
      ],
      "payable": false,
      "stateMutability": "view",
      "type": "function"
    },
    {
      "constant": true,
      "inputs": [
        {
          "name": "",
          "type": "uint256"
        }
      ],
      "name": "living",
      "outputs": [
        {
          "name": "",
          "type": "uint256"
        }
      ],
      "payable": false,
      "stateMutability": "view",
      "type": "function"
    },
    {
      "constant": true,
      "inputs": [
        {
          "name": "",
          "type": "uint256"
        }
      ],
      "name": "players",
      "outputs": [
        {
          "name": "name",
          "type": "address"
        },
        {
          "name": "live",
          "type": "bool"
        },
        {
          "name": "role",
          "type": "uint8"
        },
        {
          "name": "pokerKey",
          "type": "uint256"
        }
      ],
      "payable": false,
      "stateMutability": "view",
      "type": "function"
    },
    {
      "constant": true,
      "inputs": [],
      "name": "q",
      "outputs": [
        {
          "name": "",
          "type": "uint256"
        }
      ],
      "payable": false,
      "stateMutability": "view",
      "type": "function"
    },
    {
      "inputs": [
        {
          "name": "addressPoK",
          "type": "address"
        }
      ],
      "payable": false,
      "stateMutability": "nonpayable",
      "type": "constructor"
    },
    {
      "anonymous": false,
      "inputs": [
        {
          "indexed": false,
          "name": "numPlayers",
          "type": "uint256"
        }
      ],
      "name": "PlayerReady",
      "type": "event"
    },
    {
      "anonymous": false,
      "inputs": [
        {
          "indexed": false,
          "name": "i",
          "type": "uint256"
        }
      ],
      "name": "debug",
      "type": "event"
    },
    {
      "constant": false,
      "inputs": [
        {
          "name": "_players",
          "type": "address[]"
        }
      ],
      "name": "engagement",
      "outputs": [],
      "payable": false,
      "stateMutability": "nonpayable",
      "type": "function"
    },
    {
      "constant": false,
      "inputs": [],
      "name": "createCards",
      "outputs": [],
      "payable": false,
      "stateMutability": "nonpayable",
      "type": "function"
    },
    {
      "constant": false,
      "inputs": [],
      "name": "shuffleCards",
      "outputs": [],
      "payable": false,
      "stateMutability": "nonpayable",
      "type": "function"
    },
    {
      "constant": false,
      "inputs": [],
      "name": "dealCards",
      "outputs": [],
      "payable": false,
      "stateMutability": "nonpayable",
      "type": "function"
    },
    {
      "constant": false,
      "inputs": [
        {
          "name": "victimName",
          "type": "address"
        },
        {
          "name": "proofCanKill",
          "type": "uint256"
        }
      ],
      "name": "nightKill",
      "outputs": [],
      "payable": false,
      "stateMutability": "nonpayable",
      "type": "function"
    },
    {
      "constant": false,
      "inputs": [
        {
          "name": "name",
          "type": "address"
        }
      ],
      "name": "dayVoting",
      "outputs": [],
      "payable": false,
      "stateMutability": "nonpayable",
      "type": "function"
    },
    {
      "constant": false,
      "inputs": [
        {
          "name": "_role",
          "type": "uint8"
        },
        {
          "name": "_pokerKey",
          "type": "uint256"
        }
      ],
      "name": "openRole",
      "outputs": [],
      "payable": false,
      "stateMutability": "nonpayable",
      "type": "function"
    },
    {
      "constant": true,
      "inputs": [
        {
          "name": "",
          "type": "bytes32"
        }
      ],
      "name": "roleOf",
      "outputs": [
        {
          "name": "",
          "type": "uint256"
        }
      ],
      "payable": false,
      "stateMutability": "view",
      "type": "function"
    },
    {
      "constant": true,
      "inputs": [
        {
          "name": "card",
          "type": "uint256[2]"
        }
      ],
      "name": "roleOf",
      "outputs": [
        {
          "name": "",
          "type": "uint256"
        }
      ],
      "payable": false,
      "stateMutability": "view",
      "type": "function"
    },
    {
      "constant": true,
      "inputs": [],
      "name": "cardOrder",
      "outputs": [
        {
          "name": "",
          "type": "uint256"
        }
      ],
      "payable": false,
      "stateMutability": "view",
      "type": "function"
    },
    {
      "constant": true,
      "inputs": [
        {
          "name": "name",
          "type": "address"
        }
      ],
      "name": "getHandOf",
      "outputs": [
        {
          "name": "hand",
          "type": "uint256[2]"
        }
      ],
      "payable": false,
      "stateMutability": "view",
      "type": "function"
    },
    {
      "constant": true,
      "inputs": [],
      "name": "numSurvive",
      "outputs": [
        {
          "name": "",
          "type": "uint256"
        }
      ],
      "payable": false,
      "stateMutability": "view",
      "type": "function"
    },
    {
      "constant": true,
      "inputs": [
        {
          "name": "framedHand",
          "type": "uint256[2]"
        },
        {
          "name": "werewolfCard",
          "type": "uint256[2]"
        },
        {
          "name": "victim",
          "type": "uint256"
        }
      ],
      "name": "werewolfFrameKilling",
      "outputs": [
        {
          "name": "_werewolfCard",
          "type": "uint256[2]"
        },
        {
          "name": "_framedHand",
          "type": "uint256[2]"
        },
        {
          "name": "_victim",
          "type": "uint256"
        },
        {
          "name": "T",
          "type": "uint256[3]"
        },
        {
          "name": "c",
          "type": "uint256"
        },
        {
          "name": "s",
          "type": "uint256"
        }
      ],
      "payable": false,
      "stateMutability": "view",
      "type": "function"
    },
    {
      "constant": true,
      "inputs": [],
      "name": "werewolfCard",
      "outputs": [
        {
          "name": "cardX",
          "type": "uint256"
        },
        {
          "name": "cardY",
          "type": "uint256"
        }
      ],
      "payable": false,
      "stateMutability": "view",
      "type": "function"
    },
    {
      "constant": true,
      "inputs": [
        {
          "name": "pokerKey",
          "type": "uint256"
        },
        {
          "name": "hands",
          "type": "uint256[2][]"
        },
        {
          "name": "_werewolfCard",
          "type": "uint256[2]"
        },
        {
          "name": "victim",
          "type": "uint256"
        }
      ],
      "name": "werewolfChooset",
      "outputs": [
        {
          "name": "realt",
          "type": "uint256"
        }
      ],
      "payable": false,
      "stateMutability": "view",
      "type": "function"
    },
    {
      "constant": true,
      "inputs": [
        {
          "name": "realt",
          "type": "uint256"
        },
        {
          "name": "_werewolfCard",
          "type": "uint256[2]"
        }
      ],
      "name": "werewolfComputeT",
      "outputs": [
        {
          "name": "realT",
          "type": "uint256[3]"
        }
      ],
      "payable": false,
      "stateMutability": "view",
      "type": "function"
    },
    {
      "constant": true,
      "inputs": [
        {
          "name": "_werewolfCard",
          "type": "uint256[2]"
        },
        {
          "name": "_hands",
          "type": "uint256[2][]"
        },
        {
          "name": "victim",
          "type": "uint256"
        },
        {
          "name": "real",
          "type": "uint256"
        },
        {
          "name": "Ts",
          "type": "uint256[3][]"
        }
      ],
      "name": "computeChallenge",
      "outputs": [
        {
          "name": "realChallenge",
          "type": "uint256"
        }
      ],
      "payable": false,
      "stateMutability": "view",
      "type": "function"
    },
    {
      "constant": true,
      "inputs": [
        {
          "name": "pokerKey",
          "type": "uint256"
        },
        {
          "name": "werewolfCard",
          "type": "uint256[2]"
        },
        {
          "name": "hand",
          "type": "uint256[2]"
        },
        {
          "name": "victim",
          "type": "uint256"
        },
        {
          "name": "tReady",
          "type": "uint256"
        },
        {
          "name": "cReady",
          "type": "uint256"
        }
      ],
      "name": "werewolfProve",
      "outputs": [
        {
          "name": "_werewolfCard",
          "type": "uint256[2]"
        },
        {
          "name": "_hand",
          "type": "uint256[2]"
        },
        {
          "name": "_victim",
          "type": "uint256"
        },
        {
          "name": "T",
          "type": "uint256[3]"
        },
        {
          "name": "c",
          "type": "uint256"
        },
        {
          "name": "s",
          "type": "uint256"
        }
      ],
      "payable": false,
      "stateMutability": "view",
      "type": "function"
    }
  ],
  "bytecode": "0x6060604052341561000f57600080fd5b604051602080612fec8339810160405280805160008054600160a060020a031916600160a060020a0383161781559092507f79be667ef9dcbbac55a06295ce870b07029bfcdb2dce28d959f2815b16f81798915060059001557f483ada7726a3c4655da4fbfc0e1108a8fd17b448a68554199c47d08ffb10d4b860056001015550612f4d8061009f6000396000f3006060604052600436106101455763ffffffff60e060020a600035041663076d9680811461014a5780630cbee0e31461019b5780632e52d606146102aa578063313ffac1146102cf5780633e5a438d146102f65780634ef3ea741461036f5780634fb793dc1461038e57806352f9aaea146103ca57806354054cd514610421578063568bd63e1461044057806358801f171461046b5780635c56e5081461047e5780636e6ac9c6146104915780638c785f88146104a75780639a019678146104ba578063a4f195aa146104dc578063acb2c01a146104f8578063c0cb6b241461050b578063d34544cd14610565578063d554042d1461057e578063d6ffa29a146106af578063d9e0bf4e146106c2578063dfbf53ae146106f4578063eb2880811461077e578063f6ac71cd14610794578063f71d96cb146107b3578063fd3ab2821461080d575b600080fd5b341561015557600080fd5b610199600460248135818101908301358060208181020160405190810160405280939291908181526020018383602002808284375094965061082095505050505050565b005b34156101a657600080fd5b610205600460448160026040805190810160405280929190826002602002808284378201915050505050919080604001906002806020026040519081016040528092919082600260200280828437509395505092359250610b53915050565b6040518087604080838360005b8381101561022a578082015183820152602001610212565b5050505090500186600260200280838360005b8381101561025557808201518382015260200161023d565b5050505090500185815260200184600360200280838360005b8381101561028657808201518382015260200161026e565b50505050905001838152602001828152602001965050505050505060405180910390f35b34156102b557600080fd5b6102bd610c5d565b60405190815260200160405180910390f35b34156102da57600080fd5b6102bd6004803590602480359081019101356044608435610c63565b341561030157600080fd5b61020560048035906064602460026040805190810160405280929190826002602002808284378201915050505050919080604001906002806020026040519081016040528092919082600260200280828437509395505083359360208101359350604001359150610d099050565b341561037a57600080fd5b6102bd600160a060020a0360043516610e30565b341561039957600080fd5b6102bd6004604481600260408051908101604052809291908260026020028082843750939550610e42945050505050565b34156103d557600080fd5b6103e9600160a060020a0360043516610e98565b6040518082604080838360005b8381101561040e5780820151838201526020016103f6565b5050505090500191505060405180910390f35b341561042c57600080fd5b6102bd600160a060020a0360043516610f0b565b341561044b57600080fd5b610453610f1d565b60405191825260208201526040908101905180910390f35b341561047657600080fd5b610199610f6e565b341561048957600080fd5b610199611174565b341561049c57600080fd5b6102bd600435611408565b34156104b257600080fd5b6102bd61141a565b34156104c557600080fd5b610199600160a060020a0360043516602435611431565b34156104e757600080fd5b61019960ff6004351660243561154b565b341561050357600080fd5b6102bd611754565b341561051657600080fd5b61054b60048035906064602460026040805190810160405280929190826002602002808284375093955061175e945050505050565b6040518082606080838360008151838201526020016103f6565b341561057057600080fd5b6102bd6004356024356117fc565b341561058957600080fd5b6102bd600460448160026040805190810160405280929190826002602002808284375093959460208082019550903586018082019450359250829150818102016040519081016040528181529291906000602085015b8282101561061e5760408083028601906002908051908101604052809291908260026020028082843750505091835250506001909101906020016105df565b505050505091908035906020019091908035906020019091908035906020019082018035906020019080806020026020016040519081016040528181529291906000602085015b828210156106a1576060808302860190600390604051908101604052919082826060808284375050509183525050600190910190602001610665565b50505050509190505061182e565b34156106ba57600080fd5b610199611971565b34156106cd57600080fd5b6106d8600435611a21565b604051600160a060020a03909116815260200160405180910390f35b34156106ff57600080fd5b610707611a49565b60405160208082528190810183818151815260200191508051906020019080838360005b8381101561074357808201518382015260200161072b565b50505050905090810190601f1680156107705780820380516001836020036101000a031916815260200191505b509250505060405180910390f35b341561078957600080fd5b6102bd600435611ae7565b341561079f57600080fd5b610199600160a060020a0360043516611af9565b34156107be57600080fd5b6107c9600435611b02565b604051600160a060020a03851681528315156020820152604081018360038111156107f057fe5b60ff16815260200182815260200194505050505060405180910390f35b341561081857600080fd5b6102bd611b5d565b600060068251101561083157600080fd5b815160048190556001908101906108489082612c82565b50600190505b60045481116109d35760a06040519081016040528083600184038151811061087257fe5b90602001906020020151600160a060020a0316815260200160011515815260200160408051908101604052600080825260208083018290529183529101908152600060209091015260018054839081106108c857fe5b90600052602060002090600502016000820151815473ffffffffffffffffffffffffffffffffffffffff1916600160a060020a039190911617815560208201518154901515740100000000000000000000000000000000000000000274ff00000000000000000000000000000000000000001990911617815560408201516109569060018301906002612cae565b5060608201518160030160006101000a81548160ff0219169083600381111561097b57fe5b02179055506080820151816004015590505080600760006001848154811015156109a157fe5b60009182526020808320600590920290910154600160a060020a0316835282019290925260400190205560010161084e565b600960205260027f92e85d02570a8092d09a6e3a57665bc3815a2699a4074001bf1ccabf660f5a365560017f6cde3cea4b3a3fb2488b2808bae7556f4a405e50f65e1794383bc026131b13c3819055600454600360005260021981017fc575c31fea594a6eb97c8e9d3f9caee4c16218c6ef37e923234c0fe9014a61e75501610a5d600a82612cec565b50600190505b6004548111610b1a576001805482908110610a7a57fe5b6000918252602090912060059091020154600a8054600160a060020a039092169183908110610aa557fe5b906000526020600020900160006101000a815481600160a060020a030219169083600160a060020a0316021790555080600b6000600184815481101515610ae857fe5b60009182526020808320600590920290910154600160a060020a03168352820192909252604001902055600101610a63565b7f0475fa33e711a0d11030b454020a5f7c806520bdc5d7a1fcb9accde610a00f2460045460405190815260200160405180910390a15050565b610b5b612d10565b610b63612d10565b6000610b6d612d36565b600080548190600160a060020a031663a2cf9308898b8a60405160e060020a63ffffffff86160281526004018084604080838360005b83811015610bbb578082015183820152602001610ba3565b5050505090500183600260200280838360005b83811015610be6578082015183820152602001610bce565b50505050905001828152602001935050505061014060405180830381600087803b1515610c1257600080fd5b5af11515610c1f57600080fd5b50505060405180604001806040018051906020018060600180519060200180516020909101604052949e939d50919b50995097509095509350505050565b60045481565b60008054600160a060020a031663b73318658487878a8760405160e060020a63ffffffff88160281526004018086604080828437820191505080602001848152602001838152602001828103825286868281815260200192506040028082843782019150509650505050505050602060405180830381600087803b1515610ce957600080fd5b5af11515610cf657600080fd5b5050506040518051979650505050505050565b610d11612d10565b610d19612d10565b6000610d23612d36565b600080548190600160a060020a031663d4540ff78d8d8d8d8d8d60405160e060020a63ffffffff8916028152600481018781529060240186604080838360005b83811015610d7b578082015183820152602001610d63565b5050505090500185600260200280838360005b83811015610da6578082015183820152602001610d8e565b50505050905001848152602001838152602001828152602001965050505050505061014060405180830381600087803b1515610de157600080fd5b5af11515610dee57600080fd5b50505060405180604001806040018051906020018060600180519060200180519060200160405295509550955095509550955096509650965096509650969050565b60076020526000908152604090205481565b600060086000836040518082604080838360005b83811015610e6e578082015183820152602001610e56565b50505050905001915050604051908190039020815260208101919091526040016000205492915050565b610ea0612d10565b600160a060020a0382166000908152600760205260409020546001805482908110610ec757fe5b6000918252602082206001600590920201019001546001805483908110610eea57fe5b60009182526020918290206002600590920201015490840152825250919050565b600b6020526000908152604090205481565b60008060036001815481101515610f3057fe5b600091825260208220600290910201900154600380546001908110610f5157fe5b600091825260209091206002909102016001015490939092509050565b600080610f79612d10565b6177179250600091505b600454821161103d57610fe683600384815481101515610f9f57fe5b90600052602060002090600202016002806020026040519081016040529190828260026020028201915b815481526020019060010190808311610fc9575050505050611b73565b6003805485908110610ff457fe5b6000918252602082206002909102019001600060038681548110151561101657fe5b60009182526020909120600290910201600101929092559190915550600190910190610f83565b60038054600290811061104c57fe5b60009182526020822060029091020190015460038054600290811061106d57fe5b60009182526020918290206001600290920201015490830152815260038054600590811061109757fe5b6000918252602082206002909102019001546003805460059081106110b857fe5b60009182526020909120600290910201600101546003805460029081106110db57fe5b60009182526020822060029091020190016000600360028154811015156110fe57fe5b600091825260209091206001600290920201019290925591909155508051602082015160038054600590811061113057fe5b600091825260208220600290910201900160006003600581548110151561115357fe5b60009182526020909120600290910201600101929092559190915550505050565b60008060045460010160038161118a9190612d50565b611195600282612cec565b50600091505b60045482116111b8576111ad82611bad565b60019091019061119b565b600091505b600454821161126e576112176002838154811015156111d857fe5b60009182526020909120015460056002604080519081016040908152835482529092919083016001830160208501808311610fc9575050505050611b73565b600380548590811061122557fe5b6000918252602082206002909102019001600060038681548110151561124757fe5b600091825260209091206002909102016001019290925591909155506001909101906111bd565b6112ca6003600081548110151561128157fe5b90600052602060002090600202016002806020026040519081016040529190828260026020028201915b8154815260200190600101908083116112ab5750505050506000611be3565b611326600360018154811015156112dd57fe5b90600052602060002090600202016002806020026040519081016040529190828260026020028201915b8154815260200190600101908083116113075750505050506001611be3565b611339600360028154811015156112dd57fe5b61139460038081548110151561134b57fe5b90600052602060002090600202016002806020026040519081016040529190828260026020028201915b8154815260200190600101908083116113755750505050506002611be3565b5060045b6004548111611404576113fc6003828154811015156113b357fe5b90600052602060002090600202016002806020026040519081016040529190828260026020028201915b8154815260200190600101908083116113dd5750505050506003611be3565b600101611398565b5050565b60086020526000908152604090205481565b70014551231950b75fc4402da1732fc9bebe195b90565b600061143b612d7c565b600160a060020a03841660009081526007602052604090205460018054919350908390811061146657fe5b906000526020600020906005020160a060405190810160409081528254600160a060020a038116835274010000000000000000000000000000000000000000900460ff161515602083015290919080830190600183019060029080519081016040529190828260026020028201915b8154815260200190600101908083116114d557505050918352505060038281015460209092019160ff169081111561150957fe5b600381111561151457fe5b8152602001600482015481525050905061152e8382611c41565b151560011461153c57600080fd5b61154584611c60565b50505050565b60006115578383611de4565b151560011461156557600080fd5b50600160a060020a033316600090815260076020526040902054600180548491908390811061159057fe5b906000526020600020906005020160030160006101000a81548160ff021916908360038111156115bc57fe5b0217905550816001828154811015156115d157fe5b906000526020600020906005020160040181905550600960008460038111156115f657fe5b81526020808201929092526040016000908120805460001901905560099091527fc575c31fea594a6eb97c8e9d3f9caee4c16218c6ef37e923234c0fe9014a61e7547f6cde3cea4b3a3fb2488b2808bae7556f4a405e50f65e1794383bc026131b13c35460019092527f92e85d02570a8092d09a6e3a57665bc3815a2699a4074001bf1ccabf660f5a3654910114156116d65760408051908101604052600a81527f57657265776f6c766573000000000000000000000000000000000000000000006020820152600c9080516116d0929160200190612db1565b5061174f565b600160005260096020527f92e85d02570a8092d09a6e3a57665bc3815a2699a4074001bf1ccabf660f5a3654151561174f5760408051908101604052600681527f48756d616e7300000000000000000000000000000000000000000000000000006020820152600c908051611545929160200190612db1565b505050565b600a546000190190565b611766612d36565b600054600160a060020a03166383242e90848460405160e060020a63ffffffff8516028152600481018381529060240182604080838360005b838110156117b757808201518382015260200161179f565b5050505090500192505050606060405180830381600087803b15156117db57600080fd5b5af115156117e857600080fd5b505050604051606081016040529392505050565b600380548390811061180a57fe5b90600052602060002090600202018160028110151561182557fe5b01549150829050565b60008054600160a060020a031663d554042d878787878760405160e060020a63ffffffff88160281526004018086604080838360005b8381101561187c578082015183820152602001611864565b5050505090500180602001858152602001848152602001806020018381038352878181518152602001915080516000925b818410156118ef57602080850284010151604080838360005b838110156118de5780820151838201526020016118c6565b5050505090500192600101926118ad565b925050508381038252848181518152602001915080516000925b8184101561194b57602080850284010151606080838360005b8381101561193a578082015183820152602001611922565b505050509050019260010192611909565b92505050975050505050505050602060405180830381600087803b1515610ce957600080fd5b60015b6004548111611a1657600380548290811061198b57fe5b60009182526020822060029091020190015460038054839081106119ab57fe5b600091825260209091206002909102016001015460018054849081106119cd57fe5b600091825260208220600160059092020101900160006001858154811015156119f257fe5b60009182526020909120600260059092020101929092559190915550600101611974565b611a1e611e06565b50565b600a805482908110611a2f57fe5b600091825260209091200154600160a060020a0316905081565b600c8054600181600116156101000203166002900480601f016020809104026020016040519081016040528092919081815260200182805460018160011615610100020316600290048015611adf5780601f10611ab457610100808354040283529160200191611adf565b820191906000526020600020905b815481529060010190602001808311611ac257829003601f168201915b505050505081565b60096020526000908152604090205481565b611a1e81611c60565b6001805482908110611b1057fe5b6000918252602090912060059091020180546003820154600490920154600160a060020a03821693507401000000000000000000000000000000000000000090910460ff90811692169084565b70014551231950b75fc4402da1732fc9bebe1981565b600080611b7e612d36565b611b888585611e46565b9050611b9a816401000003d019612272565b8051602082015192509250509250929050565b70014551231950b75fc4402da1732fc9bebe19607b820106600282815481101515611bd457fe5b60009182526020909120015550565b806003811115611bef57fe5b60086000846040518082604080838360005b83811015611c19578082015183820152602001611c01565b5050505090500191505060405190819003902081526020810191909152604001600020555050565b600082607b148015611c595750816020015115156001145b9392505050565b600160a060020a038116600090815260076020526040812054600180549192918291829185908110611c8e57fe5b6000918252602080832060059092029091018054931515740100000000000000000000000000000000000000000274ff00000000000000000000000000000000000000001990941693909317909255600160a060020a0386168152600b909152604090205491508190505b600a54600119018111611db357600a805460018301908110611d1757fe5b600091825260209091200154600a8054600160a060020a039092169183908110611d3d57fe5b906000526020600020900160006101000a815481600160a060020a030219169083600160a060020a03160217905550600b6000600a83815481101515611d7f57fe5b6000918252602080832090910154600160a060020a0316835282019290925260400190208054600019019055600101611cf9565b600a805490611dc6906000198301612cec565b50505050600160a060020a03166000908152600b6020526040812055565b600080836003811115611df357fe5b14158015611c595750506101c814919050565b600160005b6004548211611404576001805483908110611e2257fe5b60009182526020909120600160059092020181018054820181559201919050611e0b565b611e4e612d36565b6000806000611e5b612e1e565b611e63612d36565b611e6b612e4c565b6401000003d0199550600080808b1515611e8457612263565b6000604051985061020089016040525b8c15611ecc5760018d1615611ebb5750601f8c16808989015360206010821102818e03019c505b60028d049c50600188019750611e94565b506060604051908101604052808c5181526020018c60016020020151815260016020909101528652611efe86516122da565b9450611f0a858c6123f5565b6020870152611f21858760015b6020020151612631565b6040870152611f3285876002611f17565b6060870152611f4385876003611f17565b6080870152611f5485876004611f17565b60a0870152611f6585876005611f17565b60c0870152611f7685876006611f17565b60e0870152602086015160400151845288801515611f9057fe5b845160408801516040015109602085015288801515611fab57fe5b602085015160608801516040015109604085015288801515611fc957fe5b604085015160808801516040015109606085015288801515611fe757fe5b606085015160a0880151604001510960808501528880151561200557fe5b608085015160c0880151604001510960a08501528880151561202357fe5b60a085015160e0880151604001510960c0850190815261204490518a61288a565b60e08501908152516101008501528880151561205c57fe5b61010085015160a0860151096101e0850152600692505b600283106120f0578880151561208557fe5b61010085015187600186016008811061209a57fe5b60200201516040015109610100850152888015156120b457fe5b610100850151856001198601601081106120ca57fe5b6020020151098460088501601081106120df57fe5b602002015260001990920191612073565b888015156120fa57fe5b61010085015160408801516040015109610120850152600092505b600783101561218d5761218286600185016008811061213057fe5b602002015185600986016010811061214457fe5b60200201518b80151561215357fe5b87600988016010811061216257fe5b602002015188600989016010811061217657fe5b6020020151098c612928565b600190920191612115565b600087111561226357600019808801978901015160001a91506121af8a612957565b601082111561220a57506002601f829003046122058a60408051908101604052808985600881106121dc57fe5b60200201515181526020018985600881106121f357fe5b6020020151602001518d039052612a68565b61225e565b600082111561225e5750600260001982010461225e8a604080519081016040528089856008811061223757fe5b602002015151815260200189856008811061224e57fe5b6020020151602001519052612a68565b61218d565b50505050505050505092915050565b60008061228360408501518461288a565b91508280151561228f57fe5b82830990508280151561229e57fe5b818551098452828015156122ae57fe5b838015156122b857fe5b8284098560015b60200201510960208501525050600160409092019190915250565b6122e2612d36565b6401000003d0196000808080808060408901511515612300576123e9565b88519550602089015194508680151561231557fe5b85860993508680151561232457fe5b8780151561232e57fe5b85880960040992508680151561234057fe5b8780151561234a57fe5b87880960030991508680151561235c57fe5b8780151561236657fe5b84850888038880151561237557fe5b8485090880895290508680151561238857fe5b8780151561239257fe5b8880151561239c57fe5b8687096008098803888015156123ae57fe5b898015156123b857fe5b848b0387088509086020890152868015156123cf57fe5b878015156123d957fe5b60408b0151870960020960408901525b50505050505050919050565b6123fd612d36565b6000612407612d10565b61240f612e67565b60008080808060408b0151151561244c576060604051908101604052808b5181526020018b60016020020151815260200160018152509850612623565b60208a0151151561245f578a9850612623565b6401000003d01997508760408c015160408d01510987528780151561248057fe5b875160408d01510960208801526080604051908101604052808c5181526020018c600160200201518152602001898015156124b757fe5b89518d51098152602001898015156124cb57fe5b60208a015160208e0151099052955060408601518651141561251b57606086015160208701511461250c576000808c5260208c0181905260408c0152612623565b6125158b6122da565b50612623565b8780151561252557fe5b8651890360408801510894508780151561253b57fe5b6020870151890360608801510893508780151561255457fe5b85860992508780151561256357fe5b85840991508780151561257257fe5b8289038980151561257f57fe5b8687090890508780151561258f57fe5b8880151561259957fe5b898015156125a357fe5b8589510960020989038208808a529050878015156125bd57fe5b888015156125c757fe5b828a038a8015156125d457fe5b868a510908850960208a0152878015156125ea57fe5b888015156125f457fe5b83602089015109890360208b01510860208a01528780151561261257fe5b60408c015186098960025b60200201525b505050505050505092915050565b612639612d36565b6000612643612e67565b61264b612e67565b60008080808060408b0151151561266457899850612623565b60408a01511515612677578a9850612623565b6401000003d01997508760408c015160408d01510987528780151561269857fe5b875160408d0151096020880152878015156126af57fe5b60408b015160408c0151096040880152878015156126c957fe5b604088015160408c0151096060880152608060405190810160405280898015156126ef57fe5b60408a01518e510981526020018980151561270657fe5b60608a015160208f01510981526020018980151561272057fe5b89518d510981526020018980151561273457fe5b60208a015160208e0151099052955060408601518651141561277457606086015160208701511461276457612623565b61276d8b6122da565b9850612623565b8780151561277e57fe5b8651890360408801510894508780151561279457fe5b602087015189036060880151089350878015156127ad57fe5b8586099250878015156127bc57fe5b8584099150878015156127cb57fe5b828903898015156127d857fe5b868709089050878015156127e857fe5b888015156127f257fe5b898015156127fc57fe5b8589510960020989038208808a5290508780151561281657fe5b8880151561282057fe5b828a038a80151561282d57fe5b868a510908850960208a01528780151561284357fe5b8880151561284d57fe5b83602089015109890360208b01510860208a01528780151561286b57fe5b8880151561287557fe5b60408c015160408e015109860989600261261d565b6000808080808087158015906128a05750868814155b80156128ab57508615155b15156128b657600080fd5b868811156128cd5786888115156128c957fe5b0697505b600193508692508791505b81156129035781838115156128e957fe5b9495940485810290940393919283830290039190506128d8565b600085121561291957846000038703955061291d565b8495505b505050505092915050565b8080151561293257fe5b8285510984528080151561294257fe5b8180151561294c57fe5b8385098560016122bf565b6401000003d019600080808080806040880151151561297557612a5e565b87519550602088015194508680151561298a57fe5b85860993508680151561299957fe5b878015156129a357fe5b8588096004099250868015156129b557fe5b878015156129bf57fe5b8788096003099150868015156129d157fe5b878015156129db57fe5b8485088803888015156129ea57fe5b848509088089529050868015156129fd57fe5b87801515612a0757fe5b88801515612a1157fe5b868709600809880388801515612a2357fe5b89801515612a2d57fe5b848b038708850908602089015286801515612a4457fe5b87801515612a4e57fe5b60408a0151870960020960408901525b5050505050505050565b6000612a72612d10565b612a7a612e67565b60008080808060208a01511515612aa95788518a52602089015160208b015260018a60025b6020020152612c76565b60208901511515612ab957612c76565b6401000003d01997508760408b015160408c015109875287801515612ada57fe5b875160408c01510960208801526080604051908101604052808b5181526020018b60016020020151815260200189801515612b1157fe5b89518c5109815260200189801515612b2557fe5b60208a015160208d01510990529550604086015186511415612b72576060860151602087015114612b64576000808b5260208b018190528a6002612a9f565b612b6d8a612957565b612c76565b87801515612b7c57fe5b86518903604088015108945087801515612b9257fe5b60208701518903606088015108935087801515612bab57fe5b858609925087801515612bba57fe5b858409915087801515612bc957fe5b82890389801515612bd657fe5b86870908905087801515612be657fe5b88801515612bf057fe5b89801515612bfa57fe5b8589510960020989038208808b52905087801515612c1457fe5b88801515612c1e57fe5b828a038a801515612c2b57fe5b868a510908850960208b015287801515612c4157fe5b88801515612c4b57fe5b83602089015109890360208c01510860208b015287801515612c6957fe5b60408b0151860960408b01525b50505050505050505050565b81548183558181151161174f5760050281600502836000526020600020918201910161174f9190612e81565b8260028101928215612cdc579160200282015b82811115612cdc578251825591602001919060010190612cc1565b50612ce8929150612ed6565b5090565b81548183558181151161174f5760008381526020902061174f918101908301612ed6565b604080519081016040526002815b6000815260200190600190039081612d1e5790505090565b606060405190810160405260008152600260208201612d1e565b81548183558181151161174f5760020281600202836000526020600020918201910161174f9190612ef0565b60c06040519081016040908152600080835260208301528101612d9d612d10565b815260200160008152602001600081525090565b828054600181600116156101000203166002900490600052602060002090601f016020900481019282601f10612df257805160ff1916838001178555612cdc565b82800160010185558215612cdc5791820182811115612cdc578251825591602001919060010190612cc1565b6103006040519081016040526008815b612e36612d36565b815260200190600190039081612e2e5790505090565b61020060405190810160405260008152600f60208201612d1e565b608060405190810160405260008152600360208201612d1e565b61142e91905b80821115612ce857805474ffffffffffffffffffffffffffffffffffffffffff191681556000612eba6001830182612f13565b5060038101805460ff1916905560006004820155600501612e87565b61142e91905b80821115612ce85760008155600101612edc565b61142e91905b80821115612ce8576000612f0a8282612f13565b50600201612ef6565b5060008155600101600090555600a165627a7a72305820f88d3a90d52bea622378b5c16f23a582c1ea6eb565671b04c8484c92ac0ed8cd0029",
  "source": "pragma solidity ^0.4.7;\r\nimport \"./OrPoK.sol\";\r\n\r\ncontract SmartWerewolf {\r\n    //parameters using bitcoin's curve (fixed for every game)\r\n    uint constant p = 0xFFFFFFFFFFFFFFFFFFFFFFFFFFFFFFFFFFFFFFFFFFFFFFFFFFFFFFFEFFFFFC2F;\r\n    uint constant Gx =0x79BE667EF9DCBBAC55A06295CE870B07029BFCDB2DCE28D959F2815B16F81798;\r\n    uint constant Gy = 0x483ADA7726A3C4655DA4FBFC0E1108A8FD17B448A68554199C47D08FFB10D4B8;\r\n    uint public constant q = 0xFFFFFFFFFFFFFFFFFFFFFFFFFFFFFFFEBAAEDCE6AF48A03BBFD25E8CD0364141;\r\n    OrPoK processPoK; \r\n\r\n    //bullet broad (fixed during 1 game)\r\n    Player[] public players;\r\n    uint[] MPC;\r\n    uint[2][] public deck;\r\n    uint public n;\r\n    uint[2] G;\r\n    mapping (address => uint) public playerNumOf;\r\n    mapping(bytes32 => uint) public roleOf;\r\n    \r\n    //up-to-date report (change in game)\r\n    mapping(uint => uint) public living;\r\n    address[] public livingPlayers;\r\n    mapping(address => uint) public theLivingNumOf;\r\n    string public winner;\r\n    \r\n    function SmartWerewolf(address addressPoK) public {\r\n        processPoK = OrPoK(addressPoK);\r\n        G[0] = Gx;\r\n        G[1] = Gy;\r\n    }\r\n\r\n    //1. \r\n    function engagement(address[] _players) public {\r\n        require(_players.length >= 6);\r\n        n = _players.length;\r\n        players.length = 1+ n;\r\n        uint i;\r\n        for (i = 1; i <= n; i++) {\r\n            players[i] = Player\r\n            (\r\n                {\r\n                    name: _players[ i-1 ],  \r\n                    live: true, \r\n                    hand: [uint(0),0], \r\n                    role: RoleTypes.Unseen,\r\n                    pokerKey: 0\r\n                }\r\n           ); \r\n        playerNumOf[players[i].name] = i;\r\n        }\r\n        \r\n        living[uint(RoleTypes.Werewolf)]=2;\r\n        living[uint(RoleTypes.Seer)]=1;\r\n        living[uint(RoleTypes.Villager)]=n-3;\r\n\r\n        livingPlayers.length=n+1;\r\n        for(i=1;i<=n;i++){\r\n            livingPlayers[i]=players[i].name;\r\n            theLivingNumOf[players[i].name]=i;\r\n        }\r\n        emit PlayerReady(n);\r\n    }\r\n    \r\n    //2-1 \r\n    //(a)    \r\n    function createCards() public {   \r\n        MPC.length = deck.length = 1+n;\r\n        for(uint i=0; i <= n; i++ ){\r\n            prepareDeck(i);\r\n        }\r\n        for(i=0; i<=n; i++){\r\n            (deck[i][0], deck[i][1]) = multiply(MPC[i], G);\r\n        }\r\n        generateMap(deck[0], RoleTypes.Unseen);\r\n        generateMap(deck[1], RoleTypes.Werewolf);\r\n        generateMap(deck[2], RoleTypes.Werewolf);\r\n        generateMap(deck[3], RoleTypes.Seer);\r\n        for (uint j = 4; j <= n; j++) {\r\n            generateMap(deck[j], RoleTypes.Villager);\r\n        }\r\n    }\r\n    \r\n    //TODO:(b)  \r\n    function shuffleCards() public {\r\n        uint printBack = 0x7717; \r\n        for(uint i=0; i<=n; i++){\r\n            (deck[i][0], deck[i][1]) = multiply(printBack, deck[i]);\r\n        }\r\n        uint[2] memory tmp;\r\n        (tmp[0], tmp[1]) = (deck[2][0], deck[2][1]);\r\n        (deck[2][0], deck[2][1]) = (deck[5][0], deck[5][1]);\r\n        (deck[5][0], deck[5][1]) = (tmp[0], tmp[1]);\r\n    } \r\n\r\n    //TODO: 2-2.  \r\n    function dealCards() public {\r\n        for(uint i=1; i<=n; i++){\r\n            (players[i].hand[0], players[i].hand[1])  \r\n            = (deck[i][0], deck[i][1]);\r\n        }\r\n        helpDecryptRole();\r\n    }\r\n\r\n    function nightKill(address victimName, uint proofCanKill) public {\r\n        uint v = playerNumOf[victimName];\r\n        Player memory victim = players[v];\r\n        require (verify(proofCanKill, victim)==true);\r\n        killed(victimName);\r\n    }\r\n    \r\n    function dayVoting(address name) public {\r\n        \r\n        killed(name);\r\n\r\n    }\r\n\r\n    function openRole(RoleTypes _role, uint _pokerKey) public {\r\n        require(verifyRole(_role, _pokerKey)==true);\r\n        uint i = playerNumOf[msg.sender];\r\n        players[i].role = _role;\r\n        players[i].pokerKey=_pokerKey;\r\n        \r\n        living[uint(_role)]--;\r\n\r\n        if(living[uint(RoleTypes.Werewolf)]==living[uint(RoleTypes.Seer)]+living[uint(RoleTypes.Villager)]){\r\n            winner = \"Werewolves\";\r\n        }\r\n        else if(living[uint(RoleTypes.Werewolf)]==0){\r\n            winner = \"Humans\";\r\n        }\r\n    }\r\n\r\n    function roleOf(uint[2] card) public view returns(uint) {return roleOf[keccak256(card)];}\r\n    function cardOrder() public view returns(uint) {return q;}\r\n    function getHandOf(address name) public view returns(uint[2] hand){\r\n        uint i = playerNumOf[name];\r\n        (hand[0] ,hand[1]) = ((players[i].hand)[0], (players[i].hand)[1]);\r\n    }\r\n\r\n    function numSurvive() public view returns(uint) {return livingPlayers.length-1;}\r\n\r\n    function werewolfFrameKilling(uint[2] framedHand, uint[2] werewolfCard,  uint victim) public view returns(uint[2] _werewolfCard, uint[2] _framedHand, uint _victim, uint[3] T, uint c, uint s){\r\n        return processPoK.forgeProof(werewolfCard, framedHand, victim);\r\n    }\r\n\r\n    function werewolfCard() external view returns(uint cardX,uint cardY){\r\n        (cardX, cardY) = (deck[1][0], deck[1][1]);\r\n    }\r\n    \r\n    function werewolfChooset(uint pokerKey, uint[2][] hands, uint[2] _werewolfCard, uint victim  ) external view returns(uint realt){\r\n\r\n        return processPoK.computeRealt(_werewolfCard, hands, pokerKey, victim);\r\n    }\r\n\r\n    function werewolfComputeT(uint realt, uint[2] _werewolfCard) public view returns(uint[3] realT){\r\n        return processPoK.computeTFrom(realt, _werewolfCard);\r\n    }\r\n\r\n    function computeChallenge(uint[2] _werewolfCard, uint[2][] _hands, uint victim, uint real, uint[3][] Ts) public view returns(uint realChallenge){\r\n        return processPoK.computeChallenge(_werewolfCard, _hands, victim, real, Ts);\r\n    }\r\n\r\n    function werewolfProve(uint pokerKey, uint[2] werewolfCard, uint[2] hand, uint victim, uint tReady,uint cReady) public view returns(uint[2] _werewolfCard, uint[2] _hand, uint _victim, uint[3] T, uint c, uint s){\r\n        return processPoK.createSchnorr(pokerKey, werewolfCard, hand, victim, tReady, cReady);\r\n    }\r\n    function prepareDeck(uint i) internal {\r\n        \r\n        MPC[ i ] = (i+123) % q;\r\n        //avoid use 0. function toZ1 revert at point at infinity\r\n    \r\n    }\r\n    \r\n    function helpDecryptRole() internal {\r\n        for(uint i=1; i<=n; i++){\r\n        \tuint[2] storage hand = players[i].hand;\r\n        \thand[0] ++;\r\n        } \r\n    }\r\n\r\n    function killed(address player) internal{\r\n        uint i = playerNumOf[player];\r\n        players[i].live=false;\r\n        uint j= theLivingNumOf[player];\r\n        \r\n        for(uint k=j; k<= livingPlayers.length-2 ; k++){\r\n            livingPlayers[k] = livingPlayers[k+1];\r\n            theLivingNumOf[livingPlayers[k]]--;\r\n        }\r\n        livingPlayers.length--;\r\n        theLivingNumOf[player]=0;\r\n    }\r\n\r\n\r\n    function multiply(uint s, uint[2] point) internal returns(uint ,uint){\r\n        uint[3] memory result = Secp256k1_noconflict._mul(s, point);\r\n        ECCMath_noconflict.toZ1(result, p);\r\n        return (result[0],result[1]);\r\n    }\r\n\r\n    function generateMap(uint[2] card, RoleTypes role) internal {\r\n        \r\n        roleOf[keccak256(card)] = uint(role);\r\n    \r\n    }\r\n\r\n    function verifyRole(RoleTypes _role, uint _pokerKey) pure internal returns(bool){\r\n        \r\n        return (_role!=RoleTypes.Unseen && _pokerKey==456);\r\n    \r\n    }\r\n    \r\n    function verify(uint proofCanKill, Player victim) pure internal returns(bool){\r\n        \r\n        return proofCanKill == 123 && victim.live == true;\r\n    }\r\n    \r\n    enum RoleTypes{Unseen, Werewolf, Seer, Villager}\r\n    \r\n    struct Player{\r\n        address name;\r\n        bool live;\r\n        uint[2] hand;\r\n        RoleTypes role;\r\n        uint pokerKey;\r\n    }\r\n\r\n   struct KillConditions{\r\n        uint iAmWerewolf;\r\n        uint iAmLive;\r\n        uint victimLive;\r\n    }\r\n    \r\n    event PlayerReady(uint numPlayers);\r\n   \r\n    event debug(uint i);\r\n}",
  "sourcePath": "C:\\Users\\eason\\Documents\\GitHub\\SmartWerewolf\\contracts\\SmartWerewolf.sol",
  "compiler": {
    "name": "solc",
    "version": "0.4.21+commit.dfe3193c.Emscripten.clang"
  },
  "schemaVersion": "2.0.0",
  "updatedAt": "2018-04-29T23:34:14.861Z"
}