{
  "contractName": "SmartWerewolf",
  "abi": [
    {
      "constant": true,
      "inputs": [],
      "name": "n",
      "outputs": [
        {
          "name": "",
          "type": "uint256"
        }
      ],
      "payable": false,
      "stateMutability": "view",
      "type": "function"
    },
    {
      "constant": true,
      "inputs": [
        {
          "name": "",
          "type": "address"
        }
      ],
      "name": "playerNumOf",
      "outputs": [
        {
          "name": "",
          "type": "uint256"
        }
      ],
      "payable": false,
      "stateMutability": "view",
      "type": "function"
    },
    {
      "constant": true,
      "inputs": [
        {
          "name": "",
          "type": "address"
        }
      ],
      "name": "theLivingNumOf",
      "outputs": [
        {
          "name": "",
          "type": "uint256"
        }
      ],
      "payable": false,
      "stateMutability": "view",
      "type": "function"
    },
    {
      "constant": true,
      "inputs": [
        {
          "name": "",
          "type": "bytes32"
        }
      ],
      "name": "roleOf",
      "outputs": [
        {
          "name": "",
          "type": "uint256"
        }
      ],
      "payable": false,
      "stateMutability": "view",
      "type": "function"
    },
    {
      "constant": true,
      "inputs": [
        {
          "name": "",
          "type": "uint256"
        },
        {
          "name": "",
          "type": "uint256"
        }
      ],
      "name": "deck",
      "outputs": [
        {
          "name": "",
          "type": "uint256"
        }
      ],
      "payable": false,
      "stateMutability": "view",
      "type": "function"
    },
    {
      "constant": true,
      "inputs": [
        {
          "name": "",
          "type": "uint256"
        }
      ],
      "name": "livingPlayers",
      "outputs": [
        {
          "name": "",
          "type": "address"
        }
      ],
      "payable": false,
      "stateMutability": "view",
      "type": "function"
    },
    {
      "constant": true,
      "inputs": [],
      "name": "winner",
      "outputs": [
        {
          "name": "",
          "type": "string"
        }
      ],
      "payable": false,
      "stateMutability": "view",
      "type": "function"
    },
    {
      "constant": true,
      "inputs": [
        {
          "name": "",
          "type": "uint256"
        }
      ],
      "name": "living",
      "outputs": [
        {
          "name": "",
          "type": "uint256"
        }
      ],
      "payable": false,
      "stateMutability": "view",
      "type": "function"
    },
    {
      "constant": true,
      "inputs": [
        {
          "name": "",
          "type": "uint256"
        }
      ],
      "name": "players",
      "outputs": [
        {
          "name": "name",
          "type": "address"
        },
        {
          "name": "live",
          "type": "bool"
        },
        {
          "name": "role",
          "type": "uint8"
        },
        {
          "name": "pokerKey",
          "type": "uint256"
        }
      ],
      "payable": false,
      "stateMutability": "view",
      "type": "function"
    },
    {
      "constant": true,
      "inputs": [
        {
          "name": "",
          "type": "address"
        }
      ],
      "name": "deposits",
      "outputs": [
        {
          "name": "",
          "type": "uint256"
        }
      ],
      "payable": false,
      "stateMutability": "view",
      "type": "function"
    },
    {
      "constant": true,
      "inputs": [],
      "name": "q",
      "outputs": [
        {
          "name": "",
          "type": "uint256"
        }
      ],
      "payable": false,
      "stateMutability": "view",
      "type": "function"
    },
    {
      "inputs": [
        {
          "name": "addressPoK",
          "type": "address"
        }
      ],
      "payable": false,
      "stateMutability": "nonpayable",
      "type": "constructor"
    },
    {
      "anonymous": false,
      "inputs": [
        {
          "indexed": false,
          "name": "i",
          "type": "uint256"
        }
      ],
      "name": "debug",
      "type": "event"
    },
    {
      "anonymous": false,
      "inputs": [
        {
          "indexed": true,
          "name": "outPlayerNum",
          "type": "uint256"
        },
        {
          "indexed": false,
          "name": "outPlayerName",
          "type": "address"
        },
        {
          "indexed": false,
          "name": "outPlayerLive",
          "type": "bool"
        },
        {
          "indexed": false,
          "name": "outPlayerHand",
          "type": "uint256[2]"
        },
        {
          "indexed": false,
          "name": "outPlayerRole",
          "type": "uint8"
        },
        {
          "indexed": false,
          "name": "outPlayerKey",
          "type": "uint256"
        }
      ],
      "name": "JoinPlayer",
      "type": "event"
    },
    {
      "anonymous": false,
      "inputs": [
        {
          "indexed": true,
          "name": "outPlayerName",
          "type": "address"
        },
        {
          "indexed": false,
          "name": "outValue",
          "type": "uint256"
        }
      ],
      "name": "Deposit",
      "type": "event"
    },
    {
      "anonymous": false,
      "inputs": [
        {
          "indexed": false,
          "name": "numPlayers",
          "type": "uint256"
        }
      ],
      "name": "PlayerReady",
      "type": "event"
    },
    {
      "anonymous": false,
      "inputs": [
        {
          "indexed": true,
          "name": "livingPlayerNum",
          "type": "uint256"
        },
        {
          "indexed": false,
          "name": "livingPlayerName",
          "type": "address"
        }
      ],
      "name": "RegLivingPlayer",
      "type": "event"
    },
    {
      "anonymous": false,
      "inputs": [
        {
          "indexed": false,
          "name": "outLiving",
          "type": "uint256[4]"
        }
      ],
      "name": "RegLivingRole",
      "type": "event"
    },
    {
      "constant": false,
      "inputs": [],
      "name": "quickDepositGame",
      "outputs": [],
      "payable": true,
      "stateMutability": "payable",
      "type": "function"
    },
    {
      "constant": false,
      "inputs": [
        {
          "name": "_players",
          "type": "address[]"
        }
      ],
      "name": "engagement",
      "outputs": [],
      "payable": false,
      "stateMutability": "nonpayable",
      "type": "function"
    },
    {
      "constant": false,
      "inputs": [
        {
          "name": "inPlayerNames",
          "type": "address[]"
        }
      ],
      "name": "quickEngagePlayers",
      "outputs": [],
      "payable": false,
      "stateMutability": "nonpayable",
      "type": "function"
    },
    {
      "constant": false,
      "inputs": [],
      "name": "createCards",
      "outputs": [],
      "payable": false,
      "stateMutability": "nonpayable",
      "type": "function"
    },
    {
      "constant": true,
      "inputs": [
        {
          "name": "i",
          "type": "uint256"
        },
        {
          "name": "inMPC",
          "type": "uint256"
        }
      ],
      "name": "quickCreateCard",
      "outputs": [
        {
          "name": "outCard",
          "type": "uint256[2]"
        },
        {
          "name": "cardNum",
          "type": "uint256"
        },
        {
          "name": "roleNum",
          "type": "uint256"
        }
      ],
      "payable": false,
      "stateMutability": "view",
      "type": "function"
    },
    {
      "constant": false,
      "inputs": [],
      "name": "shuffleCards",
      "outputs": [],
      "payable": false,
      "stateMutability": "nonpayable",
      "type": "function"
    },
    {
      "constant": false,
      "inputs": [
        {
          "name": "i",
          "type": "uint256"
        },
        {
          "name": "pokerKey",
          "type": "uint256"
        }
      ],
      "name": "shuffleCardBy",
      "outputs": [],
      "payable": false,
      "stateMutability": "nonpayable",
      "type": "function"
    },
    {
      "constant": true,
      "inputs": [
        {
          "name": "i",
          "type": "uint256"
        },
        {
          "name": "pokerKey",
          "type": "uint256"
        },
        {
          "name": "inDeck",
          "type": "uint256[2][]"
        },
        {
          "name": "numCards",
          "type": "uint256"
        }
      ],
      "name": "quickShuffleCardBy",
      "outputs": [
        {
          "name": "outDeck",
          "type": "uint256[2][]"
        }
      ],
      "payable": false,
      "stateMutability": "view",
      "type": "function"
    },
    {
      "constant": false,
      "inputs": [],
      "name": "dealCards",
      "outputs": [],
      "payable": false,
      "stateMutability": "nonpayable",
      "type": "function"
    },
    {
      "constant": true,
      "inputs": [
        {
          "name": "i",
          "type": "uint256"
        }
      ],
      "name": "dealCardTo",
      "outputs": [
        {
          "name": "hand",
          "type": "uint256[2]"
        }
      ],
      "payable": false,
      "stateMutability": "view",
      "type": "function"
    },
    {
      "constant": false,
      "inputs": [
        {
          "name": "victimName",
          "type": "address"
        },
        {
          "name": "proofCanKill",
          "type": "uint256"
        }
      ],
      "name": "nightKill",
      "outputs": [],
      "payable": false,
      "stateMutability": "nonpayable",
      "type": "function"
    },
    {
      "constant": false,
      "inputs": [
        {
          "name": "name",
          "type": "address"
        }
      ],
      "name": "dayVoting",
      "outputs": [],
      "payable": false,
      "stateMutability": "nonpayable",
      "type": "function"
    },
    {
      "constant": false,
      "inputs": [
        {
          "name": "_role",
          "type": "uint8"
        },
        {
          "name": "_pokerKey",
          "type": "uint256"
        }
      ],
      "name": "openRole",
      "outputs": [],
      "payable": false,
      "stateMutability": "nonpayable",
      "type": "function"
    },
    {
      "constant": true,
      "inputs": [
        {
          "name": "s",
          "type": "uint256"
        },
        {
          "name": "point",
          "type": "uint256[2]"
        }
      ],
      "name": "multiply",
      "outputs": [
        {
          "name": "",
          "type": "uint256"
        },
        {
          "name": "",
          "type": "uint256"
        }
      ],
      "payable": false,
      "stateMutability": "view",
      "type": "function"
    },
    {
      "constant": true,
      "inputs": [
        {
          "name": "card",
          "type": "uint256[2]"
        }
      ],
      "name": "checkRoleOf",
      "outputs": [
        {
          "name": "",
          "type": "uint256"
        }
      ],
      "payable": false,
      "stateMutability": "view",
      "type": "function"
    },
    {
      "constant": true,
      "inputs": [
        {
          "name": "name",
          "type": "address"
        }
      ],
      "name": "getHandOf",
      "outputs": [
        {
          "name": "hand",
          "type": "uint256[2]"
        }
      ],
      "payable": false,
      "stateMutability": "view",
      "type": "function"
    },
    {
      "constant": true,
      "inputs": [],
      "name": "numSurvive",
      "outputs": [
        {
          "name": "",
          "type": "uint256"
        }
      ],
      "payable": false,
      "stateMutability": "view",
      "type": "function"
    },
    {
      "constant": true,
      "inputs": [],
      "name": "werewolfCard",
      "outputs": [
        {
          "name": "cardX",
          "type": "uint256"
        },
        {
          "name": "cardY",
          "type": "uint256"
        }
      ],
      "payable": false,
      "stateMutability": "view",
      "type": "function"
    },
    {
      "constant": true,
      "inputs": [
        {
          "name": "card",
          "type": "uint256[2]"
        }
      ],
      "name": "hashCard",
      "outputs": [
        {
          "name": "",
          "type": "uint256"
        }
      ],
      "payable": false,
      "stateMutability": "pure",
      "type": "function"
    },
    {
      "constant": true,
      "inputs": [],
      "name": "cardOrder",
      "outputs": [
        {
          "name": "",
          "type": "uint256"
        }
      ],
      "payable": false,
      "stateMutability": "pure",
      "type": "function"
    },
    {
      "constant": true,
      "inputs": [
        {
          "name": "framedHand",
          "type": "uint256[2]"
        },
        {
          "name": "_werewolfCard",
          "type": "uint256[2]"
        },
        {
          "name": "victim",
          "type": "uint256"
        }
      ],
      "name": "werewolfFrameKilling",
      "outputs": [
        {
          "name": "__werewolfCard",
          "type": "uint256[2]"
        },
        {
          "name": "_framedHand",
          "type": "uint256[2]"
        },
        {
          "name": "_victim",
          "type": "uint256"
        },
        {
          "name": "T",
          "type": "uint256[3]"
        },
        {
          "name": "c",
          "type": "uint256"
        },
        {
          "name": "s",
          "type": "uint256"
        }
      ],
      "payable": false,
      "stateMutability": "view",
      "type": "function"
    },
    {
      "constant": true,
      "inputs": [
        {
          "name": "pokerKey",
          "type": "uint256"
        },
        {
          "name": "hands",
          "type": "uint256[2][]"
        },
        {
          "name": "_werewolfCard",
          "type": "uint256[2]"
        },
        {
          "name": "victim",
          "type": "uint256"
        }
      ],
      "name": "werewolfChooset",
      "outputs": [
        {
          "name": "realt",
          "type": "uint256"
        }
      ],
      "payable": false,
      "stateMutability": "view",
      "type": "function"
    },
    {
      "constant": true,
      "inputs": [
        {
          "name": "realt",
          "type": "uint256"
        },
        {
          "name": "_werewolfCard",
          "type": "uint256[2]"
        }
      ],
      "name": "werewolfComputeT",
      "outputs": [
        {
          "name": "realT",
          "type": "uint256[3]"
        }
      ],
      "payable": false,
      "stateMutability": "view",
      "type": "function"
    },
    {
      "constant": true,
      "inputs": [
        {
          "name": "_werewolfCard",
          "type": "uint256[2]"
        },
        {
          "name": "_hands",
          "type": "uint256[2][]"
        },
        {
          "name": "victim",
          "type": "uint256"
        },
        {
          "name": "Ts",
          "type": "uint256[3][]"
        }
      ],
      "name": "computeChallenge",
      "outputs": [
        {
          "name": "realChallenge",
          "type": "uint256"
        }
      ],
      "payable": false,
      "stateMutability": "view",
      "type": "function"
    },
    {
      "constant": true,
      "inputs": [
        {
          "name": "pokerKey",
          "type": "uint256"
        },
        {
          "name": "_werewolfCard",
          "type": "uint256[2]"
        },
        {
          "name": "hand",
          "type": "uint256[2]"
        },
        {
          "name": "victim",
          "type": "uint256"
        },
        {
          "name": "tReady",
          "type": "uint256"
        },
        {
          "name": "cReady",
          "type": "uint256"
        }
      ],
      "name": "werewolfProve",
      "outputs": [
        {
          "name": "__werewolfCard",
          "type": "uint256[2]"
        },
        {
          "name": "_hand",
          "type": "uint256[2]"
        },
        {
          "name": "_victim",
          "type": "uint256"
        },
        {
          "name": "T",
          "type": "uint256[3]"
        },
        {
          "name": "c",
          "type": "uint256"
        },
        {
          "name": "s",
          "type": "uint256"
        }
      ],
      "payable": false,
      "stateMutability": "view",
      "type": "function"
    },
    {
      "constant": true,
      "inputs": [
        {
          "name": "_werewolfCard",
          "type": "uint256[2]"
        },
        {
          "name": "hand",
          "type": "uint256[2]"
        },
        {
          "name": "T",
          "type": "uint256[3]"
        },
        {
          "name": "c",
          "type": "uint256"
        },
        {
          "name": "s",
          "type": "uint256"
        }
      ],
      "name": "verifyWerewolfProof",
      "outputs": [
        {
          "name": "result",
          "type": "bool"
        }
      ],
      "payable": false,
      "stateMutability": "view",
      "type": "function"
    },
    {
      "constant": true,
      "inputs": [
        {
          "name": "card",
          "type": "uint256[2]"
        },
        {
          "name": "role",
          "type": "uint8"
        }
      ],
      "name": "quickGenerateMap",
      "outputs": [
        {
          "name": "cardNum",
          "type": "uint256"
        },
        {
          "name": "roleNum",
          "type": "uint256"
        }
      ],
      "payable": false,
      "stateMutability": "pure",
      "type": "function"
    },
    {
      "constant": true,
      "inputs": [
        {
          "name": "i",
          "type": "uint256"
        }
      ],
      "name": "quickPrepareDeck",
      "outputs": [
        {
          "name": "outMPC",
          "type": "uint256"
        }
      ],
      "payable": false,
      "stateMutability": "view",
      "type": "function"
    },
    {
      "constant": true,
      "inputs": [
        {
          "name": "me",
          "type": "uint256"
        },
        {
          "name": "pokerKey",
          "type": "uint256"
        },
        {
          "name": "i",
          "type": "uint256"
        },
        {
          "name": "cipherCard",
          "type": "uint256[2]"
        }
      ],
      "name": "helpDecryptRole",
      "outputs": [
        {
          "name": "decryptCard",
          "type": "uint256[2]"
        }
      ],
      "payable": false,
      "stateMutability": "view",
      "type": "function"
    },
    {
      "constant": true,
      "inputs": [
        {
          "name": "me",
          "type": "uint256"
        },
        {
          "name": "pokerKey",
          "type": "uint256"
        },
        {
          "name": "cipherCard",
          "type": "uint256[2]"
        }
      ],
      "name": "recoverRole",
      "outputs": [
        {
          "name": "decryptCard",
          "type": "uint256[2]"
        }
      ],
      "payable": false,
      "stateMutability": "view",
      "type": "function"
    }
  ],
  "bytecode": "0x608060405234801561001057600080fd5b50604051602080613d57833981016040525160008054600160a060020a031916600160a060020a0383161781557f79be667ef9dcbbac55a06295ce870b07029bfcdb2dce28d959f2815b16f8179890600501557f483ada7726a3c4655da4fbfc0e1108a8fd17b448a68554199c47d08ffb10d4b860056001015550613cbd8061009a6000396000f3006080604052600436106101df5763ffffffff60e060020a600035041663076d968081146101e457806307f7470b1461023b5780630cbee0e3146102e05780631053dad1146103ed57806314a9a1211461043f5780632e52d6061461049b578063313ffac1146104b05780633e5a438d146104d9578063474ab93c1461054b5780634ef3ea741461056657806352f9aaea1461058757806354054cd5146105e3578063568bd63e1461060457806358801f17146106195780635c56e5081461062e5780636e6ac9c614610643578063848862691461065b5780638c3b02d8146106735780638c785f881461070f5780639a01967814610724578063a15352d514610748578063a4f195aa14610750578063ab2778331461076e578063acb2c01a1461078e578063ad3b99a4146107a3578063b77d1268146107f8578063c0cb6b2414610919578063c52e3e4a14610971578063d34544cd14610989578063d5b1de7e146109a4578063d6ffa29a146109e4578063d9e0bf4e146109f9578063dfbf53ae14610a2d578063eb28808114610ab7578063eb47688c14610acf578063f292c21514610aec578063f4d40d2614610b31578063f6ac71cd14610b93578063f71d96cb14610bb4578063fc7e286d14610c10578063fd3ab28214610c31575b600080fd5b3480156101f057600080fd5b506040805160206004803580820135838102808601850190965280855261023995369593946024949385019291829185019084908082843750949750610c469650505050505050565b005b34801561024757600080fd5b506040805180820182526102cc91369160049160449190839060029083908390808284375050604080518082018252949796958181019594509250600291508390839080828437505060408051606081810190925294979695818101959450925060039150839083908082843750939650508335945050506020909101359050610ecd565b604080519115158252519081900360200190f35b3480156102ec57600080fd5b5060408051808201825261034591369160049160449190839060029083908390808284375050604080518082018252949796958181019594509250600291508390839080828437509396505092359350610ff992505050565b6040518087600260200280838360005b8381101561036d578181015183820152602001610355565b5050505090500186600260200280838360005b83811015610398578181015183820152602001610380565b5050505090500185815260200184600360200280838360005b838110156103c95781810151838201526020016103b1565b50505050905001838152602001828152602001965050505050505060405180910390f35b3480156103f957600080fd5b5060408051808201825261042d91369160049160449190839060029083908390808284375093965061113e95505050505050565b60408051918252519081900360200190f35b34801561044b57600080fd5b5060408051808201825261048291600480359236926064919060249060029083908390808284375093965061118395505050505050565b6040805192835260208301919091528051918290030190f35b3480156104a757600080fd5b5061042d6111bd565b3480156104bc57600080fd5b5061042d60048035906024803590810191013560446084356111c3565b3480156104e557600080fd5b50604080518082018252610345916004803592369260649190602490600290839083908082843750506040805180820182529497969581810195945092506002915083908390808284375093965050833594505050602082013591604001359050611269565b34801561055757600080fd5b506102396004356024356113c7565b34801561057257600080fd5b5061042d600160a060020a0360043516611480565b34801561059357600080fd5b506105a8600160a060020a0360043516611492565b6040518082600260200280838360005b838110156105d05781810151838201526020016105b8565b5050505090500191505060405180910390f35b3480156105ef57600080fd5b5061042d600160a060020a0360043516611504565b34801561061057600080fd5b50610482611516565b34801561062557600080fd5b50610239611566565b34801561063a57600080fd5b50610239611720565b34801561064f57600080fd5b5061042d600435611990565b34801561066757600080fd5b5061042d6004356119a2565b34801561067f57600080fd5b5061069e600480359060248035916044359182019101356064356119bf565b60405180806020018281038252838181518152602001915080516000925b818410156106fe57602080850284010151604080838360005b838110156106ed5781810151838201526020016106d5565b5050505090500192600101926106bc565b925050509250505060405180910390f35b34801561071b57600080fd5b5061042d611a9d565b34801561073057600080fd5b50610239600160a060020a0360043516602435611ab4565b610239611bb2565b34801561075c57600080fd5b5061023960ff60043516602435611c06565b34801561077a57600080fd5b506105a86004356024356044356064611d6f565b34801561079a57600080fd5b5061042d611deb565b3480156107af57600080fd5b506040805160206004803580820135838102808601850190965280855261023995369593946024949385019291829185019084908082843750949750611df59650505050505050565b34801561080457600080fd5b5060408051808201825261042d913691600491604491908390600290839083908082843750506040805186358801803560208181028401810190945280835296999897830196919550820193509150819060009085015b8282101561089457604080518082018252908084028701906002908390839080828437505050918352505060019091019060200161085b565b50506040805160208088013589018035808302840183018552808452979a89359a90999098940196509194509081019250819060009085015b828210156109095760408051606081810190925290808402870190600390839083908082843750505091835250506001909101906020016108cd565b5093965061226d95505050505050565b34801561092557600080fd5b5060408051808201825261095c9160048035923692606491906024906002908390839080828437509396506123fb95505050505050565b604051815181528082606080838360206105b8565b34801561097d57600080fd5b506105a86004356124ce565b34801561099557600080fd5b5061042d600435602435612523565b3480156109b057600080fd5b5060408051808201825261042d91369160049160449190839060029083908390808284375093965061255595505050505050565b3480156109f057600080fd5b506102396125ae565b348015610a0557600080fd5b50610a1160043561265c565b60408051600160a060020a039092168252519081900360200190f35b348015610a3957600080fd5b50610a42612684565b6040805160208082528351818301528351919283929083019185019080838360005b83811015610a7c578181015183820152602001610a64565b50505050905090810190601f168015610aa95780820380516001836020036101000a031916815260200191505b509250505060405180910390f35b348015610ac357600080fd5b5061042d600435612712565b348015610adb57600080fd5b506105a86004356024356044612726565b348015610af857600080fd5b506040805180820182526104829136916004916044919083906002908390839080828437509396505050913560ff169250612785915050565b348015610b3d57600080fd5b50610b4c6004356024356127de565b6040518084600260200280838360005b83811015610b74578181015183820152602001610b5c565b5050505091909101938452505060208201526040805191829003019150f35b348015610b9f57600080fd5b50610239600160a060020a036004351661287e565b348015610bc057600080fd5b50610bcc600435612887565b60408051600160a060020a03861681528415156020820152908101836003811115610bf357fe5b60ff16815260200182815260200194505050505060405180910390f35b348015610c1c57600080fd5b5061042d600160a060020a03600435166128d1565b348015610c3d57600080fd5b5061042d6128e3565b60006006825110151515610c5957600080fd5b81516004819055600190810190610c7090826139ef565b50600190505b6004548111610dea5760a0604051908101604052808360018403815181101515610c9c57fe5b6020908102909101810151600160a060020a03168252600182820152604080518082018252600080825292810183905290830152606090910190815260006020909101526001805483908110610cee57fe5b60009182526020918290208351600590920201805492840151151560a060020a0274ff000000000000000000000000000000000000000019600160a060020a0390931673ffffffffffffffffffffffffffffffffffffffff1990941693909317919091169190911781556040820151610d6d9060018301906002613a1b565b5060608201518160030160006101000a81548160ff02191690836003811115610d9257fe5b0217905550608082015181600401559050508060076000600184815481101515610db857fe5b60009182526020808320600590920290910154600160a060020a03168352820192909252604001902055600101610c76565b6002600b556001600c8190556004546002198101600d5501610e0d600e82613a59565b50600190505b6004548111610ec9576001805482908110610e2a57fe5b6000918252602090912060059091020154600e8054600160a060020a039092169183908110610e5557fe5b9060005260206000200160006101000a815481600160a060020a030219169083600160a060020a0316021790555080600f6000600184815481101515610e9757fe5b60009182526020808320600590920290910154600160a060020a03168352820192909252604001902055600101610e13565b5050565b60008054604080517f2b0c1aba000000000000000000000000000000000000000000000000000000008152600160a060020a0390921691632b0c1aba918991899189918991899160040190819087908083838e5b83811015610f39578181015183820152602001610f21565b5050505090500185600260200280838360005b83811015610f64578181015183820152602001610f4c565b5050505090500184600360200280838360005b83811015610f8f578181015183820152602001610f77565b5050505090500183815260200182815260200195505050505050602060405180830381600087803b158015610fc357600080fd5b505af1158015610fd7573d6000803e3d6000fd5b505050506040513d6020811015610fed57600080fd5b50519695505050505050565b611001613a7d565b611009613a7d565b6000611013613a98565b60008054604080517fa2cf93080000000000000000000000000000000000000000000000000000000081528392600160a060020a03169163a2cf9308918b918d918c91600490910190819085908083838c5b8381101561107d578181015183820152602001611065565b5050505090500183600260200280838360005b838110156110a8578181015183820152602001611090565b50505050905001828152602001935050505061014060405180830381600087803b1580156110d557600080fd5b505af11580156110e9573d6000803e3d6000fd5b505050506040513d601f19601f8201168201806040525061014081101561110f57600080fd5b506080810151610100820151610120830151929c60408e019c50919a5060a08d01995097509095509350505050565b6000816040518082600260200280838360005b83811015611169578181015183820152602001611151565b505060405192909401829003909120979650505050505050565b60008061118e613a98565b61119885856128f9565b90506111aa816401000003d019612d31565b8051602090910151909590945092505050565b60045481565b60008054604080517fb7331865000000000000000000000000000000000000000000000000000000008152600160a060020a039092169163b7331865918691899189918c918991600401908190879080828437820191505080602001848152602001838152602001828103825286868281815260200192506040028082843782019150509650505050505050602060405180830381600087803b158015610fc357600080fd5b611271613a7d565b611279613a7d565b6000611283613a98565b6000806000809054906101000a9004600160a060020a0316600160a060020a031663d4540ff78d8d8d8d8d8d6040518763ffffffff1660e060020a0281526004018087815260200186600260200280838360005b838110156112ef5781810151838201526020016112d7565b5050505090500185600260200280838360005b8381101561131a578181015183820152602001611302565b50505050905001848152602001838152602001828152602001965050505050505061014060405180830381600087803b15801561135657600080fd5b505af115801561136a573d6000803e3d6000fd5b505050506040513d601f19601f8201168201806040525061014081101561139057600080fd5b50608081015161010082015161012083015192985060408901975090955060a0880194509250905096509650965096509650969050565b8060005b600454811161147a57611427826003838154811015156113e757fe5b600091825260209091206040805180820191829052926002908102909201919082845b81548152602001906001019080831161140a575050505050611183565b600380548490811061143557fe5b60009182526020822060029091020101600060038581548110151561145657fe5b600091825260209091206002909102016001019290925591909155506001016113cb565b50505050565b60076020526000908152604090205481565b61149a613a7d565b600160a060020a03821660009081526007602052604090205460018054829081106114c157fe5b600091825260208220600160059092020101015460018054839081106114e357fe5b60009182526020918290206002600590920201015490840152825250919050565b600f6020526000908152604090205481565b6000806003600181548110151561152957fe5b600091825260208220600290910201015460038054600190811061154957fe5b600091825260209091206002909102016001015490939092509050565b600080611571613a7d565b6177179250600091505b60045482116115ed57611597836003848154811015156113e757fe5b60038054859081106115a557fe5b6000918252602082206002909102010160006003868154811015156115c657fe5b6000918252602090912060029091020160010192909255919091555060019091019061157b565b6003805460029081106115fc57fe5b600091825260208220600290910201015460038054600290811061161c57fe5b60009182526020918290206001600290920201015490830152815260038054600590811061164657fe5b600091825260208220600290910201015460038054600590811061166657fe5b600091825260209091206002909102016001015460038054600290811061168957fe5b600091825260208220600290910201016000600360028154811015156116ab57fe5b60009182526020918290206001600290920201019390935550919091558151908201516003805460059081106116dd57fe5b600091825260208220600290910201016000600360058154811015156116ff57fe5b60009182526020909120600290910201600101929092559190915550505050565b6000806004546001016003816117369190613ab7565b611741600282613a59565b50600091505b60045482116117645761175982612d9d565b600190910190611747565b600091505b6004548211611816576117c060028381548110151561178457fe5b6000918252602091829020015460408051808201918290526005805482529293909291600291600690850180831161140a575050505050611183565b60038054859081106117ce57fe5b6000918252602082206002909102010160006003868154811015156117ef57fe5b60009182526020909120600290910201600101929092559190915550600190910190611769565b61186b6003600081548110151561182957fe5b600091825260209091206040805180820191829052926002908102909201919082845b81548152602001906001019080831161184c5750505050506000612dd3565b6118c06003600181548110151561187e57fe5b600091825260209091206040805180820191829052926002908102909201919082845b8154815260200190600101908083116118a15750505050506001612dd3565b6118d36003600281548110151561187e57fe5b6119276003808154811015156118e557fe5b600091825260209091206040805180820191829052926002908102909201919082845b8154815260200190600101908083116119085750505050506002612dd3565b5060045b6004548111610ec95761198860038281548110151561194657fe5b600091825260209091206040805180820191829052926002908102909201919082845b8154815260200190600101908083116119695750505050506003612dd3565b60010161192b565b60086020526000908152604090205481565b70014551231950b75fc4402da1732fc9bebe19607b919091010690565b606060008086915083600101604051908082528060200260200182016040528015611a0457816020015b6119f1613a7d565b8152602001906001900390816119e95790505b509250600090505b838111611a9257611a5182878784818110611a2357fe5b9050604002016002806020026040519081016040528092919082600260200280828437506111839350505050565b8483815181101515611a5f57fe5b60209081029190910101518551869085908110611a7857fe5b602090810291909101810151019190915252600101611a0c565b505095945050505050565b70014551231950b75fc4402da1732fc9bebe195b90565b6000611abe613ae3565b600160a060020a038416600090815260076020526040902054600180549193509083908110611ae957fe5b60009182526020918290206040805160a0810182526005939093029091018054600160a060020a038116845260a060020a900460ff16151593830193909352805180820180835292939291840191600184019060029082845b815481526020019060010190808311611b4257505050918352505060038281015460209092019160ff1690811115611b7657fe5b6003811115611b8157fe5b81526020016004820154815250509050611b9b8382612e34565b1515600114611ba957600080fd5b61147a84612e53565b600160a060020a0333166000818152600960209081526040918290203490819055825190815291517fe1fffcc4923d04b559f4d29a8bfc6cda04eb5b0d3c460751c2402c5c5cc9109c9281900390910190a2565b6000611c128383612fc5565b1515600114611c2057600080fd5b50600160a060020a0333166000908152600760205260409020546001805484919083908110611c4b57fe5b906000526020600020906005020160030160006101000a81548160ff02191690836003811115611c7757fe5b021790555081600182815481101515611c8c57fe5b906000526020600020906005020160040181905550600a836003811115611caf57fe5b60048110611cb957fe5b018054600019019055600d54600c54600b5491011415611d1d5760408051808201909152600a8082527f57657265776f6c766573000000000000000000000000000000000000000000006020909201918252611d1791601091613b16565b50611d6a565b600b541515611d6a576040805180820190915260068082527f48756d616e730000000000000000000000000000000000000000000000000000602090920191825261147a91601091613b16565b505050565b611d77613a7d565b600083861415611d94576020808401359083015282358252611de2565b611db08570014551231950b75fc4402da1732fc9bebe19612fe7565b604080518082018252919250611dda91839186906002908390839080828437506111839350505050565b602084015282525b50949350505050565b600e546000190190565b6000806006835110151515611e0957600080fd5b600091505b8251821015611e65578282815181101515611e2557fe5b6020908102909101810151600160a060020a0381166000908152600990925260409091205490915060641115611e5a57600080fd5b600190910190611e0e565b82516004819055600190810190611e7c90826139ef565b50600191505b60045482116121ae5760a0604051908101604052808460018503815181101515611ea857fe5b6020908102909101810151600160a060020a03168252600182820152604080518082018252600080825292810183905290830152606090910190815260006020909101526001805484908110611efa57fe5b60009182526020918290208351600590920201805492840151151560a060020a0274ff000000000000000000000000000000000000000019600160a060020a0390931673ffffffffffffffffffffffffffffffffffffffff1990941693909317919091169190911781556040820151611f799060018301906002613a1b565b5060608201518160030160006101000a81548160ff02191690836003811115611f9e57fe5b021790555060808201518160040155905050817f03cf42e4797686930ef09f709f5bb470696c17d58255a88600d589f2090ba601600184815481101515611fe157fe5b600091825260209091206005909102015460018054600160a060020a03909216918690811061200c57fe5b906000526020600020906005020160000160149054906101000a900460ff16604080519081016040528060018881548110151561204557fe5b6000918252602082206001600590920201010154815260200160018881548110151561206d57fe5b60009182526020909120600260059092020101549052600180548890811061209157fe5b60009182526020909120600360059092020101546001805460ff90921691899081106120b957fe5b9060005260206000209060050201600401546040518086600160a060020a0316600160a060020a031681526020018515151515815260200184600260200280838360005b838110156121155781810151838201526020016120fd565b5050505090500183600381111561212857fe5b60ff1681526020018281526020019550505050505060405180910390a2817f9dc64552b3ef4f55429327ed20ed329cde6b51b38f1226e773cbcf2c29093e4460018481548110151561217657fe5b60009182526020918290206005909102015460408051600160a060020a039092168252519081900390910190a2600190910190611e82565b7f1f53875f11d5a712b4c4f66780cd6f618f624c4794dcf513a29fddadd299a9d56080604051908101604052806000815260200160028152602001600181526020016003600454038152506040518082600460200280838360005b83811015612221578181015183820152602001612209565b5050505090500191505060405180910390a160045460408051918252517f0475fa33e711a0d11030b454020a5f7c806520bdc5d7a1fcb9accde610a00f249181900360200190a1505050565b60008054604080517fb77d1268000000000000000000000000000000000000000000000000000000008152600160a060020a039092169163b77d1268918891889188918891600490910190819086908083838d5b838110156122d95781810151838201526020016122c1565b5050505090500180602001848152602001806020018381038352868181518152602001915080516000925b8184101561234657602080850284010151604080838360005b8381101561233557818101518382015260200161231d565b505050509050019260010192612304565b86810385528751815287516000945088935091506020015b818410156123a057602080850284010151606080838360005b8381101561238f578181015183820152602001612377565b50505050905001926001019261235e565b925050509650505050505050602060405180830381600087803b1580156123c657600080fd5b505af11580156123da573d6000803e3d6000fd5b505050506040513d60208110156123f057600080fd5b505195945050505050565b612403613a98565b6000809054906101000a9004600160a060020a0316600160a060020a03166383242e9084846040518363ffffffff1660e060020a0281526004018083815260200182600260200280838360005b83811015612468578181015183820152602001612450565b5050505090500192505050606060405180830381600087803b15801561248d57600080fd5b505af11580156124a1573d6000803e3d6000fd5b505050506040513d601f19601f8201168201806040525060608110156124c657600080fd5b509392505050565b6124d6613a7d565b60038054839081106124e457fe5b6000918252602082206002909102010154600380548490811061250357fe5b600091825260209182902060016002909202010154908301528152919050565b600380548390811061253157fe5b90600052602060002090600202018160028110151561254c57fe5b01549150829050565b600060086000836040518082600260200280838360005b8381101561258457818101518382015260200161256c565b50506040805193909501839003909220875250505060208401949094525050016000205492915050565b60015b60045481116126515760038054829081106125c857fe5b600091825260208220600290910201015460038054839081106125e757fe5b6000918252602090912060029091020160010154600180548490811061260957fe5b60009182526020822060016005909202010101600060018581548110151561262d57fe5b600091825260209091206002600590920201019290925591909155506001016125b1565b612659613085565b50565b600e80548290811061266a57fe5b600091825260209091200154600160a060020a0316905081565b6010805460408051602060026001851615610100026000190190941693909304601f8101849004840282018401909252818152929183018282801561270a5780601f106126df5761010080835404028352916020019161270a565b820191906000526020600020905b8154815290600101906020018083116126ed57829003601f168201915b505050505081565b600a816004811061271f57fe5b0154905081565b61272e613a7d565b600061274c8470014551231950b75fc4402da1732fc9bebe19612fe7565b60408051808201825291925061277691839186906002908390839080828437506111839350505050565b60208401528252509392505050565b600080836040518082600260200280838360005b838110156127b1578181015183820152602001612799565b505050509050019150506040518091039020600190048360038111156127d357fe5b915091509250929050565b6127e6613a7d565b604080518082019182905260058054825260009283928392612820928892919060029060066020850180831161140a575050505050611183565b6020860152845285151561283657506000612867565b85600114806128455750856002145b1561285257506001612867565b856003141561286357506002612867565b5060035b6128718482612785565b9497909650939450505050565b61265981612e53565b600180548290811061289557fe5b6000918252602090912060059091020180546003820154600490920154600160a060020a038216935060a060020a90910460ff90811692169084565b60096020526000908152604090205481565b70014551231950b75fc4402da1732fc9bebe1981565b612901613a98565b600080600061290e613b83565b612916613a98565b61291e613bb2565b6401000003d0199550600080808b151561293757612d22565b6000604051985061020089016040525b8c1561297f5760018d161561296e5750601f8c16808989015360206010821102818e03019c505b60028d049c50600188019750612947565b50604080516060810182528c5181526020808e0151908201526001918101919091528087526129ad906130c5565b94506129b9858c6131e4565b60208701526129d0858760015b6020020151613426565b60408701526129e1858760026129c6565b60608701526129f2858760036129c6565b6080870152612a03858760046129c6565b60a0870152612a14858760056129c6565b60c0870152612a25858760066129c6565b60e0870152602086015160400151845288801515612a3f57fe5b8451604080890151015109602085015288801515612a5957fe5b602085015160608801516040015109604085015288801515612a7757fe5b60408086015160808901519091015109606085015288801515612a9657fe5b606085015160a08801516040015109608085015288801515612ab457fe5b608085015160c0880151604001510960a085015288801515612ad257fe5b60a085015160e0880151604001510960c08501819052612af2908a612fe7565b60e0850181905261010085015288801515612b0957fe5b61010085015160a0860151096101e0850152600692505b60028310612b9d5788801515612b3257fe5b610100850151876001860160088110612b4757fe5b6020020151604001510961010085015288801515612b6157fe5b61010085015185600119860160108110612b7757fe5b602002015109846008850160108110612b8c57fe5b602002015260001990920191612b20565b88801515612ba757fe5b610100850151604080890151015109610120850152600092505b6007831015612c3957612c2e866001850160088110612bdc57fe5b6020020151856009860160108110612bf057fe5b60200201518b801515612bff57fe5b876009880160108110612c0e57fe5b6020020151886009890160108110612c2257fe5b6020020151098c613686565b600190920191612bc1565b6000871115612d225760001987890181015197019660001a9150612c5c8a6136b6565b6010821115612cc0576002601f839003049050612cbb8a60408051908101604052808985600881101515612c8c57fe5b6020908102919091015151825201898560088110612ca657fe5b6020020151600160200201518d0390526137cb565b612d1d565b6000821115612d1d5760026000198301049050612d1d8a60408051908101604052808985600881101515612cf057fe5b6020908102919091015151825201898560088110612d0a57fe5b60200201516001602002015190526137cb565b612c39565b50505050505050505092915050565b600080612d45846002602002015184612fe7565b915082801515612d5157fe5b828309905082801515612d6057fe5b8451829009845282801515612d7157fe5b83801515612d7b57fe5b8284098560015b60200201510960208501525050600160409092019190915250565b70014551231950b75fc4402da1732fc9bebe19607b820106600282815481101515612dc457fe5b60009182526020909120015550565b806003811115612ddf57fe5b60086000846040518082600260200280838360005b83811015612e0c578181015183820152602001612df4565b5050604080519590930185900390942087525060208601969096525050505001600020555050565b600082607b148015612e4c5750602082015115156001145b9392505050565b600160a060020a038116600090815260076020526040812054600180549192918291829185908110612e8157fe5b600091825260208083206005909202909101805493151560a060020a0274ff00000000000000000000000000000000000000001990941693909317909255600160a060020a0386168152600f909152604090205491508190505b600e54600119018111612f9457600e805460018301908110612ef957fe5b600091825260209091200154600e8054600160a060020a039092169183908110612f1f57fe5b9060005260206000200160006101000a815481600160a060020a030219169083600160a060020a03160217905550600f6000600e83815481101515612f6057fe5b6000918252602080832090910154600160a060020a0316835282019290925260400190208054600019019055600101612edb565b600e805490612fa7906000198301613a59565b50505050600160a060020a03166000908152600f6020526040812055565b600080836003811115612fd457fe5b14158015612e4c5750506101c814919050565b600080808080808715801590612ffd5750868814155b801561300857508615155b151561301357600080fd5b8688111561302a57868881151561302657fe5b0697505b600193508692508791505b811561306057818381151561304657fe5b949594048581029094039391928383029003919050613035565b600085121561307657846000038703955061307a565b8495505b505050505092915050565b600160005b6004548211610ec95760018054839081106130a157fe5b6000918252602090912060016005909202018101805482018155920191905061308a565b6130cd613a98565b6401000003d01960008080808080886002602002015115156130ee576131d8565b885160208a015190965094508680151561310457fe5b85860993508680151561311357fe5b8780151561311d57fe5b85880960040992508680151561312f57fe5b8780151561313957fe5b87880960030991508680151561314b57fe5b8780151561315557fe5b84850888038880151561316457fe5b8485090880895290508680151561317757fe5b8780151561318157fe5b8880151561318b57fe5b86870960080988038880151561319d57fe5b898015156131a757fe5b848b0387088509086020890152868015156131be57fe5b878015156131c857fe5b60408b0151870960020960408901525b50505050505050919050565b6131ec613a98565b60006131f6613a7d565b6131fe613bd2565b6000808080808a60026020020151151561323a57604080516060810182528b5181526020808d0151908201526001918101919091529850613418565b60208a0151151561324d578a9850613418565b60408b01516401000003d01998508890800987528780151561326b57fe5b875160408d015109602080890191909152604080516080810182528d5181528d830151928101929092528101898015156132a157fe5b89518d51098152602001898015156132b557fe5b6020808b0151908e01510990526040810151815191975014156133065760608601516020870151146132f7576000808c5260208c0181905260408c0152613418565b6133008b6130c5565b50613418565b8780151561331057fe5b86516040880151908a03900894508780151561332857fe5b60208701516060880151908a03900893508780151561334357fe5b85860992508780151561335257fe5b85840991508780151561336157fe5b8289038980151561336e57fe5b8687090890508780151561337e57fe5b8880151561338857fe5b8980151561339257fe5b885186900960020989038208808a529050878015156133ad57fe5b888015156133b757fe5b828a038a8015156133c457fe5b895187900908850960208a0152878015156133db57fe5b888015156133e557fe5b602088015184900989038a600160200201510860208a01528780151561340757fe5b60408c015186098960025b60200201525b505050505050505092915050565b61342e613a98565b6000613438613bd2565b613440613bd2565b6000808080808a60026020020151151561345c57899850613418565b60408a0151151561346f578a9850613418565b60408b01516401000003d01998508890800987528780151561348d57fe5b875160408d0151096020880152878015156134a457fe5b60408b015180096040880152878015156134ba57fe5b604080890151908c0151096060880152604080516080810190915280898015156134e057fe5b60408a01518e51098152602001898015156134f757fe5b60608a015160208f01510981526020018980151561351157fe5b89518d510981526020018980151561352557fe5b6020808b0151908e015109905260408101518151919750141561356657606086015160208701511461355657613418565b61355f8b6130c5565b9850613418565b8780151561357057fe5b86516040880151908a03900894508780151561358857fe5b60208701516060880151908a0390089350878015156135a357fe5b8586099250878015156135b257fe5b8584099150878015156135c157fe5b828903898015156135ce57fe5b868709089050878015156135de57fe5b888015156135e857fe5b898015156135f257fe5b885186900960020989038208808a5290508780151561360d57fe5b8880151561361757fe5b828a038a80151561362457fe5b895187900908850960208a01528780151561363b57fe5b8880151561364557fe5b602088015184900989038a600160200201510860208a01528780151561366757fe5b8880151561367157fe5b6040808d0151908e0151098609896002613412565b8080151561369057fe5b84518390098452808015156136a157fe5b818015156136ab57fe5b838509856001612d82565b6401000003d01960008080808080876002602002015115156136d7576137c1565b875160208901519096509450868015156136ed57fe5b8586099350868015156136fc57fe5b8780151561370657fe5b85880960040992508680151561371857fe5b8780151561372257fe5b87880960030991508680151561373457fe5b8780151561373e57fe5b84850888038880151561374d57fe5b8485090880895290508680151561376057fe5b8780151561376a57fe5b8880151561377457fe5b86870960080988038880151561378657fe5b8980151561379057fe5b848b0387088509086020890152868015156137a757fe5b878015156137b157fe5b60408a0151870960020960408901525b5050505050505050565b60006137d5613a7d565b6137dd613bd2565b6000808080808960016020020151151561380f5788518a526020808a0151908b015260018a60025b60200201526139e3565b6020890151151561381f576139e3565b60408a01516401000003d01998508890800987528780151561383d57fe5b875160408c015109602080890191909152604080516080810182528c5181528c8301519281019290925281018980151561387357fe5b89518c510981526020018980151561388757fe5b6020808b0151908d01510990526040810151815191975014156138d55760608601516020870151146138c7576000808b5260208b018190528a6002613805565b6138d08a6136b6565b6139e3565b878015156138df57fe5b86516040880151908a0390089450878015156138f757fe5b60208701516060880151908a03900893508780151561391257fe5b85860992508780151561392157fe5b85840991508780151561393057fe5b8289038980151561393d57fe5b8687090890508780151561394d57fe5b8880151561395757fe5b8980151561396157fe5b885186900960020989038208808b5290508780151561397c57fe5b8880151561398657fe5b828a038a80151561399357fe5b895187900908850960208b0152878015156139aa57fe5b888015156139b457fe5b602088015184900989038b600160200201510860208b0152878015156139d657fe5b60408b0151860960408b01525b50505050505050505050565b815481835581811115611d6a57600502816005028360005260206000209182019101611d6a9190613bf1565b8260028101928215613a49579160200282015b82811115613a49578251825591602001919060010190613a2e565b50613a55929150613c46565b5090565b815481835581811115611d6a57600083815260209020611d6a918101908301613c46565b60408051808201825290600290829080388339509192915050565b6060604051908101604052806003906020820280388339509192915050565b815481835581811115611d6a57600202816002028360005260206000209182019101611d6a9190613c60565b6040805160c08101825260008082526020820152908101613b02613a7d565b815260200160008152602001600081525090565b828054600181600116156101000203166002900490600052602060002090601f016020900481019282601f10613b5757805160ff1916838001178555613a49565b82800160010185558215613a495791820182811115613a49578251825591602001919060010190613a2e565b610300604051908101604052806008905b613b9c613a98565b815260200190600190039081613b945790505090565b610200604051908101604052806010906020820280388339509192915050565b6080604051908101604052806004906020820280388339509192915050565b611ab191905b80821115613a5557805474ffffffffffffffffffffffffffffffffffffffffff191681556000613c2a6001830182613c83565b5060038101805460ff1916905560006004820155600501613bf7565b611ab191905b80821115613a555760008155600101613c4c565b611ab191905b80821115613a55576000613c7a8282613c83565b50600201613c66565b5060008155600101600090555600a165627a7a72305820d0365f3fa2daea561995db75ab1339c77de40f71dbeae1c9e40b8f6d132b7d860029",
  "source": "pragma solidity ^0.4.7;\r\nimport \"./OrPoK.sol\";\r\n\r\ncontract SmartWerewolf {\r\n    //parameters using bitcoin's curve (fixed for every game)\r\n    uint constant p = 0xFFFFFFFFFFFFFFFFFFFFFFFFFFFFFFFFFFFFFFFFFFFFFFFFFFFFFFFEFFFFFC2F;\r\n    uint constant Gx =0x79BE667EF9DCBBAC55A06295CE870B07029BFCDB2DCE28D959F2815B16F81798;\r\n    uint constant Gy = 0x483ADA7726A3C4655DA4FBFC0E1108A8FD17B448A68554199C47D08FFB10D4B8;\r\n    uint public constant q = 0xFFFFFFFFFFFFFFFFFFFFFFFFFFFFFFFEBAAEDCE6AF48A03BBFD25E8CD0364141;\r\n    OrPoK processPoK; \r\n\r\n    //bullet broad (fixed during 1 game)\r\n    Player[] public players;\r\n    uint[] MPC;\r\n    uint[2][] public deck;\r\n    uint public n;\r\n    uint[2] G;\r\n    mapping (address => uint) public playerNumOf;\r\n    mapping(bytes32 => uint) public roleOf;\r\n    mapping(address => uint) public deposits;\r\n    \r\n    //up-to-date report (change in game)\r\n    uint[4] public living;\r\n    address[] public livingPlayers;\r\n    mapping(address => uint) public theLivingNumOf;\r\n    string public winner;\r\n    \r\n    function SmartWerewolf(address addressPoK) public {\r\n        processPoK = OrPoK(addressPoK);\r\n        G[0] = Gx;\r\n        G[1] = Gy;\r\n    }\r\n    \r\n\r\n    //0. \r\n\r\n    function quickDepositGame() external payable {\r\n        deposits[msg.sender] = msg.value;\r\n        emit Deposit(\r\n                msg.sender,\r\n                deposits[msg.sender]\r\n            );\r\n    }\r\n\r\n    \r\n    //1.  (V)\r\n\r\n    function engagement(address[] _players) public {\r\n        require(_players.length >= 6);\r\n        n = _players.length;\r\n        players.length = 1+ n;\r\n        uint i;\r\n        for (i = 1; i <= n; i++) {\r\n            players[i] = Player\r\n            (\r\n                {\r\n                    name: _players[ i-1 ],  \r\n                    live: true, \r\n                    hand: [uint(0),0], \r\n                    role: RoleTypes.Unseen,\r\n                    pokerKey: 0\r\n                }\r\n           ); \r\n        playerNumOf[players[i].name] = i;\r\n        }\r\n        \r\n        living[uint(RoleTypes.Werewolf)]=2;\r\n        living[uint(RoleTypes.Seer)]=1;\r\n        living[uint(RoleTypes.Villager)]=n-3;\r\n\r\n        livingPlayers.length=n+1;\r\n        for(i=1;i<=n;i++){\r\n            livingPlayers[i]=players[i].name;\r\n            theLivingNumOf[players[i].name]=i;\r\n        }\r\n    }\r\n\r\n    function quickEngagePlayers(address[] inPlayerNames) \r\n        public \r\n    {   \r\n        require(inPlayerNames.length >= 6);\r\n        uint i;\r\n        for(i = 0; i<inPlayerNames.length; i++){\r\n            address p = inPlayerNames[i];\r\n            require(deposits[p]>=100);\r\n        }\r\n\r\n        n = inPlayerNames.length;\r\n        players.length = 1+n;\r\n\r\n        for (i = 1; i <= n; i++) {\r\n            players[i] = Player\r\n            (\r\n                {\r\n                    name: inPlayerNames[ i-1 ],  \r\n                    live: true, \r\n                    hand: [uint(0),0], \r\n                    role: RoleTypes.Unseen,\r\n                    pokerKey: 0\r\n                }\r\n            );\r\n            \r\n            emit JoinPlayer(\r\n                //for mapping\r\n                i,\r\n                //for players \r\n                players[i].name, \r\n                players[i].live, \r\n                [uint((players[i].hand)[0]),(players[i].hand)[1]], \r\n                players[i].role, \r\n                players[i].pokerKey\r\n            );\r\n            \r\n            emit RegLivingPlayer(\r\n                i,\r\n                players[i].name\r\n                );\r\n        }\r\n        emit RegLivingRole([uint(0),2,1,n-3]);\r\n        emit PlayerReady(n);\r\n    }\r\n    \r\n    \r\n    //2-1  (V)\r\n\r\n    //(a)    \r\n\r\n    function createCards() public {   \r\n        MPC.length = deck.length = 1+n;\r\n        for(uint i=0; i <= n; i++ ){\r\n            prepareDeck(i);\r\n        }\r\n        for(i=0; i<=n; i++){\r\n            (deck[i][0], deck[i][1]) = multiply(MPC[i], G);\r\n        }\r\n        generateMap(deck[0], RoleTypes.Unseen);\r\n        generateMap(deck[1], RoleTypes.Werewolf);\r\n        generateMap(deck[2], RoleTypes.Werewolf);\r\n        generateMap(deck[3], RoleTypes.Seer);\r\n        for (uint j = 4; j <= n; j++) {\r\n            generateMap(deck[j], RoleTypes.Villager);\r\n        }\r\n    }\r\n\r\n    function quickCreateCard(\r\n        uint i,\r\n        uint inMPC\r\n        ) \r\n        external\r\n        view \r\n        returns(\r\n            uint[2] outCard, \r\n            uint cardNum, \r\n            uint roleNum\r\n            )\r\n        {   \r\n        (outCard[0], outCard[1]) = multiply(inMPC, G);\r\n        RoleTypes outRole;\r\n        if(i == 0){\r\n            outRole = RoleTypes.Unseen;\r\n        }else if(i==1||i==2){\r\n            outRole = RoleTypes.Werewolf;\r\n        }else if(i==3){\r\n            outRole = RoleTypes.Seer;\r\n        }else{\r\n            outRole = RoleTypes.Villager;\r\n        }\r\n        (cardNum,roleNum)= quickGenerateMap(outCard, outRole);\r\n    }\r\n\r\n    //(b) \r\n\r\n    function shuffleCards() public {\r\n        uint printBack = 0x7717; \r\n        for(uint i=0; i<=n; i++){\r\n            (deck[i][0], deck[i][1]) = multiply(printBack, deck[i]);\r\n        }\r\n        uint[2] memory tmp;\r\n        (tmp[0], tmp[1]) = (deck[2][0], deck[2][1]);\r\n        (deck[2][0], deck[2][1]) = (deck[5][0], deck[5][1]);\r\n        (deck[5][0], deck[5][1]) = (tmp[0], tmp[1]);\r\n    } \r\n\r\n    function shuffleCardBy(\r\n        uint i, \r\n        uint pokerKey\r\n        ) \r\n            external\r\n    {\r\n        //encrypt each card\r\n        uint printBack = pokerKey; \r\n        for(uint k=0; k<=n; k++){\r\n            (deck[k][0], deck[k][1]) = multiply(printBack, deck[k]);\r\n        }\r\n        //support any shuffle\r\n    }\r\n\r\n    function quickShuffleCardBy(\r\n        uint i, \r\n        uint pokerKey, \r\n        uint[2][] inDeck, \r\n        uint numCards\r\n        ) \r\n        external \r\n        view \r\n        returns(uint[2][] outDeck){\r\n        //encrypt each card\r\n        uint printBack = pokerKey;\r\n        outDeck = new uint[2][](1+numCards); \r\n        for(uint k=0; k<=numCards; k++){\r\n            (outDeck[k][0], outDeck[k][1]) = multiply(printBack, inDeck[k]);\r\n        }\r\n        //support any shuffle TODO: some shuffle\r\n    }\r\n    \r\n\r\n    //2-2.  (V)\r\n\r\n    function dealCards() public {\r\n        for(uint i=1; i<=n; i++){\r\n            (players[i].hand[0], players[i].hand[1])  \r\n            = (deck[i][0], deck[i][1]);\r\n        }\r\n        helpDecryptRole();\r\n    }\r\n\r\n    function dealCardTo(uint i) \r\n        external        \r\n        view \r\n        returns(uint[2] hand){\r\n        (hand[0],hand[1])=(deck[i][0], deck[i][1]);\r\n    }\r\n\r\n    //3.  (V)\r\n\r\n    function nightKill(address victimName, uint proofCanKill) public {\r\n        uint v = playerNumOf[victimName];\r\n        Player memory victim = players[v];\r\n        require (verify(proofCanKill, victim)==true);\r\n        killed(victimName);\r\n    }\r\n    \r\n    //4. \r\n\r\n    function dayVoting(address name) public {\r\n        \r\n        killed(name);\r\n\r\n    }\r\n    \r\n    //5. open \r\n\r\n    function openRole(RoleTypes _role, uint _pokerKey) public {\r\n        require(verifyRole(_role, _pokerKey)==true);\r\n        uint i = playerNumOf[msg.sender];\r\n        players[i].role = _role;\r\n        players[i].pokerKey=_pokerKey;\r\n        \r\n        living[uint(_role)]--;\r\n\r\n        if(living[uint(RoleTypes.Werewolf)]==living[uint(RoleTypes.Seer)]+living[uint(RoleTypes.Villager)]){\r\n            winner = \"Werewolves\";\r\n        }\r\n        else if(living[uint(RoleTypes.Werewolf)]==0){\r\n            winner = \"Humans\";\r\n        }\r\n    }\r\n\r\n\r\n    //getter functions\r\n    \r\n    function multiply(uint s, uint[2] point) public view returns(uint ,uint){\r\n        uint[3] memory result = Secp256k1_noconflict._mul(s, point);\r\n        ECCMath_noconflict.toZ1(result, p);\r\n        return (result[0],result[1]);\r\n    }\r\n\r\n    function checkRoleOf(uint[2] card) public view returns(uint) {return roleOf[keccak256(card)];}\r\n\r\n    function getHandOf(address name) public view returns(uint[2] hand){\r\n        uint i = playerNumOf[name];\r\n        (hand[0] ,hand[1]) = ((players[i].hand)[0], (players[i].hand)[1]);\r\n    }\r\n\r\n    function numSurvive() public view returns(uint) {return livingPlayers.length-1;}\r\n\r\n    function werewolfCard() \r\n        external \r\n        view \r\n        returns(uint cardX,uint cardY){\r\n        (cardX, cardY) = (deck[1][0], deck[1][1]);\r\n    }\r\n\r\n    function hashCard(uint[2] card) public pure returns(uint){return uint(keccak256(card));}\r\n    \r\n    function cardOrder() public pure returns(uint) {return q;}\r\n    \r\n\r\n    //\r\n\r\n    function werewolfFrameKilling(uint[2] framedHand, uint[2] _werewolfCard,  uint victim) public view returns(uint[2] __werewolfCard, uint[2] _framedHand, uint _victim, uint[3] T, uint c, uint s){\r\n        return processPoK.forgeProof(_werewolfCard, framedHand, victim);\r\n    }\r\n\r\n    function werewolfChooset(uint pokerKey, uint[2][] hands, uint[2] _werewolfCard, uint victim ) external view returns(uint realt){\r\n\r\n        return processPoK.computeRealt(_werewolfCard, hands, pokerKey, victim);\r\n    }\r\n\r\n    function werewolfComputeT(uint realt, uint[2] _werewolfCard) public view returns(uint[3] realT){\r\n        return processPoK.computeTFrom(realt, _werewolfCard);\r\n    }\r\n\r\n    function computeChallenge(uint[2] _werewolfCard, uint[2][] _hands, uint victim, uint[3][] Ts) public view returns(uint realChallenge){\r\n        return processPoK.computeChallenge(_werewolfCard, _hands, victim, Ts);\r\n    }\r\n\r\n    function werewolfProve(uint pokerKey, uint[2] _werewolfCard, uint[2] hand, uint victim, uint tReady,uint cReady) public view returns(uint[2] __werewolfCard, uint[2] _hand, uint _victim, uint[3] T, uint c, uint s){\r\n        return processPoK.createSchnorr(pokerKey, _werewolfCard, hand, victim, tReady, cReady);\r\n    }\r\n\r\n    function verifyWerewolfProof(uint[2] _werewolfCard, uint[2] hand,  uint[3] T, uint c, uint s) public view returns (bool result){\r\n        return processPoK.verifySchnorr(_werewolfCard, hand, T, c, s);\r\n    }\r\n\r\n\r\n    //\r\n\r\n    function verify(uint proofCanKill, Player victim) pure internal returns(bool){\r\n        \r\n        return proofCanKill == 123 && victim.live == true;\r\n    }\r\n\r\n\r\n    //Prepare cards\r\n\r\n     function generateMap(uint[2] card, RoleTypes role) internal {\r\n        \r\n        roleOf[keccak256(card)] = uint(role);\r\n    \r\n    }\r\n\r\n    function quickGenerateMap(\r\n        uint[2] card, \r\n        RoleTypes role\r\n    ) \r\n        public\r\n        pure\r\n        returns(\r\n            uint cardNum,\r\n            uint roleNum\r\n        )\r\n    {\r\n        return(\r\n            uint(keccak256(card)),\r\n            uint(role)\r\n            );\r\n    }\r\n\r\n    function prepareDeck(uint i) internal {\r\n        \r\n        MPC[ i ] = (i+123) % q;\r\n        //avoid use 0. function toZ1 revert at point at infinity\r\n    \r\n    }\r\n\r\n    function quickPrepareDeck(uint i) public view returns(uint outMPC){\r\n        \r\n        outMPC = (i+123) % q;\r\n        //avoid use 0. b/c function toZ1 revert at point at infinity\r\n        //simulate hash function\r\n        //apply MPC in the future\r\n    \r\n    }\r\n    \r\n    \r\n    //\r\n\r\n    function helpDecryptRole() internal {\r\n        for(uint i=1; i<=n; i++){\r\n        \tuint[2] storage hand = players[i].hand;\r\n        \thand[0] ++;\r\n        } \r\n    }\r\n\r\n    function helpDecryptRole(uint me, uint pokerKey, uint i, uint[2] cipherCard) external view returns (uint[2] decryptCard){\r\n        if(me == i){\r\n            (decryptCard[0], decryptCard[1]) = (cipherCard[0], cipherCard[1]);\r\n        }else{\r\n            uint keyInverse = ECCMath_noconflict.invmod(pokerKey, q);\r\n            (decryptCard[0],decryptCard[1]) = multiply(keyInverse, cipherCard);\r\n        }\r\n       \r\n    }\r\n\r\n    function recoverRole(uint me, uint pokerKey, uint[2] cipherCard) external view returns (uint[2] decryptCard){\r\n            uint keyInverse = ECCMath_noconflict.invmod(pokerKey, q);\r\n            (decryptCard[0],decryptCard[1]) = multiply(keyInverse, cipherCard);\r\n       \r\n    }\r\n\r\n\r\n    //\r\n    \r\n    function killed(address player) internal{\r\n        uint i = playerNumOf[player];\r\n        players[i].live=false;\r\n        uint j= theLivingNumOf[player];\r\n        \r\n        for(uint k=j; k<= livingPlayers.length-2 ; k++){\r\n            livingPlayers[k] = livingPlayers[k+1];\r\n            theLivingNumOf[livingPlayers[k]]--;\r\n        }\r\n        livingPlayers.length--;\r\n        theLivingNumOf[player]=0;\r\n    }\r\n\r\n    function verifyRole(RoleTypes _role, uint _pokerKey) pure internal returns(bool){\r\n        \r\n        return (_role!=RoleTypes.Unseen && _pokerKey==456);\r\n    \r\n    }\r\n    \r\n    /*\r\n    //TODO\r\n    function verifyRole(\r\n        uint[2] handFace, \r\n        uint pokerKey, \r\n        uint[2] handBack\r\n    )\r\n        public\r\n        view\r\n        returns(bool)\r\n    {\r\n        uint[2] memory claimHand;\r\n        (claimHand[0],claimHand[1]) = multiply(pokerKey,handFace);\r\n\r\n        return (handBack[0] == claimHand[0]) && (handBack[1] == claimHand[1]);\r\n    }\r\n    \r\n    function updateState(){\r\n    \trequire(verifyStateMessage()==True);\r\n    \tupdatePlayersState(lives, hands, roles, pokerKeys);\r\n\r\n    }\r\n    \r\n    function updatePlayersState(\r\n    \t//address[] names,\r\n        bool[] lives,\r\n        uint[2][] hands,\r\n        uint[] roles,\r\n        uint[] pokerKeys\r\n    ) \r\n    \tpublic \r\n    {\r\n    \tfor(uint i=1;i<=n;i++){\r\n    \t\tplayers[i].live = lives[i];\r\n    \t\t(players[i].hand[0], players[i].hand[1])= (hands[i][0],hands[i][1]);\r\n    \t\tplayers[i].role = roles[i];\r\n    \t\tplayers[i].pokerKey = pokerKeys[i];\r\n    \t}\r\n    }\r\n\r\n     function updateRoleOfList(\r\n    \t//address[] names,\r\n        bool[] lives,\r\n        uint[2][] hands,\r\n        uint[] roles,\r\n        uint[] pokerKeys\r\n    ) \r\n    \tpublic \r\n    {\r\n    \tfor(uint i=1;i<=n;i++){\r\n    \t\tplayers[i].live = lives[i];\r\n    \t\t(players[i].hand[0], players[i].hand[1])= (hands[i][0],hands[i][1]);\r\n    \t\tplayers[i].role = roles[i];\r\n    \t\tplayers[i].pokerKey = pokerKeys[i];\r\n    \t}\r\n    }\r\n\r\n    function signState(){\r\n\r\n    }\r\n\r\n    function verifyStateMessage(bytes stateMessage){\r\n\r\n    }\r\n    \r\n    */\r\n    enum RoleTypes{Unseen, Werewolf, Seer, Villager}\r\n    \r\n    struct Player{\r\n        address name;\r\n        bool live;\r\n        uint[2] hand;\r\n        RoleTypes role;\r\n        uint pokerKey;\r\n    }\r\n\r\n\r\n   struct KillConditions{\r\n        uint iAmWerewolf;\r\n        uint iAmLive;\r\n        uint victimLive;\r\n    }\r\n   \r\n\r\n    event debug(uint i);\r\n    \r\n    event JoinPlayer(\r\n        uint indexed outPlayerNum,\r\n        address outPlayerName,\r\n        bool outPlayerLive,\r\n        uint[2] outPlayerHand,\r\n        RoleTypes outPlayerRole,\r\n        uint outPlayerKey\r\n    );\r\n\r\n    event Deposit(\r\n        address indexed outPlayerName,\r\n        uint outValue\r\n    );\r\n\r\n    event PlayerReady(uint numPlayers);\r\n    \r\n    event RegLivingPlayer(uint indexed livingPlayerNum, address livingPlayerName);\r\n    \r\n    event RegLivingRole(uint[4] outLiving);\r\n}",
  "sourcePath": "C:\\Users\\eason\\Documents\\GitHub\\SmartWerewolf\\contracts\\SmartWerewolf.sol",
  "compiler": {
    "name": "solc",
    "version": "0.4.23+commit.124ca40d.Emscripten.clang"
  },
  "schemaVersion": "2.0.0",
  "updatedAt": "2018-06-06T08:14:40.323Z"
}