{
  "contractName": "SmartWerewolf",
  "abi": [
    {
      "constant": true,
      "inputs": [],
      "name": "n",
      "outputs": [
        {
          "name": "",
          "type": "uint256"
        }
      ],
      "payable": false,
      "stateMutability": "view",
      "type": "function"
    },
    {
      "constant": true,
      "inputs": [
        {
          "name": "",
          "type": "address"
        }
      ],
      "name": "playerNumOf",
      "outputs": [
        {
          "name": "",
          "type": "uint256"
        }
      ],
      "payable": false,
      "stateMutability": "view",
      "type": "function"
    },
    {
      "constant": true,
      "inputs": [
        {
          "name": "",
          "type": "address"
        }
      ],
      "name": "theLivingNumOf",
      "outputs": [
        {
          "name": "",
          "type": "uint256"
        }
      ],
      "payable": false,
      "stateMutability": "view",
      "type": "function"
    },
    {
      "constant": true,
      "inputs": [
        {
          "name": "",
          "type": "uint256"
        },
        {
          "name": "",
          "type": "uint256"
        }
      ],
      "name": "deck",
      "outputs": [
        {
          "name": "",
          "type": "uint256"
        }
      ],
      "payable": false,
      "stateMutability": "view",
      "type": "function"
    },
    {
      "constant": true,
      "inputs": [
        {
          "name": "",
          "type": "uint256"
        }
      ],
      "name": "livingPlayers",
      "outputs": [
        {
          "name": "",
          "type": "address"
        }
      ],
      "payable": false,
      "stateMutability": "view",
      "type": "function"
    },
    {
      "constant": true,
      "inputs": [],
      "name": "winner",
      "outputs": [
        {
          "name": "",
          "type": "string"
        }
      ],
      "payable": false,
      "stateMutability": "view",
      "type": "function"
    },
    {
      "constant": true,
      "inputs": [
        {
          "name": "",
          "type": "uint256"
        }
      ],
      "name": "living",
      "outputs": [
        {
          "name": "",
          "type": "uint256"
        }
      ],
      "payable": false,
      "stateMutability": "view",
      "type": "function"
    },
    {
      "constant": true,
      "inputs": [
        {
          "name": "",
          "type": "uint256"
        }
      ],
      "name": "players",
      "outputs": [
        {
          "name": "name",
          "type": "address"
        },
        {
          "name": "live",
          "type": "bool"
        },
        {
          "name": "role",
          "type": "uint8"
        },
        {
          "name": "pokerKey",
          "type": "uint256"
        }
      ],
      "payable": false,
      "stateMutability": "view",
      "type": "function"
    },
    {
      "constant": true,
      "inputs": [],
      "name": "q",
      "outputs": [
        {
          "name": "",
          "type": "uint256"
        }
      ],
      "payable": false,
      "stateMutability": "view",
      "type": "function"
    },
    {
      "inputs": [
        {
          "name": "addressPoK",
          "type": "address"
        }
      ],
      "payable": false,
      "stateMutability": "nonpayable",
      "type": "constructor"
    },
    {
      "anonymous": false,
      "inputs": [
        {
          "indexed": false,
          "name": "numPlayers",
          "type": "uint256"
        }
      ],
      "name": "PlayerReady",
      "type": "event"
    },
    {
      "anonymous": false,
      "inputs": [
        {
          "indexed": false,
          "name": "i",
          "type": "uint256"
        }
      ],
      "name": "debug",
      "type": "event"
    },
    {
      "constant": false,
      "inputs": [
        {
          "name": "_players",
          "type": "address[]"
        }
      ],
      "name": "engagement",
      "outputs": [],
      "payable": false,
      "stateMutability": "nonpayable",
      "type": "function"
    },
    {
      "constant": false,
      "inputs": [],
      "name": "createCards",
      "outputs": [],
      "payable": false,
      "stateMutability": "nonpayable",
      "type": "function"
    },
    {
      "constant": false,
      "inputs": [
        {
          "name": "i",
          "type": "uint256"
        },
        {
          "name": "pokerKey",
          "type": "uint256"
        }
      ],
      "name": "shuffleCardBy",
      "outputs": [],
      "payable": false,
      "stateMutability": "nonpayable",
      "type": "function"
    },
    {
      "constant": false,
      "inputs": [],
      "name": "shuffleCards",
      "outputs": [],
      "payable": false,
      "stateMutability": "nonpayable",
      "type": "function"
    },
    {
      "constant": false,
      "inputs": [],
      "name": "dealCards",
      "outputs": [],
      "payable": false,
      "stateMutability": "nonpayable",
      "type": "function"
    },
    {
      "constant": true,
      "inputs": [
        {
          "name": "i",
          "type": "uint256"
        }
      ],
      "name": "dealCardTo",
      "outputs": [
        {
          "name": "hand",
          "type": "uint256[2]"
        }
      ],
      "payable": false,
      "stateMutability": "view",
      "type": "function"
    },
    {
      "constant": false,
      "inputs": [
        {
          "name": "victimName",
          "type": "address"
        },
        {
          "name": "proofCanKill",
          "type": "uint256"
        }
      ],
      "name": "nightKill",
      "outputs": [],
      "payable": false,
      "stateMutability": "nonpayable",
      "type": "function"
    },
    {
      "constant": false,
      "inputs": [
        {
          "name": "name",
          "type": "address"
        }
      ],
      "name": "dayVoting",
      "outputs": [],
      "payable": false,
      "stateMutability": "nonpayable",
      "type": "function"
    },
    {
      "constant": false,
      "inputs": [
        {
          "name": "_role",
          "type": "uint8"
        },
        {
          "name": "_pokerKey",
          "type": "uint256"
        }
      ],
      "name": "openRole",
      "outputs": [],
      "payable": false,
      "stateMutability": "nonpayable",
      "type": "function"
    },
    {
      "constant": true,
      "inputs": [
        {
          "name": "card",
          "type": "uint256[2]"
        }
      ],
      "name": "roleOf",
      "outputs": [
        {
          "name": "",
          "type": "uint256"
        }
      ],
      "payable": false,
      "stateMutability": "view",
      "type": "function"
    },
    {
      "constant": true,
      "inputs": [
        {
          "name": "",
          "type": "bytes32"
        }
      ],
      "name": "roleOf",
      "outputs": [
        {
          "name": "",
          "type": "uint256"
        }
      ],
      "payable": false,
      "stateMutability": "view",
      "type": "function"
    },
    {
      "constant": true,
      "inputs": [],
      "name": "cardOrder",
      "outputs": [
        {
          "name": "",
          "type": "uint256"
        }
      ],
      "payable": false,
      "stateMutability": "pure",
      "type": "function"
    },
    {
      "constant": true,
      "inputs": [
        {
          "name": "name",
          "type": "address"
        }
      ],
      "name": "getHandOf",
      "outputs": [
        {
          "name": "hand",
          "type": "uint256[2]"
        }
      ],
      "payable": false,
      "stateMutability": "view",
      "type": "function"
    },
    {
      "constant": true,
      "inputs": [],
      "name": "numSurvive",
      "outputs": [
        {
          "name": "",
          "type": "uint256"
        }
      ],
      "payable": false,
      "stateMutability": "view",
      "type": "function"
    },
    {
      "constant": true,
      "inputs": [
        {
          "name": "framedHand",
          "type": "uint256[2]"
        },
        {
          "name": "_werewolfCard",
          "type": "uint256[2]"
        },
        {
          "name": "victim",
          "type": "uint256"
        }
      ],
      "name": "werewolfFrameKilling",
      "outputs": [
        {
          "name": "__werewolfCard",
          "type": "uint256[2]"
        },
        {
          "name": "_framedHand",
          "type": "uint256[2]"
        },
        {
          "name": "_victim",
          "type": "uint256"
        },
        {
          "name": "T",
          "type": "uint256[3]"
        },
        {
          "name": "c",
          "type": "uint256"
        },
        {
          "name": "s",
          "type": "uint256"
        }
      ],
      "payable": false,
      "stateMutability": "view",
      "type": "function"
    },
    {
      "constant": true,
      "inputs": [],
      "name": "werewolfCard",
      "outputs": [
        {
          "name": "cardX",
          "type": "uint256"
        },
        {
          "name": "cardY",
          "type": "uint256"
        }
      ],
      "payable": false,
      "stateMutability": "view",
      "type": "function"
    },
    {
      "constant": true,
      "inputs": [
        {
          "name": "pokerKey",
          "type": "uint256"
        },
        {
          "name": "hands",
          "type": "uint256[2][]"
        },
        {
          "name": "_werewolfCard",
          "type": "uint256[2]"
        },
        {
          "name": "victim",
          "type": "uint256"
        }
      ],
      "name": "werewolfChooset",
      "outputs": [
        {
          "name": "realt",
          "type": "uint256"
        }
      ],
      "payable": false,
      "stateMutability": "view",
      "type": "function"
    },
    {
      "constant": true,
      "inputs": [
        {
          "name": "realt",
          "type": "uint256"
        },
        {
          "name": "_werewolfCard",
          "type": "uint256[2]"
        }
      ],
      "name": "werewolfComputeT",
      "outputs": [
        {
          "name": "realT",
          "type": "uint256[3]"
        }
      ],
      "payable": false,
      "stateMutability": "view",
      "type": "function"
    },
    {
      "constant": true,
      "inputs": [
        {
          "name": "_werewolfCard",
          "type": "uint256[2]"
        },
        {
          "name": "_hands",
          "type": "uint256[2][]"
        },
        {
          "name": "victim",
          "type": "uint256"
        },
        {
          "name": "Ts",
          "type": "uint256[3][]"
        }
      ],
      "name": "computeChallenge",
      "outputs": [
        {
          "name": "realChallenge",
          "type": "uint256"
        }
      ],
      "payable": false,
      "stateMutability": "view",
      "type": "function"
    },
    {
      "constant": true,
      "inputs": [
        {
          "name": "pokerKey",
          "type": "uint256"
        },
        {
          "name": "_werewolfCard",
          "type": "uint256[2]"
        },
        {
          "name": "hand",
          "type": "uint256[2]"
        },
        {
          "name": "victim",
          "type": "uint256"
        },
        {
          "name": "tReady",
          "type": "uint256"
        },
        {
          "name": "cReady",
          "type": "uint256"
        }
      ],
      "name": "werewolfProve",
      "outputs": [
        {
          "name": "__werewolfCard",
          "type": "uint256[2]"
        },
        {
          "name": "_hand",
          "type": "uint256[2]"
        },
        {
          "name": "_victim",
          "type": "uint256"
        },
        {
          "name": "T",
          "type": "uint256[3]"
        },
        {
          "name": "c",
          "type": "uint256"
        },
        {
          "name": "s",
          "type": "uint256"
        }
      ],
      "payable": false,
      "stateMutability": "view",
      "type": "function"
    },
    {
      "constant": true,
      "inputs": [
        {
          "name": "_werewolfCard",
          "type": "uint256[2]"
        },
        {
          "name": "hand",
          "type": "uint256[2]"
        },
        {
          "name": "T",
          "type": "uint256[3]"
        },
        {
          "name": "c",
          "type": "uint256"
        },
        {
          "name": "s",
          "type": "uint256"
        }
      ],
      "name": "verifyWerewolfProof",
      "outputs": [
        {
          "name": "result",
          "type": "bool"
        }
      ],
      "payable": false,
      "stateMutability": "view",
      "type": "function"
    },
    {
      "constant": true,
      "inputs": [
        {
          "name": "me",
          "type": "uint256"
        },
        {
          "name": "pokerKey",
          "type": "uint256"
        },
        {
          "name": "i",
          "type": "uint256"
        },
        {
          "name": "cipherCard",
          "type": "uint256[2]"
        }
      ],
      "name": "helpDecryptRole",
      "outputs": [
        {
          "name": "decryptCard",
          "type": "uint256[2]"
        }
      ],
      "payable": false,
      "stateMutability": "view",
      "type": "function"
    },
    {
      "constant": true,
      "inputs": [
        {
          "name": "s",
          "type": "uint256"
        },
        {
          "name": "point",
          "type": "uint256[2]"
        }
      ],
      "name": "multiply",
      "outputs": [
        {
          "name": "",
          "type": "uint256"
        },
        {
          "name": "",
          "type": "uint256"
        }
      ],
      "payable": false,
      "stateMutability": "view",
      "type": "function"
    }
  ],
  "bytecode": "0x6060604052341561000f57600080fd5b60405160208061334f8339810160405280805160008054600160a060020a031916600160a060020a0383161781559092507f79be667ef9dcbbac55a06295ce870b07029bfcdb2dce28d959f2815b16f81798915060059001557f483ada7726a3c4655da4fbfc0e1108a8fd17b448a68554199c47d08ffb10d4b8600560010155506132b08061009f6000396000f30060606040526004361061017c5763ffffffff60e060020a600035041663076d9680811461018157806307f7470b146101d25780630cbee0e31461027d57806314a9a1211461038c5780632e52d606146103e4578063313ffac1146104095780633e5a438d14610430578063474ab93c146104a95780634ef3ea74146104c25780634fb793dc146104e157806352f9aaea1461051d57806354054cd514610574578063568bd63e1461059357806358801f17146105a65780635c56e508146105b95780636e6ac9c6146105cc5780638c785f88146105e25780639a019678146105f5578063a4f195aa14610617578063ab27783314610633578063acb2c01a14610651578063b77d126814610664578063c0cb6b241461078c578063c52e3e4a146107e6578063d34544cd146107fc578063d6ffa29a14610815578063d9e0bf4e14610828578063dfbf53ae1461085a578063eb288081146108e4578063f6ac71cd146108fa578063f71d96cb14610919578063fd3ab28214610973575b600080fd5b341561018c57600080fd5b6101d0600460248135818101908301358060208181020160405190810160405280939291908181526020018383602002808284375094965061098695505050505050565b005b34156101dd57600080fd5b610269600460448160026040805190810160405280929190826002602002808284378201915050505050919080604001906002806020026040519081016040528092919082600260200280828437820191505050505091908060600190600380602002604051908101604052919082826060808284375093955050833593602001359250610c84915050565b604051901515815260200160405180910390f35b341561028857600080fd5b6102e7600460448160026040805190810160405280929190826002602002808284378201915050505050919080604001906002806020026040519081016040528092919082600260200280828437509395505092359250610d7b915050565b6040518087604080838360005b8381101561030c5780820151838201526020016102f4565b5050505090500186600260200280838360005b8381101561033757808201518382015260200161031f565b5050505090500185815260200184600360200280838360005b83811015610368578082015183820152602001610350565b50505050905001838152602001828152602001965050505050505060405180910390f35b341561039757600080fd5b6103cc600480359060646024600260408051908101604052809291908260026020028082843750939550610e85945050505050565b60405191825260208201526040908101905180910390f35b34156103ef57600080fd5b6103f7610ebf565b60405190815260200160405180910390f35b341561041457600080fd5b6103f76004803590602480359081019101356044608435610ec5565b341561043b57600080fd5b6102e760048035906064602460026040805190810160405280929190826002602002808284378201915050505050919080604001906002806020026040519081016040528092919082600260200280828437509395505083359360208101359350604001359150610f4b9050565b34156104b457600080fd5b6101d0600435602435611072565b34156104cd57600080fd5b6103f7600160a060020a0360043516611133565b34156104ec57600080fd5b6103f76004604481600260408051908101604052809291908260026020028082843750939550611145945050505050565b341561052857600080fd5b61053c600160a060020a036004351661119b565b6040518082604080838360005b83811015610561578082015183820152602001610549565b5050505090500191505060405180910390f35b341561057f57600080fd5b6103f7600160a060020a036004351661120e565b341561059e57600080fd5b6103cc611220565b34156105b157600080fd5b6101d0611271565b34156105c457600080fd5b6101d0611430565b34156105d757600080fd5b6103f76004356116c0565b34156105ed57600080fd5b6103f76116d2565b341561060057600080fd5b6101d0600160a060020a03600435166024356116e9565b341561062257600080fd5b6101d060ff600435166024356117fd565b341561063e57600080fd5b61053c6004356024356044356064611a06565b341561065c57600080fd5b6103f7611a84565b341561066f57600080fd5b6103f7600460448160026040805190810160405280929190826002602002808284375093959460208082019550903586018082019450359250829150818102016040519081016040528181529291906000602085015b828210156107045760408083028601906002908051908101604052809291908260026020028082843750505091835250506001909101906020016106c5565b505050505091908035906020019091908035906020019082018035906020019080806020026020016040519081016040528181529291906000602085015b8282101561077e576060808302860190600390604051908101604052919082826060808284375050509183525050600190910190602001610742565b505050505091905050611a8e565b341561079757600080fd5b6107cc600480359060646024600260408051908101604052809291908260026020028082843750939550611be8945050505050565b604051808260608083836000815183820152602001610549565b34156107f157600080fd5b61053c600435611c86565b341561080757600080fd5b6103f7600435602435611cdc565b341561082057600080fd5b6101d0611d0e565b341561083357600080fd5b61083e600435611dbe565b604051600160a060020a03909116815260200160405180910390f35b341561086557600080fd5b61086d611de6565b60405160208082528190810183818151815260200191508051906020019080838360005b838110156108a9578082015183820152602001610891565b50505050905090810190601f1680156108d65780820380516001836020036101000a031916815260200191505b509250505060405180910390f35b34156108ef57600080fd5b6103f7600435611e84565b341561090557600080fd5b6101d0600160a060020a0360043516611e96565b341561092457600080fd5b61092f600435611e9f565b604051600160a060020a038516815283151560208201526040810183600381111561095657fe5b60ff16815260200182815260200194505050505060405180910390f35b341561097e57600080fd5b6103f7611efa565b600060068251101561099757600080fd5b815160048190556001908101906109ae9082612fe5565b50600190505b6004548111610b395760a0604051908101604052808360018403815181106109d857fe5b90602001906020020151600160a060020a031681526020016001151581526020016040805190810160405260008082526020808301829052918352910190815260006020909101526001805483908110610a2e57fe5b90600052602060002090600502016000820151815473ffffffffffffffffffffffffffffffffffffffff1916600160a060020a039190911617815560208201518154901515740100000000000000000000000000000000000000000274ff0000000000000000000000000000000000000000199091161781556040820151610abc9060018301906002613011565b5060608201518160030160006101000a81548160ff02191690836003811115610ae157fe5b0217905550608082015181600401559050508060076000600184815481101515610b0757fe5b60009182526020808320600590920290910154600160a060020a031683528201929092526040019020556001016109b4565b600960205260027f92e85d02570a8092d09a6e3a57665bc3815a2699a4074001bf1ccabf660f5a365560017f6cde3cea4b3a3fb2488b2808bae7556f4a405e50f65e1794383bc026131b13c3819055600454600360005260021981017fc575c31fea594a6eb97c8e9d3f9caee4c16218c6ef37e923234c0fe9014a61e75501610bc3600a8261304f565b50600190505b6004548111610c80576001805482908110610be057fe5b6000918252602090912060059091020154600a8054600160a060020a039092169183908110610c0b57fe5b906000526020600020900160006101000a815481600160a060020a030219169083600160a060020a0316021790555080600b6000600184815481101515610c4e57fe5b60009182526020808320600590920290910154600160a060020a03168352820192909252604001902055600101610bc9565b5050565b60008054600160a060020a0316632b0c1aba878787878760405160e060020a63ffffffff88160281526004018086604080838360005b83811015610cd2578082015183820152602001610cba565b5050505090500185600260200280838360005b83811015610cfd578082015183820152602001610ce5565b5050505090500184600360200280838360005b83811015610d28578082015183820152602001610d10565b5050505090500183815260200182815260200195505050505050602060405180830381600087803b1515610d5b57600080fd5b5af11515610d6857600080fd5b5050506040518051979650505050505050565b610d83613073565b610d8b613073565b6000610d95613099565b600080548190600160a060020a031663a2cf9308898b8a60405160e060020a63ffffffff86160281526004018084604080838360005b83811015610de3578082015183820152602001610dcb565b5050505090500183600260200280838360005b83811015610e0e578082015183820152602001610df6565b50505050905001828152602001935050505061014060405180830381600087803b1515610e3a57600080fd5b5af11515610e4757600080fd5b50505060405180604001806040018051906020018060600180519060200180516020909101604052949e939d50919b50995097509095509350505050565b600080610e90613099565b610e9a8585611f10565b9050610eac816401000003d01961233c565b8051602082015192509250509250929050565b60045481565b60008054600160a060020a031663b73318658487878a8760405160e060020a63ffffffff88160281526004018086604080828437820191505080602001848152602001838152602001828103825286868281815260200192506040028082843782019150509650505050505050602060405180830381600087803b1515610d5b57600080fd5b610f53613073565b610f5b613073565b6000610f65613099565b600080548190600160a060020a031663d4540ff78d8d8d8d8d8d60405160e060020a63ffffffff8916028152600481018781529060240186604080838360005b83811015610fbd578082015183820152602001610fa5565b5050505090500185600260200280838360005b83811015610fe8578082015183820152602001610fd0565b50505050905001848152602001838152602001828152602001965050505050505061014060405180830381600087803b151561102357600080fd5b5af1151561103057600080fd5b50505060405180604001806040018051906020018060600180519060200180519060200160405295509550955095509550955096509650965096509650969050565b8060005b600454811161112d576110d98260038381548110151561109257fe5b90600052602060002090600202016002806020026040519081016040529190828260026020028201915b8154815260200190600101908083116110bc575050505050610e85565b60038054849081106110e757fe5b6000918252602082206002909102019001600060038581548110151561110957fe5b60009182526020909120600290910201600101929092559190915550600101611076565b50505050565b60076020526000908152604090205481565b600060086000836040518082604080838360005b83811015611171578082015183820152602001611159565b50505050905001915050604051908190039020815260208101919091526040016000205492915050565b6111a3613073565b600160a060020a03821660009081526007602052604090205460018054829081106111ca57fe5b60009182526020822060016005909202010190015460018054839081106111ed57fe5b60009182526020918290206002600590920201015490840152825250919050565b600b6020526000908152604090205481565b6000806003600181548110151561123357fe5b60009182526020822060029091020190015460038054600190811061125457fe5b600091825260209091206002909102016001015490939092509050565b60008061127c613073565b6177179250600091505b60045482116112f9576112a28360038481548110151561109257fe5b60038054859081106112b057fe5b600091825260208220600290910201900160006003868154811015156112d257fe5b60009182526020909120600290910201600101929092559190915550600190910190611286565b60038054600290811061130857fe5b60009182526020822060029091020190015460038054600290811061132957fe5b60009182526020918290206001600290920201015490830152815260038054600590811061135357fe5b60009182526020822060029091020190015460038054600590811061137457fe5b600091825260209091206002909102016001015460038054600290811061139757fe5b60009182526020822060029091020190016000600360028154811015156113ba57fe5b60009182526020909120600160029092020101929092559190915550805160208201516003805460059081106113ec57fe5b600091825260208220600290910201900160006003600581548110151561140f57fe5b60009182526020909120600290910201600101929092559190915550505050565b60008060045460010160038161144691906130b3565b61145160028261304f565b50600091505b600454821161147457611469826123a4565b600190910190611457565b600091505b600454821161152a576114d360028381548110151561149457fe5b600091825260209091200154600560026040805190810160409081528354825290929190830160018301602085018083116110bc575050505050610e85565b60038054859081106114e157fe5b6000918252602082206002909102019001600060038681548110151561150357fe5b60009182526020909120600290910201600101929092559190915550600190910190611479565b6115866003600081548110151561153d57fe5b90600052602060002090600202016002806020026040519081016040529190828260026020028201915b81548152602001906001019080831161156757505050505060006123da565b6115e26003600181548110151561159957fe5b90600052602060002090600202016002806020026040519081016040529190828260026020028201915b8154815260200190600101908083116115c357505050505060016123da565b6115f56003600281548110151561159957fe5b61165060038081548110151561160757fe5b90600052602060002090600202016002806020026040519081016040529190828260026020028201915b81548152602001906001019080831161163157505050505060026123da565b5060045b6004548111610c80576116b860038281548110151561166f57fe5b90600052602060002090600202016002806020026040519081016040529190828260026020028201915b81548152602001906001019080831161169957505050505060036123da565b600101611654565b60086020526000908152604090205481565b70014551231950b75fc4402da1732fc9bebe195b90565b60006116f36130df565b600160a060020a03841660009081526007602052604090205460018054919350908390811061171e57fe5b906000526020600020906005020160a060405190810160409081528254600160a060020a038116835274010000000000000000000000000000000000000000900460ff161515602083015290919080830190600183019060029080519081016040529190828260026020028201915b81548152602001906001019080831161178d57505050918352505060038281015460209092019160ff16908111156117c157fe5b60038111156117cc57fe5b815260200160048201548152505090506117e68382612438565b15156001146117f457600080fd5b61112d84612457565b600061180983836125db565b151560011461181757600080fd5b50600160a060020a033316600090815260076020526040902054600180548491908390811061184257fe5b906000526020600020906005020160030160006101000a81548160ff0219169083600381111561186e57fe5b02179055508160018281548110151561188357fe5b906000526020600020906005020160040181905550600960008460038111156118a857fe5b81526020808201929092526040016000908120805460001901905560099091527fc575c31fea594a6eb97c8e9d3f9caee4c16218c6ef37e923234c0fe9014a61e7547f6cde3cea4b3a3fb2488b2808bae7556f4a405e50f65e1794383bc026131b13c35460019092527f92e85d02570a8092d09a6e3a57665bc3815a2699a4074001bf1ccabf660f5a3654910114156119885760408051908101604052600a81527f57657265776f6c766573000000000000000000000000000000000000000000006020820152600c908051611982929160200190613114565b50611a01565b600160005260096020527f92e85d02570a8092d09a6e3a57665bc3815a2699a4074001bf1ccabf660f5a36541515611a015760408051908101604052600681527f48756d616e7300000000000000000000000000000000000000000000000000006020820152600c90805161112d929160200190613114565b505050565b611a0e613073565b600083861415611a2b576020808401359083015282358252611a7b565b611a478570014551231950b75fc4402da1732fc9bebe196125fd565b9050611a738184600260408051908101604052809291908260026020028082843750610e859350505050565b602084015282525b50949350505050565b600a546000190190565b60008054600160a060020a031663b77d12688686868660405160e060020a63ffffffff87160281526004018085604080838360005b83811015611adb578082015183820152602001611ac3565b5050505090500180602001848152602001806020018381038352868181518152602001915080516000925b81841015611b4857602080850284010151604080838360005b83811015611b37578082015183820152602001611b1f565b505050509050019260010192611b06565b925050508381038252848181518152602001915080516000925b81841015611ba457602080850284010151606080838360005b83811015611b93578082015183820152602001611b7b565b505050509050019260010192611b62565b925050509650505050505050602060405180830381600087803b1515611bc957600080fd5b5af11515611bd657600080fd5b50505060405180519695505050505050565b611bf0613099565b600054600160a060020a03166383242e90848460405160e060020a63ffffffff8516028152600481018381529060240182604080838360005b83811015611c41578082015183820152602001611c29565b5050505090500192505050606060405180830381600087803b1515611c6557600080fd5b5af11515611c7257600080fd5b505050604051606081016040529392505050565b611c8e613073565b6003805483908110611c9c57fe5b6000918252602082206002909102019001546003805484908110611cbc57fe5b600091825260209182902060016002909202010154908301528152919050565b6003805483908110611cea57fe5b906000526020600020906002020181600281101515611d0557fe5b01549150829050565b60015b6004548111611db3576003805482908110611d2857fe5b6000918252602082206002909102019001546003805483908110611d4857fe5b60009182526020909120600290910201600101546001805484908110611d6a57fe5b60009182526020822060016005909202010190016000600185815481101515611d8f57fe5b60009182526020909120600260059092020101929092559190915550600101611d11565b611dbb61269b565b50565b600a805482908110611dcc57fe5b600091825260209091200154600160a060020a0316905081565b600c8054600181600116156101000203166002900480601f016020809104026020016040519081016040528092919081815260200182805460018160011615610100020316600290048015611e7c5780601f10611e5157610100808354040283529160200191611e7c565b820191906000526020600020905b815481529060010190602001808311611e5f57829003601f168201915b505050505081565b60096020526000908152604090205481565b611dbb81612457565b6001805482908110611ead57fe5b6000918252602090912060059091020180546003820154600490920154600160a060020a03821693507401000000000000000000000000000000000000000090910460ff90811692169084565b70014551231950b75fc4402da1732fc9bebe1981565b611f18613099565b6000806000611f25613181565b611f2d613099565b611f356131af565b6401000003d0199550600080808b1515611f4e5761232d565b6000604051985061020089016040525b8c15611f965760018d1615611f855750601f8c16808989015360206010821102818e03019c505b60028d049c50600188019750611f5e565b506060604051908101604052808c5181526020018c60016020020151815260016020909101528652611fc886516126db565b9450611fd4858c6127f6565b6020870152611feb858760015b6020020151612a32565b6040870152611ffc85876002611fe1565b606087015261200d85876003611fe1565b608087015261201e85876004611fe1565b60a087015261202f85876005611fe1565b60c087015261204085876006611fe1565b60e087015260208601516040015184528880151561205a57fe5b84516040880151604001510960208501528880151561207557fe5b60208501516060880151604001510960408501528880151561209357fe5b6040850151608088015160400151096060850152888015156120b157fe5b606085015160a088015160400151096080850152888015156120cf57fe5b608085015160c0880151604001510960a0850152888015156120ed57fe5b60a085015160e0880151604001510960c0850190815261210e90518a6125fd565b60e08501908152516101008501528880151561212657fe5b61010085015160a0860151096101e0850152600692505b600283106121ba578880151561214f57fe5b61010085015187600186016008811061216457fe5b602002015160400151096101008501528880151561217e57fe5b6101008501518560011986016010811061219457fe5b6020020151098460088501601081106121a957fe5b60200201526000199092019161213d565b888015156121c457fe5b61010085015160408801516040015109610120850152600092505b60078310156122575761224c8660018501600881106121fa57fe5b602002015185600986016010811061220e57fe5b60200201518b80151561221d57fe5b87600988016010811061222c57fe5b602002015188600989016010811061224057fe5b6020020151098c612c8b565b6001909201916121df565b600087111561232d57600019808801978901015160001a91506122798a612cba565b60108211156122d457506002601f829003046122cf8a60408051908101604052808985600881106122a657fe5b60200201515181526020018985600881106122bd57fe5b6020020151602001518d039052612dcb565b612328565b6000821115612328575060026000198201046123288a604080519081016040528089856008811061230157fe5b602002015151815260200189856008811061231857fe5b6020020151602001519052612dcb565b612257565b50505050505050505092915050565b60008061234d6040850151846125fd565b91508280151561235957fe5b82830990508280151561236857fe5b8185510984528280151561237857fe5b8380151561238257fe5b8284098560015b60200201510960208501525050600160409092019190915250565b70014551231950b75fc4402da1732fc9bebe19607b8201066002828154811015156123cb57fe5b60009182526020909120015550565b8060038111156123e657fe5b60086000846040518082604080838360005b838110156124105780820151838201526020016123f8565b5050505090500191505060405190819003902081526020810191909152604001600020555050565b600082607b1480156124505750816020015115156001145b9392505050565b600160a060020a03811660009081526007602052604081205460018054919291829182918590811061248557fe5b6000918252602080832060059092029091018054931515740100000000000000000000000000000000000000000274ff00000000000000000000000000000000000000001990941693909317909255600160a060020a0386168152600b909152604090205491508190505b600a546001190181116125aa57600a80546001830190811061250e57fe5b600091825260209091200154600a8054600160a060020a03909216918390811061253457fe5b906000526020600020900160006101000a815481600160a060020a030219169083600160a060020a03160217905550600b6000600a8381548110151561257657fe5b6000918252602080832090910154600160a060020a03168352820192909252604001902080546000190190556001016124f0565b600a8054906125bd90600019830161304f565b50505050600160a060020a03166000908152600b6020526040812055565b6000808360038111156125ea57fe5b141580156124505750506101c814919050565b6000808080808087158015906126135750868814155b801561261e57508615155b151561262957600080fd5b8688111561264057868881151561263c57fe5b0697505b600193508692508791505b811561267657818381151561265c57fe5b94959404858102909403939192838302900391905061264b565b600085121561268c578460000387039550612690565b8495505b505050505092915050565b600160005b6004548211610c805760018054839081106126b757fe5b600091825260209091206001600590920201810180548201815592019190506126a0565b6126e3613099565b6401000003d0196000808080808060408901511515612701576127ea565b88519550602089015194508680151561271657fe5b85860993508680151561272557fe5b8780151561272f57fe5b85880960040992508680151561274157fe5b8780151561274b57fe5b87880960030991508680151561275d57fe5b8780151561276757fe5b84850888038880151561277657fe5b8485090880895290508680151561278957fe5b8780151561279357fe5b8880151561279d57fe5b8687096008098803888015156127af57fe5b898015156127b957fe5b848b0387088509086020890152868015156127d057fe5b878015156127da57fe5b60408b0151870960020960408901525b50505050505050919050565b6127fe613099565b6000612808613073565b6128106131ca565b60008080808060408b0151151561284d576060604051908101604052808b5181526020018b60016020020151815260200160018152509850612a24565b60208a01511515612860578a9850612a24565b6401000003d01997508760408c015160408d01510987528780151561288157fe5b875160408d01510960208801526080604051908101604052808c5181526020018c600160200201518152602001898015156128b857fe5b89518d51098152602001898015156128cc57fe5b60208a015160208e0151099052955060408601518651141561291c57606086015160208701511461290d576000808c5260208c0181905260408c0152612a24565b6129168b6126db565b50612a24565b8780151561292657fe5b8651890360408801510894508780151561293c57fe5b6020870151890360608801510893508780151561295557fe5b85860992508780151561296457fe5b85840991508780151561297357fe5b8289038980151561298057fe5b8687090890508780151561299057fe5b8880151561299a57fe5b898015156129a457fe5b8589510960020989038208808a529050878015156129be57fe5b888015156129c857fe5b828a038a8015156129d557fe5b868a510908850960208a0152878015156129eb57fe5b888015156129f557fe5b83602089015109890360208b01510860208a015287801515612a1357fe5b60408c015186098960025b60200201525b505050505050505092915050565b612a3a613099565b6000612a446131ca565b612a4c6131ca565b60008080808060408b01511515612a6557899850612a24565b60408a01511515612a78578a9850612a24565b6401000003d01997508760408c015160408d015109875287801515612a9957fe5b875160408d015109602088015287801515612ab057fe5b60408b015160408c015109604088015287801515612aca57fe5b604088015160408c015109606088015260806040519081016040528089801515612af057fe5b60408a01518e5109815260200189801515612b0757fe5b60608a015160208f015109815260200189801515612b2157fe5b89518d5109815260200189801515612b3557fe5b60208a015160208e01510990529550604086015186511415612b75576060860151602087015114612b6557612a24565b612b6e8b6126db565b9850612a24565b87801515612b7f57fe5b86518903604088015108945087801515612b9557fe5b60208701518903606088015108935087801515612bae57fe5b858609925087801515612bbd57fe5b858409915087801515612bcc57fe5b82890389801515612bd957fe5b86870908905087801515612be957fe5b88801515612bf357fe5b89801515612bfd57fe5b8589510960020989038208808a52905087801515612c1757fe5b88801515612c2157fe5b828a038a801515612c2e57fe5b868a510908850960208a015287801515612c4457fe5b88801515612c4e57fe5b83602089015109890360208b01510860208a015287801515612c6c57fe5b88801515612c7657fe5b60408c015160408e0151098609896002612a1e565b80801515612c9557fe5b82855109845280801515612ca557fe5b81801515612caf57fe5b838509856001612389565b6401000003d0196000808080808060408801511515612cd857612dc1565b875195506020880151945086801515612ced57fe5b858609935086801515612cfc57fe5b87801515612d0657fe5b858809600409925086801515612d1857fe5b87801515612d2257fe5b878809600309915086801515612d3457fe5b87801515612d3e57fe5b848508880388801515612d4d57fe5b84850908808952905086801515612d6057fe5b87801515612d6a57fe5b88801515612d7457fe5b868709600809880388801515612d8657fe5b89801515612d9057fe5b848b038708850908602089015286801515612da757fe5b87801515612db157fe5b60408a0151870960020960408901525b5050505050505050565b6000612dd5613073565b612ddd6131ca565b60008080808060208a01511515612e0c5788518a52602089015160208b015260018a60025b6020020152612fd9565b60208901511515612e1c57612fd9565b6401000003d01997508760408b015160408c015109875287801515612e3d57fe5b875160408c01510960208801526080604051908101604052808b5181526020018b60016020020151815260200189801515612e7457fe5b89518c5109815260200189801515612e8857fe5b60208a015160208d01510990529550604086015186511415612ed5576060860151602087015114612ec7576000808b5260208b018190528a6002612e02565b612ed08a612cba565b612fd9565b87801515612edf57fe5b86518903604088015108945087801515612ef557fe5b60208701518903606088015108935087801515612f0e57fe5b858609925087801515612f1d57fe5b858409915087801515612f2c57fe5b82890389801515612f3957fe5b86870908905087801515612f4957fe5b88801515612f5357fe5b89801515612f5d57fe5b8589510960020989038208808b52905087801515612f7757fe5b88801515612f8157fe5b828a038a801515612f8e57fe5b868a510908850960208b015287801515612fa457fe5b88801515612fae57fe5b83602089015109890360208c01510860208b015287801515612fcc57fe5b60408b0151860960408b01525b50505050505050505050565b815481835581811511611a0157600502816005028360005260206000209182019101611a0191906131e4565b826002810192821561303f579160200282015b8281111561303f578251825591602001919060010190613024565b5061304b929150613239565b5090565b815481835581811511611a0157600083815260209020611a01918101908301613239565b604080519081016040526002815b60008152602001906001900390816130815790505090565b606060405190810160405260008152600260208201613081565b815481835581811511611a0157600202816002028360005260206000209182019101611a019190613253565b60c06040519081016040908152600080835260208301528101613100613073565b815260200160008152602001600081525090565b828054600181600116156101000203166002900490600052602060002090601f016020900481019282601f1061315557805160ff191683800117855561303f565b8280016001018555821561303f579182018281111561303f578251825591602001919060010190613024565b6103006040519081016040526008815b613199613099565b8152602001906001900390816131915790505090565b61020060405190810160405260008152600f60208201613081565b608060405190810160405260008152600360208201613081565b6116e691905b8082111561304b57805474ffffffffffffffffffffffffffffffffffffffffff19168155600061321d6001830182613276565b5060038101805460ff19169055600060048201556005016131ea565b6116e691905b8082111561304b576000815560010161323f565b6116e691905b8082111561304b57600061326d8282613276565b50600201613259565b5060008155600101600090555600a165627a7a7230582001ec0e000b1a088e152ced61086b5c3192cd64ee377e9917ee30dc5630e18b650029",
  "source": "pragma solidity ^0.4.7;\r\nimport \"./OrPoK.sol\";\r\n\r\ncontract SmartWerewolf {\r\n    //parameters using bitcoin's curve (fixed for every game)\r\n    uint constant p = 0xFFFFFFFFFFFFFFFFFFFFFFFFFFFFFFFFFFFFFFFFFFFFFFFFFFFFFFFEFFFFFC2F;\r\n    uint constant Gx =0x79BE667EF9DCBBAC55A06295CE870B07029BFCDB2DCE28D959F2815B16F81798;\r\n    uint constant Gy = 0x483ADA7726A3C4655DA4FBFC0E1108A8FD17B448A68554199C47D08FFB10D4B8;\r\n    uint public constant q = 0xFFFFFFFFFFFFFFFFFFFFFFFFFFFFFFFEBAAEDCE6AF48A03BBFD25E8CD0364141;\r\n    OrPoK processPoK; \r\n\r\n    //bullet broad (fixed during 1 game)\r\n    Player[] public players;\r\n    uint[] MPC;\r\n    uint[2][] public deck;\r\n    uint public n;\r\n    uint[2] G;\r\n    mapping (address => uint) public playerNumOf;\r\n    mapping(bytes32 => uint) public roleOf;\r\n    \r\n    //up-to-date report (change in game)\r\n    mapping(uint => uint) public living;\r\n    address[] public livingPlayers;\r\n    mapping(address => uint) public theLivingNumOf;\r\n    string public winner;\r\n    \r\n    function SmartWerewolf(address addressPoK) public {\r\n        processPoK = OrPoK(addressPoK);\r\n        G[0] = Gx;\r\n        G[1] = Gy;\r\n    }\r\n\r\n    //1. \r\n    function engagement(address[] _players) public {\r\n        require(_players.length >= 6);\r\n        n = _players.length;\r\n        players.length = 1+ n;\r\n        uint i;\r\n        for (i = 1; i <= n; i++) {\r\n            players[i] = Player\r\n            (\r\n                {\r\n                    name: _players[ i-1 ],  \r\n                    live: true, \r\n                    hand: [uint(0),0], \r\n                    role: RoleTypes.Unseen,\r\n                    pokerKey: 0\r\n                }\r\n           ); \r\n        playerNumOf[players[i].name] = i;\r\n        }\r\n        \r\n        living[uint(RoleTypes.Werewolf)]=2;\r\n        living[uint(RoleTypes.Seer)]=1;\r\n        living[uint(RoleTypes.Villager)]=n-3;\r\n\r\n        livingPlayers.length=n+1;\r\n        for(i=1;i<=n;i++){\r\n            livingPlayers[i]=players[i].name;\r\n            theLivingNumOf[players[i].name]=i;\r\n        }\r\n    }\r\n    \r\n    //2-1 \r\n    //(a)    \r\n    function createCards() public {   \r\n        MPC.length = deck.length = 1+n;\r\n        for(uint i=0; i <= n; i++ ){\r\n            prepareDeck(i);\r\n        }\r\n        for(i=0; i<=n; i++){\r\n            (deck[i][0], deck[i][1]) = multiply(MPC[i], G);\r\n        }\r\n        generateMap(deck[0], RoleTypes.Unseen);\r\n        generateMap(deck[1], RoleTypes.Werewolf);\r\n        generateMap(deck[2], RoleTypes.Werewolf);\r\n        generateMap(deck[3], RoleTypes.Seer);\r\n        for (uint j = 4; j <= n; j++) {\r\n            generateMap(deck[j], RoleTypes.Villager);\r\n        }\r\n    }\r\n    function shuffleCardBy(uint i, uint pokerKey) external{\r\n        //encrypt each card\r\n        uint printBack = pokerKey; \r\n        for(uint k=0; k<=n; k++){\r\n            (deck[k][0], deck[k][1]) = multiply(printBack, deck[k]);\r\n        }\r\n        //any shuffle\r\n        /*uint[2] memory tmp;\r\n        uint j = ((i+3)-1) % n + 1;\r\n        (tmp[0], tmp[1]) = (deck[j][0], deck[j][1]);\r\n        (deck[j][0], deck[j][1]) = (deck[i][0], deck[i][1]);\r\n        (deck[i][0], deck[i][1]) = (tmp[0], tmp[1]);*/\r\n    }\r\n    //TODO:(b)  \r\n    function shuffleCards() public {\r\n        uint printBack = 0x7717; \r\n        for(uint i=0; i<=n; i++){\r\n            (deck[i][0], deck[i][1]) = multiply(printBack, deck[i]);\r\n        }\r\n        uint[2] memory tmp;\r\n        (tmp[0], tmp[1]) = (deck[2][0], deck[2][1]);\r\n        (deck[2][0], deck[2][1]) = (deck[5][0], deck[5][1]);\r\n        (deck[5][0], deck[5][1]) = (tmp[0], tmp[1]);\r\n    } \r\n\r\n    //TODO: 2-2.  \r\n    function dealCards() public {\r\n        for(uint i=1; i<=n; i++){\r\n            (players[i].hand[0], players[i].hand[1])  \r\n            = (deck[i][0], deck[i][1]);\r\n        }\r\n        helpDecryptRole();\r\n    }\r\n\r\n    function dealCardTo(uint i) external view returns(uint[2] hand){\r\n        (hand[0],hand[1])=(deck[i][0], deck[i][1]);\r\n    }\r\n\r\n    function nightKill(address victimName, uint proofCanKill) public {\r\n        uint v = playerNumOf[victimName];\r\n        Player memory victim = players[v];\r\n        require (verify(proofCanKill, victim)==true);\r\n        killed(victimName);\r\n    }\r\n    \r\n    function dayVoting(address name) public {\r\n        \r\n        killed(name);\r\n\r\n    }\r\n\r\n    function openRole(RoleTypes _role, uint _pokerKey) public {\r\n        require(verifyRole(_role, _pokerKey)==true);\r\n        uint i = playerNumOf[msg.sender];\r\n        players[i].role = _role;\r\n        players[i].pokerKey=_pokerKey;\r\n        \r\n        living[uint(_role)]--;\r\n\r\n        if(living[uint(RoleTypes.Werewolf)]==living[uint(RoleTypes.Seer)]+living[uint(RoleTypes.Villager)]){\r\n            winner = \"Werewolves\";\r\n        }\r\n        else if(living[uint(RoleTypes.Werewolf)]==0){\r\n            winner = \"Humans\";\r\n        }\r\n    }\r\n\r\n    function roleOf(uint[2] card) public view returns(uint) {return roleOf[keccak256(card)];}\r\n    function cardOrder() public pure returns(uint) {return q;}\r\n    function getHandOf(address name) public view returns(uint[2] hand){\r\n        uint i = playerNumOf[name];\r\n        (hand[0] ,hand[1]) = ((players[i].hand)[0], (players[i].hand)[1]);\r\n    }\r\n\r\n    function numSurvive() public view returns(uint) {return livingPlayers.length-1;}\r\n\r\n    function werewolfFrameKilling(uint[2] framedHand, uint[2] _werewolfCard,  uint victim) public view returns(uint[2] __werewolfCard, uint[2] _framedHand, uint _victim, uint[3] T, uint c, uint s){\r\n        return processPoK.forgeProof(_werewolfCard, framedHand, victim);\r\n    }\r\n\r\n    function werewolfCard() external view returns(uint cardX,uint cardY){\r\n        (cardX, cardY) = (deck[1][0], deck[1][1]);\r\n    }\r\n    \r\n    function werewolfChooset(uint pokerKey, uint[2][] hands, uint[2] _werewolfCard, uint victim ) external view returns(uint realt){\r\n\r\n        return processPoK.computeRealt(_werewolfCard, hands, pokerKey, victim);\r\n    }\r\n\r\n    function werewolfComputeT(uint realt, uint[2] _werewolfCard) public view returns(uint[3] realT){\r\n        return processPoK.computeTFrom(realt, _werewolfCard);\r\n    }\r\n\r\n    function computeChallenge(uint[2] _werewolfCard, uint[2][] _hands, uint victim, uint[3][] Ts) public view returns(uint realChallenge){\r\n        return processPoK.computeChallenge(_werewolfCard, _hands, victim, Ts);\r\n    }\r\n\r\n    function werewolfProve(uint pokerKey, uint[2] _werewolfCard, uint[2] hand, uint victim, uint tReady,uint cReady) public view returns(uint[2] __werewolfCard, uint[2] _hand, uint _victim, uint[3] T, uint c, uint s){\r\n        return processPoK.createSchnorr(pokerKey, _werewolfCard, hand, victim, tReady, cReady);\r\n    }\r\n\r\n    function verifyWerewolfProof(uint[2] _werewolfCard, uint[2] hand,  uint[3] T, uint c, uint s) public view returns (bool result){\r\n        return processPoK.verifySchnorr(_werewolfCard, hand, T, c, s);\r\n    }\r\n\r\n    function prepareDeck(uint i) internal {\r\n        \r\n        MPC[ i ] = (i+123) % q;\r\n        //avoid use 0. function toZ1 revert at point at infinity\r\n    \r\n    }\r\n    \r\n    function helpDecryptRole() internal {\r\n        for(uint i=1; i<=n; i++){\r\n        \tuint[2] storage hand = players[i].hand;\r\n        \thand[0] ++;\r\n        } \r\n    }\r\n\r\n    function helpDecryptRole(uint me, uint pokerKey, uint i, uint[2] cipherCard) external view returns (uint[2] decryptCard){\r\n        if(me == i){\r\n            (decryptCard[0], decryptCard[1]) = (cipherCard[0], cipherCard[1]);\r\n        }else{\r\n            uint keyInverse = ECCMath_noconflict.invmod(pokerKey, q);\r\n            (decryptCard[0],decryptCard[1]) = multiply(keyInverse, cipherCard);\r\n        }\r\n       \r\n    }\r\n\r\n    function killed(address player) internal{\r\n        uint i = playerNumOf[player];\r\n        players[i].live=false;\r\n        uint j= theLivingNumOf[player];\r\n        \r\n        for(uint k=j; k<= livingPlayers.length-2 ; k++){\r\n            livingPlayers[k] = livingPlayers[k+1];\r\n            theLivingNumOf[livingPlayers[k]]--;\r\n        }\r\n        livingPlayers.length--;\r\n        theLivingNumOf[player]=0;\r\n    }\r\n\r\n\r\n    function multiply(uint s, uint[2] point) public view returns(uint ,uint){\r\n        uint[3] memory result = Secp256k1_noconflict._mul(s, point);\r\n        ECCMath_noconflict.toZ1(result, p);\r\n        return (result[0],result[1]);\r\n    }\r\n\r\n    function generateMap(uint[2] card, RoleTypes role) internal {\r\n        \r\n        roleOf[keccak256(card)] = uint(role);\r\n    \r\n    }\r\n\r\n    function verifyRole(RoleTypes _role, uint _pokerKey) pure internal returns(bool){\r\n        \r\n        return (_role!=RoleTypes.Unseen && _pokerKey==456);\r\n    \r\n    }\r\n    \r\n    function verify(uint proofCanKill, Player victim) pure internal returns(bool){\r\n        \r\n        return proofCanKill == 123 && victim.live == true;\r\n    }\r\n    \r\n    enum RoleTypes{Unseen, Werewolf, Seer, Villager}\r\n    \r\n    struct Player{\r\n        address name;\r\n        bool live;\r\n        uint[2] hand;\r\n        RoleTypes role;\r\n        uint pokerKey;\r\n    }\r\n\r\n   struct KillConditions{\r\n        uint iAmWerewolf;\r\n        uint iAmLive;\r\n        uint victimLive;\r\n    }\r\n    \r\n    event PlayerReady(uint numPlayers);\r\n   \r\n    event debug(uint i);\r\n}",
  "sourcePath": "C:\\Users\\eason\\Documents\\GitHub\\SmartWerewolf\\contracts\\SmartWerewolf.sol",
  "compiler": {
    "name": "solc",
    "version": "0.4.21+commit.dfe3193c.Emscripten.clang"
  },
  "schemaVersion": "2.0.0",
  "updatedAt": "2018-05-04T16:26:55.692Z"
}