{
  "contractName": "SmartWerewolf",
  "abi": [
    {
      "constant": true,
      "inputs": [],
      "name": "n",
      "outputs": [
        {
          "name": "",
          "type": "uint256"
        }
      ],
      "payable": false,
      "stateMutability": "view",
      "type": "function"
    },
    {
      "constant": true,
      "inputs": [
        {
          "name": "",
          "type": "address"
        }
      ],
      "name": "playerNumOf",
      "outputs": [
        {
          "name": "",
          "type": "uint256"
        }
      ],
      "payable": false,
      "stateMutability": "view",
      "type": "function"
    },
    {
      "constant": true,
      "inputs": [
        {
          "name": "",
          "type": "address"
        }
      ],
      "name": "theLivingNumOf",
      "outputs": [
        {
          "name": "",
          "type": "uint256"
        }
      ],
      "payable": false,
      "stateMutability": "view",
      "type": "function"
    },
    {
      "constant": true,
      "inputs": [
        {
          "name": "",
          "type": "bytes32"
        }
      ],
      "name": "roleOf",
      "outputs": [
        {
          "name": "",
          "type": "uint256"
        }
      ],
      "payable": false,
      "stateMutability": "view",
      "type": "function"
    },
    {
      "constant": true,
      "inputs": [
        {
          "name": "",
          "type": "uint256"
        },
        {
          "name": "",
          "type": "uint256"
        }
      ],
      "name": "deck",
      "outputs": [
        {
          "name": "",
          "type": "uint256"
        }
      ],
      "payable": false,
      "stateMutability": "view",
      "type": "function"
    },
    {
      "constant": true,
      "inputs": [
        {
          "name": "",
          "type": "uint256"
        }
      ],
      "name": "livingPlayers",
      "outputs": [
        {
          "name": "",
          "type": "address"
        }
      ],
      "payable": false,
      "stateMutability": "view",
      "type": "function"
    },
    {
      "constant": true,
      "inputs": [],
      "name": "winner",
      "outputs": [
        {
          "name": "",
          "type": "string"
        }
      ],
      "payable": false,
      "stateMutability": "view",
      "type": "function"
    },
    {
      "constant": true,
      "inputs": [
        {
          "name": "",
          "type": "uint256"
        }
      ],
      "name": "living",
      "outputs": [
        {
          "name": "",
          "type": "uint256"
        }
      ],
      "payable": false,
      "stateMutability": "view",
      "type": "function"
    },
    {
      "constant": true,
      "inputs": [
        {
          "name": "",
          "type": "uint256"
        }
      ],
      "name": "players",
      "outputs": [
        {
          "name": "name",
          "type": "address"
        },
        {
          "name": "live",
          "type": "bool"
        },
        {
          "name": "role",
          "type": "uint8"
        },
        {
          "name": "pokerKey",
          "type": "uint256"
        }
      ],
      "payable": false,
      "stateMutability": "view",
      "type": "function"
    },
    {
      "constant": true,
      "inputs": [
        {
          "name": "",
          "type": "address"
        }
      ],
      "name": "deposits",
      "outputs": [
        {
          "name": "",
          "type": "uint256"
        }
      ],
      "payable": false,
      "stateMutability": "view",
      "type": "function"
    },
    {
      "constant": true,
      "inputs": [],
      "name": "q",
      "outputs": [
        {
          "name": "",
          "type": "uint256"
        }
      ],
      "payable": false,
      "stateMutability": "view",
      "type": "function"
    },
    {
      "inputs": [
        {
          "name": "addressPoK",
          "type": "address"
        }
      ],
      "payable": false,
      "stateMutability": "nonpayable",
      "type": "constructor"
    },
    {
      "anonymous": false,
      "inputs": [
        {
          "indexed": false,
          "name": "livingPlayerNum",
          "type": "uint256"
        },
        {
          "indexed": false,
          "name": "livingPlayerName",
          "type": "address"
        }
      ],
      "name": "RegLivingPlayer",
      "type": "event"
    },
    {
      "anonymous": false,
      "inputs": [
        {
          "indexed": false,
          "name": "outLiving",
          "type": "uint256[4]"
        }
      ],
      "name": "RegLivingRole",
      "type": "event"
    },
    {
      "anonymous": false,
      "inputs": [
        {
          "indexed": false,
          "name": "i",
          "type": "uint256"
        }
      ],
      "name": "debug",
      "type": "event"
    },
    {
      "anonymous": false,
      "inputs": [
        {
          "indexed": true,
          "name": "outPlayerNum",
          "type": "uint256"
        },
        {
          "indexed": false,
          "name": "outPlayerName",
          "type": "address"
        },
        {
          "indexed": false,
          "name": "outPlayerLive",
          "type": "bool"
        },
        {
          "indexed": false,
          "name": "outPlayerHand",
          "type": "uint256[2]"
        },
        {
          "indexed": false,
          "name": "outPlayerRole",
          "type": "uint8"
        },
        {
          "indexed": false,
          "name": "outPlayerKey",
          "type": "uint256"
        }
      ],
      "name": "JoinPlayer",
      "type": "event"
    },
    {
      "anonymous": false,
      "inputs": [
        {
          "indexed": true,
          "name": "outPlayerName",
          "type": "address"
        },
        {
          "indexed": false,
          "name": "outValue",
          "type": "uint256"
        }
      ],
      "name": "Deposit",
      "type": "event"
    },
    {
      "anonymous": false,
      "inputs": [
        {
          "indexed": false,
          "name": "numPlayers",
          "type": "uint256"
        }
      ],
      "name": "PlayerReady",
      "type": "event"
    },
    {
      "constant": false,
      "inputs": [
        {
          "name": "_players",
          "type": "address[]"
        }
      ],
      "name": "engagement",
      "outputs": [],
      "payable": false,
      "stateMutability": "nonpayable",
      "type": "function"
    },
    {
      "constant": false,
      "inputs": [],
      "name": "quickDepositGame",
      "outputs": [],
      "payable": true,
      "stateMutability": "payable",
      "type": "function"
    },
    {
      "constant": false,
      "inputs": [
        {
          "name": "inPlayerNames",
          "type": "address[]"
        }
      ],
      "name": "quickEngagePlayers",
      "outputs": [],
      "payable": false,
      "stateMutability": "nonpayable",
      "type": "function"
    },
    {
      "constant": true,
      "inputs": [
        {
          "name": "",
          "type": "address"
        }
      ],
      "name": "regTheLiving",
      "outputs": [
        {
          "name": "livingPlayerNum",
          "type": "uint256"
        },
        {
          "name": "livingPlayerName",
          "type": "address"
        }
      ],
      "payable": false,
      "stateMutability": "view",
      "type": "function"
    },
    {
      "constant": false,
      "inputs": [],
      "name": "createCards",
      "outputs": [],
      "payable": false,
      "stateMutability": "nonpayable",
      "type": "function"
    },
    {
      "constant": true,
      "inputs": [
        {
          "name": "i",
          "type": "uint256"
        },
        {
          "name": "inMPC",
          "type": "uint256"
        }
      ],
      "name": "quickCreateCard",
      "outputs": [
        {
          "name": "outCard",
          "type": "uint256[2]"
        },
        {
          "name": "cardNum",
          "type": "uint256"
        },
        {
          "name": "roleNum",
          "type": "uint256"
        }
      ],
      "payable": false,
      "stateMutability": "view",
      "type": "function"
    },
    {
      "constant": false,
      "inputs": [
        {
          "name": "i",
          "type": "uint256"
        },
        {
          "name": "pokerKey",
          "type": "uint256"
        }
      ],
      "name": "shuffleCardBy",
      "outputs": [],
      "payable": false,
      "stateMutability": "nonpayable",
      "type": "function"
    },
    {
      "constant": true,
      "inputs": [
        {
          "name": "i",
          "type": "uint256"
        },
        {
          "name": "pokerKey",
          "type": "uint256"
        },
        {
          "name": "inDeck",
          "type": "uint256[2][]"
        },
        {
          "name": "numCards",
          "type": "uint256"
        }
      ],
      "name": "quickShuffleCardBy",
      "outputs": [
        {
          "name": "outDeck",
          "type": "uint256[2][]"
        }
      ],
      "payable": false,
      "stateMutability": "view",
      "type": "function"
    },
    {
      "constant": false,
      "inputs": [],
      "name": "shuffleCards",
      "outputs": [],
      "payable": false,
      "stateMutability": "nonpayable",
      "type": "function"
    },
    {
      "constant": false,
      "inputs": [],
      "name": "dealCards",
      "outputs": [],
      "payable": false,
      "stateMutability": "nonpayable",
      "type": "function"
    },
    {
      "constant": true,
      "inputs": [
        {
          "name": "i",
          "type": "uint256"
        }
      ],
      "name": "dealCardTo",
      "outputs": [
        {
          "name": "hand",
          "type": "uint256[2]"
        }
      ],
      "payable": false,
      "stateMutability": "view",
      "type": "function"
    },
    {
      "constant": false,
      "inputs": [
        {
          "name": "victimName",
          "type": "address"
        },
        {
          "name": "proofCanKill",
          "type": "uint256"
        }
      ],
      "name": "nightKill",
      "outputs": [],
      "payable": false,
      "stateMutability": "nonpayable",
      "type": "function"
    },
    {
      "constant": false,
      "inputs": [
        {
          "name": "name",
          "type": "address"
        }
      ],
      "name": "dayVoting",
      "outputs": [],
      "payable": false,
      "stateMutability": "nonpayable",
      "type": "function"
    },
    {
      "constant": false,
      "inputs": [
        {
          "name": "_role",
          "type": "uint8"
        },
        {
          "name": "_pokerKey",
          "type": "uint256"
        }
      ],
      "name": "openRole",
      "outputs": [],
      "payable": false,
      "stateMutability": "nonpayable",
      "type": "function"
    },
    {
      "constant": true,
      "inputs": [
        {
          "name": "card",
          "type": "uint256[2]"
        }
      ],
      "name": "hashCard",
      "outputs": [
        {
          "name": "",
          "type": "uint256"
        }
      ],
      "payable": false,
      "stateMutability": "pure",
      "type": "function"
    },
    {
      "constant": true,
      "inputs": [
        {
          "name": "card",
          "type": "uint256[2]"
        }
      ],
      "name": "checkRoleOf",
      "outputs": [
        {
          "name": "",
          "type": "uint256"
        }
      ],
      "payable": false,
      "stateMutability": "view",
      "type": "function"
    },
    {
      "constant": true,
      "inputs": [],
      "name": "cardOrder",
      "outputs": [
        {
          "name": "",
          "type": "uint256"
        }
      ],
      "payable": false,
      "stateMutability": "pure",
      "type": "function"
    },
    {
      "constant": true,
      "inputs": [
        {
          "name": "name",
          "type": "address"
        }
      ],
      "name": "getHandOf",
      "outputs": [
        {
          "name": "hand",
          "type": "uint256[2]"
        }
      ],
      "payable": false,
      "stateMutability": "view",
      "type": "function"
    },
    {
      "constant": true,
      "inputs": [],
      "name": "numSurvive",
      "outputs": [
        {
          "name": "",
          "type": "uint256"
        }
      ],
      "payable": false,
      "stateMutability": "view",
      "type": "function"
    },
    {
      "constant": true,
      "inputs": [
        {
          "name": "framedHand",
          "type": "uint256[2]"
        },
        {
          "name": "_werewolfCard",
          "type": "uint256[2]"
        },
        {
          "name": "victim",
          "type": "uint256"
        }
      ],
      "name": "werewolfFrameKilling",
      "outputs": [
        {
          "name": "__werewolfCard",
          "type": "uint256[2]"
        },
        {
          "name": "_framedHand",
          "type": "uint256[2]"
        },
        {
          "name": "_victim",
          "type": "uint256"
        },
        {
          "name": "T",
          "type": "uint256[3]"
        },
        {
          "name": "c",
          "type": "uint256"
        },
        {
          "name": "s",
          "type": "uint256"
        }
      ],
      "payable": false,
      "stateMutability": "view",
      "type": "function"
    },
    {
      "constant": true,
      "inputs": [],
      "name": "werewolfCard",
      "outputs": [
        {
          "name": "cardX",
          "type": "uint256"
        },
        {
          "name": "cardY",
          "type": "uint256"
        }
      ],
      "payable": false,
      "stateMutability": "view",
      "type": "function"
    },
    {
      "constant": true,
      "inputs": [
        {
          "name": "pokerKey",
          "type": "uint256"
        },
        {
          "name": "hands",
          "type": "uint256[2][]"
        },
        {
          "name": "_werewolfCard",
          "type": "uint256[2]"
        },
        {
          "name": "victim",
          "type": "uint256"
        }
      ],
      "name": "werewolfChooset",
      "outputs": [
        {
          "name": "realt",
          "type": "uint256"
        }
      ],
      "payable": false,
      "stateMutability": "view",
      "type": "function"
    },
    {
      "constant": true,
      "inputs": [
        {
          "name": "realt",
          "type": "uint256"
        },
        {
          "name": "_werewolfCard",
          "type": "uint256[2]"
        }
      ],
      "name": "werewolfComputeT",
      "outputs": [
        {
          "name": "realT",
          "type": "uint256[3]"
        }
      ],
      "payable": false,
      "stateMutability": "view",
      "type": "function"
    },
    {
      "constant": true,
      "inputs": [
        {
          "name": "_werewolfCard",
          "type": "uint256[2]"
        },
        {
          "name": "_hands",
          "type": "uint256[2][]"
        },
        {
          "name": "victim",
          "type": "uint256"
        },
        {
          "name": "Ts",
          "type": "uint256[3][]"
        }
      ],
      "name": "computeChallenge",
      "outputs": [
        {
          "name": "realChallenge",
          "type": "uint256"
        }
      ],
      "payable": false,
      "stateMutability": "view",
      "type": "function"
    },
    {
      "constant": true,
      "inputs": [
        {
          "name": "pokerKey",
          "type": "uint256"
        },
        {
          "name": "_werewolfCard",
          "type": "uint256[2]"
        },
        {
          "name": "hand",
          "type": "uint256[2]"
        },
        {
          "name": "victim",
          "type": "uint256"
        },
        {
          "name": "tReady",
          "type": "uint256"
        },
        {
          "name": "cReady",
          "type": "uint256"
        }
      ],
      "name": "werewolfProve",
      "outputs": [
        {
          "name": "__werewolfCard",
          "type": "uint256[2]"
        },
        {
          "name": "_hand",
          "type": "uint256[2]"
        },
        {
          "name": "_victim",
          "type": "uint256"
        },
        {
          "name": "T",
          "type": "uint256[3]"
        },
        {
          "name": "c",
          "type": "uint256"
        },
        {
          "name": "s",
          "type": "uint256"
        }
      ],
      "payable": false,
      "stateMutability": "view",
      "type": "function"
    },
    {
      "constant": true,
      "inputs": [
        {
          "name": "_werewolfCard",
          "type": "uint256[2]"
        },
        {
          "name": "hand",
          "type": "uint256[2]"
        },
        {
          "name": "T",
          "type": "uint256[3]"
        },
        {
          "name": "c",
          "type": "uint256"
        },
        {
          "name": "s",
          "type": "uint256"
        }
      ],
      "name": "verifyWerewolfProof",
      "outputs": [
        {
          "name": "result",
          "type": "bool"
        }
      ],
      "payable": false,
      "stateMutability": "view",
      "type": "function"
    },
    {
      "constant": true,
      "inputs": [
        {
          "name": "i",
          "type": "uint256"
        }
      ],
      "name": "quickPrepareDeck",
      "outputs": [
        {
          "name": "outMPC",
          "type": "uint256"
        }
      ],
      "payable": false,
      "stateMutability": "view",
      "type": "function"
    },
    {
      "constant": true,
      "inputs": [
        {
          "name": "me",
          "type": "uint256"
        },
        {
          "name": "pokerKey",
          "type": "uint256"
        },
        {
          "name": "i",
          "type": "uint256"
        },
        {
          "name": "cipherCard",
          "type": "uint256[2]"
        }
      ],
      "name": "helpDecryptRole",
      "outputs": [
        {
          "name": "decryptCard",
          "type": "uint256[2]"
        }
      ],
      "payable": false,
      "stateMutability": "view",
      "type": "function"
    },
    {
      "constant": true,
      "inputs": [
        {
          "name": "me",
          "type": "uint256"
        },
        {
          "name": "pokerKey",
          "type": "uint256"
        },
        {
          "name": "cipherCard",
          "type": "uint256[2]"
        }
      ],
      "name": "recoverRole",
      "outputs": [
        {
          "name": "decryptCard",
          "type": "uint256[2]"
        }
      ],
      "payable": false,
      "stateMutability": "view",
      "type": "function"
    },
    {
      "constant": true,
      "inputs": [
        {
          "name": "s",
          "type": "uint256"
        },
        {
          "name": "point",
          "type": "uint256[2]"
        }
      ],
      "name": "multiply",
      "outputs": [
        {
          "name": "",
          "type": "uint256"
        },
        {
          "name": "",
          "type": "uint256"
        }
      ],
      "payable": false,
      "stateMutability": "view",
      "type": "function"
    },
    {
      "constant": true,
      "inputs": [
        {
          "name": "card",
          "type": "uint256[2]"
        },
        {
          "name": "role",
          "type": "uint8"
        }
      ],
      "name": "quickGenerateMap",
      "outputs": [
        {
          "name": "cardNum",
          "type": "uint256"
        },
        {
          "name": "roleNum",
          "type": "uint256"
        }
      ],
      "payable": false,
      "stateMutability": "pure",
      "type": "function"
    }
  ],
  "bytecode": "0x6060604052341561000f57600080fd5b604051602080613c4c8339810160405280805160008054600160a060020a031916600160a060020a0383161781559092507f79be667ef9dcbbac55a06295ce870b07029bfcdb2dce28d959f2815b16f81798915060059001557f483ada7726a3c4655da4fbfc0e1108a8fd17b448a68554199c47d08ffb10d4b860056001015550613bad8061009f6000396000f3006060604052600436106101ea5763ffffffff60e060020a600035041663076d968081146101ef57806307f7470b146102405780630cbee0e3146102eb5780631053dad1146103fa57806314a9a121146104485780632e52d606146104a0578063313ffac1146104b35780633e5a438d146104da578063474ab93c146105535780634ef3ea741461056c57806352f9aaea1461058b57806354054cd5146105e2578063568bd63e1461060157806358801f17146106145780635c56e508146106275780636e6ac9c61461063a57806384886269146106505780638c3b02d8146106665780638c785f88146106ff57806398226cb7146107125780639a01967814610752578063a15352d514610774578063a4f195aa1461077c578063ab27783314610798578063acb2c01a146107b6578063ad3b99a4146107c9578063b77d126814610818578063c0cb6b2414610940578063c52e3e4a1461099a578063d34544cd146109b0578063d5b1de7e146109c9578063d6ffa29a14610a05578063d9e0bf4e14610a18578063dfbf53ae14610a4a578063eb28808114610ad4578063eb47688c14610aea578063f292c21514610b05578063f4d40d2614610b46578063f6ac71cd14610ba5578063f71d96cb14610bc4578063fc7e286d14610c1e578063fd3ab28214610c3d575b600080fd5b34156101fa57600080fd5b61023e6004602481358181019083013580602081810201604051908101604052809392919081815260200183836020028082843750949650610c5095505050505050565b005b341561024b57600080fd5b6102d7600460448160026040805190810160405280929190826002602002808284378201915050505050919080604001906002806020026040519081016040528092919082600260200280828437820191505050505091908060600190600380602002604051908101604052919082826060808284375093955050833593602001359250610ed6915050565b604051901515815260200160405180910390f35b34156102f657600080fd5b610355600460448160026040805190810160405280929190826002602002808284378201915050505050919080604001906002806020026040519081016040528092919082600260200280828437509395505092359250610fcd915050565b6040518087604080838360005b8381101561037a578082015183820152602001610362565b5050505090500186600260200280838360005b838110156103a557808201518382015260200161038d565b5050505090500185815260200184600360200280838360005b838110156103d65780820151838201526020016103be565b50505050905001838152602001828152602001965050505050505060405180910390f35b341561040557600080fd5b61043660046044816002604080519081016040528092919082600260200280828437509395506110d7945050505050565b60405190815260200160405180910390f35b341561045357600080fd5b610488600480359060646024600260408051908101604052809291908260026020028082843750939550611118945050505050565b60405191825260208201526040908101905180910390f35b34156104ab57600080fd5b610436611152565b34156104be57600080fd5b6104366004803590602480359081019101356044608435611158565b34156104e557600080fd5b610355600480359060646024600260408051908101604052809291908260026020028082843782019150505050509190806040019060028060200260405190810160405280929190826002602002808284375093955050833593602081013593506040013591506111de9050565b341561055e57600080fd5b61023e600435602435611305565b341561057757600080fd5b610436600160a060020a03600435166113c6565b341561059657600080fd5b6105aa600160a060020a03600435166113d8565b6040518082604080838360005b838110156105cf5780820151838201526020016105b7565b5050505090500191505060405180910390f35b34156105ed57600080fd5b610436600160a060020a036004351661144b565b341561060c57600080fd5b61048861145d565b341561061f57600080fd5b61023e6114ae565b341561063257600080fd5b61023e61166d565b341561064557600080fd5b6104366004356118fd565b341561065b57600080fd5b61043660043561190f565b341561067157600080fd5b61068f6004803590602480359160443591820191013560643561192c565b604051602080825281908101838181518152602001915080516000925b818410156106ee57602080850284010151604080838360005b838110156106dd5780820151838201526020016106c5565b5050505090500192600101926106ac565b925050509250505060405180910390f35b341561070a57600080fd5b610436611a12565b341561071d57600080fd5b610731600160a060020a0360043516611a29565b604051918252600160a060020a031660208201526040908101905180910390f35b341561075d57600080fd5b61023e600160a060020a0360043516602435611a31565b61023e611b34565b341561078757600080fd5b61023e60ff60043516602435611b86565b34156107a357600080fd5b6105aa6004356024356044356064611cf5565b34156107c157600080fd5b610436611d73565b34156107d457600080fd5b61023e6004602481358181019083013580602081810201604051908101604052809392919081815260200183836020028082843750949650611d7d95505050505050565b341561082357600080fd5b610436600460448160026040805190810160405280929190826002602002808284375093959460208082019550903586018082019450359250829150818102016040519081016040528181529291906000602085015b828210156108b8576040808302860190600290805190810160405280929190826002602002808284375050509183525050600190910190602001610879565b505050505091908035906020019091908035906020019082018035906020019080806020026020016040519081016040528181529291906000602085015b828210156109325760608083028601906003906040519081016040529190828260608082843750505091835250506001909101906020016108f6565b5050505050919050506121e8565b341561094b57600080fd5b610980600480359060646024600260408051908101604052809291908260026020028082843750939550612342945050505050565b6040518082606080838360008151838201526020016105b7565b34156109a557600080fd5b6105aa6004356123e0565b34156109bb57600080fd5b610436600435602435612436565b34156109d457600080fd5b6104366004604481600260408051908101604052809291908260026020028082843750939550612468945050505050565b3415610a1057600080fd5b61023e6124be565b3415610a2357600080fd5b610a2e60043561256e565b604051600160a060020a03909116815260200160405180910390f35b3415610a5557600080fd5b610a5d612596565b60405160208082528190810183818151815260200191508051906020019080838360005b83811015610a99578082015183820152602001610a81565b50505050905090810190601f168015610ac65780820380516001836020036101000a031916815260200191505b509250505060405180910390f35b3415610adf57600080fd5b610436600435612634565b3415610af557600080fd5b6105aa6004356024356044612648565b3415610b1057600080fd5b61048860046044816002604080519081016040528092919082600260200280828437509395505050913560ff1691506126a99050565b3415610b5157600080fd5b610b5f6004356024356126fc565b6040518084604080838360005b83811015610b84578082015183820152602001610b6c565b50505050905001838152602001828152602001935050505060405180910390f35b3415610bb057600080fd5b61023e600160a060020a0360043516612791565b3415610bcf57600080fd5b610bda60043561279a565b604051600160a060020a0385168152831515602082015260408101836003811115610c0157fe5b60ff16815260200182815260200194505050505060405180910390f35b3415610c2957600080fd5b610436600160a060020a03600435166127e4565b3415610c4857600080fd5b6104366127f6565b6000600682511015610c6157600080fd5b81516004819055600190810190610c7890826138d0565b50600190505b6004548111610df25760a060405190810160405280836001840381518110610ca257fe5b90602001906020020151600160a060020a031681526020016001151581526020016040805190810160405260008082526020808301829052918352910190815260006020909101526001805483908110610cf857fe5b90600052602060002090600502016000820151815473ffffffffffffffffffffffffffffffffffffffff1916600160a060020a03919091161781556020820151815490151560a060020a0274ff0000000000000000000000000000000000000000199091161781556040820151610d7590600183019060026138fc565b5060608201518160030160006101000a81548160ff02191690836003811115610d9a57fe5b0217905550608082015181600401559050508060076000600184815481101515610dc057fe5b60009182526020808320600590920290910154600160a060020a03168352820192909252604001902055600101610c7e565b6002600b556001600c8190556004546002198101600d5501610e15600e8261393a565b50600190505b6004548111610ed2576001805482908110610e3257fe5b6000918252602090912060059091020154600e8054600160a060020a039092169183908110610e5d57fe5b906000526020600020900160006101000a815481600160a060020a030219169083600160a060020a0316021790555080600f6000600184815481101515610ea057fe5b60009182526020808320600590920290910154600160a060020a03168352820192909252604001902055600101610e1b565b5050565b60008054600160a060020a0316632b0c1aba878787878760405160e060020a63ffffffff88160281526004018086604080838360005b83811015610f24578082015183820152602001610f0c565b5050505090500185600260200280838360005b83811015610f4f578082015183820152602001610f37565b5050505090500184600360200280838360005b83811015610f7a578082015183820152602001610f62565b5050505090500183815260200182815260200195505050505050602060405180830381600087803b1515610fad57600080fd5b5af11515610fba57600080fd5b5050506040518051979650505050505050565b610fd561395e565b610fdd61395e565b6000610fe7613984565b600080548190600160a060020a031663a2cf9308898b8a60405160e060020a63ffffffff86160281526004018084604080838360005b8381101561103557808201518382015260200161101d565b5050505090500183600260200280838360005b83811015611060578082015183820152602001611048565b50505050905001828152602001935050505061014060405180830381600087803b151561108c57600080fd5b5af1151561109957600080fd5b50505060405180604001806040018051906020018060600180519060200180516020909101604052949e939d50919b50995097509095509350505050565b6000816040518082604080838360005b838110156110ff5780820151838201526020016110e7565b5050505090500191505060405190819003902092915050565b600080611123613984565b61112d858561280c565b905061113f816401000003d019612c38565b8051602082015192509250509250929050565b60045481565b60008054600160a060020a031663b73318658487878a8760405160e060020a63ffffffff88160281526004018086604080828437820191505080602001848152602001838152602001828103825286868281815260200192506040028082843782019150509650505050505050602060405180830381600087803b1515610fad57600080fd5b6111e661395e565b6111ee61395e565b60006111f8613984565b600080548190600160a060020a031663d4540ff78d8d8d8d8d8d60405160e060020a63ffffffff8916028152600481018781529060240186604080838360005b83811015611250578082015183820152602001611238565b5050505090500185600260200280838360005b8381101561127b578082015183820152602001611263565b50505050905001848152602001838152602001828152602001965050505050505061014060405180830381600087803b15156112b657600080fd5b5af115156112c357600080fd5b50505060405180604001806040018051906020018060600180519060200180519060200160405295509550955095509550955096509650965096509650969050565b8060005b60045481116113c05761136c8260038381548110151561132557fe5b90600052602060002090600202016002806020026040519081016040529190828260026020028201915b81548152602001906001019080831161134f575050505050611118565b600380548490811061137a57fe5b6000918252602082206002909102019001600060038581548110151561139c57fe5b60009182526020909120600290910201600101929092559190915550600101611309565b50505050565b60076020526000908152604090205481565b6113e061395e565b600160a060020a038216600090815260076020526040902054600180548290811061140757fe5b600091825260208220600160059092020101900154600180548390811061142a57fe5b60009182526020918290206002600590920201015490840152825250919050565b600f6020526000908152604090205481565b6000806003600181548110151561147057fe5b60009182526020822060029091020190015460038054600190811061149157fe5b600091825260209091206002909102016001015490939092509050565b6000806114b961395e565b6177179250600091505b6004548211611536576114df8360038481548110151561132557fe5b60038054859081106114ed57fe5b6000918252602082206002909102019001600060038681548110151561150f57fe5b600091825260209091206002909102016001019290925591909155506001909101906114c3565b60038054600290811061154557fe5b60009182526020822060029091020190015460038054600290811061156657fe5b60009182526020918290206001600290920201015490830152815260038054600590811061159057fe5b6000918252602082206002909102019001546003805460059081106115b157fe5b60009182526020909120600290910201600101546003805460029081106115d457fe5b60009182526020822060029091020190016000600360028154811015156115f757fe5b600091825260209091206001600290920201019290925591909155508051602082015160038054600590811061162957fe5b600091825260208220600290910201900160006003600581548110151561164c57fe5b60009182526020909120600290910201600101929092559190915550505050565b600080600454600101600381611683919061399e565b61168e60028261393a565b50600091505b60045482116116b1576116a682612ca0565b600190910190611694565b600091505b6004548211611767576117106002838154811015156116d157fe5b6000918252602090912001546005600260408051908101604090815283548252909291908301600183016020850180831161134f575050505050611118565b600380548590811061171e57fe5b6000918252602082206002909102019001600060038681548110151561174057fe5b600091825260209091206002909102016001019290925591909155506001909101906116b6565b6117c36003600081548110151561177a57fe5b90600052602060002090600202016002806020026040519081016040529190828260026020028201915b8154815260200190600101908083116117a45750505050506000612cd6565b61181f600360018154811015156117d657fe5b90600052602060002090600202016002806020026040519081016040529190828260026020028201915b8154815260200190600101908083116118005750505050506001612cd6565b611832600360028154811015156117d657fe5b61188d60038081548110151561184457fe5b90600052602060002090600202016002806020026040519081016040529190828260026020028201915b81548152602001906001019080831161186e5750505050506002612cd6565b5060045b6004548111610ed2576118f56003828154811015156118ac57fe5b90600052602060002090600202016002806020026040519081016040529190828260026020028201915b8154815260200190600101908083116118d65750505050506003612cd6565b600101611891565b60086020526000908152604090205481565b70014551231950b75fc4402da1732fc9bebe19607b919091010690565b6119346139ca565b846000600184016040518059106119485750595b90808252806020026020018201604052801561197e57816020015b61196b61395e565b8152602001906001900390816119635790505b509250600090505b838111611a07576119cb8287878481811061199d57fe5b9050604002016002806020026040519081016040528092919082600260200280828437506111189350505050565b8483815181106119d757fe5b906020019060200201518584815181106119ed57fe5b906020019060200201516020019190915252600101611986565b505095945050505050565b70014551231950b75fc4402da1732fc9bebe195b90565b600080915091565b6000611a3b6139dc565b600160a060020a038416600090815260076020526040902054600180549193509083908110611a6657fe5b906000526020600020906005020160a060405190810160409081528254600160a060020a038116835260a060020a900460ff161515602083015290919080830190600183019060029080519081016040529190828260026020028201915b815481526020019060010190808311611ac457505050918352505060038281015460209092019160ff1690811115611af857fe5b6003811115611b0357fe5b81526020016004820154815250509050611b1d8382612d34565b1515600114611b2b57600080fd5b6113c084612d53565b600160a060020a0333166000818152600960205260409081902034908190557fe1fffcc4923d04b559f4d29a8bfc6cda04eb5b0d3c460751c2402c5c5cc9109c915190815260200160405180910390a2565b6000611b928383612ec6565b1515600114611ba057600080fd5b50600160a060020a0333166000908152600760205260409020546001805484919083908110611bcb57fe5b906000526020600020906005020160030160006101000a81548160ff02191690836003811115611bf757fe5b021790555081600182815481101515611c0c57fe5b906000526020600020906005020160040181905550600a836003811115611c2f57fe5b60048110611c3957fe5b018054600019019055600d54600c54600b5491011415611ca05760408051908101604052600a81527f57657265776f6c7665730000000000000000000000000000000000000000000060208201526010908051611c9a929160200190613a11565b50611cf0565b600b541515611cf05760408051908101604052600681527f48756d616e730000000000000000000000000000000000000000000000000000602082015260109080516113c0929160200190613a11565b505050565b611cfd61395e565b600083861415611d1a576020808401359083015282358252611d6a565b611d368570014551231950b75fc4402da1732fc9bebe19612ee8565b9050611d6281846002604080519081016040528092919082600260200280828437506111189350505050565b602084015282525b50949350505050565b600e546000190190565b600080600683511015611d8f57600080fd5b600091505b8251821015611de857828281518110611da957fe5b90602001906020020151600160a060020a0381166000908152600960205260409020549091506064901015611ddd57600080fd5b600190910190611d94565b82516004819055600190810190611dff90826138d0565b50600191505b600454821161212e5760a060405190810160405280846001850381518110611e2957fe5b90602001906020020151600160a060020a031681526020016001151581526020016040805190810160405260008082526020808301829052918352910190815260006020909101526001805484908110611e7f57fe5b90600052602060002090600502016000820151815473ffffffffffffffffffffffffffffffffffffffff1916600160a060020a03919091161781556020820151815490151560a060020a0274ff0000000000000000000000000000000000000000199091161781556040820151611efc90600183019060026138fc565b5060608201518160030160006101000a81548160ff02191690836003811115611f2157fe5b021790555060808201518160040155905050817f03cf42e4797686930ef09f709f5bb470696c17d58255a88600d589f2090ba601600184815481101515611f6457fe5b600091825260209091206005909102015460018054600160a060020a039092169186908110611f8f57fe5b600091825260209091206005909102015460a060020a900460ff166040805190810160405280600188815481101515611fc457fe5b6000918252602082206001600590920201019001548152602001600188815481101515611fed57fe5b60009182526020909120600260059092020101549052600180548890811061201157fe5b60009182526020909120600360059092020101546001805460ff909216918990811061203957fe5b906000526020600020906005020160040154604051600160a060020a03861681528415156020820152604080820190859080838360005b83811015612088578082015183820152602001612070565b5050505090500183600381111561209b57fe5b60ff1681526020018281526020019550505050505060405180910390a27f9dc64552b3ef4f55429327ed20ed329cde6b51b38f1226e773cbcf2c29093e44826001848154811015156120e957fe5b6000918252602090912060059091020154600160a060020a0316604051918252600160a060020a031660208201526040908101905180910390a1600190910190611e05565b7f1f53875f11d5a712b4c4f66780cd6f618f624c4794dcf513a29fddadd299a9d5608060405190810160409081526000825260026020830152600181830152600454600219016060830152518082608080838360005b8381101561219c578082015183820152602001612184565b5050505090500191505060405180910390a17f0475fa33e711a0d11030b454020a5f7c806520bdc5d7a1fcb9accde610a00f2460045460405190815260200160405180910390a1505050565b60008054600160a060020a031663b77d12688686868660405160e060020a63ffffffff87160281526004018085604080838360005b8381101561223557808201518382015260200161221d565b5050505090500180602001848152602001806020018381038352868181518152602001915080516000925b818410156122a257602080850284010151604080838360005b83811015612291578082015183820152602001612279565b505050509050019260010192612260565b925050508381038252848181518152602001915080516000925b818410156122fe57602080850284010151606080838360005b838110156122ed5780820151838201526020016122d5565b5050505090500192600101926122bc565b925050509650505050505050602060405180830381600087803b151561232357600080fd5b5af1151561233057600080fd5b50505060405180519695505050505050565b61234a613984565b600054600160a060020a03166383242e90848460405160e060020a63ffffffff8516028152600481018381529060240182604080838360005b8381101561239b578082015183820152602001612383565b5050505090500192505050606060405180830381600087803b15156123bf57600080fd5b5af115156123cc57600080fd5b505050604051606081016040529392505050565b6123e861395e565b60038054839081106123f657fe5b600091825260208220600290910201900154600380548490811061241657fe5b600091825260209182902060016002909202010154908301528152919050565b600380548390811061244457fe5b90600052602060002090600202018160028110151561245f57fe5b01549150829050565b600060086000836040518082604080838360005b8381101561249457808201518382015260200161247c565b50505050905001915050604051908190039020815260208101919091526040016000205492915050565b60015b60045481116125635760038054829081106124d857fe5b60009182526020822060029091020190015460038054839081106124f857fe5b6000918252602090912060029091020160010154600180548490811061251a57fe5b6000918252602082206001600590920201019001600060018581548110151561253f57fe5b600091825260209091206002600590920201019290925591909155506001016124c1565b61256b612f86565b50565b600e80548290811061257c57fe5b600091825260209091200154600160a060020a0316905081565b60108054600181600116156101000203166002900480601f01602080910402602001604051908101604052809291908181526020018280546001816001161561010002031660029004801561262c5780601f106126015761010080835404028352916020019161262c565b820191906000526020600020905b81548152906001019060200180831161260f57829003601f168201915b505050505081565b600a816004811061264157fe5b0154905081565b61265061395e565b600061266e8470014551231950b75fc4402da1732fc9bebe19612ee8565b905061269a81846002604080519081016040528092919082600260200280828437506111189350505050565b60208401528252509392505050565b600080836040518082604080838360005b838110156126d25780820151838201526020016126ba565b505050509050019150506040519081900390208360038111156126f157fe5b915091509250929050565b61270461395e565b6000808061273f856005600260408051908101604090815283548252909291908301600183016020850180831161134f575050505050611118565b602086015284528515156127555750600061277a565b600286116127655750600161277a565b85600314156127765750600261277a565b5060035b61278484826126a9565b9497909650939450505050565b61256b81612d53565b60018054829081106127a857fe5b6000918252602090912060059091020180546003820154600490920154600160a060020a038216935060a060020a90910460ff90811692169084565b60096020526000908152604090205481565b70014551231950b75fc4402da1732fc9bebe1981565b612814613984565b6000806000612821613a7e565b612829613984565b612831613aac565b6401000003d0199550600080808b151561284a57612c29565b6000604051985061020089016040525b8c156128925760018d16156128815750601f8c16808989015360206010821102818e03019c505b60028d049c5060018801975061285a565b506060604051908101604052808c5181526020018c600160200201518152600160209091015286526128c48651612fc6565b94506128d0858c6130e1565b60208701526128e7858760015b602002015161331d565b60408701526128f8858760026128dd565b6060870152612909858760036128dd565b608087015261291a858760046128dd565b60a087015261292b858760056128dd565b60c087015261293c858760066128dd565b60e087015260208601516040015184528880151561295657fe5b84516040880151604001510960208501528880151561297157fe5b60208501516060880151604001510960408501528880151561298f57fe5b6040850151608088015160400151096060850152888015156129ad57fe5b606085015160a088015160400151096080850152888015156129cb57fe5b608085015160c0880151604001510960a0850152888015156129e957fe5b60a085015160e0880151604001510960c08501908152612a0a90518a612ee8565b60e085019081525161010085015288801515612a2257fe5b61010085015160a0860151096101e0850152600692505b60028310612ab65788801515612a4b57fe5b610100850151876001860160088110612a6057fe5b6020020151604001510961010085015288801515612a7a57fe5b61010085015185600119860160108110612a9057fe5b602002015109846008850160108110612aa557fe5b602002015260001990920191612a39565b88801515612ac057fe5b61010085015160408801516040015109610120850152600092505b6007831015612b5357612b48866001850160088110612af657fe5b6020020151856009860160108110612b0a57fe5b60200201518b801515612b1957fe5b876009880160108110612b2857fe5b6020020151886009890160108110612b3c57fe5b6020020151098c613576565b600190920191612adb565b6000871115612c2957600019808801978901015160001a9150612b758a6135a5565b6010821115612bd057506002601f82900304612bcb8a6040805190810160405280898560088110612ba257fe5b6020020151518152602001898560088110612bb957fe5b6020020151602001518d0390526136b6565b612c24565b6000821115612c2457506002600019820104612c248a6040805190810160405280898560088110612bfd57fe5b6020020151518152602001898560088110612c1457fe5b60200201516020015190526136b6565b612b53565b50505050505050505092915050565b600080612c49604085015184612ee8565b915082801515612c5557fe5b828309905082801515612c6457fe5b81855109845282801515612c7457fe5b83801515612c7e57fe5b8284098560015b60200201510960208501525050600160409092019190915250565b70014551231950b75fc4402da1732fc9bebe19607b820106600282815481101515612cc757fe5b60009182526020909120015550565b806003811115612ce257fe5b60086000846040518082604080838360005b83811015612d0c578082015183820152602001612cf4565b5050505090500191505060405190819003902081526020810191909152604001600020555050565b600082607b148015612d4c5750816020015115156001145b9392505050565b600160a060020a038116600090815260076020526040812054600180549192918291829185908110612d8157fe5b600091825260208083206005909202909101805493151560a060020a0274ff00000000000000000000000000000000000000001990941693909317909255600160a060020a0386168152600f909152604090205491508190505b600e54600119018111612e9557600e805460018301908110612df957fe5b600091825260209091200154600e8054600160a060020a039092169183908110612e1f57fe5b906000526020600020900160006101000a815481600160a060020a030219169083600160a060020a03160217905550600f6000600e83815481101515612e6157fe5b6000918252602080832090910154600160a060020a0316835282019290925260400190208054600019019055600101612ddb565b600e805490612ea890600019830161393a565b50505050600160a060020a03166000908152600f6020526040812055565b600080836003811115612ed557fe5b14158015612d4c5750506101c814919050565b600080808080808715801590612efe5750868814155b8015612f0957508615155b1515612f1457600080fd5b86881115612f2b578688811515612f2757fe5b0697505b600193508692508791505b8115612f61578183811515612f4757fe5b949594048581029094039391928383029003919050612f36565b6000851215612f77578460000387039550612f7b565b8495505b505050505092915050565b600160005b6004548211610ed2576001805483908110612fa257fe5b60009182526020909120600160059092020181018054820181559201919050612f8b565b612fce613984565b6401000003d0196000808080808060408901511515612fec576130d5565b88519550602089015194508680151561300157fe5b85860993508680151561301057fe5b8780151561301a57fe5b85880960040992508680151561302c57fe5b8780151561303657fe5b87880960030991508680151561304857fe5b8780151561305257fe5b84850888038880151561306157fe5b8485090880895290508680151561307457fe5b8780151561307e57fe5b8880151561308857fe5b86870960080988038880151561309a57fe5b898015156130a457fe5b848b0387088509086020890152868015156130bb57fe5b878015156130c557fe5b60408b0151870960020960408901525b50505050505050919050565b6130e9613984565b60006130f361395e565b6130fb613ac7565b60008080808060408b01511515613138576060604051908101604052808b5181526020018b6001602002015181526020016001815250985061330f565b60208a0151151561314b578a985061330f565b6401000003d01997508760408c015160408d01510987528780151561316c57fe5b875160408d01510960208801526080604051908101604052808c5181526020018c600160200201518152602001898015156131a357fe5b89518d51098152602001898015156131b757fe5b60208a015160208e015109905295506040860151865114156132075760608601516020870151146131f8576000808c5260208c0181905260408c015261330f565b6132018b612fc6565b5061330f565b8780151561321157fe5b8651890360408801510894508780151561322757fe5b6020870151890360608801510893508780151561324057fe5b85860992508780151561324f57fe5b85840991508780151561325e57fe5b8289038980151561326b57fe5b8687090890508780151561327b57fe5b8880151561328557fe5b8980151561328f57fe5b8589510960020989038208808a529050878015156132a957fe5b888015156132b357fe5b828a038a8015156132c057fe5b868a510908850960208a0152878015156132d657fe5b888015156132e057fe5b83602089015109890360208b01510860208a0152878015156132fe57fe5b60408c015186098960025b60200201525b505050505050505092915050565b613325613984565b600061332f613ac7565b613337613ac7565b60008080808060408b015115156133505789985061330f565b60408a01511515613363578a985061330f565b6401000003d01997508760408c015160408d01510987528780151561338457fe5b875160408d01510960208801528780151561339b57fe5b60408b015160408c0151096040880152878015156133b557fe5b604088015160408c0151096060880152608060405190810160405280898015156133db57fe5b60408a01518e51098152602001898015156133f257fe5b60608a015160208f01510981526020018980151561340c57fe5b89518d510981526020018980151561342057fe5b60208a015160208e015109905295506040860151865114156134605760608601516020870151146134505761330f565b6134598b612fc6565b985061330f565b8780151561346a57fe5b8651890360408801510894508780151561348057fe5b6020870151890360608801510893508780151561349957fe5b8586099250878015156134a857fe5b8584099150878015156134b757fe5b828903898015156134c457fe5b868709089050878015156134d457fe5b888015156134de57fe5b898015156134e857fe5b8589510960020989038208808a5290508780151561350257fe5b8880151561350c57fe5b828a038a80151561351957fe5b868a510908850960208a01528780151561352f57fe5b8880151561353957fe5b83602089015109890360208b01510860208a01528780151561355757fe5b8880151561356157fe5b60408c015160408e0151098609896002613309565b8080151561358057fe5b8285510984528080151561359057fe5b8180151561359a57fe5b838509856001612c85565b6401000003d01960008080808080604088015115156135c3576136ac565b8751955060208801519450868015156135d857fe5b8586099350868015156135e757fe5b878015156135f157fe5b85880960040992508680151561360357fe5b8780151561360d57fe5b87880960030991508680151561361f57fe5b8780151561362957fe5b84850888038880151561363857fe5b8485090880895290508680151561364b57fe5b8780151561365557fe5b8880151561365f57fe5b86870960080988038880151561367157fe5b8980151561367b57fe5b848b03870885090860208901528680151561369257fe5b8780151561369c57fe5b60408a0151870960020960408901525b5050505050505050565b60006136c061395e565b6136c8613ac7565b60008080808060208a015115156136f75788518a52602089015160208b015260018a60025b60200201526138c4565b60208901511515613707576138c4565b6401000003d01997508760408b015160408c01510987528780151561372857fe5b875160408c01510960208801526080604051908101604052808b5181526020018b6001602002015181526020018980151561375f57fe5b89518c510981526020018980151561377357fe5b60208a015160208d015109905295506040860151865114156137c05760608601516020870151146137b2576000808b5260208b018190528a60026136ed565b6137bb8a6135a5565b6138c4565b878015156137ca57fe5b865189036040880151089450878015156137e057fe5b602087015189036060880151089350878015156137f957fe5b85860992508780151561380857fe5b85840991508780151561381757fe5b8289038980151561382457fe5b8687090890508780151561383457fe5b8880151561383e57fe5b8980151561384857fe5b8589510960020989038208808b5290508780151561386257fe5b8880151561386c57fe5b828a038a80151561387957fe5b868a510908850960208b01528780151561388f57fe5b8880151561389957fe5b83602089015109890360208c01510860208b0152878015156138b757fe5b60408b0151860960408b01525b50505050505050505050565b815481835581811511611cf057600502816005028360005260206000209182019101611cf09190613ae1565b826002810192821561392a579160200282015b8281111561392a57825182559160200191906001019061390f565b50613936929150613b36565b5090565b815481835581811511611cf057600083815260209020611cf0918101908301613b36565b604080519081016040526002815b600081526020019060019003908161396c5790505090565b60606040519081016040526000815260026020820161396c565b815481835581811511611cf057600202816002028360005260206000209182019101611cf09190613b50565b60206040519081016040526000815290565b60c060405190810160409081526000808352602083015281016139fd61395e565b815260200160008152602001600081525090565b828054600181600116156101000203166002900490600052602060002090601f016020900481019282601f10613a5257805160ff191683800117855561392a565b8280016001018555821561392a579182018281111561392a57825182559160200191906001019061390f565b6103006040519081016040526008815b613a96613984565b815260200190600190039081613a8e5790505090565b61020060405190810160405260008152600f6020820161396c565b60806040519081016040526000815260036020820161396c565b611a2691905b8082111561393657805474ffffffffffffffffffffffffffffffffffffffffff191681556000613b1a6001830182613b73565b5060038101805460ff1916905560006004820155600501613ae7565b611a2691905b808211156139365760008155600101613b3c565b611a2691905b80821115613936576000613b6a8282613b73565b50600201613b56565b5060008155600101600090555600a165627a7a7230582025534de7b1c64b88c5e79c3dc39eff2599fe198120c769a5b8d0c0a83dc336ad0029",
  "source": "pragma solidity ^0.4.7;\r\nimport \"./OrPoK.sol\";\r\n\r\ncontract SmartWerewolf {\r\n    //parameters using bitcoin's curve (fixed for every game)\r\n    uint constant p = 0xFFFFFFFFFFFFFFFFFFFFFFFFFFFFFFFFFFFFFFFFFFFFFFFFFFFFFFFEFFFFFC2F;\r\n    uint constant Gx =0x79BE667EF9DCBBAC55A06295CE870B07029BFCDB2DCE28D959F2815B16F81798;\r\n    uint constant Gy = 0x483ADA7726A3C4655DA4FBFC0E1108A8FD17B448A68554199C47D08FFB10D4B8;\r\n    uint public constant q = 0xFFFFFFFFFFFFFFFFFFFFFFFFFFFFFFFEBAAEDCE6AF48A03BBFD25E8CD0364141;\r\n    OrPoK processPoK; \r\n\r\n    //bullet broad (fixed during 1 game)\r\n    Player[] public players;\r\n    uint[] MPC;\r\n    uint[2][] public deck;\r\n    uint public n;\r\n    uint[2] G;\r\n    mapping (address => uint) public playerNumOf;\r\n    mapping(bytes32 => uint) public roleOf;\r\n    mapping(address => uint) public deposits;\r\n    \r\n    //up-to-date report (change in game)\r\n    uint[4] public living;\r\n    address[] public livingPlayers;\r\n    mapping(address => uint) public theLivingNumOf;\r\n    string public winner;\r\n    \r\n    function SmartWerewolf(address addressPoK) public {\r\n        processPoK = OrPoK(addressPoK);\r\n        G[0] = Gx;\r\n        G[1] = Gy;\r\n    }\r\n\r\n    //1. \r\n    function engagement(address[] _players) public {\r\n        require(_players.length >= 6);\r\n        n = _players.length;\r\n        players.length = 1+ n;\r\n        uint i;\r\n        for (i = 1; i <= n; i++) {\r\n            players[i] = Player\r\n            (\r\n                {\r\n                    name: _players[ i-1 ],  \r\n                    live: true, \r\n                    hand: [uint(0),0], \r\n                    role: RoleTypes.Unseen,\r\n                    pokerKey: 0\r\n                }\r\n           ); \r\n        playerNumOf[players[i].name] = i;\r\n        }\r\n        \r\n        living[uint(RoleTypes.Werewolf)]=2;\r\n        living[uint(RoleTypes.Seer)]=1;\r\n        living[uint(RoleTypes.Villager)]=n-3;\r\n\r\n        livingPlayers.length=n+1;\r\n        for(i=1;i<=n;i++){\r\n            livingPlayers[i]=players[i].name;\r\n            theLivingNumOf[players[i].name]=i;\r\n        }\r\n    }\r\n\r\n    function quickDepositGame() external payable {\r\n        deposits[msg.sender] = msg.value;\r\n        emit Deposit(\r\n                msg.sender,\r\n                deposits[msg.sender]\r\n            );\r\n    }\r\n\r\n    function quickEngagePlayers(address[] inPlayerNames) \r\n        public \r\n    {   \r\n        require(inPlayerNames.length >= 6);\r\n        uint i;\r\n        for(i = 0; i<inPlayerNames.length; i++){\r\n            address p = inPlayerNames[i];\r\n            require(deposits[p]>=100);\r\n        }\r\n\r\n        n = inPlayerNames.length;\r\n        players.length = 1+n;\r\n\r\n        for (i = 1; i <= n; i++) {\r\n            players[i] = Player\r\n            (\r\n                {\r\n                    name: inPlayerNames[ i-1 ],  \r\n                    live: true, \r\n                    hand: [uint(0),0], \r\n                    role: RoleTypes.Unseen,\r\n                    pokerKey: 0\r\n                }\r\n            );\r\n            \r\n            emit JoinPlayer(\r\n                //for mapping\r\n                i,\r\n                //for players \r\n                players[i].name, \r\n                players[i].live, \r\n                [uint((players[i].hand)[0]),(players[i].hand)[1]], \r\n                players[i].role, \r\n                players[i].pokerKey\r\n            );\r\n            \r\n            emit RegLivingPlayer(\r\n                i,\r\n                players[i].name\r\n                );\r\n        }\r\n        emit RegLivingRole([uint(0),2,1,n-3]);\r\n        emit PlayerReady(n);\r\n    }\r\n    event RegLivingPlayer(uint livingPlayerNum, address livingPlayerName);\r\n    event RegLivingRole(uint[4] outLiving);\r\n    \r\n    //read off-chain(from js) \r\n    function regTheLiving(address ) public view returns(\r\n        uint livingPlayerNum,\r\n        address livingPlayerName\r\n        )\r\n    {\r\n        /*i,\r\n        players[i].name\r\n        living[uint(RoleTypes.Werewolf)]=2;\r\n        living[uint(RoleTypes.Seer)]=1;\r\n        living[uint(RoleTypes.Villager)]=n-3;*/\r\n    }\r\n\r\n    //2-1 \r\n    //(a)    \r\n    function createCards() public {   \r\n        MPC.length = deck.length = 1+n;\r\n        for(uint i=0; i <= n; i++ ){\r\n            prepareDeck(i);\r\n        }\r\n        for(i=0; i<=n; i++){\r\n            (deck[i][0], deck[i][1]) = multiply(MPC[i], G);\r\n        }\r\n        generateMap(deck[0], RoleTypes.Unseen);\r\n        generateMap(deck[1], RoleTypes.Werewolf);\r\n        generateMap(deck[2], RoleTypes.Werewolf);\r\n        generateMap(deck[3], RoleTypes.Seer);\r\n        for (uint j = 4; j <= n; j++) {\r\n            generateMap(deck[j], RoleTypes.Villager);\r\n        }\r\n    }\r\n\r\n    function quickCreateCard(\r\n        uint i,\r\n        uint inMPC\r\n        ) \r\n        external\r\n        view \r\n        returns(\r\n            uint[2] outCard, \r\n            uint cardNum, \r\n            uint roleNum\r\n            )\r\n        {   \r\n        (outCard[0], outCard[1]) = multiply(inMPC, G);\r\n        RoleTypes outRole;\r\n        if(i == 0){\r\n            outRole = RoleTypes.Unseen;\r\n        }else if(i<=2){\r\n            outRole = RoleTypes.Werewolf;\r\n        }else if(i==3){\r\n            outRole = RoleTypes.Seer;\r\n        }else{\r\n            outRole = RoleTypes.Villager;\r\n        }\r\n        (cardNum,roleNum)= quickGenerateMap(outCard, outRole);\r\n    }\r\n\r\n\r\n    function shuffleCardBy(uint i, uint pokerKey) external{\r\n        //encrypt each card\r\n        uint printBack = pokerKey; \r\n        for(uint k=0; k<=n; k++){\r\n            (deck[k][0], deck[k][1]) = multiply(printBack, deck[k]);\r\n        }\r\n        //support any shuffle\r\n        /* for example\r\n        uint[2] memory tmp;\r\n        uint j = ((i+3)-1) % n + 1;\r\n        (tmp[0], tmp[1]) = (deck[j][0], deck[j][1]);\r\n        (deck[j][0], deck[j][1]) = (deck[i][0], deck[i][1]);\r\n        (deck[i][0], deck[i][1]) = (tmp[0], tmp[1]);\r\n        */\r\n    }\r\n\r\n    function quickShuffleCardBy(\r\n        uint i, \r\n        uint pokerKey, \r\n        uint[2][] inDeck, \r\n        uint numCards\r\n        ) \r\n        external \r\n        view \r\n        returns(uint[2][] outDeck){\r\n        //encrypt each card\r\n        uint printBack = pokerKey;\r\n        outDeck = new uint[2][](1+numCards); \r\n        for(uint k=0; k<=numCards; k++){\r\n            (outDeck[k][0], outDeck[k][1]) = multiply(printBack, inDeck[k]);\r\n        }\r\n        //support any shuffle\r\n    }\r\n    //TODO:(b)  \r\n    function shuffleCards() public {\r\n        uint printBack = 0x7717; \r\n        for(uint i=0; i<=n; i++){\r\n            (deck[i][0], deck[i][1]) = multiply(printBack, deck[i]);\r\n        }\r\n        uint[2] memory tmp;\r\n        (tmp[0], tmp[1]) = (deck[2][0], deck[2][1]);\r\n        (deck[2][0], deck[2][1]) = (deck[5][0], deck[5][1]);\r\n        (deck[5][0], deck[5][1]) = (tmp[0], tmp[1]);\r\n    } \r\n\r\n    //TODO: 2-2.  \r\n    function dealCards() public {\r\n        for(uint i=1; i<=n; i++){\r\n            (players[i].hand[0], players[i].hand[1])  \r\n            = (deck[i][0], deck[i][1]);\r\n        }\r\n        helpDecryptRole();\r\n    }\r\n\r\n    function dealCardTo(uint i) external view returns(uint[2] hand){\r\n        (hand[0],hand[1])=(deck[i][0], deck[i][1]);\r\n    }\r\n\r\n    function nightKill(address victimName, uint proofCanKill) public {\r\n        uint v = playerNumOf[victimName];\r\n        Player memory victim = players[v];\r\n        require (verify(proofCanKill, victim)==true);\r\n        killed(victimName);\r\n    }\r\n    \r\n    function dayVoting(address name) public {\r\n        \r\n        killed(name);\r\n\r\n    }\r\n\r\n    function openRole(RoleTypes _role, uint _pokerKey) public {\r\n        require(verifyRole(_role, _pokerKey)==true);\r\n        uint i = playerNumOf[msg.sender];\r\n        players[i].role = _role;\r\n        players[i].pokerKey=_pokerKey;\r\n        \r\n        living[uint(_role)]--;\r\n\r\n        if(living[uint(RoleTypes.Werewolf)]==living[uint(RoleTypes.Seer)]+living[uint(RoleTypes.Villager)]){\r\n            winner = \"Werewolves\";\r\n        }\r\n        else if(living[uint(RoleTypes.Werewolf)]==0){\r\n            winner = \"Humans\";\r\n        }\r\n    }\r\n    function hashCard(uint[2] card) public pure returns(uint){return uint(keccak256(card));}\r\n    function checkRoleOf(uint[2] card) public view returns(uint) {return roleOf[keccak256(card)];}\r\n    function cardOrder() public pure returns(uint) {return q;}\r\n    function getHandOf(address name) public view returns(uint[2] hand){\r\n        uint i = playerNumOf[name];\r\n        (hand[0] ,hand[1]) = ((players[i].hand)[0], (players[i].hand)[1]);\r\n    }\r\n\r\n    function numSurvive() public view returns(uint) {return livingPlayers.length-1;}\r\n\r\n    function werewolfFrameKilling(uint[2] framedHand, uint[2] _werewolfCard,  uint victim) public view returns(uint[2] __werewolfCard, uint[2] _framedHand, uint _victim, uint[3] T, uint c, uint s){\r\n        return processPoK.forgeProof(_werewolfCard, framedHand, victim);\r\n    }\r\n\r\n    function werewolfCard() external view returns(uint cardX,uint cardY){\r\n        (cardX, cardY) = (deck[1][0], deck[1][1]);\r\n    }\r\n    \r\n    function werewolfChooset(uint pokerKey, uint[2][] hands, uint[2] _werewolfCard, uint victim ) external view returns(uint realt){\r\n\r\n        return processPoK.computeRealt(_werewolfCard, hands, pokerKey, victim);\r\n    }\r\n\r\n    function werewolfComputeT(uint realt, uint[2] _werewolfCard) public view returns(uint[3] realT){\r\n        return processPoK.computeTFrom(realt, _werewolfCard);\r\n    }\r\n\r\n    function computeChallenge(uint[2] _werewolfCard, uint[2][] _hands, uint victim, uint[3][] Ts) public view returns(uint realChallenge){\r\n        return processPoK.computeChallenge(_werewolfCard, _hands, victim, Ts);\r\n    }\r\n\r\n    function werewolfProve(uint pokerKey, uint[2] _werewolfCard, uint[2] hand, uint victim, uint tReady,uint cReady) public view returns(uint[2] __werewolfCard, uint[2] _hand, uint _victim, uint[3] T, uint c, uint s){\r\n        return processPoK.createSchnorr(pokerKey, _werewolfCard, hand, victim, tReady, cReady);\r\n    }\r\n\r\n    function verifyWerewolfProof(uint[2] _werewolfCard, uint[2] hand,  uint[3] T, uint c, uint s) public view returns (bool result){\r\n        return processPoK.verifySchnorr(_werewolfCard, hand, T, c, s);\r\n    }\r\n\r\n    function prepareDeck(uint i) internal {\r\n        \r\n        MPC[ i ] = (i+123) % q;\r\n        //avoid use 0. function toZ1 revert at point at infinity\r\n    \r\n    }\r\n\r\n    function quickPrepareDeck(uint i) public view returns(uint outMPC){\r\n        \r\n        outMPC = (i+123) % q;\r\n        //avoid use 0. function toZ1 revert at point at infinity\r\n    \r\n    }\r\n    \r\n    function helpDecryptRole() internal {\r\n        for(uint i=1; i<=n; i++){\r\n        \tuint[2] storage hand = players[i].hand;\r\n        \thand[0] ++;\r\n        } \r\n    }\r\n\r\n    function helpDecryptRole(uint me, uint pokerKey, uint i, uint[2] cipherCard) external view returns (uint[2] decryptCard){\r\n        if(me == i){\r\n            (decryptCard[0], decryptCard[1]) = (cipherCard[0], cipherCard[1]);\r\n        }else{\r\n            uint keyInverse = ECCMath_noconflict.invmod(pokerKey, q);\r\n            (decryptCard[0],decryptCard[1]) = multiply(keyInverse, cipherCard);\r\n        }\r\n       \r\n    }\r\n\r\n    function recoverRole(uint me, uint pokerKey, uint[2] cipherCard) external view returns (uint[2] decryptCard){\r\n            uint keyInverse = ECCMath_noconflict.invmod(pokerKey, q);\r\n            (decryptCard[0],decryptCard[1]) = multiply(keyInverse, cipherCard);\r\n       \r\n    }\r\n\r\n    function killed(address player) internal{\r\n        uint i = playerNumOf[player];\r\n        players[i].live=false;\r\n        uint j= theLivingNumOf[player];\r\n        \r\n        for(uint k=j; k<= livingPlayers.length-2 ; k++){\r\n            livingPlayers[k] = livingPlayers[k+1];\r\n            theLivingNumOf[livingPlayers[k]]--;\r\n        }\r\n        livingPlayers.length--;\r\n        theLivingNumOf[player]=0;\r\n    }\r\n\r\n\r\n    function multiply(uint s, uint[2] point) public view returns(uint ,uint){\r\n        uint[3] memory result = Secp256k1_noconflict._mul(s, point);\r\n        ECCMath_noconflict.toZ1(result, p);\r\n        return (result[0],result[1]);\r\n    }\r\n\r\n    function generateMap(uint[2] card, RoleTypes role) internal {\r\n        \r\n        roleOf[keccak256(card)] = uint(role);\r\n    \r\n    }\r\n\r\n    function quickGenerateMap(\r\n        uint[2] card, \r\n        RoleTypes role\r\n    ) \r\n        public\r\n        pure\r\n        returns(\r\n            uint cardNum,\r\n            uint roleNum\r\n        )\r\n    {\r\n        return(\r\n            uint(keccak256(card)),\r\n            uint(role)\r\n            );\r\n    }\r\n\r\n    function verifyRole(RoleTypes _role, uint _pokerKey) pure internal returns(bool){\r\n        \r\n        return (_role!=RoleTypes.Unseen && _pokerKey==456);\r\n    \r\n    }\r\n    \r\n    function verify(uint proofCanKill, Player victim) pure internal returns(bool){\r\n        \r\n        return proofCanKill == 123 && victim.live == true;\r\n    }\r\n    \r\n    enum RoleTypes{Unseen, Werewolf, Seer, Villager}\r\n    \r\n    struct Player{\r\n        address name;\r\n        bool live;\r\n        uint[2] hand;\r\n        RoleTypes role;\r\n        uint pokerKey;\r\n    }\r\n\r\n   struct KillConditions{\r\n        uint iAmWerewolf;\r\n        uint iAmLive;\r\n        uint victimLive;\r\n    }\r\n   \r\n    event debug(uint i);\r\n    \r\n    event JoinPlayer(\r\n        uint indexed outPlayerNum,\r\n        address outPlayerName,\r\n        bool outPlayerLive,\r\n        uint[2] outPlayerHand,\r\n        RoleTypes outPlayerRole,\r\n        uint outPlayerKey\r\n    );\r\n\r\n    event Deposit(\r\n        address indexed outPlayerName,\r\n        uint outValue\r\n    );\r\n\r\n    event PlayerReady(uint numPlayers);\r\n}",
  "sourcePath": "C:\\Users\\eason\\Documents\\GitHub\\SmartWerewolf\\contracts\\SmartWerewolf.sol",
  "compiler": {
    "name": "solc",
    "version": "0.4.21+commit.dfe3193c.Emscripten.clang"
  },
  "schemaVersion": "2.0.0",
  "updatedAt": "2018-05-13T20:51:23.364Z"
}