{
  "contractName": "SmartWerewolf",
  "abi": [
    {
      "constant": true,
      "inputs": [],
      "name": "n",
      "outputs": [
        {
          "name": "",
          "type": "uint256"
        }
      ],
      "payable": false,
      "stateMutability": "view",
      "type": "function"
    },
    {
      "constant": true,
      "inputs": [
        {
          "name": "",
          "type": "address"
        }
      ],
      "name": "playerNumOf",
      "outputs": [
        {
          "name": "",
          "type": "uint256"
        }
      ],
      "payable": false,
      "stateMutability": "view",
      "type": "function"
    },
    {
      "constant": true,
      "inputs": [
        {
          "name": "",
          "type": "address"
        }
      ],
      "name": "theLivingNumOf",
      "outputs": [
        {
          "name": "",
          "type": "uint256"
        }
      ],
      "payable": false,
      "stateMutability": "view",
      "type": "function"
    },
    {
      "constant": true,
      "inputs": [
        {
          "name": "",
          "type": "uint256"
        }
      ],
      "name": "roleOf",
      "outputs": [
        {
          "name": "",
          "type": "uint256"
        }
      ],
      "payable": false,
      "stateMutability": "view",
      "type": "function"
    },
    {
      "constant": true,
      "inputs": [
        {
          "name": "",
          "type": "uint256"
        },
        {
          "name": "",
          "type": "uint256"
        }
      ],
      "name": "deck",
      "outputs": [
        {
          "name": "",
          "type": "uint256"
        }
      ],
      "payable": false,
      "stateMutability": "view",
      "type": "function"
    },
    {
      "constant": true,
      "inputs": [
        {
          "name": "",
          "type": "uint256"
        }
      ],
      "name": "livingPlayers",
      "outputs": [
        {
          "name": "",
          "type": "address"
        }
      ],
      "payable": false,
      "stateMutability": "view",
      "type": "function"
    },
    {
      "constant": true,
      "inputs": [],
      "name": "winner",
      "outputs": [
        {
          "name": "",
          "type": "string"
        }
      ],
      "payable": false,
      "stateMutability": "view",
      "type": "function"
    },
    {
      "constant": true,
      "inputs": [
        {
          "name": "",
          "type": "uint256"
        }
      ],
      "name": "living",
      "outputs": [
        {
          "name": "",
          "type": "uint256"
        }
      ],
      "payable": false,
      "stateMutability": "view",
      "type": "function"
    },
    {
      "constant": true,
      "inputs": [
        {
          "name": "",
          "type": "uint256"
        }
      ],
      "name": "players",
      "outputs": [
        {
          "name": "name",
          "type": "address"
        },
        {
          "name": "live",
          "type": "bool"
        },
        {
          "name": "role",
          "type": "uint8"
        },
        {
          "name": "pokerKey",
          "type": "uint256"
        }
      ],
      "payable": false,
      "stateMutability": "view",
      "type": "function"
    },
    {
      "constant": true,
      "inputs": [
        {
          "name": "",
          "type": "address"
        }
      ],
      "name": "deposits",
      "outputs": [
        {
          "name": "",
          "type": "uint256"
        }
      ],
      "payable": false,
      "stateMutability": "view",
      "type": "function"
    },
    {
      "constant": true,
      "inputs": [],
      "name": "q",
      "outputs": [
        {
          "name": "",
          "type": "uint256"
        }
      ],
      "payable": false,
      "stateMutability": "view",
      "type": "function"
    },
    {
      "inputs": [
        {
          "name": "addressPoK",
          "type": "address"
        }
      ],
      "payable": false,
      "stateMutability": "nonpayable",
      "type": "constructor"
    },
    {
      "anonymous": false,
      "inputs": [
        {
          "indexed": false,
          "name": "i",
          "type": "uint256"
        }
      ],
      "name": "debug",
      "type": "event"
    },
    {
      "anonymous": false,
      "inputs": [
        {
          "indexed": true,
          "name": "outPlayerNum",
          "type": "uint256"
        },
        {
          "indexed": false,
          "name": "outPlayerName",
          "type": "address"
        },
        {
          "indexed": false,
          "name": "outPlayerLive",
          "type": "bool"
        },
        {
          "indexed": false,
          "name": "outPlayerHand",
          "type": "uint256[2]"
        },
        {
          "indexed": false,
          "name": "outPlayerRole",
          "type": "uint8"
        },
        {
          "indexed": false,
          "name": "outPlayerKey",
          "type": "uint256"
        }
      ],
      "name": "JoinPlayer",
      "type": "event"
    },
    {
      "anonymous": false,
      "inputs": [
        {
          "indexed": true,
          "name": "outPlayerName",
          "type": "address"
        },
        {
          "indexed": false,
          "name": "outValue",
          "type": "uint256"
        }
      ],
      "name": "Deposit",
      "type": "event"
    },
    {
      "anonymous": false,
      "inputs": [
        {
          "indexed": false,
          "name": "numPlayers",
          "type": "uint256"
        }
      ],
      "name": "PlayerReady",
      "type": "event"
    },
    {
      "anonymous": false,
      "inputs": [
        {
          "indexed": true,
          "name": "livingPlayerNum",
          "type": "uint256"
        },
        {
          "indexed": false,
          "name": "livingPlayerName",
          "type": "address"
        }
      ],
      "name": "RegLivingPlayer",
      "type": "event"
    },
    {
      "anonymous": false,
      "inputs": [
        {
          "indexed": false,
          "name": "outLiving",
          "type": "uint256[4]"
        }
      ],
      "name": "RegLivingRole",
      "type": "event"
    },
    {
      "constant": false,
      "inputs": [],
      "name": "quickDepositGame",
      "outputs": [],
      "payable": true,
      "stateMutability": "payable",
      "type": "function"
    },
    {
      "constant": false,
      "inputs": [
        {
          "name": "_players",
          "type": "address[]"
        }
      ],
      "name": "engagement",
      "outputs": [],
      "payable": false,
      "stateMutability": "nonpayable",
      "type": "function"
    },
    {
      "constant": false,
      "inputs": [
        {
          "name": "inPlayerNames",
          "type": "address[]"
        }
      ],
      "name": "quickEngagePlayers",
      "outputs": [],
      "payable": false,
      "stateMutability": "nonpayable",
      "type": "function"
    },
    {
      "constant": false,
      "inputs": [],
      "name": "createCards",
      "outputs": [],
      "payable": false,
      "stateMutability": "nonpayable",
      "type": "function"
    },
    {
      "constant": true,
      "inputs": [
        {
          "name": "i",
          "type": "uint256"
        },
        {
          "name": "inMPC",
          "type": "uint256"
        }
      ],
      "name": "quickCreateCard",
      "outputs": [
        {
          "name": "outCard",
          "type": "uint256[2]"
        },
        {
          "name": "cardNum",
          "type": "uint256"
        },
        {
          "name": "roleNum",
          "type": "uint256"
        }
      ],
      "payable": false,
      "stateMutability": "view",
      "type": "function"
    },
    {
      "constant": false,
      "inputs": [],
      "name": "shuffleCards",
      "outputs": [],
      "payable": false,
      "stateMutability": "nonpayable",
      "type": "function"
    },
    {
      "constant": false,
      "inputs": [
        {
          "name": "i",
          "type": "uint256"
        },
        {
          "name": "pokerKey",
          "type": "uint256"
        }
      ],
      "name": "shuffleCardBy",
      "outputs": [],
      "payable": false,
      "stateMutability": "nonpayable",
      "type": "function"
    },
    {
      "constant": true,
      "inputs": [
        {
          "name": "i",
          "type": "uint256"
        },
        {
          "name": "pokerKey",
          "type": "uint256"
        },
        {
          "name": "inDeck",
          "type": "uint256[2][]"
        },
        {
          "name": "numCards",
          "type": "uint256"
        }
      ],
      "name": "quickShuffleCardBy",
      "outputs": [
        {
          "name": "outDeck",
          "type": "uint256[2][]"
        }
      ],
      "payable": false,
      "stateMutability": "view",
      "type": "function"
    },
    {
      "constant": false,
      "inputs": [],
      "name": "dealCards",
      "outputs": [],
      "payable": false,
      "stateMutability": "nonpayable",
      "type": "function"
    },
    {
      "constant": true,
      "inputs": [
        {
          "name": "i",
          "type": "uint256"
        }
      ],
      "name": "dealCardTo",
      "outputs": [
        {
          "name": "hand",
          "type": "uint256[2]"
        }
      ],
      "payable": false,
      "stateMutability": "view",
      "type": "function"
    },
    {
      "constant": false,
      "inputs": [
        {
          "name": "victimName",
          "type": "address"
        },
        {
          "name": "proofCanKill",
          "type": "uint256"
        }
      ],
      "name": "nightKill",
      "outputs": [],
      "payable": false,
      "stateMutability": "nonpayable",
      "type": "function"
    },
    {
      "constant": false,
      "inputs": [
        {
          "name": "name",
          "type": "address"
        }
      ],
      "name": "dayVoting",
      "outputs": [],
      "payable": false,
      "stateMutability": "nonpayable",
      "type": "function"
    },
    {
      "constant": false,
      "inputs": [
        {
          "name": "_role",
          "type": "uint8"
        },
        {
          "name": "_pokerKey",
          "type": "uint256"
        }
      ],
      "name": "openRole",
      "outputs": [],
      "payable": false,
      "stateMutability": "nonpayable",
      "type": "function"
    },
    {
      "constant": true,
      "inputs": [
        {
          "name": "s",
          "type": "uint256"
        },
        {
          "name": "point",
          "type": "uint256[2]"
        }
      ],
      "name": "multiply",
      "outputs": [
        {
          "name": "",
          "type": "uint256"
        },
        {
          "name": "",
          "type": "uint256"
        }
      ],
      "payable": false,
      "stateMutability": "view",
      "type": "function"
    },
    {
      "constant": true,
      "inputs": [
        {
          "name": "card",
          "type": "uint256[2]"
        }
      ],
      "name": "checkRoleOf",
      "outputs": [
        {
          "name": "",
          "type": "uint256"
        }
      ],
      "payable": false,
      "stateMutability": "view",
      "type": "function"
    },
    {
      "constant": true,
      "inputs": [
        {
          "name": "name",
          "type": "address"
        }
      ],
      "name": "getHandOf",
      "outputs": [
        {
          "name": "hand",
          "type": "uint256[2]"
        }
      ],
      "payable": false,
      "stateMutability": "view",
      "type": "function"
    },
    {
      "constant": true,
      "inputs": [],
      "name": "numSurvive",
      "outputs": [
        {
          "name": "",
          "type": "uint256"
        }
      ],
      "payable": false,
      "stateMutability": "view",
      "type": "function"
    },
    {
      "constant": true,
      "inputs": [],
      "name": "werewolfCard",
      "outputs": [
        {
          "name": "cardX",
          "type": "uint256"
        },
        {
          "name": "cardY",
          "type": "uint256"
        }
      ],
      "payable": false,
      "stateMutability": "view",
      "type": "function"
    },
    {
      "constant": true,
      "inputs": [
        {
          "name": "card",
          "type": "uint256[2]"
        }
      ],
      "name": "cardToNumber",
      "outputs": [
        {
          "name": "",
          "type": "uint256"
        }
      ],
      "payable": false,
      "stateMutability": "pure",
      "type": "function"
    },
    {
      "constant": true,
      "inputs": [],
      "name": "cardOrder",
      "outputs": [
        {
          "name": "",
          "type": "uint256"
        }
      ],
      "payable": false,
      "stateMutability": "pure",
      "type": "function"
    },
    {
      "constant": true,
      "inputs": [
        {
          "name": "framedHand",
          "type": "uint256[2]"
        },
        {
          "name": "_werewolfCard",
          "type": "uint256[2]"
        },
        {
          "name": "victim",
          "type": "uint256"
        }
      ],
      "name": "werewolfFrameKilling",
      "outputs": [
        {
          "name": "__werewolfCard",
          "type": "uint256[2]"
        },
        {
          "name": "_framedHand",
          "type": "uint256[2]"
        },
        {
          "name": "_victim",
          "type": "uint256"
        },
        {
          "name": "T",
          "type": "uint256[3]"
        },
        {
          "name": "c",
          "type": "uint256"
        },
        {
          "name": "s",
          "type": "uint256"
        }
      ],
      "payable": false,
      "stateMutability": "view",
      "type": "function"
    },
    {
      "constant": true,
      "inputs": [
        {
          "name": "pokerKey",
          "type": "uint256"
        },
        {
          "name": "hands",
          "type": "uint256[2][]"
        },
        {
          "name": "_werewolfCard",
          "type": "uint256[2]"
        },
        {
          "name": "victim",
          "type": "uint256"
        }
      ],
      "name": "werewolfChooset",
      "outputs": [
        {
          "name": "realt",
          "type": "uint256"
        }
      ],
      "payable": false,
      "stateMutability": "view",
      "type": "function"
    },
    {
      "constant": true,
      "inputs": [
        {
          "name": "realt",
          "type": "uint256"
        },
        {
          "name": "_werewolfCard",
          "type": "uint256[2]"
        }
      ],
      "name": "werewolfComputeT",
      "outputs": [
        {
          "name": "realT",
          "type": "uint256[3]"
        }
      ],
      "payable": false,
      "stateMutability": "view",
      "type": "function"
    },
    {
      "constant": true,
      "inputs": [
        {
          "name": "_werewolfCard",
          "type": "uint256[2]"
        },
        {
          "name": "_hands",
          "type": "uint256[2][]"
        },
        {
          "name": "victim",
          "type": "uint256"
        },
        {
          "name": "Ts",
          "type": "uint256[3][]"
        }
      ],
      "name": "computeChallenge",
      "outputs": [
        {
          "name": "realChallenge",
          "type": "uint256"
        }
      ],
      "payable": false,
      "stateMutability": "view",
      "type": "function"
    },
    {
      "constant": true,
      "inputs": [
        {
          "name": "pokerKey",
          "type": "uint256"
        },
        {
          "name": "_werewolfCard",
          "type": "uint256[2]"
        },
        {
          "name": "hand",
          "type": "uint256[2]"
        },
        {
          "name": "victim",
          "type": "uint256"
        },
        {
          "name": "tReady",
          "type": "uint256"
        },
        {
          "name": "cReady",
          "type": "uint256"
        }
      ],
      "name": "werewolfProve",
      "outputs": [
        {
          "name": "__werewolfCard",
          "type": "uint256[2]"
        },
        {
          "name": "_hand",
          "type": "uint256[2]"
        },
        {
          "name": "_victim",
          "type": "uint256"
        },
        {
          "name": "T",
          "type": "uint256[3]"
        },
        {
          "name": "c",
          "type": "uint256"
        },
        {
          "name": "s",
          "type": "uint256"
        }
      ],
      "payable": false,
      "stateMutability": "view",
      "type": "function"
    },
    {
      "constant": true,
      "inputs": [
        {
          "name": "_werewolfCard",
          "type": "uint256[2]"
        },
        {
          "name": "hand",
          "type": "uint256[2]"
        },
        {
          "name": "T",
          "type": "uint256[3]"
        },
        {
          "name": "c",
          "type": "uint256"
        },
        {
          "name": "s",
          "type": "uint256"
        }
      ],
      "name": "verifyWerewolfProof",
      "outputs": [
        {
          "name": "result",
          "type": "bool"
        }
      ],
      "payable": false,
      "stateMutability": "view",
      "type": "function"
    },
    {
      "constant": true,
      "inputs": [
        {
          "name": "card",
          "type": "uint256[2]"
        },
        {
          "name": "role",
          "type": "uint8"
        }
      ],
      "name": "quickGenerateMap",
      "outputs": [
        {
          "name": "cardNum",
          "type": "uint256"
        },
        {
          "name": "roleNum",
          "type": "uint256"
        }
      ],
      "payable": false,
      "stateMutability": "pure",
      "type": "function"
    },
    {
      "constant": true,
      "inputs": [
        {
          "name": "i",
          "type": "uint256"
        }
      ],
      "name": "quickPrepareDeck",
      "outputs": [
        {
          "name": "outMPC",
          "type": "uint256"
        }
      ],
      "payable": false,
      "stateMutability": "view",
      "type": "function"
    },
    {
      "constant": true,
      "inputs": [
        {
          "name": "me",
          "type": "uint256"
        },
        {
          "name": "pokerKey",
          "type": "uint256"
        },
        {
          "name": "i",
          "type": "uint256"
        },
        {
          "name": "cipherCard",
          "type": "uint256[2]"
        }
      ],
      "name": "helpDecryptRole",
      "outputs": [
        {
          "name": "decryptCard",
          "type": "uint256[2]"
        }
      ],
      "payable": false,
      "stateMutability": "view",
      "type": "function"
    },
    {
      "constant": true,
      "inputs": [
        {
          "name": "me",
          "type": "uint256"
        },
        {
          "name": "pokerKey",
          "type": "uint256"
        },
        {
          "name": "cipherCard",
          "type": "uint256[2]"
        }
      ],
      "name": "recoverRole",
      "outputs": [
        {
          "name": "decryptCard",
          "type": "uint256[2]"
        }
      ],
      "payable": false,
      "stateMutability": "view",
      "type": "function"
    },
    {
      "constant": true,
      "inputs": [
        {
          "name": "currentLives",
          "type": "bool[]"
        },
        {
          "name": "currentHands",
          "type": "uint256[2][]"
        },
        {
          "name": "currentRoles",
          "type": "uint256[]"
        },
        {
          "name": "currentPokerKeys",
          "type": "uint256[]"
        },
        {
          "name": "currentCardNumbers",
          "type": "uint256[]"
        },
        {
          "name": "currentRoom",
          "type": "uint256"
        },
        {
          "name": "currentDay",
          "type": "uint256"
        },
        {
          "name": "currentPhase",
          "type": "uint8"
        },
        {
          "name": "currentDeposits",
          "type": "uint256[]"
        }
      ],
      "name": "quickHashStates",
      "outputs": [
        {
          "name": "statesHash",
          "type": "uint256"
        }
      ],
      "payable": false,
      "stateMutability": "view",
      "type": "function"
    },
    {
      "constant": false,
      "inputs": [
        {
          "name": "stateMessage",
          "type": "bytes"
        }
      ],
      "name": "verifyStateMessage",
      "outputs": [],
      "payable": false,
      "stateMutability": "nonpayable",
      "type": "function"
    }
  ],
  "bytecode": "0x608060405234801561001057600080fd5b506040516020806140d3833981016040525160008054600160a060020a031916600160a060020a0383161781557f79be667ef9dcbbac55a06295ce870b07029bfcdb2dce28d959f2815b16f8179890600501557f483ada7726a3c4655da4fbfc0e1108a8fd17b448a68554199c47d08ffb10d4b8600560010155506140398061009a6000396000f3006080604052600436106101f55763ffffffff60e060020a600035041663076d968081146101fa57806307f7470b146102515780630cbee0e3146102f657806314a9a121146104035780632e52d6061461045f578063313ffac1146104865780633c0937ad146104af5780633e5a438d14610508578063474ab93c1461057a5780634ef3ea741461059557806352f9aaea146105b657806354054cd514610612578063568bd63e1461063357806358801f17146106485780635c56e5081461065d57806372b1d8cf14610672578063848862691461068a578063869624fa146106a25780638c3b02d8146106e25780638c785f881461077e57806398a8336e146107935780639a01967814610953578063a15352d514610977578063a4f195aa1461097f578063ab2778331461099d578063acb2c01a146109bd578063ad3b99a4146109d2578063b77d126814610a27578063c0cb6b2414610b48578063c52e3e4a14610ba0578063d34544cd14610bb8578063d5b1de7e14610bd3578063d6ffa29a14610c13578063d9e0bf4e14610c28578063dfbf53ae14610c5c578063eb28808114610ce6578063eb47688c14610cfe578063f292c21514610d1b578063f4d40d2614610d60578063f6ac71cd14610dc2578063f71d96cb14610de3578063fc7e286d14610e3f578063fd3ab28214610e60575b600080fd5b34801561020657600080fd5b506040805160206004803580820135838102808601850190965280855261024f95369593946024949385019291829185019084908082843750949750610e759650505050505050565b005b34801561025d57600080fd5b506040805180820182526102e2913691600491604491908390600290839083908082843750506040805180820182529497969581810195945092506002915083908390808284375050604080516060818101909252949796958181019594509250600391508390839080828437509396505083359450505060209091013590506110fc565b604080519115158252519081900360200190f35b34801561030257600080fd5b5060408051808201825261035b9136916004916044919083906002908390839080828437505060408051808201825294979695818101959450925060029150839083908082843750939650509235935061122892505050565b6040518087600260200280838360005b8381101561038357818101518382015260200161036b565b5050505090500186600260200280838360005b838110156103ae578181015183820152602001610396565b5050505090500185815260200184600360200280838360005b838110156103df5781810151838201526020016103c7565b50505050905001838152602001828152602001965050505050505060405180910390f35b34801561040f57600080fd5b5060408051808201825261044691600480359236926064919060249060029083908390808284375093965061136d95505050505050565b6040805192835260208301919091528051918290030190f35b34801561046b57600080fd5b506104746113a7565b60408051918252519081900360200190f35b34801561049257600080fd5b5061047460048035906024803590810191013560446084356113ad565b3480156104bb57600080fd5b506040805160206004803580820135601f810184900484028501840190955284845261024f9436949293602493928401919081908401838280828437509497506114539650505050505050565b34801561051457600080fd5b5060408051808201825261035b916004803592369260649190602490600290839083908082843750506040805180820182529497969581810195945092506002915083908390808284375093965050833594505050602082013591604001359050611456565b34801561058657600080fd5b5061024f6004356024356115b4565b3480156105a157600080fd5b50610474600160a060020a036004351661166d565b3480156105c257600080fd5b506105d7600160a060020a036004351661167f565b6040518082600260200280838360005b838110156105ff5781810151838201526020016105e7565b5050505090500191505060405180910390f35b34801561061e57600080fd5b50610474600160a060020a03600435166116f1565b34801561063f57600080fd5b50610446611703565b34801561065457600080fd5b5061024f611753565b34801561066957600080fd5b5061024f61190d565b34801561067e57600080fd5b50610474600435611b7d565b34801561069657600080fd5b50610474600435611b8f565b3480156106ae57600080fd5b50604080518082018252610474913691600491604491908390600290839083908082843750939650611bac95505050505050565b3480156106ee57600080fd5b5061070d60048035906024803591604435918201910135606435611bf1565b60405180806020018281038252838181518152602001915080516000925b8184101561076d57602080850284010151604080838360005b8381101561075c578181015183820152602001610744565b50505050905001926001019261072b565b925050509250505060405180910390f35b34801561078a57600080fd5b50610474611ccf565b34801561079f57600080fd5b5060408051602060048035808201358381028086018501909652808552610474953695939460249493850192918291850190849080828437505060408051873589018035602081810284018101909452808352979a999883019791965082019450925082915060009085015b8282101561084457604080518082018252908084028701906002908390839080828437505050918352505060019091019060200161080b565b50505050509192919290803590602001908201803590602001908080602002602001604051908101604052809392919081815260200183836020028082843750506040805187358901803560208181028481018201909552818452989b9a998901989297509082019550935083925085019084908082843750506040805187358901803560208181028481018201909552818452989b9a9989019892975090820195509350839250850190849080828437505060408051602060608901358a01803582810280850184018652818552999c8b359c848d01359c9687013560ff169b919a50985060809095019650929450810192829185019084908082843750949750611ce69650505050505050565b34801561095f57600080fd5b5061024f600160a060020a0360043516602435611e9a565b61024f611f98565b34801561098b57600080fd5b5061024f60ff60043516602435611fec565b3480156109a957600080fd5b506105d76004356024356044356064612155565b3480156109c957600080fd5b506104746121d1565b3480156109de57600080fd5b506040805160206004803580820135838102808601850190965280855261024f953695939460249493850192918291850190849080828437509497506121db9650505050505050565b348015610a3357600080fd5b50604080518082018252610474913691600491604491908390600290839083908082843750506040805186358801803560208181028401810190945280835296999897830196919550820193509150819060009085015b82821015610ac3576040805180820182529080840287019060029083908390808284375050509183525050600190910190602001610a8a565b50506040805160208088013589018035808302840183018552808452979a89359a90999098940196509194509081019250819060009085015b82821015610b38576040805160608181019092529080840287019060039083908390808284375050509183525050600190910190602001610afc565b5093965061265395505050505050565b348015610b5457600080fd5b50604080518082018252610b8b9160048035923692606491906024906002908390839080828437509396506127e195505050505050565b604051815181528082606080838360206105e7565b348015610bac57600080fd5b506105d76004356128b4565b348015610bc457600080fd5b50610474600435602435612909565b348015610bdf57600080fd5b5060408051808201825261047491369160049160449190839060029083908390808284375093965061293b95505050505050565b348015610c1f57600080fd5b5061024f612960565b348015610c3457600080fd5b50610c40600435612a0b565b60408051600160a060020a039092168252519081900360200190f35b348015610c6857600080fd5b50610c71612a33565b6040805160208082528351818301528351919283929083019185019080838360005b83811015610cab578181015183820152602001610c93565b50505050905090810190601f168015610cd85780820380516001836020036101000a031916815260200191505b509250505060405180910390f35b348015610cf257600080fd5b50610474600435612ac1565b348015610d0a57600080fd5b506105d76004356024356044612ad5565b348015610d2757600080fd5b506040805180820182526104469136916004916044919083906002908390839080828437509396505050913560ff169250612b34915050565b348015610d6c57600080fd5b50610d7b600435602435612b8d565b6040518084600260200280838360005b83811015610da3578181015183820152602001610d8b565b5050505091909101938452505060208201526040805191829003019150f35b348015610dce57600080fd5b5061024f600160a060020a0360043516612c2d565b348015610def57600080fd5b50610dfb600435612c36565b60408051600160a060020a03861681528415156020820152908101836003811115610e2257fe5b60ff16815260200182815260200194505050505060405180910390f35b348015610e4b57600080fd5b50610474600160a060020a0360043516612c80565b348015610e6c57600080fd5b50610474612c92565b60006006825110151515610e8857600080fd5b81516004819055600190810190610e9f9082613d6b565b50600190505b60045481116110195760a0604051908101604052808360018403815181101515610ecb57fe5b6020908102909101810151600160a060020a03168252600182820152604080518082018252600080825292810183905290830152606090910190815260006020909101526001805483908110610f1d57fe5b60009182526020918290208351600590920201805492840151151560a060020a0274ff000000000000000000000000000000000000000019600160a060020a0390931673ffffffffffffffffffffffffffffffffffffffff1990941693909317919091169190911781556040820151610f9c9060018301906002613d97565b5060608201518160030160006101000a81548160ff02191690836003811115610fc157fe5b0217905550608082015181600401559050508060076000600184815481101515610fe757fe5b60009182526020808320600590920290910154600160a060020a03168352820192909252604001902055600101610ea5565b6002600b556001600c8190556004546002198101600d550161103c600e82613dd5565b50600190505b60045481116110f857600180548290811061105957fe5b6000918252602090912060059091020154600e8054600160a060020a03909216918390811061108457fe5b9060005260206000200160006101000a815481600160a060020a030219169083600160a060020a0316021790555080600f60006001848154811015156110c657fe5b60009182526020808320600590920290910154600160a060020a03168352820192909252604001902055600101611042565b5050565b60008054604080517f2b0c1aba000000000000000000000000000000000000000000000000000000008152600160a060020a0390921691632b0c1aba918991899189918991899160040190819087908083838e5b83811015611168578181015183820152602001611150565b5050505090500185600260200280838360005b8381101561119357818101518382015260200161117b565b5050505090500184600360200280838360005b838110156111be5781810151838201526020016111a6565b5050505090500183815260200182815260200195505050505050602060405180830381600087803b1580156111f257600080fd5b505af1158015611206573d6000803e3d6000fd5b505050506040513d602081101561121c57600080fd5b50519695505050505050565b611230613df9565b611238613df9565b6000611242613e14565b60008054604080517fa2cf93080000000000000000000000000000000000000000000000000000000081528392600160a060020a03169163a2cf9308918b918d918c91600490910190819085908083838c5b838110156112ac578181015183820152602001611294565b5050505090500183600260200280838360005b838110156112d75781810151838201526020016112bf565b50505050905001828152602001935050505061014060405180830381600087803b15801561130457600080fd5b505af1158015611318573d6000803e3d6000fd5b505050506040513d601f19601f8201168201806040525061014081101561133e57600080fd5b506080810151610100820151610120830151929c60408e019c50919a5060a08d01995097509095509350505050565b600080611378613e14565b6113828585612ca8565b9050611394816401000003d0196130e0565b8051602090910151909590945092505050565b60045481565b60008054604080517fb7331865000000000000000000000000000000000000000000000000000000008152600160a060020a039092169163b7331865918691899189918c918991600401908190879080828437820191505080602001848152602001838152602001828103825286868281815260200192506040028082843782019150509650505050505050602060405180830381600087803b1580156111f257600080fd5b50565b61145e613df9565b611466613df9565b6000611470613e14565b6000806000809054906101000a9004600160a060020a0316600160a060020a031663d4540ff78d8d8d8d8d8d6040518763ffffffff1660e060020a0281526004018087815260200186600260200280838360005b838110156114dc5781810151838201526020016114c4565b5050505090500185600260200280838360005b838110156115075781810151838201526020016114ef565b50505050905001848152602001838152602001828152602001965050505050505061014060405180830381600087803b15801561154357600080fd5b505af1158015611557573d6000803e3d6000fd5b505050506040513d601f19601f8201168201806040525061014081101561157d57600080fd5b50608081015161010082015161012083015192985060408901975090955060a0880194509250905096509650965096509650969050565b8060005b600454811161166757611614826003838154811015156115d457fe5b600091825260209091206040805180820191829052926002908102909201919082845b8154815260200190600101908083116115f757505050505061136d565b600380548490811061162257fe5b60009182526020822060029091020101600060038581548110151561164357fe5b600091825260209091206002909102016001019290925591909155506001016115b8565b50505050565b60076020526000908152604090205481565b611687613df9565b600160a060020a03821660009081526007602052604090205460018054829081106116ae57fe5b600091825260208220600160059092020101015460018054839081106116d057fe5b60009182526020918290206002600590920201015490840152825250919050565b600f6020526000908152604090205481565b6000806003600181548110151561171657fe5b600091825260208220600290910201015460038054600190811061173657fe5b600091825260209091206002909102016001015490939092509050565b60008061175e613df9565b6177179250600091505b60045482116117da57611784836003848154811015156115d457fe5b600380548590811061179257fe5b6000918252602082206002909102010160006003868154811015156117b357fe5b60009182526020909120600290910201600101929092559190915550600190910190611768565b6003805460029081106117e957fe5b600091825260208220600290910201015460038054600290811061180957fe5b60009182526020918290206001600290920201015490830152815260038054600590811061183357fe5b600091825260208220600290910201015460038054600590811061185357fe5b600091825260209091206002909102016001015460038054600290811061187657fe5b6000918252602082206002909102010160006003600281548110151561189857fe5b60009182526020918290206001600290920201019390935550919091558151908201516003805460059081106118ca57fe5b600091825260208220600290910201016000600360058154811015156118ec57fe5b60009182526020909120600290910201600101929092559190915550505050565b6000806004546001016003816119239190613e33565b61192e600282613dd5565b50600091505b6004548211611951576119468261314c565b600190910190611934565b600091505b6004548211611a03576119ad60028381548110151561197157fe5b600091825260209182902001546040805180820191829052600580548252929390929160029160069085018083116115f757505050505061136d565b60038054859081106119bb57fe5b6000918252602082206002909102010160006003868154811015156119dc57fe5b60009182526020909120600290910201600101929092559190915550600190910190611956565b611a5860036000815481101515611a1657fe5b600091825260209091206040805180820191829052926002908102909201919082845b815481526020019060010190808311611a395750505050506000613182565b611aad60036001815481101515611a6b57fe5b600091825260209091206040805180820191829052926002908102909201919082845b815481526020019060010190808311611a8e5750505050506001613182565b611ac060036002815481101515611a6b57fe5b611b14600380815481101515611ad257fe5b600091825260209091206040805180820191829052926002908102909201919082845b815481526020019060010190808311611af55750505050506002613182565b5060045b60045481116110f857611b75600382815481101515611b3357fe5b600091825260209091206040805180820191829052926002908102909201919082845b815481526020019060010190808311611b565750505050506003613182565b600101611b18565b60086020526000908152604090205481565b70014551231950b75fc4402da1732fc9bebe19607b919091010690565b6000816040518082600260200280838360005b83811015611bd7578181015183820152602001611bbf565b505060405192909401829003909120979650505050505050565b606060008086915083600101604051908082528060200260200182016040528015611c3657816020015b611c23613df9565b815260200190600190039081611c1b5790505b509250600090505b838111611cc457611c8382878784818110611c5557fe5b90506040020160028060200260405190810160405280929190826002602002808284375061136d9350505050565b8483815181101515611c9157fe5b60209081029190910101518551869085908110611caa57fe5b602090810291909101810151019190915252600101611c3e565b505095945050505050565b70014551231950b75fc4402da1732fc9bebe195b90565b6000898989898989898989604051808a8051906020019060200280838360005b83811015611d1e578181015183820152602001611d06565b505050509050018980516000925b81841015611d6e57602080850284010151604080838360005b83811015611d5d578181015183820152602001611d45565b505050509050019260010192611d2c565b92505050888051906020019060200280838360005b83811015611d9b578181015183820152602001611d83565b50505050905001878051906020019060200280838360005b83811015611dcb578181015183820152602001611db3565b50505050905001868051906020019060200280838360005b83811015611dfb578181015183820152602001611de3565b50505050905001858152602001848152602001836005811115611e1a57fe5b60ff167f0100000000000000000000000000000000000000000000000000000000000000028152600101828051906020019060200280838360005b83811015611e6d578181015183820152602001611e55565b50505050905001995050505050505050505060405180910390206001900490509998505050505050505050565b6000611ea4613e5f565b600160a060020a038416600090815260076020526040902054600180549193509083908110611ecf57fe5b60009182526020918290206040805160a0810182526005939093029091018054600160a060020a038116845260a060020a900460ff16151593830193909352805180820180835292939291840191600184019060029082845b815481526020019060010190808311611f2857505050918352505060038281015460209092019160ff1690811115611f5c57fe5b6003811115611f6757fe5b81526020016004820154815250509050611f8183826131b0565b1515600114611f8f57600080fd5b611667846131cf565b600160a060020a0333166000818152600960209081526040918290203490819055825190815291517fe1fffcc4923d04b559f4d29a8bfc6cda04eb5b0d3c460751c2402c5c5cc9109c9281900390910190a2565b6000611ff88383613341565b151560011461200657600080fd5b50600160a060020a033316600090815260076020526040902054600180548491908390811061203157fe5b906000526020600020906005020160030160006101000a81548160ff0219169083600381111561205d57fe5b02179055508160018281548110151561207257fe5b906000526020600020906005020160040181905550600a83600381111561209557fe5b6004811061209f57fe5b018054600019019055600d54600c54600b54910114156121035760408051808201909152600a8082527f57657265776f6c7665730000000000000000000000000000000000000000000060209092019182526120fd91601091613e92565b50612150565b600b541515612150576040805180820190915260068082527f48756d616e730000000000000000000000000000000000000000000000000000602090920191825261166791601091613e92565b505050565b61215d613df9565b60008386141561217a5760208084013590830152823582526121c8565b6121968570014551231950b75fc4402da1732fc9bebe19613363565b6040805180820182529192506121c0918391869060029083908390808284375061136d9350505050565b602084015282525b50949350505050565b600e546000190190565b60008060068351101515156121ef57600080fd5b600091505b825182101561224b57828281518110151561220b57fe5b6020908102909101810151600160a060020a038116600090815260099092526040909120549091506064111561224057600080fd5b6001909101906121f4565b825160048190556001908101906122629082613d6b565b50600191505b60045482116125945760a060405190810160405280846001850381518110151561228e57fe5b6020908102909101810151600160a060020a031682526001828201526040805180820182526000808252928101839052908301526060909101908152600060209091015260018054849081106122e057fe5b60009182526020918290208351600590920201805492840151151560a060020a0274ff000000000000000000000000000000000000000019600160a060020a0390931673ffffffffffffffffffffffffffffffffffffffff199094169390931791909116919091178155604082015161235f9060018301906002613d97565b5060608201518160030160006101000a81548160ff0219169083600381111561238457fe5b021790555060808201518160040155905050817f03cf42e4797686930ef09f709f5bb470696c17d58255a88600d589f2090ba6016001848154811015156123c757fe5b600091825260209091206005909102015460018054600160a060020a0390921691869081106123f257fe5b906000526020600020906005020160000160149054906101000a900460ff16604080519081016040528060018881548110151561242b57fe5b6000918252602082206001600590920201010154815260200160018881548110151561245357fe5b60009182526020909120600260059092020101549052600180548890811061247757fe5b60009182526020909120600360059092020101546001805460ff909216918990811061249f57fe5b9060005260206000209060050201600401546040518086600160a060020a0316600160a060020a031681526020018515151515815260200184600260200280838360005b838110156124fb5781810151838201526020016124e3565b5050505090500183600381111561250e57fe5b60ff1681526020018281526020019550505050505060405180910390a2817f9dc64552b3ef4f55429327ed20ed329cde6b51b38f1226e773cbcf2c29093e4460018481548110151561255c57fe5b60009182526020918290206005909102015460408051600160a060020a039092168252519081900390910190a2600190910190612268565b7f1f53875f11d5a712b4c4f66780cd6f618f624c4794dcf513a29fddadd299a9d56080604051908101604052806000815260200160028152602001600181526020016003600454038152506040518082600460200280838360005b838110156126075781810151838201526020016125ef565b5050505090500191505060405180910390a160045460408051918252517f0475fa33e711a0d11030b454020a5f7c806520bdc5d7a1fcb9accde610a00f249181900360200190a1505050565b60008054604080517fb77d1268000000000000000000000000000000000000000000000000000000008152600160a060020a039092169163b77d1268918891889188918891600490910190819086908083838d5b838110156126bf5781810151838201526020016126a7565b5050505090500180602001848152602001806020018381038352868181518152602001915080516000925b8184101561272c57602080850284010151604080838360005b8381101561271b578181015183820152602001612703565b5050505090500192600101926126ea565b86810385528751815287516000945088935091506020015b8184101561278657602080850284010151606080838360005b8381101561277557818101518382015260200161275d565b505050509050019260010192612744565b925050509650505050505050602060405180830381600087803b1580156127ac57600080fd5b505af11580156127c0573d6000803e3d6000fd5b505050506040513d60208110156127d657600080fd5b505195945050505050565b6127e9613e14565b6000809054906101000a9004600160a060020a0316600160a060020a03166383242e9084846040518363ffffffff1660e060020a0281526004018083815260200182600260200280838360005b8381101561284e578181015183820152602001612836565b5050505090500192505050606060405180830381600087803b15801561287357600080fd5b505af1158015612887573d6000803e3d6000fd5b505050506040513d601f19601f8201168201806040525060608110156128ac57600080fd5b509392505050565b6128bc613df9565b60038054839081106128ca57fe5b600091825260208220600290910201015460038054849081106128e957fe5b600091825260209182902060016002909202010154908301528152919050565b600380548390811061291757fe5b90600052602060002090600202018160028110151561293257fe5b01549150829050565b60006008600061294a84611bac565b8152602001908152602001600020549050919050565b60015b6004548111612a0357600380548290811061297a57fe5b6000918252602082206002909102010154600380548390811061299957fe5b600091825260209091206002909102016001015460018054849081106129bb57fe5b6000918252602082206001600590920201010160006001858154811015156129df57fe5b60009182526020909120600260059092020101929092559190915550600101612963565b611453613401565b600e805482908110612a1957fe5b600091825260209091200154600160a060020a0316905081565b6010805460408051602060026001851615610100026000190190941693909304601f81018490048402820184019092528181529291830182828015612ab95780601f10612a8e57610100808354040283529160200191612ab9565b820191906000526020600020905b815481529060010190602001808311612a9c57829003601f168201915b505050505081565b600a8160048110612ace57fe5b0154905081565b612add613df9565b6000612afb8470014551231950b75fc4402da1732fc9bebe19613363565b604080518082018252919250612b25918391869060029083908390808284375061136d9350505050565b60208401528252509392505050565b600080836040518082600260200280838360005b83811015612b60578181015183820152602001612b48565b50505050905001915050604051809103902060019004836003811115612b8257fe5b915091509250929050565b612b95613df9565b604080518082019182905260058054825260009283928392612bcf92889291906002906006602085018083116115f757505050505061136d565b60208601528452851515612be557506000612c16565b8560011480612bf45750856002145b15612c0157506001612c16565b8560031415612c1257506002612c16565b5060035b612c208482612b34565b9497909650939450505050565b611453816131cf565b6001805482908110612c4457fe5b6000918252602090912060059091020180546003820154600490920154600160a060020a038216935060a060020a90910460ff90811692169084565b60096020526000908152604090205481565b70014551231950b75fc4402da1732fc9bebe1981565b612cb0613e14565b6000806000612cbd613eff565b612cc5613e14565b612ccd613f2e565b6401000003d0199550600080808b1515612ce6576130d1565b6000604051985061020089016040525b8c15612d2e5760018d1615612d1d5750601f8c16808989015360206010821102818e03019c505b60028d049c50600188019750612cf6565b50604080516060810182528c5181526020808e015190820152600191810191909152808752612d5c90613441565b9450612d68858c613560565b6020870152612d7f858760015b60200201516137a2565b6040870152612d9085876002612d75565b6060870152612da185876003612d75565b6080870152612db285876004612d75565b60a0870152612dc385876005612d75565b60c0870152612dd485876006612d75565b60e0870152602086015160400151845288801515612dee57fe5b8451604080890151015109602085015288801515612e0857fe5b602085015160608801516040015109604085015288801515612e2657fe5b60408086015160808901519091015109606085015288801515612e4557fe5b606085015160a08801516040015109608085015288801515612e6357fe5b608085015160c0880151604001510960a085015288801515612e8157fe5b60a085015160e0880151604001510960c08501819052612ea1908a613363565b60e0850181905261010085015288801515612eb857fe5b61010085015160a0860151096101e0850152600692505b60028310612f4c5788801515612ee157fe5b610100850151876001860160088110612ef657fe5b6020020151604001510961010085015288801515612f1057fe5b61010085015185600119860160108110612f2657fe5b602002015109846008850160108110612f3b57fe5b602002015260001990920191612ecf565b88801515612f5657fe5b610100850151604080890151015109610120850152600092505b6007831015612fe857612fdd866001850160088110612f8b57fe5b6020020151856009860160108110612f9f57fe5b60200201518b801515612fae57fe5b876009880160108110612fbd57fe5b6020020151886009890160108110612fd157fe5b6020020151098c613a02565b600190920191612f70565b60008711156130d15760001987890181015197019660001a915061300b8a613a32565b601082111561306f576002601f83900304905061306a8a6040805190810160405280898560088110151561303b57fe5b602090810291909101515182520189856008811061305557fe5b6020020151600160200201518d039052613b47565b6130cc565b60008211156130cc57600260001983010490506130cc8a6040805190810160405280898560088110151561309f57fe5b60209081029190910151518252018985600881106130b957fe5b6020020151600160200201519052613b47565b612fe8565b50505050505050505092915050565b6000806130f4846002602002015184613363565b91508280151561310057fe5b82830990508280151561310f57fe5b845182900984528280151561312057fe5b8380151561312a57fe5b8284098560015b60200201510960208501525050600160409092019190915250565b70014551231950b75fc4402da1732fc9bebe19607b82010660028281548110151561317357fe5b60009182526020909120015550565b80600381111561318e57fe5b6008600061319b85611bac565b81526020810191909152604001600020555050565b600082607b1480156131c85750602082015115156001145b9392505050565b600160a060020a0381166000908152600760205260408120546001805491929182918291859081106131fd57fe5b600091825260208083206005909202909101805493151560a060020a0274ff00000000000000000000000000000000000000001990941693909317909255600160a060020a0386168152600f909152604090205491508190505b600e5460011901811161331057600e80546001830190811061327557fe5b600091825260209091200154600e8054600160a060020a03909216918390811061329b57fe5b9060005260206000200160006101000a815481600160a060020a030219169083600160a060020a03160217905550600f6000600e838154811015156132dc57fe5b6000918252602080832090910154600160a060020a0316835282019290925260400190208054600019019055600101613257565b600e805490613323906000198301613dd5565b50505050600160a060020a03166000908152600f6020526040812055565b60008083600381111561335057fe5b141580156131c85750506101c814919050565b6000808080808087158015906133795750868814155b801561338457508615155b151561338f57600080fd5b868811156133a65786888115156133a257fe5b0697505b600193508692508791505b81156133dc5781838115156133c257fe5b9495940485810290940393919283830290039190506133b1565b60008512156133f25784600003870395506133f6565b8495505b505050505092915050565b600160005b60045482116110f857600180548390811061341d57fe5b60009182526020909120600160059092020181018054820181559201919050613406565b613449613e14565b6401000003d019600080808080808860026020020151151561346a57613554565b885160208a015190965094508680151561348057fe5b85860993508680151561348f57fe5b8780151561349957fe5b8588096004099250868015156134ab57fe5b878015156134b557fe5b8788096003099150868015156134c757fe5b878015156134d157fe5b8485088803888015156134e057fe5b848509088089529050868015156134f357fe5b878015156134fd57fe5b8880151561350757fe5b86870960080988038880151561351957fe5b8980151561352357fe5b848b03870885090860208901528680151561353a57fe5b8780151561354457fe5b60408b0151870960020960408901525b50505050505050919050565b613568613e14565b6000613572613df9565b61357a613f4e565b6000808080808a6002602002015115156135b657604080516060810182528b5181526020808d0151908201526001918101919091529850613794565b60208a015115156135c9578a9850613794565b60408b01516401000003d0199850889080098752878015156135e757fe5b875160408d015109602080890191909152604080516080810182528d5181528d8301519281019290925281018980151561361d57fe5b89518d510981526020018980151561363157fe5b6020808b0151908e0151099052604081015181519197501415613682576060860151602087015114613673576000808c5260208c0181905260408c0152613794565b61367c8b613441565b50613794565b8780151561368c57fe5b86516040880151908a0390089450878015156136a457fe5b60208701516060880151908a0390089350878015156136bf57fe5b8586099250878015156136ce57fe5b8584099150878015156136dd57fe5b828903898015156136ea57fe5b868709089050878015156136fa57fe5b8880151561370457fe5b8980151561370e57fe5b885186900960020989038208808a5290508780151561372957fe5b8880151561373357fe5b828a038a80151561374057fe5b895187900908850960208a01528780151561375757fe5b8880151561376157fe5b602088015184900989038a600160200201510860208a01528780151561378357fe5b60408c015186098960025b60200201525b505050505050505092915050565b6137aa613e14565b60006137b4613f4e565b6137bc613f4e565b6000808080808a6002602002015115156137d857899850613794565b60408a015115156137eb578a9850613794565b60408b01516401000003d01998508890800987528780151561380957fe5b875160408d01510960208801528780151561382057fe5b60408b0151800960408801528780151561383657fe5b604080890151908c01510960608801526040805160808101909152808980151561385c57fe5b60408a01518e510981526020018980151561387357fe5b60608a015160208f01510981526020018980151561388d57fe5b89518d51098152602001898015156138a157fe5b6020808b0151908e01510990526040810151815191975014156138e25760608601516020870151146138d257613794565b6138db8b613441565b9850613794565b878015156138ec57fe5b86516040880151908a03900894508780151561390457fe5b60208701516060880151908a03900893508780151561391f57fe5b85860992508780151561392e57fe5b85840991508780151561393d57fe5b8289038980151561394a57fe5b8687090890508780151561395a57fe5b8880151561396457fe5b8980151561396e57fe5b885186900960020989038208808a5290508780151561398957fe5b8880151561399357fe5b828a038a8015156139a057fe5b895187900908850960208a0152878015156139b757fe5b888015156139c157fe5b602088015184900989038a600160200201510860208a0152878015156139e357fe5b888015156139ed57fe5b6040808d0151908e015109860989600261378e565b80801515613a0c57fe5b8451839009845280801515613a1d57fe5b81801515613a2757fe5b838509856001613131565b6401000003d0196000808080808087600260200201511515613a5357613b3d565b87516020890151909650945086801515613a6957fe5b858609935086801515613a7857fe5b87801515613a8257fe5b858809600409925086801515613a9457fe5b87801515613a9e57fe5b878809600309915086801515613ab057fe5b87801515613aba57fe5b848508880388801515613ac957fe5b84850908808952905086801515613adc57fe5b87801515613ae657fe5b88801515613af057fe5b868709600809880388801515613b0257fe5b89801515613b0c57fe5b848b038708850908602089015286801515613b2357fe5b87801515613b2d57fe5b60408a0151870960020960408901525b5050505050505050565b6000613b51613df9565b613b59613f4e565b60008080808089600160200201511515613b8b5788518a526020808a0151908b015260018a60025b6020020152613d5f565b60208901511515613b9b57613d5f565b60408a01516401000003d019985088908009875287801515613bb957fe5b875160408c015109602080890191909152604080516080810182528c5181528c83015192810192909252810189801515613bef57fe5b89518c5109815260200189801515613c0357fe5b6020808b0151908d0151099052604081015181519197501415613c51576060860151602087015114613c43576000808b5260208b018190528a6002613b81565b613c4c8a613a32565b613d5f565b87801515613c5b57fe5b86516040880151908a039008945087801515613c7357fe5b60208701516060880151908a039008935087801515613c8e57fe5b858609925087801515613c9d57fe5b858409915087801515613cac57fe5b82890389801515613cb957fe5b86870908905087801515613cc957fe5b88801515613cd357fe5b89801515613cdd57fe5b885186900960020989038208808b52905087801515613cf857fe5b88801515613d0257fe5b828a038a801515613d0f57fe5b895187900908850960208b015287801515613d2657fe5b88801515613d3057fe5b602088015184900989038b600160200201510860208b015287801515613d5257fe5b60408b0151860960408b01525b50505050505050505050565b815481835581811115612150576005028160050283600052602060002091820191016121509190613f6d565b8260028101928215613dc5579160200282015b82811115613dc5578251825591602001919060010190613daa565b50613dd1929150613fc2565b5090565b81548183558181111561215057600083815260209020612150918101908301613fc2565b60408051808201825290600290829080388339509192915050565b6060604051908101604052806003906020820280388339509192915050565b815481835581811115612150576002028160020283600052602060002091820191016121509190613fdc565b6040805160c08101825260008082526020820152908101613e7e613df9565b815260200160008152602001600081525090565b828054600181600116156101000203166002900490600052602060002090601f016020900481019282601f10613ed357805160ff1916838001178555613dc5565b82800160010185558215613dc55791820182811115613dc5578251825591602001919060010190613daa565b610300604051908101604052806008905b613f18613e14565b815260200190600190039081613f105790505090565b610200604051908101604052806010906020820280388339509192915050565b6080604051908101604052806004906020820280388339509192915050565b611ce391905b80821115613dd157805474ffffffffffffffffffffffffffffffffffffffffff191681556000613fa66001830182613fff565b5060038101805460ff1916905560006004820155600501613f73565b611ce391905b80821115613dd15760008155600101613fc8565b611ce391905b80821115613dd1576000613ff68282613fff565b50600201613fe2565b5060008155600101600090555600a165627a7a723058209f75c51c6f0fc1bcdb9ca2e2f94459a807e33e450d5f5325721b9e07a16520300029",
  "source": "pragma solidity ^0.4.7;\r\nimport \"./OrPoK.sol\";\r\n\r\ncontract SmartWerewolf {\r\n    //parameters using bitcoin's curve (fixed for every game)\r\n    uint constant p = 0xFFFFFFFFFFFFFFFFFFFFFFFFFFFFFFFFFFFFFFFFFFFFFFFFFFFFFFFEFFFFFC2F;\r\n    uint constant Gx =0x79BE667EF9DCBBAC55A06295CE870B07029BFCDB2DCE28D959F2815B16F81798;\r\n    uint constant Gy = 0x483ADA7726A3C4655DA4FBFC0E1108A8FD17B448A68554199C47D08FFB10D4B8;\r\n    uint public constant q = 0xFFFFFFFFFFFFFFFFFFFFFFFFFFFFFFFEBAAEDCE6AF48A03BBFD25E8CD0364141;\r\n    OrPoK processPoK; \r\n\r\n    //bullet broad (fixed during 1 game)\r\n    Player[] public players;\r\n    uint[] MPC;\r\n    uint[2][] public deck;\r\n    uint public n;\r\n    uint[2] G;\r\n    mapping (address => uint) public playerNumOf;\r\n    mapping(uint => uint) public roleOf;\r\n    mapping(address => uint) public deposits;\r\n    \r\n    //up-to-date report (change in game)\r\n    uint[4] public living;\r\n    address[] public livingPlayers;\r\n    mapping(address => uint) public theLivingNumOf;\r\n    string public winner;\r\n    Time gameClock;\r\n\r\n    function SmartWerewolf(address addressPoK) public {\r\n        processPoK = OrPoK(addressPoK);\r\n        G[0] = Gx;\r\n        G[1] = Gy;\r\n    }\r\n    \r\n\r\n    //0. \r\n\r\n    function quickDepositGame() external payable {\r\n        deposits[msg.sender] = msg.value;\r\n        emit Deposit(\r\n                msg.sender,\r\n                deposits[msg.sender]\r\n            );\r\n    }\r\n\r\n    \r\n    //1.  (V)\r\n\r\n    function engagement(address[] _players) public {\r\n        require(_players.length >= 6);\r\n        n = _players.length;\r\n        players.length = 1+ n;\r\n        uint i;\r\n        for (i = 1; i <= n; i++) {\r\n            players[i] = Player\r\n            (\r\n                {\r\n                    name: _players[ i-1 ],  \r\n                    live: true, \r\n                    hand: [uint(0),0], \r\n                    role: RoleTypes.Unseen,\r\n                    pokerKey: 0\r\n                }\r\n           ); \r\n        playerNumOf[players[i].name] = i;\r\n        }\r\n        \r\n        living[uint(RoleTypes.Werewolf)]=2;\r\n        living[uint(RoleTypes.Seer)]=1;\r\n        living[uint(RoleTypes.Villager)]=n-3;\r\n\r\n        livingPlayers.length=n+1;\r\n        for(i=1;i<=n;i++){\r\n            livingPlayers[i]=players[i].name;\r\n            theLivingNumOf[players[i].name]=i;\r\n        }\r\n    }\r\n\r\n    function quickEngagePlayers(address[] inPlayerNames) \r\n        public \r\n    {   \r\n        require(inPlayerNames.length >= 6);\r\n        uint i;\r\n        for(i = 0; i<inPlayerNames.length; i++){\r\n            address p = inPlayerNames[i];\r\n            require(deposits[p]>=100);\r\n        }\r\n\r\n        n = inPlayerNames.length;\r\n        players.length = 1+n;\r\n\r\n        for (i = 1; i <= n; i++) {\r\n            players[i] = Player\r\n            (\r\n                {\r\n                    name: inPlayerNames[ i-1 ],  \r\n                    live: true, \r\n                    hand: [uint(0),0], \r\n                    role: RoleTypes.Unseen,\r\n                    pokerKey: 0\r\n                }\r\n            );\r\n            \r\n            emit JoinPlayer(\r\n                //for mapping\r\n                i,\r\n                //for players \r\n                players[i].name, \r\n                players[i].live, \r\n                [uint((players[i].hand)[0]),(players[i].hand)[1]], \r\n                players[i].role, \r\n                players[i].pokerKey\r\n            );\r\n            \r\n            emit RegLivingPlayer(\r\n                i,\r\n                players[i].name\r\n                );\r\n        }\r\n        emit RegLivingRole([uint(0),2,1,n-3]);\r\n        emit PlayerReady(n);\r\n    }\r\n    \r\n    \r\n    //2-1  (V)\r\n\r\n    //(a)    \r\n\r\n    function createCards() public {   \r\n        MPC.length = deck.length = 1+n;\r\n        for(uint i=0; i <= n; i++ ){\r\n            prepareDeck(i);\r\n        }\r\n        for(i=0; i<=n; i++){\r\n            (deck[i][0], deck[i][1]) = multiply(MPC[i], G);\r\n        }\r\n        generateMap(deck[0], RoleTypes.Unseen);\r\n        generateMap(deck[1], RoleTypes.Werewolf);\r\n        generateMap(deck[2], RoleTypes.Werewolf);\r\n        generateMap(deck[3], RoleTypes.Seer);\r\n        for (uint j = 4; j <= n; j++) {\r\n            generateMap(deck[j], RoleTypes.Villager);\r\n        }\r\n    }\r\n\r\n    function quickCreateCard(\r\n        uint i,\r\n        uint inMPC\r\n        ) \r\n        external\r\n        view \r\n        returns(\r\n            uint[2] outCard, \r\n            uint cardNum, \r\n            uint roleNum\r\n            )\r\n        {   \r\n        (outCard[0], outCard[1]) = multiply(inMPC, G);\r\n        RoleTypes outRole;\r\n        if(i == 0){\r\n            outRole = RoleTypes.Unseen;\r\n        }else if(i==1||i==2){\r\n            outRole = RoleTypes.Werewolf;\r\n        }else if(i==3){\r\n            outRole = RoleTypes.Seer;\r\n        }else{\r\n            outRole = RoleTypes.Villager;\r\n        }\r\n        (cardNum,roleNum)= quickGenerateMap(outCard, outRole);\r\n    }\r\n\r\n    //(b) \r\n\r\n    function shuffleCards() public {\r\n        uint printBack = 0x7717; \r\n        for(uint i=0; i<=n; i++){\r\n            (deck[i][0], deck[i][1]) = multiply(printBack, deck[i]);\r\n        }\r\n        uint[2] memory tmp;\r\n        (tmp[0], tmp[1]) = (deck[2][0], deck[2][1]);\r\n        (deck[2][0], deck[2][1]) = (deck[5][0], deck[5][1]);\r\n        (deck[5][0], deck[5][1]) = (tmp[0], tmp[1]);\r\n    } \r\n\r\n    function shuffleCardBy(\r\n        uint i, \r\n        uint pokerKey\r\n        ) \r\n            external\r\n    {\r\n        //encrypt each card\r\n        uint printBack = pokerKey; \r\n        for(uint k=0; k<=n; k++){\r\n            (deck[k][0], deck[k][1]) = multiply(printBack, deck[k]);\r\n        }\r\n        //support any shuffle\r\n    }\r\n\r\n    function quickShuffleCardBy(\r\n        uint i, \r\n        uint pokerKey, \r\n        uint[2][] inDeck, \r\n        uint numCards\r\n        ) \r\n        external \r\n        view \r\n        returns(uint[2][] outDeck){\r\n        //encrypt each card\r\n        uint printBack = pokerKey;\r\n        outDeck = new uint[2][](1+numCards); \r\n        for(uint k=0; k<=numCards; k++){\r\n            (outDeck[k][0], outDeck[k][1]) = multiply(printBack, inDeck[k]);\r\n        }\r\n        //support any shuffle TODO: some shuffle\r\n    }\r\n    \r\n\r\n    //2-2.  (V)\r\n\r\n    function dealCards() public {\r\n        for(uint i=1; i<=n; i++){\r\n            (players[i].hand[0], players[i].hand[1])  \r\n            = (deck[i][0], deck[i][1]);\r\n        }\r\n        helpDecryptRole();\r\n    }\r\n\r\n    function dealCardTo(uint i) \r\n        external        \r\n        view \r\n        returns(uint[2] hand){\r\n        (hand[0],hand[1])=(deck[i][0], deck[i][1]);\r\n    }\r\n\r\n    //3.  (V)\r\n\r\n    function nightKill(address victimName, uint proofCanKill) public {\r\n        uint v = playerNumOf[victimName];\r\n        Player memory victim = players[v];\r\n        require (verify(proofCanKill, victim)==true);\r\n        killed(victimName);\r\n    }\r\n    \r\n    //4. \r\n\r\n    function dayVoting(address name) public {\r\n        \r\n        killed(name);\r\n\r\n    }\r\n    \r\n    //5. open \r\n\r\n    function openRole(RoleTypes _role, uint _pokerKey) public {\r\n        require(verifyRole(_role, _pokerKey)==true);\r\n        uint i = playerNumOf[msg.sender];\r\n        players[i].role = _role;\r\n        players[i].pokerKey=_pokerKey;\r\n        \r\n        living[uint(_role)]--;\r\n\r\n        if(living[uint(RoleTypes.Werewolf)]==living[uint(RoleTypes.Seer)]+living[uint(RoleTypes.Villager)]){\r\n            winner = \"Werewolves\";\r\n        }\r\n        else if(living[uint(RoleTypes.Werewolf)]==0){\r\n            winner = \"Humans\";\r\n        }\r\n    }\r\n\r\n\r\n    //getter functions\r\n    \r\n    function multiply(uint s, uint[2] point) public view returns(uint ,uint){\r\n        uint[3] memory result = Secp256k1_noconflict._mul(s, point);\r\n        ECCMath_noconflict.toZ1(result, p);\r\n        return (result[0],result[1]);\r\n    }\r\n\r\n    function checkRoleOf(uint[2] card) public view returns(uint) {return roleOf[cardToNumber(card)];}\r\n\r\n    function getHandOf(address name) public view returns(uint[2] hand){\r\n        uint i = playerNumOf[name];\r\n        (hand[0] ,hand[1]) = ((players[i].hand)[0], (players[i].hand)[1]);\r\n    }\r\n\r\n    function numSurvive() public view returns(uint) {return livingPlayers.length-1;}\r\n\r\n    function werewolfCard() \r\n        external \r\n        view \r\n        returns(uint cardX,uint cardY){\r\n        (cardX, cardY) = (deck[1][0], deck[1][1]);\r\n    }\r\n\r\n    function cardToNumber(uint[2] card) public pure returns(uint){return uint(keccak256(card));}\r\n    \r\n    function cardOrder() public pure returns(uint) {return q;}\r\n    \r\n\r\n    //\r\n\r\n    function werewolfFrameKilling(uint[2] framedHand, uint[2] _werewolfCard,  uint victim) public view returns(uint[2] __werewolfCard, uint[2] _framedHand, uint _victim, uint[3] T, uint c, uint s){\r\n        return processPoK.forgeProof(_werewolfCard, framedHand, victim);\r\n    }\r\n\r\n    function werewolfChooset(uint pokerKey, uint[2][] hands, uint[2] _werewolfCard, uint victim ) external view returns(uint realt){\r\n\r\n        return processPoK.computeRealt(_werewolfCard, hands, pokerKey, victim);\r\n    }\r\n\r\n    function werewolfComputeT(uint realt, uint[2] _werewolfCard) public view returns(uint[3] realT){\r\n        return processPoK.computeTFrom(realt, _werewolfCard);\r\n    }\r\n\r\n    function computeChallenge(uint[2] _werewolfCard, uint[2][] _hands, uint victim, uint[3][] Ts) public view returns(uint realChallenge){\r\n        return processPoK.computeChallenge(_werewolfCard, _hands, victim, Ts);\r\n    }\r\n\r\n    function werewolfProve(uint pokerKey, uint[2] _werewolfCard, uint[2] hand, uint victim, uint tReady,uint cReady) public view returns(uint[2] __werewolfCard, uint[2] _hand, uint _victim, uint[3] T, uint c, uint s){\r\n        return processPoK.createSchnorr(pokerKey, _werewolfCard, hand, victim, tReady, cReady);\r\n    }\r\n\r\n    function verifyWerewolfProof(uint[2] _werewolfCard, uint[2] hand,  uint[3] T, uint c, uint s) public view returns (bool result){\r\n        return processPoK.verifySchnorr(_werewolfCard, hand, T, c, s);\r\n    }\r\n\r\n\r\n    //\r\n\r\n    function verify(uint proofCanKill, Player victim) pure internal returns(bool){\r\n        \r\n        return proofCanKill == 123 && victim.live == true;\r\n    }\r\n\r\n\r\n    //Prepare cards\r\n\r\n     function generateMap(uint[2] card, RoleTypes role) internal {\r\n        \r\n        roleOf[cardToNumber(card)] = uint(role);\r\n    \r\n    }\r\n\r\n    function quickGenerateMap(\r\n        uint[2] card, \r\n        RoleTypes role\r\n    ) \r\n        public\r\n        pure\r\n        returns(\r\n            uint cardNum,\r\n            uint roleNum\r\n        )\r\n    {\r\n        return(\r\n            uint(keccak256(card)),\r\n            uint(role)\r\n            );\r\n    }\r\n\r\n    function prepareDeck(uint i) internal {\r\n        \r\n        MPC[ i ] = (i+123) % q;\r\n        //avoid use 0. function toZ1 revert at point at infinity\r\n    \r\n    }\r\n\r\n    function quickPrepareDeck(uint i) public view returns(uint outMPC){\r\n        \r\n        outMPC = (i+123) % q;\r\n        //avoid use 0. b/c function toZ1 revert at point at infinity\r\n        //simulate hash function\r\n        //apply MPC in the future\r\n    \r\n    }\r\n    \r\n    \r\n    //\r\n\r\n    function helpDecryptRole() internal {\r\n        for(uint i=1; i<=n; i++){\r\n        \tuint[2] storage hand = players[i].hand;\r\n        \thand[0] ++;\r\n        } \r\n    }\r\n\r\n    function helpDecryptRole(uint me, uint pokerKey, uint i, uint[2] cipherCard) external view returns (uint[2] decryptCard){\r\n        if(me == i){\r\n            (decryptCard[0], decryptCard[1]) = (cipherCard[0], cipherCard[1]);\r\n        }else{\r\n            uint keyInverse = ECCMath_noconflict.invmod(pokerKey, q);\r\n            (decryptCard[0],decryptCard[1]) = multiply(keyInverse, cipherCard);\r\n        }\r\n       \r\n    }\r\n\r\n    function recoverRole(uint me, uint pokerKey, uint[2] cipherCard) external view returns (uint[2] decryptCard){\r\n            uint keyInverse = ECCMath_noconflict.invmod(pokerKey, q);\r\n            (decryptCard[0],decryptCard[1]) = multiply(keyInverse, cipherCard);\r\n       \r\n    }\r\n\r\n\r\n    //\r\n    \r\n    function killed(address player) internal{\r\n        uint i = playerNumOf[player];\r\n        players[i].live=false;\r\n        uint j= theLivingNumOf[player];\r\n        \r\n        for(uint k=j; k<= livingPlayers.length-2 ; k++){\r\n            livingPlayers[k] = livingPlayers[k+1];\r\n            theLivingNumOf[livingPlayers[k]]--;\r\n        }\r\n        livingPlayers.length--;\r\n        theLivingNumOf[player]=0;\r\n    }\r\n\r\n    function verifyRole(RoleTypes _role, uint _pokerKey) pure internal returns(bool){\r\n        \r\n        return (_role!=RoleTypes.Unseen && _pokerKey==456);\r\n    \r\n    }\r\n    \r\n    /*\r\n    //TODO\r\n    function verifyRole(\r\n        uint[2] handFace, \r\n        uint pokerKey, \r\n        uint[2] handBack\r\n    )\r\n        public\r\n        view\r\n        returns(bool)\r\n    {\r\n        uint[2] memory claimHand;\r\n        (claimHand[0],claimHand[1]) = multiply(pokerKey,handFace);\r\n\r\n        return (handBack[0] == claimHand[0]) && (handBack[1] == claimHand[1]);\r\n    }\r\n    */\r\n    /*\r\n    function updateStates(\r\n    \tbool[] currentLives,\r\n        uint[2][] currentHands,\r\n        uint[] currentRoles,\r\n        uint[] currentPokerKeys,\r\n        \r\n        uint[] currentCardNumbers,\r\n        \r\n        uint currentRoom,\r\n        uint currentDay,\r\n        GameIs currentPhase,\r\n        \r\n        uint[] currentDeposits\r\n    )\r\n    \tpublic\r\n    {\r\n    \t//other check, e,g, total deposits\r\n    \trequire(verifyStateMessage()==True);\r\n    \tupdatePlayers(lives, hands, roles, pokerKeys);\r\n    \tupdateRoleOfList(roleCards);\r\n    \tupdateGameClock(currentPhase, currentDay);\r\n    \tupdateDeposits(currentDeposits);\r\n    }\r\n    */\r\n    \r\n    function updatePlayers(\r\n    \t//address[] names,\r\n        bool[] lives,\r\n        uint[2][] hands,\r\n        uint[] roles,\r\n        uint[] pokerKeys\r\n    ) \r\n    \tinternal \r\n    {\r\n    \tfor(uint i=1;i<=n;i++){\r\n    \t\tplayers[i].live = lives[i];\r\n    \t\t(players[i].hand[0], players[i].hand[1])= (hands[i][0],hands[i][1]);\r\n    \t\tplayers[i].role = RoleTypes(roles[i]);\r\n    \t\tplayers[i].pokerKey = pokerKeys[i];\r\n    \t}\r\n    }\r\n\t\r\n    function updateRoleOfList(\r\n\t\tuint[] currentCardNumbers\r\n    ) \r\n    \tinternal \r\n    {\r\n    roleOf[currentCardNumbers[0]] = uint(RoleTypes.Unseen);\r\n    roleOf[currentCardNumbers[1]] = uint(RoleTypes.Werewolf);\r\n    roleOf[currentCardNumbers[2]] = uint(RoleTypes.Werewolf);\r\n    roleOf[currentCardNumbers[3]] = uint(RoleTypes.Seer);\r\n        for (uint j = 4; j <= n; j++) {\r\n           roleOf[currentCardNumbers[j]] = uint(RoleTypes.Villager);\r\n        }\r\n    }\r\n\r\n    function updateGameClock(\r\n    \tuint currentRoom,\r\n    \tuint currentDay, \r\n\t\tGameIs currentPhase \r\n    ) \r\n    \tinternal \r\n    {\r\n    \tgameClock.room = currentRoom;\r\n    \tgameClock.day = currentDay;\r\n    \tgameClock.phase = currentPhase;\r\n    }\r\n\r\n    function updateDeposits(\r\n\t\tuint[] currentDeposits\r\n    ) \r\n    \tinternal \r\n    {\r\n    \tfor(uint i=1;i<=n;i++){\r\n    \t\taddress p = players[i].name;\r\n    \t\tdeposits[p] = currentDeposits[i];\r\n    \t}\r\n    }\r\n\r\n    function quickHashStates(\r\n    \tbool[] currentLives,\r\n        uint[2][] currentHands,\r\n        uint[] currentRoles,\r\n        uint[] currentPokerKeys,\r\n\r\n        uint[] currentCardNumbers,\r\n        \r\n        uint currentRoom,\r\n        uint currentDay,\r\n        GameIs currentPhase,\r\n        \r\n        uint[] currentDeposits\r\n    )\r\n    \tpublic \r\n    \tview \r\n    \treturns(uint statesHash)\r\n    {\r\n    \tstatesHash = uint(\r\n    \t\tkeccak256(\r\n\t    \t\tcurrentLives,\r\n\t        \tcurrentHands,\r\n\t        \tcurrentRoles,\r\n\t        \tcurrentPokerKeys,\r\n\t        \tcurrentCardNumbers,\r\n\t        \tcurrentRoom,\r\n\t        \tcurrentDay,\r\n\t        \tcurrentPhase,\r\n\t        \tcurrentDeposits\r\n        \t)\r\n        );\r\n    }\r\n\r\n    function verifyStatesHash(\r\n    \tbool[] currentLives,\r\n        uint[2][] currentHands,\r\n        uint[] currentRoles,\r\n        uint[] currentPokerKeys,\r\n\r\n        uint[] currentCardNumbers,\r\n        \r\n        uint currentRoom,\r\n        uint currentDay,\r\n        GameIs currentPhase,\r\n        \r\n        uint[] currentDeposits,\r\n\r\n        uint statesHash\r\n    )\r\n    \tinternal \r\n    \tview\r\n    \treturns(bool result)\r\n    {\r\n    \tuint verifierHash = quickHashStates(\r\n    \t\tcurrentLives,\r\n        \tcurrentHands,\r\n        \tcurrentRoles,\r\n        \tcurrentPokerKeys,\r\n        \tcurrentCardNumbers,\r\n        \tcurrentRoom,\r\n        \tcurrentDay,\r\n        \tcurrentPhase,\r\n        \tcurrentDeposits\r\n        );\r\n        return (statesHash == verifierHash);\r\n    }\r\n\r\n   /* XXXXX function signStates(\r\n    \tbool[] currentLives,\r\n        uint[2][] currentHands,\r\n        uint[] currentRoles,\r\n        uint[] currentPokerKeys,\r\n\r\n        uint[] currentCardNumbers,\r\n        \r\n        uint currentRoom,\r\n        uint currentDay,\r\n        GameIs currentPhase,\r\n        \r\n        uint[] currentDeposits\r\n    )\r\n    \tpublic \r\n    \tview \r\n    \treturns(bytes32 hashStates, uint8 v, bytes32 r, bytes32 s)\r\n    {\r\n    \treturn \r\n    }\r\n*/\r\n    function verifyStateMessage(bytes stateMessage){\r\n    }\r\n    \r\n    \r\n    enum RoleTypes{Unseen, Werewolf, Seer, Villager}\r\n    \r\n    enum GameIs {SetUpOnChain, PrepareDeposits, InitPlayers, AssignRoles, Night, Day}\r\n    \r\n    struct Player{\r\n        address name;\r\n        bool live;\r\n        uint[2] hand;\r\n        RoleTypes role;\r\n        uint pokerKey;\r\n    }\r\n\r\n\r\n    struct KillConditions{\r\n        uint iAmWerewolf;\r\n        uint iAmLive;\r\n        uint victimLive;\r\n    }\r\n   \r\n    struct Time{\r\n        uint room;\r\n        uint day;\r\n        GameIs phase;\r\n        //PlayersAre playerEvent;\r\n\t}\r\n    event debug(uint i);\r\n    \r\n    event JoinPlayer(\r\n        uint indexed outPlayerNum,\r\n        address outPlayerName,\r\n        bool outPlayerLive,\r\n        uint[2] outPlayerHand,\r\n        RoleTypes outPlayerRole,\r\n        uint outPlayerKey\r\n    );\r\n\r\n    event Deposit(\r\n        address indexed outPlayerName,\r\n        uint outValue\r\n    );\r\n\r\n    event PlayerReady(uint numPlayers);\r\n    \r\n    event RegLivingPlayer(uint indexed livingPlayerNum, address livingPlayerName);\r\n    \r\n    event RegLivingRole(uint[4] outLiving);\r\n}",
  "sourcePath": "C:\\Users\\eason\\Documents\\GitHub\\SmartWerewolf\\contracts\\SmartWerewolf.sol",
  "compiler": {
    "name": "solc",
    "version": "0.4.23+commit.124ca40d.Emscripten.clang"
  },
  "schemaVersion": "2.0.0",
  "updatedAt": "2018-06-12T03:29:33.285Z"
}