{
  "contractName": "SmartWerewolf",
  "abi": [
    {
      "constant": true,
      "inputs": [],
      "name": "n",
      "outputs": [
        {
          "name": "",
          "type": "uint256"
        }
      ],
      "payable": false,
      "stateMutability": "view",
      "type": "function"
    },
    {
      "constant": true,
      "inputs": [
        {
          "name": "",
          "type": "address"
        }
      ],
      "name": "playerNumOf",
      "outputs": [
        {
          "name": "",
          "type": "uint256"
        }
      ],
      "payable": false,
      "stateMutability": "view",
      "type": "function"
    },
    {
      "constant": true,
      "inputs": [
        {
          "name": "",
          "type": "address"
        }
      ],
      "name": "theLivingNumOf",
      "outputs": [
        {
          "name": "",
          "type": "uint256"
        }
      ],
      "payable": false,
      "stateMutability": "view",
      "type": "function"
    },
    {
      "constant": true,
      "inputs": [
        {
          "name": "",
          "type": "bytes32"
        }
      ],
      "name": "roleOf",
      "outputs": [
        {
          "name": "",
          "type": "uint256"
        }
      ],
      "payable": false,
      "stateMutability": "view",
      "type": "function"
    },
    {
      "constant": true,
      "inputs": [
        {
          "name": "",
          "type": "uint256"
        },
        {
          "name": "",
          "type": "uint256"
        }
      ],
      "name": "deck",
      "outputs": [
        {
          "name": "",
          "type": "uint256"
        }
      ],
      "payable": false,
      "stateMutability": "view",
      "type": "function"
    },
    {
      "constant": true,
      "inputs": [
        {
          "name": "",
          "type": "uint256"
        }
      ],
      "name": "livingPlayers",
      "outputs": [
        {
          "name": "",
          "type": "address"
        }
      ],
      "payable": false,
      "stateMutability": "view",
      "type": "function"
    },
    {
      "constant": true,
      "inputs": [],
      "name": "winner",
      "outputs": [
        {
          "name": "",
          "type": "string"
        }
      ],
      "payable": false,
      "stateMutability": "view",
      "type": "function"
    },
    {
      "constant": true,
      "inputs": [
        {
          "name": "",
          "type": "uint256"
        }
      ],
      "name": "living",
      "outputs": [
        {
          "name": "",
          "type": "uint256"
        }
      ],
      "payable": false,
      "stateMutability": "view",
      "type": "function"
    },
    {
      "constant": true,
      "inputs": [
        {
          "name": "",
          "type": "uint256"
        }
      ],
      "name": "players",
      "outputs": [
        {
          "name": "name",
          "type": "address"
        },
        {
          "name": "live",
          "type": "bool"
        },
        {
          "name": "role",
          "type": "uint8"
        },
        {
          "name": "pokerKey",
          "type": "uint256"
        }
      ],
      "payable": false,
      "stateMutability": "view",
      "type": "function"
    },
    {
      "constant": true,
      "inputs": [
        {
          "name": "",
          "type": "address"
        }
      ],
      "name": "deposits",
      "outputs": [
        {
          "name": "",
          "type": "uint256"
        }
      ],
      "payable": false,
      "stateMutability": "view",
      "type": "function"
    },
    {
      "constant": true,
      "inputs": [],
      "name": "q",
      "outputs": [
        {
          "name": "",
          "type": "uint256"
        }
      ],
      "payable": false,
      "stateMutability": "view",
      "type": "function"
    },
    {
      "inputs": [
        {
          "name": "addressPoK",
          "type": "address"
        }
      ],
      "payable": false,
      "stateMutability": "nonpayable",
      "type": "constructor"
    },
    {
      "anonymous": false,
      "inputs": [
        {
          "indexed": false,
          "name": "livingPlayerNum",
          "type": "uint256"
        },
        {
          "indexed": false,
          "name": "livingPlayerName",
          "type": "address"
        }
      ],
      "name": "RegLivingPlayer",
      "type": "event"
    },
    {
      "anonymous": false,
      "inputs": [
        {
          "indexed": false,
          "name": "outLiving",
          "type": "uint256[4]"
        }
      ],
      "name": "RegLivingRole",
      "type": "event"
    },
    {
      "anonymous": false,
      "inputs": [
        {
          "indexed": false,
          "name": "i",
          "type": "uint256"
        }
      ],
      "name": "debug",
      "type": "event"
    },
    {
      "anonymous": false,
      "inputs": [
        {
          "indexed": true,
          "name": "outPlayerNum",
          "type": "uint256"
        },
        {
          "indexed": false,
          "name": "outPlayerName",
          "type": "address"
        },
        {
          "indexed": false,
          "name": "outPlayerLive",
          "type": "bool"
        },
        {
          "indexed": false,
          "name": "outPlayerHand",
          "type": "uint256[2]"
        },
        {
          "indexed": false,
          "name": "outPlayerRole",
          "type": "uint8"
        },
        {
          "indexed": false,
          "name": "outPlayerKey",
          "type": "uint256"
        }
      ],
      "name": "JoinPlayer",
      "type": "event"
    },
    {
      "anonymous": false,
      "inputs": [
        {
          "indexed": true,
          "name": "outPlayerName",
          "type": "address"
        },
        {
          "indexed": false,
          "name": "outValue",
          "type": "uint256"
        }
      ],
      "name": "Deposit",
      "type": "event"
    },
    {
      "anonymous": false,
      "inputs": [
        {
          "indexed": false,
          "name": "numPlayers",
          "type": "uint256"
        }
      ],
      "name": "PlayerReady",
      "type": "event"
    },
    {
      "constant": false,
      "inputs": [
        {
          "name": "_players",
          "type": "address[]"
        }
      ],
      "name": "engagement",
      "outputs": [],
      "payable": false,
      "stateMutability": "nonpayable",
      "type": "function"
    },
    {
      "constant": false,
      "inputs": [],
      "name": "quickDepositGame",
      "outputs": [],
      "payable": true,
      "stateMutability": "payable",
      "type": "function"
    },
    {
      "constant": false,
      "inputs": [
        {
          "name": "inPlayerNames",
          "type": "address[]"
        }
      ],
      "name": "quickEngagePlayers",
      "outputs": [],
      "payable": false,
      "stateMutability": "nonpayable",
      "type": "function"
    },
    {
      "constant": true,
      "inputs": [
        {
          "name": "",
          "type": "address"
        }
      ],
      "name": "regTheLiving",
      "outputs": [
        {
          "name": "livingPlayerNum",
          "type": "uint256"
        },
        {
          "name": "livingPlayerName",
          "type": "address"
        }
      ],
      "payable": false,
      "stateMutability": "view",
      "type": "function"
    },
    {
      "constant": false,
      "inputs": [],
      "name": "createCards",
      "outputs": [],
      "payable": false,
      "stateMutability": "nonpayable",
      "type": "function"
    },
    {
      "constant": false,
      "inputs": [
        {
          "name": "i",
          "type": "uint256"
        },
        {
          "name": "pokerKey",
          "type": "uint256"
        }
      ],
      "name": "shuffleCardBy",
      "outputs": [],
      "payable": false,
      "stateMutability": "nonpayable",
      "type": "function"
    },
    {
      "constant": false,
      "inputs": [],
      "name": "shuffleCards",
      "outputs": [],
      "payable": false,
      "stateMutability": "nonpayable",
      "type": "function"
    },
    {
      "constant": false,
      "inputs": [],
      "name": "dealCards",
      "outputs": [],
      "payable": false,
      "stateMutability": "nonpayable",
      "type": "function"
    },
    {
      "constant": true,
      "inputs": [
        {
          "name": "i",
          "type": "uint256"
        }
      ],
      "name": "dealCardTo",
      "outputs": [
        {
          "name": "hand",
          "type": "uint256[2]"
        }
      ],
      "payable": false,
      "stateMutability": "view",
      "type": "function"
    },
    {
      "constant": false,
      "inputs": [
        {
          "name": "victimName",
          "type": "address"
        },
        {
          "name": "proofCanKill",
          "type": "uint256"
        }
      ],
      "name": "nightKill",
      "outputs": [],
      "payable": false,
      "stateMutability": "nonpayable",
      "type": "function"
    },
    {
      "constant": false,
      "inputs": [
        {
          "name": "name",
          "type": "address"
        }
      ],
      "name": "dayVoting",
      "outputs": [],
      "payable": false,
      "stateMutability": "nonpayable",
      "type": "function"
    },
    {
      "constant": false,
      "inputs": [
        {
          "name": "_role",
          "type": "uint8"
        },
        {
          "name": "_pokerKey",
          "type": "uint256"
        }
      ],
      "name": "openRole",
      "outputs": [],
      "payable": false,
      "stateMutability": "nonpayable",
      "type": "function"
    },
    {
      "constant": true,
      "inputs": [
        {
          "name": "card",
          "type": "uint256[2]"
        }
      ],
      "name": "checkRoleOf",
      "outputs": [
        {
          "name": "",
          "type": "uint256"
        }
      ],
      "payable": false,
      "stateMutability": "view",
      "type": "function"
    },
    {
      "constant": true,
      "inputs": [],
      "name": "cardOrder",
      "outputs": [
        {
          "name": "",
          "type": "uint256"
        }
      ],
      "payable": false,
      "stateMutability": "pure",
      "type": "function"
    },
    {
      "constant": true,
      "inputs": [
        {
          "name": "name",
          "type": "address"
        }
      ],
      "name": "getHandOf",
      "outputs": [
        {
          "name": "hand",
          "type": "uint256[2]"
        }
      ],
      "payable": false,
      "stateMutability": "view",
      "type": "function"
    },
    {
      "constant": true,
      "inputs": [],
      "name": "numSurvive",
      "outputs": [
        {
          "name": "",
          "type": "uint256"
        }
      ],
      "payable": false,
      "stateMutability": "view",
      "type": "function"
    },
    {
      "constant": true,
      "inputs": [
        {
          "name": "framedHand",
          "type": "uint256[2]"
        },
        {
          "name": "_werewolfCard",
          "type": "uint256[2]"
        },
        {
          "name": "victim",
          "type": "uint256"
        }
      ],
      "name": "werewolfFrameKilling",
      "outputs": [
        {
          "name": "__werewolfCard",
          "type": "uint256[2]"
        },
        {
          "name": "_framedHand",
          "type": "uint256[2]"
        },
        {
          "name": "_victim",
          "type": "uint256"
        },
        {
          "name": "T",
          "type": "uint256[3]"
        },
        {
          "name": "c",
          "type": "uint256"
        },
        {
          "name": "s",
          "type": "uint256"
        }
      ],
      "payable": false,
      "stateMutability": "view",
      "type": "function"
    },
    {
      "constant": true,
      "inputs": [],
      "name": "werewolfCard",
      "outputs": [
        {
          "name": "cardX",
          "type": "uint256"
        },
        {
          "name": "cardY",
          "type": "uint256"
        }
      ],
      "payable": false,
      "stateMutability": "view",
      "type": "function"
    },
    {
      "constant": true,
      "inputs": [
        {
          "name": "pokerKey",
          "type": "uint256"
        },
        {
          "name": "hands",
          "type": "uint256[2][]"
        },
        {
          "name": "_werewolfCard",
          "type": "uint256[2]"
        },
        {
          "name": "victim",
          "type": "uint256"
        }
      ],
      "name": "werewolfChooset",
      "outputs": [
        {
          "name": "realt",
          "type": "uint256"
        }
      ],
      "payable": false,
      "stateMutability": "view",
      "type": "function"
    },
    {
      "constant": true,
      "inputs": [
        {
          "name": "realt",
          "type": "uint256"
        },
        {
          "name": "_werewolfCard",
          "type": "uint256[2]"
        }
      ],
      "name": "werewolfComputeT",
      "outputs": [
        {
          "name": "realT",
          "type": "uint256[3]"
        }
      ],
      "payable": false,
      "stateMutability": "view",
      "type": "function"
    },
    {
      "constant": true,
      "inputs": [
        {
          "name": "_werewolfCard",
          "type": "uint256[2]"
        },
        {
          "name": "_hands",
          "type": "uint256[2][]"
        },
        {
          "name": "victim",
          "type": "uint256"
        },
        {
          "name": "Ts",
          "type": "uint256[3][]"
        }
      ],
      "name": "computeChallenge",
      "outputs": [
        {
          "name": "realChallenge",
          "type": "uint256"
        }
      ],
      "payable": false,
      "stateMutability": "view",
      "type": "function"
    },
    {
      "constant": true,
      "inputs": [
        {
          "name": "pokerKey",
          "type": "uint256"
        },
        {
          "name": "_werewolfCard",
          "type": "uint256[2]"
        },
        {
          "name": "hand",
          "type": "uint256[2]"
        },
        {
          "name": "victim",
          "type": "uint256"
        },
        {
          "name": "tReady",
          "type": "uint256"
        },
        {
          "name": "cReady",
          "type": "uint256"
        }
      ],
      "name": "werewolfProve",
      "outputs": [
        {
          "name": "__werewolfCard",
          "type": "uint256[2]"
        },
        {
          "name": "_hand",
          "type": "uint256[2]"
        },
        {
          "name": "_victim",
          "type": "uint256"
        },
        {
          "name": "T",
          "type": "uint256[3]"
        },
        {
          "name": "c",
          "type": "uint256"
        },
        {
          "name": "s",
          "type": "uint256"
        }
      ],
      "payable": false,
      "stateMutability": "view",
      "type": "function"
    },
    {
      "constant": true,
      "inputs": [
        {
          "name": "_werewolfCard",
          "type": "uint256[2]"
        },
        {
          "name": "hand",
          "type": "uint256[2]"
        },
        {
          "name": "T",
          "type": "uint256[3]"
        },
        {
          "name": "c",
          "type": "uint256"
        },
        {
          "name": "s",
          "type": "uint256"
        }
      ],
      "name": "verifyWerewolfProof",
      "outputs": [
        {
          "name": "result",
          "type": "bool"
        }
      ],
      "payable": false,
      "stateMutability": "view",
      "type": "function"
    },
    {
      "constant": true,
      "inputs": [
        {
          "name": "me",
          "type": "uint256"
        },
        {
          "name": "pokerKey",
          "type": "uint256"
        },
        {
          "name": "i",
          "type": "uint256"
        },
        {
          "name": "cipherCard",
          "type": "uint256[2]"
        }
      ],
      "name": "helpDecryptRole",
      "outputs": [
        {
          "name": "decryptCard",
          "type": "uint256[2]"
        }
      ],
      "payable": false,
      "stateMutability": "view",
      "type": "function"
    },
    {
      "constant": true,
      "inputs": [
        {
          "name": "me",
          "type": "uint256"
        },
        {
          "name": "pokerKey",
          "type": "uint256"
        },
        {
          "name": "cipherCard",
          "type": "uint256[2]"
        }
      ],
      "name": "recoverRole",
      "outputs": [
        {
          "name": "decryptCard",
          "type": "uint256[2]"
        }
      ],
      "payable": false,
      "stateMutability": "view",
      "type": "function"
    },
    {
      "constant": true,
      "inputs": [
        {
          "name": "s",
          "type": "uint256"
        },
        {
          "name": "point",
          "type": "uint256[2]"
        }
      ],
      "name": "multiply",
      "outputs": [
        {
          "name": "",
          "type": "uint256"
        },
        {
          "name": "",
          "type": "uint256"
        }
      ],
      "payable": false,
      "stateMutability": "view",
      "type": "function"
    }
  ],
  "bytecode": "0x6060604052341561000f57600080fd5b60405160208061384c8339810160405280805160008054600160a060020a031916600160a060020a0383161781559092507f79be667ef9dcbbac55a06295ce870b07029bfcdb2dce28d959f2815b16f81798915060059001557f483ada7726a3c4655da4fbfc0e1108a8fd17b448a68554199c47d08ffb10d4b8600560010155506137ad8061009f6000396000f3006060604052600436106101b35763ffffffff60e060020a600035041663076d968081146101b857806307f7470b146102095780630cbee0e3146102b457806314a9a121146103c35780632e52d6061461041b578063313ffac1146104405780633e5a438d14610467578063474ab93c146104e05780634ef3ea74146104f957806352f9aaea1461051857806354054cd51461056f578063568bd63e1461058e57806358801f17146105a15780635c56e508146105b45780636e6ac9c6146105c75780638c785f88146105dd57806398226cb7146105f05780639a01967814610630578063a15352d514610652578063a4f195aa1461065a578063ab27783314610676578063acb2c01a14610694578063ad3b99a4146106a7578063b77d1268146106f6578063c0cb6b241461081e578063c52e3e4a14610878578063d34544cd1461088e578063d5b1de7e146108a7578063d6ffa29a146108e3578063d9e0bf4e146108f6578063dfbf53ae14610928578063eb288081146109b2578063eb47688c146109c8578063f6ac71cd146109e3578063f71d96cb14610a02578063fc7e286d14610a5c578063fd3ab28214610a7b575b600080fd5b34156101c357600080fd5b6102076004602481358181019083013580602081810201604051908101604052809392919081815260200183836020028082843750949650610a8e95505050505050565b005b341561021457600080fd5b6102a0600460448160026040805190810160405280929190826002602002808284378201915050505050919080604001906002806020026040519081016040528092919082600260200280828437820191505050505091908060600190600380602002604051908101604052919082826060808284375093955050833593602001359250610d14915050565b604051901515815260200160405180910390f35b34156102bf57600080fd5b61031e600460448160026040805190810160405280929190826002602002808284378201915050505050919080604001906002806020026040519081016040528092919082600260200280828437509395505092359250610e0b915050565b6040518087604080838360005b8381101561034357808201518382015260200161032b565b5050505090500186600260200280838360005b8381101561036e578082015183820152602001610356565b5050505090500185815260200184600360200280838360005b8381101561039f578082015183820152602001610387565b50505050905001838152602001828152602001965050505050505060405180910390f35b34156103ce57600080fd5b610403600480359060646024600260408051908101604052809291908260026020028082843750939550610f15945050505050565b60405191825260208201526040908101905180910390f35b341561042657600080fd5b61042e610f4f565b60405190815260200160405180910390f35b341561044b57600080fd5b61042e6004803590602480359081019101356044608435610f55565b341561047257600080fd5b61031e60048035906064602460026040805190810160405280929190826002602002808284378201915050505050919080604001906002806020026040519081016040528092919082600260200280828437509395505083359360208101359350604001359150610fdb9050565b34156104eb57600080fd5b610207600435602435611102565b341561050457600080fd5b61042e600160a060020a03600435166111c3565b341561052357600080fd5b610537600160a060020a03600435166111d5565b6040518082604080838360005b8381101561055c578082015183820152602001610544565b5050505090500191505060405180910390f35b341561057a57600080fd5b61042e600160a060020a0360043516611248565b341561059957600080fd5b61040361125a565b34156105ac57600080fd5b6102076112ab565b34156105bf57600080fd5b61020761146a565b34156105d257600080fd5b61042e6004356116fa565b34156105e857600080fd5b61042e61170c565b34156105fb57600080fd5b61060f600160a060020a0360043516611723565b604051918252600160a060020a031660208201526040908101905180910390f35b341561063b57600080fd5b610207600160a060020a036004351660243561172b565b61020761182e565b341561066557600080fd5b61020760ff60043516602435611880565b341561068157600080fd5b61053760043560243560443560646119ef565b341561069f57600080fd5b61042e611a6d565b34156106b257600080fd5b6102076004602481358181019083013580602081810201604051908101604052809392919081815260200183836020028082843750949650611a7795505050505050565b341561070157600080fd5b61042e600460448160026040805190810160405280929190826002602002808284375093959460208082019550903586018082019450359250829150818102016040519081016040528181529291906000602085015b82821015610796576040808302860190600290805190810160405280929190826002602002808284375050509183525050600190910190602001610757565b505050505091908035906020019091908035906020019082018035906020019080806020026020016040519081016040528181529291906000602085015b828210156108105760608083028601906003906040519081016040529190828260608082843750505091835250506001909101906020016107d4565b505050505091905050611ee2565b341561082957600080fd5b61085e60048035906064602460026040805190810160405280929190826002602002808284375093955061203c945050505050565b604051808260608083836000815183820152602001610544565b341561088357600080fd5b6105376004356120da565b341561089957600080fd5b61042e600435602435612130565b34156108b257600080fd5b61042e6004604481600260408051908101604052809291908260026020028082843750939550612162945050505050565b34156108ee57600080fd5b6102076121b8565b341561090157600080fd5b61090c600435612268565b604051600160a060020a03909116815260200160405180910390f35b341561093357600080fd5b61093b612290565b60405160208082528190810183818151815260200191508051906020019080838360005b8381101561097757808201518382015260200161095f565b50505050905090810190601f1680156109a45780820380516001836020036101000a031916815260200191505b509250505060405180910390f35b34156109bd57600080fd5b61042e60043561232e565b34156109d357600080fd5b6105376004356024356044612342565b34156109ee57600080fd5b610207600160a060020a03600435166123a3565b3415610a0d57600080fd5b610a186004356123ac565b604051600160a060020a0385168152831515602082015260408101836003811115610a3f57fe5b60ff16815260200182815260200194505050505060405180910390f35b3415610a6757600080fd5b61042e600160a060020a03600435166123f6565b3415610a8657600080fd5b61042e612408565b6000600682511015610a9f57600080fd5b81516004819055600190810190610ab690826134e2565b50600190505b6004548111610c305760a060405190810160405280836001840381518110610ae057fe5b90602001906020020151600160a060020a031681526020016001151581526020016040805190810160405260008082526020808301829052918352910190815260006020909101526001805483908110610b3657fe5b90600052602060002090600502016000820151815473ffffffffffffffffffffffffffffffffffffffff1916600160a060020a03919091161781556020820151815490151560a060020a0274ff0000000000000000000000000000000000000000199091161781556040820151610bb3906001830190600261350e565b5060608201518160030160006101000a81548160ff02191690836003811115610bd857fe5b0217905550608082015181600401559050508060076000600184815481101515610bfe57fe5b60009182526020808320600590920290910154600160a060020a03168352820192909252604001902055600101610abc565b6002600b556001600c8190556004546002198101600d5501610c53600e8261354c565b50600190505b6004548111610d10576001805482908110610c7057fe5b6000918252602090912060059091020154600e8054600160a060020a039092169183908110610c9b57fe5b906000526020600020900160006101000a815481600160a060020a030219169083600160a060020a0316021790555080600f6000600184815481101515610cde57fe5b60009182526020808320600590920290910154600160a060020a03168352820192909252604001902055600101610c59565b5050565b60008054600160a060020a0316632b0c1aba878787878760405160e060020a63ffffffff88160281526004018086604080838360005b83811015610d62578082015183820152602001610d4a565b5050505090500185600260200280838360005b83811015610d8d578082015183820152602001610d75565b5050505090500184600360200280838360005b83811015610db8578082015183820152602001610da0565b5050505090500183815260200182815260200195505050505050602060405180830381600087803b1515610deb57600080fd5b5af11515610df857600080fd5b5050506040518051979650505050505050565b610e13613570565b610e1b613570565b6000610e25613596565b600080548190600160a060020a031663a2cf9308898b8a60405160e060020a63ffffffff86160281526004018084604080838360005b83811015610e73578082015183820152602001610e5b565b5050505090500183600260200280838360005b83811015610e9e578082015183820152602001610e86565b50505050905001828152602001935050505061014060405180830381600087803b1515610eca57600080fd5b5af11515610ed757600080fd5b50505060405180604001806040018051906020018060600180519060200180516020909101604052949e939d50919b50995097509095509350505050565b600080610f20613596565b610f2a858561241e565b9050610f3c816401000003d01961284a565b8051602082015192509250509250929050565b60045481565b60008054600160a060020a031663b73318658487878a8760405160e060020a63ffffffff88160281526004018086604080828437820191505080602001848152602001838152602001828103825286868281815260200192506040028082843782019150509650505050505050602060405180830381600087803b1515610deb57600080fd5b610fe3613570565b610feb613570565b6000610ff5613596565b600080548190600160a060020a031663d4540ff78d8d8d8d8d8d60405160e060020a63ffffffff8916028152600481018781529060240186604080838360005b8381101561104d578082015183820152602001611035565b5050505090500185600260200280838360005b83811015611078578082015183820152602001611060565b50505050905001848152602001838152602001828152602001965050505050505061014060405180830381600087803b15156110b357600080fd5b5af115156110c057600080fd5b50505060405180604001806040018051906020018060600180519060200180519060200160405295509550955095509550955096509650965096509650969050565b8060005b60045481116111bd576111698260038381548110151561112257fe5b90600052602060002090600202016002806020026040519081016040529190828260026020028201915b81548152602001906001019080831161114c575050505050610f15565b600380548490811061117757fe5b6000918252602082206002909102019001600060038581548110151561119957fe5b60009182526020909120600290910201600101929092559190915550600101611106565b50505050565b60076020526000908152604090205481565b6111dd613570565b600160a060020a038216600090815260076020526040902054600180548290811061120457fe5b600091825260208220600160059092020101900154600180548390811061122757fe5b60009182526020918290206002600590920201015490840152825250919050565b600f6020526000908152604090205481565b6000806003600181548110151561126d57fe5b60009182526020822060029091020190015460038054600190811061128e57fe5b600091825260209091206002909102016001015490939092509050565b6000806112b6613570565b6177179250600091505b6004548211611333576112dc8360038481548110151561112257fe5b60038054859081106112ea57fe5b6000918252602082206002909102019001600060038681548110151561130c57fe5b600091825260209091206002909102016001019290925591909155506001909101906112c0565b60038054600290811061134257fe5b60009182526020822060029091020190015460038054600290811061136357fe5b60009182526020918290206001600290920201015490830152815260038054600590811061138d57fe5b6000918252602082206002909102019001546003805460059081106113ae57fe5b60009182526020909120600290910201600101546003805460029081106113d157fe5b60009182526020822060029091020190016000600360028154811015156113f457fe5b600091825260209091206001600290920201019290925591909155508051602082015160038054600590811061142657fe5b600091825260208220600290910201900160006003600581548110151561144957fe5b60009182526020909120600290910201600101929092559190915550505050565b60008060045460010160038161148091906135b0565b61148b60028261354c565b50600091505b60045482116114ae576114a3826128b2565b600190910190611491565b600091505b60045482116115645761150d6002838154811015156114ce57fe5b6000918252602090912001546005600260408051908101604090815283548252909291908301600183016020850180831161114c575050505050610f15565b600380548590811061151b57fe5b6000918252602082206002909102019001600060038681548110151561153d57fe5b600091825260209091206002909102016001019290925591909155506001909101906114b3565b6115c06003600081548110151561157757fe5b90600052602060002090600202016002806020026040519081016040529190828260026020028201915b8154815260200190600101908083116115a157505050505060006128e8565b61161c600360018154811015156115d357fe5b90600052602060002090600202016002806020026040519081016040529190828260026020028201915b8154815260200190600101908083116115fd57505050505060016128e8565b61162f600360028154811015156115d357fe5b61168a60038081548110151561164157fe5b90600052602060002090600202016002806020026040519081016040529190828260026020028201915b81548152602001906001019080831161166b57505050505060026128e8565b5060045b6004548111610d10576116f26003828154811015156116a957fe5b90600052602060002090600202016002806020026040519081016040529190828260026020028201915b8154815260200190600101908083116116d357505050505060036128e8565b60010161168e565b60086020526000908152604090205481565b70014551231950b75fc4402da1732fc9bebe195b90565b600080915091565b60006117356135dc565b600160a060020a03841660009081526007602052604090205460018054919350908390811061176057fe5b906000526020600020906005020160a060405190810160409081528254600160a060020a038116835260a060020a900460ff161515602083015290919080830190600183019060029080519081016040529190828260026020028201915b8154815260200190600101908083116117be57505050918352505060038281015460209092019160ff16908111156117f257fe5b60038111156117fd57fe5b815260200160048201548152505090506118178382612946565b151560011461182557600080fd5b6111bd84612965565b600160a060020a0333166000818152600960205260409081902034908190557fe1fffcc4923d04b559f4d29a8bfc6cda04eb5b0d3c460751c2402c5c5cc9109c915190815260200160405180910390a2565b600061188c8383612ad8565b151560011461189a57600080fd5b50600160a060020a03331660009081526007602052604090205460018054849190839081106118c557fe5b906000526020600020906005020160030160006101000a81548160ff021916908360038111156118f157fe5b02179055508160018281548110151561190657fe5b906000526020600020906005020160040181905550600a83600381111561192957fe5b6004811061193357fe5b018054600019019055600d54600c54600b549101141561199a5760408051908101604052600a81527f57657265776f6c7665730000000000000000000000000000000000000000000060208201526010908051611994929160200190613611565b506119ea565b600b5415156119ea5760408051908101604052600681527f48756d616e730000000000000000000000000000000000000000000000000000602082015260109080516111bd929160200190613611565b505050565b6119f7613570565b600083861415611a14576020808401359083015282358252611a64565b611a308570014551231950b75fc4402da1732fc9bebe19612afa565b9050611a5c8184600260408051908101604052809291908260026020028082843750610f159350505050565b602084015282525b50949350505050565b600e546000190190565b600080600683511015611a8957600080fd5b600091505b8251821015611ae257828281518110611aa357fe5b90602001906020020151600160a060020a0381166000908152600960205260409020549091506064901015611ad757600080fd5b600190910190611a8e565b82516004819055600190810190611af990826134e2565b50600191505b6004548211611e285760a060405190810160405280846001850381518110611b2357fe5b90602001906020020151600160a060020a031681526020016001151581526020016040805190810160405260008082526020808301829052918352910190815260006020909101526001805484908110611b7957fe5b90600052602060002090600502016000820151815473ffffffffffffffffffffffffffffffffffffffff1916600160a060020a03919091161781556020820151815490151560a060020a0274ff0000000000000000000000000000000000000000199091161781556040820151611bf6906001830190600261350e565b5060608201518160030160006101000a81548160ff02191690836003811115611c1b57fe5b021790555060808201518160040155905050817f03cf42e4797686930ef09f709f5bb470696c17d58255a88600d589f2090ba601600184815481101515611c5e57fe5b600091825260209091206005909102015460018054600160a060020a039092169186908110611c8957fe5b600091825260209091206005909102015460a060020a900460ff166040805190810160405280600188815481101515611cbe57fe5b6000918252602082206001600590920201019001548152602001600188815481101515611ce757fe5b600091825260209091206002600590920201015490526001805488908110611d0b57fe5b60009182526020909120600360059092020101546001805460ff9092169189908110611d3357fe5b906000526020600020906005020160040154604051600160a060020a03861681528415156020820152604080820190859080838360005b83811015611d82578082015183820152602001611d6a565b50505050905001836003811115611d9557fe5b60ff1681526020018281526020019550505050505060405180910390a27f9dc64552b3ef4f55429327ed20ed329cde6b51b38f1226e773cbcf2c29093e4482600184815481101515611de357fe5b6000918252602090912060059091020154600160a060020a0316604051918252600160a060020a031660208201526040908101905180910390a1600190910190611aff565b7f1f53875f11d5a712b4c4f66780cd6f618f624c4794dcf513a29fddadd299a9d5608060405190810160409081526000825260026020830152600181830152600454600219016060830152518082608080838360005b83811015611e96578082015183820152602001611e7e565b5050505090500191505060405180910390a17f0475fa33e711a0d11030b454020a5f7c806520bdc5d7a1fcb9accde610a00f2460045460405190815260200160405180910390a1505050565b60008054600160a060020a031663b77d12688686868660405160e060020a63ffffffff87160281526004018085604080838360005b83811015611f2f578082015183820152602001611f17565b5050505090500180602001848152602001806020018381038352868181518152602001915080516000925b81841015611f9c57602080850284010151604080838360005b83811015611f8b578082015183820152602001611f73565b505050509050019260010192611f5a565b925050508381038252848181518152602001915080516000925b81841015611ff857602080850284010151606080838360005b83811015611fe7578082015183820152602001611fcf565b505050509050019260010192611fb6565b925050509650505050505050602060405180830381600087803b151561201d57600080fd5b5af1151561202a57600080fd5b50505060405180519695505050505050565b612044613596565b600054600160a060020a03166383242e90848460405160e060020a63ffffffff8516028152600481018381529060240182604080838360005b8381101561209557808201518382015260200161207d565b5050505090500192505050606060405180830381600087803b15156120b957600080fd5b5af115156120c657600080fd5b505050604051606081016040529392505050565b6120e2613570565b60038054839081106120f057fe5b600091825260208220600290910201900154600380548490811061211057fe5b600091825260209182902060016002909202010154908301528152919050565b600380548390811061213e57fe5b90600052602060002090600202018160028110151561215957fe5b01549150829050565b600060086000836040518082604080838360005b8381101561218e578082015183820152602001612176565b50505050905001915050604051908190039020815260208101919091526040016000205492915050565b60015b600454811161225d5760038054829081106121d257fe5b60009182526020822060029091020190015460038054839081106121f257fe5b6000918252602090912060029091020160010154600180548490811061221457fe5b6000918252602082206001600590920201019001600060018581548110151561223957fe5b600091825260209091206002600590920201019290925591909155506001016121bb565b612265612b98565b50565b600e80548290811061227657fe5b600091825260209091200154600160a060020a0316905081565b60108054600181600116156101000203166002900480601f0160208091040260200160405190810160405280929190818152602001828054600181600116156101000203166002900480156123265780601f106122fb57610100808354040283529160200191612326565b820191906000526020600020905b81548152906001019060200180831161230957829003601f168201915b505050505081565b600a816004811061233b57fe5b0154905081565b61234a613570565b60006123688470014551231950b75fc4402da1732fc9bebe19612afa565b90506123948184600260408051908101604052809291908260026020028082843750610f159350505050565b60208401528252509392505050565b61226581612965565b60018054829081106123ba57fe5b6000918252602090912060059091020180546003820154600490920154600160a060020a038216935060a060020a90910460ff90811692169084565b60096020526000908152604090205481565b70014551231950b75fc4402da1732fc9bebe1981565b612426613596565b600080600061243361367e565b61243b613596565b6124436136ac565b6401000003d0199550600080808b151561245c5761283b565b6000604051985061020089016040525b8c156124a45760018d16156124935750601f8c16808989015360206010821102818e03019c505b60028d049c5060018801975061246c565b506060604051908101604052808c5181526020018c600160200201518152600160209091015286526124d68651612bd8565b94506124e2858c612cf3565b60208701526124f9858760015b6020020151612f2f565b604087015261250a858760026124ef565b606087015261251b858760036124ef565b608087015261252c858760046124ef565b60a087015261253d858760056124ef565b60c087015261254e858760066124ef565b60e087015260208601516040015184528880151561256857fe5b84516040880151604001510960208501528880151561258357fe5b6020850151606088015160400151096040850152888015156125a157fe5b6040850151608088015160400151096060850152888015156125bf57fe5b606085015160a088015160400151096080850152888015156125dd57fe5b608085015160c0880151604001510960a0850152888015156125fb57fe5b60a085015160e0880151604001510960c0850190815261261c90518a612afa565b60e08501908152516101008501528880151561263457fe5b61010085015160a0860151096101e0850152600692505b600283106126c8578880151561265d57fe5b61010085015187600186016008811061267257fe5b602002015160400151096101008501528880151561268c57fe5b610100850151856001198601601081106126a257fe5b6020020151098460088501601081106126b757fe5b60200201526000199092019161264b565b888015156126d257fe5b61010085015160408801516040015109610120850152600092505b60078310156127655761275a86600185016008811061270857fe5b602002015185600986016010811061271c57fe5b60200201518b80151561272b57fe5b87600988016010811061273a57fe5b602002015188600989016010811061274e57fe5b6020020151098c613188565b6001909201916126ed565b600087111561283b57600019808801978901015160001a91506127878a6131b7565b60108211156127e257506002601f829003046127dd8a60408051908101604052808985600881106127b457fe5b60200201515181526020018985600881106127cb57fe5b6020020151602001518d0390526132c8565b612836565b6000821115612836575060026000198201046128368a604080519081016040528089856008811061280f57fe5b602002015151815260200189856008811061282657fe5b60200201516020015190526132c8565b612765565b50505050505050505092915050565b60008061285b604085015184612afa565b91508280151561286757fe5b82830990508280151561287657fe5b8185510984528280151561288657fe5b8380151561289057fe5b8284098560015b60200201510960208501525050600160409092019190915250565b70014551231950b75fc4402da1732fc9bebe19607b8201066002828154811015156128d957fe5b60009182526020909120015550565b8060038111156128f457fe5b60086000846040518082604080838360005b8381101561291e578082015183820152602001612906565b5050505090500191505060405190819003902081526020810191909152604001600020555050565b600082607b14801561295e5750816020015115156001145b9392505050565b600160a060020a03811660009081526007602052604081205460018054919291829182918590811061299357fe5b600091825260208083206005909202909101805493151560a060020a0274ff00000000000000000000000000000000000000001990941693909317909255600160a060020a0386168152600f909152604090205491508190505b600e54600119018111612aa757600e805460018301908110612a0b57fe5b600091825260209091200154600e8054600160a060020a039092169183908110612a3157fe5b906000526020600020900160006101000a815481600160a060020a030219169083600160a060020a03160217905550600f6000600e83815481101515612a7357fe5b6000918252602080832090910154600160a060020a03168352820192909252604001902080546000190190556001016129ed565b600e805490612aba90600019830161354c565b50505050600160a060020a03166000908152600f6020526040812055565b600080836003811115612ae757fe5b1415801561295e5750506101c814919050565b600080808080808715801590612b105750868814155b8015612b1b57508615155b1515612b2657600080fd5b86881115612b3d578688811515612b3957fe5b0697505b600193508692508791505b8115612b73578183811515612b5957fe5b949594048581029094039391928383029003919050612b48565b6000851215612b89578460000387039550612b8d565b8495505b505050505092915050565b600160005b6004548211610d10576001805483908110612bb457fe5b60009182526020909120600160059092020181018054820181559201919050612b9d565b612be0613596565b6401000003d0196000808080808060408901511515612bfe57612ce7565b885195506020890151945086801515612c1357fe5b858609935086801515612c2257fe5b87801515612c2c57fe5b858809600409925086801515612c3e57fe5b87801515612c4857fe5b878809600309915086801515612c5a57fe5b87801515612c6457fe5b848508880388801515612c7357fe5b84850908808952905086801515612c8657fe5b87801515612c9057fe5b88801515612c9a57fe5b868709600809880388801515612cac57fe5b89801515612cb657fe5b848b038708850908602089015286801515612ccd57fe5b87801515612cd757fe5b60408b0151870960020960408901525b50505050505050919050565b612cfb613596565b6000612d05613570565b612d0d6136c7565b60008080808060408b01511515612d4a576060604051908101604052808b5181526020018b60016020020151815260200160018152509850612f21565b60208a01511515612d5d578a9850612f21565b6401000003d01997508760408c015160408d015109875287801515612d7e57fe5b875160408d01510960208801526080604051908101604052808c5181526020018c60016020020151815260200189801515612db557fe5b89518d5109815260200189801515612dc957fe5b60208a015160208e01510990529550604086015186511415612e19576060860151602087015114612e0a576000808c5260208c0181905260408c0152612f21565b612e138b612bd8565b50612f21565b87801515612e2357fe5b86518903604088015108945087801515612e3957fe5b60208701518903606088015108935087801515612e5257fe5b858609925087801515612e6157fe5b858409915087801515612e7057fe5b82890389801515612e7d57fe5b86870908905087801515612e8d57fe5b88801515612e9757fe5b89801515612ea157fe5b8589510960020989038208808a52905087801515612ebb57fe5b88801515612ec557fe5b828a038a801515612ed257fe5b868a510908850960208a015287801515612ee857fe5b88801515612ef257fe5b83602089015109890360208b01510860208a015287801515612f1057fe5b60408c015186098960025b60200201525b505050505050505092915050565b612f37613596565b6000612f416136c7565b612f496136c7565b60008080808060408b01511515612f6257899850612f21565b60408a01511515612f75578a9850612f21565b6401000003d01997508760408c015160408d015109875287801515612f9657fe5b875160408d015109602088015287801515612fad57fe5b60408b015160408c015109604088015287801515612fc757fe5b604088015160408c015109606088015260806040519081016040528089801515612fed57fe5b60408a01518e510981526020018980151561300457fe5b60608a015160208f01510981526020018980151561301e57fe5b89518d510981526020018980151561303257fe5b60208a015160208e0151099052955060408601518651141561307257606086015160208701511461306257612f21565b61306b8b612bd8565b9850612f21565b8780151561307c57fe5b8651890360408801510894508780151561309257fe5b602087015189036060880151089350878015156130ab57fe5b8586099250878015156130ba57fe5b8584099150878015156130c957fe5b828903898015156130d657fe5b868709089050878015156130e657fe5b888015156130f057fe5b898015156130fa57fe5b8589510960020989038208808a5290508780151561311457fe5b8880151561311e57fe5b828a038a80151561312b57fe5b868a510908850960208a01528780151561314157fe5b8880151561314b57fe5b83602089015109890360208b01510860208a01528780151561316957fe5b8880151561317357fe5b60408c015160408e0151098609896002612f1b565b8080151561319257fe5b828551098452808015156131a257fe5b818015156131ac57fe5b838509856001612897565b6401000003d01960008080808080604088015115156131d5576132be565b8751955060208801519450868015156131ea57fe5b8586099350868015156131f957fe5b8780151561320357fe5b85880960040992508680151561321557fe5b8780151561321f57fe5b87880960030991508680151561323157fe5b8780151561323b57fe5b84850888038880151561324a57fe5b8485090880895290508680151561325d57fe5b8780151561326757fe5b8880151561327157fe5b86870960080988038880151561328357fe5b8980151561328d57fe5b848b0387088509086020890152868015156132a457fe5b878015156132ae57fe5b60408a0151870960020960408901525b5050505050505050565b60006132d2613570565b6132da6136c7565b60008080808060208a015115156133095788518a52602089015160208b015260018a60025b60200201526134d6565b60208901511515613319576134d6565b6401000003d01997508760408b015160408c01510987528780151561333a57fe5b875160408c01510960208801526080604051908101604052808b5181526020018b6001602002015181526020018980151561337157fe5b89518c510981526020018980151561338557fe5b60208a015160208d015109905295506040860151865114156133d25760608601516020870151146133c4576000808b5260208b018190528a60026132ff565b6133cd8a6131b7565b6134d6565b878015156133dc57fe5b865189036040880151089450878015156133f257fe5b6020870151890360608801510893508780151561340b57fe5b85860992508780151561341a57fe5b85840991508780151561342957fe5b8289038980151561343657fe5b8687090890508780151561344657fe5b8880151561345057fe5b8980151561345a57fe5b8589510960020989038208808b5290508780151561347457fe5b8880151561347e57fe5b828a038a80151561348b57fe5b868a510908850960208b0152878015156134a157fe5b888015156134ab57fe5b83602089015109890360208c01510860208b0152878015156134c957fe5b60408b0151860960408b01525b50505050505050505050565b8154818355818115116119ea576005028160050283600052602060002091820191016119ea91906136e1565b826002810192821561353c579160200282015b8281111561353c578251825591602001919060010190613521565b50613548929150613736565b5090565b8154818355818115116119ea576000838152602090206119ea918101908301613736565b604080519081016040526002815b600081526020019060019003908161357e5790505090565b60606040519081016040526000815260026020820161357e565b8154818355818115116119ea576002028160020283600052602060002091820191016119ea9190613750565b60c060405190810160409081526000808352602083015281016135fd613570565b815260200160008152602001600081525090565b828054600181600116156101000203166002900490600052602060002090601f016020900481019282601f1061365257805160ff191683800117855561353c565b8280016001018555821561353c579182018281111561353c578251825591602001919060010190613521565b6103006040519081016040526008815b613696613596565b81526020019060019003908161368e5790505090565b61020060405190810160405260008152600f6020820161357e565b60806040519081016040526000815260036020820161357e565b61172091905b8082111561354857805474ffffffffffffffffffffffffffffffffffffffffff19168155600061371a6001830182613773565b5060038101805460ff19169055600060048201556005016136e7565b61172091905b80821115613548576000815560010161373c565b61172091905b8082111561354857600061376a8282613773565b50600201613756565b5060008155600101600090555600a165627a7a7230582084724995922469e1e04bae0cadb2cbe19d62d3a971268202034ad097e67a43ea0029",
  "source": "pragma solidity ^0.4.7;\r\nimport \"./OrPoK.sol\";\r\n\r\ncontract SmartWerewolf {\r\n    //parameters using bitcoin's curve (fixed for every game)\r\n    uint constant p = 0xFFFFFFFFFFFFFFFFFFFFFFFFFFFFFFFFFFFFFFFFFFFFFFFFFFFFFFFEFFFFFC2F;\r\n    uint constant Gx =0x79BE667EF9DCBBAC55A06295CE870B07029BFCDB2DCE28D959F2815B16F81798;\r\n    uint constant Gy = 0x483ADA7726A3C4655DA4FBFC0E1108A8FD17B448A68554199C47D08FFB10D4B8;\r\n    uint public constant q = 0xFFFFFFFFFFFFFFFFFFFFFFFFFFFFFFFEBAAEDCE6AF48A03BBFD25E8CD0364141;\r\n    OrPoK processPoK; \r\n\r\n    //bullet broad (fixed during 1 game)\r\n    Player[] public players;\r\n    uint[] MPC;\r\n    uint[2][] public deck;\r\n    uint public n;\r\n    uint[2] G;\r\n    mapping (address => uint) public playerNumOf;\r\n    mapping(bytes32 => uint) public roleOf;\r\n    mapping(address => uint) public deposits;\r\n    \r\n    //up-to-date report (change in game)\r\n    uint[4] public living;\r\n    address[] public livingPlayers;\r\n    mapping(address => uint) public theLivingNumOf;\r\n    string public winner;\r\n    \r\n    function SmartWerewolf(address addressPoK) public {\r\n        processPoK = OrPoK(addressPoK);\r\n        G[0] = Gx;\r\n        G[1] = Gy;\r\n    }\r\n\r\n    //1. \r\n    function engagement(address[] _players) public {\r\n        require(_players.length >= 6);\r\n        n = _players.length;\r\n        players.length = 1+ n;\r\n        uint i;\r\n        for (i = 1; i <= n; i++) {\r\n            players[i] = Player\r\n            (\r\n                {\r\n                    name: _players[ i-1 ],  \r\n                    live: true, \r\n                    hand: [uint(0),0], \r\n                    role: RoleTypes.Unseen,\r\n                    pokerKey: 0\r\n                }\r\n           ); \r\n        playerNumOf[players[i].name] = i;\r\n        }\r\n        \r\n        living[uint(RoleTypes.Werewolf)]=2;\r\n        living[uint(RoleTypes.Seer)]=1;\r\n        living[uint(RoleTypes.Villager)]=n-3;\r\n\r\n        livingPlayers.length=n+1;\r\n        for(i=1;i<=n;i++){\r\n            livingPlayers[i]=players[i].name;\r\n            theLivingNumOf[players[i].name]=i;\r\n        }\r\n    }\r\n\r\n    function quickDepositGame() external payable {\r\n        deposits[msg.sender] = msg.value;\r\n        emit Deposit(\r\n                msg.sender,\r\n                deposits[msg.sender]\r\n            );\r\n    }\r\n\r\n    function quickEngagePlayers(address[] inPlayerNames) \r\n        public \r\n    {   \r\n        require(inPlayerNames.length >= 6);\r\n        uint i;\r\n        for(i = 0; i<inPlayerNames.length; i++){\r\n            address p = inPlayerNames[i];\r\n            require(deposits[p]>=100);\r\n        }\r\n\r\n        n = inPlayerNames.length;\r\n        players.length = 1+n;\r\n\r\n        for (i = 1; i <= n; i++) {\r\n            players[i] = Player\r\n            (\r\n                {\r\n                    name: inPlayerNames[ i-1 ],  \r\n                    live: true, \r\n                    hand: [uint(0),0], \r\n                    role: RoleTypes.Unseen,\r\n                    pokerKey: 0\r\n                }\r\n            );\r\n            \r\n            emit JoinPlayer(\r\n                //for mapping\r\n                i,\r\n                //for players \r\n                players[i].name, \r\n                players[i].live, \r\n                [uint((players[i].hand)[0]),(players[i].hand)[1]], \r\n                players[i].role, \r\n                players[i].pokerKey\r\n            );\r\n            \r\n            emit RegLivingPlayer(\r\n                i,\r\n                players[i].name\r\n                );\r\n        }\r\n        emit RegLivingRole([uint(0),2,1,n-3]);\r\n        emit PlayerReady(n);\r\n    }\r\n    event RegLivingPlayer(uint livingPlayerNum, address livingPlayerName);\r\n    event RegLivingRole(uint[4] outLiving);\r\n    \r\n    //read off-chain(from js) \r\n    function regTheLiving(address ) public view returns(\r\n        uint livingPlayerNum,\r\n        address livingPlayerName\r\n        )\r\n    {\r\n        /*i,\r\n        players[i].name\r\n        living[uint(RoleTypes.Werewolf)]=2;\r\n        living[uint(RoleTypes.Seer)]=1;\r\n        living[uint(RoleTypes.Villager)]=n-3;*/\r\n    }\r\n\r\n    //2-1 \r\n    //(a)    \r\n    function createCards() public {   \r\n        MPC.length = deck.length = 1+n;\r\n        for(uint i=0; i <= n; i++ ){\r\n            prepareDeck(i);\r\n        }\r\n        for(i=0; i<=n; i++){\r\n            (deck[i][0], deck[i][1]) = multiply(MPC[i], G);\r\n        }\r\n        generateMap(deck[0], RoleTypes.Unseen);\r\n        generateMap(deck[1], RoleTypes.Werewolf);\r\n        generateMap(deck[2], RoleTypes.Werewolf);\r\n        generateMap(deck[3], RoleTypes.Seer);\r\n        for (uint j = 4; j <= n; j++) {\r\n            generateMap(deck[j], RoleTypes.Villager);\r\n        }\r\n    }\r\n    function shuffleCardBy(uint i, uint pokerKey) external{\r\n        //encrypt each card\r\n        uint printBack = pokerKey; \r\n        for(uint k=0; k<=n; k++){\r\n            (deck[k][0], deck[k][1]) = multiply(printBack, deck[k]);\r\n        }\r\n        //any shuffle\r\n        /*uint[2] memory tmp;\r\n        uint j = ((i+3)-1) % n + 1;\r\n        (tmp[0], tmp[1]) = (deck[j][0], deck[j][1]);\r\n        (deck[j][0], deck[j][1]) = (deck[i][0], deck[i][1]);\r\n        (deck[i][0], deck[i][1]) = (tmp[0], tmp[1]);*/\r\n    }\r\n    //TODO:(b)  \r\n    function shuffleCards() public {\r\n        uint printBack = 0x7717; \r\n        for(uint i=0; i<=n; i++){\r\n            (deck[i][0], deck[i][1]) = multiply(printBack, deck[i]);\r\n        }\r\n        uint[2] memory tmp;\r\n        (tmp[0], tmp[1]) = (deck[2][0], deck[2][1]);\r\n        (deck[2][0], deck[2][1]) = (deck[5][0], deck[5][1]);\r\n        (deck[5][0], deck[5][1]) = (tmp[0], tmp[1]);\r\n    } \r\n\r\n    //TODO: 2-2.  \r\n    function dealCards() public {\r\n        for(uint i=1; i<=n; i++){\r\n            (players[i].hand[0], players[i].hand[1])  \r\n            = (deck[i][0], deck[i][1]);\r\n        }\r\n        helpDecryptRole();\r\n    }\r\n\r\n    function dealCardTo(uint i) external view returns(uint[2] hand){\r\n        (hand[0],hand[1])=(deck[i][0], deck[i][1]);\r\n    }\r\n\r\n    function nightKill(address victimName, uint proofCanKill) public {\r\n        uint v = playerNumOf[victimName];\r\n        Player memory victim = players[v];\r\n        require (verify(proofCanKill, victim)==true);\r\n        killed(victimName);\r\n    }\r\n    \r\n    function dayVoting(address name) public {\r\n        \r\n        killed(name);\r\n\r\n    }\r\n\r\n    function openRole(RoleTypes _role, uint _pokerKey) public {\r\n        require(verifyRole(_role, _pokerKey)==true);\r\n        uint i = playerNumOf[msg.sender];\r\n        players[i].role = _role;\r\n        players[i].pokerKey=_pokerKey;\r\n        \r\n        living[uint(_role)]--;\r\n\r\n        if(living[uint(RoleTypes.Werewolf)]==living[uint(RoleTypes.Seer)]+living[uint(RoleTypes.Villager)]){\r\n            winner = \"Werewolves\";\r\n        }\r\n        else if(living[uint(RoleTypes.Werewolf)]==0){\r\n            winner = \"Humans\";\r\n        }\r\n    }\r\n\r\n    function checkRoleOf(uint[2] card) public view returns(uint) {return roleOf[keccak256(card)];}\r\n    function cardOrder() public pure returns(uint) {return q;}\r\n    function getHandOf(address name) public view returns(uint[2] hand){\r\n        uint i = playerNumOf[name];\r\n        (hand[0] ,hand[1]) = ((players[i].hand)[0], (players[i].hand)[1]);\r\n    }\r\n\r\n    function numSurvive() public view returns(uint) {return livingPlayers.length-1;}\r\n\r\n    function werewolfFrameKilling(uint[2] framedHand, uint[2] _werewolfCard,  uint victim) public view returns(uint[2] __werewolfCard, uint[2] _framedHand, uint _victim, uint[3] T, uint c, uint s){\r\n        return processPoK.forgeProof(_werewolfCard, framedHand, victim);\r\n    }\r\n\r\n    function werewolfCard() external view returns(uint cardX,uint cardY){\r\n        (cardX, cardY) = (deck[1][0], deck[1][1]);\r\n    }\r\n    \r\n    function werewolfChooset(uint pokerKey, uint[2][] hands, uint[2] _werewolfCard, uint victim ) external view returns(uint realt){\r\n\r\n        return processPoK.computeRealt(_werewolfCard, hands, pokerKey, victim);\r\n    }\r\n\r\n    function werewolfComputeT(uint realt, uint[2] _werewolfCard) public view returns(uint[3] realT){\r\n        return processPoK.computeTFrom(realt, _werewolfCard);\r\n    }\r\n\r\n    function computeChallenge(uint[2] _werewolfCard, uint[2][] _hands, uint victim, uint[3][] Ts) public view returns(uint realChallenge){\r\n        return processPoK.computeChallenge(_werewolfCard, _hands, victim, Ts);\r\n    }\r\n\r\n    function werewolfProve(uint pokerKey, uint[2] _werewolfCard, uint[2] hand, uint victim, uint tReady,uint cReady) public view returns(uint[2] __werewolfCard, uint[2] _hand, uint _victim, uint[3] T, uint c, uint s){\r\n        return processPoK.createSchnorr(pokerKey, _werewolfCard, hand, victim, tReady, cReady);\r\n    }\r\n\r\n    function verifyWerewolfProof(uint[2] _werewolfCard, uint[2] hand,  uint[3] T, uint c, uint s) public view returns (bool result){\r\n        return processPoK.verifySchnorr(_werewolfCard, hand, T, c, s);\r\n    }\r\n\r\n    function prepareDeck(uint i) internal {\r\n        \r\n        MPC[ i ] = (i+123) % q;\r\n        //avoid use 0. function toZ1 revert at point at infinity\r\n    \r\n    }\r\n    \r\n    function helpDecryptRole() internal {\r\n        for(uint i=1; i<=n; i++){\r\n        \tuint[2] storage hand = players[i].hand;\r\n        \thand[0] ++;\r\n        } \r\n    }\r\n\r\n    function helpDecryptRole(uint me, uint pokerKey, uint i, uint[2] cipherCard) external view returns (uint[2] decryptCard){\r\n        if(me == i){\r\n            (decryptCard[0], decryptCard[1]) = (cipherCard[0], cipherCard[1]);\r\n        }else{\r\n            uint keyInverse = ECCMath_noconflict.invmod(pokerKey, q);\r\n            (decryptCard[0],decryptCard[1]) = multiply(keyInverse, cipherCard);\r\n        }\r\n       \r\n    }\r\n\r\n    function recoverRole(uint me, uint pokerKey, uint[2] cipherCard) external view returns (uint[2] decryptCard){\r\n            uint keyInverse = ECCMath_noconflict.invmod(pokerKey, q);\r\n            (decryptCard[0],decryptCard[1]) = multiply(keyInverse, cipherCard);\r\n       \r\n    }\r\n\r\n    function killed(address player) internal{\r\n        uint i = playerNumOf[player];\r\n        players[i].live=false;\r\n        uint j= theLivingNumOf[player];\r\n        \r\n        for(uint k=j; k<= livingPlayers.length-2 ; k++){\r\n            livingPlayers[k] = livingPlayers[k+1];\r\n            theLivingNumOf[livingPlayers[k]]--;\r\n        }\r\n        livingPlayers.length--;\r\n        theLivingNumOf[player]=0;\r\n    }\r\n\r\n\r\n    function multiply(uint s, uint[2] point) public view returns(uint ,uint){\r\n        uint[3] memory result = Secp256k1_noconflict._mul(s, point);\r\n        ECCMath_noconflict.toZ1(result, p);\r\n        return (result[0],result[1]);\r\n    }\r\n\r\n    function generateMap(uint[2] card, RoleTypes role) internal {\r\n        \r\n        roleOf[keccak256(card)] = uint(role);\r\n    \r\n    }\r\n\r\n    function verifyRole(RoleTypes _role, uint _pokerKey) pure internal returns(bool){\r\n        \r\n        return (_role!=RoleTypes.Unseen && _pokerKey==456);\r\n    \r\n    }\r\n    \r\n    function verify(uint proofCanKill, Player victim) pure internal returns(bool){\r\n        \r\n        return proofCanKill == 123 && victim.live == true;\r\n    }\r\n    \r\n    enum RoleTypes{Unseen, Werewolf, Seer, Villager}\r\n    \r\n    struct Player{\r\n        address name;\r\n        bool live;\r\n        uint[2] hand;\r\n        RoleTypes role;\r\n        uint pokerKey;\r\n    }\r\n\r\n   struct KillConditions{\r\n        uint iAmWerewolf;\r\n        uint iAmLive;\r\n        uint victimLive;\r\n    }\r\n   \r\n    event debug(uint i);\r\n    \r\n    event JoinPlayer(\r\n        uint indexed outPlayerNum,\r\n        address outPlayerName,\r\n        bool outPlayerLive,\r\n        uint[2] outPlayerHand,\r\n        RoleTypes outPlayerRole,\r\n        uint outPlayerKey\r\n    );\r\n\r\n    event Deposit(\r\n        address indexed outPlayerName,\r\n        uint outValue\r\n    );\r\n\r\n    event PlayerReady(uint numPlayers);\r\n}",
  "sourcePath": "C:\\Users\\eason\\Documents\\GitHub\\SmartWerewolf\\contracts\\SmartWerewolf.sol",
  "compiler": {
    "name": "solc",
    "version": "0.4.21+commit.dfe3193c.Emscripten.clang"
  },
  "schemaVersion": "2.0.0",
  "updatedAt": "2018-05-12T23:31:06.082Z"
}