{
  "contractName": "SmartWerewolf",
  "abi": [
    {
      "constant": true,
      "inputs": [],
      "name": "n",
      "outputs": [
        {
          "name": "",
          "type": "uint256"
        }
      ],
      "payable": false,
      "stateMutability": "view",
      "type": "function"
    },
    {
      "constant": true,
      "inputs": [
        {
          "name": "",
          "type": "address"
        }
      ],
      "name": "playerNumOf",
      "outputs": [
        {
          "name": "",
          "type": "uint256"
        }
      ],
      "payable": false,
      "stateMutability": "view",
      "type": "function"
    },
    {
      "constant": true,
      "inputs": [
        {
          "name": "",
          "type": "address"
        }
      ],
      "name": "theLivingNumOf",
      "outputs": [
        {
          "name": "",
          "type": "uint256"
        }
      ],
      "payable": false,
      "stateMutability": "view",
      "type": "function"
    },
    {
      "constant": true,
      "inputs": [
        {
          "name": "",
          "type": "uint256"
        }
      ],
      "name": "roleOf",
      "outputs": [
        {
          "name": "",
          "type": "uint256"
        }
      ],
      "payable": false,
      "stateMutability": "view",
      "type": "function"
    },
    {
      "constant": true,
      "inputs": [
        {
          "name": "",
          "type": "uint256"
        },
        {
          "name": "",
          "type": "uint256"
        }
      ],
      "name": "deck",
      "outputs": [
        {
          "name": "",
          "type": "uint256"
        }
      ],
      "payable": false,
      "stateMutability": "view",
      "type": "function"
    },
    {
      "constant": true,
      "inputs": [
        {
          "name": "",
          "type": "uint256"
        }
      ],
      "name": "livingPlayers",
      "outputs": [
        {
          "name": "",
          "type": "address"
        }
      ],
      "payable": false,
      "stateMutability": "view",
      "type": "function"
    },
    {
      "constant": true,
      "inputs": [],
      "name": "winner",
      "outputs": [
        {
          "name": "",
          "type": "string"
        }
      ],
      "payable": false,
      "stateMutability": "view",
      "type": "function"
    },
    {
      "constant": true,
      "inputs": [
        {
          "name": "",
          "type": "uint256"
        }
      ],
      "name": "living",
      "outputs": [
        {
          "name": "",
          "type": "uint256"
        }
      ],
      "payable": false,
      "stateMutability": "view",
      "type": "function"
    },
    {
      "constant": true,
      "inputs": [
        {
          "name": "",
          "type": "uint256"
        }
      ],
      "name": "players",
      "outputs": [
        {
          "name": "name",
          "type": "address"
        },
        {
          "name": "live",
          "type": "bool"
        },
        {
          "name": "role",
          "type": "uint8"
        },
        {
          "name": "pokerKey",
          "type": "uint256"
        }
      ],
      "payable": false,
      "stateMutability": "view",
      "type": "function"
    },
    {
      "constant": true,
      "inputs": [
        {
          "name": "",
          "type": "address"
        }
      ],
      "name": "deposits",
      "outputs": [
        {
          "name": "",
          "type": "uint256"
        }
      ],
      "payable": false,
      "stateMutability": "view",
      "type": "function"
    },
    {
      "constant": true,
      "inputs": [],
      "name": "q",
      "outputs": [
        {
          "name": "",
          "type": "uint256"
        }
      ],
      "payable": false,
      "stateMutability": "view",
      "type": "function"
    },
    {
      "inputs": [
        {
          "name": "addressPoK",
          "type": "address"
        }
      ],
      "payable": false,
      "stateMutability": "nonpayable",
      "type": "constructor"
    },
    {
      "anonymous": false,
      "inputs": [
        {
          "indexed": false,
          "name": "i",
          "type": "uint256"
        }
      ],
      "name": "debug",
      "type": "event"
    },
    {
      "anonymous": false,
      "inputs": [
        {
          "indexed": false,
          "name": "currentRoom",
          "type": "uint256"
        },
        {
          "indexed": false,
          "name": "currentDay",
          "type": "int256"
        },
        {
          "indexed": false,
          "name": "currentPhase",
          "type": "uint256"
        }
      ],
      "name": "ReportTime",
      "type": "event"
    },
    {
      "anonymous": false,
      "inputs": [
        {
          "indexed": true,
          "name": "outPlayerNum",
          "type": "uint256"
        },
        {
          "indexed": false,
          "name": "outPlayerName",
          "type": "address"
        },
        {
          "indexed": false,
          "name": "outPlayerLive",
          "type": "bool"
        },
        {
          "indexed": false,
          "name": "outPlayerHand",
          "type": "uint256[2]"
        },
        {
          "indexed": false,
          "name": "outPlayerRole",
          "type": "uint8"
        },
        {
          "indexed": false,
          "name": "outPlayerKey",
          "type": "uint256"
        }
      ],
      "name": "JoinPlayer",
      "type": "event"
    },
    {
      "anonymous": false,
      "inputs": [
        {
          "indexed": true,
          "name": "outPlayerName",
          "type": "address"
        },
        {
          "indexed": false,
          "name": "outValue",
          "type": "uint256"
        }
      ],
      "name": "Deposit",
      "type": "event"
    },
    {
      "anonymous": false,
      "inputs": [
        {
          "indexed": false,
          "name": "numPlayers",
          "type": "uint256"
        }
      ],
      "name": "PlayerReady",
      "type": "event"
    },
    {
      "anonymous": false,
      "inputs": [
        {
          "indexed": true,
          "name": "livingPlayerNum",
          "type": "uint256"
        },
        {
          "indexed": false,
          "name": "livingPlayerName",
          "type": "address"
        }
      ],
      "name": "RegLivingPlayer",
      "type": "event"
    },
    {
      "anonymous": false,
      "inputs": [
        {
          "indexed": false,
          "name": "outLiving",
          "type": "uint256[4]"
        }
      ],
      "name": "RegLivingRole",
      "type": "event"
    },
    {
      "constant": false,
      "inputs": [],
      "name": "quickDepositGame",
      "outputs": [],
      "payable": true,
      "stateMutability": "payable",
      "type": "function"
    },
    {
      "constant": false,
      "inputs": [
        {
          "name": "_players",
          "type": "address[]"
        }
      ],
      "name": "engagement",
      "outputs": [],
      "payable": false,
      "stateMutability": "nonpayable",
      "type": "function"
    },
    {
      "constant": false,
      "inputs": [
        {
          "name": "inPlayerNames",
          "type": "address[]"
        }
      ],
      "name": "quickEngagePlayers",
      "outputs": [],
      "payable": false,
      "stateMutability": "nonpayable",
      "type": "function"
    },
    {
      "constant": false,
      "inputs": [],
      "name": "createCards",
      "outputs": [],
      "payable": false,
      "stateMutability": "nonpayable",
      "type": "function"
    },
    {
      "constant": true,
      "inputs": [
        {
          "name": "i",
          "type": "uint256"
        },
        {
          "name": "inMPC",
          "type": "uint256"
        }
      ],
      "name": "quickCreateCard",
      "outputs": [
        {
          "name": "outCard",
          "type": "uint256[2]"
        },
        {
          "name": "cardNum",
          "type": "uint256"
        },
        {
          "name": "roleNum",
          "type": "uint256"
        }
      ],
      "payable": false,
      "stateMutability": "view",
      "type": "function"
    },
    {
      "constant": false,
      "inputs": [],
      "name": "shuffleCards",
      "outputs": [],
      "payable": false,
      "stateMutability": "nonpayable",
      "type": "function"
    },
    {
      "constant": false,
      "inputs": [
        {
          "name": "i",
          "type": "uint256"
        },
        {
          "name": "pokerKey",
          "type": "uint256"
        }
      ],
      "name": "shuffleCardBy",
      "outputs": [],
      "payable": false,
      "stateMutability": "nonpayable",
      "type": "function"
    },
    {
      "constant": true,
      "inputs": [
        {
          "name": "i",
          "type": "uint256"
        },
        {
          "name": "pokerKey",
          "type": "uint256"
        },
        {
          "name": "inDeck",
          "type": "uint256[2][]"
        },
        {
          "name": "numCards",
          "type": "uint256"
        }
      ],
      "name": "quickShuffleCardBy",
      "outputs": [
        {
          "name": "outDeck",
          "type": "uint256[2][]"
        }
      ],
      "payable": false,
      "stateMutability": "view",
      "type": "function"
    },
    {
      "constant": false,
      "inputs": [],
      "name": "dealCards",
      "outputs": [],
      "payable": false,
      "stateMutability": "nonpayable",
      "type": "function"
    },
    {
      "constant": true,
      "inputs": [
        {
          "name": "i",
          "type": "uint256"
        }
      ],
      "name": "dealCardTo",
      "outputs": [
        {
          "name": "hand",
          "type": "uint256[2]"
        }
      ],
      "payable": false,
      "stateMutability": "view",
      "type": "function"
    },
    {
      "constant": false,
      "inputs": [
        {
          "name": "victimName",
          "type": "address"
        },
        {
          "name": "proofCanKill",
          "type": "uint256"
        }
      ],
      "name": "nightKill",
      "outputs": [],
      "payable": false,
      "stateMutability": "nonpayable",
      "type": "function"
    },
    {
      "constant": false,
      "inputs": [
        {
          "name": "name",
          "type": "address"
        }
      ],
      "name": "dayVoting",
      "outputs": [],
      "payable": false,
      "stateMutability": "nonpayable",
      "type": "function"
    },
    {
      "constant": false,
      "inputs": [
        {
          "name": "_role",
          "type": "uint8"
        },
        {
          "name": "_pokerKey",
          "type": "uint256"
        }
      ],
      "name": "openRole",
      "outputs": [],
      "payable": false,
      "stateMutability": "nonpayable",
      "type": "function"
    },
    {
      "constant": true,
      "inputs": [
        {
          "name": "s",
          "type": "uint256"
        },
        {
          "name": "point",
          "type": "uint256[2]"
        }
      ],
      "name": "multiply",
      "outputs": [
        {
          "name": "",
          "type": "uint256"
        },
        {
          "name": "",
          "type": "uint256"
        }
      ],
      "payable": false,
      "stateMutability": "view",
      "type": "function"
    },
    {
      "constant": true,
      "inputs": [
        {
          "name": "card",
          "type": "uint256[2]"
        }
      ],
      "name": "checkRoleOf",
      "outputs": [
        {
          "name": "",
          "type": "uint256"
        }
      ],
      "payable": false,
      "stateMutability": "view",
      "type": "function"
    },
    {
      "constant": true,
      "inputs": [
        {
          "name": "name",
          "type": "address"
        }
      ],
      "name": "getHandOf",
      "outputs": [
        {
          "name": "hand",
          "type": "uint256[2]"
        }
      ],
      "payable": false,
      "stateMutability": "view",
      "type": "function"
    },
    {
      "constant": true,
      "inputs": [],
      "name": "numSurvive",
      "outputs": [
        {
          "name": "",
          "type": "uint256"
        }
      ],
      "payable": false,
      "stateMutability": "view",
      "type": "function"
    },
    {
      "constant": true,
      "inputs": [],
      "name": "werewolfCard",
      "outputs": [
        {
          "name": "cardX",
          "type": "uint256"
        },
        {
          "name": "cardY",
          "type": "uint256"
        }
      ],
      "payable": false,
      "stateMutability": "view",
      "type": "function"
    },
    {
      "constant": true,
      "inputs": [
        {
          "name": "card",
          "type": "uint256[2]"
        }
      ],
      "name": "cardToNumber",
      "outputs": [
        {
          "name": "",
          "type": "uint256"
        }
      ],
      "payable": false,
      "stateMutability": "pure",
      "type": "function"
    },
    {
      "constant": true,
      "inputs": [],
      "name": "cardOrder",
      "outputs": [
        {
          "name": "",
          "type": "uint256"
        }
      ],
      "payable": false,
      "stateMutability": "pure",
      "type": "function"
    },
    {
      "constant": true,
      "inputs": [
        {
          "name": "framedHand",
          "type": "uint256[2]"
        },
        {
          "name": "_werewolfCard",
          "type": "uint256[2]"
        },
        {
          "name": "victim",
          "type": "uint256"
        }
      ],
      "name": "werewolfFrameKilling",
      "outputs": [
        {
          "name": "__werewolfCard",
          "type": "uint256[2]"
        },
        {
          "name": "_framedHand",
          "type": "uint256[2]"
        },
        {
          "name": "_victim",
          "type": "uint256"
        },
        {
          "name": "T",
          "type": "uint256[3]"
        },
        {
          "name": "c",
          "type": "uint256"
        },
        {
          "name": "s",
          "type": "uint256"
        }
      ],
      "payable": false,
      "stateMutability": "view",
      "type": "function"
    },
    {
      "constant": true,
      "inputs": [
        {
          "name": "pokerKey",
          "type": "uint256"
        },
        {
          "name": "hands",
          "type": "uint256[2][]"
        },
        {
          "name": "_werewolfCard",
          "type": "uint256[2]"
        },
        {
          "name": "victim",
          "type": "uint256"
        }
      ],
      "name": "werewolfChooset",
      "outputs": [
        {
          "name": "realt",
          "type": "uint256"
        }
      ],
      "payable": false,
      "stateMutability": "view",
      "type": "function"
    },
    {
      "constant": true,
      "inputs": [
        {
          "name": "realt",
          "type": "uint256"
        },
        {
          "name": "_werewolfCard",
          "type": "uint256[2]"
        }
      ],
      "name": "werewolfComputeT",
      "outputs": [
        {
          "name": "realT",
          "type": "uint256[3]"
        }
      ],
      "payable": false,
      "stateMutability": "view",
      "type": "function"
    },
    {
      "constant": true,
      "inputs": [
        {
          "name": "_werewolfCard",
          "type": "uint256[2]"
        },
        {
          "name": "_hands",
          "type": "uint256[2][]"
        },
        {
          "name": "victim",
          "type": "uint256"
        },
        {
          "name": "Ts",
          "type": "uint256[3][]"
        }
      ],
      "name": "computeChallenge",
      "outputs": [
        {
          "name": "realChallenge",
          "type": "uint256"
        }
      ],
      "payable": false,
      "stateMutability": "view",
      "type": "function"
    },
    {
      "constant": true,
      "inputs": [
        {
          "name": "pokerKey",
          "type": "uint256"
        },
        {
          "name": "_werewolfCard",
          "type": "uint256[2]"
        },
        {
          "name": "hand",
          "type": "uint256[2]"
        },
        {
          "name": "victim",
          "type": "uint256"
        },
        {
          "name": "tReady",
          "type": "uint256"
        },
        {
          "name": "cReady",
          "type": "uint256"
        }
      ],
      "name": "werewolfProve",
      "outputs": [
        {
          "name": "__werewolfCard",
          "type": "uint256[2]"
        },
        {
          "name": "_hand",
          "type": "uint256[2]"
        },
        {
          "name": "_victim",
          "type": "uint256"
        },
        {
          "name": "T",
          "type": "uint256[3]"
        },
        {
          "name": "c",
          "type": "uint256"
        },
        {
          "name": "s",
          "type": "uint256"
        }
      ],
      "payable": false,
      "stateMutability": "view",
      "type": "function"
    },
    {
      "constant": true,
      "inputs": [
        {
          "name": "_werewolfCard",
          "type": "uint256[2]"
        },
        {
          "name": "hand",
          "type": "uint256[2]"
        },
        {
          "name": "T",
          "type": "uint256[3]"
        },
        {
          "name": "c",
          "type": "uint256"
        },
        {
          "name": "s",
          "type": "uint256"
        }
      ],
      "name": "verifyWerewolfProof",
      "outputs": [
        {
          "name": "result",
          "type": "bool"
        }
      ],
      "payable": false,
      "stateMutability": "view",
      "type": "function"
    },
    {
      "constant": true,
      "inputs": [
        {
          "name": "card",
          "type": "uint256[2]"
        },
        {
          "name": "role",
          "type": "uint8"
        }
      ],
      "name": "quickGenerateMap",
      "outputs": [
        {
          "name": "cardNum",
          "type": "uint256"
        },
        {
          "name": "roleNum",
          "type": "uint256"
        }
      ],
      "payable": false,
      "stateMutability": "pure",
      "type": "function"
    },
    {
      "constant": true,
      "inputs": [
        {
          "name": "i",
          "type": "uint256"
        }
      ],
      "name": "quickPrepareDeck",
      "outputs": [
        {
          "name": "outMPC",
          "type": "uint256"
        }
      ],
      "payable": false,
      "stateMutability": "view",
      "type": "function"
    },
    {
      "constant": true,
      "inputs": [
        {
          "name": "me",
          "type": "uint256"
        },
        {
          "name": "keyInverse",
          "type": "uint256"
        },
        {
          "name": "i",
          "type": "uint256"
        },
        {
          "name": "cipherCard",
          "type": "uint256[2]"
        }
      ],
      "name": "helpDecryptRole",
      "outputs": [
        {
          "name": "decryptCard",
          "type": "uint256[2]"
        }
      ],
      "payable": false,
      "stateMutability": "view",
      "type": "function"
    },
    {
      "constant": true,
      "inputs": [
        {
          "name": "me",
          "type": "uint256"
        },
        {
          "name": "keyInverse",
          "type": "uint256"
        },
        {
          "name": "cipherCard",
          "type": "uint256[2]"
        }
      ],
      "name": "recoverRole",
      "outputs": [
        {
          "name": "decryptCard",
          "type": "uint256[2]"
        }
      ],
      "payable": false,
      "stateMutability": "view",
      "type": "function"
    },
    {
      "constant": true,
      "inputs": [
        {
          "name": "pokerKey",
          "type": "uint256"
        }
      ],
      "name": "getDecryptKey",
      "outputs": [
        {
          "name": "keyInverse",
          "type": "uint256"
        }
      ],
      "payable": false,
      "stateMutability": "view",
      "type": "function"
    },
    {
      "constant": false,
      "inputs": [
        {
          "name": "currentLives",
          "type": "bool[]"
        },
        {
          "name": "currentHands",
          "type": "uint256[2][]"
        },
        {
          "name": "currentRoles",
          "type": "uint8[]"
        },
        {
          "name": "currentPokerKeys",
          "type": "uint256[]"
        },
        {
          "name": "currentCardNumbers",
          "type": "uint256[]"
        },
        {
          "name": "currentRoom",
          "type": "uint256"
        },
        {
          "name": "currentDay",
          "type": "int256"
        },
        {
          "name": "currentPhase",
          "type": "uint8"
        },
        {
          "name": "currentDeposits",
          "type": "uint256[]"
        },
        {
          "name": "evidence",
          "type": "bytes32"
        },
        {
          "name": "suspect",
          "type": "address"
        },
        {
          "name": "v",
          "type": "uint8"
        },
        {
          "name": "r",
          "type": "bytes32"
        },
        {
          "name": "s",
          "type": "bytes32"
        }
      ],
      "name": "accuse",
      "outputs": [],
      "payable": false,
      "stateMutability": "nonpayable",
      "type": "function"
    },
    {
      "constant": false,
      "inputs": [
        {
          "name": "currentLives",
          "type": "bool[]"
        },
        {
          "name": "currentHands",
          "type": "uint256[2][]"
        },
        {
          "name": "currentRoles",
          "type": "uint8[]"
        },
        {
          "name": "currentPokerKeys",
          "type": "uint256[]"
        },
        {
          "name": "currentCardNumbers",
          "type": "uint256[]"
        },
        {
          "name": "currentRoom",
          "type": "uint256"
        },
        {
          "name": "currentDay",
          "type": "int256"
        },
        {
          "name": "currentPhase",
          "type": "uint8"
        },
        {
          "name": "currentDeposits",
          "type": "uint256[]"
        },
        {
          "name": "statesHash",
          "type": "bytes32"
        },
        {
          "name": "playerName",
          "type": "address"
        },
        {
          "name": "v",
          "type": "uint8"
        },
        {
          "name": "r",
          "type": "bytes32"
        },
        {
          "name": "s",
          "type": "bytes32"
        }
      ],
      "name": "updateStates",
      "outputs": [],
      "payable": false,
      "stateMutability": "nonpayable",
      "type": "function"
    },
    {
      "constant": true,
      "inputs": [
        {
          "name": "currentLives",
          "type": "bool[]"
        },
        {
          "name": "currentHands",
          "type": "uint256[2][]"
        },
        {
          "name": "currentRoles",
          "type": "uint8[]"
        },
        {
          "name": "currentPokerKeys",
          "type": "uint256[]"
        },
        {
          "name": "currentCardNumbers",
          "type": "uint256[]"
        },
        {
          "name": "currentRoom",
          "type": "uint256"
        },
        {
          "name": "currentDay",
          "type": "int256"
        },
        {
          "name": "currentPhase",
          "type": "uint8"
        },
        {
          "name": "currentDeposits",
          "type": "uint256[]"
        }
      ],
      "name": "quickHashStates",
      "outputs": [
        {
          "name": "statesHash",
          "type": "bytes32"
        }
      ],
      "payable": false,
      "stateMutability": "view",
      "type": "function"
    },
    {
      "constant": true,
      "inputs": [
        {
          "name": "currentLives",
          "type": "bool[]"
        },
        {
          "name": "currentHands",
          "type": "uint256[2][]"
        },
        {
          "name": "currentRoles",
          "type": "uint8[]"
        },
        {
          "name": "currentPokerKeys",
          "type": "uint256[]"
        },
        {
          "name": "currentCardNumbers",
          "type": "uint256[]"
        },
        {
          "name": "currentRoom",
          "type": "uint256"
        },
        {
          "name": "currentDay",
          "type": "int256"
        },
        {
          "name": "currentPhase",
          "type": "uint8"
        },
        {
          "name": "currentDeposits",
          "type": "uint256[]"
        },
        {
          "name": "statesHash",
          "type": "bytes32"
        }
      ],
      "name": "verifyStatesHash",
      "outputs": [
        {
          "name": "result",
          "type": "bool"
        }
      ],
      "payable": false,
      "stateMutability": "view",
      "type": "function"
    },
    {
      "constant": true,
      "inputs": [
        {
          "name": "playerName",
          "type": "address"
        },
        {
          "name": "statesMessage",
          "type": "bytes32"
        },
        {
          "name": "v",
          "type": "uint8"
        },
        {
          "name": "r",
          "type": "bytes32"
        },
        {
          "name": "s",
          "type": "bytes32"
        }
      ],
      "name": "verifyStatesMessage",
      "outputs": [
        {
          "name": "",
          "type": "bool"
        }
      ],
      "payable": false,
      "stateMutability": "view",
      "type": "function"
    },
    {
      "constant": true,
      "inputs": [
        {
          "name": "name",
          "type": "address"
        },
        {
          "name": "message",
          "type": "bytes32"
        },
        {
          "name": "v",
          "type": "uint8"
        },
        {
          "name": "r",
          "type": "bytes32"
        },
        {
          "name": "s",
          "type": "bytes32"
        }
      ],
      "name": "verifyMessage",
      "outputs": [
        {
          "name": "",
          "type": "bool"
        }
      ],
      "payable": false,
      "stateMutability": "view",
      "type": "function"
    }
  ],
  "bytecode": "0x608060405234801561001057600080fd5b50604051602080614e19833981016040818152915160008054600160a060020a031916600160a060020a0383161781557f79be667ef9dcbbac55a06295ce870b07029bfcdb2dce28d959f2815b16f817986005557f483ada7726a3c4655da4fbfc0e1108a8fd17b448a68554199c47d08ffb10d4b86006556060808401855281845260001960208086018290526001958701869052601184905560128290556013805460ff191687179055865193845283015281850193909352925190927fecda9de1c3110aef92de159ece4e03e04a01187fa041f9be243f1c8beda20b1292908290030190a150614d12806101076000396000f30060806040526004361061022c5763ffffffff60e060020a60003504166301e9963e8114610231578063076d96801461040357806307f7470b1461045a578063087c3222146104ff5780630afc37bc146106c15780630cbee0e3146108a457806314a9a121146109b15780631541f62214610a0d57806320daacd614610a3d5780632e52d60614610a55578063313ffac114610a6a5780633e5a438d14610a93578063474ab93c14610b055780634ef3ea7414610b2057806352f9aaea14610b4157806354054cd514610b9d578063568bd63e14610bbe57806358801f1714610bd35780635c56e50814610be85780636b1e52f414610bfd57806372b1d8cf14610de05780638488626914610df8578063869624fa14610e105780638c3b02d814610e505780638c785f8814610eec5780639a01967814610f01578063a15352d514610f25578063a4f195aa14610f2d578063ab27783314610f4b578063acb2c01a14610f6b578063ad3b99a414610f80578063b77d126814610fd5578063c0cb6b24146110f6578063c52e3e4a1461114e578063d34544cd14611166578063d5b1de7e14611181578063d6ffa29a146111c1578063d9e0bf4e146111d6578063dfbf53ae1461120a578063eb28808114611294578063eb47688c146112ac578063f292c215146112c9578063f4d40d261461130e578063f6ac71cd14611370578063f71d96cb14611391578063f9f0ca49146113ed578063fc7e286d1461141d578063fd3ab2821461143e575b600080fd5b34801561023d57600080fd5b50604080516020600480358082013583810280860185019096528085526103f1953695939460249493850192918291850190849080828437505060408051873589018035602081810284018101909452808352979a999883019791965082019450925082915060009085015b828210156102e25760408051808201825290808402870190600290839083908082843750505091835250506001909101906020016102a9565b50505050509192919290803590602001908201803590602001908080602002602001604051908101604052809392919081815260200183836020028082843750506040805187358901803560208181028481018201909552818452989b9a998901989297509082019550935083925085019084908082843750506040805187358901803560208181028481018201909552818452989b9a9989019892975090820195509350839250850190849080828437505060408051602060608901358a01803582810280850184018652818552999c8b359c848d01359c9687013560ff169b919a509850608090950196509294508101928291850190849080828437509497506114539650505050505050565b60408051918252519081900360200190f35b34801561040f57600080fd5b5060408051602060048035808201358381028086018501909652808552610458953695939460249493850192918291850190849080828437509497506116039650505050505050565b005b34801561046657600080fd5b506040805180820182526104eb9136916004916044919083906002908390839080828437505060408051808201825294979695818101959450925060029150839083908082843750506040805160608181019092529497969581810195945092506003915083908390808284375093965050833594505050602090910135905061188a565b604080519115158252519081900360200190f35b34801561050b57600080fd5b50604080516020600480358082013583810280860185019096528085526104eb953695939460249493850192918291850190849080828437505060408051873589018035602081810284018101909452808352979a999883019791965082019450925082915060009085015b828210156105b0576040805180820182529080840287019060029083908390808284375050509183525050600190910190602001610577565b50505050509192919290803590602001908201803590602001908080602002602001604051908101604052809392919081815260200183836020028082843750506040805187358901803560208181028481018201909552818452989b9a998901989297509082019550935083925085019084908082843750506040805187358901803560208181028481018201909552818452989b9a9989019892975090820195509350839250850190849080828437505060408051602060608901358a01803582810280850184018652818552999c8b359c848d01359c9687013560ff169b919a5098506080909501965092945081019282918501908490808284375094975050933594506119b69350505050565b3480156106cd57600080fd5b5060408051602060048035808201358381028086018501909652808552610458953695939460249493850192918291850190849080828437505060408051873589018035602081810284018101909452808352979a999883019791965082019450925082915060009085015b82821015610772576040805180820182529080840287019060029083908390808284375050509183525050600190910190602001610739565b50505050509192919290803590602001908201803590602001908080602002602001604051908101604052809392919081815260200183836020028082843750506040805187358901803560208181028481018201909552818452989b9a998901989297509082019550935083925085019084908082843750506040805187358901803560208181028481018201909552818452989b9a9989019892975090820195509350839250850190849080828437505060408051602060608901358a01803582810280850184018652818552999c8b359c848d01359c9687013560ff169b919a5098506080909501965092945081019282918501908490808284375094975050843595505050506020820135600160a060020a031691604081013560ff169150606081013590608001356119dc565b3480156108b057600080fd5b5060408051808201825261090991369160049160449190839060029083908390808284375050604080518082018252949796958181019594509250600291508390839080828437509396505092359350611a0492505050565b6040518087600260200280838360005b83811015610931578181015183820152602001610919565b5050505090500186600260200280838360005b8381101561095c578181015183820152602001610944565b5050505090500185815260200184600360200280838360005b8381101561098d578181015183820152602001610975565b50505050905001838152602001828152602001965050505050505060405180910390f35b3480156109bd57600080fd5b506040805180820182526109f4916004803592369260649190602490600290839083908082843750939650611b4995505050505050565b6040805192835260208301919091528051918290030190f35b348015610a1957600080fd5b506104eb600160a060020a036004351660243560ff60443516606435608435611b83565b348015610a4957600080fd5b506103f1600435611c38565b348015610a6157600080fd5b506103f1611c5c565b348015610a7657600080fd5b506103f16004803590602480359081019101356044608435611c62565b348015610a9f57600080fd5b50604080518082018252610909916004803592369260649190602490600290839083908082843750506040805180820182529497969581810195945092506002915083908390808284375093965050833594505050602082013591604001359050611d08565b348015610b1157600080fd5b50610458600435602435611e66565b348015610b2c57600080fd5b506103f1600160a060020a0360043516611f1f565b348015610b4d57600080fd5b50610b62600160a060020a0360043516611f31565b6040518082600260200280838360005b83811015610b8a578181015183820152602001610b72565b5050505090500191505060405180910390f35b348015610ba957600080fd5b506103f1600160a060020a0360043516611fa3565b348015610bca57600080fd5b506109f4611fb5565b348015610bdf57600080fd5b50610458612005565b348015610bf457600080fd5b506104586121bf565b348015610c0957600080fd5b5060408051602060048035808201358381028086018501909652808552610458953695939460249493850192918291850190849080828437505060408051873589018035602081810284018101909452808352979a999883019791965082019450925082915060009085015b82821015610cae576040805180820182529080840287019060029083908390808284375050509183525050600190910190602001610c75565b50505050509192919290803590602001908201803590602001908080602002602001604051908101604052809392919081815260200183836020028082843750506040805187358901803560208181028481018201909552818452989b9a998901989297509082019550935083925085019084908082843750506040805187358901803560208181028481018201909552818452989b9a9989019892975090820195509350839250850190849080828437505060408051602060608901358a01803582810280850184018652818552999c8b359c848d01359c9687013560ff169b919a5098506080909501965092945081019282918501908490808284375094975050843595505050506020820135600160a060020a031691604081013560ff1691506060810135906080013561242f565b348015610dec57600080fd5b506103f1600435612489565b348015610e0457600080fd5b506103f160043561249b565b348015610e1c57600080fd5b506040805180820182526103f19136916004916044919083906002908390839080828437509396506124b895505050505050565b348015610e5c57600080fd5b50610e7b600480359060248035916044359182019101356064356124fd565b60405180806020018281038252838181518152602001915080516000925b81841015610edb57602080850284010151604080838360005b83811015610eca578181015183820152602001610eb2565b505050509050019260010192610e99565b925050509250505060405180910390f35b348015610ef857600080fd5b506103f16125fa565b348015610f0d57600080fd5b50610458600160a060020a0360043516602435612611565b61045861270f565b348015610f3957600080fd5b5061045860ff600435166024356127b6565b348015610f5757600080fd5b50610b62600435602435604435606461291f565b348015610f7757600080fd5b506103f161297a565b348015610f8c57600080fd5b5060408051602060048035808201358381028086018501909652808552610458953695939460249493850192918291850190849080828437509497506129849650505050505050565b348015610fe157600080fd5b506040805180820182526103f1913691600491604491908390600290839083908082843750506040805186358801803560208181028401810190945280835296999897830196919550820193509150819060009085015b82821015611071576040805180820182529080840287019060029083908390808284375050509183525050600190910190602001611038565b50506040805160208088013589018035808302840183018552808452979a89359a90999098940196509194509081019250819060009085015b828210156110e65760408051606081810190925290808402870190600390839083908082843750505091835250506001909101906020016110aa565b50939650612e5595505050505050565b34801561110257600080fd5b50604080518082018252611139916004803592369260649190602490600290839083908082843750939650612fe395505050505050565b60405181518152808260608083836020610b72565b34801561115a57600080fd5b50610b626004356130b6565b34801561117257600080fd5b506103f160043560243561310b565b34801561118d57600080fd5b506040805180820182526103f191369160049160449190839060029083908390808284375093965061313d95505050505050565b3480156111cd57600080fd5b50610458613162565b3480156111e257600080fd5b506111ee600435613210565b60408051600160a060020a039092168252519081900360200190f35b34801561121657600080fd5b5061121f613238565b6040805160208082528351818301528351919283929083019185019080838360005b83811015611259578181015183820152602001611241565b50505050905090810190601f1680156112865780820380516001836020036101000a031916815260200191505b509250505060405180910390f35b3480156112a057600080fd5b506103f16004356132c6565b3480156112b857600080fd5b50610b6260043560243560446132da565b3480156112d557600080fd5b506040805180820182526109f49136916004916044919083906002908390839080828437509396505050913560ff169250613318915050565b34801561131a57600080fd5b50611329600435602435613371565b6040518084600260200280838360005b83811015611351578181015183820152602001611339565b5050505091909101938452505060208201526040805191829003019150f35b34801561137c57600080fd5b50610458600160a060020a0360043516613411565b34801561139d57600080fd5b506113a960043561341a565b60408051600160a060020a038616815284151560208201529081018360038111156113d057fe5b60ff16815260200182815260200194505050505060405180910390f35b3480156113f957600080fd5b506104eb600160a060020a036004351660243560ff60443516606435608435613464565b34801561142957600080fd5b506103f1600160a060020a036004351661347d565b34801561144a57600080fd5b506103f161348f565b6000898989898989898989604051808a8051906020019060200280838360005b8381101561148b578181015183820152602001611473565b505050509050018980516000925b818410156114db57602080850284010151604080838360005b838110156114ca5781810151838201526020016114b2565b505050509050019260010192611499565b92505050888051906020019060200280838360005b838110156115085781810151838201526020016114f0565b50505050905001878051906020019060200280838360005b83811015611538578181015183820152602001611520565b50505050905001868051906020019060200280838360005b83811015611568578181015183820152602001611550565b5050505090500185815260200184815260200183600681111561158757fe5b60ff167f0100000000000000000000000000000000000000000000000000000000000000028152600101828051906020019060200280838360005b838110156115da5781810151838201526020016115c2565b505050509050019950505050505050505050604051809103902090509998505050505050505050565b6000600682511015151561161657600080fd5b8151600481905560019081019061162d9082614a44565b50600190505b60045481116117a75760a060405190810160405280836001840381518110151561165957fe5b6020908102909101810151600160a060020a031682526001828201526040805180820182526000808252928101839052908301526060909101908152600060209091015260018054839081106116ab57fe5b60009182526020918290208351600590920201805492840151151560a060020a0274ff000000000000000000000000000000000000000019600160a060020a0390931673ffffffffffffffffffffffffffffffffffffffff199094169390931791909116919091178155604082015161172a9060018301906002614a70565b5060608201518160030160006101000a81548160ff0219169083600381111561174f57fe5b021790555060808201518160040155905050806007600060018481548110151561177557fe5b60009182526020808320600590920290910154600160a060020a03168352820192909252604001902055600101611633565b6002600b556001600c8190556004546002198101600d55016117ca600e82614aae565b50600190505b60045481116118865760018054829081106117e757fe5b6000918252602090912060059091020154600e8054600160a060020a03909216918390811061181257fe5b9060005260206000200160006101000a815481600160a060020a030219169083600160a060020a0316021790555080600f600060018481548110151561185457fe5b60009182526020808320600590920290910154600160a060020a031683528201929092526040019020556001016117d0565b5050565b60008054604080517f2b0c1aba000000000000000000000000000000000000000000000000000000008152600160a060020a0390921691632b0c1aba918991899189918991899160040190819087908083838e5b838110156118f65781810151838201526020016118de565b5050505090500185600260200280838360005b83811015611921578181015183820152602001611909565b5050505090500184600360200280838360005b8381101561194c578181015183820152602001611934565b5050505090500183815260200182815260200195505050505050602060405180830381600087803b15801561198057600080fd5b505af1158015611994573d6000803e3d6000fd5b505050506040513d60208110156119aa57600080fd5b50519695505050505050565b6000806119ca8c8c8c8c8c8c8c8c8c611453565b9092149b9a5050505050505050505050565b6119e98486858585613464565b15156119f457600080fd5b5050505050505050505050505050565b611a0c614ad2565b611a14614ad2565b6000611a1e614aed565b60008054604080517fa2cf93080000000000000000000000000000000000000000000000000000000081528392600160a060020a03169163a2cf9308918b918d918c91600490910190819085908083838c5b83811015611a88578181015183820152602001611a70565b5050505090500183600260200280838360005b83811015611ab3578181015183820152602001611a9b565b50505050905001828152602001935050505061014060405180830381600087803b158015611ae057600080fd5b505af1158015611af4573d6000803e3d6000fd5b505050506040513d601f19601f82011682018060405250610140811015611b1a57600080fd5b506080810151610100820151610120830151929c60408e019c50919a5060a08d01995097509095509350505050565b600080611b54614aed565b611b5e85856134a5565b9050611b70816401000003d0196138dd565b8051602090910151909590945092505050565b604080518082018252601c81527f19457468657265756d205369676e6564204d6573736167653a0a3332000000006020808301919091528251600080825281830180865289905260ff88168286015260608201879052608082018690529351600160a060020a038a169260019260a080820193601f198101928190039091019088865af1158015611c18573d6000803e3d6000fd5b50505060206040510351600160a060020a03161491505095945050505050565b6000611c568270014551231950b75fc4402da1732fc9bebe19613949565b92915050565b60045481565b60008054604080517fb7331865000000000000000000000000000000000000000000000000000000008152600160a060020a039092169163b7331865918691899189918c918991600401908190879080828437820191505080602001848152602001838152602001828103825286868281815260200192506040028082843782019150509650505050505050602060405180830381600087803b15801561198057600080fd5b611d10614ad2565b611d18614ad2565b6000611d22614aed565b6000806000809054906101000a9004600160a060020a0316600160a060020a031663d4540ff78d8d8d8d8d8d6040518763ffffffff1660e060020a0281526004018087815260200186600260200280838360005b83811015611d8e578181015183820152602001611d76565b5050505090500185600260200280838360005b83811015611db9578181015183820152602001611da1565b50505050905001848152602001838152602001828152602001965050505050505061014060405180830381600087803b158015611df557600080fd5b505af1158015611e09573d6000803e3d6000fd5b505050506040513d601f19601f82011682018060405250610140811015611e2f57600080fd5b50608081015161010082015161012083015192985060408901975090955060a0880194509250905096509650965096509650969050565b8060005b6004548111611f1957611ec682600383815481101515611e8657fe5b600091825260209091206040805180820191829052926002908102909201919082845b815481526020019060010190808311611ea9575050505050611b49565b6003805484908110611ed457fe5b600091825260208220600290910201016000600385815481101515611ef557fe5b60009182526020909120600290910201600101929092559190915550600101611e6a565b50505050565b60076020526000908152604090205481565b611f39614ad2565b600160a060020a0382166000908152600760205260409020546001805482908110611f6057fe5b60009182526020822060016005909202010101546001805483908110611f8257fe5b60009182526020918290206002600590920201015490840152825250919050565b600f6020526000908152604090205481565b60008060036001815481101515611fc857fe5b6000918252602082206002909102010154600380546001908110611fe857fe5b600091825260209091206002909102016001015490939092509050565b600080612010614ad2565b6177179250600091505b600454821161208c5761203683600384815481101515611e8657fe5b600380548590811061204457fe5b60009182526020822060029091020101600060038681548110151561206557fe5b6000918252602090912060029091020160010192909255919091555060019091019061201a565b60038054600290811061209b57fe5b60009182526020822060029091020101546003805460029081106120bb57fe5b6000918252602091829020600160029092020101549083015281526003805460059081106120e557fe5b600091825260208220600290910201015460038054600590811061210557fe5b600091825260209091206002909102016001015460038054600290811061212857fe5b6000918252602082206002909102010160006003600281548110151561214a57fe5b600091825260209182902060016002909202010193909355509190915581519082015160038054600590811061217c57fe5b6000918252602082206002909102010160006003600581548110151561219e57fe5b60009182526020909120600290910201600101929092559190915550505050565b6000806004546001016003816121d59190614b0c565b6121e0600282614aae565b50600091505b6004548211612203576121f8826139e7565b6001909101906121e6565b600091505b60045482116122b55761225f60028381548110151561222357fe5b60009182526020918290200154604080518082019182905260058054825292939092916002916006908501808311611ea9575050505050611b49565b600380548590811061226d57fe5b60009182526020822060029091020101600060038681548110151561228e57fe5b60009182526020909120600290910201600101929092559190915550600190910190612208565b61230a600360008154811015156122c857fe5b600091825260209091206040805180820191829052926002908102909201919082845b8154815260200190600101908083116122eb5750505050506000613a1d565b61235f6003600181548110151561231d57fe5b600091825260209091206040805180820191829052926002908102909201919082845b8154815260200190600101908083116123405750505050506001613a1d565b6123726003600281548110151561231d57fe5b6123c660038081548110151561238457fe5b600091825260209091206040805180820191829052926002908102909201919082845b8154815260200190600101908083116123a75750505050506002613a1d565b5060045b6004548111611886576124276003828154811015156123e557fe5b600091825260209091206040805180820191829052926002908102909201919082845b8154815260200190600101908083116124085750505050506003613a1d565b6001016123ca565b6124418e8e8e8e8e8e8e8e8e8e6119b6565b801561245557506124558486858585613464565b151561246057600080fd5b61246c8e8e8e8e613a4b565b6124758a613d82565b612480898989613e82565b6119f486613eaf565b60086020526000908152604090205481565b70014551231950b75fc4402da1732fc9bebe19607b919091010690565b6000816040518082600260200280838360005b838110156124e35781810151838201526020016124cb565b505060405192909401829003909120979650505050505050565b606060008070014551231950b75fc4402da1732fc9bebe19871115612521576125ef565b8691508360010160405190808252806020026020018201604052801561256157816020015b61254e614ad2565b8152602001906001900390816125465790505b509250600090505b8381116125ef576125ae8287878481811061258057fe5b905060400201600280602002604051908101604052809291908260026020028082843750611b499350505050565b84838151811015156125bc57fe5b602090810291909101015185518690859081106125d557fe5b602090810291909101810151019190915252600101612569565b505095945050505050565b70014551231950b75fc4402da1732fc9bebe195b90565b600061261b614b38565b600160a060020a03841660009081526007602052604090205460018054919350908390811061264657fe5b60009182526020918290206040805160a0810182526005939093029091018054600160a060020a038116845260a060020a900460ff16151593830193909352805180820180835292939291840191600184019060029082845b81548152602001906001019080831161269f57505050918352505060038281015460209092019160ff16908111156126d357fe5b60038111156126de57fe5b815260200160048201548152505090506126f88382613f27565b151560011461270657600080fd5b611f1984613f46565b600160a060020a0333166000818152600960209081526040918290203490819055825190815291517fe1fffcc4923d04b559f4d29a8bfc6cda04eb5b0d3c460751c2402c5c5cc9109c9281900390910190a26013805460ff191660029081179091556040805160008152600019602082015280820192909252517fecda9de1c3110aef92de159ece4e03e04a01187fa041f9be243f1c8beda20b12916060908290030190a1565b60006127c283836140b8565b15156001146127d057600080fd5b50600160a060020a03331660009081526007602052604090205460018054849190839081106127fb57fe5b906000526020600020906005020160030160006101000a81548160ff0219169083600381111561282757fe5b02179055508160018281548110151561283c57fe5b906000526020600020906005020160040181905550600a83600381111561285f57fe5b6004811061286957fe5b018054600019019055600d54600c54600b54910114156128cd5760408051808201909152600a8082527f57657265776f6c7665730000000000000000000000000000000000000000000060209092019182526128c791601091614b6b565b5061291a565b600b54151561291a576040805180820190915260068082527f48756d616e7300000000000000000000000000000000000000000000000000006020909201918252611f1991601091614b6b565b505050565b612927614ad2565b82851415612942576020808301359082015281358152612972565b60408051808201825261296a918691908590600290839083908082843750611b499350505050565b602083015281525b949350505050565b600e546000190190565b600080600683511015151561299857600080fd5b600091505b82518210156129f45782828151811015156129b457fe5b6020908102909101810151600160a060020a03811660009081526009909252604090912054909150606411156129e957600080fd5b60019091019061299d565b82516004819055600190810190612a0b9082614a44565b50600191505b6004548211612d3d5760a0604051908101604052808460018503815181101515612a3757fe5b6020908102909101810151600160a060020a03168252600182820152604080518082018252600080825292810183905290830152606090910190815260006020909101526001805484908110612a8957fe5b60009182526020918290208351600590920201805492840151151560a060020a0274ff000000000000000000000000000000000000000019600160a060020a0390931673ffffffffffffffffffffffffffffffffffffffff1990941693909317919091169190911781556040820151612b089060018301906002614a70565b5060608201518160030160006101000a81548160ff02191690836003811115612b2d57fe5b021790555060808201518160040155905050817f03cf42e4797686930ef09f709f5bb470696c17d58255a88600d589f2090ba601600184815481101515612b7057fe5b600091825260209091206005909102015460018054600160a060020a039092169186908110612b9b57fe5b906000526020600020906005020160000160149054906101000a900460ff166040805190810160405280600188815481101515612bd457fe5b60009182526020822060016005909202010101548152602001600188815481101515612bfc57fe5b600091825260209091206002600590920201015490526001805488908110612c2057fe5b60009182526020909120600360059092020101546001805460ff9092169189908110612c4857fe5b9060005260206000209060050201600401546040518086600160a060020a0316600160a060020a031681526020018515151515815260200184600260200280838360005b83811015612ca4578181015183820152602001612c8c565b50505050905001836003811115612cb757fe5b60ff1681526020018281526020019550505050505060405180910390a2817f9dc64552b3ef4f55429327ed20ed329cde6b51b38f1226e773cbcf2c29093e44600184815481101515612d0557fe5b60009182526020918290206005909102015460408051600160a060020a039092168252519081900390910190a2600190910190612a11565b7f1f53875f11d5a712b4c4f66780cd6f618f624c4794dcf513a29fddadd299a9d56080604051908101604052806000815260200160028152602001600181526020016003600454038152506040518082600460200280838360005b83811015612db0578181015183820152602001612d98565b5050505090500191505060405180910390a160045460408051918252517f0475fa33e711a0d11030b454020a5f7c806520bdc5d7a1fcb9accde610a00f249181900360200190a1600160118190556013805460ff1916600390811790915560408051928352600019602084015282810191909152517fecda9de1c3110aef92de159ece4e03e04a01187fa041f9be243f1c8beda20b12916060908290030190a1505050565b60008054604080517fb77d1268000000000000000000000000000000000000000000000000000000008152600160a060020a039092169163b77d1268918891889188918891600490910190819086908083838d5b83811015612ec1578181015183820152602001612ea9565b5050505090500180602001848152602001806020018381038352868181518152602001915080516000925b81841015612f2e57602080850284010151604080838360005b83811015612f1d578181015183820152602001612f05565b505050509050019260010192612eec565b86810385528751815287516000945088935091506020015b81841015612f8857602080850284010151606080838360005b83811015612f77578181015183820152602001612f5f565b505050509050019260010192612f46565b925050509650505050505050602060405180830381600087803b158015612fae57600080fd5b505af1158015612fc2573d6000803e3d6000fd5b505050506040513d6020811015612fd857600080fd5b505195945050505050565b612feb614aed565b6000809054906101000a9004600160a060020a0316600160a060020a03166383242e9084846040518363ffffffff1660e060020a0281526004018083815260200182600260200280838360005b83811015613050578181015183820152602001613038565b5050505090500192505050606060405180830381600087803b15801561307557600080fd5b505af1158015613089573d6000803e3d6000fd5b505050506040513d601f19601f8201168201806040525060608110156130ae57600080fd5b509392505050565b6130be614ad2565b60038054839081106130cc57fe5b600091825260208220600290910201015460038054849081106130eb57fe5b600091825260209182902060016002909202010154908301528152919050565b600380548390811061311957fe5b90600052602060002090600202018160028110151561313457fe5b01549150829050565b60006008600061314c846124b8565b8152602001908152602001600020549050919050565b60015b600454811161320557600380548290811061317c57fe5b6000918252602082206002909102010154600380548390811061319b57fe5b600091825260209091206002909102016001015460018054849081106131bd57fe5b6000918252602082206001600590920201010160006001858154811015156131e157fe5b60009182526020909120600260059092020101929092559190915550600101613165565b61320d6140da565b50565b600e80548290811061321e57fe5b600091825260209091200154600160a060020a0316905081565b6010805460408051602060026001851615610100026000190190941693909304601f810184900484028201840190925281815292918301828280156132be5780601f10613293576101008083540402835291602001916132be565b820191906000526020600020905b8154815290600101906020018083116132a157829003601f168201915b505050505081565b600a81600481106132d357fe5b0154905081565b6132e2614ad2565b60408051808201825261330a918591908590600290839083908082843750611b499350505050565b602083015281529392505050565b600080836040518082600260200280838360005b8381101561334457818101518382015260200161332c565b5050505090500191505060405180910390206001900483600381111561336657fe5b915091509250929050565b613379614ad2565b6040805180820191829052600580548252600092839283926133b39288929190600290600660208501808311611ea9575050505050611b49565b602086015284528515156133c9575060006133fa565b85600114806133d85750856002145b156133e5575060016133fa565b85600314156133f6575060026133fa565b5060035b6134048482613318565b9497909650939450505050565b61320d81613f46565b600180548290811061342857fe5b6000918252602090912060059091020180546003820154600490920154600160a060020a038216935060a060020a90910460ff90811692169084565b60006134738686868686611b83565b9695505050505050565b60096020526000908152604090205481565b70014551231950b75fc4402da1732fc9bebe1981565b6134ad614aed565b60008060006134ba614bd8565b6134c2614aed565b6134ca614c07565b6401000003d0199550600080808b15156134e3576138ce565b6000604051985061020089016040525b8c1561352b5760018d161561351a5750601f8c16808989015360206010821102818e03019c505b60028d049c506001880197506134f3565b50604080516060810182528c5181526020808e0151908201526001918101919091528087526135599061411a565b9450613565858c614239565b602087015261357c858760015b602002015161447b565b604087015261358d85876002613572565b606087015261359e85876003613572565b60808701526135af85876004613572565b60a08701526135c085876005613572565b60c08701526135d185876006613572565b60e08701526020860151604001518452888015156135eb57fe5b845160408089015101510960208501528880151561360557fe5b60208501516060880151604001510960408501528880151561362357fe5b6040808601516080890151909101510960608501528880151561364257fe5b606085015160a0880151604001510960808501528880151561366057fe5b608085015160c0880151604001510960a08501528880151561367e57fe5b60a085015160e0880151604001510960c0850181905261369e908a613949565b60e08501819052610100850152888015156136b557fe5b61010085015160a0860151096101e0850152600692505b6002831061374957888015156136de57fe5b6101008501518760018601600881106136f357fe5b602002015160400151096101008501528880151561370d57fe5b6101008501518560011986016010811061372357fe5b60200201510984600885016010811061373857fe5b6020020152600019909201916136cc565b8880151561375357fe5b610100850151604080890151015109610120850152600092505b60078310156137e5576137da86600185016008811061378857fe5b602002015185600986016010811061379c57fe5b60200201518b8015156137ab57fe5b8760098801601081106137ba57fe5b60200201518860098901601081106137ce57fe5b6020020151098c6146db565b60019092019161376d565b60008711156138ce5760001987890181015197019660001a91506138088a61470b565b601082111561386c576002601f8390030490506138678a6040805190810160405280898560088110151561383857fe5b602090810291909101515182520189856008811061385257fe5b6020020151600160200201518d039052614820565b6138c9565b60008211156138c957600260001983010490506138c98a6040805190810160405280898560088110151561389c57fe5b60209081029190910151518252018985600881106138b657fe5b6020020151600160200201519052614820565b6137e5565b50505050505050505092915050565b6000806138f1846002602002015184613949565b9150828015156138fd57fe5b82830990508280151561390c57fe5b845182900984528280151561391d57fe5b8380151561392757fe5b8284098560015b60200201510960208501525050600160409092019190915250565b60008080808080871580159061395f5750868814155b801561396a57508615155b151561397557600080fd5b8688111561398c57868881151561398857fe5b0697505b600193508692508791505b81156139c25781838115156139a857fe5b949594048581029094039391928383029003919050613997565b60008512156139d85784600003870395506139dc565b8495505b505050505092915050565b70014551231950b75fc4402da1732fc9bebe19607b820106600282815481101515613a0e57fe5b60009182526020909120015550565b806003811115613a2957fe5b60086000613a36856124b8565b81526020810191909152604001600020555050565b60015b6004548111613d7b578481815181101515613a6557fe5b90602001906020020151600182815481101515613a7e57fe5b60009182526020909120600590910201805491151560a060020a0274ff0000000000000000000000000000000000000000199092169190911790558351849082908110613ac757fe5b6020908102919091010151518451859083908110613ae157fe5b60209081029190910181015101516001805484908110613afd57fe5b600091825260208220600160059092020101016000600185815481101515613b2157fe5b600091825260209091206002600590920201019290925591909155508251839082908110613b4b57fe5b9060200190602002015160ff166003811115613b6357fe5b6001805483908110613b7157fe5b906000526020600020906005020160030160006101000a81548160ff02191690836003811115613b9d57fe5b02179055508181815181101515613bb057fe5b90602001906020020151600182815481101515613bc957fe5b906000526020600020906005020160040181905550807f03cf42e4797686930ef09f709f5bb470696c17d58255a88600d589f2090ba601600183815481101515613c0f57fe5b600091825260209091206005909102015460018054600160a060020a039092169185908110613c3a57fe5b906000526020600020906005020160000160149054906101000a900460ff166040805190810160405280600187815481101515613c7357fe5b60009182526020822060016005909202010101548152602001600187815481101515613c9b57fe5b600091825260209091206002600590920201015490526001805487908110613cbf57fe5b60009182526020909120600360059092020101546001805460ff9092169188908110613ce757fe5b9060005260206000209060050201600401546040518086600160a060020a0316600160a060020a031681526020018515151515815260200184600260200280838360005b83811015613d43578181015183820152602001613d2b565b50505050905001836003811115613d5657fe5b60ff1681526020018281526020019550505050505060405180910390a2600101613a4e565b5050505050565b60008060086000846000815181101515613d9857fe5b6020908102909101810151825281019190915260400160002055600160086000846001815181101515613dc757fe5b6020908102909101810151825281019190915260400160002055600160086000846002815181101515613df657fe5b6020908102909101810151825281019190915260400160002055600260086000846003815181101515613e2557fe5b60209081029091018101518252810191909152604001600020555060045b6004548111611886576003600860008484815181101515613e6057fe5b6020908102909101810151825281019190915260400160002055600101613e43565b601183905560128290556013805482919060ff19166001836006811115613ea557fe5b0217905550505050565b600160005b600454821161291a576001805483908110613ecb57fe5b60009182526020909120600590910201548351600160a060020a039091169150839083908110613ef757fe5b6020908102909101810151600160a060020a03831660009081526009909252604090912055600190910190613eb4565b600082607b148015613f3f5750602082015115156001145b9392505050565b600160a060020a038116600090815260076020526040812054600180549192918291829185908110613f7457fe5b600091825260208083206005909202909101805493151560a060020a0274ff00000000000000000000000000000000000000001990941693909317909255600160a060020a0386168152600f909152604090205491508190505b600e5460011901811161408757600e805460018301908110613fec57fe5b600091825260209091200154600e8054600160a060020a03909216918390811061401257fe5b9060005260206000200160006101000a815481600160a060020a030219169083600160a060020a03160217905550600f6000600e8381548110151561405357fe5b6000918252602080832090910154600160a060020a0316835282019290925260400190208054600019019055600101613fce565b600e80549061409a906000198301614aae565b50505050600160a060020a03166000908152600f6020526040812055565b6000808360038111156140c757fe5b14158015613f3f5750506101c814919050565b600160005b60045482116118865760018054839081106140f657fe5b600091825260209091206001600590920201810180548201815592019190506140df565b614122614aed565b6401000003d01960008080808080886002602002015115156141435761422d565b885160208a015190965094508680151561415957fe5b85860993508680151561416857fe5b8780151561417257fe5b85880960040992508680151561418457fe5b8780151561418e57fe5b8788096003099150868015156141a057fe5b878015156141aa57fe5b8485088803888015156141b957fe5b848509088089529050868015156141cc57fe5b878015156141d657fe5b888015156141e057fe5b8687096008098803888015156141f257fe5b898015156141fc57fe5b848b03870885090860208901528680151561421357fe5b8780151561421d57fe5b60408b0151870960020960408901525b50505050505050919050565b614241614aed565b600061424b614ad2565b614253614c27565b6000808080808a60026020020151151561428f57604080516060810182528b5181526020808d015190820152600191810191909152985061446d565b60208a015115156142a2578a985061446d565b60408b01516401000003d0199850889080098752878015156142c057fe5b875160408d015109602080890191909152604080516080810182528d5181528d830151928101929092528101898015156142f657fe5b89518d510981526020018980151561430a57fe5b6020808b0151908e015109905260408101518151919750141561435b57606086015160208701511461434c576000808c5260208c0181905260408c015261446d565b6143558b61411a565b5061446d565b8780151561436557fe5b86516040880151908a03900894508780151561437d57fe5b60208701516060880151908a03900893508780151561439857fe5b8586099250878015156143a757fe5b8584099150878015156143b657fe5b828903898015156143c357fe5b868709089050878015156143d357fe5b888015156143dd57fe5b898015156143e757fe5b885186900960020989038208808a5290508780151561440257fe5b8880151561440c57fe5b828a038a80151561441957fe5b895187900908850960208a01528780151561443057fe5b8880151561443a57fe5b602088015184900989038a600160200201510860208a01528780151561445c57fe5b60408c015186098960025b60200201525b505050505050505092915050565b614483614aed565b600061448d614c27565b614495614c27565b6000808080808a6002602002015115156144b15789985061446d565b60408a015115156144c4578a985061446d565b60408b01516401000003d0199850889080098752878015156144e257fe5b875160408d0151096020880152878015156144f957fe5b60408b0151800960408801528780151561450f57fe5b604080890151908c01510960608801526040805160808101909152808980151561453557fe5b60408a01518e510981526020018980151561454c57fe5b60608a015160208f01510981526020018980151561456657fe5b89518d510981526020018980151561457a57fe5b6020808b0151908e01510990526040810151815191975014156145bb5760608601516020870151146145ab5761446d565b6145b48b61411a565b985061446d565b878015156145c557fe5b86516040880151908a0390089450878015156145dd57fe5b60208701516060880151908a0390089350878015156145f857fe5b85860992508780151561460757fe5b85840991508780151561461657fe5b8289038980151561462357fe5b8687090890508780151561463357fe5b8880151561463d57fe5b8980151561464757fe5b885186900960020989038208808a5290508780151561466257fe5b8880151561466c57fe5b828a038a80151561467957fe5b895187900908850960208a01528780151561469057fe5b8880151561469a57fe5b602088015184900989038a600160200201510860208a0152878015156146bc57fe5b888015156146c657fe5b6040808d0151908e0151098609896002614467565b808015156146e557fe5b84518390098452808015156146f657fe5b8180151561470057fe5b83850985600161392e565b6401000003d019600080808080808760026020020151151561472c57614816565b8751602089015190965094508680151561474257fe5b85860993508680151561475157fe5b8780151561475b57fe5b85880960040992508680151561476d57fe5b8780151561477757fe5b87880960030991508680151561478957fe5b8780151561479357fe5b8485088803888015156147a257fe5b848509088089529050868015156147b557fe5b878015156147bf57fe5b888015156147c957fe5b8687096008098803888015156147db57fe5b898015156147e557fe5b848b0387088509086020890152868015156147fc57fe5b8780151561480657fe5b60408a0151870960020960408901525b5050505050505050565b600061482a614ad2565b614832614c27565b600080808080896001602002015115156148645788518a526020808a0151908b015260018a60025b6020020152614a38565b6020890151151561487457614a38565b60408a01516401000003d01998508890800987528780151561489257fe5b875160408c015109602080890191909152604080516080810182528c5181528c830151928101929092528101898015156148c857fe5b89518c51098152602001898015156148dc57fe5b6020808b0151908d015109905260408101518151919750141561492a57606086015160208701511461491c576000808b5260208b018190528a600261485a565b6149258a61470b565b614a38565b8780151561493457fe5b86516040880151908a03900894508780151561494c57fe5b60208701516060880151908a03900893508780151561496757fe5b85860992508780151561497657fe5b85840991508780151561498557fe5b8289038980151561499257fe5b868709089050878015156149a257fe5b888015156149ac57fe5b898015156149b657fe5b885186900960020989038208808b529050878015156149d157fe5b888015156149db57fe5b828a038a8015156149e857fe5b895187900908850960208b0152878015156149ff57fe5b88801515614a0957fe5b602088015184900989038b600160200201510860208b015287801515614a2b57fe5b60408b0151860960408b01525b50505050505050505050565b81548183558181111561291a5760050281600502836000526020600020918201910161291a9190614c46565b8260028101928215614a9e579160200282015b82811115614a9e578251825591602001919060010190614a83565b50614aaa929150614c9b565b5090565b81548183558181111561291a5760008381526020902061291a918101908301614c9b565b60408051808201825290600290829080388339509192915050565b6060604051908101604052806003906020820280388339509192915050565b81548183558181111561291a5760020281600202836000526020600020918201910161291a9190614cb5565b6040805160c08101825260008082526020820152908101614b57614ad2565b815260200160008152602001600081525090565b828054600181600116156101000203166002900490600052602060002090601f016020900481019282601f10614bac57805160ff1916838001178555614a9e565b82800160010185558215614a9e5791820182811115614a9e578251825591602001919060010190614a83565b610300604051908101604052806008905b614bf1614aed565b815260200190600190039081614be95790505090565b610200604051908101604052806010906020820280388339509192915050565b6080604051908101604052806004906020820280388339509192915050565b61260e91905b80821115614aaa57805474ffffffffffffffffffffffffffffffffffffffffff191681556000614c7f6001830182614cd8565b5060038101805460ff1916905560006004820155600501614c4c565b61260e91905b80821115614aaa5760008155600101614ca1565b61260e91905b80821115614aaa576000614ccf8282614cd8565b50600201614cbb565b5060008155600101600090555600a165627a7a723058208eb32f2df1fec255bc79b61d5dc1f1cc4d7df08215d80038573edb7ede795edb0029",
  "source": "pragma solidity ^0.4.7;\r\nimport \"./OrPoK.sol\";\r\n\r\ncontract SmartWerewolf {\r\n\t//parameters using bitcoin's curve (fixed for every game)\r\n\tuint constant p = 0xFFFFFFFFFFFFFFFFFFFFFFFFFFFFFFFFFFFFFFFFFFFFFFFFFFFFFFFEFFFFFC2F;\r\n\tuint constant Gx =0x79BE667EF9DCBBAC55A06295CE870B07029BFCDB2DCE28D959F2815B16F81798;\r\n\tuint constant Gy = 0x483ADA7726A3C4655DA4FBFC0E1108A8FD17B448A68554199C47D08FFB10D4B8;\r\n\tuint public constant q = 0xFFFFFFFFFFFFFFFFFFFFFFFFFFFFFFFEBAAEDCE6AF48A03BBFD25E8CD0364141;\r\n\tOrPoK processPoK; \r\n\r\n\t//bullet broad (fixed during 1 game)\r\n\tPlayer[] public players;\r\n\tuint[] MPC;\r\n\tuint[2][] public deck;\r\n\tuint public n;\r\n\tuint[2] G;\r\n\tmapping (address => uint) public playerNumOf;\r\n\tmapping(uint => uint) public roleOf;\r\n\tmapping(address => uint) public deposits;\r\n\r\n\t//up-to-date report (change in game)\r\n\tuint[4] public living;\r\n\taddress[] public livingPlayers;\r\n\tmapping(address => uint) public theLivingNumOf;\r\n\tstring public winner;\r\n\tTime gameClock;\r\n\t//-1. execute contract\r\n\r\n\tfunction SmartWerewolf(address addressPoK) public {\r\n\t\tprocessPoK = OrPoK(addressPoK);\r\n\t\tG[0] = Gx;\r\n\t\tG[1] = Gy;\r\n\t\tgameClock = Time({\r\n\t\t\troom: 0,\r\n\t\t\tday: -1,\r\n\t\t\tphase: GameIs.Awake\r\n\t\t});\r\n\t\temit ReportTime(0,-1, uint(GameIs.Awake));\r\n\t}\r\n\r\n\r\n\t//0. \r\n\r\n\tfunction quickDepositGame() external payable {\r\n\t\tdeposits[msg.sender] = msg.value;\r\n\t\temit Deposit(\r\n\t\t\tmsg.sender,\r\n\t\t\tdeposits[msg.sender]\r\n\t\t);\r\n\t\tgameClock.phase = GameIs.DepositsReady;\r\n\t\temit ReportTime(0, -1, uint(GameIs.DepositsReady));\r\n\t}\r\n\r\n\r\n\t//1.  (V)\r\n\r\n\tfunction engagement(address[] _players) public {\r\n\t\trequire(_players.length >= 6);\r\n\t\tn = _players.length;\r\n\t\tplayers.length = 1+ n;\r\n\t\tuint i;\r\n\t\tfor (i = 1; i <= n; i++) {\r\n\t\t\tplayers[i] = Player\r\n\t\t\t(\r\n\t\t\t{\r\n\t\t\t\tname: _players[ i-1 ],  \r\n\t\t\t\tlive: true, \r\n\t\t\t\thand: [uint(0),0], \r\n\t\t\t\trole: RoleTypes.Unseen,\r\n\t\t\t\tpokerKey: 0\r\n\t\t\t}\r\n\t\t\t); \r\n\t\t\tplayerNumOf[players[i].name] = i;\r\n\t\t}\r\n\r\n\t\tliving[uint(RoleTypes.Werewolf)]=2;\r\n\t\tliving[uint(RoleTypes.Seer)]=1;\r\n\t\tliving[uint(RoleTypes.Villager)]=n-3;\r\n\r\n\t\tlivingPlayers.length=n+1;\r\n\t\tfor(i=1;i<=n;i++){\r\n\t\t\tlivingPlayers[i]=players[i].name;\r\n\t\t\ttheLivingNumOf[players[i].name]=i;\r\n\t\t}\r\n\t}\r\n\r\n\tfunction quickEngagePlayers(address[] inPlayerNames) \r\n\t\tpublic \r\n\t{   \r\n\t\trequire(inPlayerNames.length >= 6);\r\n\t\tuint i;\r\n\t\tfor(i = 0; i<inPlayerNames.length; i++){\r\n\t\t\taddress p = inPlayerNames[i];\r\n\t\t\trequire(deposits[p]>=100);\r\n\t\t}\r\n\r\n\t\tn = inPlayerNames.length;\r\n\t\tplayers.length = 1+n;\r\n\r\n\t\tfor (i = 1; i <= n; i++) {\r\n\t\t\tplayers[i] = Player\r\n\t\t\t(\r\n\t\t\t\t{\r\n\t\t\t\t\tname: inPlayerNames[ i-1 ],  \r\n\t\t\t\t\tlive: true, \r\n\t\t\t\t\thand: [uint(0),0], \r\n\t\t\t\t\trole: RoleTypes.Unseen,\r\n\t\t\t\t\tpokerKey: 0\r\n\t\t\t\t}\r\n\t\t\t);\r\n\r\n\t\t\temit JoinPlayer(\r\n\t\t\t\t//for mapping\r\n\t\t\t\ti,\r\n\t\t\t\t//for players \r\n\t\t\t\tplayers[i].name, \r\n\t\t\t\tplayers[i].live, \r\n\t\t\t\t[uint((players[i].hand)[0]),(players[i].hand)[1]], \r\n\t\t\t\tplayers[i].role, \r\n\t\t\t\tplayers[i].pokerKey\r\n\t\t\t\t);\r\n\r\n\t\t\temit RegLivingPlayer(\r\n\t\t\t\ti,\r\n\t\t\t\tplayers[i].name\r\n\t\t\t\t);\r\n\t\t}\r\n\t\temit RegLivingRole([uint(0),2,1,n-3]);\r\n\t\temit PlayerReady(n);\r\n\t\tgameClock.room = 1;\r\n\t\tgameClock.phase = GameIs.PlayersReady;\r\n\t\temit ReportTime(1,-1, uint(GameIs.PlayersReady));\r\n\t}\r\n\r\n\r\n\t//2-1  (V)\r\n\r\n\t//(a)    \r\n\r\n\tfunction createCards() public {   \r\n\t\tMPC.length = deck.length = 1+n;\r\n\t\tfor(uint i=0; i <= n; i++ ){\r\n\t\t\tprepareDeck(i);\r\n\t\t}\r\n\t\tfor(i=0; i<=n; i++){\r\n\t\t\t(deck[i][0], deck[i][1]) = multiply(MPC[i], G);\r\n\t\t}\r\n\t\tgenerateMap(deck[0], RoleTypes.Unseen);\r\n\t\tgenerateMap(deck[1], RoleTypes.Werewolf);\r\n\t\tgenerateMap(deck[2], RoleTypes.Werewolf);\r\n\t\tgenerateMap(deck[3], RoleTypes.Seer);\r\n\t\tfor (uint j = 4; j <= n; j++) {\r\n\t\t\tgenerateMap(deck[j], RoleTypes.Villager);\r\n\t\t}\r\n\t}\r\n\r\n\tfunction quickCreateCard(\r\n\t\tuint i,\r\n\t\tuint inMPC\r\n\t\t) \r\n\t\texternal\r\n\t\tview \r\n\treturns(\r\n\t\tuint[2] outCard, \r\n\t\tuint cardNum, \r\n\t\tuint roleNum\r\n\t\t)\r\n\t{   \r\n\t\t(outCard[0], outCard[1]) = multiply(inMPC, G);\r\n\t\tRoleTypes outRole;\r\n\t\tif(i == 0){\r\n\t\t\toutRole = RoleTypes.Unseen;\r\n\t\t\t}else if(i==1||i==2){\r\n\t\t\t\toutRole = RoleTypes.Werewolf;\r\n\t\t\t\t}else if(i==3){\r\n\t\t\t\t\toutRole = RoleTypes.Seer;\r\n\t\t\t\t\t}else{\r\n\t\t\t\t\t\toutRole = RoleTypes.Villager;\r\n\t\t\t\t\t}\r\n\t\t(cardNum,roleNum)= quickGenerateMap(outCard, outRole);\r\n\t}\r\n\r\n\t//(b) \r\n\tfunction shuffleCards() public {\r\n\t\tuint printBack = 0x7717; \r\n\t\tfor(uint i=0; i<=n; i++){\r\n\t\t\t(deck[i][0], deck[i][1]) = multiply(printBack, deck[i]);\r\n\t\t}\r\n\t\tuint[2] memory tmp;\r\n\t\t(tmp[0], tmp[1]) = (deck[2][0], deck[2][1]);\r\n\t\t(deck[2][0], deck[2][1]) = (deck[5][0], deck[5][1]);\r\n\t\t(deck[5][0], deck[5][1]) = (tmp[0], tmp[1]);\r\n\t} \r\n\r\n\tfunction shuffleCardBy(\r\n\t\tuint i, \r\n\t\tuint pokerKey\r\n\t\t) \r\n\texternal\r\n\t{\r\n\t\t//encrypt each card\r\n\t\tuint printBack = pokerKey; \r\n\t\tfor(uint k=0; k<=n; k++){\r\n\t\t\t(deck[k][0], deck[k][1]) = multiply(printBack, deck[k]);\r\n\t\t}\r\n\t\t//support any shuffle\r\n\t}\r\n\r\n\tfunction quickShuffleCardBy(\r\n\t\tuint i, \r\n\t\tuint pokerKey, \r\n\t\tuint[2][] inDeck, \r\n\t\tuint numCards\r\n\t\t) \r\n\texternal \r\n\tview \r\n\treturns(uint[2][] outDeck){\r\n\t\t//encrypt each card\r\n\t\tif(pokerKey>q)\r\n\t\treturn;//user should check his key \r\n\t\tuint printBack = pokerKey;\r\n\t\toutDeck = new uint[2][](1+numCards); \r\n\t\tfor(uint k=0; k<=numCards; k++){\r\n\t\t\t(outDeck[k][0], outDeck[k][1]) = multiply(printBack, inDeck[k]);\r\n\t\t}\r\n\t\t//support any shuffle TODO: some shuffle\r\n\t}\r\n\r\n\r\n\t//2-2.  (V)\r\n\r\n\tfunction dealCards() public {\r\n\t\tfor(uint i=1; i<=n; i++){\r\n\t\t\t(players[i].hand[0], players[i].hand[1])  \r\n\t\t\t= (deck[i][0], deck[i][1]);\r\n\t\t}\r\n\t\thelpDecryptRole();\r\n\t}\r\n\r\n\tfunction dealCardTo(uint i) \r\n\texternal        \r\n\tview \r\n\treturns(uint[2] hand){\r\n\t\t(hand[0],hand[1])=(deck[i][0], deck[i][1]);\r\n\t}\r\n\r\n\t//3.  (V)\r\n\r\n\tfunction nightKill(address victimName, uint proofCanKill) public {\r\n\t\tuint v = playerNumOf[victimName];\r\n\t\tPlayer memory victim = players[v];\r\n\t\trequire (verify(proofCanKill, victim)==true);\r\n\t\tkilled(victimName);\r\n\t}\r\n\r\n\t//4. \r\n\r\n\tfunction dayVoting(address name) public {\r\n\r\n\t\tkilled(name);\r\n\r\n\t}\r\n\r\n\t//5. open \r\n\r\n\tfunction openRole(RoleTypes _role, uint _pokerKey) public {\r\n\t\trequire(verifyRole(_role, _pokerKey)==true);\r\n\t\tuint i = playerNumOf[msg.sender];\r\n\t\tplayers[i].role = _role;\r\n\t\tplayers[i].pokerKey=_pokerKey;\r\n\r\n\t\tliving[uint(_role)]--;\r\n\r\n\t\tif(living[uint(RoleTypes.Werewolf)]==living[uint(RoleTypes.Seer)]+living[uint(RoleTypes.Villager)]){\r\n\t\t\twinner = \"Werewolves\";\r\n\t\t}\r\n\t\telse if(living[uint(RoleTypes.Werewolf)]==0){\r\n\t\t\twinner = \"Humans\";\r\n\t\t}\r\n\t}\r\n\r\n\r\n\t//getter functions\r\n\r\n\tfunction multiply(uint s, uint[2] point) public view returns(uint ,uint){\r\n\t\tuint[3] memory result = Secp256k1_noconflict._mul(s, point);\r\n\t\tECCMath_noconflict.toZ1(result, p);\r\n\t\treturn (result[0],result[1]);\r\n\t}\r\n\r\n\tfunction checkRoleOf(uint[2] card) public view returns(uint) {return roleOf[cardToNumber(card)];}\r\n\r\n\tfunction getHandOf(address name) public view returns(uint[2] hand){\r\n\t\tuint i = playerNumOf[name];\r\n\t\t(hand[0] ,hand[1]) = ((players[i].hand)[0], (players[i].hand)[1]);\r\n\t}\r\n\r\n\tfunction numSurvive() public view returns(uint) {return livingPlayers.length-1;}\r\n\r\n\tfunction werewolfCard() \r\n\texternal \r\n\tview \r\n\treturns(uint cardX,uint cardY){\r\n\t\t(cardX, cardY) = (deck[1][0], deck[1][1]);\r\n\t}\r\n\r\n\tfunction cardToNumber(uint[2] card) public pure returns(uint){return uint(keccak256(card));}\r\n\r\n\tfunction cardOrder() public pure returns(uint) {return q;}\r\n\r\n\r\n\t//\r\n\r\n\tfunction werewolfFrameKilling(uint[2] framedHand, uint[2] _werewolfCard,  uint victim) public view returns(uint[2] __werewolfCard, uint[2] _framedHand, uint _victim, uint[3] T, uint c, uint s){\r\n\t\treturn processPoK.forgeProof(_werewolfCard, framedHand, victim);\r\n\t}\r\n\r\n\tfunction werewolfChooset(uint pokerKey, uint[2][] hands, uint[2] _werewolfCard, uint victim ) external view returns(uint realt){\r\n\r\n\t\treturn processPoK.computeRealt(_werewolfCard, hands, pokerKey, victim);\r\n\t}\r\n\r\n\tfunction werewolfComputeT(uint realt, uint[2] _werewolfCard) public view returns(uint[3] realT){\r\n\t\treturn processPoK.computeTFrom(realt, _werewolfCard);\r\n\t}\r\n\r\n\tfunction computeChallenge(uint[2] _werewolfCard, uint[2][] _hands, uint victim, uint[3][] Ts) public view returns(uint realChallenge){\r\n\t\treturn processPoK.computeChallenge(_werewolfCard, _hands, victim, Ts);\r\n\t}\r\n\r\n\tfunction werewolfProve(uint pokerKey, uint[2] _werewolfCard, uint[2] hand, uint victim, uint tReady,uint cReady) public view returns(uint[2] __werewolfCard, uint[2] _hand, uint _victim, uint[3] T, uint c, uint s){\r\n\t\treturn processPoK.createSchnorr(pokerKey, _werewolfCard, hand, victim, tReady, cReady);\r\n\t}\r\n\r\n\tfunction verifyWerewolfProof(uint[2] _werewolfCard, uint[2] hand,  uint[3] T, uint c, uint s) public view returns (bool result){\r\n\t\treturn processPoK.verifySchnorr(_werewolfCard, hand, T, c, s);\r\n\t}\r\n\r\n\r\n\t//\r\n\r\n\tfunction verify(uint proofCanKill, Player victim) pure internal returns(bool){\r\n\r\n\t\treturn proofCanKill == 123 && victim.live == true;\r\n\t}\r\n\r\n\r\n\t//Prepare cards\r\n\r\n\tfunction generateMap(uint[2] card, RoleTypes role) internal {\r\n\r\n\t\troleOf[cardToNumber(card)] = uint(role);\r\n\r\n\t}\r\n\r\n\tfunction quickGenerateMap(\r\n\t\tuint[2] card, \r\n\t\tRoleTypes role\r\n\t\t) \r\n\tpublic\r\n\tpure\r\n\treturns(\r\n\t\tuint cardNum,\r\n\t\tuint roleNum\r\n\t\t)\r\n\t{\r\n\t\treturn(\r\n\t\t\tuint(keccak256(card)),\r\n\t\t\tuint(role)\r\n\t\t\t);\r\n\t}\r\n\r\n\tfunction prepareDeck(uint i) internal {\r\n\r\n\t\tMPC[ i ] = (i+123) % q;\r\n\t\t//avoid use 0. function toZ1 revert at point at infinity\r\n\r\n\t}\r\n\r\n\tfunction quickPrepareDeck(uint i) public view returns(uint outMPC){\r\n\r\n\t\toutMPC = (i+123) % q;\r\n\t\t//avoid use 0. b/c function toZ1 revert at point at infinity\r\n\t\t//simulate hash function\r\n\t\t//apply MPC in the future\r\n\r\n\t}\r\n\r\n\r\n\t//\r\n\r\n\tfunction helpDecryptRole() internal {\r\n\t\tfor(uint i=1; i<=n; i++){\r\n\t\t\tuint[2] storage hand = players[i].hand;\r\n\t\t\thand[0] ++;\r\n\t\t} \r\n\t}\r\n\r\n\tfunction helpDecryptRole(uint me, uint keyInverse/*pokerKey*/, uint i, uint[2] cipherCard) external view returns (uint[2] decryptCard){\r\n\t\tif(me == i){\r\n\t\t\t(decryptCard[0], decryptCard[1]) = (cipherCard[0], cipherCard[1]);\r\n\t\t}else{\r\n\t\t\t//uint keyInverse = ECCMath_noconflict.invmod(pokerKey, q);\r\n\t\t\t(decryptCard[0],decryptCard[1]) = multiply(keyInverse, cipherCard);\r\n\t\t}\r\n\t}\r\n\r\n\tfunction recoverRole(uint me, uint keyInverse/*uint pokerKey*/, uint[2] cipherCard) external view returns (uint[2] decryptCard){\r\n\t\t(decryptCard[0],decryptCard[1]) = multiply(keyInverse, cipherCard);\r\n\t}\r\n\r\n\tfunction getDecryptKey(uint pokerKey) external view returns (uint keyInverse){\r\n\t\tkeyInverse = ECCMath_noconflict.invmod(pokerKey, q);\r\n\t}\r\n\r\n\t\t//\r\n\r\n\t\t\tfunction killed(address player) internal{\r\n\t\t\t\tuint i = playerNumOf[player];\r\n\t\t\t\tplayers[i].live=false;\r\n\t\t\t\tuint j= theLivingNumOf[player];\r\n\r\n\t\t\t\tfor(uint k=j; k<= livingPlayers.length-2 ; k++){\r\n\t\t\t\t\tlivingPlayers[k] = livingPlayers[k+1];\r\n\t\t\t\t\ttheLivingNumOf[livingPlayers[k]]--;\r\n\t\t\t\t}\r\n\t\t\t\tlivingPlayers.length--;\r\n\t\t\t\ttheLivingNumOf[player]=0;\r\n\t\t\t}\r\n\r\n\t\t\tfunction verifyRole(RoleTypes _role, uint _pokerKey) pure internal returns(bool){\r\n\r\n\t\t\t\treturn (_role!=RoleTypes.Unseen && _pokerKey==456);\r\n\r\n\t\t\t}\r\n\r\n\t/*\r\n\t//TODO\r\n\tfunction verifyRole(\r\n\t    uint[2] handFace, \r\n\t    uint pokerKey, \r\n\t    uint[2] handBack\r\n\t)\r\n\t    public\r\n\t    view\r\n\t    returns(bool)\r\n\t{\r\n\t    uint[2] memory claimHand;\r\n\t    (claimHand[0],claimHand[1]) = multiply(pokerKey,handFace);\r\n\r\n\t    return (handBack[0] == claimHand[0]) && (handBack[1] == claimHand[1]);\r\n\t}\r\n\t*/\r\n\tfunction accuse(\r\n\t\tbool[] currentLives,\r\n\t    uint[2][] currentHands,\r\n\t    uint8[] currentRoles,\r\n\t    uint[] currentPokerKeys,\r\n\t    uint[] currentCardNumbers,\r\n\t    uint currentRoom,\r\n\t    int currentDay,\r\n\t    GameIs currentPhase,\r\n\t    uint[] currentDeposits,\r\n\t    \r\n\t    bytes32 evidence,\r\n\t    \r\n\t    address suspect,\r\n\t\tuint8 v,\r\n\t\tbytes32 r,\r\n\t\tbytes32 s\r\n\r\n\t)\r\n\t\tpublic\r\n\t{\r\n\t\trequire(verifyStatesMessage(suspect, evidence, v, r, s));\r\n\t}\r\n\r\n\tfunction updateStates(\r\n\t\tbool[] currentLives,\r\n\t    uint[2][] currentHands,\r\n\t    uint8[] currentRoles,\r\n\t    uint[] currentPokerKeys,\r\n\t    uint[] currentCardNumbers,\r\n\t    uint currentRoom,\r\n\t    int currentDay,\r\n\t    GameIs currentPhase,\r\n\t    uint[] currentDeposits,\r\n\t    \r\n\t    bytes32 statesHash,\r\n\t    \r\n\t    address playerName,\r\n\t\tuint8 v,\r\n\t\tbytes32 r,\r\n\t\tbytes32 s\r\n\t)\r\n\t\tpublic\r\n\t{\r\n\t\t//other check, e,g, total deposits\r\n\t\trequire(verifyStatesHash(\r\n\t\t\tcurrentLives, \r\n\t\t\tcurrentHands, \r\n\t\t\tcurrentRoles, \r\n\t\t\tcurrentPokerKeys,\r\n\t\t\tcurrentCardNumbers,\r\n\t\t\tcurrentRoom,\r\n\t\t\tcurrentDay,\r\n\t\t\tcurrentPhase, \r\n\t\t\tcurrentDeposits,\r\n\t\t\tstatesHash\r\n\t\t\t) && verifyStatesMessage(playerName, statesHash, v, r, s)\r\n\t\t);\r\n\t\tupdatePlayers(currentLives, currentHands, currentRoles, currentPokerKeys);\r\n\t\tupdateRoleOfList(currentCardNumbers);\r\n\t\tupdateGameClock(currentRoom, currentDay, currentPhase);\r\n\t\tupdateDeposits(currentDeposits);\r\n\t}\r\n\r\n\tfunction updatePlayers(\r\n\t\t//address[] names,\r\n\t\tbool[] lives,\r\n\t\tuint[2][] hands,\r\n\t\tuint8[] roles,\r\n\t\tuint[] pokerKeys\r\n\t\t) \r\n\tinternal \r\n\t{\r\n\t\tfor(uint i=1;i<=n;i++){\r\n\t\t\tplayers[i].live = lives[i];\r\n\t\t\t(players[i].hand[0], players[i].hand[1])= (hands[i][0],hands[i][1]);\r\n\t\t\tplayers[i].role = RoleTypes(roles[i]);\r\n\t\t\tplayers[i].pokerKey = pokerKeys[i];\r\n\t\t\temit JoinPlayer(\r\n\t\t\t\t//for mapping\r\n\t\t\t\ti,\r\n\t\t\t\t//for players \r\n\t\t\t\tplayers[i].name, \r\n\t\t\t\tplayers[i].live, \r\n\t\t\t\t[uint((players[i].hand)[0]),(players[i].hand)[1]], \r\n\t\t\t\tplayers[i].role, \r\n\t\t\t\tplayers[i].pokerKey\r\n\t\t\t);\r\n\t\t}\r\n\t}\r\n\r\n\tfunction updateRoleOfList(\r\n\t\tuint[] currentCardNumbers\r\n\t\t) \r\n\tinternal \r\n\t{\r\n\t\troleOf[currentCardNumbers[0]] = uint(RoleTypes.Unseen);\r\n\t\troleOf[currentCardNumbers[1]] = uint(RoleTypes.Werewolf);\r\n\t\troleOf[currentCardNumbers[2]] = uint(RoleTypes.Werewolf);\r\n\t\troleOf[currentCardNumbers[3]] = uint(RoleTypes.Seer);\r\n\t\tfor (uint j = 4; j <= n; j++) {\r\n\t\t\troleOf[currentCardNumbers[j]] = uint(RoleTypes.Villager);\r\n\t\t}\r\n\t}\r\n\r\n\tfunction updateGameClock(\r\n\t\tuint currentRoom,\r\n\t\tint currentDay, \r\n\t\tGameIs currentPhase \r\n\t\t) \r\n\tinternal \r\n\t{\r\n\t\tgameClock.room = currentRoom;\r\n\t\tgameClock.day = currentDay;\r\n\t\tgameClock.phase = currentPhase;\r\n\t}\r\n\r\n\tfunction updateDeposits(\r\n\t\tuint[] currentDeposits\r\n\t\t) \r\n\tinternal \r\n\t{\r\n\t\tfor(uint i=1;i<=n;i++){\r\n\t\t\taddress p = players[i].name;\r\n\t\t\tdeposits[p] = currentDeposits[i];\r\n\t\t}\r\n\t}\r\n\r\n\tfunction quickHashStates(\r\n\t\tbool[] currentLives,\r\n\t\tuint[2][] currentHands,\r\n\t\tuint8[] currentRoles,\r\n\t\tuint[] currentPokerKeys,\r\n\r\n\t\tuint[] currentCardNumbers,\r\n\r\n\t\tuint currentRoom,\r\n\t\tint currentDay,\r\n\t\tGameIs currentPhase,\r\n\r\n\t\tuint[] currentDeposits\r\n\t\t)\r\n\tpublic \r\n\tview \r\n\treturns(bytes32 statesHash)\r\n\t{\r\n\t\tstatesHash = \r\n\t\t\tkeccak256(\r\n\t\t\t\tcurrentLives,\r\n\t\t\t\tcurrentHands,\r\n\t\t\t\tcurrentRoles,\r\n\t\t\t\tcurrentPokerKeys,\r\n\t\t\t\tcurrentCardNumbers,\r\n\t\t\t\tcurrentRoom,\r\n\t\t\t\tcurrentDay,\r\n\t\t\t\tcurrentPhase,\r\n\t\t\t\tcurrentDeposits\r\n\t\t\t);\r\n\t}\r\n\r\n\tfunction verifyStatesHash(\r\n\t\tbool[] currentLives,\r\n\t\tuint[2][] currentHands,\r\n\t\tuint8[] currentRoles,\r\n\t\tuint[] currentPokerKeys,\r\n\r\n\t\tuint[] currentCardNumbers,\r\n\r\n\t\tuint currentRoom,\r\n\t\tint currentDay,\r\n\t\tGameIs currentPhase,\r\n\r\n\t\tuint[] currentDeposits,\r\n\r\n\t\tbytes32 statesHash\r\n\t\t)\r\n\tpublic/*internal*/ \r\n\tview\r\n\treturns(bool result)\r\n\t{\r\n\t\tbytes32 verifierHash = quickHashStates(\r\n\t\t\tcurrentLives,\r\n\t\t\tcurrentHands,\r\n\t\t\tcurrentRoles,\r\n\t\t\tcurrentPokerKeys,\r\n\t\t\tcurrentCardNumbers,\r\n\t\t\tcurrentRoom,\r\n\t\t\tcurrentDay,\r\n\t\t\tcurrentPhase,\r\n\t\t\tcurrentDeposits\r\n\t\t\t);\r\n\t\treturn (statesHash == verifierHash);\r\n\t}\r\n\r\n\tfunction verifyStatesMessage(\r\n\t\taddress playerName,\r\n\t\tbytes32 statesMessage,\r\n\t\tuint8 v,\r\n\t\tbytes32 r,\r\n\t\tbytes32 s\r\n\t\t)\r\n\tpublic \r\n\tview \r\n\treturns(bool)\r\n\t{\r\n\t\t/*bytes memory prefix = \"\\x19Ethereum Signed Message:\\n32\";\r\n        statesMessage = keccak256(prefix, statesMessage);\r\n\t\treturn ecrecover(statesMessage,v,r,s) == playerName;*/\r\n\t\treturn verifyMessage(playerName, statesMessage, v,r,s);\r\n\t}\r\n\r\n\tfunction verifyMessage(\r\n\t\taddress name,\r\n\t\tbytes32 message,\r\n\t\tuint8 v,\r\n\t\tbytes32 r,\r\n\t\tbytes32 s\r\n\t\t)\r\n\tpublic \r\n\tview \r\n\treturns(bool)\r\n\t{\r\n\t\tbytes memory prefix = \"\\x19Ethereum Signed Message:\\n32\";\r\n        //statesMessage = keccak256(prefix, message);\r\n\t\treturn ecrecover(message,v,r,s) == name;\r\n\t}\r\n\r\n\r\n\r\n\tenum RoleTypes{Unseen, Werewolf, Seer, Villager}\r\n\r\n\tenum GameIs { Sleep, Awake, DepositsReady, PlayersReady, CardsReady, Night, Day}//executeOnChain, PrepareDeposits, InitPlayers, AssignRoles, Night, Day}\r\n\r\n\tstruct Player{\r\n\t\taddress name;\r\n\t\tbool live;\r\n\t\tuint[2] hand;\r\n\t\tRoleTypes role;\r\n\t\tuint pokerKey;\r\n\t}\r\n\r\n\r\n\tstruct KillConditions{\r\n\t\tuint iAmWerewolf;\r\n\t\tuint iAmLive;\r\n\t\tuint victimLive;\r\n\t}\r\n\r\n\tstruct Time{\r\n\t\tuint room;\r\n\t\tint day;\r\n\t\tGameIs phase;\r\n\t\t//PlayersAre playerEvent;\r\n\t}\r\n\tevent debug(uint i);\r\n\t\r\n\tevent ReportTime(uint currentRoom, int currentDay, uint currentPhase);\r\n\r\n\tevent JoinPlayer(\r\n\t\tuint indexed outPlayerNum,\r\n\t\taddress outPlayerName,\r\n\t\tbool outPlayerLive,\r\n\t\tuint[2] outPlayerHand,\r\n\t\tRoleTypes outPlayerRole,\r\n\t\tuint outPlayerKey\r\n\t\t);\r\n\r\n\tevent Deposit(\r\n\t\taddress indexed outPlayerName,\r\n\t\tuint outValue\r\n\t\t);\r\n\r\n\tevent PlayerReady(uint numPlayers);\r\n\r\n\tevent RegLivingPlayer(uint indexed livingPlayerNum, address livingPlayerName);\r\n\r\n\tevent RegLivingRole(uint[4] outLiving);\r\n}",
  "sourcePath": "C:\\Users\\eason\\Documents\\GitHub\\SmartWerewolf\\contracts\\SmartWerewolf.sol",
  "compiler": {
    "name": "solc",
    "version": "0.4.23+commit.124ca40d.Emscripten.clang"
  },
  "schemaVersion": "2.0.0",
  "updatedAt": "2018-10-02T14:27:28.679Z"
}