{
  "contractName": "SmartWerewolf",
  "abi": [
    {
      "constant": true,
      "inputs": [],
      "name": "n",
      "outputs": [
        {
          "name": "",
          "type": "uint256"
        }
      ],
      "payable": false,
      "stateMutability": "view",
      "type": "function"
    },
    {
      "constant": true,
      "inputs": [
        {
          "name": "",
          "type": "address"
        }
      ],
      "name": "playerNumOf",
      "outputs": [
        {
          "name": "",
          "type": "uint256"
        }
      ],
      "payable": false,
      "stateMutability": "view",
      "type": "function"
    },
    {
      "constant": true,
      "inputs": [
        {
          "name": "",
          "type": "address"
        }
      ],
      "name": "theLivingNumOf",
      "outputs": [
        {
          "name": "",
          "type": "uint256"
        }
      ],
      "payable": false,
      "stateMutability": "view",
      "type": "function"
    },
    {
      "constant": true,
      "inputs": [
        {
          "name": "",
          "type": "uint256"
        }
      ],
      "name": "roleOf",
      "outputs": [
        {
          "name": "",
          "type": "uint256"
        }
      ],
      "payable": false,
      "stateMutability": "view",
      "type": "function"
    },
    {
      "constant": true,
      "inputs": [
        {
          "name": "",
          "type": "uint256"
        },
        {
          "name": "",
          "type": "uint256"
        }
      ],
      "name": "deck",
      "outputs": [
        {
          "name": "",
          "type": "uint256"
        }
      ],
      "payable": false,
      "stateMutability": "view",
      "type": "function"
    },
    {
      "constant": true,
      "inputs": [
        {
          "name": "",
          "type": "uint256"
        }
      ],
      "name": "livingPlayers",
      "outputs": [
        {
          "name": "",
          "type": "address"
        }
      ],
      "payable": false,
      "stateMutability": "view",
      "type": "function"
    },
    {
      "constant": true,
      "inputs": [],
      "name": "winner",
      "outputs": [
        {
          "name": "",
          "type": "string"
        }
      ],
      "payable": false,
      "stateMutability": "view",
      "type": "function"
    },
    {
      "constant": true,
      "inputs": [
        {
          "name": "",
          "type": "uint256"
        }
      ],
      "name": "living",
      "outputs": [
        {
          "name": "",
          "type": "uint256"
        }
      ],
      "payable": false,
      "stateMutability": "view",
      "type": "function"
    },
    {
      "constant": true,
      "inputs": [
        {
          "name": "",
          "type": "uint256"
        }
      ],
      "name": "players",
      "outputs": [
        {
          "name": "name",
          "type": "address"
        },
        {
          "name": "live",
          "type": "bool"
        },
        {
          "name": "role",
          "type": "uint8"
        },
        {
          "name": "pokerKey",
          "type": "uint256"
        }
      ],
      "payable": false,
      "stateMutability": "view",
      "type": "function"
    },
    {
      "constant": true,
      "inputs": [
        {
          "name": "",
          "type": "address"
        }
      ],
      "name": "deposits",
      "outputs": [
        {
          "name": "",
          "type": "uint256"
        }
      ],
      "payable": false,
      "stateMutability": "view",
      "type": "function"
    },
    {
      "constant": true,
      "inputs": [],
      "name": "q",
      "outputs": [
        {
          "name": "",
          "type": "uint256"
        }
      ],
      "payable": false,
      "stateMutability": "view",
      "type": "function"
    },
    {
      "inputs": [
        {
          "name": "addressPoK",
          "type": "address"
        }
      ],
      "payable": false,
      "stateMutability": "nonpayable",
      "type": "constructor"
    },
    {
      "anonymous": false,
      "inputs": [
        {
          "indexed": false,
          "name": "i",
          "type": "uint256"
        }
      ],
      "name": "debug",
      "type": "event"
    },
    {
      "anonymous": false,
      "inputs": [
        {
          "indexed": false,
          "name": "currentRoom",
          "type": "uint256"
        },
        {
          "indexed": false,
          "name": "currentDay",
          "type": "int256"
        },
        {
          "indexed": false,
          "name": "currentPhase",
          "type": "uint256"
        }
      ],
      "name": "ReportTime",
      "type": "event"
    },
    {
      "anonymous": false,
      "inputs": [
        {
          "indexed": true,
          "name": "outPlayerNum",
          "type": "uint256"
        },
        {
          "indexed": false,
          "name": "outPlayerName",
          "type": "address"
        },
        {
          "indexed": false,
          "name": "outPlayerLive",
          "type": "bool"
        },
        {
          "indexed": false,
          "name": "outPlayerHand",
          "type": "uint256[2]"
        },
        {
          "indexed": false,
          "name": "outPlayerRole",
          "type": "uint8"
        },
        {
          "indexed": false,
          "name": "outPlayerKey",
          "type": "uint256"
        }
      ],
      "name": "JoinPlayer",
      "type": "event"
    },
    {
      "anonymous": false,
      "inputs": [
        {
          "indexed": true,
          "name": "outPlayerName",
          "type": "address"
        },
        {
          "indexed": false,
          "name": "outValue",
          "type": "uint256"
        }
      ],
      "name": "Deposit",
      "type": "event"
    },
    {
      "anonymous": false,
      "inputs": [
        {
          "indexed": false,
          "name": "numPlayers",
          "type": "uint256"
        }
      ],
      "name": "PlayerReady",
      "type": "event"
    },
    {
      "anonymous": false,
      "inputs": [
        {
          "indexed": true,
          "name": "livingPlayerNum",
          "type": "uint256"
        },
        {
          "indexed": false,
          "name": "livingPlayerName",
          "type": "address"
        }
      ],
      "name": "RegLivingPlayer",
      "type": "event"
    },
    {
      "anonymous": false,
      "inputs": [
        {
          "indexed": false,
          "name": "outLiving",
          "type": "uint256[4]"
        }
      ],
      "name": "RegLivingRole",
      "type": "event"
    },
    {
      "constant": false,
      "inputs": [],
      "name": "quickDepositGame",
      "outputs": [],
      "payable": true,
      "stateMutability": "payable",
      "type": "function"
    },
    {
      "constant": false,
      "inputs": [
        {
          "name": "_players",
          "type": "address[]"
        }
      ],
      "name": "engagement",
      "outputs": [],
      "payable": false,
      "stateMutability": "nonpayable",
      "type": "function"
    },
    {
      "constant": false,
      "inputs": [
        {
          "name": "inPlayerNames",
          "type": "address[]"
        }
      ],
      "name": "quickEngagePlayers",
      "outputs": [],
      "payable": false,
      "stateMutability": "nonpayable",
      "type": "function"
    },
    {
      "constant": false,
      "inputs": [],
      "name": "createCards",
      "outputs": [],
      "payable": false,
      "stateMutability": "nonpayable",
      "type": "function"
    },
    {
      "constant": true,
      "inputs": [
        {
          "name": "i",
          "type": "uint256"
        },
        {
          "name": "inMPC",
          "type": "uint256"
        }
      ],
      "name": "quickCreateCard",
      "outputs": [
        {
          "name": "outCard",
          "type": "uint256[2]"
        },
        {
          "name": "cardNum",
          "type": "uint256"
        },
        {
          "name": "roleNum",
          "type": "uint256"
        }
      ],
      "payable": false,
      "stateMutability": "view",
      "type": "function"
    },
    {
      "constant": false,
      "inputs": [],
      "name": "shuffleCards",
      "outputs": [],
      "payable": false,
      "stateMutability": "nonpayable",
      "type": "function"
    },
    {
      "constant": false,
      "inputs": [
        {
          "name": "i",
          "type": "uint256"
        },
        {
          "name": "pokerKey",
          "type": "uint256"
        }
      ],
      "name": "shuffleCardBy",
      "outputs": [],
      "payable": false,
      "stateMutability": "nonpayable",
      "type": "function"
    },
    {
      "constant": true,
      "inputs": [
        {
          "name": "i",
          "type": "uint256"
        },
        {
          "name": "pokerKey",
          "type": "uint256"
        },
        {
          "name": "inDeck",
          "type": "uint256[2][]"
        },
        {
          "name": "numCards",
          "type": "uint256"
        }
      ],
      "name": "quickShuffleCardBy",
      "outputs": [
        {
          "name": "outDeck",
          "type": "uint256[2][]"
        }
      ],
      "payable": false,
      "stateMutability": "view",
      "type": "function"
    },
    {
      "constant": false,
      "inputs": [],
      "name": "dealCards",
      "outputs": [],
      "payable": false,
      "stateMutability": "nonpayable",
      "type": "function"
    },
    {
      "constant": true,
      "inputs": [
        {
          "name": "i",
          "type": "uint256"
        }
      ],
      "name": "dealCardTo",
      "outputs": [
        {
          "name": "hand",
          "type": "uint256[2]"
        }
      ],
      "payable": false,
      "stateMutability": "view",
      "type": "function"
    },
    {
      "constant": false,
      "inputs": [
        {
          "name": "victimName",
          "type": "address"
        },
        {
          "name": "proofCanKill",
          "type": "uint256"
        }
      ],
      "name": "nightKill",
      "outputs": [],
      "payable": false,
      "stateMutability": "nonpayable",
      "type": "function"
    },
    {
      "constant": false,
      "inputs": [
        {
          "name": "name",
          "type": "address"
        }
      ],
      "name": "dayVoting",
      "outputs": [],
      "payable": false,
      "stateMutability": "nonpayable",
      "type": "function"
    },
    {
      "constant": false,
      "inputs": [
        {
          "name": "_role",
          "type": "uint8"
        },
        {
          "name": "_pokerKey",
          "type": "uint256"
        }
      ],
      "name": "openRole",
      "outputs": [],
      "payable": false,
      "stateMutability": "nonpayable",
      "type": "function"
    },
    {
      "constant": true,
      "inputs": [
        {
          "name": "s",
          "type": "uint256"
        },
        {
          "name": "point",
          "type": "uint256[2]"
        }
      ],
      "name": "multiply",
      "outputs": [
        {
          "name": "",
          "type": "uint256"
        },
        {
          "name": "",
          "type": "uint256"
        }
      ],
      "payable": false,
      "stateMutability": "view",
      "type": "function"
    },
    {
      "constant": true,
      "inputs": [
        {
          "name": "card",
          "type": "uint256[2]"
        }
      ],
      "name": "checkRoleOf",
      "outputs": [
        {
          "name": "",
          "type": "uint256"
        }
      ],
      "payable": false,
      "stateMutability": "view",
      "type": "function"
    },
    {
      "constant": true,
      "inputs": [
        {
          "name": "name",
          "type": "address"
        }
      ],
      "name": "getHandOf",
      "outputs": [
        {
          "name": "hand",
          "type": "uint256[2]"
        }
      ],
      "payable": false,
      "stateMutability": "view",
      "type": "function"
    },
    {
      "constant": true,
      "inputs": [],
      "name": "numSurvive",
      "outputs": [
        {
          "name": "",
          "type": "uint256"
        }
      ],
      "payable": false,
      "stateMutability": "view",
      "type": "function"
    },
    {
      "constant": true,
      "inputs": [],
      "name": "werewolfCard",
      "outputs": [
        {
          "name": "cardX",
          "type": "uint256"
        },
        {
          "name": "cardY",
          "type": "uint256"
        }
      ],
      "payable": false,
      "stateMutability": "view",
      "type": "function"
    },
    {
      "constant": true,
      "inputs": [
        {
          "name": "card",
          "type": "uint256[2]"
        }
      ],
      "name": "cardToNumber",
      "outputs": [
        {
          "name": "",
          "type": "uint256"
        }
      ],
      "payable": false,
      "stateMutability": "pure",
      "type": "function"
    },
    {
      "constant": true,
      "inputs": [],
      "name": "cardOrder",
      "outputs": [
        {
          "name": "",
          "type": "uint256"
        }
      ],
      "payable": false,
      "stateMutability": "pure",
      "type": "function"
    },
    {
      "constant": true,
      "inputs": [
        {
          "name": "framedHand",
          "type": "uint256[2]"
        },
        {
          "name": "_werewolfCard",
          "type": "uint256[2]"
        },
        {
          "name": "victim",
          "type": "uint256"
        }
      ],
      "name": "werewolfFrameKilling",
      "outputs": [
        {
          "name": "__werewolfCard",
          "type": "uint256[2]"
        },
        {
          "name": "_framedHand",
          "type": "uint256[2]"
        },
        {
          "name": "_victim",
          "type": "uint256"
        },
        {
          "name": "T",
          "type": "uint256[3]"
        },
        {
          "name": "c",
          "type": "uint256"
        },
        {
          "name": "s",
          "type": "uint256"
        }
      ],
      "payable": false,
      "stateMutability": "view",
      "type": "function"
    },
    {
      "constant": true,
      "inputs": [
        {
          "name": "pokerKey",
          "type": "uint256"
        },
        {
          "name": "hands",
          "type": "uint256[2][]"
        },
        {
          "name": "_werewolfCard",
          "type": "uint256[2]"
        },
        {
          "name": "victim",
          "type": "uint256"
        }
      ],
      "name": "werewolfChooset",
      "outputs": [
        {
          "name": "realt",
          "type": "uint256"
        }
      ],
      "payable": false,
      "stateMutability": "view",
      "type": "function"
    },
    {
      "constant": true,
      "inputs": [
        {
          "name": "realt",
          "type": "uint256"
        },
        {
          "name": "_werewolfCard",
          "type": "uint256[2]"
        }
      ],
      "name": "werewolfComputeT",
      "outputs": [
        {
          "name": "realT",
          "type": "uint256[3]"
        }
      ],
      "payable": false,
      "stateMutability": "view",
      "type": "function"
    },
    {
      "constant": true,
      "inputs": [
        {
          "name": "_werewolfCard",
          "type": "uint256[2]"
        },
        {
          "name": "_hands",
          "type": "uint256[2][]"
        },
        {
          "name": "victim",
          "type": "uint256"
        },
        {
          "name": "Ts",
          "type": "uint256[3][]"
        }
      ],
      "name": "computeChallenge",
      "outputs": [
        {
          "name": "realChallenge",
          "type": "uint256"
        }
      ],
      "payable": false,
      "stateMutability": "view",
      "type": "function"
    },
    {
      "constant": true,
      "inputs": [
        {
          "name": "pokerKey",
          "type": "uint256"
        },
        {
          "name": "_werewolfCard",
          "type": "uint256[2]"
        },
        {
          "name": "hand",
          "type": "uint256[2]"
        },
        {
          "name": "victim",
          "type": "uint256"
        },
        {
          "name": "tReady",
          "type": "uint256"
        },
        {
          "name": "cReady",
          "type": "uint256"
        }
      ],
      "name": "werewolfProve",
      "outputs": [
        {
          "name": "__werewolfCard",
          "type": "uint256[2]"
        },
        {
          "name": "_hand",
          "type": "uint256[2]"
        },
        {
          "name": "_victim",
          "type": "uint256"
        },
        {
          "name": "T",
          "type": "uint256[3]"
        },
        {
          "name": "c",
          "type": "uint256"
        },
        {
          "name": "s",
          "type": "uint256"
        }
      ],
      "payable": false,
      "stateMutability": "view",
      "type": "function"
    },
    {
      "constant": true,
      "inputs": [
        {
          "name": "_werewolfCard",
          "type": "uint256[2]"
        },
        {
          "name": "hand",
          "type": "uint256[2]"
        },
        {
          "name": "T",
          "type": "uint256[3]"
        },
        {
          "name": "c",
          "type": "uint256"
        },
        {
          "name": "s",
          "type": "uint256"
        }
      ],
      "name": "verifyWerewolfProof",
      "outputs": [
        {
          "name": "result",
          "type": "bool"
        }
      ],
      "payable": false,
      "stateMutability": "view",
      "type": "function"
    },
    {
      "constant": true,
      "inputs": [
        {
          "name": "card",
          "type": "uint256[2]"
        },
        {
          "name": "role",
          "type": "uint8"
        }
      ],
      "name": "quickGenerateMap",
      "outputs": [
        {
          "name": "cardNum",
          "type": "uint256"
        },
        {
          "name": "roleNum",
          "type": "uint256"
        }
      ],
      "payable": false,
      "stateMutability": "pure",
      "type": "function"
    },
    {
      "constant": true,
      "inputs": [
        {
          "name": "i",
          "type": "uint256"
        }
      ],
      "name": "quickPrepareDeck",
      "outputs": [
        {
          "name": "outMPC",
          "type": "uint256"
        }
      ],
      "payable": false,
      "stateMutability": "view",
      "type": "function"
    },
    {
      "constant": true,
      "inputs": [
        {
          "name": "me",
          "type": "uint256"
        },
        {
          "name": "keyInverse",
          "type": "uint256"
        },
        {
          "name": "i",
          "type": "uint256"
        },
        {
          "name": "cipherCard",
          "type": "uint256[2]"
        }
      ],
      "name": "helpDecryptRole",
      "outputs": [
        {
          "name": "decryptCard",
          "type": "uint256[2]"
        }
      ],
      "payable": false,
      "stateMutability": "view",
      "type": "function"
    },
    {
      "constant": true,
      "inputs": [
        {
          "name": "me",
          "type": "uint256"
        },
        {
          "name": "keyInverse",
          "type": "uint256"
        },
        {
          "name": "cipherCard",
          "type": "uint256[2]"
        }
      ],
      "name": "recoverRole",
      "outputs": [
        {
          "name": "decryptCard",
          "type": "uint256[2]"
        }
      ],
      "payable": false,
      "stateMutability": "view",
      "type": "function"
    },
    {
      "constant": true,
      "inputs": [
        {
          "name": "pokerKey",
          "type": "uint256"
        }
      ],
      "name": "getDecryptKey",
      "outputs": [
        {
          "name": "keyInverse",
          "type": "uint256"
        }
      ],
      "payable": false,
      "stateMutability": "view",
      "type": "function"
    },
    {
      "constant": false,
      "inputs": [
        {
          "name": "currentLives",
          "type": "bool[]"
        },
        {
          "name": "currentHands",
          "type": "uint256[2][]"
        },
        {
          "name": "currentRoles",
          "type": "uint8[]"
        },
        {
          "name": "currentPokerKeys",
          "type": "uint256[]"
        },
        {
          "name": "currentCardNumbers",
          "type": "uint256[]"
        },
        {
          "name": "currentRoom",
          "type": "uint256"
        },
        {
          "name": "currentDay",
          "type": "int256"
        },
        {
          "name": "currentPhase",
          "type": "uint8"
        },
        {
          "name": "currentDeposits",
          "type": "uint256[]"
        },
        {
          "name": "statesHash",
          "type": "bytes32"
        },
        {
          "name": "playerName",
          "type": "address"
        },
        {
          "name": "v",
          "type": "uint8"
        },
        {
          "name": "r",
          "type": "bytes32"
        },
        {
          "name": "s",
          "type": "bytes32"
        }
      ],
      "name": "updateStates",
      "outputs": [],
      "payable": false,
      "stateMutability": "nonpayable",
      "type": "function"
    },
    {
      "constant": true,
      "inputs": [
        {
          "name": "currentLives",
          "type": "bool[]"
        },
        {
          "name": "currentHands",
          "type": "uint256[2][]"
        },
        {
          "name": "currentRoles",
          "type": "uint8[]"
        },
        {
          "name": "currentPokerKeys",
          "type": "uint256[]"
        },
        {
          "name": "currentCardNumbers",
          "type": "uint256[]"
        },
        {
          "name": "currentRoom",
          "type": "uint256"
        },
        {
          "name": "currentDay",
          "type": "int256"
        },
        {
          "name": "currentPhase",
          "type": "uint8"
        },
        {
          "name": "currentDeposits",
          "type": "uint256[]"
        }
      ],
      "name": "quickHashStates",
      "outputs": [
        {
          "name": "statesHash",
          "type": "bytes32"
        }
      ],
      "payable": false,
      "stateMutability": "view",
      "type": "function"
    },
    {
      "constant": true,
      "inputs": [
        {
          "name": "currentLives",
          "type": "bool[]"
        },
        {
          "name": "currentHands",
          "type": "uint256[2][]"
        },
        {
          "name": "currentRoles",
          "type": "uint8[]"
        },
        {
          "name": "currentPokerKeys",
          "type": "uint256[]"
        },
        {
          "name": "currentCardNumbers",
          "type": "uint256[]"
        },
        {
          "name": "currentRoom",
          "type": "uint256"
        },
        {
          "name": "currentDay",
          "type": "int256"
        },
        {
          "name": "currentPhase",
          "type": "uint8"
        },
        {
          "name": "currentDeposits",
          "type": "uint256[]"
        },
        {
          "name": "statesHash",
          "type": "bytes32"
        }
      ],
      "name": "verifyStatesHash",
      "outputs": [
        {
          "name": "result",
          "type": "bool"
        }
      ],
      "payable": false,
      "stateMutability": "view",
      "type": "function"
    },
    {
      "constant": true,
      "inputs": [
        {
          "name": "playerName",
          "type": "address"
        },
        {
          "name": "statesMessage",
          "type": "bytes32"
        },
        {
          "name": "v",
          "type": "uint8"
        },
        {
          "name": "r",
          "type": "bytes32"
        },
        {
          "name": "s",
          "type": "bytes32"
        }
      ],
      "name": "verifyStatesMessage",
      "outputs": [
        {
          "name": "",
          "type": "address"
        }
      ],
      "payable": false,
      "stateMutability": "view",
      "type": "function"
    },
    {
      "constant": false,
      "inputs": [
        {
          "name": "stateMessage",
          "type": "bytes"
        }
      ],
      "name": "verifyStates",
      "outputs": [],
      "payable": false,
      "stateMutability": "nonpayable",
      "type": "function"
    }
  ],
  "bytecode": "0x608060405234801561001057600080fd5b50604051602080614a94833981016040818152915160008054600160a060020a031916600160a060020a0383161781557f79be667ef9dcbbac55a06295ce870b07029bfcdb2dce28d959f2815b16f817986005557f483ada7726a3c4655da4fbfc0e1108a8fd17b448a68554199c47d08ffb10d4b86006556060808401855281845260001960208086018290526001958701869052601184905560128290556013805460ff191687179055865193845283015281850193909352925190927fecda9de1c3110aef92de159ece4e03e04a01187fa041f9be243f1c8beda20b1292908290030190a15061498d806101076000396000f3006080604052600436106102215763ffffffff60e060020a60003504166301e9963e8114610226578063076d9680146103f857806307f7470b1461044f578063087c3222146104f45780630cbee0e3146106b6578063137caec6146107c357806314a9a1211461081c57806320daacd6146108785780632e52d60614610890578063313ffac1146108a55780633e5a438d146108ce578063474ab93c146109405780634ef3ea741461095b57806352f9aaea1461097c57806354054cd5146109d8578063568bd63e146109f957806358801f1714610a0e5780635c56e50814610a235780636b1e52f414610a3857806372b1d8cf14610c1b5780638488626914610c33578063869624fa14610c4b5780638c3b02d814610c8b5780638c785f8814610d275780639a01967814610d3c578063a15352d514610d60578063a4f195aa14610d68578063ab27783314610d86578063acb2c01a14610da6578063ad3b99a414610dbb578063b77d126814610e10578063c0cb6b2414610f31578063c52e3e4a14610f89578063d34544cd14610fa1578063d5b1de7e14610fbc578063d6ffa29a14610ffc578063d9e0bf4e14611011578063dfbf53ae14611045578063eb288081146110cf578063eb47688c146110e7578063f292c21514611104578063f4d40d2614611149578063f6ac71cd146111ab578063f71d96cb146111cc578063f9f0ca4914611228578063fc7e286d14611258578063fd3ab28214611279575b600080fd5b34801561023257600080fd5b50604080516020600480358082013583810280860185019096528085526103e6953695939460249493850192918291850190849080828437505060408051873589018035602081810284018101909452808352979a999883019791965082019450925082915060009085015b828210156102d757604080518082018252908084028701906002908390839080828437505050918352505060019091019060200161029e565b50505050509192919290803590602001908201803590602001908080602002602001604051908101604052809392919081815260200183836020028082843750506040805187358901803560208181028481018201909552818452989b9a998901989297509082019550935083925085019084908082843750506040805187358901803560208181028481018201909552818452989b9a9989019892975090820195509350839250850190849080828437505060408051602060608901358a01803582810280850184018652818552999c8b359c848d01359c9687013560ff169b919a5098506080909501965092945081019282918501908490808284375094975061128e9650505050505050565b60408051918252519081900360200190f35b34801561040457600080fd5b506040805160206004803580820135838102808601850190965280855261044d9536959394602494938501929182918501908490808284375094975061143e9650505050505050565b005b34801561045b57600080fd5b506040805180820182526104e0913691600491604491908390600290839083908082843750506040805180820182529497969581810195945092506002915083908390808284375050604080516060818101909252949796958181019594509250600391508390839080828437509396505083359450505060209091013590506116c5565b604080519115158252519081900360200190f35b34801561050057600080fd5b50604080516020600480358082013583810280860185019096528085526104e0953695939460249493850192918291850190849080828437505060408051873589018035602081810284018101909452808352979a999883019791965082019450925082915060009085015b828210156105a557604080518082018252908084028701906002908390839080828437505050918352505060019091019060200161056c565b50505050509192919290803590602001908201803590602001908080602002602001604051908101604052809392919081815260200183836020028082843750506040805187358901803560208181028481018201909552818452989b9a998901989297509082019550935083925085019084908082843750506040805187358901803560208181028481018201909552818452989b9a9989019892975090820195509350839250850190849080828437505060408051602060608901358a01803582810280850184018652818552999c8b359c848d01359c9687013560ff169b919a5098506080909501965092945081019282918501908490808284375094975050933594506117f19350505050565b3480156106c257600080fd5b5060408051808201825261071b9136916004916044919083906002908390839080828437505060408051808201825294979695818101959450925060029150839083908082843750939650509235935061181792505050565b6040518087600260200280838360005b8381101561074357818101518382015260200161072b565b5050505090500186600260200280838360005b8381101561076e578181015183820152602001610756565b5050505090500185815260200184600360200280838360005b8381101561079f578181015183820152602001610787565b50505050905001838152602001828152602001965050505050505060405180910390f35b3480156107cf57600080fd5b506040805160206004803580820135601f810184900484028501840190955284845261044d94369492936024939284019190819084018382808284375094975061195c9650505050505050565b34801561082857600080fd5b5060408051808201825261085f91600480359236926064919060249060029083908390808284375093965061195f95505050505050565b6040805192835260208301919091528051918290030190f35b34801561088457600080fd5b506103e6600435611999565b34801561089c57600080fd5b506103e66119bd565b3480156108b157600080fd5b506103e660048035906024803590810191013560446084356119c3565b3480156108da57600080fd5b5060408051808201825261071b916004803592369260649190602490600290839083908082843750506040805180820182529497969581810195945092506002915083908390808284375093965050833594505050602082013591604001359050611a69565b34801561094c57600080fd5b5061044d600435602435611bc7565b34801561096757600080fd5b506103e6600160a060020a0360043516611c80565b34801561098857600080fd5b5061099d600160a060020a0360043516611c92565b6040518082600260200280838360005b838110156109c55781810151838201526020016109ad565b5050505090500191505060405180910390f35b3480156109e457600080fd5b506103e6600160a060020a0360043516611d04565b348015610a0557600080fd5b5061085f611d16565b348015610a1a57600080fd5b5061044d611d66565b348015610a2f57600080fd5b5061044d611f20565b348015610a4457600080fd5b506040805160206004803580820135838102808601850190965280855261044d953695939460249493850192918291850190849080828437505060408051873589018035602081810284018101909452808352979a999883019791965082019450925082915060009085015b82821015610ae9576040805180820182529080840287019060029083908390808284375050509183525050600190910190602001610ab0565b50505050509192919290803590602001908201803590602001908080602002602001604051908101604052809392919081815260200183836020028082843750506040805187358901803560208181028481018201909552818452989b9a998901989297509082019550935083925085019084908082843750506040805187358901803560208181028481018201909552818452989b9a9989019892975090820195509350839250850190849080828437505060408051602060608901358a01803582810280850184018652818552999c8b359c848d01359c9687013560ff169b919a5098506080909501965092945081019282918501908490808284375094975050843595505050506020820135600160a060020a031691604081013560ff16915060608101359060800135612190565b348015610c2757600080fd5b506103e66004356121c9565b348015610c3f57600080fd5b506103e66004356121db565b348015610c5757600080fd5b506040805180820182526103e69136916004916044919083906002908390839080828437509396506121f895505050505050565b348015610c9757600080fd5b50610cb66004803590602480359160443591820191013560643561223d565b60405180806020018281038252838181518152602001915080516000925b81841015610d1657602080850284010151604080838360005b83811015610d05578181015183820152602001610ced565b505050509050019260010192610cd4565b925050509250505060405180910390f35b348015610d3357600080fd5b506103e661233a565b348015610d4857600080fd5b5061044d600160a060020a0360043516602435612351565b61044d61244f565b348015610d7457600080fd5b5061044d60ff600435166024356124f6565b348015610d9257600080fd5b5061099d600435602435604435606461265f565b348015610db257600080fd5b506103e66126ba565b348015610dc757600080fd5b506040805160206004803580820135838102808601850190965280855261044d953695939460249493850192918291850190849080828437509497506126c49650505050505050565b348015610e1c57600080fd5b506040805180820182526103e6913691600491604491908390600290839083908082843750506040805186358801803560208181028401810190945280835296999897830196919550820193509150819060009085015b82821015610eac576040805180820182529080840287019060029083908390808284375050509183525050600190910190602001610e73565b50506040805160208088013589018035808302840183018552808452979a89359a90999098940196509194509081019250819060009085015b82821015610f21576040805160608181019092529080840287019060039083908390808284375050509183525050600190910190602001610ee5565b50939650612b9595505050505050565b348015610f3d57600080fd5b50604080518082018252610f74916004803592369260649190602490600290839083908082843750939650612d2395505050505050565b604051815181528082606080838360206109ad565b348015610f9557600080fd5b5061099d600435612df6565b348015610fad57600080fd5b506103e6600435602435612e4b565b348015610fc857600080fd5b506040805180820182526103e6913691600491604491908390600290839083908082843750939650612e7d95505050505050565b34801561100857600080fd5b5061044d612ea2565b34801561101d57600080fd5b50611029600435612f4d565b60408051600160a060020a039092168252519081900360200190f35b34801561105157600080fd5b5061105a612f75565b6040805160208082528351818301528351919283929083019185019080838360005b8381101561109457818101518382015260200161107c565b50505050905090810190601f1680156110c15780820380516001836020036101000a031916815260200191505b509250505060405180910390f35b3480156110db57600080fd5b506103e6600435613003565b3480156110f357600080fd5b5061099d6004356024356044613017565b34801561111057600080fd5b5060408051808201825261085f9136916004916044919083906002908390839080828437509396505050913560ff169250613055915050565b34801561115557600080fd5b506111646004356024356130ae565b6040518084600260200280838360005b8381101561118c578181015183820152602001611174565b5050505091909101938452505060208201526040805191829003019150f35b3480156111b757600080fd5b5061044d600160a060020a036004351661314e565b3480156111d857600080fd5b506111e4600435613157565b60408051600160a060020a0386168152841515602082015290810183600381111561120b57fe5b60ff16815260200182815260200194505050505060405180910390f35b34801561123457600080fd5b50611029600160a060020a036004351660243560ff604435166064356084356131a1565b34801561126457600080fd5b506103e6600160a060020a036004351661329d565b34801561128557600080fd5b506103e66132af565b6000898989898989898989604051808a8051906020019060200280838360005b838110156112c65781810151838201526020016112ae565b505050509050018980516000925b8184101561131657602080850284010151604080838360005b838110156113055781810151838201526020016112ed565b5050505090500192600101926112d4565b92505050888051906020019060200280838360005b8381101561134357818101518382015260200161132b565b50505050905001878051906020019060200280838360005b8381101561137357818101518382015260200161135b565b50505050905001868051906020019060200280838360005b838110156113a357818101518382015260200161138b565b505050509050018581526020018481526020018360068111156113c257fe5b60ff167f0100000000000000000000000000000000000000000000000000000000000000028152600101828051906020019060200280838360005b838110156114155781810151838201526020016113fd565b505050509050019950505050505050505050604051809103902090509998505050505050505050565b6000600682511015151561145157600080fd5b8151600481905560019081019061146890826146bf565b50600190505b60045481116115e25760a060405190810160405280836001840381518110151561149457fe5b6020908102909101810151600160a060020a031682526001828201526040805180820182526000808252928101839052908301526060909101908152600060209091015260018054839081106114e657fe5b60009182526020918290208351600590920201805492840151151560a060020a0274ff000000000000000000000000000000000000000019600160a060020a0390931673ffffffffffffffffffffffffffffffffffffffff199094169390931791909116919091178155604082015161156590600183019060026146eb565b5060608201518160030160006101000a81548160ff0219169083600381111561158a57fe5b02179055506080820151816004015590505080600760006001848154811015156115b057fe5b60009182526020808320600590920290910154600160a060020a0316835282019290925260400190205560010161146e565b6002600b556001600c8190556004546002198101600d5501611605600e82614729565b50600190505b60045481116116c157600180548290811061162257fe5b6000918252602090912060059091020154600e8054600160a060020a03909216918390811061164d57fe5b9060005260206000200160006101000a815481600160a060020a030219169083600160a060020a0316021790555080600f600060018481548110151561168f57fe5b60009182526020808320600590920290910154600160a060020a0316835282019290925260400190205560010161160b565b5050565b60008054604080517f2b0c1aba000000000000000000000000000000000000000000000000000000008152600160a060020a0390921691632b0c1aba918991899189918991899160040190819087908083838e5b83811015611731578181015183820152602001611719565b5050505090500185600260200280838360005b8381101561175c578181015183820152602001611744565b5050505090500184600360200280838360005b8381101561178757818101518382015260200161176f565b5050505090500183815260200182815260200195505050505050602060405180830381600087803b1580156117bb57600080fd5b505af11580156117cf573d6000803e3d6000fd5b505050506040513d60208110156117e557600080fd5b50519695505050505050565b6000806118058c8c8c8c8c8c8c8c8c61128e565b9092149b9a5050505050505050505050565b61181f61474d565b61182761474d565b6000611831614768565b60008054604080517fa2cf93080000000000000000000000000000000000000000000000000000000081528392600160a060020a03169163a2cf9308918b918d918c91600490910190819085908083838c5b8381101561189b578181015183820152602001611883565b5050505090500183600260200280838360005b838110156118c65781810151838201526020016118ae565b50505050905001828152602001935050505061014060405180830381600087803b1580156118f357600080fd5b505af1158015611907573d6000803e3d6000fd5b505050506040513d601f19601f8201168201806040525061014081101561192d57600080fd5b506080810151610100820151610120830151929c60408e019c50919a5060a08d01995097509095509350505050565b50565b60008061196a614768565b61197485856132c5565b9050611986816401000003d0196136fd565b8051602090910151909590945092505050565b60006119b78270014551231950b75fc4402da1732fc9bebe19613769565b92915050565b60045481565b60008054604080517fb7331865000000000000000000000000000000000000000000000000000000008152600160a060020a039092169163b7331865918691899189918c918991600401908190879080828437820191505080602001848152602001838152602001828103825286868281815260200192506040028082843782019150509650505050505050602060405180830381600087803b1580156117bb57600080fd5b611a7161474d565b611a7961474d565b6000611a83614768565b6000806000809054906101000a9004600160a060020a0316600160a060020a031663d4540ff78d8d8d8d8d8d6040518763ffffffff1660e060020a0281526004018087815260200186600260200280838360005b83811015611aef578181015183820152602001611ad7565b5050505090500185600260200280838360005b83811015611b1a578181015183820152602001611b02565b50505050905001848152602001838152602001828152602001965050505050505061014060405180830381600087803b158015611b5657600080fd5b505af1158015611b6a573d6000803e3d6000fd5b505050506040513d601f19601f82011682018060405250610140811015611b9057600080fd5b50608081015161010082015161012083015192985060408901975090955060a0880194509250905096509650965096509650969050565b8060005b6004548111611c7a57611c2782600383815481101515611be757fe5b600091825260209091206040805180820191829052926002908102909201919082845b815481526020019060010190808311611c0a57505050505061195f565b6003805484908110611c3557fe5b600091825260208220600290910201016000600385815481101515611c5657fe5b60009182526020909120600290910201600101929092559190915550600101611bcb565b50505050565b60076020526000908152604090205481565b611c9a61474d565b600160a060020a0382166000908152600760205260409020546001805482908110611cc157fe5b60009182526020822060016005909202010101546001805483908110611ce357fe5b60009182526020918290206002600590920201015490840152825250919050565b600f6020526000908152604090205481565b60008060036001815481101515611d2957fe5b6000918252602082206002909102010154600380546001908110611d4957fe5b600091825260209091206002909102016001015490939092509050565b600080611d7161474d565b6177179250600091505b6004548211611ded57611d9783600384815481101515611be757fe5b6003805485908110611da557fe5b600091825260208220600290910201016000600386815481101515611dc657fe5b60009182526020909120600290910201600101929092559190915550600190910190611d7b565b600380546002908110611dfc57fe5b6000918252602082206002909102010154600380546002908110611e1c57fe5b600091825260209182902060016002909202010154908301528152600380546005908110611e4657fe5b6000918252602082206002909102010154600380546005908110611e6657fe5b6000918252602090912060029091020160010154600380546002908110611e8957fe5b60009182526020822060029091020101600060036002815481101515611eab57fe5b6000918252602091829020600160029092020101939093555091909155815190820151600380546005908110611edd57fe5b60009182526020822060029091020101600060036005815481101515611eff57fe5b60009182526020909120600290910201600101929092559190915550505050565b600080600454600101600381611f369190614787565b611f41600282614729565b50600091505b6004548211611f6457611f5982613807565b600190910190611f47565b600091505b600454821161201657611fc0600283815481101515611f8457fe5b60009182526020918290200154604080518082019182905260058054825292939092916002916006908501808311611c0a57505050505061195f565b6003805485908110611fce57fe5b600091825260208220600290910201016000600386815481101515611fef57fe5b60009182526020909120600290910201600101929092559190915550600190910190611f69565b61206b6003600081548110151561202957fe5b600091825260209091206040805180820191829052926002908102909201919082845b81548152602001906001019080831161204c575050505050600061383d565b6120c06003600181548110151561207e57fe5b600091825260209091206040805180820191829052926002908102909201919082845b8154815260200190600101908083116120a1575050505050600161383d565b6120d36003600281548110151561207e57fe5b6121276003808154811015156120e557fe5b600091825260209091206040805180820191829052926002908102909201919082845b815481526020019060010190808311612108575050505050600261383d565b5060045b60045481116116c15761218860038281548110151561214657fe5b600091825260209091206040805180820191829052926002908102909201919082845b815481526020019060010190808311612169575050505050600361383d565b60010161212b565b6121a28e8e8e8e8e8e8e8e8e8e6117f1565b15156121ad57600080fd5b6121b98e8e8e8e61386b565b5050505050505050505050505050565b60086020526000908152604090205481565b70014551231950b75fc4402da1732fc9bebe19607b919091010690565b6000816040518082600260200280838360005b8381101561222357818101518382015260200161220b565b505060405192909401829003909120979650505050505050565b606060008070014551231950b75fc4402da1732fc9bebe198711156122615761232f565b869150836001016040519080825280602002602001820160405280156122a157816020015b61228e61474d565b8152602001906001900390816122865790505b509250600090505b83811161232f576122ee828787848181106122c057fe5b90506040020160028060200260405190810160405280929190826002602002808284375061195f9350505050565b84838151811015156122fc57fe5b6020908102919091010151855186908590811061231557fe5b6020908102919091018101510191909152526001016122a9565b505095945050505050565b70014551231950b75fc4402da1732fc9bebe195b90565b600061235b6147b3565b600160a060020a03841660009081526007602052604090205460018054919350908390811061238657fe5b60009182526020918290206040805160a0810182526005939093029091018054600160a060020a038116845260a060020a900460ff16151593830193909352805180820180835292939291840191600184019060029082845b8154815260200190600101908083116123df57505050918352505060038281015460209092019160ff169081111561241357fe5b600381111561241e57fe5b815260200160048201548152505090506124388382613ba2565b151560011461244657600080fd5b611c7a84613bc1565b600160a060020a0333166000818152600960209081526040918290203490819055825190815291517fe1fffcc4923d04b559f4d29a8bfc6cda04eb5b0d3c460751c2402c5c5cc9109c9281900390910190a26013805460ff191660029081179091556040805160008152600019602082015280820192909252517fecda9de1c3110aef92de159ece4e03e04a01187fa041f9be243f1c8beda20b12916060908290030190a1565b60006125028383613d33565b151560011461251057600080fd5b50600160a060020a033316600090815260076020526040902054600180548491908390811061253b57fe5b906000526020600020906005020160030160006101000a81548160ff0219169083600381111561256757fe5b02179055508160018281548110151561257c57fe5b906000526020600020906005020160040181905550600a83600381111561259f57fe5b600481106125a957fe5b018054600019019055600d54600c54600b549101141561260d5760408051808201909152600a8082527f57657265776f6c766573000000000000000000000000000000000000000000006020909201918252612607916010916147e6565b5061265a565b600b54151561265a576040805180820190915260068082527f48756d616e7300000000000000000000000000000000000000000000000000006020909201918252611c7a916010916147e6565b505050565b61266761474d565b828514156126825760208083013590820152813581526126b2565b6040805180820182526126aa91869190859060029083908390808284375061195f9350505050565b602083015281525b949350505050565b600e546000190190565b60008060068351101515156126d857600080fd5b600091505b82518210156127345782828151811015156126f457fe5b6020908102909101810151600160a060020a038116600090815260099092526040909120549091506064111561272957600080fd5b6001909101906126dd565b8251600481905560019081019061274b90826146bf565b50600191505b6004548211612a7d5760a060405190810160405280846001850381518110151561277757fe5b6020908102909101810151600160a060020a031682526001828201526040805180820182526000808252928101839052908301526060909101908152600060209091015260018054849081106127c957fe5b60009182526020918290208351600590920201805492840151151560a060020a0274ff000000000000000000000000000000000000000019600160a060020a0390931673ffffffffffffffffffffffffffffffffffffffff199094169390931791909116919091178155604082015161284890600183019060026146eb565b5060608201518160030160006101000a81548160ff0219169083600381111561286d57fe5b021790555060808201518160040155905050817f03cf42e4797686930ef09f709f5bb470696c17d58255a88600d589f2090ba6016001848154811015156128b057fe5b600091825260209091206005909102015460018054600160a060020a0390921691869081106128db57fe5b906000526020600020906005020160000160149054906101000a900460ff16604080519081016040528060018881548110151561291457fe5b6000918252602082206001600590920201010154815260200160018881548110151561293c57fe5b60009182526020909120600260059092020101549052600180548890811061296057fe5b60009182526020909120600360059092020101546001805460ff909216918990811061298857fe5b9060005260206000209060050201600401546040518086600160a060020a0316600160a060020a031681526020018515151515815260200184600260200280838360005b838110156129e45781810151838201526020016129cc565b505050509050018360038111156129f757fe5b60ff1681526020018281526020019550505050505060405180910390a2817f9dc64552b3ef4f55429327ed20ed329cde6b51b38f1226e773cbcf2c29093e44600184815481101515612a4557fe5b60009182526020918290206005909102015460408051600160a060020a039092168252519081900390910190a2600190910190612751565b7f1f53875f11d5a712b4c4f66780cd6f618f624c4794dcf513a29fddadd299a9d56080604051908101604052806000815260200160028152602001600181526020016003600454038152506040518082600460200280838360005b83811015612af0578181015183820152602001612ad8565b5050505090500191505060405180910390a160045460408051918252517f0475fa33e711a0d11030b454020a5f7c806520bdc5d7a1fcb9accde610a00f249181900360200190a1600160118190556013805460ff1916600390811790915560408051928352600019602084015282810191909152517fecda9de1c3110aef92de159ece4e03e04a01187fa041f9be243f1c8beda20b12916060908290030190a1505050565b60008054604080517fb77d1268000000000000000000000000000000000000000000000000000000008152600160a060020a039092169163b77d1268918891889188918891600490910190819086908083838d5b83811015612c01578181015183820152602001612be9565b5050505090500180602001848152602001806020018381038352868181518152602001915080516000925b81841015612c6e57602080850284010151604080838360005b83811015612c5d578181015183820152602001612c45565b505050509050019260010192612c2c565b86810385528751815287516000945088935091506020015b81841015612cc857602080850284010151606080838360005b83811015612cb7578181015183820152602001612c9f565b505050509050019260010192612c86565b925050509650505050505050602060405180830381600087803b158015612cee57600080fd5b505af1158015612d02573d6000803e3d6000fd5b505050506040513d6020811015612d1857600080fd5b505195945050505050565b612d2b614768565b6000809054906101000a9004600160a060020a0316600160a060020a03166383242e9084846040518363ffffffff1660e060020a0281526004018083815260200182600260200280838360005b83811015612d90578181015183820152602001612d78565b5050505090500192505050606060405180830381600087803b158015612db557600080fd5b505af1158015612dc9573d6000803e3d6000fd5b505050506040513d601f19601f820116820180604052506060811015612dee57600080fd5b509392505050565b612dfe61474d565b6003805483908110612e0c57fe5b60009182526020822060029091020101546003805484908110612e2b57fe5b600091825260209182902060016002909202010154908301528152919050565b6003805483908110612e5957fe5b906000526020600020906002020181600281101515612e7457fe5b01549150829050565b600060086000612e8c846121f8565b8152602001908152602001600020549050919050565b60015b6004548111612f45576003805482908110612ebc57fe5b60009182526020822060029091020101546003805483908110612edb57fe5b60009182526020909120600290910201600101546001805484908110612efd57fe5b600091825260208220600160059092020101016000600185815481101515612f2157fe5b60009182526020909120600260059092020101929092559190915550600101612ea5565b61195c613d55565b600e805482908110612f5b57fe5b600091825260209091200154600160a060020a0316905081565b6010805460408051602060026001851615610100026000190190941693909304601f81018490048402820184019092528181529291830182828015612ffb5780601f10612fd057610100808354040283529160200191612ffb565b820191906000526020600020905b815481529060010190602001808311612fde57829003601f168201915b505050505081565b600a816004811061301057fe5b0154905081565b61301f61474d565b60408051808201825261304791859190859060029083908390808284375061195f9350505050565b602083015281529392505050565b600080836040518082600260200280838360005b83811015613081578181015183820152602001613069565b505050509050019150506040518091039020600190048360038111156130a357fe5b915091509250929050565b6130b661474d565b6040805180820191829052600580548252600092839283926130f09288929190600290600660208501808311611c0a57505050505061195f565b6020860152845285151561310657506000613137565b85600114806131155750856002145b1561312257506001613137565b856003141561313357506002613137565b5060035b6131418482613055565b9497909650939450505050565b61195c81613bc1565b600180548290811061316557fe5b6000918252602090912060059091020180546003820154600490920154600160a060020a038216935060a060020a90910460ff90811692169084565b604080518082018252601c8082527f19457468657265756d205369676e6564204d6573736167653a0a333200000000602083019081529251600093839289929182918083835b602083106132065780518252601f1990920191602091820191016131e7565b51815160209384036101000a6000190180199092169116179052920193845250604080519384900382018420600080865285840180845282905260ff8c1686840152606086018b9052608086018a90529151909b506001955060a080860195939450601f198201938290030191865af1158015613287573d6000803e3d6000fd5b5050604051601f19015198975050505050505050565b60096020526000908152604090205481565b70014551231950b75fc4402da1732fc9bebe1981565b6132cd614768565b60008060006132da614853565b6132e2614768565b6132ea614882565b6401000003d0199550600080808b1515613303576136ee565b6000604051985061020089016040525b8c1561334b5760018d161561333a5750601f8c16808989015360206010821102818e03019c505b60028d049c50600188019750613313565b50604080516060810182528c5181526020808e01519082015260019181019190915280875261337990613d95565b9450613385858c613eb4565b602087015261339c858760015b60200201516140f6565b60408701526133ad85876002613392565b60608701526133be85876003613392565b60808701526133cf85876004613392565b60a08701526133e085876005613392565b60c08701526133f185876006613392565b60e087015260208601516040015184528880151561340b57fe5b845160408089015101510960208501528880151561342557fe5b60208501516060880151604001510960408501528880151561344357fe5b6040808601516080890151909101510960608501528880151561346257fe5b606085015160a0880151604001510960808501528880151561348057fe5b608085015160c0880151604001510960a08501528880151561349e57fe5b60a085015160e0880151604001510960c085018190526134be908a613769565b60e08501819052610100850152888015156134d557fe5b61010085015160a0860151096101e0850152600692505b6002831061356957888015156134fe57fe5b61010085015187600186016008811061351357fe5b602002015160400151096101008501528880151561352d57fe5b6101008501518560011986016010811061354357fe5b60200201510984600885016010811061355857fe5b6020020152600019909201916134ec565b8880151561357357fe5b610100850151604080890151015109610120850152600092505b6007831015613605576135fa8660018501600881106135a857fe5b60200201518560098601601081106135bc57fe5b60200201518b8015156135cb57fe5b8760098801601081106135da57fe5b60200201518860098901601081106135ee57fe5b6020020151098c614356565b60019092019161358d565b60008711156136ee5760001987890181015197019660001a91506136288a614386565b601082111561368c576002601f8390030490506136878a6040805190810160405280898560088110151561365857fe5b602090810291909101515182520189856008811061367257fe5b6020020151600160200201518d03905261449b565b6136e9565b60008211156136e957600260001983010490506136e98a604080519081016040528089856008811015156136bc57fe5b60209081029190910151518252018985600881106136d657fe5b602002015160016020020151905261449b565b613605565b50505050505050505092915050565b600080613711846002602002015184613769565b91508280151561371d57fe5b82830990508280151561372c57fe5b845182900984528280151561373d57fe5b8380151561374757fe5b8284098560015b60200201510960208501525050600160409092019190915250565b60008080808080871580159061377f5750868814155b801561378a57508615155b151561379557600080fd5b868811156137ac5786888115156137a857fe5b0697505b600193508692508791505b81156137e25781838115156137c857fe5b9495940485810290940393919283830290039190506137b7565b60008512156137f85784600003870395506137fc565b8495505b505050505092915050565b70014551231950b75fc4402da1732fc9bebe19607b82010660028281548110151561382e57fe5b60009182526020909120015550565b80600381111561384957fe5b60086000613856856121f8565b81526020810191909152604001600020555050565b60015b6004548111613b9b57848181518110151561388557fe5b9060200190602002015160018281548110151561389e57fe5b60009182526020909120600590910201805491151560a060020a0274ff00000000000000000000000000000000000000001990921691909117905583518490829081106138e757fe5b602090810291909101015151845185908390811061390157fe5b6020908102919091018101510151600180548490811061391d57fe5b60009182526020822060016005909202010101600060018581548110151561394157fe5b60009182526020909120600260059092020101929092559190915550825183908290811061396b57fe5b9060200190602002015160ff16600381111561398357fe5b600180548390811061399157fe5b906000526020600020906005020160030160006101000a81548160ff021916908360038111156139bd57fe5b021790555081818151811015156139d057fe5b906020019060200201516001828154811015156139e957fe5b906000526020600020906005020160040181905550807f03cf42e4797686930ef09f709f5bb470696c17d58255a88600d589f2090ba601600183815481101515613a2f57fe5b600091825260209091206005909102015460018054600160a060020a039092169185908110613a5a57fe5b906000526020600020906005020160000160149054906101000a900460ff166040805190810160405280600187815481101515613a9357fe5b60009182526020822060016005909202010101548152602001600187815481101515613abb57fe5b600091825260209091206002600590920201015490526001805487908110613adf57fe5b60009182526020909120600360059092020101546001805460ff9092169188908110613b0757fe5b9060005260206000209060050201600401546040518086600160a060020a0316600160a060020a031681526020018515151515815260200184600260200280838360005b83811015613b63578181015183820152602001613b4b565b50505050905001836003811115613b7657fe5b60ff1681526020018281526020019550505050505060405180910390a260010161386e565b5050505050565b600082607b148015613bba5750602082015115156001145b9392505050565b600160a060020a038116600090815260076020526040812054600180549192918291829185908110613bef57fe5b600091825260208083206005909202909101805493151560a060020a0274ff00000000000000000000000000000000000000001990941693909317909255600160a060020a0386168152600f909152604090205491508190505b600e54600119018111613d0257600e805460018301908110613c6757fe5b600091825260209091200154600e8054600160a060020a039092169183908110613c8d57fe5b9060005260206000200160006101000a815481600160a060020a030219169083600160a060020a03160217905550600f6000600e83815481101515613cce57fe5b6000918252602080832090910154600160a060020a0316835282019290925260400190208054600019019055600101613c49565b600e805490613d15906000198301614729565b50505050600160a060020a03166000908152600f6020526040812055565b600080836003811115613d4257fe5b14158015613bba5750506101c814919050565b600160005b60045482116116c1576001805483908110613d7157fe5b60009182526020909120600160059092020181018054820181559201919050613d5a565b613d9d614768565b6401000003d0196000808080808088600260200201511515613dbe57613ea8565b885160208a0151909650945086801515613dd457fe5b858609935086801515613de357fe5b87801515613ded57fe5b858809600409925086801515613dff57fe5b87801515613e0957fe5b878809600309915086801515613e1b57fe5b87801515613e2557fe5b848508880388801515613e3457fe5b84850908808952905086801515613e4757fe5b87801515613e5157fe5b88801515613e5b57fe5b868709600809880388801515613e6d57fe5b89801515613e7757fe5b848b038708850908602089015286801515613e8e57fe5b87801515613e9857fe5b60408b0151870960020960408901525b50505050505050919050565b613ebc614768565b6000613ec661474d565b613ece6148a2565b6000808080808a600260200201511515613f0a57604080516060810182528b5181526020808d01519082015260019181019190915298506140e8565b60208a01511515613f1d578a98506140e8565b60408b01516401000003d019985088908009875287801515613f3b57fe5b875160408d015109602080890191909152604080516080810182528d5181528d83015192810192909252810189801515613f7157fe5b89518d5109815260200189801515613f8557fe5b6020808b0151908e0151099052604081015181519197501415613fd6576060860151602087015114613fc7576000808c5260208c0181905260408c01526140e8565b613fd08b613d95565b506140e8565b87801515613fe057fe5b86516040880151908a039008945087801515613ff857fe5b60208701516060880151908a03900893508780151561401357fe5b85860992508780151561402257fe5b85840991508780151561403157fe5b8289038980151561403e57fe5b8687090890508780151561404e57fe5b8880151561405857fe5b8980151561406257fe5b885186900960020989038208808a5290508780151561407d57fe5b8880151561408757fe5b828a038a80151561409457fe5b895187900908850960208a0152878015156140ab57fe5b888015156140b557fe5b602088015184900989038a600160200201510860208a0152878015156140d757fe5b60408c015186098960025b60200201525b505050505050505092915050565b6140fe614768565b60006141086148a2565b6141106148a2565b6000808080808a60026020020151151561412c578998506140e8565b60408a0151151561413f578a98506140e8565b60408b01516401000003d01998508890800987528780151561415d57fe5b875160408d01510960208801528780151561417457fe5b60408b0151800960408801528780151561418a57fe5b604080890151908c0151096060880152604080516080810190915280898015156141b057fe5b60408a01518e51098152602001898015156141c757fe5b60608a015160208f0151098152602001898015156141e157fe5b89518d51098152602001898015156141f557fe5b6020808b0151908e0151099052604081015181519197501415614236576060860151602087015114614226576140e8565b61422f8b613d95565b98506140e8565b8780151561424057fe5b86516040880151908a03900894508780151561425857fe5b60208701516060880151908a03900893508780151561427357fe5b85860992508780151561428257fe5b85840991508780151561429157fe5b8289038980151561429e57fe5b868709089050878015156142ae57fe5b888015156142b857fe5b898015156142c257fe5b885186900960020989038208808a529050878015156142dd57fe5b888015156142e757fe5b828a038a8015156142f457fe5b895187900908850960208a01528780151561430b57fe5b8880151561431557fe5b602088015184900989038a600160200201510860208a01528780151561433757fe5b8880151561434157fe5b6040808d0151908e01510986098960026140e2565b8080151561436057fe5b845183900984528080151561437157fe5b8180151561437b57fe5b83850985600161374e565b6401000003d01960008080808080876002602002015115156143a757614491565b875160208901519096509450868015156143bd57fe5b8586099350868015156143cc57fe5b878015156143d657fe5b8588096004099250868015156143e857fe5b878015156143f257fe5b87880960030991508680151561440457fe5b8780151561440e57fe5b84850888038880151561441d57fe5b8485090880895290508680151561443057fe5b8780151561443a57fe5b8880151561444457fe5b86870960080988038880151561445657fe5b8980151561446057fe5b848b03870885090860208901528680151561447757fe5b8780151561448157fe5b60408a0151870960020960408901525b5050505050505050565b60006144a561474d565b6144ad6148a2565b600080808080896001602002015115156144df5788518a526020808a0151908b015260018a60025b60200201526146b3565b602089015115156144ef576146b3565b60408a01516401000003d01998508890800987528780151561450d57fe5b875160408c015109602080890191909152604080516080810182528c5181528c8301519281019290925281018980151561454357fe5b89518c510981526020018980151561455757fe5b6020808b0151908d01510990526040810151815191975014156145a5576060860151602087015114614597576000808b5260208b018190528a60026144d5565b6145a08a614386565b6146b3565b878015156145af57fe5b86516040880151908a0390089450878015156145c757fe5b60208701516060880151908a0390089350878015156145e257fe5b8586099250878015156145f157fe5b85840991508780151561460057fe5b8289038980151561460d57fe5b8687090890508780151561461d57fe5b8880151561462757fe5b8980151561463157fe5b885186900960020989038208808b5290508780151561464c57fe5b8880151561465657fe5b828a038a80151561466357fe5b895187900908850960208b01528780151561467a57fe5b8880151561468457fe5b602088015184900989038b600160200201510860208b0152878015156146a657fe5b60408b0151860960408b01525b50505050505050505050565b81548183558181111561265a5760050281600502836000526020600020918201910161265a91906148c1565b8260028101928215614719579160200282015b828111156147195782518255916020019190600101906146fe565b50614725929150614916565b5090565b81548183558181111561265a5760008381526020902061265a918101908301614916565b60408051808201825290600290829080388339509192915050565b6060604051908101604052806003906020820280388339509192915050565b81548183558181111561265a5760020281600202836000526020600020918201910161265a9190614930565b6040805160c081018252600080825260208201529081016147d261474d565b815260200160008152602001600081525090565b828054600181600116156101000203166002900490600052602060002090601f016020900481019282601f1061482757805160ff1916838001178555614719565b8280016001018555821561471957918201828111156147195782518255916020019190600101906146fe565b610300604051908101604052806008905b61486c614768565b8152602001906001900390816148645790505090565b610200604051908101604052806010906020820280388339509192915050565b6080604051908101604052806004906020820280388339509192915050565b61234e91905b8082111561472557805474ffffffffffffffffffffffffffffffffffffffffff1916815560006148fa6001830182614953565b5060038101805460ff19169055600060048201556005016148c7565b61234e91905b80821115614725576000815560010161491c565b61234e91905b8082111561472557600061494a8282614953565b50600201614936565b5060008155600101600090555600a165627a7a72305820abf0b6a68df3210d79b88e20564f40edf6b0685b54f9c28c8abc395f37e5f0820029",
  "source": "pragma solidity ^0.4.7;\r\nimport \"./OrPoK.sol\";\r\n\r\ncontract SmartWerewolf {\r\n\t//parameters using bitcoin's curve (fixed for every game)\r\n\tuint constant p = 0xFFFFFFFFFFFFFFFFFFFFFFFFFFFFFFFFFFFFFFFFFFFFFFFFFFFFFFFEFFFFFC2F;\r\n\tuint constant Gx =0x79BE667EF9DCBBAC55A06295CE870B07029BFCDB2DCE28D959F2815B16F81798;\r\n\tuint constant Gy = 0x483ADA7726A3C4655DA4FBFC0E1108A8FD17B448A68554199C47D08FFB10D4B8;\r\n\tuint public constant q = 0xFFFFFFFFFFFFFFFFFFFFFFFFFFFFFFFEBAAEDCE6AF48A03BBFD25E8CD0364141;\r\n\tOrPoK processPoK; \r\n\r\n\t//bullet broad (fixed during 1 game)\r\n\tPlayer[] public players;\r\n\tuint[] MPC;\r\n\tuint[2][] public deck;\r\n\tuint public n;\r\n\tuint[2] G;\r\n\tmapping (address => uint) public playerNumOf;\r\n\tmapping(uint => uint) public roleOf;\r\n\tmapping(address => uint) public deposits;\r\n\r\n\t//up-to-date report (change in game)\r\n\tuint[4] public living;\r\n\taddress[] public livingPlayers;\r\n\tmapping(address => uint) public theLivingNumOf;\r\n\tstring public winner;\r\n\tTime gameClock;\r\n\t//-1. execute contract\r\n\r\n\tfunction SmartWerewolf(address addressPoK) public {\r\n\t\tprocessPoK = OrPoK(addressPoK);\r\n\t\tG[0] = Gx;\r\n\t\tG[1] = Gy;\r\n\t\tgameClock = Time({\r\n\t\t\troom: 0,\r\n\t\t\tday: -1,\r\n\t\t\tphase: GameIs.Awake\r\n\t\t});\r\n\t\temit ReportTime(0,-1, uint(GameIs.Awake));\r\n\t}\r\n\r\n\r\n\t//0. \r\n\r\n\tfunction quickDepositGame() external payable {\r\n\t\tdeposits[msg.sender] = msg.value;\r\n\t\temit Deposit(\r\n\t\t\tmsg.sender,\r\n\t\t\tdeposits[msg.sender]\r\n\t\t);\r\n\t\tgameClock.phase = GameIs.DepositsReady;\r\n\t\temit ReportTime(0, -1, uint(GameIs.DepositsReady));\r\n\t}\r\n\r\n\r\n\t//1.  (V)\r\n\r\n\tfunction engagement(address[] _players) public {\r\n\t\trequire(_players.length >= 6);\r\n\t\tn = _players.length;\r\n\t\tplayers.length = 1+ n;\r\n\t\tuint i;\r\n\t\tfor (i = 1; i <= n; i++) {\r\n\t\t\tplayers[i] = Player\r\n\t\t\t(\r\n\t\t\t{\r\n\t\t\t\tname: _players[ i-1 ],  \r\n\t\t\t\tlive: true, \r\n\t\t\t\thand: [uint(0),0], \r\n\t\t\t\trole: RoleTypes.Unseen,\r\n\t\t\t\tpokerKey: 0\r\n\t\t\t}\r\n\t\t\t); \r\n\t\t\tplayerNumOf[players[i].name] = i;\r\n\t\t}\r\n\r\n\t\tliving[uint(RoleTypes.Werewolf)]=2;\r\n\t\tliving[uint(RoleTypes.Seer)]=1;\r\n\t\tliving[uint(RoleTypes.Villager)]=n-3;\r\n\r\n\t\tlivingPlayers.length=n+1;\r\n\t\tfor(i=1;i<=n;i++){\r\n\t\t\tlivingPlayers[i]=players[i].name;\r\n\t\t\ttheLivingNumOf[players[i].name]=i;\r\n\t\t}\r\n\t}\r\n\r\n\tfunction quickEngagePlayers(address[] inPlayerNames) \r\n\t\tpublic \r\n\t{   \r\n\t\trequire(inPlayerNames.length >= 6);\r\n\t\tuint i;\r\n\t\tfor(i = 0; i<inPlayerNames.length; i++){\r\n\t\t\taddress p = inPlayerNames[i];\r\n\t\t\trequire(deposits[p]>=100);\r\n\t\t}\r\n\r\n\t\tn = inPlayerNames.length;\r\n\t\tplayers.length = 1+n;\r\n\r\n\t\tfor (i = 1; i <= n; i++) {\r\n\t\t\tplayers[i] = Player\r\n\t\t\t(\r\n\t\t\t{\r\n\t\t\t\tname: inPlayerNames[ i-1 ],  \r\n\t\t\t\tlive: true, \r\n\t\t\t\thand: [uint(0),0], \r\n\t\t\t\trole: RoleTypes.Unseen,\r\n\t\t\t\tpokerKey: 0\r\n\t\t\t}\r\n\t\t\t);\r\n\r\n\t\t\temit JoinPlayer(\r\n\t\t\t\t//for mapping\r\n\t\t\t\ti,\r\n\t\t\t\t//for players \r\n\t\t\t\tplayers[i].name, \r\n\t\t\t\tplayers[i].live, \r\n\t\t\t\t[uint((players[i].hand)[0]),(players[i].hand)[1]], \r\n\t\t\t\tplayers[i].role, \r\n\t\t\t\tplayers[i].pokerKey\r\n\t\t\t\t);\r\n\r\n\t\t\temit RegLivingPlayer(\r\n\t\t\t\ti,\r\n\t\t\t\tplayers[i].name\r\n\t\t\t\t);\r\n\t\t}\r\n\t\temit RegLivingRole([uint(0),2,1,n-3]);\r\n\t\temit PlayerReady(n);\r\n\t\tgameClock.room = 1;\r\n\t\tgameClock.phase = GameIs.PlayersReady;\r\n\t\temit ReportTime(1,-1, uint(GameIs.PlayersReady));\r\n\t}\r\n\r\n\r\n\t//2-1  (V)\r\n\r\n\t//(a)    \r\n\r\n\tfunction createCards() public {   \r\n\t\tMPC.length = deck.length = 1+n;\r\n\t\tfor(uint i=0; i <= n; i++ ){\r\n\t\t\tprepareDeck(i);\r\n\t\t}\r\n\t\tfor(i=0; i<=n; i++){\r\n\t\t\t(deck[i][0], deck[i][1]) = multiply(MPC[i], G);\r\n\t\t}\r\n\t\tgenerateMap(deck[0], RoleTypes.Unseen);\r\n\t\tgenerateMap(deck[1], RoleTypes.Werewolf);\r\n\t\tgenerateMap(deck[2], RoleTypes.Werewolf);\r\n\t\tgenerateMap(deck[3], RoleTypes.Seer);\r\n\t\tfor (uint j = 4; j <= n; j++) {\r\n\t\t\tgenerateMap(deck[j], RoleTypes.Villager);\r\n\t\t}\r\n\t}\r\n\r\n\tfunction quickCreateCard(\r\n\t\tuint i,\r\n\t\tuint inMPC\r\n\t\t) \r\n\t\texternal\r\n\t\tview \r\n\treturns(\r\n\t\tuint[2] outCard, \r\n\t\tuint cardNum, \r\n\t\tuint roleNum\r\n\t\t)\r\n\t{   \r\n\t\t(outCard[0], outCard[1]) = multiply(inMPC, G);\r\n\t\tRoleTypes outRole;\r\n\t\tif(i == 0){\r\n\t\t\toutRole = RoleTypes.Unseen;\r\n\t\t\t}else if(i==1||i==2){\r\n\t\t\t\toutRole = RoleTypes.Werewolf;\r\n\t\t\t\t}else if(i==3){\r\n\t\t\t\t\toutRole = RoleTypes.Seer;\r\n\t\t\t\t\t}else{\r\n\t\t\t\t\t\toutRole = RoleTypes.Villager;\r\n\t\t\t\t\t}\r\n\t\t(cardNum,roleNum)= quickGenerateMap(outCard, outRole);\r\n\t}\r\n\r\n\t//(b) \r\n\tfunction shuffleCards() public {\r\n\t\tuint printBack = 0x7717; \r\n\t\tfor(uint i=0; i<=n; i++){\r\n\t\t\t(deck[i][0], deck[i][1]) = multiply(printBack, deck[i]);\r\n\t\t}\r\n\t\tuint[2] memory tmp;\r\n\t\t(tmp[0], tmp[1]) = (deck[2][0], deck[2][1]);\r\n\t\t(deck[2][0], deck[2][1]) = (deck[5][0], deck[5][1]);\r\n\t\t(deck[5][0], deck[5][1]) = (tmp[0], tmp[1]);\r\n\t} \r\n\r\n\tfunction shuffleCardBy(\r\n\t\tuint i, \r\n\t\tuint pokerKey\r\n\t\t) \r\n\texternal\r\n\t{\r\n\t\t//encrypt each card\r\n\t\tuint printBack = pokerKey; \r\n\t\tfor(uint k=0; k<=n; k++){\r\n\t\t\t(deck[k][0], deck[k][1]) = multiply(printBack, deck[k]);\r\n\t\t}\r\n\t\t//support any shuffle\r\n\t}\r\n\r\n\tfunction quickShuffleCardBy(\r\n\t\tuint i, \r\n\t\tuint pokerKey, \r\n\t\tuint[2][] inDeck, \r\n\t\tuint numCards\r\n\t\t) \r\n\texternal \r\n\tview \r\n\treturns(uint[2][] outDeck){\r\n\t\t//encrypt each card\r\n\t\tif(pokerKey>q)\r\n\t\treturn;//user should check his key \r\n\t\tuint printBack = pokerKey;\r\n\t\toutDeck = new uint[2][](1+numCards); \r\n\t\tfor(uint k=0; k<=numCards; k++){\r\n\t\t\t(outDeck[k][0], outDeck[k][1]) = multiply(printBack, inDeck[k]);\r\n\t\t}\r\n\t\t//support any shuffle TODO: some shuffle\r\n\t}\r\n\r\n\r\n\t//2-2.  (V)\r\n\r\n\tfunction dealCards() public {\r\n\t\tfor(uint i=1; i<=n; i++){\r\n\t\t\t(players[i].hand[0], players[i].hand[1])  \r\n\t\t\t= (deck[i][0], deck[i][1]);\r\n\t\t}\r\n\t\thelpDecryptRole();\r\n\t}\r\n\r\n\tfunction dealCardTo(uint i) \r\n\texternal        \r\n\tview \r\n\treturns(uint[2] hand){\r\n\t\t(hand[0],hand[1])=(deck[i][0], deck[i][1]);\r\n\t}\r\n\r\n\t//3.  (V)\r\n\r\n\tfunction nightKill(address victimName, uint proofCanKill) public {\r\n\t\tuint v = playerNumOf[victimName];\r\n\t\tPlayer memory victim = players[v];\r\n\t\trequire (verify(proofCanKill, victim)==true);\r\n\t\tkilled(victimName);\r\n\t}\r\n\r\n\t//4. \r\n\r\n\tfunction dayVoting(address name) public {\r\n\r\n\t\tkilled(name);\r\n\r\n\t}\r\n\r\n\t//5. open \r\n\r\n\tfunction openRole(RoleTypes _role, uint _pokerKey) public {\r\n\t\trequire(verifyRole(_role, _pokerKey)==true);\r\n\t\tuint i = playerNumOf[msg.sender];\r\n\t\tplayers[i].role = _role;\r\n\t\tplayers[i].pokerKey=_pokerKey;\r\n\r\n\t\tliving[uint(_role)]--;\r\n\r\n\t\tif(living[uint(RoleTypes.Werewolf)]==living[uint(RoleTypes.Seer)]+living[uint(RoleTypes.Villager)]){\r\n\t\t\twinner = \"Werewolves\";\r\n\t\t}\r\n\t\telse if(living[uint(RoleTypes.Werewolf)]==0){\r\n\t\t\twinner = \"Humans\";\r\n\t\t}\r\n\t}\r\n\r\n\r\n\t//getter functions\r\n\r\n\tfunction multiply(uint s, uint[2] point) public view returns(uint ,uint){\r\n\t\tuint[3] memory result = Secp256k1_noconflict._mul(s, point);\r\n\t\tECCMath_noconflict.toZ1(result, p);\r\n\t\treturn (result[0],result[1]);\r\n\t}\r\n\r\n\tfunction checkRoleOf(uint[2] card) public view returns(uint) {return roleOf[cardToNumber(card)];}\r\n\r\n\tfunction getHandOf(address name) public view returns(uint[2] hand){\r\n\t\tuint i = playerNumOf[name];\r\n\t\t(hand[0] ,hand[1]) = ((players[i].hand)[0], (players[i].hand)[1]);\r\n\t}\r\n\r\n\tfunction numSurvive() public view returns(uint) {return livingPlayers.length-1;}\r\n\r\n\tfunction werewolfCard() \r\n\texternal \r\n\tview \r\n\treturns(uint cardX,uint cardY){\r\n\t\t(cardX, cardY) = (deck[1][0], deck[1][1]);\r\n\t}\r\n\r\n\tfunction cardToNumber(uint[2] card) public pure returns(uint){return uint(keccak256(card));}\r\n\r\n\tfunction cardOrder() public pure returns(uint) {return q;}\r\n\r\n\r\n\t//\r\n\r\n\tfunction werewolfFrameKilling(uint[2] framedHand, uint[2] _werewolfCard,  uint victim) public view returns(uint[2] __werewolfCard, uint[2] _framedHand, uint _victim, uint[3] T, uint c, uint s){\r\n\t\treturn processPoK.forgeProof(_werewolfCard, framedHand, victim);\r\n\t}\r\n\r\n\tfunction werewolfChooset(uint pokerKey, uint[2][] hands, uint[2] _werewolfCard, uint victim ) external view returns(uint realt){\r\n\r\n\t\treturn processPoK.computeRealt(_werewolfCard, hands, pokerKey, victim);\r\n\t}\r\n\r\n\tfunction werewolfComputeT(uint realt, uint[2] _werewolfCard) public view returns(uint[3] realT){\r\n\t\treturn processPoK.computeTFrom(realt, _werewolfCard);\r\n\t}\r\n\r\n\tfunction computeChallenge(uint[2] _werewolfCard, uint[2][] _hands, uint victim, uint[3][] Ts) public view returns(uint realChallenge){\r\n\t\treturn processPoK.computeChallenge(_werewolfCard, _hands, victim, Ts);\r\n\t}\r\n\r\n\tfunction werewolfProve(uint pokerKey, uint[2] _werewolfCard, uint[2] hand, uint victim, uint tReady,uint cReady) public view returns(uint[2] __werewolfCard, uint[2] _hand, uint _victim, uint[3] T, uint c, uint s){\r\n\t\treturn processPoK.createSchnorr(pokerKey, _werewolfCard, hand, victim, tReady, cReady);\r\n\t}\r\n\r\n\tfunction verifyWerewolfProof(uint[2] _werewolfCard, uint[2] hand,  uint[3] T, uint c, uint s) public view returns (bool result){\r\n\t\treturn processPoK.verifySchnorr(_werewolfCard, hand, T, c, s);\r\n\t}\r\n\r\n\r\n\t//\r\n\r\n\tfunction verify(uint proofCanKill, Player victim) pure internal returns(bool){\r\n\r\n\t\treturn proofCanKill == 123 && victim.live == true;\r\n\t}\r\n\r\n\r\n\t//Prepare cards\r\n\r\n\tfunction generateMap(uint[2] card, RoleTypes role) internal {\r\n\r\n\t\troleOf[cardToNumber(card)] = uint(role);\r\n\r\n\t}\r\n\r\n\tfunction quickGenerateMap(\r\n\t\tuint[2] card, \r\n\t\tRoleTypes role\r\n\t\t) \r\n\tpublic\r\n\tpure\r\n\treturns(\r\n\t\tuint cardNum,\r\n\t\tuint roleNum\r\n\t\t)\r\n\t{\r\n\t\treturn(\r\n\t\t\tuint(keccak256(card)),\r\n\t\t\tuint(role)\r\n\t\t\t);\r\n\t}\r\n\r\n\tfunction prepareDeck(uint i) internal {\r\n\r\n\t\tMPC[ i ] = (i+123) % q;\r\n\t\t//avoid use 0. function toZ1 revert at point at infinity\r\n\r\n\t}\r\n\r\n\tfunction quickPrepareDeck(uint i) public view returns(uint outMPC){\r\n\r\n\t\toutMPC = (i+123) % q;\r\n\t\t//avoid use 0. b/c function toZ1 revert at point at infinity\r\n\t\t//simulate hash function\r\n\t\t//apply MPC in the future\r\n\r\n\t}\r\n\r\n\r\n\t//\r\n\r\n\tfunction helpDecryptRole() internal {\r\n\t\tfor(uint i=1; i<=n; i++){\r\n\t\t\tuint[2] storage hand = players[i].hand;\r\n\t\t\thand[0] ++;\r\n\t\t} \r\n\t}\r\n\r\n\tfunction helpDecryptRole(uint me, uint keyInverse/*pokerKey*/, uint i, uint[2] cipherCard) external view returns (uint[2] decryptCard){\r\n\t\tif(me == i){\r\n\t\t\t(decryptCard[0], decryptCard[1]) = (cipherCard[0], cipherCard[1]);\r\n\t\t}else{\r\n\t\t\t//uint keyInverse = ECCMath_noconflict.invmod(pokerKey, q);\r\n\t\t\t(decryptCard[0],decryptCard[1]) = multiply(keyInverse, cipherCard);\r\n\t\t}\r\n\t}\r\n\r\n\tfunction recoverRole(uint me, uint keyInverse/*uint pokerKey*/, uint[2] cipherCard) external view returns (uint[2] decryptCard){\r\n\t\t(decryptCard[0],decryptCard[1]) = multiply(keyInverse, cipherCard);\r\n\t}\r\n\r\n\tfunction getDecryptKey(uint pokerKey) external view returns (uint keyInverse){\r\n\t\tkeyInverse = ECCMath_noconflict.invmod(pokerKey, q);\r\n\t}\r\n\r\n\t\t//\r\n\r\n\t\t\tfunction killed(address player) internal{\r\n\t\t\t\tuint i = playerNumOf[player];\r\n\t\t\t\tplayers[i].live=false;\r\n\t\t\t\tuint j= theLivingNumOf[player];\r\n\r\n\t\t\t\tfor(uint k=j; k<= livingPlayers.length-2 ; k++){\r\n\t\t\t\t\tlivingPlayers[k] = livingPlayers[k+1];\r\n\t\t\t\t\ttheLivingNumOf[livingPlayers[k]]--;\r\n\t\t\t\t}\r\n\t\t\t\tlivingPlayers.length--;\r\n\t\t\t\ttheLivingNumOf[player]=0;\r\n\t\t\t}\r\n\r\n\t\t\tfunction verifyRole(RoleTypes _role, uint _pokerKey) pure internal returns(bool){\r\n\r\n\t\t\t\treturn (_role!=RoleTypes.Unseen && _pokerKey==456);\r\n\r\n\t\t\t}\r\n\r\n\t/*\r\n\t//TODO\r\n\tfunction verifyRole(\r\n\t    uint[2] handFace, \r\n\t    uint pokerKey, \r\n\t    uint[2] handBack\r\n\t)\r\n\t    public\r\n\t    view\r\n\t    returns(bool)\r\n\t{\r\n\t    uint[2] memory claimHand;\r\n\t    (claimHand[0],claimHand[1]) = multiply(pokerKey,handFace);\r\n\r\n\t    return (handBack[0] == claimHand[0]) && (handBack[1] == claimHand[1]);\r\n\t}\r\n\t*/\r\n\t\r\n\tfunction updateStates(\r\n\t\tbool[] currentLives,\r\n\t    uint[2][] currentHands,\r\n\t    uint8[] currentRoles,\r\n\t    uint[] currentPokerKeys,\r\n\t    uint[] currentCardNumbers,\r\n\t    uint currentRoom,\r\n\t    int currentDay,\r\n\t    GameIs currentPhase,\r\n\t    uint[] currentDeposits,\r\n\t    \r\n\t    bytes32 statesHash,\r\n\t    \r\n\t    address playerName,\r\n\t\tuint8 v,\r\n\t\tbytes32 r,\r\n\t\tbytes32 s\r\n\t)\r\n\t\tpublic\r\n\t{\r\n\t\t//other check, e,g, total deposits\r\n\t\trequire(verifyStatesHash(\r\n\t\t\tcurrentLives, \r\n\t\t\tcurrentHands, \r\n\t\t\tcurrentRoles, \r\n\t\t\tcurrentPokerKeys,\r\n\t\t\tcurrentCardNumbers,\r\n\t\t\tcurrentRoom,\r\n\t\t\tcurrentDay,\r\n\t\t\tcurrentPhase, \r\n\t\t\tcurrentDeposits,\r\n\t\t\tstatesHash\r\n\t\t\t) //&& playerName == verifyStatesMessage(playerName, statesHash, v, r, s)\r\n\t\t);\r\n\t\tupdatePlayers(currentLives, currentHands, currentRoles, currentPokerKeys);\r\n\t\t/*updateRoleOfList(currentCardNumbers);\r\n\t\tupdateGameClock(currentRoom, currentDay, currentPhase);\r\n\t\tupdateDeposits(currentDeposits);*/\r\n\t}\r\n\r\n\tfunction updatePlayers(\r\n\t\t//address[] names,\r\n\t\tbool[] lives,\r\n\t\tuint[2][] hands,\r\n\t\tuint8[] roles,\r\n\t\tuint[] pokerKeys\r\n\t\t) \r\n\tinternal \r\n\t{\r\n\t\tfor(uint i=1;i<=n;i++){\r\n\t\t\tplayers[i].live = lives[i];\r\n\t\t\t(players[i].hand[0], players[i].hand[1])= (hands[i][0],hands[i][1]);\r\n\t\t\tplayers[i].role = RoleTypes(roles[i]);\r\n\t\t\tplayers[i].pokerKey = pokerKeys[i];\r\n\t\t\temit JoinPlayer(\r\n\t\t\t\t//for mapping\r\n\t\t\t\ti,\r\n\t\t\t\t//for players \r\n\t\t\t\tplayers[i].name, \r\n\t\t\t\tplayers[i].live, \r\n\t\t\t\t[uint((players[i].hand)[0]),(players[i].hand)[1]], \r\n\t\t\t\tplayers[i].role, \r\n\t\t\t\tplayers[i].pokerKey\r\n\t\t\t);\r\n\t\t}\r\n\t}\r\n\r\n\tfunction updateRoleOfList(\r\n\t\tuint[] currentCardNumbers\r\n\t\t) \r\n\tinternal \r\n\t{\r\n\t\troleOf[currentCardNumbers[0]] = uint(RoleTypes.Unseen);\r\n\t\troleOf[currentCardNumbers[1]] = uint(RoleTypes.Werewolf);\r\n\t\troleOf[currentCardNumbers[2]] = uint(RoleTypes.Werewolf);\r\n\t\troleOf[currentCardNumbers[3]] = uint(RoleTypes.Seer);\r\n\t\tfor (uint j = 4; j <= n; j++) {\r\n\t\t\troleOf[currentCardNumbers[j]] = uint(RoleTypes.Villager);\r\n\t\t}\r\n\t}\r\n\r\n\tfunction updateGameClock(\r\n\t\tuint currentRoom,\r\n\t\tint currentDay, \r\n\t\tGameIs currentPhase \r\n\t\t) \r\n\tinternal \r\n\t{\r\n\t\tgameClock.room = currentRoom;\r\n\t\tgameClock.day = currentDay;\r\n\t\tgameClock.phase = currentPhase;\r\n\t}\r\n\r\n\tfunction updateDeposits(\r\n\t\tuint[] currentDeposits\r\n\t\t) \r\n\tinternal \r\n\t{\r\n\t\tfor(uint i=1;i<=n;i++){\r\n\t\t\taddress p = players[i].name;\r\n\t\t\tdeposits[p] = currentDeposits[i];\r\n\t\t}\r\n\t}\r\n\r\n\tfunction quickHashStates(\r\n\t\tbool[] currentLives,\r\n\t\tuint[2][] currentHands,\r\n\t\tuint8[] currentRoles,\r\n\t\tuint[] currentPokerKeys,\r\n\r\n\t\tuint[] currentCardNumbers,\r\n\r\n\t\tuint currentRoom,\r\n\t\tint currentDay,\r\n\t\tGameIs currentPhase,\r\n\r\n\t\tuint[] currentDeposits\r\n\t\t)\r\n\tpublic \r\n\tview \r\n\treturns(bytes32 statesHash)\r\n\t{\r\n\t\tstatesHash = //uint(\r\n\t\t\tkeccak256(\r\n\t\t\t\tcurrentLives,\r\n\t\t\t\tcurrentHands,\r\n\t\t\t\tcurrentRoles,\r\n\t\t\t\tcurrentPokerKeys,\r\n\t\t\t\tcurrentCardNumbers,\r\n\t\t\t\tcurrentRoom,\r\n\t\t\t\tcurrentDay,\r\n\t\t\t\tcurrentPhase,\r\n\t\t\t\tcurrentDeposits\r\n\t\t\t);\r\n\t\t//);\r\n\t}\r\n\r\n\tfunction verifyStatesHash(\r\n\t\tbool[] currentLives,\r\n\t\tuint[2][] currentHands,\r\n\t\tuint8[] currentRoles,\r\n\t\tuint[] currentPokerKeys,\r\n\r\n\t\tuint[] currentCardNumbers,\r\n\r\n\t\tuint currentRoom,\r\n\t\tint currentDay,\r\n\t\tGameIs currentPhase,\r\n\r\n\t\tuint[] currentDeposits,\r\n\r\n\t\tbytes32 statesHash\r\n\t\t)\r\n\tpublic/*internal*/ \r\n\tview\r\n\treturns(bool result)\r\n\t{\r\n\t\tbytes32 verifierHash = quickHashStates(\r\n\t\t\tcurrentLives,\r\n\t\t\tcurrentHands,\r\n\t\t\tcurrentRoles,\r\n\t\t\tcurrentPokerKeys,\r\n\t\t\tcurrentCardNumbers,\r\n\t\t\tcurrentRoom,\r\n\t\t\tcurrentDay,\r\n\t\t\tcurrentPhase,\r\n\t\t\tcurrentDeposits\r\n\t\t\t);\r\n\t\treturn (statesHash == verifierHash);\r\n\t}\r\n\r\n\tfunction verifyStatesMessage(\r\n\t\taddress playerName,\r\n\t\tbytes32 statesMessage,\r\n\t\tuint8 v,\r\n\t\tbytes32 r,\r\n\t\tbytes32 s\r\n\t\t)\r\n\tpublic \r\n\tview \r\n\treturns(address)\r\n\t{\r\n\t\tbytes memory prefix = \"\\x19Ethereum Signed Message:\\n32\";\r\n        statesMessage = keccak256(prefix, statesMessage);\r\n\t\treturn /*ecrecover(statesMessage,v,r,s) == playerName;*/\r\n\t\tecrecover(statesMessage,v,r,s);\r\n\t}\r\n\r\n\tfunction verifyStates(bytes stateMessage){\r\n\t}\r\n\r\n\r\n\tenum RoleTypes{Unseen, Werewolf, Seer, Villager}\r\n\r\n\tenum GameIs { Sleep, Awake, DepositsReady, PlayersReady, CardsReady, Night, Day}//executeOnChain, PrepareDeposits, InitPlayers, AssignRoles, Night, Day}\r\n\r\n\tstruct Player{\r\n\t\taddress name;\r\n\t\tbool live;\r\n\t\tuint[2] hand;\r\n\t\tRoleTypes role;\r\n\t\tuint pokerKey;\r\n\t}\r\n\r\n\r\n\tstruct KillConditions{\r\n\t\tuint iAmWerewolf;\r\n\t\tuint iAmLive;\r\n\t\tuint victimLive;\r\n\t}\r\n\r\n\tstruct Time{\r\n\t\tuint room;\r\n\t\tint day;\r\n\t\tGameIs phase;\r\n\t\t//PlayersAre playerEvent;\r\n\t}\r\n\tevent debug(uint i);\r\n\t\r\n\tevent ReportTime(uint currentRoom, int currentDay, uint currentPhase);\r\n\r\n\tevent JoinPlayer(\r\n\t\tuint indexed outPlayerNum,\r\n\t\taddress outPlayerName,\r\n\t\tbool outPlayerLive,\r\n\t\tuint[2] outPlayerHand,\r\n\t\tRoleTypes outPlayerRole,\r\n\t\tuint outPlayerKey\r\n\t\t);\r\n\r\n\tevent Deposit(\r\n\t\taddress indexed outPlayerName,\r\n\t\tuint outValue\r\n\t\t);\r\n\r\n\tevent PlayerReady(uint numPlayers);\r\n\r\n\tevent RegLivingPlayer(uint indexed livingPlayerNum, address livingPlayerName);\r\n\r\n\tevent RegLivingRole(uint[4] outLiving);\r\n}",
  "sourcePath": "C:\\Users\\eason\\Documents\\GitHub\\SmartWerewolf\\contracts\\SmartWerewolf.sol",
  "compiler": {
    "name": "solc",
    "version": "0.4.23+commit.124ca40d.Emscripten.clang"
  },
  "schemaVersion": "2.0.0",
  "updatedAt": "2018-06-25T06:09:13.082Z"
}