{
  "contractName": "SmartWerewolf",
  "abi": [
    {
      "constant": true,
      "inputs": [],
      "name": "n",
      "outputs": [
        {
          "name": "",
          "type": "uint256"
        }
      ],
      "payable": false,
      "stateMutability": "view",
      "type": "function"
    },
    {
      "constant": true,
      "inputs": [
        {
          "name": "",
          "type": "address"
        }
      ],
      "name": "playerNumOf",
      "outputs": [
        {
          "name": "",
          "type": "uint256"
        }
      ],
      "payable": false,
      "stateMutability": "view",
      "type": "function"
    },
    {
      "constant": true,
      "inputs": [
        {
          "name": "",
          "type": "address"
        }
      ],
      "name": "theLivingNumOf",
      "outputs": [
        {
          "name": "",
          "type": "uint256"
        }
      ],
      "payable": false,
      "stateMutability": "view",
      "type": "function"
    },
    {
      "constant": true,
      "inputs": [
        {
          "name": "",
          "type": "uint256"
        }
      ],
      "name": "deck",
      "outputs": [
        {
          "name": "",
          "type": "uint256"
        }
      ],
      "payable": false,
      "stateMutability": "view",
      "type": "function"
    },
    {
      "constant": true,
      "inputs": [
        {
          "name": "",
          "type": "uint256"
        }
      ],
      "name": "roleOf",
      "outputs": [
        {
          "name": "",
          "type": "uint256"
        }
      ],
      "payable": false,
      "stateMutability": "view",
      "type": "function"
    },
    {
      "constant": true,
      "inputs": [
        {
          "name": "",
          "type": "uint256"
        }
      ],
      "name": "livingPlayers",
      "outputs": [
        {
          "name": "",
          "type": "address"
        }
      ],
      "payable": false,
      "stateMutability": "view",
      "type": "function"
    },
    {
      "constant": true,
      "inputs": [],
      "name": "winner",
      "outputs": [
        {
          "name": "",
          "type": "string"
        }
      ],
      "payable": false,
      "stateMutability": "view",
      "type": "function"
    },
    {
      "constant": true,
      "inputs": [
        {
          "name": "",
          "type": "uint256"
        }
      ],
      "name": "living",
      "outputs": [
        {
          "name": "",
          "type": "uint256"
        }
      ],
      "payable": false,
      "stateMutability": "view",
      "type": "function"
    },
    {
      "constant": true,
      "inputs": [
        {
          "name": "",
          "type": "uint256"
        }
      ],
      "name": "players",
      "outputs": [
        {
          "name": "name",
          "type": "address"
        },
        {
          "name": "live",
          "type": "bool"
        },
        {
          "name": "hand",
          "type": "uint256"
        },
        {
          "name": "role",
          "type": "uint8"
        },
        {
          "name": "pokerKey",
          "type": "uint256"
        }
      ],
      "payable": false,
      "stateMutability": "view",
      "type": "function"
    },
    {
      "anonymous": false,
      "inputs": [
        {
          "indexed": false,
          "name": "numPlayers",
          "type": "uint256"
        }
      ],
      "name": "PlayerReady",
      "type": "event"
    },
    {
      "anonymous": false,
      "inputs": [
        {
          "indexed": false,
          "name": "livingHand",
          "type": "uint256[]"
        }
      ],
      "name": "ShowHand",
      "type": "event"
    },
    {
      "constant": false,
      "inputs": [
        {
          "name": "_players",
          "type": "address[]"
        }
      ],
      "name": "engagement",
      "outputs": [],
      "payable": false,
      "stateMutability": "nonpayable",
      "type": "function"
    },
    {
      "constant": false,
      "inputs": [],
      "name": "createCards",
      "outputs": [],
      "payable": false,
      "stateMutability": "nonpayable",
      "type": "function"
    },
    {
      "constant": false,
      "inputs": [],
      "name": "shuffleCards",
      "outputs": [],
      "payable": false,
      "stateMutability": "nonpayable",
      "type": "function"
    },
    {
      "constant": false,
      "inputs": [],
      "name": "dealCards",
      "outputs": [],
      "payable": false,
      "stateMutability": "nonpayable",
      "type": "function"
    },
    {
      "constant": false,
      "inputs": [
        {
          "name": "victimName",
          "type": "address"
        },
        {
          "name": "proofCanKill",
          "type": "uint256"
        }
      ],
      "name": "nightKill",
      "outputs": [],
      "payable": false,
      "stateMutability": "nonpayable",
      "type": "function"
    },
    {
      "constant": false,
      "inputs": [
        {
          "name": "name",
          "type": "address"
        }
      ],
      "name": "dayVoting",
      "outputs": [],
      "payable": false,
      "stateMutability": "nonpayable",
      "type": "function"
    },
    {
      "constant": false,
      "inputs": [
        {
          "name": "_role",
          "type": "uint8"
        },
        {
          "name": "_pokerKey",
          "type": "uint256"
        }
      ],
      "name": "openRole",
      "outputs": [],
      "payable": false,
      "stateMutability": "nonpayable",
      "type": "function"
    },
    {
      "constant": true,
      "inputs": [
        {
          "name": "secret",
          "type": "uint256"
        },
        {
          "name": "message",
          "type": "uint256"
        }
      ],
      "name": "createProof",
      "outputs": [
        {
          "name": "out_pubkey",
          "type": "uint256[2]"
        },
        {
          "name": "out_s",
          "type": "uint256"
        },
        {
          "name": "out_e",
          "type": "uint256"
        }
      ],
      "payable": false,
      "stateMutability": "view",
      "type": "function"
    },
    {
      "constant": true,
      "inputs": [
        {
          "name": "pubkey",
          "type": "uint256[2]"
        },
        {
          "name": "message",
          "type": "uint256"
        },
        {
          "name": "s",
          "type": "uint256"
        },
        {
          "name": "e",
          "type": "uint256"
        }
      ],
      "name": "verifyProof",
      "outputs": [
        {
          "name": "",
          "type": "bool"
        }
      ],
      "payable": false,
      "stateMutability": "view",
      "type": "function"
    },
    {
      "constant": true,
      "inputs": [],
      "name": "numSurvive",
      "outputs": [
        {
          "name": "",
          "type": "uint256"
        }
      ],
      "payable": false,
      "stateMutability": "view",
      "type": "function"
    }
  ],
  "bytecode": "0x6060604052600d600455610123600555341561001a57600080fd5b611745806100296000396000f3006060604052600436106101065763ffffffff7c0100000000000000000000000000000000000000000000000000000000600035041663076d9680811461010b5780632e52d6061461015c5780634ef3ea741461018157806354054cd5146101a057806358801f17146101bf5780635c56e508146101d257806362d1ae9b146101e557806365b1dafa1461024457806372b1d8cf1461025a5780639a01967814610270578063a4f195aa14610292578063acb2c01a146102ae578063d647cb9a146102c1578063d6ffa29a1461031e578063d9e0bf4e14610331578063dfbf53ae14610363578063eb288081146103ed578063f6ac71cd14610403578063f71d96cb14610422575b600080fd5b341561011657600080fd5b61015a600460248135818101908301358060208181020160405190810160405280939291908181526020018383602002808284375094965061048495505050505050565b005b341561016757600080fd5b61016f61078c565b60405190815260200160405180910390f35b341561018c57600080fd5b61016f600160a060020a0360043516610792565b34156101ab57600080fd5b61016f600160a060020a03600435166107a4565b34156101ca57600080fd5b61015a6107b6565b34156101dd57600080fd5b61015a61087f565b34156101f057600080fd5b6101fe600435602435610b03565b6040518084604080838360005b8381101561022357808201518382015260200161020b565b50505050905001838152602001828152602001935050505060405180910390f35b341561024f57600080fd5b61016f600435610b25565b341561026557600080fd5b61016f600435610b44565b341561027b57600080fd5b61015a600160a060020a0360043516602435610b56565b341561029d57600080fd5b61015a60ff60043516602435610c3c565b34156102b957600080fd5b61016f610e3f565b34156102cc57600080fd5b61030a60046044816002604080519081016040528092919082600260200280828437509395505083359360208101359350604001359150610e4a9050565b604051901515815260200160405180910390f35b341561032957600080fd5b61015a610e61565b341561033c57600080fd5b610347600435610ebf565b604051600160a060020a03909116815260200160405180910390f35b341561036e57600080fd5b610376610ee7565b60405160208082528190810183818151815260200191508051906020019080838360005b838110156103b257808201518382015260200161039a565b50505050905090810190601f1680156103df5780820380516001836020036101000a031916815260200191505b509250505060405180910390f35b34156103f857600080fd5b61016f600435610f85565b341561040e57600080fd5b61015a600160a060020a0360043516610f97565b341561042d57600080fd5b610438600435610fa0565b604051600160a060020a03861681528415156020820152604081018490526060810183600381111561046657fe5b60ff1681526020018281526020019550505050505060405180910390f35b600060068251101561049557600080fd5b815160038190556001016104aa600082611546565b50600190505b600354811161060b5760a0604051908101604052808360018403815181106104d457fe5b90602001906020020151600160a060020a031681526001602082015260006040820181905260608201819052608090910181905280548390811061051457fe5b90600052602060002090600402016000820151815473ffffffffffffffffffffffffffffffffffffffff1916600160a060020a039190911617815560208201518154901515740100000000000000000000000000000000000000000274ff00000000000000000000000000000000000000001990911617815560408201518160010155606082015160028201805460ff191660018360038111156105b457fe5b021790555060808201518160030155905050806006600080848154811015156105d957fe5b60009182526020808320600490920290910154600160a060020a031683528201929092526040019020556001016104b0565b600860205260027fad67d757c34507f157cacfa2e3153e9f260a2244f30428821be7be64587ac55f5560017f6add646517a5b0f6793cd5891b7937d28a5b2981a5d88ebc7cd776088fea90418190556003805460009190915260021981017f625b35f5e76f098dd7c3a05b10e2e5e78a4a01228d60c3b143426cdf36d264555501610697600982611572565b50600190505b60035481116107535760008054829081106106b457fe5b600091825260209091206004909102015460098054600160a060020a0390921691839081106106df57fe5b906000526020600020900160006101000a815481600160a060020a030219169083600160a060020a0316021790555080600a6000808481548110151561072157fe5b60009182526020808320600490920290910154600160a060020a0316835282019290925260400190205560010161069d565b7f0475fa33e711a0d11030b454020a5f7c806520bdc5d7a1fcb9accde610a00f2460035460405190815260200160405180910390a15050565b60035481565b60066020526000908152604090205481565b600a6020526000908152604090205481565b6107776000805b600354821161080957826002838154811015156107d657fe5b9060005260206000209001540a6002838154811015156107f257fe5b6000918252602090912001556001909101906107bd565b600280548190811061081757fe5b90600052602060002090015490506002600581548110151561083557fe5b90600052602060002090015460028081548110151561085057fe5b60009182526020909120015560028054829190600590811061086e57fe5b600091825260209091200155505050565b6000806003546001016002816108959190611572565b6108a0600182611572565b50600091505b60035482116108c3576108b882611003565b6001909101906108a6565b6001805460009081106108d257fe5b9060005260206000209001546005540a600260008154811015156108f257fe5b6000918252602082200191909155600760006002600081548110151561091457fe5b90600052602060002090015481526020019081526020016000208190555060018081548110151561094157fe5b9060005260206000209001546005540a6002600181548110151561096157fe5b6000918252602090912001556001600760006002600181548110151561098357fe5b906000526020600020900154815260200190815260200160002081905550600160028154811015156109b157fe5b9060005260206000209001546005540a6002808154811015156109d057fe5b6000918252602090912001556001600760006002808154811015156109f157fe5b90600052602060002090015481526020019081526020016000208190555060016003815481101515610a1f57fe5b9060005260206000209001546005540a60026003815481101515610a3f57fe5b60009182526020909120015560026007600060026003815481101515610a6157fe5b906000526020600020900154815260200190815260200160002081905550600490505b6003548111610aff576001805482908110610a9b57fe5b9060005260206000209001546005540a600282815481101515610aba57fe5b600091825260209091200155600360076000600284815481101515610adb57fe5b60009182526020808320909101548352820192909252604001902055600101610a84565b5050565b610b0b611596565b600080610b188585611022565b9250925092509250925092565b6002805482908110610b3357fe5b600091825260209091200154905081565b60076020526000908152604090205481565b6000610b606115bc565b600160a060020a038416600090815260066020526040812054815490935083908110610b8857fe5b906000526020600020906004020160a060405190810160409081528254600160a060020a038116835260ff7401000000000000000000000000000000000000000090910481161515602084015260018401549183019190915260028301549192916060840191166003811115610bfa57fe5b6003811115610c0557fe5b81526020016003820154815250509050610c1f838261111f565b1515600114610c2d57600080fd5b610c368461113e565b50505050565b6000610c4883836112c2565b1515600114610c5657600080fd5b50600160a060020a03331660009081526006602052604081205481549091849183908110610c8057fe5b60009182526020909120600260049092020101805460ff19166001836003811115610ca757fe5b021790555081600082815481101515610cbc57fe5b90600052602060002090600402016003018190555060086000846003811115610ce157fe5b81526020808201929092526040016000908120805460001901905560089091527f625b35f5e76f098dd7c3a05b10e2e5e78a4a01228d60c3b143426cdf36d26455547f6add646517a5b0f6793cd5891b7937d28a5b2981a5d88ebc7cd776088fea90415460019092527fad67d757c34507f157cacfa2e3153e9f260a2244f30428821be7be64587ac55f5491011415610dc15760408051908101604052600a81527f57657265776f6c766573000000000000000000000000000000000000000000006020820152600b908051610dbb9291602001906115ea565b50610e3a565b600160005260086020527fad67d757c34507f157cacfa2e3153e9f260a2244f30428821be7be64587ac55f541515610e3a5760408051908101604052600681527f48756d616e7300000000000000000000000000000000000000000000000000006020820152600b908051610c369291602001906115ea565b505050565b600954600019015b90565b6000610e58858585856112e4565b95945050505050565b60015b6003548111610eb4576002805482908110610e7b57fe5b906000526020600020900154600082815481101515610e9657fe5b60009182526020909120600160049092020181019190915501610e64565b610ebc6112fd565b50565b6009805482908110610ecd57fe5b600091825260209091200154600160a060020a0316905081565b600b8054600181600116156101000203166002900480601f016020809104026020016040519081016040528092919081815260200182805460018160011615610100020316600290048015610f7d5780601f10610f5257610100808354040283529160200191610f7d565b820191906000526020600020905b815481529060010190602001808311610f6057829003601f168201915b505050505081565b60086020526000908152604090205481565b610ebc8161113e565b6000805482908110610fae57fe5b60009182526020909120600490910201805460018201546002830154600390930154600160a060020a03831694507401000000000000000000000000000000000000000090920460ff90811693919291169085565b8060018281548110151561101357fe5b60009182526020909120015550565b61102a611596565b600080611035611668565b600061103f611668565b61106261104a611337565b611052611359565b8a81151561105c57fe5b0661137d565b9250825186526020830151602087015261107a611359565b878960405191825260208201526040908101905190819003902081151561109d57fe5b0691506110b16110ab611337565b8361137d565b905085516020870151825183602001518a6040518086815260200185815260200184815260200183815260200182815260200195505050505050604051908190039020935061111382611102611359565b80151561110b57fe5b868b096113d7565b94505050509250925092565b600082607b1480156111375750816020015115156001145b9392505050565b600160a060020a03811660009081526006602052604081205481549091908190819081908590811061116c57fe5b6000918252602080832060049092029091018054931515740100000000000000000000000000000000000000000274ff00000000000000000000000000000000000000001990941693909317909255600160a060020a0386168152600a909152604090205491508190505b6009546001190181116112915760098054600183019081106111f557fe5b60009182526020909120015460098054600160a060020a03909216918390811061121b57fe5b906000526020600020900160006101000a815481600160a060020a030219169083600160a060020a03160217905550600a600060098381548110151561125d57fe5b6000918252602080832090910154600160a060020a03168352820192909252604001902080546000190190556001016111d7565b60098054906112a4906000198301611572565b50505050600160a060020a03166000908152600a6020526040812055565b6000808360038111156112d157fe5b141580156111375750506101c814919050565b60006112f28585858561143d565b909114949350505050565b60015b6003548111610ebc57600080548290811061131757fe5b600091825260209091206001600490920201810180548201905501611300565b61133f611668565b604080519081016040526001815260026020820152905090565b7f30644e72e131a029b85045b68181585d2833e84879b9709143e1f593f000000190565b611385611668565b61138d61167f565b600084518252602085015160208301526040820184905260608360808460076107d05a03fa90508080156113c0576113c2565bfe5b508015156113cf57600080fd5b505092915050565b600080828411156113e957508261140e565b507f30644e72e131a029b85045b68181585d2833e84879b9709143e1f593f000000183015b7f30644e72e131a029b85045b68181585d2833e84879b9709143e1f593f0000001600084830308949350505050565b6000611447611668565b61144f611668565b611457611668565b611474611462611337565b61146a611359565b8881151561105c57fe5b92506040805190810160405280895181526020018960016020020151905291506114a7836114a2848861137d565b6114f6565b905087516020890151825183602001518a604051808681526020018581526020018481526020018381526020018281526020019550505050505060405190819003902098975050505050505050565b6114fe611668565b611506611699565b60008451825260208501516020830152835160408301526020840151826003602002015260608360c08460066107d05a03fa90508080156113c0576113c2565b815481835581811511610e3a57600402816004028360005260206000209182019101610e3a91906116b3565b815481835581811511610e3a57600083815260209020610e3a9181019083016116ff565b604080519081016040526002815b60008152602001906001900390816115a45790505090565b60a0604051908101604090815260008083526020830181905290820181905260608201819052608082015290565b828054600181600116156101000203166002900490600052602060002090601f016020900481019282601f1061162b57805160ff1916838001178555611658565b82800160010185558215611658579182015b8281111561165857825182559160200191906001019061163d565b506116649291506116ff565b5090565b604080519081016040526000808252602082015290565b6060604051908101604052600081526002602082016115a4565b6080604051908101604052600081526003602082016115a4565b610e4791905b8082111561166457805474ffffffffffffffffffffffffffffffffffffffffff1916815560006001820181905560028201805460ff1916905560038201556004016116b9565b610e4791905b8082111561166457600081556001016117055600a165627a7a723058200583b291f45c2822f9bd0291617c9fef70ffbbfa1d28701e68c1debb7059537f0029",
  "source": "pragma solidity ^0.4.19;\r\n//pragma experimental ABIEncoderV2;\r\nimport \"./CDSProtocol.sol\";\r\ncontract SmartWerewolf {//沒有constructor\r\n    //bullet broad\r\n    Player[] public players;\r\n    uint[] MPC;\r\n    uint[] public deck;\r\n    uint public n;\r\n    uint p = 13;// TODO: mental poker用的group\r\n    uint G = 0x123;// TODO: generator\r\n    mapping (address => uint) public playerNumOf;\r\n    mapping(uint => uint) public roleOf;// 每個腳色的牌長哪樣, 固定的對照表\r\n    \r\n    //up-to-date report\r\n    mapping(uint => uint) public living;//up-to-date report of (# of each role type)\r\n    address[] public livingPlayers;\r\n    mapping(address => uint) public theLivingNumOf;\r\n    string public winner;\r\n    //副詞之後放 \r\n    //Time gameClock;\r\n    \r\n    /*1. 集合玩家*/\r\n    function engagement(address[] _players) public {//oracle幫玩家登錄\r\n    //internal | external , 一定要寫 , public 是 default\r\n        require(_players.length >= 6);//規則是至少6人(uninform majaroty v.s. informed minorty)\r\n        n = _players.length;\r\n        players.length = 1+ n;//常常注意array的長度\r\n        uint i;\r\n        for (i = 1; i <= n; i++) {\r\n            players[i] = Player\r\n            (\r\n                {\r\n                    name: _players[ i-1 ],  \r\n                    live: true, \r\n                    hand: 0, \r\n                    role: RoleTypes.Unseen,//記得加enum的type\r\n                    pokerKey: 0\r\n                }\r\n           ); \r\n        //從1開始編號\r\n        playerNumOf[players[i].name] = i;\r\n        /* 備用: players.push(_players[i]);\r\n        \r\n        live[ _players[i] ] = true;*/\r\n            //event之後再加 emit JoinGame(i+1, players[i+1].name);\r\n        }\r\n        \r\n        living[uint(RoleTypes.Werewolf)]=2;\r\n        living[uint(RoleTypes.Seer)]=1;\r\n        living[uint(RoleTypes.Villager)]=n-3;\r\n\r\n        livingPlayers.length=n+1;\r\n        for(i=1;i<=n;i++){\r\n            livingPlayers[i]=players[i].name;\r\n            theLivingNumOf[players[i].name]=i;\r\n        }\r\n        PlayerReady(n/*, _players*/);\r\n        //event之後再加 emit PlayerReady(n/*, _players*/);\r\n    }\r\n    \r\n    /*2-1 印製牌*/\r\n    /*(a) 印牌面*/   \r\n    function createCards() public {\r\n        MPC.length = deck.length = 1+n;\r\n        for(uint i=0; i <= n; i++ ){\r\n            prepareDeck(i);// TODO: need to be implemented\r\n        }\r\n        //以下這種寫法要小心deck長度不夠的情況(前面require有規定了玩家的數量)\r\n        deck[0] = G**MPC[ 0 ];\r\n        roleOf[deck[0]]=uint(RoleTypes.Unseen);//只是方便, 應該是本來的Ambitious card\r\n        \r\n        deck[1] = G**MPC[ 1 ];\r\n        roleOf[deck[1]]=uint(RoleTypes.Werewolf);\r\n        \r\n        deck[2] = G**MPC[ 2 ];\r\n        roleOf[deck[2]]=uint(RoleTypes.Werewolf);\r\n        \r\n        deck[3] = G**MPC[ 3 ];\r\n        roleOf[deck[3]]=uint(RoleTypes.Seer);\r\n        \r\n        for (uint j = 4; j <= n; j++) {\r\n            deck[ j ] = G**MPC[j];\r\n            roleOf[deck[j]]=uint(RoleTypes.Villager);\r\n        }\r\n        // TODO: 腳色應該獨立出來, 放在合約裡( mapping )。 modifier 檢查腳色是不是事先規定好的\r\n        //event之後再加 emit CardReady(2, 1, n-3);  \r\n        \r\n    }\r\n    \r\n    /* TODO:(b)洗牌、印製牌背 */   \r\n    function shuffleCards() public {// TODO: need to be implemented\r\n        uint printBack = 0x777; //用來代表所有人key的乘積\r\n        for(uint i=0; i<=n; i++){//模擬加密\r\n            deck[i] = deck[i]** printBack;\r\n        }\r\n\r\n        //模擬permutation\r\n        //\r\n        uint tmp = deck[2];//不是complex types的會在stack裡\r\n        deck[2] = deck[5];\r\n        deck[5] = tmp;\r\n        //event之後再加 emit CardShuffled();\r\n    } \r\n\r\n    /* TODO: 2-2. 發牌 */\r\n    //目前是照順序發\r\n    //TODO: need to be implemented\r\n    function dealCards() public {\r\n        for(uint i=1; i<=n; i++){\r\n            players[i].hand = deck[i];//可能有一邊有點多餘\r\n            /*TODO: 這種寫法牌會被看光, 改成\r\n            mapping(uint => CardTypes) roleOf;// 每個腳色的牌長哪樣, 固定的對照表\r\n            uint[] deck;// 牌現在的狀態, 可能是面朝上或朝下\r\n            function faceDown(uint[] storage deck){//passed by reference\r\n\r\n            }\r\n            function shuffle(uint[] storage deck){\r\n\r\n            }*/ \r\n        }\r\n        helpDecryptRole();//TODO: need to be implemented\r\n        \r\n        //event之後再加 emit GameReady();\r\n        //gameClock.phase=GameIs.Ready;\r\n        //itsNight();\r\n    }\r\n\r\n    function nightKill(address victimName, uint proofCanKill) public {\r\n        //理想: 殺人(不公布死者) -->(進入白天) 公開死者 --> 人死亡\r\n        //殺人、人死亡、公布死者\r\n        //簡化的版本\r\n        //完整的版本死者應該要先commit再open\r\n\r\n        //parity 無法換行\r\n        //werewolf丟給一個oracle, 由oracle發布交易?\r\n        uint v = playerNumOf[victimName];//mapping element can't move to memory???\r\n        Player memory victim = players[v];\r\n        require (verify(proofCanKill, victim)==true);//Contract( or moderator) verify proof automatically\r\n        //加入死亡的名單?\r\n        //event之後再加 emit NightEnd(\"Werewolves, close your eyes.\");\r\n        //itsDay(victimName);\r\n        killed(victimName);\r\n    }\r\n    \r\n    function dayVoting(address name) public {\r\n        killed(name);\r\n    }\r\n\r\n    function openRole(RoleTypes _role, uint _pokerKey) public {//活人不能公布身分(O)\r\n        //死人可以重複公開身分，需要額外的state來防止，不過沒差\r\n        //Card Opening by ZKP or 直接公布鑰匙(殺手遊戲似乎可以, 因為一人只有一張)\r\n        require(verifyRole(_role, _pokerKey)==true);//Contract( or moderator) verify automatically\r\n        uint i = playerNumOf[msg.sender];\r\n        players[i].role = _role;\r\n        players[i].pokerKey=_pokerKey;//公開自己的key會影響其他人的隱私嗎?\r\n        \r\n        living[uint(_role)]--;\r\n\r\n        if(living[uint(RoleTypes.Werewolf)]==living[uint(RoleTypes.Seer)]+living[uint(RoleTypes.Villager)]){\r\n            winner = \"Werewolves\";\r\n        }\r\n        else if(living[uint(RoleTypes.Werewolf)]==0){\r\n            winner = \"Humans\";\r\n        }\r\n        \r\n        /*\r\n        if(gameClock.phase==GameIs.CheckingDayDead){\r\n            gameClock.phase=GameIs.Day;\r\n            itsNight();\r\n        }\r\n        else if(gameClock.phase == GameIs.CheckingNightDead){\r\n            gameClock.phase=GameIs.Day;\r\n        }\r\n        */\r\n    }\r\n\r\n    function prepareDeck(uint i) internal {// TODO: need to be implemented\r\n        //assert( MPC.length >= 1+i );\r\n        MPC[ i ] = i ;\r\n    }\r\n    \r\n    function helpDecryptRole() internal {\r\n        for(uint i=1; i<=n; i++)\r\n        players[i].hand++;//TODO: need to be implemented\r\n        //++模擬解密的動作\r\n        //解密到剩最後一層當手牌\r\n    }\r\n    \r\n\r\n    function createProof( uint256 secret, uint256 message )\r\n        constant\r\n        returns (uint256[2] out_pubkey, uint256 out_s, uint256 out_e)\r\n    {\r\n        return CDSProtocol.CreateProof(secret,message);\r\n    }\r\n\r\n    function verifyProof( uint256[2] pubkey, uint256 message, uint256 s, uint256 e )\r\n        constant\r\n        returns (bool)\r\n    {\r\n        return CDSProtocol.VerifyProof(pubkey, message, s, e);\r\n    }\r\n    /*function collectHand() view returns(uint256[MAX_PLAYERS]) {\r\n        uint256[MAX_PLAYERS] hands;\r\n        for(uint i=1; i<=n; i++){\r\n            if(players[i].live==true){\r\n                hands[i]=players[i].hand;\r\n            }\r\n        }\r\n        //ShowHand(hands);\r\n        return hands;\r\n    }*/\r\n    \r\n    /*function collectHand() view returns(uint[MAX_PLAYERS]) {\r\n        uint256[MAX_PLAYERS] hands=[uint(1),2,3];//can't assign memory to storage reference\r\n        \r\n        return hands;\r\n    }*/\r\n\r\n    /*function collectHand() view returns(uint256[]) {\r\n        uint256[] hands;\r\n        //http://solidity.readthedocs.io/en/v0.3.1/frequently-asked-questions.html\r\n        //https://ethereum.stackexchange.com/questions/4467/initialising-structs-to-storage-variables\r\n        //Uninitialized storage pointer causes terrible errors\r\n        //storage reference can only be created from state\r\n        for(uint i=1; i<=n; i++){\r\n            if(players[i].live==true){\r\n                hands.push(n+100*i);\r\n\r\n            }\r\n            ShowHand(hands);\r\n        }\r\n        return hands;\r\n    }*/\r\n\r\n    /*function collectHand() public view returns(uint256[]) {\r\n        uint[] memory hands= new uint[](n+1);\r\n        //memory: dynamic array(decide length runtime), fixed length\r\n        //stroage: can change length\r\n        //https://solidity.readthedocs.io/en/develop/types.html#allocating-memory-arrays\r\n        for(uint i=1; i<=n; i++){\r\n            if(players[i].live==true){\r\n                hands[];\r\n\r\n            }\r\n            ShowHand(hands);\r\n        }\r\n        return hands;\r\n    }*/\r\n    /*function collectStatements()public view returns(KillConditions){\r\n        //TODO: need to be implemented. 只是示意\r\n        KillConditions memory statements;//放memory會有問題嗎?\r\n        statements.iAmWerewolf = 1;//TODO: some encoding of states\r\n        //出示狼人牌(不用證明他是誰?或許要證明他是玩家,先不考慮)\r\n        statements.iAmLive=1;//TODO: some encoding of states\r\n        statements.victimLive=1;//TODO: some encoding of states\r\n        //我們是玩家,我們都活著\r\n        return statements;\r\n    }*/\r\n\r\n    /*function encodeProof(KillConditions statements)public view returns(uint){\r\n        //uint code = 0x144;\r\n        return 0x144;//TODO: need to be implemented. 只是示意, 假設證明\r\n        //assume proof is uint256 !!!\r\n    }*/\r\n\r\n    function verify(uint proofCanKill, Player victim) pure internal returns(bool){\r\n        \r\n        return proofCanKill == 123 && victim.live == true;//TODO: need to be implemented. 只是示意, 假設證明\r\n    }\r\n\r\n\r\n    //function itsNight() internal{\r\n        //event之後再加 emit NightComming(\"Close your eyes!\",\r\n            //\"Werewolves, open your eyes\",\r\n            //\"Werewolves, pick someone to kill!\");\r\n        //gameClock.day++;\r\n        //gameClock.phase = GameIs.Night;\r\n    //}\r\n    \r\n    //function itsDay(address victimName) internal{\r\n        //event之後再加 emit DayComming(\"Everybody open your eyes; it's daytime!\");    \r\n        //gameClock.day++;\r\n        //gameClock.phase = GameIs.Day;\r\n        //killedWhen(GameIs.Night, victimName);\r\n        //event之後再加 emit SentenceToDeath(\"And you have been torn apart by werewolves!\", victimName);\r\n        //先殺再公告, 避免在看到event之後搶先發言\r\n    //}\r\n\r\n    function killed(/*GameIs t,*/ address player) internal{\r\n        uint i = playerNumOf[player];\r\n        players[i].live=false;//禁言\r\n        uint j= theLivingNumOf[player];\r\n        \r\n        for(uint k=j; k<= livingPlayers.length-2 ; k++){\r\n            livingPlayers[k] = livingPlayers[k+1];\r\n            theLivingNumOf[livingPlayers[k]]--;\r\n            \r\n        }\r\n        livingPlayers.length--;//automatically delete the last element\r\n        theLivingNumOf[player]=0;\r\n        /*\r\n        if(t==Night){\r\n            gameClock.phase = GameIs.CheckingNightDead;//等他公布身分\r\n        }\r\n        else if(t==Day){\r\n            gameClock.phase = GameIs.CheckingDayDead;\r\n        }\r\n        */\r\n        //else 違反規則如何?\r\n        /*not open:罰錢 open:遊戲繼續*/\r\n    }\r\n\r\n    function verifyRole(RoleTypes _role, uint _pokerKey) pure internal returns(bool){\r\n        return (_role!=RoleTypes.Unseen && _pokerKey==456);//TODO: need to be implemented. 只是示意, 假設證明\r\n    }\r\n    \r\n    /* off-chain?\r\n    function TalkingAndVoting() view{\r\n\r\n    }\r\n    */\r\n    function numSurvive() view returns(uint){\r\n        return livingPlayers.length-1;\r\n    }\r\n    //enum GameIs{NotReady, Ready, Night, Day}\r\n    enum RoleTypes{/*AmbitiousCard*/Unseen, Werewolf, Seer, Villager}\r\n    //enum PlayersAre{CheckingTheDead, DiscussingAndVoting/*...*/}\r\n    //不要分號\r\n    struct Player{\r\n        address name;\r\n        bool live;\r\n        //備用:uint pokerKey;\r\n        uint hand;\r\n        RoleTypes role;\r\n        uint pokerKey;\r\n    }\r\n\r\n    /*struct Card{\r\n        uint face;//牌面\r\n        uint back;//牌背\r\n        //多餘? CardTypes role;\r\n    }*/\r\n    \r\n   struct KillConditions{//規定只有某個狼人能殺人\r\n        uint iAmWerewolf;\r\n        //statement1\r\n        //players[i].hand = cardWerewolf1 ** players[i].pokerKey\r\n        //private input: hand, pokerKey\r\n        //hand --> 匿名的需求\r\n        //cardWerewolf1 --> constant\r\n        // (h) = C1 ** (k) 證明某人是某人的離散對數\r\n        //把h當公鑰, k當私鑰, Schnorr signature\r\n        \r\n        uint iAmLive;\r\n        //statement2\r\n        //(address) = livePerson1 or livePerson2 or ...\r\n        // (i) = L1 or L2 or ... \r\n        //可以用playerNum\r\n        \r\n        //statement3\r\n        //hand 要跟 address 或 i 對應\r\n        //合一個ZKP, 同樣的input對好幾個output?\r\n        \r\n        uint victimLive;\r\n        //v = L1 or L2\r\n        //在簡化的版本這個condition，verifier可以自己檢查\r\n    }\r\n    //ZKP( (i), (h), (k), ContractState )\r\n    //1 (h) = C1 ** (k) or ..\r\n    //2 (i) = L1 or ...       --> Ok\r\n    //3 (h) is someone's hand --> Ok\r\n    //4 private input 合法\r\n    //需要or and power\r\n    //比對zerocash\r\n    //可以總結簡單的算式\r\n    //\r\n    //C ** (k) = h1 or c ** (k) = h2 or ...\r\n    //\r\n    //1. 用以下的協議證明(interactive)\r\n    //教學\r\n    //https://www.cs.jhu.edu/~susan/600.641/scribes/lecture10.pdf\r\n    //    3.3 protol ramer, Damg ̊ard and Schoenmaker\r\n    //論文( 可以cite它 )\r\n    //https://www.win.tue.nl/~berry/papers/crypto94.pdf\r\n    //(introduction介紹了甚麼是public coin的protocol, 注意第5章的應用)\r\n    //\r\n    //2. 加上Fiat-Shamir transform(轉成non-interactive)\r\n    //參考\r\n    //https://en.wikipedia.org/wiki/Fiat%E2%80%93Shamir_heuristic\r\n    //只要是public coin (verifier的chanllege是uniformly random) 的interactive proof都可以用這個方式轉換\r\n    //在radom oracle model(承認存在random oracle)，底下是安全的\r\n    //這個方法來自以下的論文( 可以cite它 )\r\n    //Amos Fiat and Adi Shamir: How to Prove Yourself: Practical Solutions to Identification and Signature Problems. CRYPTO 1986: pp. 186-194\r\n    //(當初比較像跟rsa或因數分解有關, 可能大家推廣到不同的協議上, 感覺上像大家公認的一個做法)\r\n    //\r\n    //https://en.wikipedia.org/wiki/Proof_of_knowledge\r\n    //\r\n    //instant-poker\r\n    //https://github.com/amiller/instant-poker/blob/master/test_zkproof.py\r\n    //有cite一篇\r\n    //https://link.springer.com/chapter/10.1007/978-3-540-40974-8_29\r\n    //考慮到更多的card operation, test_zkproof是實作裡面的舉的例子\r\n    //fast mental poker protocol也是改這篇的協議\r\n    //\r\n    //https://www.cryptologie.net/article/193/schnorrs-signature-and-non-interactive-protocols/\r\n    //有講到transcript的觀念\r\n    //\r\n    //DDH assumption \r\n    //參考Dan Boneh. The decision diffiee-hellman problem. Lecture Notes in Computer Science,\r\n    //1423:48-63, 1998\r\n    //由破解diffie hellman key exchange來, 也就是computational Diffie-Hellman assumption\r\n    //DDH assumption難度>CDH\r\n    //\r\n    //DDH problem(如果好解, 表示DDH assumption很難達成)\r\n    //https://crypto.stackexchange.com/questions/5254/explanation-of-the-decision-diffie-hellman-ddh-problem\r\n    //\r\n    //zcash原本用的曲線是bn128，參考\r\n    //https://medium.com/@_garethtdavies/why-zcash-is-set-to-shine-in-2018-2e8c388f35fd\r\n    //可能就是altbn128\r\n    //https://eprint.iacr.org/2016/1102.pdf\r\n    //https://github.com/HarryR/solcrypto/blob/master/contracts/altbn128.sol\r\n    //https://eprint.iacr.org/2005/133.pdf(怎麼建適合pairing的曲線)\r\n    //\r\n    //EASY DECISION-DIFFIE-HELLMAN GROUP(https://eprint.iacr.org/2004/070.pdf)\r\n    //用pairing解DDH。pairing需要embedding degree小的曲線, \r\n    //a fast mental poker可能因為這樣, 所以要求embedding degree大的曲線\r\n    //\r\n    //secp256k1不適合pairing\r\n    //https://safecurves.cr.yp.to/transfer.html\r\n    //https://groups.google.com/forum/#!topic/pbc-devel/DvDvziTTwFk\r\n    //secp256k1 參考https://github.com/amiller/instant-poker/blob/master/test_zkproof.py\r\n\r\n\r\n\r\n\r\n    /*先不要有絕對時間，假設大家會自己做\r\n    struct Time{\r\n        GameIs phase;//day or night?\r\n        uint day;//what day?\r\n        PlayersAre playerEvent;\r\n    }*/\r\n\r\n    //副詞最後再放\r\n    //event StartGame(uint numPlayers);\r\n    //event JoinGame(uint playerNum, address name);\r\n    event PlayerReady(uint numPlayers/*, address[] players*/);\r\n    //event CardReady(uint numWerewolves, uint numSeer, uint numVillagers);\r\n    //event CardShuffled();\r\n    //event GameReady();\r\n    //event NightComming(string moderatorSays,string moderatorSays_,string moderatorSays__);\r\n    //event NightEnd(string moderatorSay);\r\n    //event DayComming(string moderatorSays);\r\n    //event SentenceToDeath(string moderatorSays,address moderatorIndicates);\r\n    event ShowHand(uint256[] livingHand);\r\n    /*modifier before(uint T){\r\n        require(T>0 && block.number<T);\r\n        _;\r\n    }\r\n\r\n    modifier after(uint T){\r\n        require(T>0 && block.number>T);\r\n        _;\r\n    }*/\r\n    //modifier onlyPlayers and 保證遊戲依序執行\r\n    \r\n    /* 形容詞最後在放 modifier afterPlayerReady{\r\n        assert(n >= 6\r\n            && players.length >= 1+n);\r\n        _; \r\n    }\r\n\r\n    modifier afterCardReady{\r\n        assert(n >= 6\r\n            && deck.length >= 1+n);\r\n        _; \r\n    }\r\n\r\n    modifier afterDay{\r\n        assert((gameClock.day==0 && gameClock.phase==GameIs.Ready)||\r\n            (gameClock.day>0 && gameClock.phase==GameIs.Day));\r\n        _; \r\n    }\r\n\r\n    modifier onlyNight{\r\n        assert(gameClock.day>0 && gameClock.phase==GameIs.Night);\r\n        _;\r\n    }\r\n    \r\n    modifier afterNight{\r\n        assert((gameClock.day>0 && gameClock.phase==GameIs.Night));\r\n        _; \r\n    }\r\n\r\n    modifier onlyDay{\r\n        assert(gameClock.day>0 && gameClock.phase==GameIs.Day);\r\n        _;\r\n    }\r\n    \r\n    modifier onlyKilled{\r\n        assert(gameClock.day>0 && \r\n            (gameClock.phase==GameIs.CheckingNightDead|| gameClock.phase==GameIs.CheckingDayDead) && \r\n            players[playerNumOf[msg.sender]].live == false &&\r\n            players[playerNumOf[msg.sender]].role == Unseen &&\r\n            players[playerNumOf[msg.sender]].pokerKey == 0\r\n        );\r\n        _;\r\n    } */\r\n\r\n}",
  "sourcePath": "C:\\Users\\eason\\Documents\\GitHub\\SmartWerewolf\\contracts\\SmartWerewolf.sol",
  "compiler": {
    "name": "solc",
    "version": "0.4.21+commit.dfe3193c.Emscripten.clang"
  },
  "schemaVersion": "2.0.0",
  "updatedAt": "2018-04-14T19:37:10.247Z"
}