{
  "contractName": "SmartWerewolf",
  "abi": [
    {
      "constant": true,
      "inputs": [],
      "name": "n",
      "outputs": [
        {
          "name": "",
          "type": "uint256"
        }
      ],
      "payable": false,
      "stateMutability": "view",
      "type": "function"
    },
    {
      "constant": true,
      "inputs": [
        {
          "name": "",
          "type": "address"
        }
      ],
      "name": "playerNumOf",
      "outputs": [
        {
          "name": "",
          "type": "uint256"
        }
      ],
      "payable": false,
      "stateMutability": "view",
      "type": "function"
    },
    {
      "constant": true,
      "inputs": [
        {
          "name": "",
          "type": "address"
        }
      ],
      "name": "theLivingNumOf",
      "outputs": [
        {
          "name": "",
          "type": "uint256"
        }
      ],
      "payable": false,
      "stateMutability": "view",
      "type": "function"
    },
    {
      "constant": true,
      "inputs": [
        {
          "name": "",
          "type": "uint256"
        },
        {
          "name": "",
          "type": "uint256"
        }
      ],
      "name": "deck",
      "outputs": [
        {
          "name": "",
          "type": "uint256"
        }
      ],
      "payable": false,
      "stateMutability": "view",
      "type": "function"
    },
    {
      "constant": true,
      "inputs": [
        {
          "name": "",
          "type": "uint256"
        }
      ],
      "name": "livingPlayers",
      "outputs": [
        {
          "name": "",
          "type": "address"
        }
      ],
      "payable": false,
      "stateMutability": "view",
      "type": "function"
    },
    {
      "constant": true,
      "inputs": [],
      "name": "winner",
      "outputs": [
        {
          "name": "",
          "type": "string"
        }
      ],
      "payable": false,
      "stateMutability": "view",
      "type": "function"
    },
    {
      "constant": true,
      "inputs": [
        {
          "name": "",
          "type": "uint256"
        }
      ],
      "name": "living",
      "outputs": [
        {
          "name": "",
          "type": "uint256"
        }
      ],
      "payable": false,
      "stateMutability": "view",
      "type": "function"
    },
    {
      "constant": true,
      "inputs": [
        {
          "name": "",
          "type": "uint256"
        }
      ],
      "name": "players",
      "outputs": [
        {
          "name": "name",
          "type": "address"
        },
        {
          "name": "live",
          "type": "bool"
        },
        {
          "name": "role",
          "type": "uint8"
        },
        {
          "name": "pokerKey",
          "type": "uint256"
        }
      ],
      "payable": false,
      "stateMutability": "view",
      "type": "function"
    },
    {
      "constant": true,
      "inputs": [],
      "name": "q",
      "outputs": [
        {
          "name": "",
          "type": "uint256"
        }
      ],
      "payable": false,
      "stateMutability": "view",
      "type": "function"
    },
    {
      "inputs": [],
      "payable": false,
      "stateMutability": "nonpayable",
      "type": "constructor"
    },
    {
      "anonymous": false,
      "inputs": [
        {
          "indexed": false,
          "name": "numPlayers",
          "type": "uint256"
        }
      ],
      "name": "PlayerReady",
      "type": "event"
    },
    {
      "anonymous": false,
      "inputs": [
        {
          "indexed": false,
          "name": "livingHand",
          "type": "uint256[2][]"
        }
      ],
      "name": "ShowHand",
      "type": "event"
    },
    {
      "anonymous": false,
      "inputs": [
        {
          "indexed": false,
          "name": "i",
          "type": "uint256"
        }
      ],
      "name": "debug",
      "type": "event"
    },
    {
      "constant": false,
      "inputs": [
        {
          "name": "_players",
          "type": "address[]"
        }
      ],
      "name": "engagement",
      "outputs": [],
      "payable": false,
      "stateMutability": "nonpayable",
      "type": "function"
    },
    {
      "constant": true,
      "inputs": [
        {
          "name": "card",
          "type": "uint256[2]"
        }
      ],
      "name": "roleOf",
      "outputs": [
        {
          "name": "",
          "type": "uint256"
        }
      ],
      "payable": false,
      "stateMutability": "view",
      "type": "function"
    },
    {
      "constant": true,
      "inputs": [
        {
          "name": "",
          "type": "bytes32"
        }
      ],
      "name": "roleOf",
      "outputs": [
        {
          "name": "",
          "type": "uint256"
        }
      ],
      "payable": false,
      "stateMutability": "view",
      "type": "function"
    },
    {
      "constant": false,
      "inputs": [],
      "name": "createCards",
      "outputs": [],
      "payable": false,
      "stateMutability": "nonpayable",
      "type": "function"
    },
    {
      "constant": false,
      "inputs": [],
      "name": "shuffleCards",
      "outputs": [],
      "payable": false,
      "stateMutability": "nonpayable",
      "type": "function"
    },
    {
      "constant": false,
      "inputs": [],
      "name": "dealCards",
      "outputs": [],
      "payable": false,
      "stateMutability": "nonpayable",
      "type": "function"
    },
    {
      "constant": false,
      "inputs": [
        {
          "name": "victimName",
          "type": "address"
        },
        {
          "name": "proofCanKill",
          "type": "uint256"
        }
      ],
      "name": "nightKill",
      "outputs": [],
      "payable": false,
      "stateMutability": "nonpayable",
      "type": "function"
    },
    {
      "constant": false,
      "inputs": [
        {
          "name": "name",
          "type": "address"
        }
      ],
      "name": "dayVoting",
      "outputs": [],
      "payable": false,
      "stateMutability": "nonpayable",
      "type": "function"
    },
    {
      "constant": false,
      "inputs": [
        {
          "name": "_role",
          "type": "uint8"
        },
        {
          "name": "_pokerKey",
          "type": "uint256"
        }
      ],
      "name": "openRole",
      "outputs": [],
      "payable": false,
      "stateMutability": "nonpayable",
      "type": "function"
    },
    {
      "constant": true,
      "inputs": [],
      "name": "numSurvive",
      "outputs": [
        {
          "name": "",
          "type": "uint256"
        }
      ],
      "payable": false,
      "stateMutability": "view",
      "type": "function"
    }
  ],
  "bytecode": "0x6060604052341561000f57600080fd5b7f79be667ef9dcbbac55a06295ce870b07029bfcdb2dce28d959f2815b16f817986004557f483ada7726a3c4655da4fbfc0e1108a8fd17b448a68554199c47d08ffb10d4b86005556125da806100666000396000f3006060604052600436106101065763ffffffff7c0100000000000000000000000000000000000000000000000000000000600035041663076d9680811461010b5780632e52d6061461015c5780634ef3ea74146101815780634fb793dc146101a057806354054cd5146101dc57806358801f17146101fb5780635c56e5081461020e5780636e6ac9c6146102215780639a01967814610237578063a4f195aa14610259578063acb2c01a14610275578063d34544cd14610288578063d6ffa29a146102a1578063d9e0bf4e146102b4578063dfbf53ae146102e6578063eb28808114610370578063f6ac71cd14610386578063f71d96cb146103a5578063fd3ab282146103ff575b600080fd5b341561011657600080fd5b61015a600460248135818101908301358060208181020160405190810160405280939291908181526020018383602002808284375094965061041295505050505050565b005b341561016757600080fd5b61016f610744565b60405190815260200160405180910390f35b341561018c57600080fd5b61016f600160a060020a036004351661074a565b34156101ab57600080fd5b61016f600460448160026040805190810160405280929190826002602002808284375093955061075c945050505050565b34156101e757600080fd5b61016f600160a060020a03600435166107b2565b341561020657600080fd5b61015a6107c4565b341561021957600080fd5b61015a61095f565b341561022c57600080fd5b61016f600435610c51565b341561024257600080fd5b61015a600160a060020a0360043516602435610c63565b341561026457600080fd5b61015a60ff60043516602435610d74565b341561028057600080fd5b61016f610f7c565b341561029357600080fd5b61016f600435602435610f87565b34156102ac57600080fd5b61015a610fb9565b34156102bf57600080fd5b6102ca600435611023565b604051600160a060020a03909116815260200160405180910390f35b34156102f157600080fd5b6102f961104b565b60405160208082528190810183818151815260200191508051906020019080838360005b8381101561033557808201518382015260200161031d565b50505050905090810190601f1680156103625780820380516001836020036101000a031916815260200191505b509250505060405180910390f35b341561037b57600080fd5b61016f6004356110e9565b341561039157600080fd5b61015a600160a060020a03600435166110fb565b34156103b057600080fd5b6103bb600435611104565b604051600160a060020a03851681528315156020820152604081018360038111156103e257fe5b60ff16815260200182815260200194505050505060405180910390f35b341561040a57600080fd5b61016f61115f565b600060068251101561042357600080fd5b815160038190556001016104386000826122c4565b50600190505b60035481116105c35760a06040519081016040528083600184038151811061046257fe5b90602001906020020151600160a060020a031681526020016001151581526020016040805190810160405260008082526020808301829052918352910190815260200160008152506000828154811015156104b957fe5b90600052602060002090600502016000820151815473ffffffffffffffffffffffffffffffffffffffff1916600160a060020a039190911617815560208201518154901515740100000000000000000000000000000000000000000274ff000000000000000000000000000000000000000019909116178155604082015161054790600183019060026122f0565b5060608201518160030160006101000a81548160ff0219169083600381111561056c57fe5b0217905550608082015181600401559050508060066000808481548110151561059157fe5b60009182526020808320600590920290910154600160a060020a0316835282019290925260400190205560010161043e565b600860205260027fad67d757c34507f157cacfa2e3153e9f260a2244f30428821be7be64587ac55f5560017f6add646517a5b0f6793cd5891b7937d28a5b2981a5d88ebc7cd776088fea90418190556003805460009190915260021981017f625b35f5e76f098dd7c3a05b10e2e5e78a4a01228d60c3b143426cdf36d26455550161064f60098261232e565b50600190505b600354811161070b57600080548290811061066c57fe5b600091825260209091206005909102015460098054600160a060020a03909216918390811061069757fe5b906000526020600020900160006101000a815481600160a060020a030219169083600160a060020a0316021790555080600a600080848154811015156106d957fe5b60009182526020808320600590920290910154600160a060020a03168352820192909252604001902055600101610655565b7f0475fa33e711a0d11030b454020a5f7c806520bdc5d7a1fcb9accde610a00f2460035460405190815260200160405180910390a15050565b60035481565b60066020526000908152604090205481565b600060076000836040518082604080838360005b83811015610788578082015183820152602001610770565b50505050905001915050604051908190039020815260208101919091526040016000205492915050565b600a6020526000908152604090205481565b6000806107cf612352565b6107779250600091505b60035482116108905761083c836002848154811015156107f557fe5b90600052602060002090600202016002806020026040519081016040529190828260026020028201915b81548152602001906001019080831161081f575050505050611175565b600280548590811061084a57fe5b6000918252602082206002805492810290910192918790811061086957fe5b600091825260209091206002909102016001019290925591909155506001909101906107d9565b600280548190811061089e57fe5b90600052602060002090600202016002806020026040519081016040529190828260026020028201915b8154815260200190600101908083116108c85750505050509050600260058154811015156108f257fe5b906000526020600020906002020160028081548110151561090f57fe5b906000526020600020906002020190600261092b929190612378565b50806002600581548110151561093d57fe5b90600052602060002090600202019060026109599291906122f0565b50505050565b60008060008051602061258f83398151915260028054905060405190815260200160405180910390a16003546001016109996002826123a3565b6109a460018261232e565b5060008051602061258f833981519152600160405190815260200160405180910390a1600091505b60035482116109e9576109de826111af565b6001909101906109cc565b60008051602061258f833981519152600260405190815260200160405180910390a1610a8360016000815481101515610a1e57fe5b90600052602060002090015460026000815481101515610a3a57fe5b90600052602060002090600202016002806020026040519081016040529190828260026020028201915b815481526020019060010190808311610a6457505050505060006111e2565b610afa600180815481101515610a9557fe5b90600052602060002090015460026001815481101515610ab157fe5b90600052602060002090600202016002806020026040519081016040529190828260026020028201915b815481526020019060010190808311610adb57505050505060016111e2565b610b2860016002815481101515610b0d57fe5b906000526020600020900154600280815481101515610ab157fe5b610ba060016003815481101515610b3b57fe5b90600052602060002090015460026003815481101515610b5757fe5b90600052602060002090600202016002806020026040519081016040529190828260026020028201915b815481526020019060010190808311610b8157505050505060026111e2565b5060045b6003548111610c2b57610c23600182815481101515610bbf57fe5b906000526020600020900154600283815481101515610bda57fe5b90600052602060002090600202016002806020026040519081016040529190828260026020028201915b815481526020019060010190808311610c0457505050505060036111e2565b600101610ba4565b60008051602061258f833981519152600360405190815260200160405180910390a15050565b60076020526000908152604090205481565b6000610c6d6123cf565b600160a060020a038416600090815260066020526040812054815490935083908110610c9557fe5b906000526020600020906005020160a060405190810160409081528254600160a060020a038116835274010000000000000000000000000000000000000000900460ff161515602083015290919080830190600183019060029080519081016040529190828260026020028201915b815481526020019060010190808311610d0457505050918352505060038281015460209092019160ff1690811115610d3857fe5b6003811115610d4357fe5b81526020016004820154815250509050610d5d838261127f565b1515600114610d6b57600080fd5b6109598461129e565b6000610d808383611422565b1515600114610d8e57600080fd5b50600160a060020a03331660009081526006602052604081205481549091849183908110610db857fe5b906000526020600020906005020160030160006101000a81548160ff02191690836003811115610de457fe5b021790555081600082815481101515610df957fe5b90600052602060002090600502016004018190555060086000846003811115610e1e57fe5b81526020808201929092526040016000908120805460001901905560089091527f625b35f5e76f098dd7c3a05b10e2e5e78a4a01228d60c3b143426cdf36d26455547f6add646517a5b0f6793cd5891b7937d28a5b2981a5d88ebc7cd776088fea90415460019092527fad67d757c34507f157cacfa2e3153e9f260a2244f30428821be7be64587ac55f5491011415610efe5760408051908101604052600a81527f57657265776f6c766573000000000000000000000000000000000000000000006020820152600b908051610ef8929160200190612404565b50610f77565b600160005260086020527fad67d757c34507f157cacfa2e3153e9f260a2244f30428821be7be64587ac55f541515610f775760408051908101604052600681527f48756d616e7300000000000000000000000000000000000000000000000000006020820152600b908051610959929160200190612404565b505050565b600954600019015b90565b6002805483908110610f9557fe5b906000526020600020906002020181600281101515610fb057fe5b01549150829050565b60015b6003548111611018576002805482908110610fd357fe5b9060005260206000209060020201600082815481101515610ff057fe5b906000526020600020906005020160010190600261100f929190612378565b50600101610fbc565b611020611444565b50565b600980548290811061103157fe5b600091825260209091200154600160a060020a0316905081565b600b8054600181600116156101000203166002900480601f0160208091040260200160405190810160405280929190818152602001828054600181600116156101000203166002900480156110e15780601f106110b6576101008083540402835291602001916110e1565b820191906000526020600020905b8154815290600101906020018083116110c457829003601f168201915b505050505081565b60086020526000908152604090205481565b6110208161129e565b600080548290811061111257fe5b6000918252602090912060059091020180546003820154600490920154600160a060020a03821693507401000000000000000000000000000000000000000090910460ff90811692169084565b70014551231950b75fc4402da1732fc9bebe1981565b600080611180612471565b61118a8585611488565b905061119c816401000003d0196118b4565b8051602082015192509250509250929050565b70014551231950b75fc4402da1732fc9bebe1981066001828154811015156111d357fe5b60009182526020909120015550565b611219836004600260408051908101604090815283548252909291908301600183016020850180831161081f575050505050611175565b6020840152825280600381111561122c57fe5b60076000846040518082604080838360005b8381101561125657808201518382015260200161123e565b505050509050019150506040519081900390208152602081019190915260400160002055505050565b600082607b1480156112975750816020015115156001145b9392505050565b600160a060020a0381166000908152600660205260408120548154909190819081908190859081106112cc57fe5b6000918252602080832060059092029091018054931515740100000000000000000000000000000000000000000274ff00000000000000000000000000000000000000001990941693909317909255600160a060020a0386168152600a909152604090205491508190505b6009546001190181116113f157600980546001830190811061135557fe5b60009182526020909120015460098054600160a060020a03909216918390811061137b57fe5b906000526020600020900160006101000a815481600160a060020a030219169083600160a060020a03160217905550600a60006009838154811015156113bd57fe5b6000918252602080832090910154600160a060020a0316835282019290925260400190208054600019019055600101611337565b600980549061140490600019830161232e565b50505050600160a060020a03166000908152600a6020526040812055565b60008083600381111561143157fe5b141580156112975750506101c814919050565b600160005b600354821161148457600080548390811061146057fe5b60009182526020909120600160059092020181018054820181559201919050611449565b5050565b611490612471565b600080600061149d61248b565b6114a5612471565b6114ad6124b9565b6401000003d0199550600080808b15156114c6576118a5565b6000604051985061020089016040525b8c1561150e5760018d16156114fd5750601f8c16808989015360206010821102818e03019c505b60028d049c506001880197506114d6565b506060604051908101604052808c5181526020018c60016020020151815260016020909101528652611540865161191c565b945061154c858c611a37565b6020870152611563858760015b6020020151611c73565b604087015261157485876002611559565b606087015261158585876003611559565b608087015261159685876004611559565b60a08701526115a785876005611559565b60c08701526115b885876006611559565b60e08701526020860151604001518452888015156115d257fe5b8451604088015160400151096020850152888015156115ed57fe5b60208501516060880151604001510960408501528880151561160b57fe5b60408501516080880151604001510960608501528880151561162957fe5b606085015160a0880151604001510960808501528880151561164757fe5b608085015160c0880151604001510960a08501528880151561166557fe5b60a085015160e0880151604001510960c0850190815261168690518a611ecc565b60e08501908152516101008501528880151561169e57fe5b61010085015160a0860151096101e0850152600692505b6002831061173257888015156116c757fe5b6101008501518760018601600881106116dc57fe5b60200201516040015109610100850152888015156116f657fe5b6101008501518560011986016010811061170c57fe5b60200201510984600885016010811061172157fe5b6020020152600019909201916116b5565b8880151561173c57fe5b61010085015160408801516040015109610120850152600092505b60078310156117cf576117c486600185016008811061177257fe5b602002015185600986016010811061178657fe5b60200201518b80151561179557fe5b8760098801601081106117a457fe5b60200201518860098901601081106117b857fe5b6020020151098c611f6a565b600190920191611757565b60008711156118a557600019808801978901015160001a91506117f18a611f99565b601082111561184c57506002601f829003046118478a604080519081016040528089856008811061181e57fe5b602002015151815260200189856008811061183557fe5b6020020151602001518d0390526120aa565b6118a0565b60008211156118a0575060026000198201046118a08a604080519081016040528089856008811061187957fe5b602002015151815260200189856008811061189057fe5b60200201516020015190526120aa565b6117cf565b50505050505050505092915050565b6000806118c5604085015184611ecc565b9150828015156118d157fe5b8283099050828015156118e057fe5b818551098452828015156118f057fe5b838015156118fa57fe5b8284098560015b60200201510960208501525050600160409092019190915250565b611924612471565b6401000003d019600080808080806040890151151561194257611a2b565b88519550602089015194508680151561195757fe5b85860993508680151561196657fe5b8780151561197057fe5b85880960040992508680151561198257fe5b8780151561198c57fe5b87880960030991508680151561199e57fe5b878015156119a857fe5b8485088803888015156119b757fe5b848509088089529050868015156119ca57fe5b878015156119d457fe5b888015156119de57fe5b8687096008098803888015156119f057fe5b898015156119fa57fe5b848b038708850908602089015286801515611a1157fe5b87801515611a1b57fe5b60408b0151870960020960408901525b50505050505050919050565b611a3f612471565b6000611a49612352565b611a516124d4565b60008080808060408b01511515611a8e576060604051908101604052808b5181526020018b60016020020151815260200160018152509850611c65565b60208a01511515611aa1578a9850611c65565b6401000003d01997508760408c015160408d015109875287801515611ac257fe5b875160408d01510960208801526080604051908101604052808c5181526020018c60016020020151815260200189801515611af957fe5b89518d5109815260200189801515611b0d57fe5b60208a015160208e01510990529550604086015186511415611b5d576060860151602087015114611b4e576000808c5260208c0181905260408c0152611c65565b611b578b61191c565b50611c65565b87801515611b6757fe5b86518903604088015108945087801515611b7d57fe5b60208701518903606088015108935087801515611b9657fe5b858609925087801515611ba557fe5b858409915087801515611bb457fe5b82890389801515611bc157fe5b86870908905087801515611bd157fe5b88801515611bdb57fe5b89801515611be557fe5b8589510960020989038208808a52905087801515611bff57fe5b88801515611c0957fe5b828a038a801515611c1657fe5b868a510908850960208a015287801515611c2c57fe5b88801515611c3657fe5b83602089015109890360208b01510860208a015287801515611c5457fe5b60408c015186098960025b60200201525b505050505050505092915050565b611c7b612471565b6000611c856124d4565b611c8d6124d4565b60008080808060408b01511515611ca657899850611c65565b60408a01511515611cb9578a9850611c65565b6401000003d01997508760408c015160408d015109875287801515611cda57fe5b875160408d015109602088015287801515611cf157fe5b60408b015160408c015109604088015287801515611d0b57fe5b604088015160408c015109606088015260806040519081016040528089801515611d3157fe5b60408a01518e5109815260200189801515611d4857fe5b60608a015160208f015109815260200189801515611d6257fe5b89518d5109815260200189801515611d7657fe5b60208a015160208e01510990529550604086015186511415611db6576060860151602087015114611da657611c65565b611daf8b61191c565b9850611c65565b87801515611dc057fe5b86518903604088015108945087801515611dd657fe5b60208701518903606088015108935087801515611def57fe5b858609925087801515611dfe57fe5b858409915087801515611e0d57fe5b82890389801515611e1a57fe5b86870908905087801515611e2a57fe5b88801515611e3457fe5b89801515611e3e57fe5b8589510960020989038208808a52905087801515611e5857fe5b88801515611e6257fe5b828a038a801515611e6f57fe5b868a510908850960208a015287801515611e8557fe5b88801515611e8f57fe5b83602089015109890360208b01510860208a015287801515611ead57fe5b88801515611eb757fe5b60408c015160408e0151098609896002611c5f565b600080808080808715801590611ee25750868814155b8015611eed57508615155b1515611ef857600080fd5b86881115611f0f578688811515611f0b57fe5b0697505b600193508692508791505b8115611f45578183811515611f2b57fe5b949594048581029094039391928383029003919050611f1a565b6000851215611f5b578460000387039550611f5f565b8495505b505050505092915050565b80801515611f7457fe5b82855109845280801515611f8457fe5b81801515611f8e57fe5b838509856001611901565b6401000003d0196000808080808060408801511515611fb7576120a0565b875195506020880151945086801515611fcc57fe5b858609935086801515611fdb57fe5b87801515611fe557fe5b858809600409925086801515611ff757fe5b8780151561200157fe5b87880960030991508680151561201357fe5b8780151561201d57fe5b84850888038880151561202c57fe5b8485090880895290508680151561203f57fe5b8780151561204957fe5b8880151561205357fe5b86870960080988038880151561206557fe5b8980151561206f57fe5b848b03870885090860208901528680151561208657fe5b8780151561209057fe5b60408a0151870960020960408901525b5050505050505050565b60006120b4612352565b6120bc6124d4565b60008080808060208a015115156120eb5788518a52602089015160208b015260018a60025b60200201526122b8565b602089015115156120fb576122b8565b6401000003d01997508760408b015160408c01510987528780151561211c57fe5b875160408c01510960208801526080604051908101604052808b5181526020018b6001602002015181526020018980151561215357fe5b89518c510981526020018980151561216757fe5b60208a015160208d015109905295506040860151865114156121b45760608601516020870151146121a6576000808b5260208b018190528a60026120e1565b6121af8a611f99565b6122b8565b878015156121be57fe5b865189036040880151089450878015156121d457fe5b602087015189036060880151089350878015156121ed57fe5b8586099250878015156121fc57fe5b85840991508780151561220b57fe5b8289038980151561221857fe5b8687090890508780151561222857fe5b8880151561223257fe5b8980151561223c57fe5b8589510960020989038208808b5290508780151561225657fe5b8880151561226057fe5b828a038a80151561226d57fe5b868a510908850960208b01528780151561228357fe5b8880151561228d57fe5b83602089015109890360208c01510860208b0152878015156122ab57fe5b60408b0151860960408b01525b50505050505050505050565b815481835581811511610f7757600502816005028360005260206000209182019101610f7791906124ee565b826002810192821561231e579160200282015b8281111561231e578251825591602001919060010190612303565b5061232a929150612543565b5090565b815481835581811511610f7757600083815260209020610f77918101908301612543565b604080519081016040526002815b60008152602001906001900390816123605790505090565b826002810192821561231e579182015b8281111561231e578254825591600101919060010190612388565b815481835581811511610f7757600202816002028360005260206000209182019101610f77919061255d565b60c060405190810160409081526000808352602083015281016123f0612352565b815260200160008152602001600081525090565b828054600181600116156101000203166002900490600052602060002090601f016020900481019282601f1061244557805160ff191683800117855561231e565b8280016001018555821561231e579182018281111561231e578251825591602001919060010190612303565b606060405190810160405260008152600260208201612360565b6103006040519081016040526008815b6124a3612471565b81526020019060019003908161249b5790505090565b61020060405190810160405260008152600f60208201612360565b608060405190810160405260008152600360208201612360565b610f8491905b8082111561232a57805474ffffffffffffffffffffffffffffffffffffffffff1916815560006125276001830182612580565b5060038101805460ff19169055600060048201556005016124f4565b610f8491905b8082111561232a5760008155600101612549565b610f8491905b8082111561232a5760006125778282612580565b50600201612563565b5060008155600101600090555600815dd9519870d101e38b45559b1649c875a90269952473d54ef2768399962389a165627a7a723058202e10a0d75cd6fb60bfc549e006742fed2d21d5753d3c936a512d87502187f4c30029",
  "source": "pragma solidity ^0.4.19;\r\nimport \"./CDSProtocol.sol\";\r\nimport \"./OrPoK.sol\";\r\n\r\ncontract SmartWerewolf {\r\n    \r\n    //bullet broad\r\n    Player[] public players;\r\n    uint[] MPC;\r\n    uint[2][] public deck;\r\n    uint public n;\r\n    uint[2] G;\r\n    mapping (address => uint) public playerNumOf;\r\n    mapping(bytes32 => uint) public roleOf;\r\n    \r\n    //parameters using bitcoin's curve\r\n    uint constant p = 0xFFFFFFFFFFFFFFFFFFFFFFFFFFFFFFFFFFFFFFFFFFFFFFFFFFFFFFFEFFFFFC2F;\r\n    uint constant Gx =0x79BE667EF9DCBBAC55A06295CE870B07029BFCDB2DCE28D959F2815B16F81798;\r\n    uint constant Gy = 0x483ADA7726A3C4655DA4FBFC0E1108A8FD17B448A68554199C47D08FFB10D4B8;\r\n    uint public constant q = 0xFFFFFFFFFFFFFFFFFFFFFFFFFFFFFFFEBAAEDCE6AF48A03BBFD25E8CD0364141;\r\n   \r\n    //up-to-date report\r\n    mapping(uint => uint) public living;\r\n    address[] public livingPlayers;\r\n    mapping(address => uint) public theLivingNumOf;\r\n    string public winner;\r\n    \r\n    function SmartWerewolf() public {\r\n        G[0] = Gx;\r\n        G[1] = Gy;\r\n    }\r\n\r\n    //1. \r\n    function engagement(address[] _players) public {\r\n        require(_players.length >= 6);\r\n        n = _players.length;\r\n        players.length = 1+ n;\r\n        uint i;\r\n        for (i = 1; i <= n; i++) {\r\n            players[i] = Player\r\n            (\r\n                {\r\n                    name: _players[ i-1 ],  \r\n                    live: true, \r\n                    hand: [uint(0),0], \r\n                    role: RoleTypes.Unseen,\r\n                    pokerKey: 0\r\n                }\r\n           ); \r\n        playerNumOf[players[i].name] = i;\r\n        }\r\n        \r\n        living[uint(RoleTypes.Werewolf)]=2;\r\n        living[uint(RoleTypes.Seer)]=1;\r\n        living[uint(RoleTypes.Villager)]=n-3;\r\n\r\n        livingPlayers.length=n+1;\r\n        for(i=1;i<=n;i++){\r\n            livingPlayers[i]=players[i].name;\r\n            theLivingNumOf[players[i].name]=i;\r\n        }\r\n        emit PlayerReady(n);\r\n    }\r\n    \r\n    function roleOf(uint[2] card) public view returns(uint){\r\n        return roleOf[keccak256(card)];\r\n    }\r\n\r\n    function multiply(uint s, uint[2] point) internal returns(uint ,uint){\r\n        uint[3] memory result = Secp256k1_noconflict._mul(s, point);\r\n        ECCMath_noconflict.toZ1(result, p);\r\n        return (result[0],result[1]);\r\n    }\r\n    \r\n    function generateMap(uint mpc, uint[2] card, RoleTypes role) internal {\r\n        (card[0], card[1]) = multiply(mpc, G);\r\n        roleOf[keccak256(card)] = uint(role);\r\n    }\r\n\r\n    //2-1 \r\n    //(a)    \r\n    function createCards() public {\r\n        debug(deck.length);\r\n        MPC.length = deck.length = 1+n;\r\n        debug(1);\r\n        for(uint i=0; i <= n; i++ ){\r\n            prepareDeck(i);\r\n        }\r\n        debug(2);\r\n        generateMap(MPC[0], deck[0], RoleTypes.Unseen);\r\n        generateMap(MPC[1], deck[1], RoleTypes.Werewolf);\r\n        generateMap(MPC[2], deck[2], RoleTypes.Werewolf);\r\n        generateMap(MPC[3], deck[3], RoleTypes.Seer);\r\n        for (uint j = 4; j <= n; j++) {\r\n            generateMap(MPC[j], deck[j], RoleTypes.Villager);\r\n        }\r\n        debug(3);\r\n    }\r\n    \r\n    //TODO:(b)  \r\n    function shuffleCards() public {\r\n        uint printBack = 0x777; \r\n        for(uint i=0; i<=n; i++){\r\n            (deck[i][0], deck[i][1]) = multiply(printBack, deck[i]);\r\n        }\r\n        uint[2] memory tmp = deck[2];\r\n        deck[2] = deck[5];\r\n        deck[5] = tmp;\r\n    } \r\n\r\n    //TODO: 2-2.  \r\n    function dealCards() public {\r\n        for(uint i=1; i<=n; i++){\r\n            players[i].hand = deck[i];\r\n        }\r\n        helpDecryptRole();\r\n    }\r\n\r\n    function nightKill(address victimName, uint proofCanKill) public {\r\n        uint v = playerNumOf[victimName];\r\n        Player memory victim = players[v];\r\n        require (verify(proofCanKill, victim)==true);\r\n        killed(victimName);\r\n    }\r\n    \r\n    function dayVoting(address name) public {\r\n        \r\n        killed(name);\r\n\r\n    }\r\n\r\n    function openRole(RoleTypes _role, uint _pokerKey) public {\r\n        require(verifyRole(_role, _pokerKey)==true);\r\n        uint i = playerNumOf[msg.sender];\r\n        players[i].role = _role;\r\n        players[i].pokerKey=_pokerKey;\r\n        \r\n        living[uint(_role)]--;\r\n\r\n        if(living[uint(RoleTypes.Werewolf)]==living[uint(RoleTypes.Seer)]+living[uint(RoleTypes.Villager)]){\r\n            winner = \"Werewolves\";\r\n        }\r\n        else if(living[uint(RoleTypes.Werewolf)]==0){\r\n            winner = \"Humans\";\r\n        }\r\n    }\r\n\r\n    function prepareDeck(uint i) internal {\r\n        \r\n        MPC[ i ] = i % q;\r\n    \r\n    }\r\n    \r\n    function helpDecryptRole() internal {\r\n        for(uint i=1; i<=n; i++){\r\n        \tuint[2] storage hand = players[i].hand;\r\n        \thand[0] ++;\r\n        } \r\n    }\r\n\r\n    function verify(uint proofCanKill, Player victim) pure internal returns(bool){\r\n        \r\n        return proofCanKill == 123 && victim.live == true;\r\n    }\r\n\r\n    function killed(address player) internal{\r\n        uint i = playerNumOf[player];\r\n        players[i].live=false;\r\n        uint j= theLivingNumOf[player];\r\n        \r\n        for(uint k=j; k<= livingPlayers.length-2 ; k++){\r\n            livingPlayers[k] = livingPlayers[k+1];\r\n            theLivingNumOf[livingPlayers[k]]--;\r\n        }\r\n        livingPlayers.length--;\r\n        theLivingNumOf[player]=0;\r\n    }\r\n\r\n    function verifyRole(RoleTypes _role, uint _pokerKey) pure internal returns(bool){\r\n        \r\n        return (_role!=RoleTypes.Unseen && _pokerKey==456);\r\n    \r\n    }\r\n    \r\n    function numSurvive() view returns(uint){\r\n        \r\n        return livingPlayers.length-1;\r\n    \r\n    }\r\n    \r\n    enum RoleTypes{Unseen, Werewolf, Seer, Villager}\r\n    \r\n    struct Player{\r\n        address name;\r\n        bool live;\r\n        uint[2] hand;\r\n        RoleTypes role;\r\n        uint pokerKey;\r\n    }\r\n\r\n   struct KillConditions{\r\n        uint iAmWerewolf;\r\n        uint iAmLive;\r\n        uint victimLive;\r\n    }\r\n    \r\n    event PlayerReady(uint numPlayers);\r\n    event ShowHand(uint[2][] livingHand);\r\n    event debug(uint i);\r\n}",
  "sourcePath": "C:\\Users\\eason\\Documents\\GitHub\\SmartWerewolf\\contracts\\SmartWerewolf.sol",
  "compiler": {
    "name": "solc",
    "version": "0.4.21+commit.dfe3193c.Emscripten.clang"
  },
  "schemaVersion": "2.0.0",
  "updatedAt": "2018-04-15T21:11:30.502Z"
}