{
  "contractName": "SmartWerewolf",
  "abi": [
    {
      "constant": true,
      "inputs": [
        {
          "name": "",
          "type": "uint256"
        }
      ],
      "name": "deck",
      "outputs": [
        {
          "name": "",
          "type": "uint256"
        }
      ],
      "payable": false,
      "stateMutability": "view",
      "type": "function"
    },
    {
      "constant": true,
      "inputs": [
        {
          "name": "",
          "type": "uint256"
        }
      ],
      "name": "roleOf",
      "outputs": [
        {
          "name": "",
          "type": "uint256"
        }
      ],
      "payable": false,
      "stateMutability": "view",
      "type": "function"
    },
    {
      "constant": true,
      "inputs": [],
      "name": "winner",
      "outputs": [
        {
          "name": "",
          "type": "string"
        }
      ],
      "payable": false,
      "stateMutability": "view",
      "type": "function"
    },
    {
      "constant": true,
      "inputs": [
        {
          "name": "",
          "type": "uint256"
        }
      ],
      "name": "living",
      "outputs": [
        {
          "name": "",
          "type": "uint256"
        }
      ],
      "payable": false,
      "stateMutability": "view",
      "type": "function"
    },
    {
      "constant": true,
      "inputs": [
        {
          "name": "",
          "type": "uint256"
        }
      ],
      "name": "players",
      "outputs": [
        {
          "name": "id",
          "type": "address"
        },
        {
          "name": "live",
          "type": "bool"
        },
        {
          "name": "hand",
          "type": "uint256"
        },
        {
          "name": "role",
          "type": "uint8"
        },
        {
          "name": "pokerKey",
          "type": "uint256"
        }
      ],
      "payable": false,
      "stateMutability": "view",
      "type": "function"
    },
    {
      "constant": false,
      "inputs": [
        {
          "name": "_players",
          "type": "address[]"
        }
      ],
      "name": "engagement",
      "outputs": [],
      "payable": false,
      "stateMutability": "nonpayable",
      "type": "function"
    },
    {
      "constant": false,
      "inputs": [],
      "name": "createCards",
      "outputs": [],
      "payable": false,
      "stateMutability": "nonpayable",
      "type": "function"
    },
    {
      "constant": false,
      "inputs": [],
      "name": "shuffleCards",
      "outputs": [],
      "payable": false,
      "stateMutability": "nonpayable",
      "type": "function"
    },
    {
      "constant": false,
      "inputs": [],
      "name": "dealCards",
      "outputs": [],
      "payable": false,
      "stateMutability": "nonpayable",
      "type": "function"
    },
    {
      "constant": false,
      "inputs": [
        {
          "name": "victimName",
          "type": "address"
        },
        {
          "name": "proofCanKill",
          "type": "uint256"
        }
      ],
      "name": "nightKill",
      "outputs": [],
      "payable": false,
      "stateMutability": "nonpayable",
      "type": "function"
    },
    {
      "constant": false,
      "inputs": [
        {
          "name": "name",
          "type": "address"
        }
      ],
      "name": "dayVoting",
      "outputs": [],
      "payable": false,
      "stateMutability": "nonpayable",
      "type": "function"
    },
    {
      "constant": false,
      "inputs": [
        {
          "name": "_role",
          "type": "uint8"
        },
        {
          "name": "_pokerKey",
          "type": "uint256"
        }
      ],
      "name": "openRole",
      "outputs": [],
      "payable": false,
      "stateMutability": "nonpayable",
      "type": "function"
    }
  ],
  "bytecode": "0x6060604052600d600455610123600555341561001a57600080fd5b611271806100296000396000f3006060604052600436106100ba576000357c0100000000000000000000000000000000000000000000000000000000900463ffffffff168063076d9680146100bf57806358801f17146101195780635c56e5081461012e57806365b1dafa1461014357806372b1d8cf1461017a5780639a019678146101b1578063a4f195aa146101f3578063d6ffa29a14610222578063dfbf53ae14610237578063eb288081146102c5578063f6ac71cd146102fc578063f71d96cb14610335575b600080fd5b34156100ca57600080fd5b6101176004808035906020019082018035906020019080806020026020016040519081016040528093929190818152602001838360200280828437820191505050505050919050506103c6565b005b341561012457600080fd5b61012c610611565b005b341561013957600080fd5b6101416106ef565b005b341561014e57600080fd5b61016460048080359060200190919050506109c9565b6040518082815260200191505060405180910390f35b341561018557600080fd5b61019b60048080359060200190919050506109ed565b6040518082815260200191505060405180910390f35b34156101bc57600080fd5b6101f1600480803573ffffffffffffffffffffffffffffffffffffffff16906020019091908035906020019091905050610a05565b005b34156101fe57600080fd5b610220600480803560ff16906020019091908035906020019091905050610b59565b005b341561022d57600080fd5b610235610d80565b005b341561024257600080fd5b61024a610de9565b6040518080602001828103825283818151815260200191508051906020019080838360005b8381101561028a57808201518184015260208101905061026f565b50505050905090810190601f1680156102b75780820380516001836020036101000a031916815260200191505b509250505060405180910390f35b34156102d057600080fd5b6102e66004808035906020019091905050610e87565b6040518082815260200191505060405180910390f35b341561030757600080fd5b610333600480803573ffffffffffffffffffffffffffffffffffffffff16906020019091905050610e9f565b005b341561034057600080fd5b6103566004808035906020019091905050610eab565b604051808673ffffffffffffffffffffffffffffffffffffffff1673ffffffffffffffffffffffffffffffffffffffff168152602001851515151581526020018481526020018360038111156103a857fe5b60ff1681526020018281526020019550505050505060405180910390f35b600060068251101515156103d957600080fd5b81516003819055506003546001016000816103f49190611071565b50600090505b60035481101561059c5760a060405190810160405280838381518110151561041e57fe5b9060200190602002015173ffffffffffffffffffffffffffffffffffffffff168152602001600115158152602001600081526020016000600381111561046057fe5b8152602001600081525060006001830181548110151561047c57fe5b906000526020600020906004020160008201518160000160006101000a81548173ffffffffffffffffffffffffffffffffffffffff021916908373ffffffffffffffffffffffffffffffffffffffff16021790555060208201518160000160146101000a81548160ff0219169083151502179055506040820151816001015560608201518160020160006101000a81548160ff0219169083600381111561051f57fe5b0217905550608082015181600301559050506001810160066000848481518110151561054757fe5b9060200190602002015173ffffffffffffffffffffffffffffffffffffffff1673ffffffffffffffffffffffffffffffffffffffff1681526020019081526020016000208190555080806001019150506103fa565b600260086000600160038111156105af57fe5b815260200190815260200160002081905550600160086000600260038111156105d457fe5b8152602001908152602001600020819055506003805403600860006003808111156105fb57fe5b8152602001908152602001600020819055505050565b60008060006107779250600091505b60035482111515610673578260028381548110151561063b57fe5b9060005260206000209001540a60028381548110151561065757fe5b9060005260206000209001819055508180600101925050610620565b60028081548110151561068257fe5b9060005260206000209001549050600260058154811015156106a057fe5b9060005260206000209001546002808154811015156106bb57fe5b90600052602060002090018190555080600260058154811015156106db57fe5b906000526020600020900181905550505050565b60008060035460010160028161070591906110a3565b60018161071291906110a3565b50600091505b600354821115156107395761072c82610f2a565b8180600101925050610718565b6001600081548110151561074957fe5b9060005260206000209001546005540a6002600081548110151561076957fe5b9060005260206000209001819055506000600381111561078557fe5b600760006002600081548110151561079957fe5b9060005260206000209001548152602001908152602001600020819055506001808154811015156107c657fe5b9060005260206000209001546005540a600260018154811015156107e657fe5b9060005260206000209001819055506001600381111561080257fe5b600760006002600181548110151561081657fe5b9060005260206000209001548152602001908152602001600020819055506001600281548110151561084457fe5b9060005260206000209001546005540a60028081548110151561086357fe5b9060005260206000209001819055506001600381111561087f57fe5b6007600060028081548110151561089257fe5b906000526020600020900154815260200190815260200160002081905550600160038154811015156108c057fe5b9060005260206000209001546005540a600260038154811015156108e057fe5b906000526020600020900181905550600260038111156108fc57fe5b600760006002600381548110151561091057fe5b906000526020600020900154815260200190815260200160002081905550600490505b600354811115156109c55760018181548110151561094d57fe5b9060005260206000209001546005540a60028281548110151561096c57fe5b90600052602060002090018190555060038081111561098757fe5b6007600060028481548110151561099a57fe5b9060005260206000209001548152602001908152602001600020819055508080600101915050610933565b5050565b6002818154811015156109d857fe5b90600052602060002090016000915090505481565b60076020528060005260406000206000915090505481565b6000610a0f6110cf565b600660008573ffffffffffffffffffffffffffffffffffffffff1673ffffffffffffffffffffffffffffffffffffffff168152602001908152602001600020549150600082815481101515610a6057fe5b906000526020600020906004020160a060405190810160405290816000820160009054906101000a900473ffffffffffffffffffffffffffffffffffffffff1673ffffffffffffffffffffffffffffffffffffffff1673ffffffffffffffffffffffffffffffffffffffff1681526020016000820160149054906101000a900460ff16151515158152602001600182015481526020016002820160009054906101000a900460ff166003811115610b1357fe5b6003811115610b1e57fe5b8152602001600382015481525050905060011515610b3c8483610f4c565b1515141515610b4a57600080fd5b610b5384610f6e565b50505050565b600060011515610b698484610fee565b1515141515610b7757600080fd5b600660003373ffffffffffffffffffffffffffffffffffffffff1673ffffffffffffffffffffffffffffffffffffffff16815260200190815260200160002054905082600082815481101515610bc957fe5b906000526020600020906004020160020160006101000a81548160ff02191690836003811115610bf557fe5b021790555081600082815481101515610c0a57fe5b90600052602060002090600402016003018190555060086000846003811115610c2f57fe5b8152602001908152602001600020600081548092919060019003919050555060086000600380811115610c5e57fe5b8152602001908152602001600020546008600060026003811115610c7e57fe5b815260200190815260200160002054016008600060016003811115610c9f57fe5b8152602001908152602001600020541415610d05576040805190810160405280600a81526020017f57657265776f6c7665730000000000000000000000000000000000000000000081525060099080519060200190610cff929190611122565b50610d7b565b60006008600060016003811115610d1857fe5b8152602001908152602001600020541415610d7a576040805190810160405280600681526020017f48756d616e73000000000000000000000000000000000000000000000000000081525060099080519060200190610d78929190611122565b505b5b505050565b6000600190505b60035481111515610dde57600281815481101515610da157fe5b906000526020600020900154600082815481101515610dbc57fe5b9060005260206000209060040201600101819055508080600101915050610d87565b610de661101f565b50565b60098054600181600116156101000203166002900480601f016020809104026020016040519081016040528092919081815260200182805460018160011615610100020316600290048015610e7f5780601f10610e5457610100808354040283529160200191610e7f565b820191906000526020600020905b815481529060010190602001808311610e6257829003601f168201915b505050505081565b60086020528060005260406000206000915090505481565b610ea881610f6e565b50565b600081815481101515610eba57fe5b90600052602060002090600402016000915090508060000160009054906101000a900473ffffffffffffffffffffffffffffffffffffffff16908060000160149054906101000a900460ff16908060010154908060020160009054906101000a900460ff16908060030154905085565b80600182815481101515610f3a57fe5b90600052602060002090018190555050565b6000607b83148015610f6657506001151582602001511515145b905092915050565b6000600660008373ffffffffffffffffffffffffffffffffffffffff1673ffffffffffffffffffffffffffffffffffffffff16815260200190815260200160002054905060008082815481101515610fc257fe5b906000526020600020906004020160000160146101000a81548160ff0219169083151502179055505050565b6000806003811115610ffc57fe5b83600381111561100857fe5b1415801561101757506101c882145b905092915050565b6000600190505b6003548111151561106e5760008181548110151561104057fe5b9060005260206000209060040201600101600081548092919060010191905055508080600101915050611026565b50565b81548183558181151161109e5760040281600402836000526020600020918201910161109d91906111a2565b5b505050565b8154818355818115116110ca578183600052602060002091820191016110c99190611220565b5b505050565b60a060405190810160405280600073ffffffffffffffffffffffffffffffffffffffff168152602001600015158152602001600081526020016000600381111561111557fe5b8152602001600081525090565b828054600181600116156101000203166002900490600052602060002090601f016020900481019282601f1061116357805160ff1916838001178555611191565b82800160010185558215611191579182015b82811115611190578251825591602001919060010190611175565b5b50905061119e9190611220565b5090565b61121d91905b8082111561121957600080820160006101000a81549073ffffffffffffffffffffffffffffffffffffffff02191690556000820160146101000a81549060ff021916905560018201600090556002820160006101000a81549060ff02191690556003820160009055506004016111a8565b5090565b90565b61124291905b8082111561123e576000816000905550600101611226565b5090565b905600a165627a7a723058209fe15d8575366a8fc1c208f58faf2c840844687c0448a3ae20cf145b0c1a2c8c0029",
  "source": "pragma solidity ^0.4.19;\r\n//pragma experimental ABIEncoderV2;\r\ncontract SmartWerewolf {//沒有constructor\r\n    Player[] public players;\r\n    uint[] MPC;\r\n    uint[] public deck;\r\n    uint n;\r\n    uint p = 13;// TODO: mental poker用的group\r\n    uint G = 0x123;// TODO: generator\r\n    mapping (address => uint) playerNumOf;\r\n    mapping(uint => uint) public roleOf;// 每個腳色的牌長哪樣, 固定的對照表\r\n    mapping(uint => uint) public living;\r\n    string public winner;\r\n    //副詞之後放 \r\n    //Time gameClock;\r\n    \r\n    /*1. 集合玩家*/\r\n    function engagement(address[] _players) public {//oracle幫玩家登錄\r\n    //internal | external , 一定要寫 , public 是 default\r\n        require(_players.length >= 6);//規則是至少6人(uninform majaroty v.s. informed minorty)\r\n        n = _players.length;\r\n        players.length = 1+ n;//常常注意array的長度\r\n        uint i;\r\n        for (i = 0; i < n; i++) {\r\n            players[i+1] = Player\r\n            (\r\n                {\r\n                    id: _players[ i ],  \r\n                    live: true, \r\n                    hand: 0, \r\n                    role: RoleTypes.Unseen,//記得加enum的type\r\n                    pokerKey: 0\r\n                }\r\n           ); \r\n        //從1開始編號\r\n        playerNumOf[_players[i]] = (i+1);\r\n        /* 備用: players.push(_players[i]);\r\n        \r\n        live[ _players[i] ] = true;*/\r\n            //event之後再加 emit JoinGame(i+1, players[i+1].id);\r\n        }\r\n        living[uint(RoleTypes.Werewolf)]=2;\r\n        living[uint(RoleTypes.Seer)]=1;\r\n        living[uint(RoleTypes.Villager)]=n-3;\r\n        //event之後再加 emit PlayerReady(n/*, _players*/);\r\n    }\r\n    \r\n    /*2-1 印製牌*/\r\n    /*(a) 印牌面*/   \r\n    function createCards() public {\r\n        MPC.length = deck.length = 1+n;\r\n        for(uint i=0; i <= n; i++ ){\r\n            prepareDeck(i);// TODO: need to be implemented\r\n        }\r\n        //以下這種寫法要小心deck長度不夠的情況(前面require有規定了玩家的數量)\r\n        deck[0] = G**MPC[ 0 ];\r\n        roleOf[deck[0]]=uint(RoleTypes.Unseen);//只是方便, 應該是本來的Ambitious card\r\n        \r\n        deck[1] = G**MPC[ 1 ];\r\n        roleOf[deck[1]]=uint(RoleTypes.Werewolf);\r\n        \r\n        deck[2] = G**MPC[ 2 ];\r\n        roleOf[deck[2]]=uint(RoleTypes.Werewolf);\r\n        \r\n        deck[3] = G**MPC[ 3 ];\r\n        roleOf[deck[3]]=uint(RoleTypes.Seer);\r\n        \r\n        for (uint j = 4; j <= n; j++) {\r\n            deck[ j ] = G**MPC[j];\r\n            roleOf[deck[j]]=uint(RoleTypes.Villager);\r\n        }\r\n        // TODO: 腳色應該獨立出來, 放在合約裡( mapping )。 modifier 檢查腳色是不是事先規定好的\r\n        //event之後再加 emit CardReady(2, 1, n-3);  \r\n        \r\n    }\r\n    \r\n    /* TODO:(b)洗牌、印製牌背 */   \r\n    function shuffleCards() public {// TODO: need to be implemented\r\n        uint printBack = 0x777; //用來代表所有人key的乘積\r\n        for(uint i=0; i<=n; i++){//模擬加密\r\n            deck[i] = deck[i]** printBack;\r\n        }\r\n\r\n        //模擬permutation\r\n        //\r\n        uint tmp = deck[2];//不是complex types的會在stack裡\r\n        deck[2] = deck[5];\r\n        deck[5] = tmp;\r\n        //event之後再加 emit CardShuffled();\r\n    } \r\n\r\n    /* TODO: 2-2. 發牌 */\r\n    //目前是照順序發\r\n    //TODO: need to be implemented\r\n    function dealCards() public {\r\n        for(uint i=1; i<=n; i++){\r\n            players[i].hand = deck[i];//可能有一邊有點多餘\r\n            /*TODO: 這種寫法牌會被看光, 改成\r\n            mapping(uint => CardTypes) roleOf;// 每個腳色的牌長哪樣, 固定的對照表\r\n            uint[] deck;// 牌現在的狀態, 可能是面朝上或朝下\r\n            function faceDown(uint[] storage deck){//passed by reference\r\n\r\n            }\r\n            function shuffle(uint[] storage deck){\r\n\r\n            }*/ \r\n        }\r\n        helpDecryptRole();//TODO: need to be implemented\r\n        \r\n        //event之後再加 emit GameReady();\r\n        //gameClock.phase=GameIs.Ready;\r\n        //itsNight();\r\n    }\r\n\r\n    function nightKill(address victimName, uint proofCanKill) public {\r\n        //理想: 殺人(不公布死者) -->(進入白天) 公開死者 --> 人死亡\r\n        //殺人、人死亡、公布死者\r\n        //簡化的版本\r\n        //完整的版本死者應該要先commit再open\r\n\r\n        //parity 無法換行\r\n        //werewolf丟給一個oracle, 由oracle發布交易?\r\n        uint v = playerNumOf[victimName];//mapping element can't move to memory???\r\n        Player memory victim = players[v];\r\n        require (verify(proofCanKill, victim)==true);//Contract( or moderator) verify proof automatically\r\n        //加入死亡的名單?\r\n        //event之後再加 emit NightEnd(\"Werewolves, close your eyes.\");\r\n        //itsDay(victimName);\r\n        killed(victimName);\r\n    }\r\n    \r\n    function dayVoting(address name) public {\r\n        killed(name);\r\n    }\r\n\r\n    function openRole(RoleTypes _role, uint _pokerKey) public {//活人不能公布身分(O)\r\n        //死人可以重複公開身分，需要額外的state來防止，不過沒差\r\n        //Card Opening by ZKP or 直接公布鑰匙(殺手遊戲似乎可以, 因為一人只有一張)\r\n        require(verifyRole(_role, _pokerKey)==true);//Contract( or moderator) verify automatically\r\n        uint i = playerNumOf[msg.sender];\r\n        players[i].role = _role;\r\n        players[i].pokerKey=_pokerKey;//公開自己的key會影響其他人的隱私嗎?\r\n        living[uint(_role)]--;\r\n        if(living[uint(RoleTypes.Werewolf)]==living[uint(RoleTypes.Seer)]+living[uint(RoleTypes.Villager)]){\r\n            winner = \"Werewolves\";\r\n        }\r\n        else if(living[uint(RoleTypes.Werewolf)]==0){\r\n            winner = \"Humans\";\r\n        }\r\n        \r\n        /*\r\n        if(gameClock.phase==GameIs.CheckingDayDead){\r\n            gameClock.phase=GameIs.Day;\r\n            itsNight();\r\n        }\r\n        else if(gameClock.phase == GameIs.CheckingNightDead){\r\n            gameClock.phase=GameIs.Day;\r\n        }\r\n        */\r\n    }\r\n\r\n    function prepareDeck(uint i) internal {// TODO: need to be implemented\r\n        //assert( MPC.length >= 1+i );\r\n        MPC[ i ] = i ;\r\n    }\r\n    \r\n    function helpDecryptRole() internal {\r\n        for(uint i=1; i<=n; i++)\r\n        players[i].hand++;//TODO: need to be implemented\r\n        //++模擬解密的動作\r\n        //解密到剩最後一層當手牌\r\n    }\r\n    \r\n    /*function collectStatements()public view returns(KillConditions){\r\n        //TODO: need to be implemented. 只是示意\r\n        KillConditions memory statements;//放memory會有問題嗎?\r\n        statements.iAmWerewolf = 1;//TODO: some encoding of states\r\n        //出示狼人牌(不用證明他是誰?或許要證明他是玩家,先不考慮)\r\n        statements.iAmLive=1;//TODO: some encoding of states\r\n        statements.victimLive=1;//TODO: some encoding of states\r\n        //我們是玩家,我們都活著\r\n        return statements;\r\n    }*/\r\n\r\n    /*function encodeProof(KillConditions statements)public view returns(uint){\r\n        //uint code = 0x144;\r\n        return 0x144;//TODO: need to be implemented. 只是示意, 假設證明\r\n        //assume proof is uint256 !!!\r\n    }*/\r\n\r\n    function verify(uint proofCanKill, Player victim) pure internal returns(bool){\r\n        \r\n        return proofCanKill == 123 && victim.live == true;//TODO: need to be implemented. 只是示意, 假設證明\r\n    }\r\n\r\n\r\n    //function itsNight() internal{\r\n        //event之後再加 emit NightComming(\"Close your eyes!\",\r\n            //\"Werewolves, open your eyes\",\r\n            //\"Werewolves, pick someone to kill!\");\r\n        //gameClock.day++;\r\n        //gameClock.phase = GameIs.Night;\r\n    //}\r\n    \r\n    //function itsDay(address victimName) internal{\r\n        //event之後再加 emit DayComming(\"Everybody open your eyes; it's daytime!\");    \r\n        //gameClock.day++;\r\n        //gameClock.phase = GameIs.Day;\r\n        //killedWhen(GameIs.Night, victimName);\r\n        //event之後再加 emit SentenceToDeath(\"And you have been torn apart by werewolves!\", victimName);\r\n        //先殺再公告, 避免在看到event之後搶先發言\r\n    //}\r\n\r\n    function killed(/*GameIs t,*/ address name) internal{\r\n        uint i = playerNumOf[name];\r\n        players[i].live=false;//禁言\r\n        /*\r\n        if(t==Night){\r\n            gameClock.phase = GameIs.CheckingNightDead;//等他公布身分\r\n        }\r\n        else if(t==Day){\r\n            gameClock.phase = GameIs.CheckingDayDead;\r\n        }\r\n        */\r\n        //else 違反規則如何?\r\n        /*not open:罰錢 open:遊戲繼續*/\r\n    }\r\n\r\n    function verifyRole(RoleTypes _role, uint _pokerKey) pure internal returns(bool){\r\n        return (_role!=RoleTypes.Unseen && _pokerKey==456);//TODO: need to be implemented. 只是示意, 假設證明\r\n    }\r\n    \r\n    /* off-chain?\r\n    function TalkingAndVoting() view{\r\n\r\n    }\r\n    */\r\n\r\n\r\n    //enum GameIs{NotReady, Ready, Night, Day}\r\n    enum RoleTypes{/*AmbitiousCard*/Unseen, Werewolf, Seer, Villager}\r\n    //enum PlayersAre{CheckingTheDead, DiscussingAndVoting/*...*/}\r\n    //不要分號\r\n    struct Player{\r\n        address id;\r\n        bool live;\r\n        //備用:uint pokerKey;\r\n        uint hand;\r\n        RoleTypes role;\r\n        uint pokerKey;\r\n    }\r\n\r\n    /*struct Card{\r\n        uint face;//牌面\r\n        uint back;//牌背\r\n        //多餘? CardTypes role;\r\n    }*/\r\n    \r\n   struct KillConditions{//規定只有某個狼人能殺人\r\n        uint iAmWerewolf;\r\n        //statement1\r\n        //players[i].hand = cardWerewolf1 ** players[i].pokerKey\r\n        //private input: hand, pokerKey\r\n        //hand --> 匿名的需求\r\n        //cardWerewolf1 --> constant\r\n        // (h) = C1 ** (k) 證明某人是某人的離散對數\r\n        //把h當公鑰, k當私鑰, Schnorr signature\r\n        \r\n        uint iAmLive;\r\n        //statement2\r\n        //(address) = livePerson1 or livePerson2 or ...\r\n        // (i) = L1 or L2 or ... \r\n        //可以用playerNum\r\n        \r\n        //statement3\r\n        //hand 要跟 address 或 i 對應\r\n        //合一個ZKP, 同樣的input對好幾個output?\r\n        \r\n        uint victimLive;\r\n        //v = L1 or L2\r\n        //在簡化的版本這個condition，verifier可以自己檢查\r\n    }\r\n    //ZKP( (i), (h), (k), ContractState )\r\n    //1 (h) = C1 ** (k) or ..\r\n    //2 (i) = L1 or ...       --> Ok\r\n    //3 (h) is someone's hand --> Ok\r\n    //4 private input 合法\r\n    //需要or and power\r\n    //比對zerocash\r\n    //可以總結簡單的算式\r\n    //\r\n    //C ** (k) = h1 or c ** (k) = h2 or ...\r\n    //\r\n    //1. 用以下的協議證明(interactive)\r\n    //教學\r\n    //https://www.cs.jhu.edu/~susan/600.641/scribes/lecture10.pdf\r\n    //    3.3 protol ramer, Damg ̊ard and Schoenmaker\r\n    //論文( 可以cite它 )\r\n    //https://www.win.tue.nl/~berry/papers/crypto94.pdf\r\n    //(introduction介紹了甚麼是public coin的protocol, 注意第5章的應用)\r\n    //\r\n    //2. 加上Fiat-Shamir transform(轉成non-interactive)\r\n    //參考\r\n    //https://en.wikipedia.org/wiki/Fiat%E2%80%93Shamir_heuristic\r\n    //只要是public coin (verifier的chanllege是uniformly random) 的interactive proof都可以用這個方式轉換\r\n    //在radom oracle model(承認存在random oracle)，底下是安全的\r\n    //這個方法來自以下的論文( 可以cite它 )\r\n    //Amos Fiat and Adi Shamir: How to Prove Yourself: Practical Solutions to Identification and Signature Problems. CRYPTO 1986: pp. 186-194\r\n    //(當初比較像跟rsa或因數分解有關, 可能大家推廣到不同的協議上, 感覺上像大家公認的一個做法)\r\n    //\r\n    //https://en.wikipedia.org/wiki/Proof_of_knowledge\r\n    //\r\n    //instant-poker\r\n    //https://github.com/amiller/instant-poker/blob/master/test_zkproof.py\r\n    //有cite一篇\r\n    //https://link.springer.com/chapter/10.1007/978-3-540-40974-8_29\r\n    //考慮到更多的card operation, test_zkproof是實作裡面的舉的例子\r\n    //\r\n    //https://www.cryptologie.net/article/193/schnorrs-signature-and-non-interactive-protocols/\r\n    //有講到transcript的觀念\r\n\r\n\r\n\r\n\r\n\r\n    /*先不要有絕對時間，假設大家會自己做\r\n    struct Time{\r\n        GameIs phase;//day or night?\r\n        uint day;//what day?\r\n        PlayersAre playerEvent;\r\n    }*/\r\n\r\n    //副詞最後再放\r\n    //event StartGame(uint numPlayers);\r\n    //event JoinGame(uint playerNum, address id);\r\n    //event PlayerReady(uint numPlayers/*, address[] players*/);\r\n    //event CardReady(uint numWerewolves, uint numSeer, uint numVillagers);\r\n    //event CardShuffled();\r\n    //event GameReady();\r\n    //event NightComming(string moderatorSays,string moderatorSays_,string moderatorSays__);\r\n    //event NightEnd(string moderatorSay);\r\n    //event DayComming(string moderatorSays);\r\n    //event SentenceToDeath(string moderatorSays,address moderatorIndicates);\r\n    /*modifier before(uint T){\r\n        require(T>0 && block.number<T);\r\n        _;\r\n    }\r\n\r\n    modifier after(uint T){\r\n        require(T>0 && block.number>T);\r\n        _;\r\n    }*/\r\n    //modifier onlyPlayers and 保證遊戲依序執行\r\n    \r\n    /* 形容詞最後在放 modifier afterPlayerReady{\r\n        assert(n >= 6\r\n            && players.length >= 1+n);\r\n        _; \r\n    }\r\n\r\n    modifier afterCardReady{\r\n        assert(n >= 6\r\n            && deck.length >= 1+n);\r\n        _; \r\n    }\r\n\r\n    modifier afterDay{\r\n        assert((gameClock.day==0 && gameClock.phase==GameIs.Ready)||\r\n            (gameClock.day>0 && gameClock.phase==GameIs.Day));\r\n        _; \r\n    }\r\n\r\n    modifier onlyNight{\r\n        assert(gameClock.day>0 && gameClock.phase==GameIs.Night);\r\n        _;\r\n    }\r\n    \r\n    modifier afterNight{\r\n        assert((gameClock.day>0 && gameClock.phase==GameIs.Night));\r\n        _; \r\n    }\r\n\r\n    modifier onlyDay{\r\n        assert(gameClock.day>0 && gameClock.phase==GameIs.Day);\r\n        _;\r\n    }\r\n    \r\n    modifier onlyKilled{\r\n        assert(gameClock.day>0 && \r\n            (gameClock.phase==GameIs.CheckingNightDead|| gameClock.phase==GameIs.CheckingDayDead) && \r\n            players[playerNumOf[msg.sender]].live == false &&\r\n            players[playerNumOf[msg.sender]].role == Unseen &&\r\n            players[playerNumOf[msg.sender]].pokerKey == 0\r\n        );\r\n        _;\r\n    } */\r\n\r\n}",
  "sourcePath": "C:\\Users\\eason\\Documents\\GitHub\\SmartWerewolf\\contracts\\SmartWerewolf.sol",
  "compiler": {
    "name": "solc",
    "version": "0.4.19+commit.c4cbbb05.Emscripten.clang"
  },
  "schemaVersion": "2.0.0",
  "updatedAt": "2018-03-18T12:49:45.541Z"
}