{
  "contractName": "SmartWerewolf",
  "abi": [
    {
      "constant": true,
      "inputs": [],
      "name": "n",
      "outputs": [
        {
          "name": "",
          "type": "uint256"
        }
      ],
      "payable": false,
      "stateMutability": "view",
      "type": "function"
    },
    {
      "constant": true,
      "inputs": [
        {
          "name": "",
          "type": "address"
        }
      ],
      "name": "playerNumOf",
      "outputs": [
        {
          "name": "",
          "type": "uint256"
        }
      ],
      "payable": false,
      "stateMutability": "view",
      "type": "function"
    },
    {
      "constant": true,
      "inputs": [
        {
          "name": "",
          "type": "address"
        }
      ],
      "name": "theLivingNumOf",
      "outputs": [
        {
          "name": "",
          "type": "uint256"
        }
      ],
      "payable": false,
      "stateMutability": "view",
      "type": "function"
    },
    {
      "constant": true,
      "inputs": [
        {
          "name": "",
          "type": "uint256"
        },
        {
          "name": "",
          "type": "uint256"
        }
      ],
      "name": "deck",
      "outputs": [
        {
          "name": "",
          "type": "uint256"
        }
      ],
      "payable": false,
      "stateMutability": "view",
      "type": "function"
    },
    {
      "constant": true,
      "inputs": [
        {
          "name": "",
          "type": "uint256"
        }
      ],
      "name": "livingPlayers",
      "outputs": [
        {
          "name": "",
          "type": "address"
        }
      ],
      "payable": false,
      "stateMutability": "view",
      "type": "function"
    },
    {
      "constant": true,
      "inputs": [],
      "name": "winner",
      "outputs": [
        {
          "name": "",
          "type": "string"
        }
      ],
      "payable": false,
      "stateMutability": "view",
      "type": "function"
    },
    {
      "constant": true,
      "inputs": [
        {
          "name": "",
          "type": "uint256"
        }
      ],
      "name": "living",
      "outputs": [
        {
          "name": "",
          "type": "uint256"
        }
      ],
      "payable": false,
      "stateMutability": "view",
      "type": "function"
    },
    {
      "constant": true,
      "inputs": [
        {
          "name": "",
          "type": "uint256"
        }
      ],
      "name": "players",
      "outputs": [
        {
          "name": "name",
          "type": "address"
        },
        {
          "name": "live",
          "type": "bool"
        },
        {
          "name": "role",
          "type": "uint8"
        },
        {
          "name": "pokerKey",
          "type": "uint256"
        }
      ],
      "payable": false,
      "stateMutability": "view",
      "type": "function"
    },
    {
      "constant": true,
      "inputs": [
        {
          "name": "",
          "type": "address"
        }
      ],
      "name": "deposits",
      "outputs": [
        {
          "name": "",
          "type": "uint256"
        }
      ],
      "payable": false,
      "stateMutability": "view",
      "type": "function"
    },
    {
      "constant": true,
      "inputs": [],
      "name": "q",
      "outputs": [
        {
          "name": "",
          "type": "uint256"
        }
      ],
      "payable": false,
      "stateMutability": "view",
      "type": "function"
    },
    {
      "inputs": [
        {
          "name": "addressPoK",
          "type": "address"
        }
      ],
      "payable": false,
      "stateMutability": "nonpayable",
      "type": "constructor"
    },
    {
      "anonymous": false,
      "inputs": [
        {
          "indexed": false,
          "name": "numPlayers",
          "type": "uint256"
        }
      ],
      "name": "PlayerReady",
      "type": "event"
    },
    {
      "anonymous": false,
      "inputs": [
        {
          "indexed": false,
          "name": "i",
          "type": "uint256"
        }
      ],
      "name": "debug",
      "type": "event"
    },
    {
      "constant": false,
      "inputs": [
        {
          "name": "_players",
          "type": "address[]"
        }
      ],
      "name": "engagement",
      "outputs": [],
      "payable": false,
      "stateMutability": "nonpayable",
      "type": "function"
    },
    {
      "constant": false,
      "inputs": [
        {
          "name": "player",
          "type": "address"
        }
      ],
      "name": "depositGame",
      "outputs": [],
      "payable": true,
      "stateMutability": "payable",
      "type": "function"
    },
    {
      "constant": false,
      "inputs": [],
      "name": "createCards",
      "outputs": [],
      "payable": false,
      "stateMutability": "nonpayable",
      "type": "function"
    },
    {
      "constant": false,
      "inputs": [
        {
          "name": "i",
          "type": "uint256"
        },
        {
          "name": "pokerKey",
          "type": "uint256"
        }
      ],
      "name": "shuffleCardBy",
      "outputs": [],
      "payable": false,
      "stateMutability": "nonpayable",
      "type": "function"
    },
    {
      "constant": false,
      "inputs": [],
      "name": "shuffleCards",
      "outputs": [],
      "payable": false,
      "stateMutability": "nonpayable",
      "type": "function"
    },
    {
      "constant": false,
      "inputs": [],
      "name": "dealCards",
      "outputs": [],
      "payable": false,
      "stateMutability": "nonpayable",
      "type": "function"
    },
    {
      "constant": true,
      "inputs": [
        {
          "name": "i",
          "type": "uint256"
        }
      ],
      "name": "dealCardTo",
      "outputs": [
        {
          "name": "hand",
          "type": "uint256[2]"
        }
      ],
      "payable": false,
      "stateMutability": "view",
      "type": "function"
    },
    {
      "constant": false,
      "inputs": [
        {
          "name": "victimName",
          "type": "address"
        },
        {
          "name": "proofCanKill",
          "type": "uint256"
        }
      ],
      "name": "nightKill",
      "outputs": [],
      "payable": false,
      "stateMutability": "nonpayable",
      "type": "function"
    },
    {
      "constant": false,
      "inputs": [
        {
          "name": "name",
          "type": "address"
        }
      ],
      "name": "dayVoting",
      "outputs": [],
      "payable": false,
      "stateMutability": "nonpayable",
      "type": "function"
    },
    {
      "constant": false,
      "inputs": [
        {
          "name": "_role",
          "type": "uint8"
        },
        {
          "name": "_pokerKey",
          "type": "uint256"
        }
      ],
      "name": "openRole",
      "outputs": [],
      "payable": false,
      "stateMutability": "nonpayable",
      "type": "function"
    },
    {
      "constant": true,
      "inputs": [
        {
          "name": "",
          "type": "bytes32"
        }
      ],
      "name": "roleOf",
      "outputs": [
        {
          "name": "",
          "type": "uint256"
        }
      ],
      "payable": false,
      "stateMutability": "view",
      "type": "function"
    },
    {
      "constant": true,
      "inputs": [
        {
          "name": "card",
          "type": "uint256[2]"
        }
      ],
      "name": "roleOf",
      "outputs": [
        {
          "name": "",
          "type": "uint256"
        }
      ],
      "payable": false,
      "stateMutability": "view",
      "type": "function"
    },
    {
      "constant": true,
      "inputs": [],
      "name": "cardOrder",
      "outputs": [
        {
          "name": "",
          "type": "uint256"
        }
      ],
      "payable": false,
      "stateMutability": "pure",
      "type": "function"
    },
    {
      "constant": true,
      "inputs": [
        {
          "name": "name",
          "type": "address"
        }
      ],
      "name": "getHandOf",
      "outputs": [
        {
          "name": "hand",
          "type": "uint256[2]"
        }
      ],
      "payable": false,
      "stateMutability": "view",
      "type": "function"
    },
    {
      "constant": true,
      "inputs": [],
      "name": "numSurvive",
      "outputs": [
        {
          "name": "",
          "type": "uint256"
        }
      ],
      "payable": false,
      "stateMutability": "view",
      "type": "function"
    },
    {
      "constant": true,
      "inputs": [
        {
          "name": "framedHand",
          "type": "uint256[2]"
        },
        {
          "name": "_werewolfCard",
          "type": "uint256[2]"
        },
        {
          "name": "victim",
          "type": "uint256"
        }
      ],
      "name": "werewolfFrameKilling",
      "outputs": [
        {
          "name": "__werewolfCard",
          "type": "uint256[2]"
        },
        {
          "name": "_framedHand",
          "type": "uint256[2]"
        },
        {
          "name": "_victim",
          "type": "uint256"
        },
        {
          "name": "T",
          "type": "uint256[3]"
        },
        {
          "name": "c",
          "type": "uint256"
        },
        {
          "name": "s",
          "type": "uint256"
        }
      ],
      "payable": false,
      "stateMutability": "view",
      "type": "function"
    },
    {
      "constant": true,
      "inputs": [],
      "name": "werewolfCard",
      "outputs": [
        {
          "name": "cardX",
          "type": "uint256"
        },
        {
          "name": "cardY",
          "type": "uint256"
        }
      ],
      "payable": false,
      "stateMutability": "view",
      "type": "function"
    },
    {
      "constant": true,
      "inputs": [
        {
          "name": "pokerKey",
          "type": "uint256"
        },
        {
          "name": "hands",
          "type": "uint256[2][]"
        },
        {
          "name": "_werewolfCard",
          "type": "uint256[2]"
        },
        {
          "name": "victim",
          "type": "uint256"
        }
      ],
      "name": "werewolfChooset",
      "outputs": [
        {
          "name": "realt",
          "type": "uint256"
        }
      ],
      "payable": false,
      "stateMutability": "view",
      "type": "function"
    },
    {
      "constant": true,
      "inputs": [
        {
          "name": "realt",
          "type": "uint256"
        },
        {
          "name": "_werewolfCard",
          "type": "uint256[2]"
        }
      ],
      "name": "werewolfComputeT",
      "outputs": [
        {
          "name": "realT",
          "type": "uint256[3]"
        }
      ],
      "payable": false,
      "stateMutability": "view",
      "type": "function"
    },
    {
      "constant": true,
      "inputs": [
        {
          "name": "_werewolfCard",
          "type": "uint256[2]"
        },
        {
          "name": "_hands",
          "type": "uint256[2][]"
        },
        {
          "name": "victim",
          "type": "uint256"
        },
        {
          "name": "Ts",
          "type": "uint256[3][]"
        }
      ],
      "name": "computeChallenge",
      "outputs": [
        {
          "name": "realChallenge",
          "type": "uint256"
        }
      ],
      "payable": false,
      "stateMutability": "view",
      "type": "function"
    },
    {
      "constant": true,
      "inputs": [
        {
          "name": "pokerKey",
          "type": "uint256"
        },
        {
          "name": "_werewolfCard",
          "type": "uint256[2]"
        },
        {
          "name": "hand",
          "type": "uint256[2]"
        },
        {
          "name": "victim",
          "type": "uint256"
        },
        {
          "name": "tReady",
          "type": "uint256"
        },
        {
          "name": "cReady",
          "type": "uint256"
        }
      ],
      "name": "werewolfProve",
      "outputs": [
        {
          "name": "__werewolfCard",
          "type": "uint256[2]"
        },
        {
          "name": "_hand",
          "type": "uint256[2]"
        },
        {
          "name": "_victim",
          "type": "uint256"
        },
        {
          "name": "T",
          "type": "uint256[3]"
        },
        {
          "name": "c",
          "type": "uint256"
        },
        {
          "name": "s",
          "type": "uint256"
        }
      ],
      "payable": false,
      "stateMutability": "view",
      "type": "function"
    },
    {
      "constant": true,
      "inputs": [
        {
          "name": "_werewolfCard",
          "type": "uint256[2]"
        },
        {
          "name": "hand",
          "type": "uint256[2]"
        },
        {
          "name": "T",
          "type": "uint256[3]"
        },
        {
          "name": "c",
          "type": "uint256"
        },
        {
          "name": "s",
          "type": "uint256"
        }
      ],
      "name": "verifyWerewolfProof",
      "outputs": [
        {
          "name": "result",
          "type": "bool"
        }
      ],
      "payable": false,
      "stateMutability": "view",
      "type": "function"
    },
    {
      "constant": true,
      "inputs": [
        {
          "name": "me",
          "type": "uint256"
        },
        {
          "name": "pokerKey",
          "type": "uint256"
        },
        {
          "name": "i",
          "type": "uint256"
        },
        {
          "name": "cipherCard",
          "type": "uint256[2]"
        }
      ],
      "name": "helpDecryptRole",
      "outputs": [
        {
          "name": "decryptCard",
          "type": "uint256[2]"
        }
      ],
      "payable": false,
      "stateMutability": "view",
      "type": "function"
    },
    {
      "constant": true,
      "inputs": [
        {
          "name": "s",
          "type": "uint256"
        },
        {
          "name": "point",
          "type": "uint256[2]"
        }
      ],
      "name": "multiply",
      "outputs": [
        {
          "name": "",
          "type": "uint256"
        },
        {
          "name": "",
          "type": "uint256"
        }
      ],
      "payable": false,
      "stateMutability": "view",
      "type": "function"
    }
  ],
  "bytecode": "0x6060604052341561000f57600080fd5b6040516020806132c78339810160405280805160008054600160a060020a031916600160a060020a0383161781559092507f79be667ef9dcbbac55a06295ce870b07029bfcdb2dce28d959f2815b16f81798915060059001557f483ada7726a3c4655da4fbfc0e1108a8fd17b448a68554199c47d08ffb10d4b8600560010155506132288061009f6000396000f3006060604052600436106101925763ffffffff60e060020a600035041663076d9680811461019757806307f7470b146101e85780630cbee0e31461029357806314a9a121146103a25780632e52d606146103fa578063313ffac11461041f5780633e5a438d14610446578063474ab93c146104bf5780634ef3ea74146104d85780634fb793dc146104f757806352f9aaea1461053357806354054cd51461058a578063568bd63e146105a957806358801f17146105bc5780635c56e508146105cf5780636e6ac9c6146105e25780638c785f88146105f85780639a0196781461060b578063a4f195aa1461062d578063ab27783314610649578063acb2c01a14610667578063b77d12681461067a578063c0cb6b24146107a2578063c52e3e4a146107fc578063d34544cd14610812578063d6ffa29a1461082b578063d95583dc1461083e578063d9e0bf4e14610852578063dfbf53ae14610884578063eb2880811461090e578063f6ac71cd14610924578063f71d96cb14610943578063fc7e286d1461099d578063fd3ab282146109bc575b600080fd5b34156101a257600080fd5b6101e660046024813581810190830135806020818102016040519081016040528093929190818152602001838360200280828437509496506109cf95505050505050565b005b34156101f357600080fd5b61027f600460448160026040805190810160405280929190826002602002808284378201915050505050919080604001906002806020026040519081016040528092919082600260200280828437820191505050505091908060600190600380602002604051908101604052919082826060808284375093955050833593602001359250610c66915050565b604051901515815260200160405180910390f35b341561029e57600080fd5b6102fd600460448160026040805190810160405280929190826002602002808284378201915050505050919080604001906002806020026040519081016040528092919082600260200280828437509395505092359250610d5d915050565b6040518087604080838360005b8381101561032257808201518382015260200161030a565b5050505090500186600260200280838360005b8381101561034d578082015183820152602001610335565b5050505090500185815260200184600360200280838360005b8381101561037e578082015183820152602001610366565b50505050905001838152602001828152602001965050505050505060405180910390f35b34156103ad57600080fd5b6103e2600480359060646024600260408051908101604052809291908260026020028082843750939550610e67945050505050565b60405191825260208201526040908101905180910390f35b341561040557600080fd5b61040d610ea1565b60405190815260200160405180910390f35b341561042a57600080fd5b61040d6004803590602480359081019101356044608435610ea7565b341561045157600080fd5b6102fd60048035906064602460026040805190810160405280929190826002602002808284378201915050505050919080604001906002806020026040519081016040528092919082600260200280828437509395505083359360208101359350604001359150610f2d9050565b34156104ca57600080fd5b6101e6600435602435611054565b34156104e357600080fd5b61040d600160a060020a0360043516611115565b341561050257600080fd5b61040d6004604481600260408051908101604052809291908260026020028082843750939550611127945050505050565b341561053e57600080fd5b610552600160a060020a036004351661117d565b6040518082604080838360005b8381101561057757808201518382015260200161055f565b5050505090500191505060405180910390f35b341561059557600080fd5b61040d600160a060020a03600435166111f0565b34156105b457600080fd5b6103e2611202565b34156105c757600080fd5b6101e6611253565b34156105da57600080fd5b6101e6611412565b34156105ed57600080fd5b61040d6004356116a2565b341561060357600080fd5b61040d6116b4565b341561061657600080fd5b6101e6600160a060020a03600435166024356116cb565b341561063857600080fd5b6101e660ff600435166024356117df565b341561065457600080fd5b610552600435602435604435606461194e565b341561067257600080fd5b61040d6119cc565b341561068557600080fd5b61040d600460448160026040805190810160405280929190826002602002808284375093959460208082019550903586018082019450359250829150818102016040519081016040528181529291906000602085015b8282101561071a5760408083028601906002908051908101604052809291908260026020028082843750505091835250506001909101906020016106db565b505050505091908035906020019091908035906020019082018035906020019080806020026020016040519081016040528181529291906000602085015b82821015610794576060808302860190600390604051908101604052919082826060808284375050509183525050600190910190602001610758565b5050505050919050506119d6565b34156107ad57600080fd5b6107e2600480359060646024600260408051908101604052809291908260026020028082843750939550611b30945050505050565b60405180826060808383600081518382015260200161055f565b341561080757600080fd5b610552600435611bce565b341561081d57600080fd5b61040d600435602435611c24565b341561083657600080fd5b6101e6611c56565b6101e6600160a060020a0360043516611d06565b341561085d57600080fd5b610868600435611d22565b604051600160a060020a03909116815260200160405180910390f35b341561088f57600080fd5b610897611d4a565b60405160208082528190810183818151815260200191508051906020019080838360005b838110156108d35780820151838201526020016108bb565b50505050905090810190601f1680156109005780820380516001836020036101000a031916815260200191505b509250505060405180910390f35b341561091957600080fd5b61040d600435611de8565b341561092f57600080fd5b6101e6600160a060020a0360043516611dfc565b341561094e57600080fd5b610959600435611e05565b604051600160a060020a038516815283151560208201526040810183600381111561098057fe5b60ff16815260200182815260200194505050505060405180910390f35b34156109a857600080fd5b61040d600160a060020a0360043516611e60565b34156109c757600080fd5b61040d611e72565b60006006825110156109e057600080fd5b815160048190556001908101906109f79082612f5d565b50600190505b6004548111610b825760a060405190810160405280836001840381518110610a2157fe5b90602001906020020151600160a060020a031681526020016001151581526020016040805190810160405260008082526020808301829052918352910190815260006020909101526001805483908110610a7757fe5b90600052602060002090600502016000820151815473ffffffffffffffffffffffffffffffffffffffff1916600160a060020a039190911617815560208201518154901515740100000000000000000000000000000000000000000274ff0000000000000000000000000000000000000000199091161781556040820151610b059060018301906002612f89565b5060608201518160030160006101000a81548160ff02191690836003811115610b2a57fe5b0217905550608082015181600401559050508060086000600184815481101515610b5057fe5b60009182526020808320600590920290910154600160a060020a031683528201929092526040019020556001016109fd565b6002600b556001600c8190556004546002198101600d5501610ba5600e82612fc7565b50600190505b6004548111610c62576001805482908110610bc257fe5b6000918252602090912060059091020154600e8054600160a060020a039092169183908110610bed57fe5b906000526020600020900160006101000a815481600160a060020a030219169083600160a060020a0316021790555080600f6000600184815481101515610c3057fe5b60009182526020808320600590920290910154600160a060020a03168352820192909252604001902055600101610bab565b5050565b60008054600160a060020a0316632b0c1aba878787878760405160e060020a63ffffffff88160281526004018086604080838360005b83811015610cb4578082015183820152602001610c9c565b5050505090500185600260200280838360005b83811015610cdf578082015183820152602001610cc7565b5050505090500184600360200280838360005b83811015610d0a578082015183820152602001610cf2565b5050505090500183815260200182815260200195505050505050602060405180830381600087803b1515610d3d57600080fd5b5af11515610d4a57600080fd5b5050506040518051979650505050505050565b610d65612feb565b610d6d612feb565b6000610d77613011565b600080548190600160a060020a031663a2cf9308898b8a60405160e060020a63ffffffff86160281526004018084604080838360005b83811015610dc5578082015183820152602001610dad565b5050505090500183600260200280838360005b83811015610df0578082015183820152602001610dd8565b50505050905001828152602001935050505061014060405180830381600087803b1515610e1c57600080fd5b5af11515610e2957600080fd5b50505060405180604001806040018051906020018060600180519060200180516020909101604052949e939d50919b50995097509095509350505050565b600080610e72613011565b610e7c8585611e88565b9050610e8e816401000003d0196122b4565b8051602082015192509250509250929050565b60045481565b60008054600160a060020a031663b73318658487878a8760405160e060020a63ffffffff88160281526004018086604080828437820191505080602001848152602001838152602001828103825286868281815260200192506040028082843782019150509650505050505050602060405180830381600087803b1515610d3d57600080fd5b610f35612feb565b610f3d612feb565b6000610f47613011565b600080548190600160a060020a031663d4540ff78d8d8d8d8d8d60405160e060020a63ffffffff8916028152600481018781529060240186604080838360005b83811015610f9f578082015183820152602001610f87565b5050505090500185600260200280838360005b83811015610fca578082015183820152602001610fb2565b50505050905001848152602001838152602001828152602001965050505050505061014060405180830381600087803b151561100557600080fd5b5af1151561101257600080fd5b50505060405180604001806040018051906020018060600180519060200180519060200160405295509550955095509550955096509650965096509650969050565b8060005b600454811161110f576110bb8260038381548110151561107457fe5b90600052602060002090600202016002806020026040519081016040529190828260026020028201915b81548152602001906001019080831161109e575050505050610e67565b60038054849081106110c957fe5b600091825260208220600290910201900160006003858154811015156110eb57fe5b60009182526020909120600290910201600101929092559190915550600101611058565b50505050565b60086020526000908152604090205481565b600060096000836040518082604080838360005b8381101561115357808201518382015260200161113b565b50505050905001915050604051908190039020815260208101919091526040016000205492915050565b611185612feb565b600160a060020a03821660009081526008602052604090205460018054829081106111ac57fe5b60009182526020822060016005909202010190015460018054839081106111cf57fe5b60009182526020918290206002600590920201015490840152825250919050565b600f6020526000908152604090205481565b6000806003600181548110151561121557fe5b60009182526020822060029091020190015460038054600190811061123657fe5b600091825260209091206002909102016001015490939092509050565b60008061125e612feb565b6177179250600091505b60045482116112db576112848360038481548110151561107457fe5b600380548590811061129257fe5b600091825260208220600290910201900160006003868154811015156112b457fe5b60009182526020909120600290910201600101929092559190915550600190910190611268565b6003805460029081106112ea57fe5b60009182526020822060029091020190015460038054600290811061130b57fe5b60009182526020918290206001600290920201015490830152815260038054600590811061133557fe5b60009182526020822060029091020190015460038054600590811061135657fe5b600091825260209091206002909102016001015460038054600290811061137957fe5b600091825260208220600290910201900160006003600281548110151561139c57fe5b60009182526020909120600160029092020101929092559190915550805160208201516003805460059081106113ce57fe5b60009182526020822060029091020190016000600360058154811015156113f157fe5b60009182526020909120600290910201600101929092559190915550505050565b600080600454600101600381611428919061302b565b611433600282612fc7565b50600091505b60045482116114565761144b8261231c565b600190910190611439565b600091505b600454821161150c576114b560028381548110151561147657fe5b6000918252602090912001546005600260408051908101604090815283548252909291908301600183016020850180831161109e575050505050610e67565b60038054859081106114c357fe5b600091825260208220600290910201900160006003868154811015156114e557fe5b6000918252602090912060029091020160010192909255919091555060019091019061145b565b6115686003600081548110151561151f57fe5b90600052602060002090600202016002806020026040519081016040529190828260026020028201915b8154815260200190600101908083116115495750505050506000612352565b6115c46003600181548110151561157b57fe5b90600052602060002090600202016002806020026040519081016040529190828260026020028201915b8154815260200190600101908083116115a55750505050506001612352565b6115d76003600281548110151561157b57fe5b6116326003808154811015156115e957fe5b90600052602060002090600202016002806020026040519081016040529190828260026020028201915b8154815260200190600101908083116116135750505050506002612352565b5060045b6004548111610c625761169a60038281548110151561165157fe5b90600052602060002090600202016002806020026040519081016040529190828260026020028201915b81548152602001906001019080831161167b5750505050506003612352565b600101611636565b60096020526000908152604090205481565b70014551231950b75fc4402da1732fc9bebe195b90565b60006116d5613057565b600160a060020a03841660009081526008602052604090205460018054919350908390811061170057fe5b906000526020600020906005020160a060405190810160409081528254600160a060020a038116835274010000000000000000000000000000000000000000900460ff161515602083015290919080830190600183019060029080519081016040529190828260026020028201915b81548152602001906001019080831161176f57505050918352505060038281015460209092019160ff16908111156117a357fe5b60038111156117ae57fe5b815260200160048201548152505090506117c883826123b0565b15156001146117d657600080fd5b61110f846123cf565b60006117eb8383612553565b15156001146117f957600080fd5b50600160a060020a033316600090815260086020526040902054600180548491908390811061182457fe5b906000526020600020906005020160030160006101000a81548160ff0219169083600381111561185057fe5b02179055508160018281548110151561186557fe5b906000526020600020906005020160040181905550600a83600381111561188857fe5b6004811061189257fe5b018054600019019055600d54600c54600b54910114156118f95760408051908101604052600a81527f57657265776f6c76657300000000000000000000000000000000000000000000602082015260109080516118f392916020019061308c565b50611949565b600b5415156119495760408051908101604052600681527f48756d616e7300000000000000000000000000000000000000000000000000006020820152601090805161110f92916020019061308c565b505050565b611956612feb565b6000838614156119735760208084013590830152823582526119c3565b61198f8570014551231950b75fc4402da1732fc9bebe19612575565b90506119bb8184600260408051908101604052809291908260026020028082843750610e679350505050565b602084015282525b50949350505050565b600e546000190190565b60008054600160a060020a031663b77d12688686868660405160e060020a63ffffffff87160281526004018085604080838360005b83811015611a23578082015183820152602001611a0b565b5050505090500180602001848152602001806020018381038352868181518152602001915080516000925b81841015611a9057602080850284010151604080838360005b83811015611a7f578082015183820152602001611a67565b505050509050019260010192611a4e565b925050508381038252848181518152602001915080516000925b81841015611aec57602080850284010151606080838360005b83811015611adb578082015183820152602001611ac3565b505050509050019260010192611aaa565b925050509650505050505050602060405180830381600087803b1515611b1157600080fd5b5af11515611b1e57600080fd5b50505060405180519695505050505050565b611b38613011565b600054600160a060020a03166383242e90848460405160e060020a63ffffffff8516028152600481018381529060240182604080838360005b83811015611b89578082015183820152602001611b71565b5050505090500192505050606060405180830381600087803b1515611bad57600080fd5b5af11515611bba57600080fd5b505050604051606081016040529392505050565b611bd6612feb565b6003805483908110611be457fe5b6000918252602082206002909102019001546003805484908110611c0457fe5b600091825260209182902060016002909202010154908301528152919050565b6003805483908110611c3257fe5b906000526020600020906002020181600281101515611c4d57fe5b01549150829050565b60015b6004548111611cfb576003805482908110611c7057fe5b6000918252602082206002909102019001546003805483908110611c9057fe5b60009182526020909120600290910201600101546001805484908110611cb257fe5b60009182526020822060016005909202010190016000600185815481101515611cd757fe5b60009182526020909120600260059092020101929092559190915550600101611c59565b611d03612613565b50565b600160a060020a03166000908152600760205260409020349055565b600e805482908110611d3057fe5b600091825260209091200154600160a060020a0316905081565b60108054600181600116156101000203166002900480601f016020809104026020016040519081016040528092919081815260200182805460018160011615610100020316600290048015611de05780601f10611db557610100808354040283529160200191611de0565b820191906000526020600020905b815481529060010190602001808311611dc357829003601f168201915b505050505081565b600a8160048110611df557fe5b0154905081565b611d03816123cf565b6001805482908110611e1357fe5b6000918252602090912060059091020180546003820154600490920154600160a060020a03821693507401000000000000000000000000000000000000000090910460ff90811692169084565b60076020526000908152604090205481565b70014551231950b75fc4402da1732fc9bebe1981565b611e90613011565b6000806000611e9d6130f9565b611ea5613011565b611ead613127565b6401000003d0199550600080808b1515611ec6576122a5565b6000604051985061020089016040525b8c15611f0e5760018d1615611efd5750601f8c16808989015360206010821102818e03019c505b60028d049c50600188019750611ed6565b506060604051908101604052808c5181526020018c60016020020151815260016020909101528652611f408651612653565b9450611f4c858c61276e565b6020870152611f63858760015b60200201516129aa565b6040870152611f7485876002611f59565b6060870152611f8585876003611f59565b6080870152611f9685876004611f59565b60a0870152611fa785876005611f59565b60c0870152611fb885876006611f59565b60e0870152602086015160400151845288801515611fd257fe5b845160408801516040015109602085015288801515611fed57fe5b60208501516060880151604001510960408501528880151561200b57fe5b60408501516080880151604001510960608501528880151561202957fe5b606085015160a0880151604001510960808501528880151561204757fe5b608085015160c0880151604001510960a08501528880151561206557fe5b60a085015160e0880151604001510960c0850190815261208690518a612575565b60e08501908152516101008501528880151561209e57fe5b61010085015160a0860151096101e0850152600692505b6002831061213257888015156120c757fe5b6101008501518760018601600881106120dc57fe5b60200201516040015109610100850152888015156120f657fe5b6101008501518560011986016010811061210c57fe5b60200201510984600885016010811061212157fe5b6020020152600019909201916120b5565b8880151561213c57fe5b61010085015160408801516040015109610120850152600092505b60078310156121cf576121c486600185016008811061217257fe5b602002015185600986016010811061218657fe5b60200201518b80151561219557fe5b8760098801601081106121a457fe5b60200201518860098901601081106121b857fe5b6020020151098c612c03565b600190920191612157565b60008711156122a557600019808801978901015160001a91506121f18a612c32565b601082111561224c57506002601f829003046122478a604080519081016040528089856008811061221e57fe5b602002015151815260200189856008811061223557fe5b6020020151602001518d039052612d43565b6122a0565b60008211156122a0575060026000198201046122a08a604080519081016040528089856008811061227957fe5b602002015151815260200189856008811061229057fe5b6020020151602001519052612d43565b6121cf565b50505050505050505092915050565b6000806122c5604085015184612575565b9150828015156122d157fe5b8283099050828015156122e057fe5b818551098452828015156122f057fe5b838015156122fa57fe5b8284098560015b60200201510960208501525050600160409092019190915250565b70014551231950b75fc4402da1732fc9bebe19607b82010660028281548110151561234357fe5b60009182526020909120015550565b80600381111561235e57fe5b60096000846040518082604080838360005b83811015612388578082015183820152602001612370565b5050505090500191505060405190819003902081526020810191909152604001600020555050565b600082607b1480156123c85750816020015115156001145b9392505050565b600160a060020a0381166000908152600860205260408120546001805491929182918291859081106123fd57fe5b6000918252602080832060059092029091018054931515740100000000000000000000000000000000000000000274ff00000000000000000000000000000000000000001990941693909317909255600160a060020a0386168152600f909152604090205491508190505b600e5460011901811161252257600e80546001830190811061248657fe5b600091825260209091200154600e8054600160a060020a0390921691839081106124ac57fe5b906000526020600020900160006101000a815481600160a060020a030219169083600160a060020a03160217905550600f6000600e838154811015156124ee57fe5b6000918252602080832090910154600160a060020a0316835282019290925260400190208054600019019055600101612468565b600e805490612535906000198301612fc7565b50505050600160a060020a03166000908152600f6020526040812055565b60008083600381111561256257fe5b141580156123c85750506101c814919050565b60008080808080871580159061258b5750868814155b801561259657508615155b15156125a157600080fd5b868811156125b85786888115156125b457fe5b0697505b600193508692508791505b81156125ee5781838115156125d457fe5b9495940485810290940393919283830290039190506125c3565b6000851215612604578460000387039550612608565b8495505b505050505092915050565b600160005b6004548211610c6257600180548390811061262f57fe5b60009182526020909120600160059092020181018054820181559201919050612618565b61265b613011565b6401000003d019600080808080806040890151151561267957612762565b88519550602089015194508680151561268e57fe5b85860993508680151561269d57fe5b878015156126a757fe5b8588096004099250868015156126b957fe5b878015156126c357fe5b8788096003099150868015156126d557fe5b878015156126df57fe5b8485088803888015156126ee57fe5b8485090880895290508680151561270157fe5b8780151561270b57fe5b8880151561271557fe5b86870960080988038880151561272757fe5b8980151561273157fe5b848b03870885090860208901528680151561274857fe5b8780151561275257fe5b60408b0151870960020960408901525b50505050505050919050565b612776613011565b6000612780612feb565b612788613142565b60008080808060408b015115156127c5576060604051908101604052808b5181526020018b6001602002015181526020016001815250985061299c565b60208a015115156127d8578a985061299c565b6401000003d01997508760408c015160408d0151098752878015156127f957fe5b875160408d01510960208801526080604051908101604052808c5181526020018c6001602002015181526020018980151561283057fe5b89518d510981526020018980151561284457fe5b60208a015160208e01510990529550604086015186511415612894576060860151602087015114612885576000808c5260208c0181905260408c015261299c565b61288e8b612653565b5061299c565b8780151561289e57fe5b865189036040880151089450878015156128b457fe5b602087015189036060880151089350878015156128cd57fe5b8586099250878015156128dc57fe5b8584099150878015156128eb57fe5b828903898015156128f857fe5b8687090890508780151561290857fe5b8880151561291257fe5b8980151561291c57fe5b8589510960020989038208808a5290508780151561293657fe5b8880151561294057fe5b828a038a80151561294d57fe5b868a510908850960208a01528780151561296357fe5b8880151561296d57fe5b83602089015109890360208b01510860208a01528780151561298b57fe5b60408c015186098960025b60200201525b505050505050505092915050565b6129b2613011565b60006129bc613142565b6129c4613142565b60008080808060408b015115156129dd5789985061299c565b60408a015115156129f0578a985061299c565b6401000003d01997508760408c015160408d015109875287801515612a1157fe5b875160408d015109602088015287801515612a2857fe5b60408b015160408c015109604088015287801515612a4257fe5b604088015160408c015109606088015260806040519081016040528089801515612a6857fe5b60408a01518e5109815260200189801515612a7f57fe5b60608a015160208f015109815260200189801515612a9957fe5b89518d5109815260200189801515612aad57fe5b60208a015160208e01510990529550604086015186511415612aed576060860151602087015114612add5761299c565b612ae68b612653565b985061299c565b87801515612af757fe5b86518903604088015108945087801515612b0d57fe5b60208701518903606088015108935087801515612b2657fe5b858609925087801515612b3557fe5b858409915087801515612b4457fe5b82890389801515612b5157fe5b86870908905087801515612b6157fe5b88801515612b6b57fe5b89801515612b7557fe5b8589510960020989038208808a52905087801515612b8f57fe5b88801515612b9957fe5b828a038a801515612ba657fe5b868a510908850960208a015287801515612bbc57fe5b88801515612bc657fe5b83602089015109890360208b01510860208a015287801515612be457fe5b88801515612bee57fe5b60408c015160408e0151098609896002612996565b80801515612c0d57fe5b82855109845280801515612c1d57fe5b81801515612c2757fe5b838509856001612301565b6401000003d0196000808080808060408801511515612c5057612d39565b875195506020880151945086801515612c6557fe5b858609935086801515612c7457fe5b87801515612c7e57fe5b858809600409925086801515612c9057fe5b87801515612c9a57fe5b878809600309915086801515612cac57fe5b87801515612cb657fe5b848508880388801515612cc557fe5b84850908808952905086801515612cd857fe5b87801515612ce257fe5b88801515612cec57fe5b868709600809880388801515612cfe57fe5b89801515612d0857fe5b848b038708850908602089015286801515612d1f57fe5b87801515612d2957fe5b60408a0151870960020960408901525b5050505050505050565b6000612d4d612feb565b612d55613142565b60008080808060208a01511515612d845788518a52602089015160208b015260018a60025b6020020152612f51565b60208901511515612d9457612f51565b6401000003d01997508760408b015160408c015109875287801515612db557fe5b875160408c01510960208801526080604051908101604052808b5181526020018b60016020020151815260200189801515612dec57fe5b89518c5109815260200189801515612e0057fe5b60208a015160208d01510990529550604086015186511415612e4d576060860151602087015114612e3f576000808b5260208b018190528a6002612d7a565b612e488a612c32565b612f51565b87801515612e5757fe5b86518903604088015108945087801515612e6d57fe5b60208701518903606088015108935087801515612e8657fe5b858609925087801515612e9557fe5b858409915087801515612ea457fe5b82890389801515612eb157fe5b86870908905087801515612ec157fe5b88801515612ecb57fe5b89801515612ed557fe5b8589510960020989038208808b52905087801515612eef57fe5b88801515612ef957fe5b828a038a801515612f0657fe5b868a510908850960208b015287801515612f1c57fe5b88801515612f2657fe5b83602089015109890360208c01510860208b015287801515612f4457fe5b60408b0151860960408b01525b50505050505050505050565b81548183558181151161194957600502816005028360005260206000209182019101611949919061315c565b8260028101928215612fb7579160200282015b82811115612fb7578251825591602001919060010190612f9c565b50612fc39291506131b1565b5090565b815481835581811511611949576000838152602090206119499181019083016131b1565b604080519081016040526002815b6000815260200190600190039081612ff95790505090565b606060405190810160405260008152600260208201612ff9565b8154818355818115116119495760020281600202836000526020600020918201910161194991906131cb565b60c06040519081016040908152600080835260208301528101613078612feb565b815260200160008152602001600081525090565b828054600181600116156101000203166002900490600052602060002090601f016020900481019282601f106130cd57805160ff1916838001178555612fb7565b82800160010185558215612fb75791820182811115612fb7578251825591602001919060010190612f9c565b6103006040519081016040526008815b613111613011565b8152602001906001900390816131095790505090565b61020060405190810160405260008152600f60208201612ff9565b608060405190810160405260008152600360208201612ff9565b6116c891905b80821115612fc357805474ffffffffffffffffffffffffffffffffffffffffff19168155600061319560018301826131ee565b5060038101805460ff1916905560006004820155600501613162565b6116c891905b80821115612fc357600081556001016131b7565b6116c891905b80821115612fc35760006131e582826131ee565b506002016131d1565b5060008155600101600090555600a165627a7a723058207a7682641531d5def689cafdd36e170c871e8ea0493dcd99e8d513d2fbca48000029",
  "source": "pragma solidity ^0.4.7;\r\n//pragma experimental ABIEncoderV2;\r\nimport \"./OrPoK.sol\";\r\n\r\ncontract SmartWerewolf {\r\n    //parameters using bitcoin's curve (fixed for every game)\r\n    uint constant p = 0xFFFFFFFFFFFFFFFFFFFFFFFFFFFFFFFFFFFFFFFFFFFFFFFFFFFFFFFEFFFFFC2F;\r\n    uint constant Gx =0x79BE667EF9DCBBAC55A06295CE870B07029BFCDB2DCE28D959F2815B16F81798;\r\n    uint constant Gy = 0x483ADA7726A3C4655DA4FBFC0E1108A8FD17B448A68554199C47D08FFB10D4B8;\r\n    uint public constant q = 0xFFFFFFFFFFFFFFFFFFFFFFFFFFFFFFFEBAAEDCE6AF48A03BBFD25E8CD0364141;\r\n    OrPoK processPoK; \r\n\r\n    //bullet broad (fixed during 1 game)\r\n    Player[] public players;\r\n    uint[] MPC;\r\n    uint[2][] public deck;\r\n    uint public n;\r\n    uint[2] G;\r\n    mapping (address => uint) public deposits;\r\n    mapping (address => uint) public playerNumOf;\r\n    mapping(bytes32 => uint) public roleOf;\r\n    \r\n    //up-to-date report (change in game)\r\n    //mapping(uint => uint) public living;\r\n    uint[4] public living;\r\n    address[] public livingPlayers;\r\n    mapping(address => uint) public theLivingNumOf;\r\n    string public winner;\r\n    \r\n    function SmartWerewolf(address addressPoK) public {\r\n        processPoK = OrPoK(addressPoK);\r\n        G[0] = Gx;\r\n        G[1] = Gy;\r\n    }\r\n\r\n    //1. \r\n    function engagement(address[] _players) public {\r\n        require(_players.length >= 6);\r\n        n = _players.length;\r\n        players.length = 1+ n;\r\n        uint i;\r\n        for (i = 1; i <= n; i++) {\r\n            players[i] = Player\r\n            (\r\n                {\r\n                    name: _players[ i-1 ],  \r\n                    live: true, \r\n                    hand: [uint(0),0], \r\n                    role: RoleTypes.Unseen,\r\n                    pokerKey: 0\r\n                }\r\n           ); \r\n        playerNumOf[players[i].name] = i;\r\n        }\r\n        \r\n        living[uint(RoleTypes.Werewolf)]=2;\r\n        living[uint(RoleTypes.Seer)]=1;\r\n        living[uint(RoleTypes.Villager)]=n-3;\r\n\r\n        livingPlayers.length=n+1;\r\n        for(i=1;i<=n;i++){\r\n            livingPlayers[i]=players[i].name;\r\n            theLivingNumOf[players[i].name]=i;\r\n        }\r\n    }\r\n    \r\n     function depositGame(address player) external payable {\r\n        deposits[ player ] = msg.value;\r\n    }\r\n\r\n    /*function offChainEngage(address[] inPlayers) public returns(uint n, Player[] outPlayers, uint[4] living, address[] livingPlayers, mapping(address => uint) theLivingNumOf ){\r\n        require(inPlayers.length >= 6);\r\n        uint i;\r\n        for(i = 0; i<inPlayers.length; i++){\r\n            address p = inPlayers[i];\r\n            require(deposits[p]>=100);\r\n        }\r\n\r\n        n = inPlayers.length;\r\n        players.length = 1+n;\r\n        for (i = 1; i <= n; i++) {\r\n            players[i] = Player\r\n            (\r\n                {\r\n                    name: inPlayers[ i-1 ],  \r\n                    live: true, \r\n                    hand: [uint(0),0], \r\n                    role: RoleTypes.Unseen,\r\n                    pokerKey: 0\r\n                }\r\n           ); \r\n        playerNumOf[players[i].name] = i;//how to output?\r\n        }\r\n        \r\n        living[uint(RoleTypes.Werewolf)]=2;\r\n        living[uint(RoleTypes.Seer)]=1;\r\n        living[uint(RoleTypes.Villager)]=n-3;\r\n\r\n        livingPlayers.length=n+1;\r\n        for(i=1;i<=n;i++){\r\n            livingPlayers[i]=players[i].name;\r\n            theLivingNumOf[players[i].name]=i;\r\n        }\r\n    }*/\r\n\r\n    //2-1 \r\n    //(a)    \r\n    function createCards() public {   \r\n        MPC.length = deck.length = 1+n;\r\n        for(uint i=0; i <= n; i++ ){\r\n            prepareDeck(i);\r\n        }\r\n        for(i=0; i<=n; i++){\r\n            (deck[i][0], deck[i][1]) = multiply(MPC[i], G);\r\n        }\r\n        generateMap(deck[0], RoleTypes.Unseen);\r\n        generateMap(deck[1], RoleTypes.Werewolf);\r\n        generateMap(deck[2], RoleTypes.Werewolf);\r\n        generateMap(deck[3], RoleTypes.Seer);\r\n        for (uint j = 4; j <= n; j++) {\r\n            generateMap(deck[j], RoleTypes.Villager);\r\n        }\r\n    }\r\n    function shuffleCardBy(uint i, uint pokerKey) external{\r\n        //encrypt each card\r\n        uint printBack = pokerKey; \r\n        for(uint k=0; k<=n; k++){\r\n            (deck[k][0], deck[k][1]) = multiply(printBack, deck[k]);\r\n        }\r\n        //any shuffle\r\n        /*uint[2] memory tmp;\r\n        uint j = ((i+3)-1) % n + 1;\r\n        (tmp[0], tmp[1]) = (deck[j][0], deck[j][1]);\r\n        (deck[j][0], deck[j][1]) = (deck[i][0], deck[i][1]);\r\n        (deck[i][0], deck[i][1]) = (tmp[0], tmp[1]);*/\r\n    }\r\n    //TODO:(b)  \r\n    function shuffleCards() public {\r\n        uint printBack = 0x7717; \r\n        for(uint i=0; i<=n; i++){\r\n            (deck[i][0], deck[i][1]) = multiply(printBack, deck[i]);\r\n        }\r\n        uint[2] memory tmp;\r\n        (tmp[0], tmp[1]) = (deck[2][0], deck[2][1]);\r\n        (deck[2][0], deck[2][1]) = (deck[5][0], deck[5][1]);\r\n        (deck[5][0], deck[5][1]) = (tmp[0], tmp[1]);\r\n    } \r\n\r\n    //TODO: 2-2.  \r\n    function dealCards() public {\r\n        for(uint i=1; i<=n; i++){\r\n            (players[i].hand[0], players[i].hand[1])  \r\n            = (deck[i][0], deck[i][1]);\r\n        }\r\n        helpDecryptRole();\r\n    }\r\n\r\n    function dealCardTo(uint i) external view returns(uint[2] hand){\r\n        (hand[0],hand[1])=(deck[i][0], deck[i][1]);\r\n    }\r\n\r\n    function nightKill(address victimName, uint proofCanKill) public {\r\n        uint v = playerNumOf[victimName];\r\n        Player memory victim = players[v];\r\n        require (verify(proofCanKill, victim)==true);\r\n        killed(victimName);\r\n    }\r\n    \r\n    function dayVoting(address name) public {\r\n        \r\n        killed(name);\r\n\r\n    }\r\n\r\n    function openRole(RoleTypes _role, uint _pokerKey) public {\r\n        require(verifyRole(_role, _pokerKey)==true);\r\n        uint i = playerNumOf[msg.sender];\r\n        players[i].role = _role;\r\n        players[i].pokerKey=_pokerKey;\r\n        \r\n        living[uint(_role)]--;\r\n\r\n        if(living[uint(RoleTypes.Werewolf)]==living[uint(RoleTypes.Seer)]+living[uint(RoleTypes.Villager)]){\r\n            winner = \"Werewolves\";\r\n        }\r\n        else if(living[uint(RoleTypes.Werewolf)]==0){\r\n            winner = \"Humans\";\r\n        }\r\n    }\r\n\r\n    function roleOf(uint[2] card) public view returns(uint) {return roleOf[keccak256(card)];}\r\n    function cardOrder() public pure returns(uint) {return q;}\r\n    function getHandOf(address name) public view returns(uint[2] hand){\r\n        uint i = playerNumOf[name];\r\n        (hand[0] ,hand[1]) = ((players[i].hand)[0], (players[i].hand)[1]);\r\n    }\r\n\r\n    function numSurvive() public view returns(uint) {return livingPlayers.length-1;}\r\n\r\n    function werewolfFrameKilling(uint[2] framedHand, uint[2] _werewolfCard,  uint victim) public view returns(uint[2] __werewolfCard, uint[2] _framedHand, uint _victim, uint[3] T, uint c, uint s){\r\n        return processPoK.forgeProof(_werewolfCard, framedHand, victim);\r\n    }\r\n\r\n    function werewolfCard() external view returns(uint cardX,uint cardY){\r\n        (cardX, cardY) = (deck[1][0], deck[1][1]);\r\n    }\r\n    \r\n    function werewolfChooset(uint pokerKey, uint[2][] hands, uint[2] _werewolfCard, uint victim ) external view returns(uint realt){\r\n\r\n        return processPoK.computeRealt(_werewolfCard, hands, pokerKey, victim);\r\n    }\r\n\r\n    function werewolfComputeT(uint realt, uint[2] _werewolfCard) public view returns(uint[3] realT){\r\n        return processPoK.computeTFrom(realt, _werewolfCard);\r\n    }\r\n\r\n    function computeChallenge(uint[2] _werewolfCard, uint[2][] _hands, uint victim, uint[3][] Ts) public view returns(uint realChallenge){\r\n        return processPoK.computeChallenge(_werewolfCard, _hands, victim, Ts);\r\n    }\r\n\r\n    function werewolfProve(uint pokerKey, uint[2] _werewolfCard, uint[2] hand, uint victim, uint tReady,uint cReady) public view returns(uint[2] __werewolfCard, uint[2] _hand, uint _victim, uint[3] T, uint c, uint s){\r\n        return processPoK.createSchnorr(pokerKey, _werewolfCard, hand, victim, tReady, cReady);\r\n    }\r\n\r\n    function verifyWerewolfProof(uint[2] _werewolfCard, uint[2] hand,  uint[3] T, uint c, uint s) public view returns (bool result){\r\n        return processPoK.verifySchnorr(_werewolfCard, hand, T, c, s);\r\n    }\r\n\r\n    function prepareDeck(uint i) internal {\r\n        \r\n        MPC[ i ] = (i+123) % q;\r\n        //avoid use 0. function toZ1 revert at point at infinity\r\n    \r\n    }\r\n    \r\n    function helpDecryptRole() internal {\r\n        for(uint i=1; i<=n; i++){\r\n        \tuint[2] storage hand = players[i].hand;\r\n        \thand[0] ++;\r\n        } \r\n    }\r\n\r\n    function helpDecryptRole(uint me, uint pokerKey, uint i, uint[2] cipherCard) external view returns (uint[2] decryptCard){\r\n        if(me == i){\r\n            (decryptCard[0], decryptCard[1]) = (cipherCard[0], cipherCard[1]);\r\n        }else{\r\n            uint keyInverse = ECCMath_noconflict.invmod(pokerKey, q);\r\n            (decryptCard[0],decryptCard[1]) = multiply(keyInverse, cipherCard);\r\n        }\r\n       \r\n    }\r\n\r\n    function killed(address player) internal{\r\n        uint i = playerNumOf[player];\r\n        players[i].live=false;\r\n        uint j= theLivingNumOf[player];\r\n        \r\n        for(uint k=j; k<= livingPlayers.length-2 ; k++){\r\n            livingPlayers[k] = livingPlayers[k+1];\r\n            theLivingNumOf[livingPlayers[k]]--;\r\n        }\r\n        livingPlayers.length--;\r\n        theLivingNumOf[player]=0;\r\n    }\r\n\r\n\r\n    function multiply(uint s, uint[2] point) public view returns(uint ,uint){\r\n        uint[3] memory result = Secp256k1_noconflict._mul(s, point);\r\n        ECCMath_noconflict.toZ1(result, p);\r\n        return (result[0],result[1]);\r\n    }\r\n\r\n    function generateMap(uint[2] card, RoleTypes role) internal {\r\n        \r\n        roleOf[keccak256(card)] = uint(role);\r\n    \r\n    }\r\n\r\n    function verifyRole(RoleTypes _role, uint _pokerKey) pure internal returns(bool){\r\n        \r\n        return (_role!=RoleTypes.Unseen && _pokerKey==456);\r\n    \r\n    }\r\n    \r\n    function verify(uint proofCanKill, Player victim) pure internal returns(bool){\r\n        \r\n        return proofCanKill == 123 && victim.live == true;\r\n    }\r\n    \r\n    enum RoleTypes{Unseen, Werewolf, Seer, Villager}\r\n    \r\n    struct Player{\r\n        address name;\r\n        bool live;\r\n        uint[2] hand;\r\n        RoleTypes role;\r\n        uint pokerKey;\r\n    }\r\n\r\n   struct KillConditions{\r\n        uint iAmWerewolf;\r\n        uint iAmLive;\r\n        uint victimLive;\r\n    }\r\n    \r\n    event PlayerReady(uint numPlayers);\r\n   \r\n    event debug(uint i);\r\n}",
  "sourcePath": "C:\\Users\\eason\\Documents\\GitHub\\SmartWerewolf\\contracts\\SmartWerewolf.sol",
  "compiler": {
    "name": "solc",
    "version": "0.4.21+commit.dfe3193c.Emscripten.clang"
  },
  "schemaVersion": "2.0.0",
  "updatedAt": "2018-05-05T16:45:52.867Z"
}