{
  "contractName": "SmartWerewolf",
  "abi": [
    {
      "constant": true,
      "inputs": [],
      "name": "n",
      "outputs": [
        {
          "name": "",
          "type": "uint256"
        }
      ],
      "payable": false,
      "stateMutability": "view",
      "type": "function"
    },
    {
      "constant": true,
      "inputs": [
        {
          "name": "",
          "type": "address"
        }
      ],
      "name": "playerNumOf",
      "outputs": [
        {
          "name": "",
          "type": "uint256"
        }
      ],
      "payable": false,
      "stateMutability": "view",
      "type": "function"
    },
    {
      "constant": true,
      "inputs": [
        {
          "name": "",
          "type": "address"
        }
      ],
      "name": "theLivingNumOf",
      "outputs": [
        {
          "name": "",
          "type": "uint256"
        }
      ],
      "payable": false,
      "stateMutability": "view",
      "type": "function"
    },
    {
      "constant": true,
      "inputs": [
        {
          "name": "",
          "type": "bytes32"
        }
      ],
      "name": "roleOf",
      "outputs": [
        {
          "name": "",
          "type": "uint256"
        }
      ],
      "payable": false,
      "stateMutability": "view",
      "type": "function"
    },
    {
      "constant": true,
      "inputs": [
        {
          "name": "",
          "type": "uint256"
        },
        {
          "name": "",
          "type": "uint256"
        }
      ],
      "name": "deck",
      "outputs": [
        {
          "name": "",
          "type": "uint256"
        }
      ],
      "payable": false,
      "stateMutability": "view",
      "type": "function"
    },
    {
      "constant": true,
      "inputs": [
        {
          "name": "",
          "type": "uint256"
        }
      ],
      "name": "livingPlayers",
      "outputs": [
        {
          "name": "",
          "type": "address"
        }
      ],
      "payable": false,
      "stateMutability": "view",
      "type": "function"
    },
    {
      "constant": true,
      "inputs": [],
      "name": "winner",
      "outputs": [
        {
          "name": "",
          "type": "string"
        }
      ],
      "payable": false,
      "stateMutability": "view",
      "type": "function"
    },
    {
      "constant": true,
      "inputs": [
        {
          "name": "",
          "type": "uint256"
        }
      ],
      "name": "living",
      "outputs": [
        {
          "name": "",
          "type": "uint256"
        }
      ],
      "payable": false,
      "stateMutability": "view",
      "type": "function"
    },
    {
      "constant": true,
      "inputs": [
        {
          "name": "",
          "type": "uint256"
        }
      ],
      "name": "players",
      "outputs": [
        {
          "name": "name",
          "type": "address"
        },
        {
          "name": "live",
          "type": "bool"
        },
        {
          "name": "role",
          "type": "uint8"
        },
        {
          "name": "pokerKey",
          "type": "uint256"
        }
      ],
      "payable": false,
      "stateMutability": "view",
      "type": "function"
    },
    {
      "constant": true,
      "inputs": [
        {
          "name": "",
          "type": "address"
        }
      ],
      "name": "deposits",
      "outputs": [
        {
          "name": "",
          "type": "uint256"
        }
      ],
      "payable": false,
      "stateMutability": "view",
      "type": "function"
    },
    {
      "constant": true,
      "inputs": [],
      "name": "q",
      "outputs": [
        {
          "name": "",
          "type": "uint256"
        }
      ],
      "payable": false,
      "stateMutability": "view",
      "type": "function"
    },
    {
      "inputs": [
        {
          "name": "addressPoK",
          "type": "address"
        }
      ],
      "payable": false,
      "stateMutability": "nonpayable",
      "type": "constructor"
    },
    {
      "anonymous": false,
      "inputs": [
        {
          "indexed": false,
          "name": "i",
          "type": "uint256"
        }
      ],
      "name": "debug",
      "type": "event"
    },
    {
      "anonymous": false,
      "inputs": [
        {
          "indexed": true,
          "name": "outPlayerNum",
          "type": "uint256"
        },
        {
          "indexed": false,
          "name": "outPlayerName",
          "type": "address"
        },
        {
          "indexed": false,
          "name": "outPlayerLive",
          "type": "bool"
        },
        {
          "indexed": false,
          "name": "outPlayerHand",
          "type": "uint256[2]"
        },
        {
          "indexed": false,
          "name": "outPlayerRole",
          "type": "uint8"
        },
        {
          "indexed": false,
          "name": "outPlayerKey",
          "type": "uint256"
        }
      ],
      "name": "JoinPlayer",
      "type": "event"
    },
    {
      "anonymous": false,
      "inputs": [
        {
          "indexed": true,
          "name": "outPlayerName",
          "type": "address"
        },
        {
          "indexed": false,
          "name": "outValue",
          "type": "uint256"
        }
      ],
      "name": "Deposit",
      "type": "event"
    },
    {
      "anonymous": false,
      "inputs": [
        {
          "indexed": false,
          "name": "numPlayers",
          "type": "uint256"
        }
      ],
      "name": "PlayerReady",
      "type": "event"
    },
    {
      "anonymous": false,
      "inputs": [
        {
          "indexed": true,
          "name": "livingPlayerNum",
          "type": "uint256"
        },
        {
          "indexed": false,
          "name": "livingPlayerName",
          "type": "address"
        }
      ],
      "name": "RegLivingPlayer",
      "type": "event"
    },
    {
      "anonymous": false,
      "inputs": [
        {
          "indexed": false,
          "name": "outLiving",
          "type": "uint256[4]"
        }
      ],
      "name": "RegLivingRole",
      "type": "event"
    },
    {
      "constant": false,
      "inputs": [],
      "name": "quickDepositGame",
      "outputs": [],
      "payable": true,
      "stateMutability": "payable",
      "type": "function"
    },
    {
      "constant": false,
      "inputs": [
        {
          "name": "_players",
          "type": "address[]"
        }
      ],
      "name": "engagement",
      "outputs": [],
      "payable": false,
      "stateMutability": "nonpayable",
      "type": "function"
    },
    {
      "constant": false,
      "inputs": [
        {
          "name": "inPlayerNames",
          "type": "address[]"
        }
      ],
      "name": "quickEngagePlayers",
      "outputs": [],
      "payable": false,
      "stateMutability": "nonpayable",
      "type": "function"
    },
    {
      "constant": false,
      "inputs": [],
      "name": "createCards",
      "outputs": [],
      "payable": false,
      "stateMutability": "nonpayable",
      "type": "function"
    },
    {
      "constant": true,
      "inputs": [
        {
          "name": "i",
          "type": "uint256"
        },
        {
          "name": "inMPC",
          "type": "uint256"
        }
      ],
      "name": "quickCreateCard",
      "outputs": [
        {
          "name": "outCard",
          "type": "uint256[2]"
        },
        {
          "name": "cardNum",
          "type": "uint256"
        },
        {
          "name": "roleNum",
          "type": "uint256"
        }
      ],
      "payable": false,
      "stateMutability": "view",
      "type": "function"
    },
    {
      "constant": false,
      "inputs": [],
      "name": "shuffleCards",
      "outputs": [],
      "payable": false,
      "stateMutability": "nonpayable",
      "type": "function"
    },
    {
      "constant": false,
      "inputs": [
        {
          "name": "i",
          "type": "uint256"
        },
        {
          "name": "pokerKey",
          "type": "uint256"
        }
      ],
      "name": "shuffleCardBy",
      "outputs": [],
      "payable": false,
      "stateMutability": "nonpayable",
      "type": "function"
    },
    {
      "constant": true,
      "inputs": [
        {
          "name": "i",
          "type": "uint256"
        },
        {
          "name": "pokerKey",
          "type": "uint256"
        },
        {
          "name": "inDeck",
          "type": "uint256[2][]"
        },
        {
          "name": "numCards",
          "type": "uint256"
        }
      ],
      "name": "quickShuffleCardBy",
      "outputs": [
        {
          "name": "outDeck",
          "type": "uint256[2][]"
        }
      ],
      "payable": false,
      "stateMutability": "view",
      "type": "function"
    },
    {
      "constant": false,
      "inputs": [],
      "name": "dealCards",
      "outputs": [],
      "payable": false,
      "stateMutability": "nonpayable",
      "type": "function"
    },
    {
      "constant": true,
      "inputs": [
        {
          "name": "i",
          "type": "uint256"
        }
      ],
      "name": "dealCardTo",
      "outputs": [
        {
          "name": "hand",
          "type": "uint256[2]"
        }
      ],
      "payable": false,
      "stateMutability": "view",
      "type": "function"
    },
    {
      "constant": false,
      "inputs": [
        {
          "name": "victimName",
          "type": "address"
        },
        {
          "name": "proofCanKill",
          "type": "uint256"
        }
      ],
      "name": "nightKill",
      "outputs": [],
      "payable": false,
      "stateMutability": "nonpayable",
      "type": "function"
    },
    {
      "constant": false,
      "inputs": [
        {
          "name": "name",
          "type": "address"
        }
      ],
      "name": "dayVoting",
      "outputs": [],
      "payable": false,
      "stateMutability": "nonpayable",
      "type": "function"
    },
    {
      "constant": false,
      "inputs": [
        {
          "name": "_role",
          "type": "uint8"
        },
        {
          "name": "_pokerKey",
          "type": "uint256"
        }
      ],
      "name": "openRole",
      "outputs": [],
      "payable": false,
      "stateMutability": "nonpayable",
      "type": "function"
    },
    {
      "constant": true,
      "inputs": [
        {
          "name": "s",
          "type": "uint256"
        },
        {
          "name": "point",
          "type": "uint256[2]"
        }
      ],
      "name": "multiply",
      "outputs": [
        {
          "name": "",
          "type": "uint256"
        },
        {
          "name": "",
          "type": "uint256"
        }
      ],
      "payable": false,
      "stateMutability": "view",
      "type": "function"
    },
    {
      "constant": true,
      "inputs": [
        {
          "name": "card",
          "type": "uint256[2]"
        }
      ],
      "name": "checkRoleOf",
      "outputs": [
        {
          "name": "",
          "type": "uint256"
        }
      ],
      "payable": false,
      "stateMutability": "view",
      "type": "function"
    },
    {
      "constant": true,
      "inputs": [
        {
          "name": "name",
          "type": "address"
        }
      ],
      "name": "getHandOf",
      "outputs": [
        {
          "name": "hand",
          "type": "uint256[2]"
        }
      ],
      "payable": false,
      "stateMutability": "view",
      "type": "function"
    },
    {
      "constant": true,
      "inputs": [],
      "name": "numSurvive",
      "outputs": [
        {
          "name": "",
          "type": "uint256"
        }
      ],
      "payable": false,
      "stateMutability": "view",
      "type": "function"
    },
    {
      "constant": true,
      "inputs": [],
      "name": "werewolfCard",
      "outputs": [
        {
          "name": "cardX",
          "type": "uint256"
        },
        {
          "name": "cardY",
          "type": "uint256"
        }
      ],
      "payable": false,
      "stateMutability": "view",
      "type": "function"
    },
    {
      "constant": true,
      "inputs": [
        {
          "name": "card",
          "type": "uint256[2]"
        }
      ],
      "name": "hashCard",
      "outputs": [
        {
          "name": "",
          "type": "uint256"
        }
      ],
      "payable": false,
      "stateMutability": "pure",
      "type": "function"
    },
    {
      "constant": true,
      "inputs": [],
      "name": "cardOrder",
      "outputs": [
        {
          "name": "",
          "type": "uint256"
        }
      ],
      "payable": false,
      "stateMutability": "pure",
      "type": "function"
    },
    {
      "constant": true,
      "inputs": [
        {
          "name": "framedHand",
          "type": "uint256[2]"
        },
        {
          "name": "_werewolfCard",
          "type": "uint256[2]"
        },
        {
          "name": "victim",
          "type": "uint256"
        }
      ],
      "name": "werewolfFrameKilling",
      "outputs": [
        {
          "name": "__werewolfCard",
          "type": "uint256[2]"
        },
        {
          "name": "_framedHand",
          "type": "uint256[2]"
        },
        {
          "name": "_victim",
          "type": "uint256"
        },
        {
          "name": "T",
          "type": "uint256[3]"
        },
        {
          "name": "c",
          "type": "uint256"
        },
        {
          "name": "s",
          "type": "uint256"
        }
      ],
      "payable": false,
      "stateMutability": "view",
      "type": "function"
    },
    {
      "constant": true,
      "inputs": [
        {
          "name": "pokerKey",
          "type": "uint256"
        },
        {
          "name": "hands",
          "type": "uint256[2][]"
        },
        {
          "name": "_werewolfCard",
          "type": "uint256[2]"
        },
        {
          "name": "victim",
          "type": "uint256"
        }
      ],
      "name": "werewolfChooset",
      "outputs": [
        {
          "name": "realt",
          "type": "uint256"
        }
      ],
      "payable": false,
      "stateMutability": "view",
      "type": "function"
    },
    {
      "constant": true,
      "inputs": [
        {
          "name": "realt",
          "type": "uint256"
        },
        {
          "name": "_werewolfCard",
          "type": "uint256[2]"
        }
      ],
      "name": "werewolfComputeT",
      "outputs": [
        {
          "name": "realT",
          "type": "uint256[3]"
        }
      ],
      "payable": false,
      "stateMutability": "view",
      "type": "function"
    },
    {
      "constant": true,
      "inputs": [
        {
          "name": "_werewolfCard",
          "type": "uint256[2]"
        },
        {
          "name": "_hands",
          "type": "uint256[2][]"
        },
        {
          "name": "victim",
          "type": "uint256"
        },
        {
          "name": "Ts",
          "type": "uint256[3][]"
        }
      ],
      "name": "computeChallenge",
      "outputs": [
        {
          "name": "realChallenge",
          "type": "uint256"
        }
      ],
      "payable": false,
      "stateMutability": "view",
      "type": "function"
    },
    {
      "constant": true,
      "inputs": [
        {
          "name": "pokerKey",
          "type": "uint256"
        },
        {
          "name": "_werewolfCard",
          "type": "uint256[2]"
        },
        {
          "name": "hand",
          "type": "uint256[2]"
        },
        {
          "name": "victim",
          "type": "uint256"
        },
        {
          "name": "tReady",
          "type": "uint256"
        },
        {
          "name": "cReady",
          "type": "uint256"
        }
      ],
      "name": "werewolfProve",
      "outputs": [
        {
          "name": "__werewolfCard",
          "type": "uint256[2]"
        },
        {
          "name": "_hand",
          "type": "uint256[2]"
        },
        {
          "name": "_victim",
          "type": "uint256"
        },
        {
          "name": "T",
          "type": "uint256[3]"
        },
        {
          "name": "c",
          "type": "uint256"
        },
        {
          "name": "s",
          "type": "uint256"
        }
      ],
      "payable": false,
      "stateMutability": "view",
      "type": "function"
    },
    {
      "constant": true,
      "inputs": [
        {
          "name": "_werewolfCard",
          "type": "uint256[2]"
        },
        {
          "name": "hand",
          "type": "uint256[2]"
        },
        {
          "name": "T",
          "type": "uint256[3]"
        },
        {
          "name": "c",
          "type": "uint256"
        },
        {
          "name": "s",
          "type": "uint256"
        }
      ],
      "name": "verifyWerewolfProof",
      "outputs": [
        {
          "name": "result",
          "type": "bool"
        }
      ],
      "payable": false,
      "stateMutability": "view",
      "type": "function"
    },
    {
      "constant": true,
      "inputs": [
        {
          "name": "card",
          "type": "uint256[2]"
        },
        {
          "name": "role",
          "type": "uint8"
        }
      ],
      "name": "quickGenerateMap",
      "outputs": [
        {
          "name": "cardNum",
          "type": "uint256"
        },
        {
          "name": "roleNum",
          "type": "uint256"
        }
      ],
      "payable": false,
      "stateMutability": "pure",
      "type": "function"
    },
    {
      "constant": true,
      "inputs": [
        {
          "name": "i",
          "type": "uint256"
        }
      ],
      "name": "quickPrepareDeck",
      "outputs": [
        {
          "name": "outMPC",
          "type": "uint256"
        }
      ],
      "payable": false,
      "stateMutability": "view",
      "type": "function"
    },
    {
      "constant": true,
      "inputs": [
        {
          "name": "me",
          "type": "uint256"
        },
        {
          "name": "pokerKey",
          "type": "uint256"
        },
        {
          "name": "i",
          "type": "uint256"
        },
        {
          "name": "cipherCard",
          "type": "uint256[2]"
        }
      ],
      "name": "helpDecryptRole",
      "outputs": [
        {
          "name": "decryptCard",
          "type": "uint256[2]"
        }
      ],
      "payable": false,
      "stateMutability": "view",
      "type": "function"
    },
    {
      "constant": true,
      "inputs": [
        {
          "name": "me",
          "type": "uint256"
        },
        {
          "name": "pokerKey",
          "type": "uint256"
        },
        {
          "name": "cipherCard",
          "type": "uint256[2]"
        }
      ],
      "name": "recoverRole",
      "outputs": [
        {
          "name": "decryptCard",
          "type": "uint256[2]"
        }
      ],
      "payable": false,
      "stateMutability": "view",
      "type": "function"
    },
    {
      "constant": true,
      "inputs": [
        {
          "name": "handFace",
          "type": "uint256[2]"
        },
        {
          "name": "pokerKey",
          "type": "uint256"
        },
        {
          "name": "handBack",
          "type": "uint256[2]"
        }
      ],
      "name": "verifyRole",
      "outputs": [
        {
          "name": "",
          "type": "bool"
        }
      ],
      "payable": false,
      "stateMutability": "view",
      "type": "function"
    }
  ],
  "bytecode": "0x608060405234801561001057600080fd5b50604051602080613dfd833981016040525160008054600160a060020a031916600160a060020a0383161781557f79be667ef9dcbbac55a06295ce870b07029bfcdb2dce28d959f2815b16f8179890600501557f483ada7726a3c4655da4fbfc0e1108a8fd17b448a68554199c47d08ffb10d4b860056001015550613d638061009a6000396000f3006080604052600436106101ea5763ffffffff60e060020a600035041663076d968081146101ef57806307f7470b146102465780630cbee0e3146102eb5780631053dad1146103f857806314a9a1211461044a5780632e52d606146104a6578063313ffac1146104bb5780633e5a438d146104e4578063474ab93c146105565780634ef3ea741461057157806352f9aaea1461059257806354054cd5146105ee578063568bd63e1461060f57806358801f17146106245780635c56e508146106395780636e6ac9c61461064e5780636ec72e971461066657806384886269146106d25780638c3b02d8146106ea5780638c785f88146107865780639a0196781461079b578063a15352d5146107bf578063a4f195aa146107c7578063ab277833146107e5578063acb2c01a14610805578063ad3b99a41461081a578063b77d12681461086f578063c0cb6b2414610990578063c52e3e4a146109e8578063d34544cd14610a00578063d5b1de7e14610a1b578063d6ffa29a14610a5b578063d9e0bf4e14610a70578063dfbf53ae14610aa4578063eb28808114610b2e578063eb47688c14610b46578063f292c21514610b63578063f4d40d2614610ba8578063f6ac71cd14610c0a578063f71d96cb14610c2b578063fc7e286d14610c87578063fd3ab28214610ca8575b600080fd5b3480156101fb57600080fd5b506040805160206004803580820135838102808601850190965280855261024495369593946024949385019291829185019084908082843750949750610cbd9650505050505050565b005b34801561025257600080fd5b506040805180820182526102d791369160049160449190839060029083908390808284375050604080518082018252949796958181019594509250600291508390839080828437505060408051606081810190925294979695818101959450925060039150839083908082843750939650508335945050506020909101359050610f44565b604080519115158252519081900360200190f35b3480156102f757600080fd5b506040805180820182526103509136916004916044919083906002908390839080828437505060408051808201825294979695818101959450925060029150839083908082843750939650509235935061107092505050565b6040518087600260200280838360005b83811015610378578181015183820152602001610360565b5050505090500186600260200280838360005b838110156103a357818101518382015260200161038b565b5050505090500185815260200184600360200280838360005b838110156103d45781810151838201526020016103bc565b50505050905001838152602001828152602001965050505050505060405180910390f35b34801561040457600080fd5b506040805180820182526104389136916004916044919083906002908390839080828437509396506111b595505050505050565b60408051918252519081900360200190f35b34801561045657600080fd5b5060408051808201825261048d9160048035923692606491906024906002908390839080828437509396506111fa95505050505050565b6040805192835260208301919091528051918290030190f35b3480156104b257600080fd5b50610438611234565b3480156104c757600080fd5b50610438600480359060248035908101910135604460843561123a565b3480156104f057600080fd5b506040805180820182526103509160048035923692606491906024906002908390839080828437505060408051808201825294979695818101959450925060029150839083908082843750939650508335945050506020820135916040013590506112e0565b34801561056257600080fd5b5061024460043560243561143e565b34801561057d57600080fd5b50610438600160a060020a03600435166114f7565b34801561059e57600080fd5b506105b3600160a060020a0360043516611509565b6040518082600260200280838360005b838110156105db5781810151838201526020016105c3565b5050505090500191505060405180910390f35b3480156105fa57600080fd5b50610438600160a060020a036004351661157b565b34801561061b57600080fd5b5061048d61158d565b34801561063057600080fd5b506102446115dd565b34801561064557600080fd5b50610244611797565b34801561065a57600080fd5b50610438600435611a07565b34801561067257600080fd5b506040805180820182526102d79136916004916044919083906002908390839080828437505060408051808201825294978635979096909560608201955093506020019150600290839083908082843750939650611a1995505050505050565b3480156106de57600080fd5b50610438600435611a54565b3480156106f657600080fd5b5061071560048035906024803591604435918201910135606435611a71565b60405180806020018281038252838181518152602001915080516000925b8184101561077557602080850284010151604080838360005b8381101561076457818101518382015260200161074c565b505050509050019260010192610733565b925050509250505060405180910390f35b34801561079257600080fd5b50610438611b4f565b3480156107a757600080fd5b50610244600160a060020a0360043516602435611b66565b610244611c64565b3480156107d357600080fd5b5061024460ff60043516602435611cb8565b3480156107f157600080fd5b506105b36004356024356044356064611e21565b34801561081157600080fd5b50610438611e9d565b34801561082657600080fd5b506040805160206004803580820135838102808601850190965280855261024495369593946024949385019291829185019084908082843750949750611ea79650505050505050565b34801561087b57600080fd5b50604080518082018252610438913691600491604491908390600290839083908082843750506040805186358801803560208181028401810190945280835296999897830196919550820193509150819060009085015b8282101561090b5760408051808201825290808402870190600290839083908082843750505091835250506001909101906020016108d2565b50506040805160208088013589018035808302840183018552808452979a89359a90999098940196509194509081019250819060009085015b82821015610980576040805160608181019092529080840287019060039083908390808284375050509183525050600190910190602001610944565b5093965061231f95505050505050565b34801561099c57600080fd5b506040805180820182526109d39160048035923692606491906024906002908390839080828437509396506124ad95505050505050565b604051815181528082606080838360206105c3565b3480156109f457600080fd5b506105b3600435612580565b348015610a0c57600080fd5b506104386004356024356125d5565b348015610a2757600080fd5b5060408051808201825261043891369160049160449190839060029083908390808284375093965061260795505050505050565b348015610a6757600080fd5b50610244612660565b348015610a7c57600080fd5b50610a8860043561270e565b60408051600160a060020a039092168252519081900360200190f35b348015610ab057600080fd5b50610ab9612736565b6040805160208082528351818301528351919283929083019185019080838360005b83811015610af3578181015183820152602001610adb565b50505050905090810190601f168015610b205780820380516001836020036101000a031916815260200191505b509250505060405180910390f35b348015610b3a57600080fd5b506104386004356127c4565b348015610b5257600080fd5b506105b360043560243560446127d8565b348015610b6f57600080fd5b5060408051808201825261048d9136916004916044919083906002908390839080828437509396505050913560ff169250612837915050565b348015610bb457600080fd5b50610bc3600435602435612890565b6040518084600260200280838360005b83811015610beb578181015183820152602001610bd3565b5050505091909101938452505060208201526040805191829003019150f35b348015610c1657600080fd5b50610244600160a060020a0360043516612924565b348015610c3757600080fd5b50610c4360043561292d565b60408051600160a060020a03861681528415156020820152908101836003811115610c6a57fe5b60ff16815260200182815260200194505050505060405180910390f35b348015610c9357600080fd5b50610438600160a060020a0360043516612977565b348015610cb457600080fd5b50610438612989565b60006006825110151515610cd057600080fd5b81516004819055600190810190610ce79082613a95565b50600190505b6004548111610e615760a0604051908101604052808360018403815181101515610d1357fe5b6020908102909101810151600160a060020a03168252600182820152604080518082018252600080825292810183905290830152606090910190815260006020909101526001805483908110610d6557fe5b60009182526020918290208351600590920201805492840151151560a060020a0274ff000000000000000000000000000000000000000019600160a060020a0390931673ffffffffffffffffffffffffffffffffffffffff1990941693909317919091169190911781556040820151610de49060018301906002613ac1565b5060608201518160030160006101000a81548160ff02191690836003811115610e0957fe5b0217905550608082015181600401559050508060076000600184815481101515610e2f57fe5b60009182526020808320600590920290910154600160a060020a03168352820192909252604001902055600101610ced565b6002600b556001600c8190556004546002198101600d5501610e84600e82613aff565b50600190505b6004548111610f40576001805482908110610ea157fe5b6000918252602090912060059091020154600e8054600160a060020a039092169183908110610ecc57fe5b9060005260206000200160006101000a815481600160a060020a030219169083600160a060020a0316021790555080600f6000600184815481101515610f0e57fe5b60009182526020808320600590920290910154600160a060020a03168352820192909252604001902055600101610e8a565b5050565b60008054604080517f2b0c1aba000000000000000000000000000000000000000000000000000000008152600160a060020a0390921691632b0c1aba918991899189918991899160040190819087908083838e5b83811015610fb0578181015183820152602001610f98565b5050505090500185600260200280838360005b83811015610fdb578181015183820152602001610fc3565b5050505090500184600360200280838360005b83811015611006578181015183820152602001610fee565b5050505090500183815260200182815260200195505050505050602060405180830381600087803b15801561103a57600080fd5b505af115801561104e573d6000803e3d6000fd5b505050506040513d602081101561106457600080fd5b50519695505050505050565b611078613b23565b611080613b23565b600061108a613b3e565b60008054604080517fa2cf93080000000000000000000000000000000000000000000000000000000081528392600160a060020a03169163a2cf9308918b918d918c91600490910190819085908083838c5b838110156110f45781810151838201526020016110dc565b5050505090500183600260200280838360005b8381101561111f578181015183820152602001611107565b50505050905001828152602001935050505061014060405180830381600087803b15801561114c57600080fd5b505af1158015611160573d6000803e3d6000fd5b505050506040513d601f19601f8201168201806040525061014081101561118657600080fd5b506080810151610100820151610120830151929c60408e019c50919a5060a08d01995097509095509350505050565b6000816040518082600260200280838360005b838110156111e05781810151838201526020016111c8565b505060405192909401829003909120979650505050505050565b600080611205613b3e565b61120f858561299f565b9050611221816401000003d019612dd7565b8051602090910151909590945092505050565b60045481565b60008054604080517fb7331865000000000000000000000000000000000000000000000000000000008152600160a060020a039092169163b7331865918691899189918c918991600401908190879080828437820191505080602001848152602001838152602001828103825286868281815260200192506040028082843782019150509650505050505050602060405180830381600087803b15801561103a57600080fd5b6112e8613b23565b6112f0613b23565b60006112fa613b3e565b6000806000809054906101000a9004600160a060020a0316600160a060020a031663d4540ff78d8d8d8d8d8d6040518763ffffffff1660e060020a0281526004018087815260200186600260200280838360005b8381101561136657818101518382015260200161134e565b5050505090500185600260200280838360005b83811015611391578181015183820152602001611379565b50505050905001848152602001838152602001828152602001965050505050505061014060405180830381600087803b1580156113cd57600080fd5b505af11580156113e1573d6000803e3d6000fd5b505050506040513d601f19601f8201168201806040525061014081101561140757600080fd5b50608081015161010082015161012083015192985060408901975090955060a0880194509250905096509650965096509650969050565b8060005b60045481116114f15761149e8260038381548110151561145e57fe5b600091825260209091206040805180820191829052926002908102909201919082845b8154815260200190600101908083116114815750505050506111fa565b60038054849081106114ac57fe5b6000918252602082206002909102010160006003858154811015156114cd57fe5b60009182526020909120600290910201600101929092559190915550600101611442565b50505050565b60076020526000908152604090205481565b611511613b23565b600160a060020a038216600090815260076020526040902054600180548290811061153857fe5b6000918252602082206001600590920201010154600180548390811061155a57fe5b60009182526020918290206002600590920201015490840152825250919050565b600f6020526000908152604090205481565b600080600360018154811015156115a057fe5b60009182526020822060029091020101546003805460019081106115c057fe5b600091825260209091206002909102016001015490939092509050565b6000806115e8613b23565b6177179250600091505b60045482116116645761160e8360038481548110151561145e57fe5b600380548590811061161c57fe5b60009182526020822060029091020101600060038681548110151561163d57fe5b600091825260209091206002909102016001019290925591909155506001909101906115f2565b60038054600290811061167357fe5b600091825260208220600290910201015460038054600290811061169357fe5b6000918252602091829020600160029092020101549083015281526003805460059081106116bd57fe5b60009182526020822060029091020101546003805460059081106116dd57fe5b600091825260209091206002909102016001015460038054600290811061170057fe5b6000918252602082206002909102010160006003600281548110151561172257fe5b600091825260209182902060016002909202010193909355509190915581519082015160038054600590811061175457fe5b6000918252602082206002909102010160006003600581548110151561177657fe5b60009182526020909120600290910201600101929092559190915550505050565b6000806004546001016003816117ad9190613b5d565b6117b8600282613aff565b50600091505b60045482116117db576117d082612e43565b6001909101906117be565b600091505b600454821161188d576118376002838154811015156117fb57fe5b600091825260209182902001546040805180820191829052600580548252929390929160029160069085018083116114815750505050506111fa565b600380548590811061184557fe5b60009182526020822060029091020101600060038681548110151561186657fe5b600091825260209091206002909102016001019290925591909155506001909101906117e0565b6118e2600360008154811015156118a057fe5b600091825260209091206040805180820191829052926002908102909201919082845b8154815260200190600101908083116118c35750505050506000612e79565b611937600360018154811015156118f557fe5b600091825260209091206040805180820191829052926002908102909201919082845b8154815260200190600101908083116119185750505050506001612e79565b61194a600360028154811015156118f557fe5b61199e60038081548110151561195c57fe5b600091825260209091206040805180820191829052926002908102909201919082845b81548152602001906001019080831161197f5750505050506002612e79565b5060045b6004548111610f40576119ff6003828154811015156119bd57fe5b600091825260209091206040805180820191829052926002908102909201919082845b8154815260200190600101908083116119e05750505050506003612e79565b6001016119a2565b60086020526000908152604090205481565b6000611a23613b23565b611a2d84866111fa565b60208301528082528351148015611a4b575060208082015190840151145b95945050505050565b70014551231950b75fc4402da1732fc9bebe19607b919091010690565b606060008086915083600101604051908082528060200260200182016040528015611ab657816020015b611aa3613b23565b815260200190600190039081611a9b5790505b509250600090505b838111611b4457611b0382878784818110611ad557fe5b9050604002016002806020026040519081016040528092919082600260200280828437506111fa9350505050565b8483815181101515611b1157fe5b60209081029190910101518551869085908110611b2a57fe5b602090810291909101810151019190915252600101611abe565b505095945050505050565b70014551231950b75fc4402da1732fc9bebe195b90565b6000611b70613b89565b600160a060020a038416600090815260076020526040902054600180549193509083908110611b9b57fe5b60009182526020918290206040805160a0810182526005939093029091018054600160a060020a038116845260a060020a900460ff16151593830193909352805180820180835292939291840191600184019060029082845b815481526020019060010190808311611bf457505050918352505060038281015460209092019160ff1690811115611c2857fe5b6003811115611c3357fe5b81526020016004820154815250509050611c4d8382612eda565b1515600114611c5b57600080fd5b6114f184612ef9565b600160a060020a0333166000818152600960209081526040918290203490819055825190815291517fe1fffcc4923d04b559f4d29a8bfc6cda04eb5b0d3c460751c2402c5c5cc9109c9281900390910190a2565b6000611cc4838361306b565b1515600114611cd257600080fd5b50600160a060020a0333166000908152600760205260409020546001805484919083908110611cfd57fe5b906000526020600020906005020160030160006101000a81548160ff02191690836003811115611d2957fe5b021790555081600182815481101515611d3e57fe5b906000526020600020906005020160040181905550600a836003811115611d6157fe5b60048110611d6b57fe5b018054600019019055600d54600c54600b5491011415611dcf5760408051808201909152600a8082527f57657265776f6c766573000000000000000000000000000000000000000000006020909201918252611dc991601091613bbc565b50611e1c565b600b541515611e1c576040805180820190915260068082527f48756d616e73000000000000000000000000000000000000000000000000000060209092019182526114f191601091613bbc565b505050565b611e29613b23565b600083861415611e46576020808401359083015282358252611e94565b611e628570014551231950b75fc4402da1732fc9bebe1961308d565b604080518082018252919250611e8c91839186906002908390839080828437506111fa9350505050565b602084015282525b50949350505050565b600e546000190190565b6000806006835110151515611ebb57600080fd5b600091505b8251821015611f17578282815181101515611ed757fe5b6020908102909101810151600160a060020a0381166000908152600990925260409091205490915060641115611f0c57600080fd5b600190910190611ec0565b82516004819055600190810190611f2e9082613a95565b50600191505b60045482116122605760a0604051908101604052808460018503815181101515611f5a57fe5b6020908102909101810151600160a060020a03168252600182820152604080518082018252600080825292810183905290830152606090910190815260006020909101526001805484908110611fac57fe5b60009182526020918290208351600590920201805492840151151560a060020a0274ff000000000000000000000000000000000000000019600160a060020a0390931673ffffffffffffffffffffffffffffffffffffffff199094169390931791909116919091178155604082015161202b9060018301906002613ac1565b5060608201518160030160006101000a81548160ff0219169083600381111561205057fe5b021790555060808201518160040155905050817f03cf42e4797686930ef09f709f5bb470696c17d58255a88600d589f2090ba60160018481548110151561209357fe5b600091825260209091206005909102015460018054600160a060020a0390921691869081106120be57fe5b906000526020600020906005020160000160149054906101000a900460ff1660408051908101604052806001888154811015156120f757fe5b6000918252602082206001600590920201010154815260200160018881548110151561211f57fe5b60009182526020909120600260059092020101549052600180548890811061214357fe5b60009182526020909120600360059092020101546001805460ff909216918990811061216b57fe5b9060005260206000209060050201600401546040518086600160a060020a0316600160a060020a031681526020018515151515815260200184600260200280838360005b838110156121c75781810151838201526020016121af565b505050509050018360038111156121da57fe5b60ff1681526020018281526020019550505050505060405180910390a2817f9dc64552b3ef4f55429327ed20ed329cde6b51b38f1226e773cbcf2c29093e4460018481548110151561222857fe5b60009182526020918290206005909102015460408051600160a060020a039092168252519081900390910190a2600190910190611f34565b7f1f53875f11d5a712b4c4f66780cd6f618f624c4794dcf513a29fddadd299a9d56080604051908101604052806000815260200160028152602001600181526020016003600454038152506040518082600460200280838360005b838110156122d35781810151838201526020016122bb565b5050505090500191505060405180910390a160045460408051918252517f0475fa33e711a0d11030b454020a5f7c806520bdc5d7a1fcb9accde610a00f249181900360200190a1505050565b60008054604080517fb77d1268000000000000000000000000000000000000000000000000000000008152600160a060020a039092169163b77d1268918891889188918891600490910190819086908083838d5b8381101561238b578181015183820152602001612373565b5050505090500180602001848152602001806020018381038352868181518152602001915080516000925b818410156123f857602080850284010151604080838360005b838110156123e75781810151838201526020016123cf565b5050505090500192600101926123b6565b86810385528751815287516000945088935091506020015b8184101561245257602080850284010151606080838360005b83811015612441578181015183820152602001612429565b505050509050019260010192612410565b925050509650505050505050602060405180830381600087803b15801561247857600080fd5b505af115801561248c573d6000803e3d6000fd5b505050506040513d60208110156124a257600080fd5b505195945050505050565b6124b5613b3e565b6000809054906101000a9004600160a060020a0316600160a060020a03166383242e9084846040518363ffffffff1660e060020a0281526004018083815260200182600260200280838360005b8381101561251a578181015183820152602001612502565b5050505090500192505050606060405180830381600087803b15801561253f57600080fd5b505af1158015612553573d6000803e3d6000fd5b505050506040513d601f19601f82011682018060405250606081101561257857600080fd5b509392505050565b612588613b23565b600380548390811061259657fe5b600091825260208220600290910201015460038054849081106125b557fe5b600091825260209182902060016002909202010154908301528152919050565b60038054839081106125e357fe5b9060005260206000209060020201816002811015156125fe57fe5b01549150829050565b600060086000836040518082600260200280838360005b8381101561263657818101518382015260200161261e565b50506040805193909501839003909220875250505060208401949094525050016000205492915050565b60015b600454811161270357600380548290811061267a57fe5b6000918252602082206002909102010154600380548390811061269957fe5b600091825260209091206002909102016001015460018054849081106126bb57fe5b6000918252602082206001600590920201010160006001858154811015156126df57fe5b60009182526020909120600260059092020101929092559190915550600101612663565b61270b61312b565b50565b600e80548290811061271c57fe5b600091825260209091200154600160a060020a0316905081565b6010805460408051602060026001851615610100026000190190941693909304601f810184900484028201840190925281815292918301828280156127bc5780601f10612791576101008083540402835291602001916127bc565b820191906000526020600020905b81548152906001019060200180831161279f57829003601f168201915b505050505081565b600a81600481106127d157fe5b0154905081565b6127e0613b23565b60006127fe8470014551231950b75fc4402da1732fc9bebe1961308d565b60408051808201825291925061282891839186906002908390839080828437506111fa9350505050565b60208401528252509392505050565b600080836040518082600260200280838360005b8381101561286357818101518382015260200161284b565b5050505090500191505060405180910390206001900483600381111561288557fe5b915091509250929050565b612898613b23565b6040805180820191829052600580548252600092839283926128d292889291906002906006602085018083116114815750505050506111fa565b602086015284528515156128e85750600061290d565b600286116128f85750600161290d565b85600314156129095750600261290d565b5060035b6129178482612837565b9497909650939450505050565b61270b81612ef9565b600180548290811061293b57fe5b6000918252602090912060059091020180546003820154600490920154600160a060020a038216935060a060020a90910460ff90811692169084565b60096020526000908152604090205481565b70014551231950b75fc4402da1732fc9bebe1981565b6129a7613b3e565b60008060006129b4613c29565b6129bc613b3e565b6129c4613c58565b6401000003d0199550600080808b15156129dd57612dc8565b6000604051985061020089016040525b8c15612a255760018d1615612a145750601f8c16808989015360206010821102818e03019c505b60028d049c506001880197506129ed565b50604080516060810182528c5181526020808e015190820152600191810191909152808752612a539061316b565b9450612a5f858c61328a565b6020870152612a76858760015b60200201516134cc565b6040870152612a8785876002612a6c565b6060870152612a9885876003612a6c565b6080870152612aa985876004612a6c565b60a0870152612aba85876005612a6c565b60c0870152612acb85876006612a6c565b60e0870152602086015160400151845288801515612ae557fe5b8451604080890151015109602085015288801515612aff57fe5b602085015160608801516040015109604085015288801515612b1d57fe5b60408086015160808901519091015109606085015288801515612b3c57fe5b606085015160a08801516040015109608085015288801515612b5a57fe5b608085015160c0880151604001510960a085015288801515612b7857fe5b60a085015160e0880151604001510960c08501819052612b98908a61308d565b60e0850181905261010085015288801515612baf57fe5b61010085015160a0860151096101e0850152600692505b60028310612c435788801515612bd857fe5b610100850151876001860160088110612bed57fe5b6020020151604001510961010085015288801515612c0757fe5b61010085015185600119860160108110612c1d57fe5b602002015109846008850160108110612c3257fe5b602002015260001990920191612bc6565b88801515612c4d57fe5b610100850151604080890151015109610120850152600092505b6007831015612cdf57612cd4866001850160088110612c8257fe5b6020020151856009860160108110612c9657fe5b60200201518b801515612ca557fe5b876009880160108110612cb457fe5b6020020151886009890160108110612cc857fe5b6020020151098c61372c565b600190920191612c67565b6000871115612dc85760001987890181015197019660001a9150612d028a61375c565b6010821115612d66576002601f839003049050612d618a60408051908101604052808985600881101515612d3257fe5b6020908102919091015151825201898560088110612d4c57fe5b6020020151600160200201518d039052613871565b612dc3565b6000821115612dc35760026000198301049050612dc38a60408051908101604052808985600881101515612d9657fe5b6020908102919091015151825201898560088110612db057fe5b6020020151600160200201519052613871565b612cdf565b50505050505050505092915050565b600080612deb84600260200201518461308d565b915082801515612df757fe5b828309905082801515612e0657fe5b8451829009845282801515612e1757fe5b83801515612e2157fe5b8284098560015b60200201510960208501525050600160409092019190915250565b70014551231950b75fc4402da1732fc9bebe19607b820106600282815481101515612e6a57fe5b60009182526020909120015550565b806003811115612e8557fe5b60086000846040518082600260200280838360005b83811015612eb2578181015183820152602001612e9a565b5050604080519590930185900390942087525060208601969096525050505001600020555050565b600082607b148015612ef25750602082015115156001145b9392505050565b600160a060020a038116600090815260076020526040812054600180549192918291829185908110612f2757fe5b600091825260208083206005909202909101805493151560a060020a0274ff00000000000000000000000000000000000000001990941693909317909255600160a060020a0386168152600f909152604090205491508190505b600e5460011901811161303a57600e805460018301908110612f9f57fe5b600091825260209091200154600e8054600160a060020a039092169183908110612fc557fe5b9060005260206000200160006101000a815481600160a060020a030219169083600160a060020a03160217905550600f6000600e8381548110151561300657fe5b6000918252602080832090910154600160a060020a0316835282019290925260400190208054600019019055600101612f81565b600e80549061304d906000198301613aff565b50505050600160a060020a03166000908152600f6020526040812055565b60008083600381111561307a57fe5b14158015612ef25750506101c814919050565b6000808080808087158015906130a35750868814155b80156130ae57508615155b15156130b957600080fd5b868811156130d05786888115156130cc57fe5b0697505b600193508692508791505b81156131065781838115156130ec57fe5b9495940485810290940393919283830290039190506130db565b600085121561311c578460000387039550613120565b8495505b505050505092915050565b600160005b6004548211610f4057600180548390811061314757fe5b60009182526020909120600160059092020181018054820181559201919050613130565b613173613b3e565b6401000003d01960008080808080886002602002015115156131945761327e565b885160208a01519096509450868015156131aa57fe5b8586099350868015156131b957fe5b878015156131c357fe5b8588096004099250868015156131d557fe5b878015156131df57fe5b8788096003099150868015156131f157fe5b878015156131fb57fe5b84850888038880151561320a57fe5b8485090880895290508680151561321d57fe5b8780151561322757fe5b8880151561323157fe5b86870960080988038880151561324357fe5b8980151561324d57fe5b848b03870885090860208901528680151561326457fe5b8780151561326e57fe5b60408b0151870960020960408901525b50505050505050919050565b613292613b3e565b600061329c613b23565b6132a4613c78565b6000808080808a6002602002015115156132e057604080516060810182528b5181526020808d01519082015260019181019190915298506134be565b60208a015115156132f3578a98506134be565b60408b01516401000003d01998508890800987528780151561331157fe5b875160408d015109602080890191909152604080516080810182528d5181528d8301519281019290925281018980151561334757fe5b89518d510981526020018980151561335b57fe5b6020808b0151908e01510990526040810151815191975014156133ac57606086015160208701511461339d576000808c5260208c0181905260408c01526134be565b6133a68b61316b565b506134be565b878015156133b657fe5b86516040880151908a0390089450878015156133ce57fe5b60208701516060880151908a0390089350878015156133e957fe5b8586099250878015156133f857fe5b85840991508780151561340757fe5b8289038980151561341457fe5b8687090890508780151561342457fe5b8880151561342e57fe5b8980151561343857fe5b885186900960020989038208808a5290508780151561345357fe5b8880151561345d57fe5b828a038a80151561346a57fe5b895187900908850960208a01528780151561348157fe5b8880151561348b57fe5b602088015184900989038a600160200201510860208a0152878015156134ad57fe5b60408c015186098960025b60200201525b505050505050505092915050565b6134d4613b3e565b60006134de613c78565b6134e6613c78565b6000808080808a600260200201511515613502578998506134be565b60408a01511515613515578a98506134be565b60408b01516401000003d01998508890800987528780151561353357fe5b875160408d01510960208801528780151561354a57fe5b60408b0151800960408801528780151561356057fe5b604080890151908c01510960608801526040805160808101909152808980151561358657fe5b60408a01518e510981526020018980151561359d57fe5b60608a015160208f0151098152602001898015156135b757fe5b89518d51098152602001898015156135cb57fe5b6020808b0151908e015109905260408101518151919750141561360c5760608601516020870151146135fc576134be565b6136058b61316b565b98506134be565b8780151561361657fe5b86516040880151908a03900894508780151561362e57fe5b60208701516060880151908a03900893508780151561364957fe5b85860992508780151561365857fe5b85840991508780151561366757fe5b8289038980151561367457fe5b8687090890508780151561368457fe5b8880151561368e57fe5b8980151561369857fe5b885186900960020989038208808a529050878015156136b357fe5b888015156136bd57fe5b828a038a8015156136ca57fe5b895187900908850960208a0152878015156136e157fe5b888015156136eb57fe5b602088015184900989038a600160200201510860208a01528780151561370d57fe5b8880151561371757fe5b6040808d0151908e01510986098960026134b8565b8080151561373657fe5b845183900984528080151561374757fe5b8180151561375157fe5b838509856001612e28565b6401000003d019600080808080808760026020020151151561377d57613867565b8751602089015190965094508680151561379357fe5b8586099350868015156137a257fe5b878015156137ac57fe5b8588096004099250868015156137be57fe5b878015156137c857fe5b8788096003099150868015156137da57fe5b878015156137e457fe5b8485088803888015156137f357fe5b8485090880895290508680151561380657fe5b8780151561381057fe5b8880151561381a57fe5b86870960080988038880151561382c57fe5b8980151561383657fe5b848b03870885090860208901528680151561384d57fe5b8780151561385757fe5b60408a0151870960020960408901525b5050505050505050565b600061387b613b23565b613883613c78565b600080808080896001602002015115156138b55788518a526020808a0151908b015260018a60025b6020020152613a89565b602089015115156138c557613a89565b60408a01516401000003d0199850889080098752878015156138e357fe5b875160408c015109602080890191909152604080516080810182528c5181528c8301519281019290925281018980151561391957fe5b89518c510981526020018980151561392d57fe5b6020808b0151908d015109905260408101518151919750141561397b57606086015160208701511461396d576000808b5260208b018190528a60026138ab565b6139768a61375c565b613a89565b8780151561398557fe5b86516040880151908a03900894508780151561399d57fe5b60208701516060880151908a0390089350878015156139b857fe5b8586099250878015156139c757fe5b8584099150878015156139d657fe5b828903898015156139e357fe5b868709089050878015156139f357fe5b888015156139fd57fe5b89801515613a0757fe5b885186900960020989038208808b52905087801515613a2257fe5b88801515613a2c57fe5b828a038a801515613a3957fe5b895187900908850960208b015287801515613a5057fe5b88801515613a5a57fe5b602088015184900989038b600160200201510860208b015287801515613a7c57fe5b60408b0151860960408b01525b50505050505050505050565b815481835581811115611e1c57600502816005028360005260206000209182019101611e1c9190613c97565b8260028101928215613aef579160200282015b82811115613aef578251825591602001919060010190613ad4565b50613afb929150613cec565b5090565b815481835581811115611e1c57600083815260209020611e1c918101908301613cec565b60408051808201825290600290829080388339509192915050565b6060604051908101604052806003906020820280388339509192915050565b815481835581811115611e1c57600202816002028360005260206000209182019101611e1c9190613d06565b6040805160c08101825260008082526020820152908101613ba8613b23565b815260200160008152602001600081525090565b828054600181600116156101000203166002900490600052602060002090601f016020900481019282601f10613bfd57805160ff1916838001178555613aef565b82800160010185558215613aef5791820182811115613aef578251825591602001919060010190613ad4565b610300604051908101604052806008905b613c42613b3e565b815260200190600190039081613c3a5790505090565b610200604051908101604052806010906020820280388339509192915050565b6080604051908101604052806004906020820280388339509192915050565b611b6391905b80821115613afb57805474ffffffffffffffffffffffffffffffffffffffffff191681556000613cd06001830182613d29565b5060038101805460ff1916905560006004820155600501613c9d565b611b6391905b80821115613afb5760008155600101613cf2565b611b6391905b80821115613afb576000613d208282613d29565b50600201613d0c565b5060008155600101600090555600a165627a7a72305820661ba0ed4ab6a314af8140aa8926d63d07bc14bb1dbf4c020d8de9e2c192a6750029",
  "source": "pragma solidity ^0.4.7;\r\nimport \"./OrPoK.sol\";\r\n\r\ncontract SmartWerewolf {\r\n    //parameters using bitcoin's curve (fixed for every game)\r\n    uint constant p = 0xFFFFFFFFFFFFFFFFFFFFFFFFFFFFFFFFFFFFFFFFFFFFFFFFFFFFFFFEFFFFFC2F;\r\n    uint constant Gx =0x79BE667EF9DCBBAC55A06295CE870B07029BFCDB2DCE28D959F2815B16F81798;\r\n    uint constant Gy = 0x483ADA7726A3C4655DA4FBFC0E1108A8FD17B448A68554199C47D08FFB10D4B8;\r\n    uint public constant q = 0xFFFFFFFFFFFFFFFFFFFFFFFFFFFFFFFEBAAEDCE6AF48A03BBFD25E8CD0364141;\r\n    OrPoK processPoK; \r\n\r\n    //bullet broad (fixed during 1 game)\r\n    Player[] public players;\r\n    uint[] MPC;\r\n    uint[2][] public deck;\r\n    uint public n;\r\n    uint[2] G;\r\n    mapping (address => uint) public playerNumOf;\r\n    mapping(bytes32 => uint) public roleOf;\r\n    mapping(address => uint) public deposits;\r\n    \r\n    //up-to-date report (change in game)\r\n    uint[4] public living;\r\n    address[] public livingPlayers;\r\n    mapping(address => uint) public theLivingNumOf;\r\n    string public winner;\r\n    \r\n    function SmartWerewolf(address addressPoK) public {\r\n        processPoK = OrPoK(addressPoK);\r\n        G[0] = Gx;\r\n        G[1] = Gy;\r\n    }\r\n    \r\n\r\n    //0. \r\n\r\n    function quickDepositGame() external payable {\r\n        deposits[msg.sender] = msg.value;\r\n        emit Deposit(\r\n                msg.sender,\r\n                deposits[msg.sender]\r\n            );\r\n    }\r\n\r\n    \r\n    //1.  (V)\r\n\r\n    function engagement(address[] _players) public {\r\n        require(_players.length >= 6);\r\n        n = _players.length;\r\n        players.length = 1+ n;\r\n        uint i;\r\n        for (i = 1; i <= n; i++) {\r\n            players[i] = Player\r\n            (\r\n                {\r\n                    name: _players[ i-1 ],  \r\n                    live: true, \r\n                    hand: [uint(0),0], \r\n                    role: RoleTypes.Unseen,\r\n                    pokerKey: 0\r\n                }\r\n           ); \r\n        playerNumOf[players[i].name] = i;\r\n        }\r\n        \r\n        living[uint(RoleTypes.Werewolf)]=2;\r\n        living[uint(RoleTypes.Seer)]=1;\r\n        living[uint(RoleTypes.Villager)]=n-3;\r\n\r\n        livingPlayers.length=n+1;\r\n        for(i=1;i<=n;i++){\r\n            livingPlayers[i]=players[i].name;\r\n            theLivingNumOf[players[i].name]=i;\r\n        }\r\n    }\r\n\r\n    function quickEngagePlayers(address[] inPlayerNames) \r\n        public \r\n    {   \r\n        require(inPlayerNames.length >= 6);\r\n        uint i;\r\n        for(i = 0; i<inPlayerNames.length; i++){\r\n            address p = inPlayerNames[i];\r\n            require(deposits[p]>=100);\r\n        }\r\n\r\n        n = inPlayerNames.length;\r\n        players.length = 1+n;\r\n\r\n        for (i = 1; i <= n; i++) {\r\n            players[i] = Player\r\n            (\r\n                {\r\n                    name: inPlayerNames[ i-1 ],  \r\n                    live: true, \r\n                    hand: [uint(0),0], \r\n                    role: RoleTypes.Unseen,\r\n                    pokerKey: 0\r\n                }\r\n            );\r\n            \r\n            emit JoinPlayer(\r\n                //for mapping\r\n                i,\r\n                //for players \r\n                players[i].name, \r\n                players[i].live, \r\n                [uint((players[i].hand)[0]),(players[i].hand)[1]], \r\n                players[i].role, \r\n                players[i].pokerKey\r\n            );\r\n            \r\n            emit RegLivingPlayer(\r\n                i,\r\n                players[i].name\r\n                );\r\n        }\r\n        emit RegLivingRole([uint(0),2,1,n-3]);\r\n        emit PlayerReady(n);\r\n    }\r\n    \r\n    \r\n    //2-1  (V)\r\n\r\n    //(a)    \r\n\r\n    function createCards() public {   \r\n        MPC.length = deck.length = 1+n;\r\n        for(uint i=0; i <= n; i++ ){\r\n            prepareDeck(i);\r\n        }\r\n        for(i=0; i<=n; i++){\r\n            (deck[i][0], deck[i][1]) = multiply(MPC[i], G);\r\n        }\r\n        generateMap(deck[0], RoleTypes.Unseen);\r\n        generateMap(deck[1], RoleTypes.Werewolf);\r\n        generateMap(deck[2], RoleTypes.Werewolf);\r\n        generateMap(deck[3], RoleTypes.Seer);\r\n        for (uint j = 4; j <= n; j++) {\r\n            generateMap(deck[j], RoleTypes.Villager);\r\n        }\r\n    }\r\n\r\n    function quickCreateCard(\r\n        uint i,\r\n        uint inMPC\r\n        ) \r\n        external\r\n        view \r\n        returns(\r\n            uint[2] outCard, \r\n            uint cardNum, \r\n            uint roleNum\r\n            )\r\n        {   \r\n        (outCard[0], outCard[1]) = multiply(inMPC, G);\r\n        RoleTypes outRole;\r\n        if(i == 0){\r\n            outRole = RoleTypes.Unseen;\r\n        }else if(i<=2){\r\n            outRole = RoleTypes.Werewolf;\r\n        }else if(i==3){\r\n            outRole = RoleTypes.Seer;\r\n        }else{\r\n            outRole = RoleTypes.Villager;\r\n        }\r\n        (cardNum,roleNum)= quickGenerateMap(outCard, outRole);\r\n    }\r\n\r\n    //(b) \r\n\r\n    function shuffleCards() public {\r\n        uint printBack = 0x7717; \r\n        for(uint i=0; i<=n; i++){\r\n            (deck[i][0], deck[i][1]) = multiply(printBack, deck[i]);\r\n        }\r\n        uint[2] memory tmp;\r\n        (tmp[0], tmp[1]) = (deck[2][0], deck[2][1]);\r\n        (deck[2][0], deck[2][1]) = (deck[5][0], deck[5][1]);\r\n        (deck[5][0], deck[5][1]) = (tmp[0], tmp[1]);\r\n    } \r\n\r\n    function shuffleCardBy(\r\n        uint i, \r\n        uint pokerKey\r\n        ) \r\n            external\r\n    {\r\n        //encrypt each card\r\n        uint printBack = pokerKey; \r\n        for(uint k=0; k<=n; k++){\r\n            (deck[k][0], deck[k][1]) = multiply(printBack, deck[k]);\r\n        }\r\n        //support any shuffle\r\n    }\r\n\r\n    function quickShuffleCardBy(\r\n        uint i, \r\n        uint pokerKey, \r\n        uint[2][] inDeck, \r\n        uint numCards\r\n        ) \r\n        external \r\n        view \r\n        returns(uint[2][] outDeck){\r\n        //encrypt each card\r\n        uint printBack = pokerKey;\r\n        outDeck = new uint[2][](1+numCards); \r\n        for(uint k=0; k<=numCards; k++){\r\n            (outDeck[k][0], outDeck[k][1]) = multiply(printBack, inDeck[k]);\r\n        }\r\n        //support any shuffle TODO: some shuffle\r\n    }\r\n    \r\n\r\n    //2-2.  (V)\r\n\r\n    function dealCards() public {\r\n        for(uint i=1; i<=n; i++){\r\n            (players[i].hand[0], players[i].hand[1])  \r\n            = (deck[i][0], deck[i][1]);\r\n        }\r\n        helpDecryptRole();\r\n    }\r\n\r\n    function dealCardTo(uint i) \r\n        external        \r\n        view \r\n        returns(uint[2] hand){\r\n        (hand[0],hand[1])=(deck[i][0], deck[i][1]);\r\n    }\r\n\r\n    //3.  (V)\r\n\r\n    function nightKill(address victimName, uint proofCanKill) public {\r\n        uint v = playerNumOf[victimName];\r\n        Player memory victim = players[v];\r\n        require (verify(proofCanKill, victim)==true);\r\n        killed(victimName);\r\n    }\r\n    \r\n    //4. \r\n\r\n    function dayVoting(address name) public {\r\n        \r\n        killed(name);\r\n\r\n    }\r\n    \r\n    //5. open \r\n\r\n    function openRole(RoleTypes _role, uint _pokerKey) public {\r\n        require(verifyRole(_role, _pokerKey)==true);\r\n        uint i = playerNumOf[msg.sender];\r\n        players[i].role = _role;\r\n        players[i].pokerKey=_pokerKey;\r\n        \r\n        living[uint(_role)]--;\r\n\r\n        if(living[uint(RoleTypes.Werewolf)]==living[uint(RoleTypes.Seer)]+living[uint(RoleTypes.Villager)]){\r\n            winner = \"Werewolves\";\r\n        }\r\n        else if(living[uint(RoleTypes.Werewolf)]==0){\r\n            winner = \"Humans\";\r\n        }\r\n    }\r\n\r\n\r\n    //getter functions\r\n    \r\n    function multiply(uint s, uint[2] point) public view returns(uint ,uint){\r\n        uint[3] memory result = Secp256k1_noconflict._mul(s, point);\r\n        ECCMath_noconflict.toZ1(result, p);\r\n        return (result[0],result[1]);\r\n    }\r\n\r\n    function checkRoleOf(uint[2] card) public view returns(uint) {return roleOf[keccak256(card)];}\r\n\r\n    function getHandOf(address name) public view returns(uint[2] hand){\r\n        uint i = playerNumOf[name];\r\n        (hand[0] ,hand[1]) = ((players[i].hand)[0], (players[i].hand)[1]);\r\n    }\r\n\r\n    function numSurvive() public view returns(uint) {return livingPlayers.length-1;}\r\n\r\n    function werewolfCard() \r\n        external \r\n        view \r\n        returns(uint cardX,uint cardY){\r\n        (cardX, cardY) = (deck[1][0], deck[1][1]);\r\n    }\r\n\r\n    function hashCard(uint[2] card) public pure returns(uint){return uint(keccak256(card));}\r\n    \r\n    function cardOrder() public pure returns(uint) {return q;}\r\n    \r\n\r\n    //\r\n\r\n    function werewolfFrameKilling(uint[2] framedHand, uint[2] _werewolfCard,  uint victim) public view returns(uint[2] __werewolfCard, uint[2] _framedHand, uint _victim, uint[3] T, uint c, uint s){\r\n        return processPoK.forgeProof(_werewolfCard, framedHand, victim);\r\n    }\r\n\r\n    function werewolfChooset(uint pokerKey, uint[2][] hands, uint[2] _werewolfCard, uint victim ) external view returns(uint realt){\r\n\r\n        return processPoK.computeRealt(_werewolfCard, hands, pokerKey, victim);\r\n    }\r\n\r\n    function werewolfComputeT(uint realt, uint[2] _werewolfCard) public view returns(uint[3] realT){\r\n        return processPoK.computeTFrom(realt, _werewolfCard);\r\n    }\r\n\r\n    function computeChallenge(uint[2] _werewolfCard, uint[2][] _hands, uint victim, uint[3][] Ts) public view returns(uint realChallenge){\r\n        return processPoK.computeChallenge(_werewolfCard, _hands, victim, Ts);\r\n    }\r\n\r\n    function werewolfProve(uint pokerKey, uint[2] _werewolfCard, uint[2] hand, uint victim, uint tReady,uint cReady) public view returns(uint[2] __werewolfCard, uint[2] _hand, uint _victim, uint[3] T, uint c, uint s){\r\n        return processPoK.createSchnorr(pokerKey, _werewolfCard, hand, victim, tReady, cReady);\r\n    }\r\n\r\n    function verifyWerewolfProof(uint[2] _werewolfCard, uint[2] hand,  uint[3] T, uint c, uint s) public view returns (bool result){\r\n        return processPoK.verifySchnorr(_werewolfCard, hand, T, c, s);\r\n    }\r\n\r\n\r\n    //\r\n\r\n    function verify(uint proofCanKill, Player victim) pure internal returns(bool){\r\n        \r\n        return proofCanKill == 123 && victim.live == true;\r\n    }\r\n\r\n\r\n    //Prepare cards\r\n\r\n     function generateMap(uint[2] card, RoleTypes role) internal {\r\n        \r\n        roleOf[keccak256(card)] = uint(role);\r\n    \r\n    }\r\n\r\n    function quickGenerateMap(\r\n        uint[2] card, \r\n        RoleTypes role\r\n    ) \r\n        public\r\n        pure\r\n        returns(\r\n            uint cardNum,\r\n            uint roleNum\r\n        )\r\n    {\r\n        return(\r\n            uint(keccak256(card)),\r\n            uint(role)\r\n            );\r\n    }\r\n\r\n    function prepareDeck(uint i) internal {\r\n        \r\n        MPC[ i ] = (i+123) % q;\r\n        //avoid use 0. function toZ1 revert at point at infinity\r\n    \r\n    }\r\n\r\n    function quickPrepareDeck(uint i) public view returns(uint outMPC){\r\n        \r\n        outMPC = (i+123) % q;\r\n        //avoid use 0. function toZ1 revert at point at infinity\r\n    \r\n    }\r\n    \r\n    \r\n    //\r\n\r\n    function helpDecryptRole() internal {\r\n        for(uint i=1; i<=n; i++){\r\n        \tuint[2] storage hand = players[i].hand;\r\n        \thand[0] ++;\r\n        } \r\n    }\r\n\r\n    function helpDecryptRole(uint me, uint pokerKey, uint i, uint[2] cipherCard) external view returns (uint[2] decryptCard){\r\n        if(me == i){\r\n            (decryptCard[0], decryptCard[1]) = (cipherCard[0], cipherCard[1]);\r\n        }else{\r\n            uint keyInverse = ECCMath_noconflict.invmod(pokerKey, q);\r\n            (decryptCard[0],decryptCard[1]) = multiply(keyInverse, cipherCard);\r\n        }\r\n       \r\n    }\r\n\r\n    function recoverRole(uint me, uint pokerKey, uint[2] cipherCard) external view returns (uint[2] decryptCard){\r\n            uint keyInverse = ECCMath_noconflict.invmod(pokerKey, q);\r\n            (decryptCard[0],decryptCard[1]) = multiply(keyInverse, cipherCard);\r\n       \r\n    }\r\n\r\n\r\n    //\r\n    \r\n    function killed(address player) internal{\r\n        uint i = playerNumOf[player];\r\n        players[i].live=false;\r\n        uint j= theLivingNumOf[player];\r\n        \r\n        for(uint k=j; k<= livingPlayers.length-2 ; k++){\r\n            livingPlayers[k] = livingPlayers[k+1];\r\n            theLivingNumOf[livingPlayers[k]]--;\r\n        }\r\n        livingPlayers.length--;\r\n        theLivingNumOf[player]=0;\r\n    }\r\n\r\n    function verifyRole(RoleTypes _role, uint _pokerKey) pure internal returns(bool){\r\n        \r\n        return (_role!=RoleTypes.Unseen && _pokerKey==456);\r\n    \r\n    }\r\n    //TODO\r\n    function verifyRole(\r\n        uint[2] handFace, \r\n        uint pokerKey, \r\n        uint[2] handBack\r\n    )\r\n        public\r\n        view\r\n        returns(bool)\r\n    {\r\n        uint[2] memory claimHand;\r\n        (claimHand[0],claimHand[1]) = multiply(pokerKey,handFace);\r\n\r\n        return (handBack[0] == claimHand[0]) && (handBack[1] == claimHand[1]);\r\n    }\r\n\r\n    \r\n    \r\n    \r\n    enum RoleTypes{Unseen, Werewolf, Seer, Villager}\r\n    \r\n    struct Player{\r\n        address name;\r\n        bool live;\r\n        uint[2] hand;\r\n        RoleTypes role;\r\n        uint pokerKey;\r\n    }\r\n\r\n\r\n   struct KillConditions{\r\n        uint iAmWerewolf;\r\n        uint iAmLive;\r\n        uint victimLive;\r\n    }\r\n   \r\n\r\n    event debug(uint i);\r\n    \r\n    event JoinPlayer(\r\n        uint indexed outPlayerNum,\r\n        address outPlayerName,\r\n        bool outPlayerLive,\r\n        uint[2] outPlayerHand,\r\n        RoleTypes outPlayerRole,\r\n        uint outPlayerKey\r\n    );\r\n\r\n    event Deposit(\r\n        address indexed outPlayerName,\r\n        uint outValue\r\n    );\r\n\r\n    event PlayerReady(uint numPlayers);\r\n    \r\n    event RegLivingPlayer(uint indexed livingPlayerNum, address livingPlayerName);\r\n    \r\n    event RegLivingRole(uint[4] outLiving);\r\n}",
  "sourcePath": "C:\\Users\\eason\\Documents\\GitHub\\SmartWerewolf\\contracts\\SmartWerewolf.sol",
  "compiler": {
    "name": "solc",
    "version": "0.4.23+commit.124ca40d.Emscripten.clang"
  },
  "schemaVersion": "2.0.0",
  "updatedAt": "2018-05-22T23:36:12.933Z"
}