{
  "contractName": "ZKProof",
  "abi": [
    {
      "constant": true,
      "inputs": [
        {
          "name": "secret",
          "type": "uint256"
        },
        {
          "name": "message",
          "type": "uint256"
        }
      ],
      "name": "createProof",
      "outputs": [
        {
          "name": "out_pubkey",
          "type": "uint256[2]"
        },
        {
          "name": "out_s",
          "type": "uint256"
        },
        {
          "name": "out_e",
          "type": "uint256"
        }
      ],
      "payable": false,
      "stateMutability": "view",
      "type": "function"
    },
    {
      "constant": true,
      "inputs": [
        {
          "name": "pubkey",
          "type": "uint256[2]"
        },
        {
          "name": "message",
          "type": "uint256"
        },
        {
          "name": "s",
          "type": "uint256"
        },
        {
          "name": "e",
          "type": "uint256"
        }
      ],
      "name": "verifyProof",
      "outputs": [
        {
          "name": "",
          "type": "bool"
        }
      ],
      "payable": false,
      "stateMutability": "view",
      "type": "function"
    }
  ],
  "bytecode": "0x6060604052341561000f57600080fd5b6106b08061001e6000396000f30060606040526004361061004c576000357c0100000000000000000000000000000000000000000000000000000000900463ffffffff16806362d1ae9b14610051578063d647cb9a146100c7575b600080fd5b341561005c57600080fd5b61007b6004808035906020019091908035906020019091905050610140565b6040518084600260200280838360005b838110156100a657808201518184015260208101905061008b565b50505050905001838152602001828152602001935050505060405180910390f35b34156100d257600080fd5b61012660048080604001906002806020026040519081016040528092919082600260200280828437820191505050505091908035906020019091908035906020019091908035906020019091905050610162565b604051808215151515815260200191505060405180910390f35b6101486105f3565b600080610155858561017a565b9250925092509250925092565b6000610170858585856102c9565b9050949350505050565b6101826105f3565b60008061018d61061a565b600061019761061a565b6101ba6101a26102e3565b6101aa610307565b8a8115156101b457fe5b0661032f565b925082600001518660006002811015156101d057fe5b60200201818152505082602001518660016002811015156101ed57fe5b6020020181815250506101fe610307565b8789604051808381526020018281526020019250505060405180910390206001900481151561022957fe5b06915061023d6102376102e3565b8361032f565b905085600060028110151561024e57fe5b602002015186600160028110151561026257fe5b6020020151826000015183602001518a604051808681526020018581526020018481526020018381526020018281526020019550505050505060405180910390206001900493506102bd826102b5610307565b868b096103c9565b94505050509250925092565b60006102d785858585610432565b82149050949350505050565b6102eb61061a565b6040805190810160405280600181526020016002815250905090565b60007f30644e72e131a029b85045b68181585d2833e84879b9709143e1f593f0000001905090565b61033761061a565b61033f610634565b6000846000015182600060038110151561035557fe5b602002018181525050846020015182600160038110151561037257fe5b6020020181815250508382600260038110151561038b57fe5b60200201818152505060608360808460076107d05a03fa905080600081146103b2576103b4565bfe5b508015156103c157600080fd5b505092915050565b600080828411156103dc57839050610402565b7f30644e72e131a029b85045b68181585d2833e84879b9709143e1f593f0000001840190505b7f30644e72e131a029b85045b68181585d2833e84879b9709143e1f593f000000160008483030891505092915050565b600061043c61061a565b61044461061a565b61044c61061a565b61046f6104576102e3565b61045f610307565b8881151561046957fe5b0661032f565b9250604080519081016040528089600060028110151561048b57fe5b602002015181526020018960016002811015156104a457fe5b602002015181525091506104c1836104bc848861032f565b610538565b90508760006002811015156104d257fe5b60200201518860016002811015156104e657fe5b6020020151826000015183602001518a60405180868152602001858152602001848152602001838152602001828152602001955050505050506040518091039020600190049350505050949350505050565b61054061061a565b61054861065c565b6000846000015182600060048110151561055e57fe5b602002018181525050846020015182600160048110151561057b57fe5b602002018181525050836000015182600260048110151561059857fe5b60200201818152505083602001518260036004811015156105b557fe5b60200201818152505060608360c08460066107d05a03fa905080600081146105dc576105de565bfe5b508015156105eb57600080fd5b505092915050565b60408051908101604052806002905b60008152602001906001900390816106025790505090565b604080519081016040528060008152602001600081525090565b6060604051908101604052806003905b60008152602001906001900390816106445790505090565b6080604051908101604052806004905b600081526020019060019003908161066c57905050905600a165627a7a72305820187de501f8602e2368542d78f1e159b5458ef50252d850b037f3e9228563f3070029",
  "source": "pragma solidity ^0.4.14;\r\n\r\nimport \"./schnorr.sol\";\r\n\r\ncontract ZKProof\r\n{\r\n\tfunction createProof( uint256 secret, uint256 message )\r\n\t    constant\r\n\t    returns (uint256[2] out_pubkey, uint256 out_s, uint256 out_e)\r\n\t{\r\n\t\treturn Schnorr.CreateProof(secret,message);\r\n\t}\r\n\r\n\tfunction verifyProof( uint256[2] pubkey, uint256 message, uint256 s, uint256 e )\r\n\t    constant\r\n\t    returns (bool)\r\n\t{\r\n\t    return Schnorr.VerifyProof(pubkey, message, s, e);\r\n\t}\r\n}",
  "sourcePath": "C:\\Users\\eason\\Documents\\GitHub\\SmartWerewolf\\contracts\\ZKProof.sol",
  "compiler": {
    "name": "solc",
    "version": "0.4.19+commit.c4cbbb05.Emscripten.clang"
  },
  "schemaVersion": "2.0.0",
  "updatedAt": "2018-03-25T19:56:22.196Z"
}