{
  "contractName": "ZKProof",
  "abi": [
    {
      "constant": true,
      "inputs": [
        {
          "name": "secret",
          "type": "uint256"
        },
        {
          "name": "message",
          "type": "uint256"
        }
      ],
      "name": "createProof",
      "outputs": [
        {
          "name": "out_pubkey",
          "type": "uint256[2]"
        },
        {
          "name": "out_s",
          "type": "uint256"
        },
        {
          "name": "out_e",
          "type": "uint256"
        }
      ],
      "payable": false,
      "stateMutability": "view",
      "type": "function"
    },
    {
      "constant": true,
      "inputs": [
        {
          "name": "pubkey",
          "type": "uint256[2]"
        },
        {
          "name": "message",
          "type": "uint256"
        },
        {
          "name": "s",
          "type": "uint256"
        },
        {
          "name": "e",
          "type": "uint256"
        }
      ],
      "name": "verifyProof",
      "outputs": [
        {
          "name": "",
          "type": "bool"
        }
      ],
      "payable": false,
      "stateMutability": "view",
      "type": "function"
    }
  ],
  "bytecode": "0x608060405234801561001057600080fd5b506104f4806100206000396000f30060806040526004361061004b5763ffffffff7c010000000000000000000000000000000000000000000000000000000060003504166362d1ae9b8114610050578063d647cb9a146100b2575b600080fd5b34801561005c57600080fd5b5061006b600435602435610112565b6040518084600260200280838360005b8381101561009357818101518382015260200161007b565b5050505091909101938452505060208201526040805191829003019150f35b3480156100be57600080fd5b506040805180820182526100fe91369160049160449190839060029083908390808284375093965050833594505050602082013591604001359050610134565b604080519115158252519081900360200190f35b61011a610458565b600080610127858561014b565b9250925092509250925092565b60006101428585858561023c565b95945050505050565b610153610458565b60008061015e610473565b6000610168610473565b61018b610173610255565b61017b610276565b8a81151561018557fe5b0661029a565b805187526020808201519088015292506101a3610276565b60408051898152602081018b905281519081900390910190208115156101c557fe5b0691506101d96101d3610255565b8361029a565b86516020808901518351848301516040805195865293850192909252838301526060830152608082018a9052519081900360a0019020945090506102308261021f610276565b80151561022857fe5b868b096102f4565b94505050509250925092565b600061024a8585858561035a565b909114949350505050565b61025d610473565b5060408051808201909152600181526002602082015290565b7f30644e72e131a029b85045b68181585d2833e84879b9709143e1f593f000000190565b6102a2610473565b6102aa61048a565b835181526020808501519082015260408101839052600060608360808460076107d05a03fa90508080156102dd576102df565bfe5b508015156102ec57600080fd5b505092915050565b6000808284111561030657508261032b565b507f30644e72e131a029b85045b68181585d2833e84879b9709143e1f593f000000183015b7f30644e72e131a029b85045b68181585d2833e84879b9709143e1f593f0000001600084830308949350505050565b6000610364610473565b61036c610473565b610374610473565b61039161037f610255565b610387610276565b8881151561018557fe5b60408051808201909152895181526020808b01519082015290935091506103c1836103bc848861029a565b61040a565b88516020998a01518251928b0151604080519384529b830191909152818b019290925260608101919091526080810197909752505094519384900360a001909320949350505050565b610412610473565b61041a6104a9565b8351815260208085015181830152835160408301528301516060808301919091526000908360c08460066107d05a03fa90508080156102dd576102df565b60408051808201825290600290829080388339509192915050565b604080518082019091526000808252602082015290565b6060604051908101604052806003906020820280388339509192915050565b60806040519081016040528060049060208202803883395091929150505600a165627a7a723058209271f84c0880b0cda393952668d43d999bde4251ddf1266b05b4b60cc619a0520029",
  "source": "pragma solidity ^0.4.14;\r\n\r\nimport \"./schnorr.sol\";\r\n\r\ncontract ZKProof\r\n{\r\n\tfunction createProof( uint256 secret, uint256 message )\r\n\t    constant\r\n\t    returns (uint256[2] out_pubkey, uint256 out_s, uint256 out_e)\r\n\t{\r\n\t\treturn Schnorr.CreateProof(secret,message);\r\n\t}\r\n\r\n\tfunction verifyProof( uint256[2] pubkey, uint256 message, uint256 s, uint256 e )\r\n\t    constant\r\n\t    returns (bool)\r\n\t{\r\n\t    return Schnorr.VerifyProof(pubkey, message, s, e);\r\n\t}\r\n}",
  "sourcePath": "C:\\Users\\eason\\Documents\\GitHub\\SmartWerewolf\\contracts\\ZKProof.sol",
  "compiler": {
    "name": "solc",
    "version": "0.4.23+commit.124ca40d.Emscripten.clang"
  },
  "schemaVersion": "2.0.0",
  "updatedAt": "2018-05-21T10:35:14.169Z"
}